{
  "_format": "hh-sol-artifact-1",
  "contractName": "FunctionSelector",
  "sourceName": "contracts/function_selector.sol",
  "abi": [
    {
      "inputs": [
        {
          "internalType": "bytes4",
          "name": "_func",
          "type": "bytes4"
        }
      ],
      "name": "execute",
      "outputs": [],
      "stateMutability": "nonpayable",
      "type": "function"
    },
    {
      "inputs": [],
      "name": "owner",
      "outputs": [
        {
          "internalType": "address",
          "name": "",
          "type": "address"
        }
      ],
      "stateMutability": "view",
      "type": "function"
    },
    {
      "inputs": [
        {
          "internalType": "address",
          "name": "_owner",
          "type": "address"
        }
      ],
      "name": "setOwner",
      "outputs": [],
      "stateMutability": "nonpayable",
      "type": "function"
    }
  ],
  "bytecode": "0x6080604052306000806101000a81548173ffffffffffffffffffffffffffffffffffffffff021916908373ffffffffffffffffffffffffffffffffffffffff16021790555034801561005057600080fd5b50610596806100606000396000f3fe608060405234801561001057600080fd5b50600436106100415760003560e01c806313af4035146100465780638da5cb5b14610062578063de510b7214610080575b600080fd5b610060600480360381019061005b9190610313565b61009c565b005b61006a61016d565b604051610077919061034f565b60405180910390f35b61009a600480360381019061009591906103c2565b610191565b005b60008054906101000a900473ffffffffffffffffffffffffffffffffffffffff1673ffffffffffffffffffffffffffffffffffffffff163373ffffffffffffffffffffffffffffffffffffffff161461012a576040517f08c379a00000000000000000000000000000000000000000000000000000000081526004016101219061044c565b60405180910390fd5b806000806101000a81548173ffffffffffffffffffffffffffffffffffffffff021916908373ffffffffffffffffffffffffffffffffffffffff16021790555050565b60008054906101000a900473ffffffffffffffffffffffffffffffffffffffff1681565b60003073ffffffffffffffffffffffffffffffffffffffff1682336040516024016101bc919061034f565b604051602081830303815290604052907bffffffffffffffffffffffffffffffffffffffffffffffffffffffff19166020820180517bffffffffffffffffffffffffffffffffffffffffffffffffffffffff838183161783525050505060405161022691906104dd565b6000604051808303816000865af19150503d8060008114610263576040519150601f19603f3d011682016040523d82523d6000602084013e610268565b606091505b50509050806102ac576040517f08c379a00000000000000000000000000000000000000000000000000000000081526004016102a390610540565b60405180910390fd5b5050565b600080fd5b600073ffffffffffffffffffffffffffffffffffffffff82169050919050565b60006102e0826102b5565b9050919050565b6102f0816102d5565b81146102fb57600080fd5b50565b60008135905061030d816102e7565b92915050565b600060208284031215610329576103286102b0565b5b6000610337848285016102fe565b91505092915050565b610349816102d5565b82525050565b60006020820190506103646000830184610340565b92915050565b60007fffffffff0000000000000000000000000000000000000000000000000000000082169050919050565b61039f8161036a565b81146103aa57600080fd5b50565b6000813590506103bc81610396565b92915050565b6000602082840312156103d8576103d76102b0565b5b60006103e6848285016103ad565b91505092915050565b600082825260208201905092915050565b7f6e6f74206f776e65720000000000000000000000000000000000000000000000600082015250565b60006104366009836103ef565b915061044182610400565b602082019050919050565b6000602082019050818103600083015261046581610429565b9050919050565b600081519050919050565b600081905092915050565b60005b838110156104a0578082015181840152602081019050610485565b60008484015250505050565b60006104b78261046c565b6104c18185610477565b93506104d1818560208601610482565b80840191505092915050565b60006104e982846104ac565b915081905092915050565b7f6661696c65642900000000000000000000000000000000000000000000000000600082015250565b600061052a6007836103ef565b9150610535826104f4565b602082019050919050565b600060208201905081810360008301526105598161051d565b905091905056fea264697066735822122082e35b20d0149b8766b352d676fda2da2718585cef5a9aeed676694f87d593fa64736f6c63430008110033",
  "linkReferences": {},
  "deployedLinkReferences": {}
}