{
  "_format": "hh-sol-artifact-1",
  "contractName": "TestDelegateCall",
  "sourceName": "contracts/test_delegate_call.sol",
  "abi": [
    {
      "inputs": [],
      "name": "num",
      "outputs": [
        {
          "internalType": "uint256",
          "name": "",
          "type": "uint256"
        }
      ],
      "stateMutability": "view",
      "type": "function"
    },
    {
      "inputs": [],
      "name": "sender",
      "outputs": [
        {
          "internalType": "address",
          "name": "",
          "type": "address"
        }
      ],
      "stateMutability": "view",
      "type": "function"
    },
    {
      "inputs": [
        {
          "internalType": "uint256",
          "name": "_num",
          "type": "uint256"
        }
      ],
      "name": "setNum",
      "outputs": [],
      "stateMutability": "nonpayable",
      "type": "function"
    },
    {
      "inputs": [
        {
          "internalType": "uint256",
          "name": "_num",
          "type": "uint256"
        }
      ],
      "name": "setVars",
      "outputs": [],
      "stateMutability": "payable",
      "type": "function"
    },
    {
      "inputs": [],
      "name": "value",
      "outputs": [
        {
          "internalType": "uint256",
          "name": "",
          "type": "uint256"
        }
      ],
      "stateMutability": "view",
      "type": "function"
    }
  ],
  "bytecode": "0x608060405234801561001057600080fd5b506102c7806100206000396000f3fe60806040526004361061004a5760003560e01c80633fa4f2451461004f5780634e70b1dc1461007a5780636466414b146100a557806367e404ce146100c1578063cd16ecbf146100ec575b600080fd5b34801561005b57600080fd5b50610064610115565b60405161007191906101bc565b60405180910390f35b34801561008657600080fd5b5061008f61011b565b60405161009c91906101bc565b60405180910390f35b6100bf60048036038101906100ba9190610208565b610121565b005b3480156100cd57600080fd5b506100d6610173565b6040516100e39190610276565b60405180910390f35b3480156100f857600080fd5b50610113600480360381019061010e9190610208565b610199565b005b60025481565b60005481565b8060008190555033600160006101000a81548173ffffffffffffffffffffffffffffffffffffffff021916908373ffffffffffffffffffffffffffffffffffffffff1602179055503460028190555050565b600160009054906101000a900473ffffffffffffffffffffffffffffffffffffffff1681565b8060008190555050565b6000819050919050565b6101b6816101a3565b82525050565b60006020820190506101d160008301846101ad565b92915050565b600080fd5b6101e5816101a3565b81146101f057600080fd5b50565b600081359050610202816101dc565b92915050565b60006020828403121561021e5761021d6101d7565b5b600061022c848285016101f3565b91505092915050565b600073ffffffffffffffffffffffffffffffffffffffff82169050919050565b600061026082610235565b9050919050565b61027081610255565b82525050565b600060208201905061028b6000830184610267565b9291505056fea264697066735822122096bcd945db06dd9436a70451f3882ffff646c20c4d2e80aee05b71618b34e9ce64736f6c63430008110033",
  "linkReferences": {},
  "deployedLinkReferences": {}
}