{
  "_format": "hh-sol-artifact-1",
  "contractName": "StakingRewardsV2",
  "sourceName": "contracts/staking_rewards_V2.sol",
  "abi": [
    {
      "inputs": [
        {
          "internalType": "address",
          "name": "_stakingNFT",
          "type": "address"
        }
      ],
      "stateMutability": "nonpayable",
      "type": "constructor"
    },
    {
      "anonymous": false,
      "inputs": [
        {
          "indexed": true,
          "internalType": "address",
          "name": "sender",
          "type": "address"
        },
        {
          "indexed": false,
          "internalType": "uint256",
          "name": "amount",
          "type": "uint256"
        }
      ],
      "name": "FTMReceived",
      "type": "event"
    },
    {
      "anonymous": false,
      "inputs": [
        {
          "indexed": true,
          "internalType": "address",
          "name": "sender",
          "type": "address"
        },
        {
          "indexed": false,
          "internalType": "uint256",
          "name": "amount",
          "type": "uint256"
        }
      ],
      "name": "NFTStaked",
      "type": "event"
    },
    {
      "anonymous": false,
      "inputs": [
        {
          "indexed": true,
          "internalType": "address",
          "name": "sender",
          "type": "address"
        },
        {
          "indexed": false,
          "internalType": "uint256",
          "name": "amount",
          "type": "uint256"
        }
      ],
      "name": "NFTUnstaked",
      "type": "event"
    },
    {
      "anonymous": false,
      "inputs": [
        {
          "indexed": true,
          "internalType": "address",
          "name": "sender",
          "type": "address"
        },
        {
          "indexed": false,
          "internalType": "uint256",
          "name": "amount",
          "type": "uint256"
        }
      ],
      "name": "RewardsClaimed",
      "type": "event"
    },
    {
      "stateMutability": "payable",
      "type": "fallback"
    },
    {
      "inputs": [],
      "name": "accumulatedRewardPerNFT",
      "outputs": [
        {
          "internalType": "uint256",
          "name": "",
          "type": "uint256"
        }
      ],
      "stateMutability": "view",
      "type": "function"
    },
    {
      "inputs": [
        {
          "internalType": "address",
          "name": "",
          "type": "address"
        }
      ],
      "name": "balanceOf",
      "outputs": [
        {
          "internalType": "uint256",
          "name": "",
          "type": "uint256"
        }
      ],
      "stateMutability": "view",
      "type": "function"
    },
    {
      "inputs": [],
      "name": "claimRewards",
      "outputs": [],
      "stateMutability": "nonpayable",
      "type": "function"
    },
    {
      "inputs": [],
      "name": "emergencyWithdraw",
      "outputs": [],
      "stateMutability": "nonpayable",
      "type": "function"
    },
    {
      "inputs": [],
      "name": "getRewardPerToken",
      "outputs": [
        {
          "internalType": "uint256",
          "name": "",
          "type": "uint256"
        }
      ],
      "stateMutability": "view",
      "type": "function"
    },
    {
      "inputs": [
        {
          "internalType": "address",
          "name": "_account",
          "type": "address"
        }
      ],
      "name": "getRewards",
      "outputs": [
        {
          "internalType": "uint256",
          "name": "",
          "type": "uint256"
        }
      ],
      "stateMutability": "view",
      "type": "function"
    },
    {
      "inputs": [
        {
          "internalType": "address",
          "name": "",
          "type": "address"
        },
        {
          "internalType": "address",
          "name": "",
          "type": "address"
        },
        {
          "internalType": "uint256[]",
          "name": "",
          "type": "uint256[]"
        },
        {
          "internalType": "uint256[]",
          "name": "",
          "type": "uint256[]"
        },
        {
          "internalType": "bytes",
          "name": "",
          "type": "bytes"
        }
      ],
      "name": "onERC1155BatchReceived",
      "outputs": [
        {
          "internalType": "bytes4",
          "name": "",
          "type": "bytes4"
        }
      ],
      "stateMutability": "nonpayable",
      "type": "function"
    },
    {
      "inputs": [
        {
          "internalType": "address",
          "name": "",
          "type": "address"
        },
        {
          "internalType": "address",
          "name": "",
          "type": "address"
        },
        {
          "internalType": "uint256",
          "name": "",
          "type": "uint256"
        },
        {
          "internalType": "uint256",
          "name": "",
          "type": "uint256"
        },
        {
          "internalType": "bytes",
          "name": "",
          "type": "bytes"
        }
      ],
      "name": "onERC1155Received",
      "outputs": [
        {
          "internalType": "bytes4",
          "name": "",
          "type": "bytes4"
        }
      ],
      "stateMutability": "nonpayable",
      "type": "function"
    },
    {
      "inputs": [],
      "name": "owner",
      "outputs": [
        {
          "internalType": "address",
          "name": "",
          "type": "address"
        }
      ],
      "stateMutability": "view",
      "type": "function"
    },
    {
      "inputs": [
        {
          "internalType": "address",
          "name": "",
          "type": "address"
        }
      ],
      "name": "rewards",
      "outputs": [
        {
          "internalType": "uint256",
          "name": "",
          "type": "uint256"
        }
      ],
      "stateMutability": "view",
      "type": "function"
    },
    {
      "inputs": [
        {
          "internalType": "uint256",
          "name": "_amount",
          "type": "uint256"
        }
      ],
      "name": "stake",
      "outputs": [],
      "stateMutability": "nonpayable",
      "type": "function"
    },
    {
      "inputs": [],
      "name": "stakingToken",
      "outputs": [
        {
          "internalType": "contract IERC1155",
          "name": "",
          "type": "address"
        }
      ],
      "stateMutability": "view",
      "type": "function"
    },
    {
      "inputs": [],
      "name": "staking_duration",
      "outputs": [
        {
          "internalType": "uint256",
          "name": "",
          "type": "uint256"
        }
      ],
      "stateMutability": "view",
      "type": "function"
    },
    {
      "inputs": [],
      "name": "staking_info",
      "outputs": [
        {
          "internalType": "uint256",
          "name": "start",
          "type": "uint256"
        },
        {
          "internalType": "uint256",
          "name": "reward_rate",
          "type": "uint256"
        }
      ],
      "stateMutability": "view",
      "type": "function"
    },
    {
      "inputs": [
        {
          "internalType": "bytes4",
          "name": "interfaceId",
          "type": "bytes4"
        }
      ],
      "name": "supportsInterface",
      "outputs": [
        {
          "internalType": "bool",
          "name": "",
          "type": "bool"
        }
      ],
      "stateMutability": "view",
      "type": "function"
    },
    {
      "inputs": [],
      "name": "totalStaked",
      "outputs": [
        {
          "internalType": "uint256",
          "name": "",
          "type": "uint256"
        }
      ],
      "stateMutability": "view",
      "type": "function"
    },
    {
      "inputs": [
        {
          "internalType": "uint256",
          "name": "_amount",
          "type": "uint256"
        }
      ],
      "name": "unstake",
      "outputs": [],
      "stateMutability": "nonpayable",
      "type": "function"
    },
    {
      "inputs": [],
      "name": "updatedAt",
      "outputs": [
        {
          "internalType": "uint256",
          "name": "",
          "type": "uint256"
        }
      ],
      "stateMutability": "view",
      "type": "function"
    },
    {
      "inputs": [
        {
          "internalType": "address",
          "name": "",
          "type": "address"
        }
      ],
      "name": "userRewardPerTokenAccounted",
      "outputs": [
        {
          "internalType": "uint256",
          "name": "",
          "type": "uint256"
        }
      ],
      "stateMutability": "view",
      "type": "function"
    },
    {
      "stateMutability": "payable",
      "type": "receive"
    }
  ],
  "bytecode": "0x60a06040526201518060025560405180604001604052806000815260200160008152506003600082015181600001556020820151816001015550503480156200004757600080fd5b5060405162001c2538038062001c2583398181016040528101906200006d919062000153565b33600160006101000a81548173ffffffffffffffffffffffffffffffffffffffff021916908373ffffffffffffffffffffffffffffffffffffffff1602179055508073ffffffffffffffffffffffffffffffffffffffff1660808173ffffffffffffffffffffffffffffffffffffffff16815250505062000185565b600080fd5b600073ffffffffffffffffffffffffffffffffffffffff82169050919050565b60006200011b82620000ee565b9050919050565b6200012d816200010e565b81146200013957600080fd5b50565b6000815190506200014d8162000122565b92915050565b6000602082840312156200016c576200016b620000e9565b5b60006200017c848285016200013c565b91505092915050565b608051611a76620001af600039600081816107ad01528181610ac20152610d4d0152611a766000f3fe6080604052600436106101185760003560e01c80637519ab50116100a0578063bc197c8111610064578063bc197c8114610469578063c23511e0146104a6578063db2e21bc146104d2578063f23a6e61146104e9578063feca39001461052657610175565b80637519ab501461038257806379ee54f7146103ad578063817b1cd2146103ea5780638da5cb5b14610415578063a694fc3a1461044057610175565b8063372500ab116100e7578063372500ab146102ad57806339a392a2146102c45780634f3d8145146102ef57806370a082311461031a57806372f702f31461035757610175565b806301ffc9a7146101cd5780630700037d1461020a57806328e3a8b0146102475780632e17de781461028457610175565b3661017557610125610551565b3373ffffffffffffffffffffffffffffffffffffffff167f627a1f2a33e46fb65cae23da2cb008aaa316ab9137e564b1b802a06811b991013460405161016b91906110af565b60405180910390a2005b61017d610551565b3373ffffffffffffffffffffffffffffffffffffffff167f627a1f2a33e46fb65cae23da2cb008aaa316ab9137e564b1b802a06811b99101346040516101c391906110af565b60405180910390a2005b3480156101d957600080fd5b506101f460048036038101906101ef9190611136565b6105a8565b604051610201919061117e565b60405180910390f35b34801561021657600080fd5b50610231600480360381019061022c91906111f7565b610622565b60405161023e91906110af565b60405180910390f35b34801561025357600080fd5b5061026e600480360381019061026991906111f7565b61063a565b60405161027b91906110af565b60405180910390f35b34801561029057600080fd5b506102ab60048036038101906102a69190611250565b610652565b005b3480156102b957600080fd5b506102c261088f565b005b3480156102d057600080fd5b506102d9610a9c565b6040516102e691906110af565b60405180910390f35b3480156102fb57600080fd5b50610304610aa2565b60405161031191906110af565b60405180910390f35b34801561032657600080fd5b50610341600480360381019061033c91906111f7565b610aa8565b60405161034e91906110af565b60405180910390f35b34801561036357600080fd5b5061036c610ac0565b60405161037991906112dc565b60405180910390f35b34801561038e57600080fd5b50610397610ae4565b6040516103a491906110af565b60405180910390f35b3480156103b957600080fd5b506103d460048036038101906103cf91906111f7565b610aea565b6040516103e191906110af565b60405180910390f35b3480156103f657600080fd5b506103ff610c34565b60405161040c91906110af565b60405180910390f35b34801561042157600080fd5b5061042a610c3a565b6040516104379190611306565b60405180910390f35b34801561044c57600080fd5b5061046760048036038101906104629190611250565b610c60565b005b34801561047557600080fd5b50610490600480360381019061048b919061152f565b610e9d565b60405161049d919061160d565b60405180910390f35b3480156104b257600080fd5b506104bb610eb2565b6040516104c9929190611628565b60405180910390f35b3480156104de57600080fd5b506104e7610ec4565b005b3480156104f557600080fd5b50610510600480360381019061050b9190611651565b610fbf565b60405161051d919061160d565b60405180910390f35b34801561053257600080fd5b5061053b610fd4565b60405161054891906110af565b60405180910390f35b6000600360000154426105649190611717565b90506002548111801561057e57506706f05b59d3b2000047115b156105a55760025447610591919061177a565b600360010181905550426003600001819055505b50565b60007f4e2312e0000000000000000000000000000000000000000000000000000000007bffffffffffffffffffffffffffffffffffffffffffffffffffffffff1916827bffffffffffffffffffffffffffffffffffffffffffffffffffffffff1916148061061b575061061a8261102c565b5b9050919050565b60056020528060005260406000206000915090505481565b60076020528060005260406000206000915090505481565b3361065b610fd4565b6009819055504260088190555061067181610aea565b600560008373ffffffffffffffffffffffffffffffffffffffff1673ffffffffffffffffffffffffffffffffffffffff16815260200190815260200160002081905550600954600760008373ffffffffffffffffffffffffffffffffffffffff1673ffffffffffffffffffffffffffffffffffffffff168152602001908152602001600020819055506000821161073d576040517f08c379a000000000000000000000000000000000000000000000000000000000815260040161073490611808565b60405180910390fd5b81600660003373ffffffffffffffffffffffffffffffffffffffff1673ffffffffffffffffffffffffffffffffffffffff168152602001908152602001600020600082825461078c9190611717565b92505081905550816000808282546107a49190611717565b925050819055507f000000000000000000000000000000000000000000000000000000000000000073ffffffffffffffffffffffffffffffffffffffff1663f242432a30336000866040518563ffffffff1660e01b815260040161080b949392919061189a565b600060405180830381600087803b15801561082557600080fd5b505af1158015610839573d6000803e3d6000fd5b505050503373ffffffffffffffffffffffffffffffffffffffff167f963148346e3c93bb3eb4b4c296e2e13321ff22bf1118c91686cb1bfe4adcd9188360405161088391906110af565b60405180910390a25050565b33610898610fd4565b600981905550426008819055506108ae81610aea565b600560008373ffffffffffffffffffffffffffffffffffffffff1673ffffffffffffffffffffffffffffffffffffffff16815260200190815260200160002081905550600954600760008373ffffffffffffffffffffffffffffffffffffffff1673ffffffffffffffffffffffffffffffffffffffff168152602001908152602001600020819055506000600560003373ffffffffffffffffffffffffffffffffffffffff1673ffffffffffffffffffffffffffffffffffffffff168152602001908152602001600020549050600081116109be576040517f08c379a00000000000000000000000000000000000000000000000000000000081526004016109b59061193e565b60405180910390fd5b6000600560003373ffffffffffffffffffffffffffffffffffffffff1673ffffffffffffffffffffffffffffffffffffffff168152602001908152602001600020819055503373ffffffffffffffffffffffffffffffffffffffff166108fc829081150290604051600060405180830381858888f19350505050158015610a49573d6000803e3d6000fd5b503373ffffffffffffffffffffffffffffffffffffffff167ffc30cddea38e2bf4d6ea7d3f9ed3b6ad7f176419f4963bd81318067a4aee73fe82604051610a9091906110af565b60405180910390a25050565b60025481565b60095481565b60066020528060005260406000206000915090505481565b7f000000000000000000000000000000000000000000000000000000000000000081565b60085481565b600080600560008473ffffffffffffffffffffffffffffffffffffffff1673ffffffffffffffffffffffffffffffffffffffff1681526020019081526020016000205490506000610b39610fd4565b600660008673ffffffffffffffffffffffffffffffffffffffff1673ffffffffffffffffffffffffffffffffffffffff16815260200190815260200160002054610b83919061195e565b90506000600760008673ffffffffffffffffffffffffffffffffffffffff1673ffffffffffffffffffffffffffffffffffffffff16815260200190815260200160002054600660008773ffffffffffffffffffffffffffffffffffffffff1673ffffffffffffffffffffffffffffffffffffffff16815260200190815260200160002054610c11919061195e565b9050808284610c2091906119a0565b610c2a9190611717565b9350505050919050565b60005481565b600160009054906101000a900473ffffffffffffffffffffffffffffffffffffffff1681565b33610c69610fd4565b60098190555042600881905550610c7f81610aea565b600560008373ffffffffffffffffffffffffffffffffffffffff1673ffffffffffffffffffffffffffffffffffffffff16815260200190815260200160002081905550600954600760008373ffffffffffffffffffffffffffffffffffffffff1673ffffffffffffffffffffffffffffffffffffffff1681526020019081526020016000208190555060008211610d4b576040517f08c379a0000000000000000000000000000000000000000000000000000000008152600401610d4290611808565b60405180910390fd5b7f000000000000000000000000000000000000000000000000000000000000000073ffffffffffffffffffffffffffffffffffffffff1663f242432a33306000866040518563ffffffff1660e01b8152600401610dab949392919061189a565b600060405180830381600087803b158015610dc557600080fd5b505af1158015610dd9573d6000803e3d6000fd5b5050505081600080828254610dee91906119a0565b9250508190555081600660003373ffffffffffffffffffffffffffffffffffffffff1673ffffffffffffffffffffffffffffffffffffffff1681526020019081526020016000206000828254610e4491906119a0565b925050819055503373ffffffffffffffffffffffffffffffffffffffff167f0cda5cf38f6592672c7b4a22ff3d50874d1913629bd5ffedc27b7b40503d60fd83604051610e9191906110af565b60405180910390a25050565b600063bc197c8160e01b905095945050505050565b60038060000154908060010154905082565b600160009054906101000a900473ffffffffffffffffffffffffffffffffffffffff1673ffffffffffffffffffffffffffffffffffffffff163373ffffffffffffffffffffffffffffffffffffffff1614610f54576040517f08c379a0000000000000000000000000000000000000000000000000000000008152600401610f4b90611a20565b60405180910390fd5b600160009054906101000a900473ffffffffffffffffffffffffffffffffffffffff1673ffffffffffffffffffffffffffffffffffffffff166108fc479081150290604051600060405180830381858888f19350505050158015610fbc573d6000803e3d6000fd5b50565b600063f23a6e6160e01b905095945050505050565b60008060005403610fe9576009549050611029565b6000805460085442610ffb9190611717565b60036001015461100b919061195e565b611015919061177a565b90508060095461102591906119a0565b9150505b90565b60007f01ffc9a7000000000000000000000000000000000000000000000000000000007bffffffffffffffffffffffffffffffffffffffffffffffffffffffff1916827bffffffffffffffffffffffffffffffffffffffffffffffffffffffff1916149050919050565b6000819050919050565b6110a981611096565b82525050565b60006020820190506110c460008301846110a0565b92915050565b6000604051905090565b600080fd5b600080fd5b60007fffffffff0000000000000000000000000000000000000000000000000000000082169050919050565b611113816110de565b811461111e57600080fd5b50565b6000813590506111308161110a565b92915050565b60006020828403121561114c5761114b6110d4565b5b600061115a84828501611121565b91505092915050565b60008115159050919050565b61117881611163565b82525050565b6000602082019050611193600083018461116f565b92915050565b600073ffffffffffffffffffffffffffffffffffffffff82169050919050565b60006111c482611199565b9050919050565b6111d4816111b9565b81146111df57600080fd5b50565b6000813590506111f1816111cb565b92915050565b60006020828403121561120d5761120c6110d4565b5b600061121b848285016111e2565b91505092915050565b61122d81611096565b811461123857600080fd5b50565b60008135905061124a81611224565b92915050565b600060208284031215611266576112656110d4565b5b60006112748482850161123b565b91505092915050565b6000819050919050565b60006112a261129d61129884611199565b61127d565b611199565b9050919050565b60006112b482611287565b9050919050565b60006112c6826112a9565b9050919050565b6112d6816112bb565b82525050565b60006020820190506112f160008301846112cd565b92915050565b611300816111b9565b82525050565b600060208201905061131b60008301846112f7565b92915050565b600080fd5b6000601f19601f8301169050919050565b7f4e487b7100000000000000000000000000000000000000000000000000000000600052604160045260246000fd5b61136f82611326565b810181811067ffffffffffffffff8211171561138e5761138d611337565b5b80604052505050565b60006113a16110ca565b90506113ad8282611366565b919050565b600067ffffffffffffffff8211156113cd576113cc611337565b5b602082029050602081019050919050565b600080fd5b60006113f66113f1846113b2565b611397565b90508083825260208201905060208402830185811115611419576114186113de565b5b835b81811015611442578061142e888261123b565b84526020840193505060208101905061141b565b5050509392505050565b600082601f83011261146157611460611321565b5b81356114718482602086016113e3565b91505092915050565b600080fd5b600067ffffffffffffffff82111561149a57611499611337565b5b6114a382611326565b9050602081019050919050565b82818337600083830152505050565b60006114d26114cd8461147f565b611397565b9050828152602081018484840111156114ee576114ed61147a565b5b6114f98482856114b0565b509392505050565b600082601f83011261151657611515611321565b5b81356115268482602086016114bf565b91505092915050565b600080600080600060a0868803121561154b5761154a6110d4565b5b6000611559888289016111e2565b955050602061156a888289016111e2565b945050604086013567ffffffffffffffff81111561158b5761158a6110d9565b5b6115978882890161144c565b935050606086013567ffffffffffffffff8111156115b8576115b76110d9565b5b6115c48882890161144c565b925050608086013567ffffffffffffffff8111156115e5576115e46110d9565b5b6115f188828901611501565b9150509295509295909350565b611607816110de565b82525050565b600060208201905061162260008301846115fe565b92915050565b600060408201905061163d60008301856110a0565b61164a60208301846110a0565b9392505050565b600080600080600060a0868803121561166d5761166c6110d4565b5b600061167b888289016111e2565b955050602061168c888289016111e2565b945050604061169d8882890161123b565b93505060606116ae8882890161123b565b925050608086013567ffffffffffffffff8111156116cf576116ce6110d9565b5b6116db88828901611501565b9150509295509295909350565b7f4e487b7100000000000000000000000000000000000000000000000000000000600052601160045260246000fd5b600061172282611096565b915061172d83611096565b9250828203905081811115611745576117446116e8565b5b92915050565b7f4e487b7100000000000000000000000000000000000000000000000000000000600052601260045260246000fd5b600061178582611096565b915061179083611096565b9250826117a05761179f61174b565b5b828204905092915050565b600082825260208201905092915050565b7f616d6f756e74203d203000000000000000000000000000000000000000000000600082015250565b60006117f2600a836117ab565b91506117fd826117bc565b602082019050919050565b60006020820190508181036000830152611821816117e5565b9050919050565b6000819050919050565b600061184d61184861184384611828565b61127d565b611096565b9050919050565b61185d81611832565b82525050565b600082825260208201905092915050565b50565b6000611884600083611863565b915061188f82611874565b600082019050919050565b600060a0820190506118af60008301876112f7565b6118bc60208301866112f7565b6118c96040830185611854565b6118d660608301846110a0565b81810360808301526118e781611877565b905095945050505050565b7f4e6f207265776172647320746f20626520636c61696d65640000000000000000600082015250565b60006119286018836117ab565b9150611933826118f2565b602082019050919050565b600060208201905081810360008301526119578161191b565b9050919050565b600061196982611096565b915061197483611096565b925082820261198281611096565b91508282048414831517611999576119986116e8565b5b5092915050565b60006119ab82611096565b91506119b683611096565b92508282019050808211156119ce576119cd6116e8565b5b92915050565b7f6e6f7420617574686f72697a6564000000000000000000000000000000000000600082015250565b6000611a0a600e836117ab565b9150611a15826119d4565b602082019050919050565b60006020820190508181036000830152611a39816119fd565b905091905056fea2646970667358221220a9872df50312a36d8c81599c654c352c0f6c89e0f2390ff5acf336749c02d7c464736f6c63430008110033",
  "linkReferences": {},
  "deployedLinkReferences": {}
}