{
  "_format": "hh-sol-artifact-1",
  "contractName": "LocalVariables",
  "sourceName": "contracts/local_variables.sol",
  "abi": [
    {
      "inputs": [],
      "name": "localVars",
      "outputs": [],
      "stateMutability": "pure",
      "type": "function"
    },
    {
      "inputs": [],
      "name": "mul",
      "outputs": [
        {
          "internalType": "uint256",
          "name": "",
          "type": "uint256"
        }
      ],
      "stateMutability": "pure",
      "type": "function"
    }
  ],
  "bytecode": "0x608060405234801561001057600080fd5b50610169806100206000396000f3fe608060405234801561001057600080fd5b50600436106100365760003560e01c806358931c461461003b578063ff2434ed14610059575b600080fd5b610043610063565b60405161005091906100a7565b60405180910390f35b61006161007e565b005b6000806201e2409050808161007891906100f1565b91505090565b6000607b90506000600190505050565b6000819050919050565b6100a18161008e565b82525050565b60006020820190506100bc6000830184610098565b92915050565b7f4e487b7100000000000000000000000000000000000000000000000000000000600052601160045260246000fd5b60006100fc8261008e565b91506101078361008e565b92508282026101158161008e565b9150828204841483151761012c5761012b6100c2565b5b509291505056fea264697066735822122005a0d1916492d8898d340f3b339a73843708843ca2bc410c3814ce9252d24eeb64736f6c63430008110033",
  "linkReferences": {},
  "deployedLinkReferences": {}
}