{
  "_format": "hh-sol-artifact-1",
  "contractName": "ClassicContract",
  "sourceName": "contracts/classic_contract.sol",
  "abi": [
    {
      "inputs": [
        {
          "internalType": "address",
          "name": "_target",
          "type": "address"
        }
      ],
      "stateMutability": "nonpayable",
      "type": "constructor"
    },
    {
      "inputs": [],
      "name": "pwn",
      "outputs": [
        {
          "internalType": "bool",
          "name": "",
          "type": "bool"
        }
      ],
      "stateMutability": "nonpayable",
      "type": "function"
    },
    {
      "inputs": [],
      "name": "target",
      "outputs": [
        {
          "internalType": "address",
          "name": "",
          "type": "address"
        }
      ],
      "stateMutability": "view",
      "type": "function"
    }
  ],
  "bytecode": "0x608060405234801561001057600080fd5b50604051610353380380610353833981810160405281019061003291906100db565b806000806101000a81548173ffffffffffffffffffffffffffffffffffffffff021916908373ffffffffffffffffffffffffffffffffffffffff16021790555050610108565b600080fd5b600073ffffffffffffffffffffffffffffffffffffffff82169050919050565b60006100a88261007d565b9050919050565b6100b88161009d565b81146100c357600080fd5b50565b6000815190506100d5816100af565b92915050565b6000602082840312156100f1576100f0610078565b5b60006100ff848285016100c6565b91505092915050565b61023c806101176000396000f3fe608060405234801561001057600080fd5b50600436106100365760003560e01c8063d4b839921461003b578063dd365b8b14610059575b600080fd5b610043610077565b604051610050919061016f565b60405180910390f35b61006161009b565b60405161006e91906101a5565b60405180910390f35b60008054906101000a900473ffffffffffffffffffffffffffffffffffffffff1681565b60008060008054906101000a900473ffffffffffffffffffffffffffffffffffffffff1673ffffffffffffffffffffffffffffffffffffffff166040516100e1906101f1565b6000604051808303816000865af19150503d806000811461011e576040519150601f19603f3d011682016040523d82523d6000602084013e610123565b606091505b505090508091505090565b600073ffffffffffffffffffffffffffffffffffffffff82169050919050565b60006101598261012e565b9050919050565b6101698161014e565b82525050565b60006020820190506101846000830184610160565b92915050565b60008115159050919050565b61019f8161018a565b82525050565b60006020820190506101ba6000830184610196565b92915050565b600081905092915050565b50565b60006101db6000836101c0565b91506101e6826101cb565b600082019050919050565b60006101fc826101ce565b915081905091905056fea2646970667358221220793feabcbbda12742dca92e4552a3785b2eb90ceb448ad63e4ac338cb8caf4a864736f6c63430008110033",
  "linkReferences": {},
  "deployedLinkReferences": {}
}