{
  "_format": "hh-sol-artifact-1",
  "contractName": "NftLowerGas",
  "sourceName": "contracts/mintNFT.sol",
  "abi": [
    {
      "inputs": [
        {
          "internalType": "string",
          "name": "_name",
          "type": "string"
        },
        {
          "internalType": "string",
          "name": "_symbol",
          "type": "string"
        },
        {
          "internalType": "string",
          "name": "_uriPrefix",
          "type": "string"
        }
      ],
      "stateMutability": "nonpayable",
      "type": "constructor"
    },
    {
      "anonymous": false,
      "inputs": [
        {
          "indexed": true,
          "internalType": "address",
          "name": "owner",
          "type": "address"
        },
        {
          "indexed": true,
          "internalType": "address",
          "name": "approved",
          "type": "address"
        },
        {
          "indexed": true,
          "internalType": "uint256",
          "name": "tokenId",
          "type": "uint256"
        }
      ],
      "name": "Approval",
      "type": "event"
    },
    {
      "anonymous": false,
      "inputs": [
        {
          "indexed": true,
          "internalType": "address",
          "name": "owner",
          "type": "address"
        },
        {
          "indexed": true,
          "internalType": "address",
          "name": "operator",
          "type": "address"
        },
        {
          "indexed": false,
          "internalType": "bool",
          "name": "approved",
          "type": "bool"
        }
      ],
      "name": "ApprovalForAll",
      "type": "event"
    },
    {
      "anonymous": false,
      "inputs": [
        {
          "indexed": true,
          "internalType": "address",
          "name": "previousOwner",
          "type": "address"
        },
        {
          "indexed": true,
          "internalType": "address",
          "name": "newOwner",
          "type": "address"
        }
      ],
      "name": "OwnershipTransferred",
      "type": "event"
    },
    {
      "anonymous": false,
      "inputs": [
        {
          "indexed": true,
          "internalType": "address",
          "name": "from",
          "type": "address"
        },
        {
          "indexed": true,
          "internalType": "address",
          "name": "to",
          "type": "address"
        },
        {
          "indexed": true,
          "internalType": "uint256",
          "name": "tokenId",
          "type": "uint256"
        }
      ],
      "name": "Transfer",
      "type": "event"
    },
    {
      "inputs": [
        {
          "internalType": "address",
          "name": "to",
          "type": "address"
        },
        {
          "internalType": "uint256",
          "name": "tokenId",
          "type": "uint256"
        }
      ],
      "name": "approve",
      "outputs": [],
      "stateMutability": "nonpayable",
      "type": "function"
    },
    {
      "inputs": [
        {
          "internalType": "address",
          "name": "owner",
          "type": "address"
        }
      ],
      "name": "balanceOf",
      "outputs": [
        {
          "internalType": "uint256",
          "name": "",
          "type": "uint256"
        }
      ],
      "stateMutability": "view",
      "type": "function"
    },
    {
      "inputs": [],
      "name": "cost",
      "outputs": [
        {
          "internalType": "uint256",
          "name": "",
          "type": "uint256"
        }
      ],
      "stateMutability": "view",
      "type": "function"
    },
    {
      "inputs": [
        {
          "internalType": "uint256",
          "name": "tokenId",
          "type": "uint256"
        }
      ],
      "name": "getApproved",
      "outputs": [
        {
          "internalType": "address",
          "name": "",
          "type": "address"
        }
      ],
      "stateMutability": "view",
      "type": "function"
    },
    {
      "inputs": [
        {
          "internalType": "address",
          "name": "owner",
          "type": "address"
        },
        {
          "internalType": "address",
          "name": "operator",
          "type": "address"
        }
      ],
      "name": "isApprovedForAll",
      "outputs": [
        {
          "internalType": "bool",
          "name": "",
          "type": "bool"
        }
      ],
      "stateMutability": "view",
      "type": "function"
    },
    {
      "inputs": [],
      "name": "maxMintAmountPerTx",
      "outputs": [
        {
          "internalType": "uint256",
          "name": "",
          "type": "uint256"
        }
      ],
      "stateMutability": "view",
      "type": "function"
    },
    {
      "inputs": [],
      "name": "maxSupply",
      "outputs": [
        {
          "internalType": "uint256",
          "name": "",
          "type": "uint256"
        }
      ],
      "stateMutability": "view",
      "type": "function"
    },
    {
      "inputs": [
        {
          "internalType": "uint256",
          "name": "_mintAmount",
          "type": "uint256"
        }
      ],
      "name": "mint",
      "outputs": [],
      "stateMutability": "payable",
      "type": "function"
    },
    {
      "inputs": [
        {
          "internalType": "uint256",
          "name": "_mintAmount",
          "type": "uint256"
        },
        {
          "internalType": "address",
          "name": "_receiver",
          "type": "address"
        }
      ],
      "name": "mintForAddress",
      "outputs": [],
      "stateMutability": "nonpayable",
      "type": "function"
    },
    {
      "inputs": [],
      "name": "name",
      "outputs": [
        {
          "internalType": "string",
          "name": "",
          "type": "string"
        }
      ],
      "stateMutability": "view",
      "type": "function"
    },
    {
      "inputs": [],
      "name": "owner",
      "outputs": [
        {
          "internalType": "address",
          "name": "",
          "type": "address"
        }
      ],
      "stateMutability": "view",
      "type": "function"
    },
    {
      "inputs": [
        {
          "internalType": "uint256",
          "name": "tokenId",
          "type": "uint256"
        }
      ],
      "name": "ownerOf",
      "outputs": [
        {
          "internalType": "address",
          "name": "",
          "type": "address"
        }
      ],
      "stateMutability": "view",
      "type": "function"
    },
    {
      "inputs": [],
      "name": "paused",
      "outputs": [
        {
          "internalType": "bool",
          "name": "",
          "type": "bool"
        }
      ],
      "stateMutability": "view",
      "type": "function"
    },
    {
      "inputs": [],
      "name": "renounceOwnership",
      "outputs": [],
      "stateMutability": "nonpayable",
      "type": "function"
    },
    {
      "inputs": [
        {
          "internalType": "address",
          "name": "from",
          "type": "address"
        },
        {
          "internalType": "address",
          "name": "to",
          "type": "address"
        },
        {
          "internalType": "uint256",
          "name": "tokenId",
          "type": "uint256"
        }
      ],
      "name": "safeTransferFrom",
      "outputs": [],
      "stateMutability": "nonpayable",
      "type": "function"
    },
    {
      "inputs": [
        {
          "internalType": "address",
          "name": "from",
          "type": "address"
        },
        {
          "internalType": "address",
          "name": "to",
          "type": "address"
        },
        {
          "internalType": "uint256",
          "name": "tokenId",
          "type": "uint256"
        },
        {
          "internalType": "bytes",
          "name": "data",
          "type": "bytes"
        }
      ],
      "name": "safeTransferFrom",
      "outputs": [],
      "stateMutability": "nonpayable",
      "type": "function"
    },
    {
      "inputs": [
        {
          "internalType": "address",
          "name": "operator",
          "type": "address"
        },
        {
          "internalType": "bool",
          "name": "approved",
          "type": "bool"
        }
      ],
      "name": "setApprovalForAll",
      "outputs": [],
      "stateMutability": "nonpayable",
      "type": "function"
    },
    {
      "inputs": [
        {
          "internalType": "uint256",
          "name": "_cost",
          "type": "uint256"
        }
      ],
      "name": "setCost",
      "outputs": [],
      "stateMutability": "nonpayable",
      "type": "function"
    },
    {
      "inputs": [
        {
          "internalType": "uint256",
          "name": "_maxMintAmountPerTx",
          "type": "uint256"
        }
      ],
      "name": "setMaxMintAmountPerTx",
      "outputs": [],
      "stateMutability": "nonpayable",
      "type": "function"
    },
    {
      "inputs": [
        {
          "internalType": "bool",
          "name": "_state",
          "type": "bool"
        }
      ],
      "name": "setPaused",
      "outputs": [],
      "stateMutability": "nonpayable",
      "type": "function"
    },
    {
      "inputs": [
        {
          "internalType": "string",
          "name": "_uriPrefix",
          "type": "string"
        }
      ],
      "name": "setUriPrefix",
      "outputs": [],
      "stateMutability": "nonpayable",
      "type": "function"
    },
    {
      "inputs": [
        {
          "internalType": "string",
          "name": "_uriSuffix",
          "type": "string"
        }
      ],
      "name": "setUriSuffix",
      "outputs": [],
      "stateMutability": "nonpayable",
      "type": "function"
    },
    {
      "inputs": [
        {
          "internalType": "bytes4",
          "name": "interfaceId",
          "type": "bytes4"
        }
      ],
      "name": "supportsInterface",
      "outputs": [
        {
          "internalType": "bool",
          "name": "",
          "type": "bool"
        }
      ],
      "stateMutability": "view",
      "type": "function"
    },
    {
      "inputs": [],
      "name": "symbol",
      "outputs": [
        {
          "internalType": "string",
          "name": "",
          "type": "string"
        }
      ],
      "stateMutability": "view",
      "type": "function"
    },
    {
      "inputs": [
        {
          "internalType": "uint256",
          "name": "_tokenId",
          "type": "uint256"
        }
      ],
      "name": "tokenURI",
      "outputs": [
        {
          "internalType": "string",
          "name": "",
          "type": "string"
        }
      ],
      "stateMutability": "view",
      "type": "function"
    },
    {
      "inputs": [],
      "name": "totalSupply",
      "outputs": [
        {
          "internalType": "uint256",
          "name": "",
          "type": "uint256"
        }
      ],
      "stateMutability": "view",
      "type": "function"
    },
    {
      "inputs": [
        {
          "internalType": "address",
          "name": "from",
          "type": "address"
        },
        {
          "internalType": "address",
          "name": "to",
          "type": "address"
        },
        {
          "internalType": "uint256",
          "name": "tokenId",
          "type": "uint256"
        }
      ],
      "name": "transferFrom",
      "outputs": [],
      "stateMutability": "nonpayable",
      "type": "function"
    },
    {
      "inputs": [
        {
          "internalType": "address",
          "name": "newOwner",
          "type": "address"
        }
      ],
      "name": "transferOwnership",
      "outputs": [],
      "stateMutability": "nonpayable",
      "type": "function"
    },
    {
      "inputs": [],
      "name": "uriPrefix",
      "outputs": [
        {
          "internalType": "string",
          "name": "",
          "type": "string"
        }
      ],
      "stateMutability": "view",
      "type": "function"
    },
    {
      "inputs": [],
      "name": "uriSuffix",
      "outputs": [
        {
          "internalType": "string",
          "name": "",
          "type": "string"
        }
      ],
      "stateMutability": "view",
      "type": "function"
    },
    {
      "inputs": [
        {
          "internalType": "address",
          "name": "_owner",
          "type": "address"
        }
      ],
      "name": "walletOfOwner",
      "outputs": [
        {
          "internalType": "uint256[]",
          "name": "",
          "type": "uint256[]"
        }
      ],
      "stateMutability": "view",
      "type": "function"
    },
    {
      "inputs": [],
      "name": "withdraw",
      "outputs": [],
      "stateMutability": "nonpayable",
      "type": "function"
    }
  ],
  "bytecode": "0x6080604052604051806020016040528060008152506008908162000024919062000559565b506040518060400160405280600581526020017f2e6a736f6e000000000000000000000000000000000000000000000000000000815250600990816200006b919062000559565b50662386f26fc10000600a556004600b556001600c556001600d60006101000a81548160ff021916908315150217905550348015620000a957600080fd5b5060405162004618380380620046188339818101604052810190620000cf9190620007a4565b82828160009081620000e2919062000559565b508060019081620000f4919062000559565b505050620001176200010b6200013160201b60201c565b6200013960201b60201c565b6200012881620001ff60201b60201c565b505050620008e0565b600033905090565b6000600660009054906101000a900473ffffffffffffffffffffffffffffffffffffffff16905081600660006101000a81548173ffffffffffffffffffffffffffffffffffffffff021916908373ffffffffffffffffffffffffffffffffffffffff1602179055508173ffffffffffffffffffffffffffffffffffffffff168173ffffffffffffffffffffffffffffffffffffffff167f8be0079c531659141344cd1fd0a4f28419497f9722a3daafe3b4186f6b6457e060405160405180910390a35050565b6200020f6200022460201b60201c565b806008908162000220919062000559565b5050565b620002346200013160201b60201c565b73ffffffffffffffffffffffffffffffffffffffff166200025a620002b560201b60201c565b73ffffffffffffffffffffffffffffffffffffffff1614620002b3576040517f08c379a0000000000000000000000000000000000000000000000000000000008152600401620002aa90620008be565b60405180910390fd5b565b6000600660009054906101000a900473ffffffffffffffffffffffffffffffffffffffff16905090565b600081519050919050565b7f4e487b7100000000000000000000000000000000000000000000000000000000600052604160045260246000fd5b7f4e487b7100000000000000000000000000000000000000000000000000000000600052602260045260246000fd5b600060028204905060018216806200036157607f821691505b60208210810362000377576200037662000319565b5b50919050565b60008190508160005260206000209050919050565b60006020601f8301049050919050565b600082821b905092915050565b600060088302620003e17fffffffffffffffffffffffffffffffffffffffffffffffffffffffffffffffff82620003a2565b620003ed8683620003a2565b95508019841693508086168417925050509392505050565b6000819050919050565b6000819050919050565b60006200043a620004346200042e8462000405565b6200040f565b62000405565b9050919050565b6000819050919050565b620004568362000419565b6200046e620004658262000441565b848454620003af565b825550505050565b600090565b6200048562000476565b620004928184846200044b565b505050565b5b81811015620004ba57620004ae6000826200047b565b60018101905062000498565b5050565b601f8211156200050957620004d3816200037d565b620004de8462000392565b81016020851015620004ee578190505b62000506620004fd8562000392565b83018262000497565b50505b505050565b600082821c905092915050565b60006200052e600019846008026200050e565b1980831691505092915050565b60006200054983836200051b565b9150826002028217905092915050565b6200056482620002df565b67ffffffffffffffff81111562000580576200057f620002ea565b5b6200058c825462000348565b62000599828285620004be565b600060209050601f831160018114620005d15760008415620005bc578287015190505b620005c885826200053b565b86555062000638565b601f198416620005e1866200037d565b60005b828110156200060b57848901518255600182019150602085019450602081019050620005e4565b868310156200062b578489015162000627601f8916826200051b565b8355505b6001600288020188555050505b505050505050565b6000604051905090565b600080fd5b600080fd5b600080fd5b600080fd5b6000601f19601f8301169050919050565b6200067a826200065e565b810181811067ffffffffffffffff821117156200069c576200069b620002ea565b5b80604052505050565b6000620006b162000640565b9050620006bf82826200066f565b919050565b600067ffffffffffffffff821115620006e257620006e1620002ea565b5b620006ed826200065e565b9050602081019050919050565b60005b838110156200071a578082015181840152602081019050620006fd565b60008484015250505050565b60006200073d6200073784620006c4565b620006a5565b9050828152602081018484840111156200075c576200075b62000659565b5b62000769848285620006fa565b509392505050565b600082601f83011262000789576200078862000654565b5b81516200079b84826020860162000726565b91505092915050565b600080600060608486031215620007c057620007bf6200064a565b5b600084015167ffffffffffffffff811115620007e157620007e06200064f565b5b620007ef8682870162000771565b935050602084015167ffffffffffffffff8111156200081357620008126200064f565b5b620008218682870162000771565b925050604084015167ffffffffffffffff8111156200084557620008446200064f565b5b620008538682870162000771565b9150509250925092565b600082825260208201905092915050565b7f4f776e61626c653a2063616c6c6572206973206e6f7420746865206f776e6572600082015250565b6000620008a66020836200085d565b9150620008b3826200086e565b602082019050919050565b60006020820190508181036000830152620008d98162000897565b9050919050565b613d2880620008f06000396000f3fe6080604052600436106101e35760003560e01c80636352211e11610102578063a22cb46511610095578063d5abeb0111610064578063d5abeb01146106bd578063e985e9c5146106e8578063efbd73f414610725578063f2fde38b1461074e576101e3565b8063a22cb46514610605578063b071401b1461062e578063b88d4fde14610657578063c87b56dd14610680576101e3565b80638da5cb5b116100d15780638da5cb5b1461056857806394354fd01461059357806395d89b41146105be578063a0712d68146105e9576101e3565b80636352211e146104ae57806370a08231146104eb578063715018a6146105285780637ec4a6591461053f576101e3565b806323b872dd1161017a57806344a0d68a1161014957806344a0d68a146104045780635503a0e81461042d5780635c975abb1461045857806362b99ad414610483576101e3565b806323b872dd1461035e5780633ccfd60b1461038757806342842e0e1461039e578063438b6300146103c7576101e3565b806313faede6116101b657806313faede6146102b657806316ba10e0146102e157806316c38b3c1461030a57806318160ddd14610333576101e3565b806301ffc9a7146101e857806306fdde0314610225578063081812fc14610250578063095ea7b31461028d575b600080fd5b3480156101f457600080fd5b5061020f600480360381019061020a9190612609565b610777565b60405161021c9190612651565b60405180910390f35b34801561023157600080fd5b5061023a610859565b60405161024791906126fc565b60405180910390f35b34801561025c57600080fd5b5061027760048036038101906102729190612754565b6108eb565b60405161028491906127c2565b60405180910390f35b34801561029957600080fd5b506102b460048036038101906102af9190612809565b610931565b005b3480156102c257600080fd5b506102cb610a48565b6040516102d89190612858565b60405180910390f35b3480156102ed57600080fd5b50610308600480360381019061030391906129a8565b610a4e565b005b34801561031657600080fd5b50610331600480360381019061032c9190612a1d565b610a69565b005b34801561033f57600080fd5b50610348610a8e565b6040516103559190612858565b60405180910390f35b34801561036a57600080fd5b5061038560048036038101906103809190612a4a565b610a9f565b005b34801561039357600080fd5b5061039c610aff565b005b3480156103aa57600080fd5b506103c560048036038101906103c09190612a4a565b610b87565b005b3480156103d357600080fd5b506103ee60048036038101906103e99190612a9d565b610ba7565b6040516103fb9190612b88565b60405180910390f35b34801561041057600080fd5b5061042b60048036038101906104269190612754565b610cb1565b005b34801561043957600080fd5b50610442610cc3565b60405161044f91906126fc565b60405180910390f35b34801561046457600080fd5b5061046d610d51565b60405161047a9190612651565b60405180910390f35b34801561048f57600080fd5b50610498610d64565b6040516104a591906126fc565b60405180910390f35b3480156104ba57600080fd5b506104d560048036038101906104d09190612754565b610df2565b6040516104e291906127c2565b60405180910390f35b3480156104f757600080fd5b50610512600480360381019061050d9190612a9d565b610e78565b60405161051f9190612858565b60405180910390f35b34801561053457600080fd5b5061053d610f2f565b005b34801561054b57600080fd5b50610566600480360381019061056191906129a8565b610f43565b005b34801561057457600080fd5b5061057d610f5e565b60405161058a91906127c2565b60405180910390f35b34801561059f57600080fd5b506105a8610f88565b6040516105b59190612858565b60405180910390f35b3480156105ca57600080fd5b506105d3610f8e565b6040516105e091906126fc565b60405180910390f35b61060360048036038101906105fe9190612754565b611020565b005b34801561061157600080fd5b5061062c60048036038101906106279190612baa565b611179565b005b34801561063a57600080fd5b5061065560048036038101906106509190612754565b61118f565b005b34801561066357600080fd5b5061067e60048036038101906106799190612c8b565b6111a1565b005b34801561068c57600080fd5b506106a760048036038101906106a29190612754565b611203565b6040516106b491906126fc565b60405180910390f35b3480156106c957600080fd5b506106d26112ad565b6040516106df9190612858565b60405180910390f35b3480156106f457600080fd5b5061070f600480360381019061070a9190612d0e565b6112b3565b60405161071c9190612651565b60405180910390f35b34801561073157600080fd5b5061074c60048036038101906107479190612d4e565b611347565b005b34801561075a57600080fd5b5061077560048036038101906107709190612a9d565b611409565b005b60007f80ac58cd000000000000000000000000000000000000000000000000000000007bffffffffffffffffffffffffffffffffffffffffffffffffffffffff1916827bffffffffffffffffffffffffffffffffffffffffffffffffffffffff1916148061084257507f5b5e139f000000000000000000000000000000000000000000000000000000007bffffffffffffffffffffffffffffffffffffffffffffffffffffffff1916827bffffffffffffffffffffffffffffffffffffffffffffffffffffffff1916145b8061085257506108518261148c565b5b9050919050565b60606000805461086890612dbd565b80601f016020809104026020016040519081016040528092919081815260200182805461089490612dbd565b80156108e15780601f106108b6576101008083540402835291602001916108e1565b820191906000526020600020905b8154815290600101906020018083116108c457829003601f168201915b5050505050905090565b60006108f6826114f6565b6004600083815260200190815260200160002060009054906101000a900473ffffffffffffffffffffffffffffffffffffffff169050919050565b600061093c82610df2565b90508073ffffffffffffffffffffffffffffffffffffffff168373ffffffffffffffffffffffffffffffffffffffff16036109ac576040517f08c379a00000000000000000000000000000000000000000000000000000000081526004016109a390612e60565b60405180910390fd5b8073ffffffffffffffffffffffffffffffffffffffff166109cb611541565b73ffffffffffffffffffffffffffffffffffffffff1614806109fa57506109f9816109f4611541565b6112b3565b5b610a39576040517f08c379a0000000000000000000000000000000000000000000000000000000008152600401610a3090612ef2565b60405180910390fd5b610a438383611549565b505050565b600a5481565b610a56611602565b8060099081610a6591906130be565b5050565b610a71611602565b80600d60006101000a81548160ff02191690831515021790555050565b6000610a9a6007611680565b905090565b610ab0610aaa611541565b8261168e565b610aef576040517f08c379a0000000000000000000000000000000000000000000000000000000008152600401610ae690613202565b60405180910390fd5b610afa838383611723565b505050565b610b07611602565b6000610b11610f5e565b73ffffffffffffffffffffffffffffffffffffffff1647604051610b3490613253565b60006040518083038185875af1925050503d8060008114610b71576040519150601f19603f3d011682016040523d82523d6000602084013e610b76565b606091505b5050905080610b8457600080fd5b50565b610ba2838383604051806020016040528060008152506111a1565b505050565b60606000610bb483610e78565b905060008167ffffffffffffffff811115610bd257610bd161287d565b5b604051908082528060200260200182016040528015610c005781602001602082028036833780820191505090505b50905060006001905060005b8381108015610c1d5750600b548211155b15610ca5576000610c2d83610df2565b90508673ffffffffffffffffffffffffffffffffffffffff168173ffffffffffffffffffffffffffffffffffffffff1603610c915782848381518110610c7657610c75613268565b5b6020026020010181815250508180610c8d906132c6565b9250505b8280610c9c906132c6565b93505050610c0c565b82945050505050919050565b610cb9611602565b80600a8190555050565b60098054610cd090612dbd565b80601f0160208091040260200160405190810160405280929190818152602001828054610cfc90612dbd565b8015610d495780601f10610d1e57610100808354040283529160200191610d49565b820191906000526020600020905b815481529060010190602001808311610d2c57829003601f168201915b505050505081565b600d60009054906101000a900460ff1681565b60088054610d7190612dbd565b80601f0160208091040260200160405190810160405280929190818152602001828054610d9d90612dbd565b8015610dea5780601f10610dbf57610100808354040283529160200191610dea565b820191906000526020600020905b815481529060010190602001808311610dcd57829003601f168201915b505050505081565b600080610dfe83611a1c565b9050600073ffffffffffffffffffffffffffffffffffffffff168173ffffffffffffffffffffffffffffffffffffffff1603610e6f576040517f08c379a0000000000000000000000000000000000000000000000000000000008152600401610e669061335a565b60405180910390fd5b80915050919050565b60008073ffffffffffffffffffffffffffffffffffffffff168273ffffffffffffffffffffffffffffffffffffffff1603610ee8576040517f08c379a0000000000000000000000000000000000000000000000000000000008152600401610edf906133ec565b60405180910390fd5b600360008373ffffffffffffffffffffffffffffffffffffffff1673ffffffffffffffffffffffffffffffffffffffff168152602001908152602001600020549050919050565b610f37611602565b610f416000611a59565b565b610f4b611602565b8060089081610f5a91906130be565b5050565b6000600660009054906101000a900473ffffffffffffffffffffffffffffffffffffffff16905090565b600c5481565b606060018054610f9d90612dbd565b80601f0160208091040260200160405190810160405280929190818152602001828054610fc990612dbd565b80156110165780601f10610feb57610100808354040283529160200191611016565b820191906000526020600020905b815481529060010190602001808311610ff957829003601f168201915b5050505050905090565b806000811180156110335750600c548111155b611072576040517f08c379a000000000000000000000000000000000000000000000000000000000815260040161106990613458565b60405180910390fd5b600b54816110806007611680565b61108a9190613478565b11156110cb576040517f08c379a00000000000000000000000000000000000000000000000000000000081526004016110c2906134f8565b60405180910390fd5b600d60009054906101000a900460ff161561111b576040517f08c379a000000000000000000000000000000000000000000000000000000000815260040161111290613564565b60405180910390fd5b81600a546111299190613584565b34101561116b576040517f08c379a000000000000000000000000000000000000000000000000000000000815260040161116290613612565b60405180910390fd5b6111753383611b1f565b5050565b61118b611184611541565b8383611b5f565b5050565b611197611602565b80600c8190555050565b6111b26111ac611541565b8361168e565b6111f1576040517f08c379a00000000000000000000000000000000000000000000000000000000081526004016111e890613202565b60405180910390fd5b6111fd84848484611ccb565b50505050565b606061120e82611d27565b61124d576040517f08c379a0000000000000000000000000000000000000000000000000000000008152600401611244906136a4565b60405180910390fd5b6000611257611d68565b9050600081511161127757604051806020016040528060008152506112a5565b8061128184611dfa565b600960405160200161129593929190613783565b6040516020818303038152906040525b915050919050565b600b5481565b6000600560008473ffffffffffffffffffffffffffffffffffffffff1673ffffffffffffffffffffffffffffffffffffffff16815260200190815260200160002060008373ffffffffffffffffffffffffffffffffffffffff1673ffffffffffffffffffffffffffffffffffffffff16815260200190815260200160002060009054906101000a900460ff16905092915050565b8160008111801561135a5750600c548111155b611399576040517f08c379a000000000000000000000000000000000000000000000000000000000815260040161139090613458565b60405180910390fd5b600b54816113a76007611680565b6113b19190613478565b11156113f2576040517f08c379a00000000000000000000000000000000000000000000000000000000081526004016113e9906134f8565b60405180910390fd5b6113fa611602565b6114048284611b1f565b505050565b611411611602565b600073ffffffffffffffffffffffffffffffffffffffff168173ffffffffffffffffffffffffffffffffffffffff1603611480576040517f08c379a000000000000000000000000000000000000000000000000000000000815260040161147790613826565b60405180910390fd5b61148981611a59565b50565b60007f01ffc9a7000000000000000000000000000000000000000000000000000000007bffffffffffffffffffffffffffffffffffffffffffffffffffffffff1916827bffffffffffffffffffffffffffffffffffffffffffffffffffffffff1916149050919050565b6114ff81611d27565b61153e576040517f08c379a00000000000000000000000000000000000000000000000000000000081526004016115359061335a565b60405180910390fd5b50565b600033905090565b816004600083815260200190815260200160002060006101000a81548173ffffffffffffffffffffffffffffffffffffffff021916908373ffffffffffffffffffffffffffffffffffffffff160217905550808273ffffffffffffffffffffffffffffffffffffffff166115bc83610df2565b73ffffffffffffffffffffffffffffffffffffffff167f8c5be1e5ebec7d5bd14f71427d1e84f3dd0314c0f7b2291e5b200ac8c7c3b92560405160405180910390a45050565b61160a611541565b73ffffffffffffffffffffffffffffffffffffffff16611628610f5e565b73ffffffffffffffffffffffffffffffffffffffff161461167e576040517f08c379a000000000000000000000000000000000000000000000000000000000815260040161167590613892565b60405180910390fd5b565b600081600001549050919050565b60008061169a83610df2565b90508073ffffffffffffffffffffffffffffffffffffffff168473ffffffffffffffffffffffffffffffffffffffff1614806116dc57506116db81856112b3565b5b8061171a57508373ffffffffffffffffffffffffffffffffffffffff16611702846108eb565b73ffffffffffffffffffffffffffffffffffffffff16145b91505092915050565b8273ffffffffffffffffffffffffffffffffffffffff1661174382610df2565b73ffffffffffffffffffffffffffffffffffffffff1614611799576040517f08c379a000000000000000000000000000000000000000000000000000000000815260040161179090613924565b60405180910390fd5b600073ffffffffffffffffffffffffffffffffffffffff168273ffffffffffffffffffffffffffffffffffffffff1603611808576040517f08c379a00000000000000000000000000000000000000000000000000000000081526004016117ff906139b6565b60405180910390fd5b6118158383836001611ec8565b8273ffffffffffffffffffffffffffffffffffffffff1661183582610df2565b73ffffffffffffffffffffffffffffffffffffffff161461188b576040517f08c379a000000000000000000000000000000000000000000000000000000000815260040161188290613924565b60405180910390fd5b6004600082815260200190815260200160002060006101000a81549073ffffffffffffffffffffffffffffffffffffffff02191690556001600360008573ffffffffffffffffffffffffffffffffffffffff1673ffffffffffffffffffffffffffffffffffffffff168152602001908152602001600020600082825403925050819055506001600360008473ffffffffffffffffffffffffffffffffffffffff1673ffffffffffffffffffffffffffffffffffffffff16815260200190815260200160002060008282540192505081905550816002600083815260200190815260200160002060006101000a81548173ffffffffffffffffffffffffffffffffffffffff021916908373ffffffffffffffffffffffffffffffffffffffff160217905550808273ffffffffffffffffffffffffffffffffffffffff168473ffffffffffffffffffffffffffffffffffffffff167fddf252ad1be2c89b69c2b068fc378daa952ba7f163c4a11628f55a4df523b3ef60405160405180910390a4611a178383836001611fee565b505050565b60006002600083815260200190815260200160002060009054906101000a900473ffffffffffffffffffffffffffffffffffffffff169050919050565b6000600660009054906101000a900473ffffffffffffffffffffffffffffffffffffffff16905081600660006101000a81548173ffffffffffffffffffffffffffffffffffffffff021916908373ffffffffffffffffffffffffffffffffffffffff1602179055508173ffffffffffffffffffffffffffffffffffffffff168173ffffffffffffffffffffffffffffffffffffffff167f8be0079c531659141344cd1fd0a4f28419497f9722a3daafe3b4186f6b6457e060405160405180910390a35050565b60005b81811015611b5a57611b346007611ff4565b611b4783611b426007611680565b61200a565b8080611b52906132c6565b915050611b22565b505050565b8173ffffffffffffffffffffffffffffffffffffffff168373ffffffffffffffffffffffffffffffffffffffff1603611bcd576040517f08c379a0000000000000000000000000000000000000000000000000000000008152600401611bc490613a22565b60405180910390fd5b80600560008573ffffffffffffffffffffffffffffffffffffffff1673ffffffffffffffffffffffffffffffffffffffff16815260200190815260200160002060008473ffffffffffffffffffffffffffffffffffffffff1673ffffffffffffffffffffffffffffffffffffffff16815260200190815260200160002060006101000a81548160ff0219169083151502179055508173ffffffffffffffffffffffffffffffffffffffff168373ffffffffffffffffffffffffffffffffffffffff167f17307eab39ab6107e8899845ad3d59bd9653f200f220920489ca2b5937696c3183604051611cbe9190612651565b60405180910390a3505050565b611cd6848484611723565b611ce284848484612028565b611d21576040517f08c379a0000000000000000000000000000000000000000000000000000000008152600401611d1890613ab4565b60405180910390fd5b50505050565b60008073ffffffffffffffffffffffffffffffffffffffff16611d4983611a1c565b73ffffffffffffffffffffffffffffffffffffffff1614159050919050565b606060088054611d7790612dbd565b80601f0160208091040260200160405190810160405280929190818152602001828054611da390612dbd565b8015611df05780601f10611dc557610100808354040283529160200191611df0565b820191906000526020600020905b815481529060010190602001808311611dd357829003601f168201915b5050505050905090565b606060006001611e09846121af565b01905060008167ffffffffffffffff811115611e2857611e2761287d565b5b6040519080825280601f01601f191660200182016040528015611e5a5781602001600182028036833780820191505090505b509050600082602001820190505b600115611ebd578080600190039150507f3031323334353637383961626364656600000000000000000000000000000000600a86061a8153600a8581611eb157611eb0613ad4565b5b04945060008503611e68575b819350505050919050565b6001811115611fe857600073ffffffffffffffffffffffffffffffffffffffff168473ffffffffffffffffffffffffffffffffffffffff1614611f5c5780600360008673ffffffffffffffffffffffffffffffffffffffff1673ffffffffffffffffffffffffffffffffffffffff1681526020019081526020016000206000828254611f549190613b03565b925050819055505b600073ffffffffffffffffffffffffffffffffffffffff168373ffffffffffffffffffffffffffffffffffffffff1614611fe75780600360008573ffffffffffffffffffffffffffffffffffffffff1673ffffffffffffffffffffffffffffffffffffffff1681526020019081526020016000206000828254611fdf9190613478565b925050819055505b5b50505050565b50505050565b6001816000016000828254019250508190555050565b612024828260405180602001604052806000815250612302565b5050565b60006120498473ffffffffffffffffffffffffffffffffffffffff1661235d565b156121a2578373ffffffffffffffffffffffffffffffffffffffff1663150b7a02612072611541565b8786866040518563ffffffff1660e01b81526004016120949493929190613b8c565b6020604051808303816000875af19250505080156120d057506040513d601f19601f820116820180604052508101906120cd9190613bed565b60015b612152573d8060008114612100576040519150601f19603f3d011682016040523d82523d6000602084013e612105565b606091505b50600081510361214a576040517f08c379a000000000000000000000000000000000000000000000000000000000815260040161214190613ab4565b60405180910390fd5b805181602001fd5b63150b7a0260e01b7bffffffffffffffffffffffffffffffffffffffffffffffffffffffff1916817bffffffffffffffffffffffffffffffffffffffffffffffffffffffff1916149150506121a7565b600190505b949350505050565b600080600090507a184f03e93ff9f4daa797ed6e38ed64bf6a1f010000000000000000831061220d577a184f03e93ff9f4daa797ed6e38ed64bf6a1f010000000000000000838161220357612202613ad4565b5b0492506040810190505b6d04ee2d6d415b85acef8100000000831061224a576d04ee2d6d415b85acef810000000083816122405761223f613ad4565b5b0492506020810190505b662386f26fc10000831061227957662386f26fc10000838161226f5761226e613ad4565b5b0492506010810190505b6305f5e10083106122a2576305f5e100838161229857612297613ad4565b5b0492506008810190505b61271083106122c75761271083816122bd576122bc613ad4565b5b0492506004810190505b606483106122ea57606483816122e0576122df613ad4565b5b0492506002810190505b600a83106122f9576001810190505b80915050919050565b61230c8383612380565b6123196000848484612028565b612358576040517f08c379a000000000000000000000000000000000000000000000000000000000815260040161234f90613ab4565b60405180910390fd5b505050565b6000808273ffffffffffffffffffffffffffffffffffffffff163b119050919050565b600073ffffffffffffffffffffffffffffffffffffffff168273ffffffffffffffffffffffffffffffffffffffff16036123ef576040517f08c379a00000000000000000000000000000000000000000000000000000000081526004016123e690613c66565b60405180910390fd5b6123f881611d27565b15612438576040517f08c379a000000000000000000000000000000000000000000000000000000000815260040161242f90613cd2565b60405180910390fd5b612446600083836001611ec8565b61244f81611d27565b1561248f576040517f08c379a000000000000000000000000000000000000000000000000000000000815260040161248690613cd2565b60405180910390fd5b6001600360008473ffffffffffffffffffffffffffffffffffffffff1673ffffffffffffffffffffffffffffffffffffffff16815260200190815260200160002060008282540192505081905550816002600083815260200190815260200160002060006101000a81548173ffffffffffffffffffffffffffffffffffffffff021916908373ffffffffffffffffffffffffffffffffffffffff160217905550808273ffffffffffffffffffffffffffffffffffffffff16600073ffffffffffffffffffffffffffffffffffffffff167fddf252ad1be2c89b69c2b068fc378daa952ba7f163c4a11628f55a4df523b3ef60405160405180910390a4612599600083836001611fee565b5050565b6000604051905090565b600080fd5b600080fd5b60007fffffffff0000000000000000000000000000000000000000000000000000000082169050919050565b6125e6816125b1565b81146125f157600080fd5b50565b600081359050612603816125dd565b92915050565b60006020828403121561261f5761261e6125a7565b5b600061262d848285016125f4565b91505092915050565b60008115159050919050565b61264b81612636565b82525050565b60006020820190506126666000830184612642565b92915050565b600081519050919050565b600082825260208201905092915050565b60005b838110156126a657808201518184015260208101905061268b565b60008484015250505050565b6000601f19601f8301169050919050565b60006126ce8261266c565b6126d88185612677565b93506126e8818560208601612688565b6126f1816126b2565b840191505092915050565b6000602082019050818103600083015261271681846126c3565b905092915050565b6000819050919050565b6127318161271e565b811461273c57600080fd5b50565b60008135905061274e81612728565b92915050565b60006020828403121561276a576127696125a7565b5b60006127788482850161273f565b91505092915050565b600073ffffffffffffffffffffffffffffffffffffffff82169050919050565b60006127ac82612781565b9050919050565b6127bc816127a1565b82525050565b60006020820190506127d760008301846127b3565b92915050565b6127e6816127a1565b81146127f157600080fd5b50565b600081359050612803816127dd565b92915050565b600080604083850312156128205761281f6125a7565b5b600061282e858286016127f4565b925050602061283f8582860161273f565b9150509250929050565b6128528161271e565b82525050565b600060208201905061286d6000830184612849565b92915050565b600080fd5b600080fd5b7f4e487b7100000000000000000000000000000000000000000000000000000000600052604160045260246000fd5b6128b5826126b2565b810181811067ffffffffffffffff821117156128d4576128d361287d565b5b80604052505050565b60006128e761259d565b90506128f382826128ac565b919050565b600067ffffffffffffffff8211156129135761291261287d565b5b61291c826126b2565b9050602081019050919050565b82818337600083830152505050565b600061294b612946846128f8565b6128dd565b90508281526020810184848401111561296757612966612878565b5b612972848285612929565b509392505050565b600082601f83011261298f5761298e612873565b5b813561299f848260208601612938565b91505092915050565b6000602082840312156129be576129bd6125a7565b5b600082013567ffffffffffffffff8111156129dc576129db6125ac565b5b6129e88482850161297a565b91505092915050565b6129fa81612636565b8114612a0557600080fd5b50565b600081359050612a17816129f1565b92915050565b600060208284031215612a3357612a326125a7565b5b6000612a4184828501612a08565b91505092915050565b600080600060608486031215612a6357612a626125a7565b5b6000612a71868287016127f4565b9350506020612a82868287016127f4565b9250506040612a938682870161273f565b9150509250925092565b600060208284031215612ab357612ab26125a7565b5b6000612ac1848285016127f4565b91505092915050565b600081519050919050565b600082825260208201905092915050565b6000819050602082019050919050565b612aff8161271e565b82525050565b6000612b118383612af6565b60208301905092915050565b6000602082019050919050565b6000612b3582612aca565b612b3f8185612ad5565b9350612b4a83612ae6565b8060005b83811015612b7b578151612b628882612b05565b9750612b6d83612b1d565b925050600181019050612b4e565b5085935050505092915050565b60006020820190508181036000830152612ba28184612b2a565b905092915050565b60008060408385031215612bc157612bc06125a7565b5b6000612bcf858286016127f4565b9250506020612be085828601612a08565b9150509250929050565b600067ffffffffffffffff821115612c0557612c0461287d565b5b612c0e826126b2565b9050602081019050919050565b6000612c2e612c2984612bea565b6128dd565b905082815260208101848484011115612c4a57612c49612878565b5b612c55848285612929565b509392505050565b600082601f830112612c7257612c71612873565b5b8135612c82848260208601612c1b565b91505092915050565b60008060008060808587031215612ca557612ca46125a7565b5b6000612cb3878288016127f4565b9450506020612cc4878288016127f4565b9350506040612cd58782880161273f565b925050606085013567ffffffffffffffff811115612cf657612cf56125ac565b5b612d0287828801612c5d565b91505092959194509250565b60008060408385031215612d2557612d246125a7565b5b6000612d33858286016127f4565b9250506020612d44858286016127f4565b9150509250929050565b60008060408385031215612d6557612d646125a7565b5b6000612d738582860161273f565b9250506020612d84858286016127f4565b9150509250929050565b7f4e487b7100000000000000000000000000000000000000000000000000000000600052602260045260246000fd5b60006002820490506001821680612dd557607f821691505b602082108103612de857612de7612d8e565b5b50919050565b7f4552433732313a20617070726f76616c20746f2063757272656e74206f776e6560008201527f7200000000000000000000000000000000000000000000000000000000000000602082015250565b6000612e4a602183612677565b9150612e5582612dee565b604082019050919050565b60006020820190508181036000830152612e7981612e3d565b9050919050565b7f4552433732313a20617070726f76652063616c6c6572206973206e6f7420746f60008201527f6b656e206f776e6572206f7220617070726f76656420666f7220616c6c000000602082015250565b6000612edc603d83612677565b9150612ee782612e80565b604082019050919050565b60006020820190508181036000830152612f0b81612ecf565b9050919050565b60008190508160005260206000209050919050565b60006020601f8301049050919050565b600082821b905092915050565b600060088302612f747fffffffffffffffffffffffffffffffffffffffffffffffffffffffffffffffff82612f37565b612f7e8683612f37565b95508019841693508086168417925050509392505050565b6000819050919050565b6000612fbb612fb6612fb18461271e565b612f96565b61271e565b9050919050565b6000819050919050565b612fd583612fa0565b612fe9612fe182612fc2565b848454612f44565b825550505050565b600090565b612ffe612ff1565b613009818484612fcc565b505050565b5b8181101561302d57613022600082612ff6565b60018101905061300f565b5050565b601f8211156130725761304381612f12565b61304c84612f27565b8101602085101561305b578190505b61306f61306785612f27565b83018261300e565b50505b505050565b600082821c905092915050565b600061309560001984600802613077565b1980831691505092915050565b60006130ae8383613084565b9150826002028217905092915050565b6130c78261266c565b67ffffffffffffffff8111156130e0576130df61287d565b5b6130ea8254612dbd565b6130f5828285613031565b600060209050601f8311600181146131285760008415613116578287015190505b61312085826130a2565b865550613188565b601f19841661313686612f12565b60005b8281101561315e57848901518255600182019150602085019450602081019050613139565b8683101561317b5784890151613177601f891682613084565b8355505b6001600288020188555050505b505050505050565b7f4552433732313a2063616c6c6572206973206e6f7420746f6b656e206f776e6560008201527f72206f7220617070726f76656400000000000000000000000000000000000000602082015250565b60006131ec602d83612677565b91506131f782613190565b604082019050919050565b6000602082019050818103600083015261321b816131df565b9050919050565b600081905092915050565b50565b600061323d600083613222565b91506132488261322d565b600082019050919050565b600061325e82613230565b9150819050919050565b7f4e487b7100000000000000000000000000000000000000000000000000000000600052603260045260246000fd5b7f4e487b7100000000000000000000000000000000000000000000000000000000600052601160045260246000fd5b60006132d18261271e565b91507fffffffffffffffffffffffffffffffffffffffffffffffffffffffffffffffff820361330357613302613297565b5b600182019050919050565b7f4552433732313a20696e76616c696420746f6b656e2049440000000000000000600082015250565b6000613344601883612677565b915061334f8261330e565b602082019050919050565b6000602082019050818103600083015261337381613337565b9050919050565b7f4552433732313a2061646472657373207a65726f206973206e6f74206120766160008201527f6c6964206f776e65720000000000000000000000000000000000000000000000602082015250565b60006133d6602983612677565b91506133e18261337a565b604082019050919050565b60006020820190508181036000830152613405816133c9565b9050919050565b7f496e76616c6964206d696e7420616d6f756e7421000000000000000000000000600082015250565b6000613442601483612677565b915061344d8261340c565b602082019050919050565b6000602082019050818103600083015261347181613435565b9050919050565b60006134838261271e565b915061348e8361271e565b92508282019050808211156134a6576134a5613297565b5b92915050565b7f4d617820737570706c7920657863656564656421000000000000000000000000600082015250565b60006134e2601483612677565b91506134ed826134ac565b602082019050919050565b60006020820190508181036000830152613511816134d5565b9050919050565b7f54686520636f6e74726163742069732070617573656421000000000000000000600082015250565b600061354e601783612677565b915061355982613518565b602082019050919050565b6000602082019050818103600083015261357d81613541565b9050919050565b600061358f8261271e565b915061359a8361271e565b92508282026135a88161271e565b915082820484148315176135bf576135be613297565b5b5092915050565b7f496e73756666696369656e742066756e64732100000000000000000000000000600082015250565b60006135fc601383612677565b9150613607826135c6565b602082019050919050565b6000602082019050818103600083015261362b816135ef565b9050919050565b7f4552433732314d657461646174613a2055524920717565727920666f72206e6f60008201527f6e6578697374656e7420746f6b656e0000000000000000000000000000000000602082015250565b600061368e602f83612677565b915061369982613632565b604082019050919050565b600060208201905081810360008301526136bd81613681565b9050919050565b600081905092915050565b60006136da8261266c565b6136e481856136c4565b93506136f4818560208601612688565b80840191505092915050565b6000815461370d81612dbd565b61371781866136c4565b9450600182166000811461373257600181146137475761377a565b60ff198316865281151582028601935061377a565b61375085612f12565b60005b8381101561377257815481890152600182019150602081019050613753565b838801955050505b50505092915050565b600061378f82866136cf565b915061379b82856136cf565b91506137a78284613700565b9150819050949350505050565b7f4f776e61626c653a206e6577206f776e657220697320746865207a65726f206160008201527f6464726573730000000000000000000000000000000000000000000000000000602082015250565b6000613810602683612677565b915061381b826137b4565b604082019050919050565b6000602082019050818103600083015261383f81613803565b9050919050565b7f4f776e61626c653a2063616c6c6572206973206e6f7420746865206f776e6572600082015250565b600061387c602083612677565b915061388782613846565b602082019050919050565b600060208201905081810360008301526138ab8161386f565b9050919050565b7f4552433732313a207472616e736665722066726f6d20696e636f72726563742060008201527f6f776e6572000000000000000000000000000000000000000000000000000000602082015250565b600061390e602583612677565b9150613919826138b2565b604082019050919050565b6000602082019050818103600083015261393d81613901565b9050919050565b7f4552433732313a207472616e7366657220746f20746865207a65726f2061646460008201527f7265737300000000000000000000000000000000000000000000000000000000602082015250565b60006139a0602483612677565b91506139ab82613944565b604082019050919050565b600060208201905081810360008301526139cf81613993565b9050919050565b7f4552433732313a20617070726f766520746f2063616c6c657200000000000000600082015250565b6000613a0c601983612677565b9150613a17826139d6565b602082019050919050565b60006020820190508181036000830152613a3b816139ff565b9050919050565b7f4552433732313a207472616e7366657220746f206e6f6e20455243373231526560008201527f63656976657220696d706c656d656e7465720000000000000000000000000000602082015250565b6000613a9e603283612677565b9150613aa982613a42565b604082019050919050565b60006020820190508181036000830152613acd81613a91565b9050919050565b7f4e487b7100000000000000000000000000000000000000000000000000000000600052601260045260246000fd5b6000613b0e8261271e565b9150613b198361271e565b9250828203905081811115613b3157613b30613297565b5b92915050565b600081519050919050565b600082825260208201905092915050565b6000613b5e82613b37565b613b688185613b42565b9350613b78818560208601612688565b613b81816126b2565b840191505092915050565b6000608082019050613ba160008301876127b3565b613bae60208301866127b3565b613bbb6040830185612849565b8181036060830152613bcd8184613b53565b905095945050505050565b600081519050613be7816125dd565b92915050565b600060208284031215613c0357613c026125a7565b5b6000613c1184828501613bd8565b91505092915050565b7f4552433732313a206d696e7420746f20746865207a65726f2061646472657373600082015250565b6000613c50602083612677565b9150613c5b82613c1a565b602082019050919050565b60006020820190508181036000830152613c7f81613c43565b9050919050565b7f4552433732313a20746f6b656e20616c7265616479206d696e74656400000000600082015250565b6000613cbc601c83612677565b9150613cc782613c86565b602082019050919050565b60006020820190508181036000830152613ceb81613caf565b905091905056fea26469706673582212208757fb72fd40c42d868428f2d01a8dd59181a28a84f3211073017a61b2f719d964736f6c63430008110033",
  "linkReferences": {},
  "deployedLinkReferences": {}
}