{
  "_format": "hh-sol-artifact-1",
  "contractName": "WalletImplementation",
  "sourceName": "contracts/wallet.sol",
  "abi": [
    {
      "inputs": [],
      "name": "implementation",
      "outputs": [
        {
          "internalType": "address",
          "name": "",
          "type": "address"
        }
      ],
      "stateMutability": "view",
      "type": "function"
    },
    {
      "inputs": [],
      "name": "owner",
      "outputs": [
        {
          "internalType": "address payable",
          "name": "",
          "type": "address"
        }
      ],
      "stateMutability": "view",
      "type": "function"
    },
    {
      "inputs": [
        {
          "internalType": "address",
          "name": "_implementation",
          "type": "address"
        }
      ],
      "name": "setImplementation",
      "outputs": [],
      "stateMutability": "nonpayable",
      "type": "function"
    },
    {
      "inputs": [],
      "name": "withdraw",
      "outputs": [],
      "stateMutability": "nonpayable",
      "type": "function"
    },
    {
      "stateMutability": "payable",
      "type": "receive"
    }
  ],
  "bytecode": "0x608060405234801561001057600080fd5b50610416806100206000396000f3fe6080604052600436106100435760003560e01c80633ccfd60b1461004f5780635c60da1b146100665780638da5cb5b14610091578063d784d426146100bc5761004a565b3661004a57005b600080fd5b34801561005b57600080fd5b506100646100e5565b005b34801561007257600080fd5b5061007b6101e0565b60405161008891906102ae565b60405180910390f35b34801561009d57600080fd5b506100a6610204565b6040516100b391906102ea565b60405180910390f35b3480156100c857600080fd5b506100e360048036038101906100de9190610336565b61022a565b005b600160009054906101000a900473ffffffffffffffffffffffffffffffffffffffff1673ffffffffffffffffffffffffffffffffffffffff163373ffffffffffffffffffffffffffffffffffffffff1614610175576040517f08c379a000000000000000000000000000000000000000000000000000000000815260040161016c906103c0565b60405180910390fd5b600160009054906101000a900473ffffffffffffffffffffffffffffffffffffffff1673ffffffffffffffffffffffffffffffffffffffff166108fc479081150290604051600060405180830381858888f193505050501580156101dd573d6000803e3d6000fd5b50565b60008054906101000a900473ffffffffffffffffffffffffffffffffffffffff1681565b600160009054906101000a900473ffffffffffffffffffffffffffffffffffffffff1681565b806000806101000a81548173ffffffffffffffffffffffffffffffffffffffff021916908373ffffffffffffffffffffffffffffffffffffffff16021790555050565b600073ffffffffffffffffffffffffffffffffffffffff82169050919050565b60006102988261026d565b9050919050565b6102a88161028d565b82525050565b60006020820190506102c3600083018461029f565b92915050565b60006102d48261026d565b9050919050565b6102e4816102c9565b82525050565b60006020820190506102ff60008301846102db565b92915050565b600080fd5b6103138161028d565b811461031e57600080fd5b50565b6000813590506103308161030a565b92915050565b60006020828403121561034c5761034b610305565b5b600061035a84828501610321565b91505092915050565b600082825260208201905092915050565b7f6e6f74206f776e65720000000000000000000000000000000000000000000000600082015250565b60006103aa600983610363565b91506103b582610374565b602082019050919050565b600060208201905081810360008301526103d98161039d565b905091905056fea26469706673582212207487cdf5dcec6b540024f706ecb2eba77bdfa701ca2d772c2ba1193129fae0b564736f6c63430008110033",
  "linkReferences": {},
  "deployedLinkReferences": {}
}