{
  "_format": "hh-sol-artifact-1",
  "contractName": "Proxy",
  "sourceName": "contracts/Proxy.sol",
  "abi": [
    {
      "inputs": [],
      "stateMutability": "nonpayable",
      "type": "constructor"
    },
    {
      "stateMutability": "payable",
      "type": "fallback"
    },
    {
      "inputs": [],
      "name": "admin",
      "outputs": [
        {
          "internalType": "address",
          "name": "",
          "type": "address"
        }
      ],
      "stateMutability": "nonpayable",
      "type": "function"
    },
    {
      "inputs": [
        {
          "internalType": "address",
          "name": "_admin",
          "type": "address"
        }
      ],
      "name": "changeAdmin",
      "outputs": [],
      "stateMutability": "nonpayable",
      "type": "function"
    },
    {
      "inputs": [],
      "name": "implementation",
      "outputs": [
        {
          "internalType": "address",
          "name": "",
          "type": "address"
        }
      ],
      "stateMutability": "nonpayable",
      "type": "function"
    },
    {
      "inputs": [
        {
          "internalType": "address",
          "name": "_implementation",
          "type": "address"
        }
      ],
      "name": "upgradeTo",
      "outputs": [],
      "stateMutability": "nonpayable",
      "type": "function"
    },
    {
      "stateMutability": "payable",
      "type": "receive"
    }
  ],
  "bytecode": "0x608060405234801561001057600080fd5b506100203361002560201b60201c565b610212565b600073ffffffffffffffffffffffffffffffffffffffff168173ffffffffffffffffffffffffffffffffffffffff1603610094576040517f08c379a000000000000000000000000000000000000000000000000000000000815260040161008b90610185565b60405180910390fd5b806100da60017fb53127684a568b3173ae13b9f8a6016e243e63b6e8ee1178d6a717850b5d610460001c6100c891906101de565b60001b61011e60201b61026c1760201c565b60000160006101000a81548173ffffffffffffffffffffffffffffffffffffffff021916908373ffffffffffffffffffffffffffffffffffffffff16021790555050565b6000819050919050565b600082825260208201905092915050565b7f61646d696e203d207a65726f2061646472657373000000000000000000000000600082015250565b600061016f601483610128565b915061017a82610139565b602082019050919050565b6000602082019050818103600083015261019e81610162565b9050919050565b6000819050919050565b7f4e487b7100000000000000000000000000000000000000000000000000000000600052601160045260246000fd5b60006101e9826101a5565b91506101f4836101a5565b925082820390508181111561020c5761020b6101af565b5b92915050565b610777806102216000396000f3fe6080604052600436106100435760003560e01c80633659cfe61461005c5780635c60da1b146100855780638f283970146100b0578063f851a440146100d957610052565b3661005257610050610104565b005b61005a610104565b005b34801561006857600080fd5b50610083600480360381019061007e9190610594565b610116565b005b34801561009157600080fd5b5061009a61016a565b6040516100a791906105d0565b60405180910390f35b3480156100bc57600080fd5b506100d760048036038101906100d29190610594565b6101c1565b005b3480156100e557600080fd5b506100ee610215565b6040516100fb91906105d0565b60405180910390f35b61011461010f610276565b6102dc565b565b61011e610302565b73ffffffffffffffffffffffffffffffffffffffff163373ffffffffffffffffffffffffffffffffffffffff160361015e5761015981610368565b610167565b610166610104565b5b50565b6000610174610302565b73ffffffffffffffffffffffffffffffffffffffff163373ffffffffffffffffffffffffffffffffffffffff16036101b5576101ae610276565b90506101be565b6101bd610104565b5b90565b6101c9610302565b73ffffffffffffffffffffffffffffffffffffffff163373ffffffffffffffffffffffffffffffffffffffff16036102095761020481610442565b610212565b610211610104565b5b50565b600061021f610302565b73ffffffffffffffffffffffffffffffffffffffff163373ffffffffffffffffffffffffffffffffffffffff160361026057610259610302565b9050610269565b610268610104565b5b90565b6000819050919050565b60006102b360017f360894a13ba1a3210667c828492db98dca3e2076cc3735a920a3ca505d382bbd60001c6102ab9190610624565b60001b61026c565b60000160009054906101000a900473ffffffffffffffffffffffffffffffffffffffff16905090565b3660008037600080366000845af43d6000803e80600081146102fd573d6000f35b3d6000fd5b600061033f60017fb53127684a568b3173ae13b9f8a6016e243e63b6e8ee1178d6a717850b5d610460001c6103379190610624565b60001b61026c565b60000160009054906101000a900473ffffffffffffffffffffffffffffffffffffffff16905090565b60008173ffffffffffffffffffffffffffffffffffffffff163b116103c2576040517f08c379a00000000000000000000000000000000000000000000000000000000081526004016103b9906106b5565b60405180910390fd5b806103fe60017f360894a13ba1a3210667c828492db98dca3e2076cc3735a920a3ca505d382bbd60001c6103f69190610624565b60001b61026c565b60000160006101000a81548173ffffffffffffffffffffffffffffffffffffffff021916908373ffffffffffffffffffffffffffffffffffffffff16021790555050565b600073ffffffffffffffffffffffffffffffffffffffff168173ffffffffffffffffffffffffffffffffffffffff16036104b1576040517f08c379a00000000000000000000000000000000000000000000000000000000081526004016104a890610721565b60405180910390fd5b806104ed60017fb53127684a568b3173ae13b9f8a6016e243e63b6e8ee1178d6a717850b5d610460001c6104e59190610624565b60001b61026c565b60000160006101000a81548173ffffffffffffffffffffffffffffffffffffffff021916908373ffffffffffffffffffffffffffffffffffffffff16021790555050565b600080fd5b600073ffffffffffffffffffffffffffffffffffffffff82169050919050565b600061056182610536565b9050919050565b61057181610556565b811461057c57600080fd5b50565b60008135905061058e81610568565b92915050565b6000602082840312156105aa576105a9610531565b5b60006105b88482850161057f565b91505092915050565b6105ca81610556565b82525050565b60006020820190506105e560008301846105c1565b92915050565b6000819050919050565b7f4e487b7100000000000000000000000000000000000000000000000000000000600052601160045260246000fd5b600061062f826105eb565b915061063a836105eb565b9250828203905081811115610652576106516105f5565b5b92915050565b600082825260208201905092915050565b7f696d706c656d656e746174696f6e206973206e6f7420636f6e74726163740000600082015250565b600061069f601e83610658565b91506106aa82610669565b602082019050919050565b600060208201905081810360008301526106ce81610692565b9050919050565b7f61646d696e203d207a65726f2061646472657373000000000000000000000000600082015250565b600061070b601483610658565b9150610716826106d5565b602082019050919050565b6000602082019050818103600083015261073a816106fe565b905091905056fea2646970667358221220941d62e75a82da07d622f929d99fd0e1a474d8c5e295f21d62fb139b110ce3a764736f6c63430008110033",
  "linkReferences": {},
  "deployedLinkReferences": {}
}