{
  "_format": "hh-sol-artifact-1",
  "contractName": "GlobalVariables",
  "sourceName": "contracts/global_variables.sol",
  "abi": [
    {
      "inputs": [],
      "name": "returnBlockHash",
      "outputs": [
        {
          "internalType": "bytes32",
          "name": "",
          "type": "bytes32"
        }
      ],
      "stateMutability": "view",
      "type": "function"
    },
    {
      "inputs": [],
      "name": "returnBlockNum",
      "outputs": [
        {
          "internalType": "uint256",
          "name": "",
          "type": "uint256"
        }
      ],
      "stateMutability": "view",
      "type": "function"
    },
    {
      "inputs": [],
      "name": "returnSender",
      "outputs": [
        {
          "internalType": "address",
          "name": "",
          "type": "address"
        }
      ],
      "stateMutability": "view",
      "type": "function"
    },
    {
      "inputs": [],
      "name": "returnTimestamp",
      "outputs": [
        {
          "internalType": "uint256",
          "name": "",
          "type": "uint256"
        }
      ],
      "stateMutability": "view",
      "type": "function"
    }
  ],
  "bytecode": "0x608060405234801561001057600080fd5b506101e4806100206000396000f3fe608060405234801561001057600080fd5b506004361061004c5760003560e01c80631e633a73146100515780635170a9d01461006f578063a9e27c151461008d578063f2e8b373146100ab575b600080fd5b6100596100c9565b6040516100669190610103565b60405180910390f35b6100776100d1565b604051610084919061015f565b60405180910390f35b6100956100d9565b6040516100a29190610193565b60405180910390f35b6100b36100e2565b6040516100c09190610103565b60405180910390f35b600042905090565b600033905090565b60004340905090565b600043905090565b6000819050919050565b6100fd816100ea565b82525050565b600060208201905061011860008301846100f4565b92915050565b600073ffffffffffffffffffffffffffffffffffffffff82169050919050565b60006101498261011e565b9050919050565b6101598161013e565b82525050565b60006020820190506101746000830184610150565b92915050565b6000819050919050565b61018d8161017a565b82525050565b60006020820190506101a86000830184610184565b9291505056fea2646970667358221220cb70f51a2d383e103d9813c26863477c4e84580e4d6538d46c702954db2d77ea64736f6c63430008110033",
  "linkReferences": {},
  "deployedLinkReferences": {}
}