{
  "_format": "hh-sol-artifact-1",
  "contractName": "SFT",
  "sourceName": "contracts/mintSFT.sol",
  "abi": [
    {
      "inputs": [
        {
          "internalType": "string",
          "name": "uri",
          "type": "string"
        }
      ],
      "stateMutability": "nonpayable",
      "type": "constructor"
    },
    {
      "anonymous": false,
      "inputs": [
        {
          "indexed": true,
          "internalType": "address",
          "name": "account",
          "type": "address"
        },
        {
          "indexed": true,
          "internalType": "address",
          "name": "operator",
          "type": "address"
        },
        {
          "indexed": false,
          "internalType": "bool",
          "name": "approved",
          "type": "bool"
        }
      ],
      "name": "ApprovalForAll",
      "type": "event"
    },
    {
      "anonymous": false,
      "inputs": [
        {
          "indexed": true,
          "internalType": "address",
          "name": "previousOwner",
          "type": "address"
        },
        {
          "indexed": true,
          "internalType": "address",
          "name": "newOwner",
          "type": "address"
        }
      ],
      "name": "OwnershipTransferred",
      "type": "event"
    },
    {
      "anonymous": false,
      "inputs": [
        {
          "indexed": true,
          "internalType": "address",
          "name": "operator",
          "type": "address"
        },
        {
          "indexed": true,
          "internalType": "address",
          "name": "from",
          "type": "address"
        },
        {
          "indexed": true,
          "internalType": "address",
          "name": "to",
          "type": "address"
        },
        {
          "indexed": false,
          "internalType": "uint256[]",
          "name": "ids",
          "type": "uint256[]"
        },
        {
          "indexed": false,
          "internalType": "uint256[]",
          "name": "values",
          "type": "uint256[]"
        }
      ],
      "name": "TransferBatch",
      "type": "event"
    },
    {
      "anonymous": false,
      "inputs": [
        {
          "indexed": true,
          "internalType": "address",
          "name": "operator",
          "type": "address"
        },
        {
          "indexed": true,
          "internalType": "address",
          "name": "from",
          "type": "address"
        },
        {
          "indexed": true,
          "internalType": "address",
          "name": "to",
          "type": "address"
        },
        {
          "indexed": false,
          "internalType": "uint256",
          "name": "id",
          "type": "uint256"
        },
        {
          "indexed": false,
          "internalType": "uint256",
          "name": "value",
          "type": "uint256"
        }
      ],
      "name": "TransferSingle",
      "type": "event"
    },
    {
      "anonymous": false,
      "inputs": [
        {
          "indexed": false,
          "internalType": "string",
          "name": "value",
          "type": "string"
        },
        {
          "indexed": true,
          "internalType": "uint256",
          "name": "id",
          "type": "uint256"
        }
      ],
      "name": "URI",
      "type": "event"
    },
    {
      "inputs": [],
      "name": "ID",
      "outputs": [
        {
          "internalType": "uint256",
          "name": "",
          "type": "uint256"
        }
      ],
      "stateMutability": "view",
      "type": "function"
    },
    {
      "inputs": [
        {
          "internalType": "address",
          "name": "account",
          "type": "address"
        },
        {
          "internalType": "uint256",
          "name": "id",
          "type": "uint256"
        }
      ],
      "name": "balanceOf",
      "outputs": [
        {
          "internalType": "uint256",
          "name": "",
          "type": "uint256"
        }
      ],
      "stateMutability": "view",
      "type": "function"
    },
    {
      "inputs": [
        {
          "internalType": "address[]",
          "name": "accounts",
          "type": "address[]"
        },
        {
          "internalType": "uint256[]",
          "name": "ids",
          "type": "uint256[]"
        }
      ],
      "name": "balanceOfBatch",
      "outputs": [
        {
          "internalType": "uint256[]",
          "name": "",
          "type": "uint256[]"
        }
      ],
      "stateMutability": "view",
      "type": "function"
    },
    {
      "inputs": [],
      "name": "cost",
      "outputs": [
        {
          "internalType": "uint256",
          "name": "",
          "type": "uint256"
        }
      ],
      "stateMutability": "view",
      "type": "function"
    },
    {
      "inputs": [
        {
          "internalType": "address",
          "name": "account",
          "type": "address"
        },
        {
          "internalType": "address",
          "name": "operator",
          "type": "address"
        }
      ],
      "name": "isApprovedForAll",
      "outputs": [
        {
          "internalType": "bool",
          "name": "",
          "type": "bool"
        }
      ],
      "stateMutability": "view",
      "type": "function"
    },
    {
      "inputs": [],
      "name": "maxMintAmountPerTx",
      "outputs": [
        {
          "internalType": "uint256",
          "name": "",
          "type": "uint256"
        }
      ],
      "stateMutability": "view",
      "type": "function"
    },
    {
      "inputs": [],
      "name": "maxSupply",
      "outputs": [
        {
          "internalType": "uint256",
          "name": "",
          "type": "uint256"
        }
      ],
      "stateMutability": "view",
      "type": "function"
    },
    {
      "inputs": [
        {
          "internalType": "uint256",
          "name": "_mintAmount",
          "type": "uint256"
        }
      ],
      "name": "mint",
      "outputs": [],
      "stateMutability": "payable",
      "type": "function"
    },
    {
      "inputs": [
        {
          "internalType": "uint256",
          "name": "_mintAmount",
          "type": "uint256"
        },
        {
          "internalType": "address",
          "name": "_receiver",
          "type": "address"
        }
      ],
      "name": "mintForAddress",
      "outputs": [],
      "stateMutability": "nonpayable",
      "type": "function"
    },
    {
      "inputs": [],
      "name": "owner",
      "outputs": [
        {
          "internalType": "address",
          "name": "",
          "type": "address"
        }
      ],
      "stateMutability": "view",
      "type": "function"
    },
    {
      "inputs": [],
      "name": "paused",
      "outputs": [
        {
          "internalType": "bool",
          "name": "",
          "type": "bool"
        }
      ],
      "stateMutability": "view",
      "type": "function"
    },
    {
      "inputs": [],
      "name": "renounceOwnership",
      "outputs": [],
      "stateMutability": "nonpayable",
      "type": "function"
    },
    {
      "inputs": [
        {
          "internalType": "address",
          "name": "from",
          "type": "address"
        },
        {
          "internalType": "address",
          "name": "to",
          "type": "address"
        },
        {
          "internalType": "uint256[]",
          "name": "ids",
          "type": "uint256[]"
        },
        {
          "internalType": "uint256[]",
          "name": "amounts",
          "type": "uint256[]"
        },
        {
          "internalType": "bytes",
          "name": "data",
          "type": "bytes"
        }
      ],
      "name": "safeBatchTransferFrom",
      "outputs": [],
      "stateMutability": "nonpayable",
      "type": "function"
    },
    {
      "inputs": [
        {
          "internalType": "address",
          "name": "from",
          "type": "address"
        },
        {
          "internalType": "address",
          "name": "to",
          "type": "address"
        },
        {
          "internalType": "uint256",
          "name": "id",
          "type": "uint256"
        },
        {
          "internalType": "uint256",
          "name": "amount",
          "type": "uint256"
        },
        {
          "internalType": "bytes",
          "name": "data",
          "type": "bytes"
        }
      ],
      "name": "safeTransferFrom",
      "outputs": [],
      "stateMutability": "nonpayable",
      "type": "function"
    },
    {
      "inputs": [
        {
          "internalType": "address",
          "name": "operator",
          "type": "address"
        },
        {
          "internalType": "bool",
          "name": "approved",
          "type": "bool"
        }
      ],
      "name": "setApprovalForAll",
      "outputs": [],
      "stateMutability": "nonpayable",
      "type": "function"
    },
    {
      "inputs": [
        {
          "internalType": "uint256",
          "name": "_cost",
          "type": "uint256"
        }
      ],
      "name": "setCost",
      "outputs": [],
      "stateMutability": "nonpayable",
      "type": "function"
    },
    {
      "inputs": [
        {
          "internalType": "uint256",
          "name": "_maxMintAmountPerTx",
          "type": "uint256"
        }
      ],
      "name": "setMaxMintAmountPerTx",
      "outputs": [],
      "stateMutability": "nonpayable",
      "type": "function"
    },
    {
      "inputs": [
        {
          "internalType": "bool",
          "name": "_state",
          "type": "bool"
        }
      ],
      "name": "setPaused",
      "outputs": [],
      "stateMutability": "nonpayable",
      "type": "function"
    },
    {
      "inputs": [
        {
          "internalType": "bytes4",
          "name": "interfaceId",
          "type": "bytes4"
        }
      ],
      "name": "supportsInterface",
      "outputs": [
        {
          "internalType": "bool",
          "name": "",
          "type": "bool"
        }
      ],
      "stateMutability": "view",
      "type": "function"
    },
    {
      "inputs": [],
      "name": "totalSupply",
      "outputs": [
        {
          "internalType": "uint256",
          "name": "",
          "type": "uint256"
        }
      ],
      "stateMutability": "view",
      "type": "function"
    },
    {
      "inputs": [
        {
          "internalType": "address",
          "name": "newOwner",
          "type": "address"
        }
      ],
      "name": "transferOwnership",
      "outputs": [],
      "stateMutability": "nonpayable",
      "type": "function"
    },
    {
      "inputs": [
        {
          "internalType": "uint256",
          "name": "",
          "type": "uint256"
        }
      ],
      "name": "uri",
      "outputs": [
        {
          "internalType": "string",
          "name": "",
          "type": "string"
        }
      ],
      "stateMutability": "view",
      "type": "function"
    },
    {
      "inputs": [],
      "name": "withdraw",
      "outputs": [],
      "stateMutability": "nonpayable",
      "type": "function"
    }
  ],
  "bytecode": "0x6080604052662386f26fc100006005556109c460065560056007556001600860006101000a81548160ff0219169083151502179055503480156200004257600080fd5b5060405162003a9138038062003a91833981810160405281019062000068919062000318565b806200007a81620000a260201b60201c565b506200009b6200008f620000b760201b60201c565b620000bf60201b60201c565b506200069b565b8060029081620000b39190620005b4565b5050565b600033905090565b6000600360009054906101000a900473ffffffffffffffffffffffffffffffffffffffff16905081600360006101000a81548173ffffffffffffffffffffffffffffffffffffffff021916908373ffffffffffffffffffffffffffffffffffffffff1602179055508173ffffffffffffffffffffffffffffffffffffffff168173ffffffffffffffffffffffffffffffffffffffff167f8be0079c531659141344cd1fd0a4f28419497f9722a3daafe3b4186f6b6457e060405160405180910390a35050565b6000604051905090565b600080fd5b600080fd5b600080fd5b600080fd5b6000601f19601f8301169050919050565b7f4e487b7100000000000000000000000000000000000000000000000000000000600052604160045260246000fd5b620001ee82620001a3565b810181811067ffffffffffffffff8211171562000210576200020f620001b4565b5b80604052505050565b60006200022562000185565b9050620002338282620001e3565b919050565b600067ffffffffffffffff821115620002565762000255620001b4565b5b6200026182620001a3565b9050602081019050919050565b60005b838110156200028e57808201518184015260208101905062000271565b60008484015250505050565b6000620002b1620002ab8462000238565b62000219565b905082815260208101848484011115620002d057620002cf6200019e565b5b620002dd8482856200026e565b509392505050565b600082601f830112620002fd57620002fc62000199565b5b81516200030f8482602086016200029a565b91505092915050565b6000602082840312156200033157620003306200018f565b5b600082015167ffffffffffffffff81111562000352576200035162000194565b5b6200036084828501620002e5565b91505092915050565b600081519050919050565b7f4e487b7100000000000000000000000000000000000000000000000000000000600052602260045260246000fd5b60006002820490506001821680620003bc57607f821691505b602082108103620003d257620003d162000374565b5b50919050565b60008190508160005260206000209050919050565b60006020601f8301049050919050565b600082821b905092915050565b6000600883026200043c7fffffffffffffffffffffffffffffffffffffffffffffffffffffffffffffffff82620003fd565b620004488683620003fd565b95508019841693508086168417925050509392505050565b6000819050919050565b6000819050919050565b6000620004956200048f620004898462000460565b6200046a565b62000460565b9050919050565b6000819050919050565b620004b18362000474565b620004c9620004c0826200049c565b8484546200040a565b825550505050565b600090565b620004e0620004d1565b620004ed818484620004a6565b505050565b5b81811015620005155762000509600082620004d6565b600181019050620004f3565b5050565b601f82111562000564576200052e81620003d8565b6200053984620003ed565b8101602085101562000549578190505b620005616200055885620003ed565b830182620004f2565b50505b505050565b600082821c905092915050565b6000620005896000198460080262000569565b1980831691505092915050565b6000620005a4838362000576565b9150826002028217905092915050565b620005bf8262000369565b67ffffffffffffffff811115620005db57620005da620001b4565b5b620005e78254620003a3565b620005f482828562000519565b600060209050601f8311600181146200062c576000841562000617578287015190505b62000623858262000596565b86555062000693565b601f1984166200063c86620003d8565b60005b8281101562000666578489015182556001820191506020850194506020810190506200063f565b8683101562000686578489015162000682601f89168262000576565b8355505b6001600288020188555050505b505050505050565b6133e680620006ab6000396000f3fe60806040526004361061013f5760003560e01c8063715018a6116100b6578063b3cea2171161006f578063b3cea21714610426578063d5abeb0114610451578063e985e9c51461047c578063efbd73f4146104b9578063f242432a146104e2578063f2fde38b1461050b5761013f565b8063715018a61461034b5780638da5cb5b1461036257806394354fd01461038d578063a0712d68146103b8578063a22cb465146103d4578063b071401b146103fd5761013f565b806318160ddd1161010857806318160ddd1461024f5780632eb2c2d61461027a5780633ccfd60b146102a357806344a0d68a146102ba5780634e1273f4146102e35780635c975abb146103205761013f565b8062fdd58e1461014457806301ffc9a7146101815780630e89341c146101be57806313faede6146101fb57806316c38b3c14610226575b600080fd5b34801561015057600080fd5b5061016b60048036038101906101669190611e22565b610534565b6040516101789190611e71565b60405180910390f35b34801561018d57600080fd5b506101a860048036038101906101a39190611ee4565b6105fc565b6040516101b59190611f2c565b60405180910390f35b3480156101ca57600080fd5b506101e560048036038101906101e09190611f47565b6106de565b6040516101f29190612004565b60405180910390f35b34801561020757600080fd5b50610210610772565b60405161021d9190611e71565b60405180910390f35b34801561023257600080fd5b5061024d60048036038101906102489190612052565b610778565b005b34801561025b57600080fd5b5061026461079d565b6040516102719190611e71565b60405180910390f35b34801561028657600080fd5b506102a1600480360381019061029c919061227c565b6107ae565b005b3480156102af57600080fd5b506102b861084f565b005b3480156102c657600080fd5b506102e160048036038101906102dc9190611f47565b6108d7565b005b3480156102ef57600080fd5b5061030a6004803603810190610305919061240e565b6108e9565b6040516103179190612544565b60405180910390f35b34801561032c57600080fd5b50610335610a02565b6040516103429190611f2c565b60405180910390f35b34801561035757600080fd5b50610360610a15565b005b34801561036e57600080fd5b50610377610a29565b6040516103849190612575565b60405180910390f35b34801561039957600080fd5b506103a2610a53565b6040516103af9190611e71565b60405180910390f35b6103d260048036038101906103cd9190611f47565b610a59565b005b3480156103e057600080fd5b506103fb60048036038101906103f69190612590565b610bc4565b005b34801561040957600080fd5b50610424600480360381019061041f9190611f47565b610bda565b005b34801561043257600080fd5b5061043b610bec565b6040516104489190611e71565b60405180910390f35b34801561045d57600080fd5b50610466610bf1565b6040516104739190611e71565b60405180910390f35b34801561048857600080fd5b506104a3600480360381019061049e91906125d0565b610bf7565b6040516104b09190611f2c565b60405180910390f35b3480156104c557600080fd5b506104e060048036038101906104db9190612610565b610c8b565b005b3480156104ee57600080fd5b5061050960048036038101906105049190612650565b610d5f565b005b34801561051757600080fd5b50610532600480360381019061052d91906126e7565b610e00565b005b60008073ffffffffffffffffffffffffffffffffffffffff168373ffffffffffffffffffffffffffffffffffffffff16036105a4576040517f08c379a000000000000000000000000000000000000000000000000000000000815260040161059b90612786565b60405180910390fd5b60008083815260200190815260200160002060008473ffffffffffffffffffffffffffffffffffffffff1673ffffffffffffffffffffffffffffffffffffffff16815260200190815260200160002054905092915050565b60007fd9b67a26000000000000000000000000000000000000000000000000000000007bffffffffffffffffffffffffffffffffffffffffffffffffffffffff1916827bffffffffffffffffffffffffffffffffffffffffffffffffffffffff191614806106c757507f0e89341c000000000000000000000000000000000000000000000000000000007bffffffffffffffffffffffffffffffffffffffffffffffffffffffff1916827bffffffffffffffffffffffffffffffffffffffffffffffffffffffff1916145b806106d757506106d682610e83565b5b9050919050565b6060600280546106ed906127d5565b80601f0160208091040260200160405190810160405280929190818152602001828054610719906127d5565b80156107665780601f1061073b57610100808354040283529160200191610766565b820191906000526020600020905b81548152906001019060200180831161074957829003601f168201915b50505050509050919050565b60055481565b610780610eed565b80600860006101000a81548160ff02191690831515021790555050565b60006107a96004610f6b565b905090565b6107b6610f79565b73ffffffffffffffffffffffffffffffffffffffff168573ffffffffffffffffffffffffffffffffffffffff1614806107fc57506107fb856107f6610f79565b610bf7565b5b61083b576040517f08c379a000000000000000000000000000000000000000000000000000000000815260040161083290612878565b60405180910390fd5b6108488585858585610f81565b5050505050565b610857610eed565b6000610861610a29565b73ffffffffffffffffffffffffffffffffffffffff1647604051610884906128c9565b60006040518083038185875af1925050503d80600081146108c1576040519150601f19603f3d011682016040523d82523d6000602084013e6108c6565b606091505b50509050806108d457600080fd5b50565b6108df610eed565b8060058190555050565b6060815183511461092f576040517f08c379a000000000000000000000000000000000000000000000000000000000815260040161092690612950565b60405180910390fd5b6000835167ffffffffffffffff81111561094c5761094b612084565b5b60405190808252806020026020018201604052801561097a5781602001602082028036833780820191505090505b50905060005b84518110156109f7576109c785828151811061099f5761099e612970565b5b60200260200101518583815181106109ba576109b9612970565b5b6020026020010151610534565b8282815181106109da576109d9612970565b5b602002602001018181525050806109f0906129ce565b9050610980565b508091505092915050565b600860009054906101000a900460ff1681565b610a1d610eed565b610a2760006112a2565b565b6000600360009054906101000a900473ffffffffffffffffffffffffffffffffffffffff16905090565b60075481565b80600081118015610a6c57506007548111155b610aab576040517f08c379a0000000000000000000000000000000000000000000000000000000008152600401610aa290612a62565b60405180910390fd5b60065481610ab96004610f6b565b610ac39190612a82565b1115610b04576040517f08c379a0000000000000000000000000000000000000000000000000000000008152600401610afb90612b02565b60405180910390fd5b600860009054906101000a900460ff1615610b54576040517f08c379a0000000000000000000000000000000000000000000000000000000008152600401610b4b90612b6e565b60405180910390fd5b81600554610b629190612b8e565b341015610ba4576040517f08c379a0000000000000000000000000000000000000000000000000000000008152600401610b9b90612c1c565b60405180910390fd5b610bc03360008460405180602001604052806000815250611368565b5050565b610bd6610bcf610f79565b8383611518565b5050565b610be2610eed565b8060078190555050565b600081565b60065481565b6000600160008473ffffffffffffffffffffffffffffffffffffffff1673ffffffffffffffffffffffffffffffffffffffff16815260200190815260200160002060008373ffffffffffffffffffffffffffffffffffffffff1673ffffffffffffffffffffffffffffffffffffffff16815260200190815260200160002060009054906101000a900460ff16905092915050565b81600081118015610c9e57506007548111155b610cdd576040517f08c379a0000000000000000000000000000000000000000000000000000000008152600401610cd490612a62565b60405180910390fd5b60065481610ceb6004610f6b565b610cf59190612a82565b1115610d36576040517f08c379a0000000000000000000000000000000000000000000000000000000008152600401610d2d90612b02565b60405180910390fd5b610d3e610eed565b610d5a8260008560405180602001604052806000815250611368565b505050565b610d67610f79565b73ffffffffffffffffffffffffffffffffffffffff168573ffffffffffffffffffffffffffffffffffffffff161480610dad5750610dac85610da7610f79565b610bf7565b5b610dec576040517f08c379a0000000000000000000000000000000000000000000000000000000008152600401610de390612878565b60405180910390fd5b610df98585858585611684565b5050505050565b610e08610eed565b600073ffffffffffffffffffffffffffffffffffffffff168173ffffffffffffffffffffffffffffffffffffffff1603610e77576040517f08c379a0000000000000000000000000000000000000000000000000000000008152600401610e6e90612cae565b60405180910390fd5b610e80816112a2565b50565b60007f01ffc9a7000000000000000000000000000000000000000000000000000000007bffffffffffffffffffffffffffffffffffffffffffffffffffffffff1916827bffffffffffffffffffffffffffffffffffffffffffffffffffffffff1916149050919050565b610ef5610f79565b73ffffffffffffffffffffffffffffffffffffffff16610f13610a29565b73ffffffffffffffffffffffffffffffffffffffff1614610f69576040517f08c379a0000000000000000000000000000000000000000000000000000000008152600401610f6090612d1a565b60405180910390fd5b565b600081600001549050919050565b600033905090565b8151835114610fc5576040517f08c379a0000000000000000000000000000000000000000000000000000000008152600401610fbc90612dac565b60405180910390fd5b600073ffffffffffffffffffffffffffffffffffffffff168473ffffffffffffffffffffffffffffffffffffffff1603611034576040517f08c379a000000000000000000000000000000000000000000000000000000000815260040161102b90612e3e565b60405180910390fd5b600061103e610f79565b905061104e81878787878761191f565b60005b84518110156111ff57600085828151811061106f5761106e612970565b5b60200260200101519050600085838151811061108e5761108d612970565b5b60200260200101519050600080600084815260200190815260200160002060008b73ffffffffffffffffffffffffffffffffffffffff1673ffffffffffffffffffffffffffffffffffffffff1681526020019081526020016000205490508181101561112f576040517f08c379a000000000000000000000000000000000000000000000000000000000815260040161112690612ed0565b60405180910390fd5b81810360008085815260200190815260200160002060008c73ffffffffffffffffffffffffffffffffffffffff1673ffffffffffffffffffffffffffffffffffffffff168152602001908152602001600020819055508160008085815260200190815260200160002060008b73ffffffffffffffffffffffffffffffffffffffff1673ffffffffffffffffffffffffffffffffffffffff16815260200190815260200160002060008282546111e49190612a82565b92505081905550505050806111f8906129ce565b9050611051565b508473ffffffffffffffffffffffffffffffffffffffff168673ffffffffffffffffffffffffffffffffffffffff168273ffffffffffffffffffffffffffffffffffffffff167f4a39dc06d4c0dbc64b70af90fd698a233a518aa5d07e595d983b8c0526c8f7fb8787604051611276929190612ef0565b60405180910390a461128c818787878787611927565b61129a81878787878761192f565b505050505050565b6000600360009054906101000a900473ffffffffffffffffffffffffffffffffffffffff16905081600360006101000a81548173ffffffffffffffffffffffffffffffffffffffff021916908373ffffffffffffffffffffffffffffffffffffffff1602179055508173ffffffffffffffffffffffffffffffffffffffff168173ffffffffffffffffffffffffffffffffffffffff167f8be0079c531659141344cd1fd0a4f28419497f9722a3daafe3b4186f6b6457e060405160405180910390a35050565b600073ffffffffffffffffffffffffffffffffffffffff168473ffffffffffffffffffffffffffffffffffffffff16036113d7576040517f08c379a00000000000000000000000000000000000000000000000000000000081526004016113ce90612f99565b60405180910390fd5b60006113e1610f79565b905060006113ee85611b06565b905060006113fb85611b06565b905061140c8360008985858961191f565b8460008088815260200190815260200160002060008973ffffffffffffffffffffffffffffffffffffffff1673ffffffffffffffffffffffffffffffffffffffff168152602001908152602001600020600082825461146b9190612a82565b925050819055508673ffffffffffffffffffffffffffffffffffffffff16600073ffffffffffffffffffffffffffffffffffffffff168473ffffffffffffffffffffffffffffffffffffffff167fc3d58168c5ae7397731d063d5bbf3d657854427343f4c083240f7aacaa2d0f6289896040516114e9929190612fb9565b60405180910390a461150083600089858589611927565b61150f83600089898989611b80565b50505050505050565b8173ffffffffffffffffffffffffffffffffffffffff168373ffffffffffffffffffffffffffffffffffffffff1603611586576040517f08c379a000000000000000000000000000000000000000000000000000000000815260040161157d90613054565b60405180910390fd5b80600160008573ffffffffffffffffffffffffffffffffffffffff1673ffffffffffffffffffffffffffffffffffffffff16815260200190815260200160002060008473ffffffffffffffffffffffffffffffffffffffff1673ffffffffffffffffffffffffffffffffffffffff16815260200190815260200160002060006101000a81548160ff0219169083151502179055508173ffffffffffffffffffffffffffffffffffffffff168373ffffffffffffffffffffffffffffffffffffffff167f17307eab39ab6107e8899845ad3d59bd9653f200f220920489ca2b5937696c31836040516116779190611f2c565b60405180910390a3505050565b600073ffffffffffffffffffffffffffffffffffffffff168473ffffffffffffffffffffffffffffffffffffffff16036116f3576040517f08c379a00000000000000000000000000000000000000000000000000000000081526004016116ea90612e3e565b60405180910390fd5b60006116fd610f79565b9050600061170a85611b06565b9050600061171785611b06565b905061172783898985858961191f565b600080600088815260200190815260200160002060008a73ffffffffffffffffffffffffffffffffffffffff1673ffffffffffffffffffffffffffffffffffffffff168152602001908152602001600020549050858110156117be576040517f08c379a00000000000000000000000000000000000000000000000000000000081526004016117b590612ed0565b60405180910390fd5b85810360008089815260200190815260200160002060008b73ffffffffffffffffffffffffffffffffffffffff1673ffffffffffffffffffffffffffffffffffffffff168152602001908152602001600020819055508560008089815260200190815260200160002060008a73ffffffffffffffffffffffffffffffffffffffff1673ffffffffffffffffffffffffffffffffffffffff16815260200190815260200160002060008282546118739190612a82565b925050819055508773ffffffffffffffffffffffffffffffffffffffff168973ffffffffffffffffffffffffffffffffffffffff168573ffffffffffffffffffffffffffffffffffffffff167fc3d58168c5ae7397731d063d5bbf3d657854427343f4c083240f7aacaa2d0f628a8a6040516118f0929190612fb9565b60405180910390a4611906848a8a86868a611927565b611914848a8a8a8a8a611b80565b505050505050505050565b505050505050565b505050505050565b61194e8473ffffffffffffffffffffffffffffffffffffffff16611d57565b15611afe578373ffffffffffffffffffffffffffffffffffffffff1663bc197c8187878686866040518663ffffffff1660e01b81526004016119949594939291906130c9565b6020604051808303816000875af19250505080156119d057506040513d601f19601f820116820180604052508101906119cd9190613146565b60015b611a75576119dc613180565b806308c379a003611a3857506119f06131a2565b806119fb5750611a3a565b806040517f08c379a0000000000000000000000000000000000000000000000000000000008152600401611a2f9190612004565b60405180910390fd5b505b6040517f08c379a0000000000000000000000000000000000000000000000000000000008152600401611a6c906132a4565b60405180910390fd5b63bc197c8160e01b7bffffffffffffffffffffffffffffffffffffffffffffffffffffffff1916817bffffffffffffffffffffffffffffffffffffffffffffffffffffffff191614611afc576040517f08c379a0000000000000000000000000000000000000000000000000000000008152600401611af390613336565b60405180910390fd5b505b505050505050565b60606000600167ffffffffffffffff811115611b2557611b24612084565b5b604051908082528060200260200182016040528015611b535781602001602082028036833780820191505090505b5090508281600081518110611b6b57611b6a612970565b5b60200260200101818152505080915050919050565b611b9f8473ffffffffffffffffffffffffffffffffffffffff16611d57565b15611d4f578373ffffffffffffffffffffffffffffffffffffffff1663f23a6e6187878686866040518663ffffffff1660e01b8152600401611be5959493929190613356565b6020604051808303816000875af1925050508015611c2157506040513d601f19601f82011682018060405250810190611c1e9190613146565b60015b611cc657611c2d613180565b806308c379a003611c895750611c416131a2565b80611c4c5750611c8b565b806040517f08c379a0000000000000000000000000000000000000000000000000000000008152600401611c809190612004565b60405180910390fd5b505b6040517f08c379a0000000000000000000000000000000000000000000000000000000008152600401611cbd906132a4565b60405180910390fd5b63f23a6e6160e01b7bffffffffffffffffffffffffffffffffffffffffffffffffffffffff1916817bffffffffffffffffffffffffffffffffffffffffffffffffffffffff191614611d4d576040517f08c379a0000000000000000000000000000000000000000000000000000000008152600401611d4490613336565b60405180910390fd5b505b505050505050565b6000808273ffffffffffffffffffffffffffffffffffffffff163b119050919050565b6000604051905090565b600080fd5b600080fd5b600073ffffffffffffffffffffffffffffffffffffffff82169050919050565b6000611db982611d8e565b9050919050565b611dc981611dae565b8114611dd457600080fd5b50565b600081359050611de681611dc0565b92915050565b6000819050919050565b611dff81611dec565b8114611e0a57600080fd5b50565b600081359050611e1c81611df6565b92915050565b60008060408385031215611e3957611e38611d84565b5b6000611e4785828601611dd7565b9250506020611e5885828601611e0d565b9150509250929050565b611e6b81611dec565b82525050565b6000602082019050611e866000830184611e62565b92915050565b60007fffffffff0000000000000000000000000000000000000000000000000000000082169050919050565b611ec181611e8c565b8114611ecc57600080fd5b50565b600081359050611ede81611eb8565b92915050565b600060208284031215611efa57611ef9611d84565b5b6000611f0884828501611ecf565b91505092915050565b60008115159050919050565b611f2681611f11565b82525050565b6000602082019050611f416000830184611f1d565b92915050565b600060208284031215611f5d57611f5c611d84565b5b6000611f6b84828501611e0d565b91505092915050565b600081519050919050565b600082825260208201905092915050565b60005b83811015611fae578082015181840152602081019050611f93565b60008484015250505050565b6000601f19601f8301169050919050565b6000611fd682611f74565b611fe08185611f7f565b9350611ff0818560208601611f90565b611ff981611fba565b840191505092915050565b6000602082019050818103600083015261201e8184611fcb565b905092915050565b61202f81611f11565b811461203a57600080fd5b50565b60008135905061204c81612026565b92915050565b60006020828403121561206857612067611d84565b5b60006120768482850161203d565b91505092915050565b600080fd5b7f4e487b7100000000000000000000000000000000000000000000000000000000600052604160045260246000fd5b6120bc82611fba565b810181811067ffffffffffffffff821117156120db576120da612084565b5b80604052505050565b60006120ee611d7a565b90506120fa82826120b3565b919050565b600067ffffffffffffffff82111561211a57612119612084565b5b602082029050602081019050919050565b600080fd5b600061214361213e846120ff565b6120e4565b905080838252602082019050602084028301858111156121665761216561212b565b5b835b8181101561218f578061217b8882611e0d565b845260208401935050602081019050612168565b5050509392505050565b600082601f8301126121ae576121ad61207f565b5b81356121be848260208601612130565b91505092915050565b600080fd5b600067ffffffffffffffff8211156121e7576121e6612084565b5b6121f082611fba565b9050602081019050919050565b82818337600083830152505050565b600061221f61221a846121cc565b6120e4565b90508281526020810184848401111561223b5761223a6121c7565b5b6122468482856121fd565b509392505050565b600082601f8301126122635761226261207f565b5b813561227384826020860161220c565b91505092915050565b600080600080600060a0868803121561229857612297611d84565b5b60006122a688828901611dd7565b95505060206122b788828901611dd7565b945050604086013567ffffffffffffffff8111156122d8576122d7611d89565b5b6122e488828901612199565b935050606086013567ffffffffffffffff81111561230557612304611d89565b5b61231188828901612199565b925050608086013567ffffffffffffffff81111561233257612331611d89565b5b61233e8882890161224e565b9150509295509295909350565b600067ffffffffffffffff82111561236657612365612084565b5b602082029050602081019050919050565b600061238a6123858461234b565b6120e4565b905080838252602082019050602084028301858111156123ad576123ac61212b565b5b835b818110156123d657806123c28882611dd7565b8452602084019350506020810190506123af565b5050509392505050565b600082601f8301126123f5576123f461207f565b5b8135612405848260208601612377565b91505092915050565b6000806040838503121561242557612424611d84565b5b600083013567ffffffffffffffff81111561244357612442611d89565b5b61244f858286016123e0565b925050602083013567ffffffffffffffff8111156124705761246f611d89565b5b61247c85828601612199565b9150509250929050565b600081519050919050565b600082825260208201905092915050565b6000819050602082019050919050565b6124bb81611dec565b82525050565b60006124cd83836124b2565b60208301905092915050565b6000602082019050919050565b60006124f182612486565b6124fb8185612491565b9350612506836124a2565b8060005b8381101561253757815161251e88826124c1565b9750612529836124d9565b92505060018101905061250a565b5085935050505092915050565b6000602082019050818103600083015261255e81846124e6565b905092915050565b61256f81611dae565b82525050565b600060208201905061258a6000830184612566565b92915050565b600080604083850312156125a7576125a6611d84565b5b60006125b585828601611dd7565b92505060206125c68582860161203d565b9150509250929050565b600080604083850312156125e7576125e6611d84565b5b60006125f585828601611dd7565b925050602061260685828601611dd7565b9150509250929050565b6000806040838503121561262757612626611d84565b5b600061263585828601611e0d565b925050602061264685828601611dd7565b9150509250929050565b600080600080600060a0868803121561266c5761266b611d84565b5b600061267a88828901611dd7565b955050602061268b88828901611dd7565b945050604061269c88828901611e0d565b93505060606126ad88828901611e0d565b925050608086013567ffffffffffffffff8111156126ce576126cd611d89565b5b6126da8882890161224e565b9150509295509295909350565b6000602082840312156126fd576126fc611d84565b5b600061270b84828501611dd7565b91505092915050565b7f455243313135353a2061646472657373207a65726f206973206e6f742061207660008201527f616c6964206f776e657200000000000000000000000000000000000000000000602082015250565b6000612770602a83611f7f565b915061277b82612714565b604082019050919050565b6000602082019050818103600083015261279f81612763565b9050919050565b7f4e487b7100000000000000000000000000000000000000000000000000000000600052602260045260246000fd5b600060028204905060018216806127ed57607f821691505b602082108103612800576127ff6127a6565b5b50919050565b7f455243313135353a2063616c6c6572206973206e6f7420746f6b656e206f776e60008201527f6572206f7220617070726f766564000000000000000000000000000000000000602082015250565b6000612862602e83611f7f565b915061286d82612806565b604082019050919050565b6000602082019050818103600083015261289181612855565b9050919050565b600081905092915050565b50565b60006128b3600083612898565b91506128be826128a3565b600082019050919050565b60006128d4826128a6565b9150819050919050565b7f455243313135353a206163636f756e747320616e6420696473206c656e67746860008201527f206d69736d617463680000000000000000000000000000000000000000000000602082015250565b600061293a602983611f7f565b9150612945826128de565b604082019050919050565b600060208201905081810360008301526129698161292d565b9050919050565b7f4e487b7100000000000000000000000000000000000000000000000000000000600052603260045260246000fd5b7f4e487b7100000000000000000000000000000000000000000000000000000000600052601160045260246000fd5b60006129d982611dec565b91507fffffffffffffffffffffffffffffffffffffffffffffffffffffffffffffffff8203612a0b57612a0a61299f565b5b600182019050919050565b7f496e76616c6964206d696e7420616d6f756e7421000000000000000000000000600082015250565b6000612a4c601483611f7f565b9150612a5782612a16565b602082019050919050565b60006020820190508181036000830152612a7b81612a3f565b9050919050565b6000612a8d82611dec565b9150612a9883611dec565b9250828201905080821115612ab057612aaf61299f565b5b92915050565b7f4d617820737570706c7920657863656564656421000000000000000000000000600082015250565b6000612aec601483611f7f565b9150612af782612ab6565b602082019050919050565b60006020820190508181036000830152612b1b81612adf565b9050919050565b7f54686520636f6e74726163742069732070617573656421000000000000000000600082015250565b6000612b58601783611f7f565b9150612b6382612b22565b602082019050919050565b60006020820190508181036000830152612b8781612b4b565b9050919050565b6000612b9982611dec565b9150612ba483611dec565b9250828202612bb281611dec565b91508282048414831517612bc957612bc861299f565b5b5092915050565b7f496e73756666696369656e742066756e64732100000000000000000000000000600082015250565b6000612c06601383611f7f565b9150612c1182612bd0565b602082019050919050565b60006020820190508181036000830152612c3581612bf9565b9050919050565b7f4f776e61626c653a206e6577206f776e657220697320746865207a65726f206160008201527f6464726573730000000000000000000000000000000000000000000000000000602082015250565b6000612c98602683611f7f565b9150612ca382612c3c565b604082019050919050565b60006020820190508181036000830152612cc781612c8b565b9050919050565b7f4f776e61626c653a2063616c6c6572206973206e6f7420746865206f776e6572600082015250565b6000612d04602083611f7f565b9150612d0f82612cce565b602082019050919050565b60006020820190508181036000830152612d3381612cf7565b9050919050565b7f455243313135353a2069647320616e6420616d6f756e7473206c656e6774682060008201527f6d69736d61746368000000000000000000000000000000000000000000000000602082015250565b6000612d96602883611f7f565b9150612da182612d3a565b604082019050919050565b60006020820190508181036000830152612dc581612d89565b9050919050565b7f455243313135353a207472616e7366657220746f20746865207a65726f20616460008201527f6472657373000000000000000000000000000000000000000000000000000000602082015250565b6000612e28602583611f7f565b9150612e3382612dcc565b604082019050919050565b60006020820190508181036000830152612e5781612e1b565b9050919050565b7f455243313135353a20696e73756666696369656e742062616c616e636520666f60008201527f72207472616e7366657200000000000000000000000000000000000000000000602082015250565b6000612eba602a83611f7f565b9150612ec582612e5e565b604082019050919050565b60006020820190508181036000830152612ee981612ead565b9050919050565b60006040820190508181036000830152612f0a81856124e6565b90508181036020830152612f1e81846124e6565b90509392505050565b7f455243313135353a206d696e7420746f20746865207a65726f2061646472657360008201527f7300000000000000000000000000000000000000000000000000000000000000602082015250565b6000612f83602183611f7f565b9150612f8e82612f27565b604082019050919050565b60006020820190508181036000830152612fb281612f76565b9050919050565b6000604082019050612fce6000830185611e62565b612fdb6020830184611e62565b9392505050565b7f455243313135353a2073657474696e6720617070726f76616c2073746174757360008201527f20666f722073656c660000000000000000000000000000000000000000000000602082015250565b600061303e602983611f7f565b915061304982612fe2565b604082019050919050565b6000602082019050818103600083015261306d81613031565b9050919050565b600081519050919050565b600082825260208201905092915050565b600061309b82613074565b6130a5818561307f565b93506130b5818560208601611f90565b6130be81611fba565b840191505092915050565b600060a0820190506130de6000830188612566565b6130eb6020830187612566565b81810360408301526130fd81866124e6565b9050818103606083015261311181856124e6565b905081810360808301526131258184613090565b90509695505050505050565b60008151905061314081611eb8565b92915050565b60006020828403121561315c5761315b611d84565b5b600061316a84828501613131565b91505092915050565b60008160e01c9050919050565b600060033d111561319f5760046000803e61319c600051613173565b90505b90565b600060443d1061322f576131b4611d7a565b60043d036004823e80513d602482011167ffffffffffffffff821117156131dc57505061322f565b808201805167ffffffffffffffff8111156131fa575050505061322f565b80602083010160043d03850181111561321757505050505061322f565b613226826020018501866120b3565b82955050505050505b90565b7f455243313135353a207472616e7366657220746f206e6f6e2d4552433131353560008201527f526563656976657220696d706c656d656e746572000000000000000000000000602082015250565b600061328e603483611f7f565b915061329982613232565b604082019050919050565b600060208201905081810360008301526132bd81613281565b9050919050565b7f455243313135353a204552433131353552656365697665722072656a6563746560008201527f6420746f6b656e73000000000000000000000000000000000000000000000000602082015250565b6000613320602883611f7f565b915061332b826132c4565b604082019050919050565b6000602082019050818103600083015261334f81613313565b9050919050565b600060a08201905061336b6000830188612566565b6133786020830187612566565b6133856040830186611e62565b6133926060830185611e62565b81810360808301526133a48184613090565b9050969550505050505056fea264697066735822122019785838278b49372ebe159b549fe206d9b80ed788112d50624735c50ac5cc6d64736f6c63430008110033",
  "linkReferences": {},
  "deployedLinkReferences": {}
}