{
  "_format": "hh-sol-artifact-1",
  "contractName": "StateVariables",
  "sourceName": "contracts/state_variables.sol",
  "abi": [
    {
      "inputs": [],
      "name": "getNum",
      "outputs": [
        {
          "internalType": "uint256",
          "name": "",
          "type": "uint256"
        }
      ],
      "stateMutability": "view",
      "type": "function"
    },
    {
      "inputs": [],
      "name": "getNumPlusOne",
      "outputs": [
        {
          "internalType": "uint256",
          "name": "",
          "type": "uint256"
        }
      ],
      "stateMutability": "view",
      "type": "function"
    },
    {
      "inputs": [],
      "name": "num",
      "outputs": [
        {
          "internalType": "uint256",
          "name": "",
          "type": "uint256"
        }
      ],
      "stateMutability": "view",
      "type": "function"
    },
    {
      "inputs": [],
      "name": "resetNum",
      "outputs": [],
      "stateMutability": "nonpayable",
      "type": "function"
    },
    {
      "inputs": [
        {
          "internalType": "uint256",
          "name": "_num",
          "type": "uint256"
        }
      ],
      "name": "setNum",
      "outputs": [],
      "stateMutability": "nonpayable",
      "type": "function"
    }
  ],
  "bytecode": "0x608060405234801561001057600080fd5b5061023f806100206000396000f3fe608060405234801561001057600080fd5b50600436106100575760003560e01c80632ae70ca11461005c5780634e70b1dc1461007a57806367e0badb14610098578063ad0df95b146100b6578063cd16ecbf146100c0575b600080fd5b6100646100dc565b604051610071919061012d565b60405180910390f35b6100826100f2565b60405161008f919061012d565b60405180910390f35b6100a06100f8565b6040516100ad919061012d565b60405180910390f35b6100be610101565b005b6100da60048036038101906100d59190610179565b61010a565b005b600060016000546100ed91906101d5565b905090565b60005481565b60008054905090565b60008081905550565b8060008190555050565b6000819050919050565b61012781610114565b82525050565b6000602082019050610142600083018461011e565b92915050565b600080fd5b61015681610114565b811461016157600080fd5b50565b6000813590506101738161014d565b92915050565b60006020828403121561018f5761018e610148565b5b600061019d84828501610164565b91505092915050565b7f4e487b7100000000000000000000000000000000000000000000000000000000600052601160045260246000fd5b60006101e082610114565b91506101eb83610114565b9250828201905080821115610203576102026101a6565b5b9291505056fea2646970667358221220ed6c79c41a6201eee254bd0086601ed321f72cf984015ec4f7556f5eb2f587e764736f6c63430008110033",
  "linkReferences": {},
  "deployedLinkReferences": {}
}