{
  "_format": "hh-sol-artifact-1",
  "contractName": "TestReentrancyGuard",
  "sourceName": "contracts/test_re_entrancy_guard.sol",
  "abi": [
    {
      "inputs": [
        {
          "internalType": "uint256",
          "name": "_max",
          "type": "uint256"
        }
      ],
      "stateMutability": "nonpayable",
      "type": "constructor"
    },
    {
      "stateMutability": "nonpayable",
      "type": "fallback"
    },
    {
      "inputs": [],
      "name": "count",
      "outputs": [
        {
          "internalType": "uint256",
          "name": "",
          "type": "uint256"
        }
      ],
      "stateMutability": "view",
      "type": "function"
    },
    {
      "inputs": [],
      "name": "max",
      "outputs": [
        {
          "internalType": "uint256",
          "name": "",
          "type": "uint256"
        }
      ],
      "stateMutability": "view",
      "type": "function"
    }
  ],
  "bytecode": "0x60a060405234801561001057600080fd5b506040516105193803806105198339818101604052810190610032919061007b565b8060808181525050506100a8565b600080fd5b6000819050919050565b61005881610045565b811461006357600080fd5b50565b6000815190506100758161004f565b92915050565b60006020828403121561009157610090610040565b5b600061009f84828501610066565b91505092915050565b6080516104506100c960003960008181603d015261020001526104506000f3fe608060405234801561001057600080fd5b506004361061003a5760003560e01c806306661abd146101bc5780636ac5db19146101da5761003b565b5b7f000000000000000000000000000000000000000000000000000000000000000060005410156101ba576001600080828254610077919061025b565b9250508190555060003373ffffffffffffffffffffffffffffffffffffffff16306040516024016100a891906102d0565b6040516020818303038152906040527fbb29998e000000000000000000000000000000000000000000000000000000007bffffffffffffffffffffffffffffffffffffffffffffffffffffffff19166020820180517bffffffffffffffffffffffffffffffffffffffffffffffffffffffff8381831617835250505050604051610132919061035c565b6000604051808303816000865af19150503d806000811461016f576040519150601f19603f3d011682016040523d82523d6000602084013e610174565b606091505b50509050806101b8576040517f08c379a00000000000000000000000000000000000000000000000000000000081526004016101af906103d0565b60405180910390fd5b505b005b6101c46101f8565b6040516101d191906103ff565b60405180910390f35b6101e26101fe565b6040516101ef91906103ff565b60405180910390f35b60005481565b7f000000000000000000000000000000000000000000000000000000000000000081565b6000819050919050565b7f4e487b7100000000000000000000000000000000000000000000000000000000600052601160045260246000fd5b600061026682610222565b915061027183610222565b92508282019050808211156102895761028861022c565b5b92915050565b600073ffffffffffffffffffffffffffffffffffffffff82169050919050565b60006102ba8261028f565b9050919050565b6102ca816102af565b82525050565b60006020820190506102e560008301846102c1565b92915050565b600081519050919050565b600081905092915050565b60005b8381101561031f578082015181840152602081019050610304565b60008484015250505050565b6000610336826102eb565b61034081856102f6565b9350610350818560208601610301565b80840191505092915050565b6000610368828461032b565b915081905092915050565b600082825260208201905092915050565b7f63616c6c206261636b206661696c656400000000000000000000000000000000600082015250565b60006103ba601083610373565b91506103c582610384565b602082019050919050565b600060208201905081810360008301526103e9816103ad565b9050919050565b6103f981610222565b82525050565b600060208201905061041460008301846103f0565b9291505056fea264697066735822122007034ec5a70d2978e06939f377b0172bf8c25eb82e60f0737927524e77023cfb64736f6c63430008110033",
  "linkReferences": {},
  "deployedLinkReferences": {}
}