{"contracts/uniswap_v2_single_swap.sol":{"UniswapV2SingleSwap":{"abi":[{"inputs":[{"internalType":"uint256","name":"amountIn","type":"uint256"}],"name":"swapSingleExactAmountIn","outputs":[],"stateMutability":"nonpayable","type":"function"},{"inputs":[{"internalType":"uint256","name":"amountOutDesired","type":"uint256"},{"internalType":"uint256","name":"amountInMax","type":"uint256"}],"name":"swapSingleExactAmountOut","outputs":[],"stateMutability":"nonpayable","type":"function"}],"evm":{"bytecode":{"linkReferences":{},"object":"608060405234801561001057600080fd5b50610d3c806100206000396000f3fe608060405234801561001057600080fd5b50600436106100365760003560e01c8063a8264c9f1461003b578063b26a1bdf14610057575b600080fd5b61005560048036038101906100509190610784565b610073565b005b610071600480360381019061006c91906107b1565b610366565b005b73812666209b90344ec8e528375298ab9045c2bd0873ffffffffffffffffffffffffffffffffffffffff166323b872dd3330846040518463ffffffff1660e01b81526004016100c493929190610841565b6020604051808303816000875af11580156100e3573d6000803e3d6000fd5b505050506040513d601f19601f8201168201806040525081019061010791906108b0565b5073812666209b90344ec8e528375298ab9045c2bd0873ffffffffffffffffffffffffffffffffffffffff1663095ea7b373a6ad18c2ac47803e193f75c3677b14bf19b94883836040518363ffffffff1660e01b815260040161016b9291906108dd565b6020604051808303816000875af115801561018a573d6000803e3d6000fd5b505050506040513d601f19601f820116820180604052508101906101ae91906108b0565b506000600267ffffffffffffffff8111156101cc576101cb610906565b5b6040519080825280602002602001820160405280156101fa5781602001602082028036833780820191505090505b50905073812666209b90344ec8e528375298ab9045c2bd088160008151811061022657610225610935565b5b602002602001019073ffffffffffffffffffffffffffffffffffffffff16908173ffffffffffffffffffffffffffffffffffffffff168152505073fafedb041c0dd4fa2dc0d87a6b0979ee6fa7af5f8160018151811061028957610288610935565b5b602002602001019073ffffffffffffffffffffffffffffffffffffffff16908173ffffffffffffffffffffffffffffffffffffffff168152505073a6ad18c2ac47803e193f75c3677b14bf19b9488373ffffffffffffffffffffffffffffffffffffffff166338ed17398360008433426040518663ffffffff1660e01b8152600401610319959493929190610a67565b6000604051808303816000875af1158015610338573d6000803e3d6000fd5b505050506040513d6000823e3d601f19601f820116820180604052508101906103619190610c00565b505050565b73812666209b90344ec8e528375298ab9045c2bd0873ffffffffffffffffffffffffffffffffffffffff166323b872dd3330846040518463ffffffff1660e01b81526004016103b793929190610841565b6020604051808303816000875af11580156103d6573d6000803e3d6000fd5b505050506040513d601f19601f820116820180604052508101906103fa91906108b0565b5073812666209b90344ec8e528375298ab9045c2bd0873ffffffffffffffffffffffffffffffffffffffff1663095ea7b373a6ad18c2ac47803e193f75c3677b14bf19b94883836040518363ffffffff1660e01b815260040161045e9291906108dd565b6020604051808303816000875af115801561047d573d6000803e3d6000fd5b505050506040513d601f19601f820116820180604052508101906104a191906108b0565b506000600267ffffffffffffffff8111156104bf576104be610906565b5b6040519080825280602002602001820160405280156104ed5781602001602082028036833780820191505090505b50905073812666209b90344ec8e528375298ab9045c2bd088160008151811061051957610518610935565b5b602002602001019073ffffffffffffffffffffffffffffffffffffffff16908173ffffffffffffffffffffffffffffffffffffffff168152505073fafedb041c0dd4fa2dc0d87a6b0979ee6fa7af5f8160018151811061057c5761057b610935565b5b602002602001019073ffffffffffffffffffffffffffffffffffffffff16908173ffffffffffffffffffffffffffffffffffffffff1681525050600073a6ad18c2ac47803e193f75c3677b14bf19b9488373ffffffffffffffffffffffffffffffffffffffff16638803dbee85858533426040518663ffffffff1660e01b815260040161060d959493929190610c49565b6000604051808303816000875af115801561062c573d6000803e3d6000fd5b505050506040513d6000823e3d601f19601f820116820180604052508101906106559190610c00565b9050828160008151811061066c5761066b610935565b5b602002602001015110156107345773812666209b90344ec8e528375298ab9045c2bd0873ffffffffffffffffffffffffffffffffffffffff1663a9059cbb33836000815181106106bf576106be610935565b5b6020026020010151866106d29190610cd2565b6040518363ffffffff1660e01b81526004016106ef9291906108dd565b6020604051808303816000875af115801561070e573d6000803e3d6000fd5b505050506040513d601f19601f8201168201806040525081019061073291906108b0565b505b50505050565b6000604051905090565b600080fd5b600080fd5b6000819050919050565b6107618161074e565b811461076c57600080fd5b50565b60008135905061077e81610758565b92915050565b60006020828403121561079a57610799610744565b5b60006107a88482850161076f565b91505092915050565b600080604083850312156107c8576107c7610744565b5b60006107d68582860161076f565b92505060206107e78582860161076f565b9150509250929050565b600073ffffffffffffffffffffffffffffffffffffffff82169050919050565b600061081c826107f1565b9050919050565b61082c81610811565b82525050565b61083b8161074e565b82525050565b60006060820190506108566000830186610823565b6108636020830185610823565b6108706040830184610832565b949350505050565b60008115159050919050565b61088d81610878565b811461089857600080fd5b50565b6000815190506108aa81610884565b92915050565b6000602082840312156108c6576108c5610744565b5b60006108d48482850161089b565b91505092915050565b60006040820190506108f26000830185610823565b6108ff6020830184610832565b9392505050565b7f4e487b7100000000000000000000000000000000000000000000000000000000600052604160045260246000fd5b7f4e487b7100000000000000000000000000000000000000000000000000000000600052603260045260246000fd5b6000819050919050565b6000819050919050565b600061099361098e61098984610964565b61096e565b61074e565b9050919050565b6109a381610978565b82525050565b600081519050919050565b600082825260208201905092915050565b6000819050602082019050919050565b6109de81610811565b82525050565b60006109f083836109d5565b60208301905092915050565b6000602082019050919050565b6000610a14826109a9565b610a1e81856109b4565b9350610a29836109c5565b8060005b83811015610a5a578151610a4188826109e4565b9750610a4c836109fc565b925050600181019050610a2d565b5085935050505092915050565b600060a082019050610a7c6000830188610832565b610a89602083018761099a565b8181036040830152610a9b8186610a09565b9050610aaa6060830185610823565b610ab76080830184610832565b9695505050505050565b600080fd5b6000601f19601f8301169050919050565b610ae082610ac6565b810181811067ffffffffffffffff82111715610aff57610afe610906565b5b80604052505050565b6000610b1261073a565b9050610b1e8282610ad7565b919050565b600067ffffffffffffffff821115610b3e57610b3d610906565b5b602082029050602081019050919050565b600080fd5b600081519050610b6381610758565b92915050565b6000610b7c610b7784610b23565b610b08565b90508083825260208201905060208402830185811115610b9f57610b9e610b4f565b5b835b81811015610bc85780610bb48882610b54565b845260208401935050602081019050610ba1565b5050509392505050565b600082601f830112610be757610be6610ac1565b5b8151610bf7848260208601610b69565b91505092915050565b600060208284031215610c1657610c15610744565b5b600082015167ffffffffffffffff811115610c3457610c33610749565b5b610c4084828501610bd2565b91505092915050565b600060a082019050610c5e6000830188610832565b610c6b6020830187610832565b8181036040830152610c7d8186610a09565b9050610c8c6060830185610823565b610c996080830184610832565b9695505050505050565b7f4e487b7100000000000000000000000000000000000000000000000000000000600052601160045260246000fd5b6000610cdd8261074e565b9150610ce88361074e565b9250828203905081811115610d0057610cff610ca3565b5b9291505056fea26469706673582212208a9ebb25537869eea25177d67c5f948372b1bed83aa05792ab02ef196d639c3064736f6c63430008110033","opcodes":"PUSH1 0x80 PUSH1 0x40 MSTORE CALLVALUE DUP1 ISZERO PUSH2 0x10 JUMPI PUSH1 0x0 DUP1 REVERT JUMPDEST POP PUSH2 0xD3C DUP1 PUSH2 0x20 PUSH1 0x0 CODECOPY PUSH1 0x0 RETURN INVALID PUSH1 0x80 PUSH1 0x40 MSTORE CALLVALUE DUP1 ISZERO PUSH2 0x10 JUMPI PUSH1 0x0 DUP1 REVERT JUMPDEST POP PUSH1 0x4 CALLDATASIZE LT PUSH2 0x36 JUMPI PUSH1 0x0 CALLDATALOAD PUSH1 0xE0 SHR DUP1 PUSH4 0xA8264C9F EQ PUSH2 0x3B JUMPI DUP1 PUSH4 0xB26A1BDF EQ PUSH2 0x57 JUMPI JUMPDEST PUSH1 0x0 DUP1 REVERT JUMPDEST PUSH2 0x55 PUSH1 0x4 DUP1 CALLDATASIZE SUB DUP2 ADD SWAP1 PUSH2 0x50 SWAP2 SWAP1 PUSH2 0x784 JUMP JUMPDEST PUSH2 0x73 JUMP JUMPDEST STOP JUMPDEST PUSH2 0x71 PUSH1 0x4 DUP1 CALLDATASIZE SUB DUP2 ADD SWAP1 PUSH2 0x6C SWAP2 SWAP1 PUSH2 0x7B1 JUMP JUMPDEST PUSH2 0x366 JUMP JUMPDEST STOP JUMPDEST PUSH20 0x812666209B90344EC8E528375298AB9045C2BD08 PUSH20 0xFFFFFFFFFFFFFFFFFFFFFFFFFFFFFFFFFFFFFFFF AND PUSH4 0x23B872DD CALLER ADDRESS DUP5 PUSH1 0x40 MLOAD DUP5 PUSH4 0xFFFFFFFF AND PUSH1 0xE0 SHL DUP2 MSTORE PUSH1 0x4 ADD PUSH2 0xC4 SWAP4 SWAP3 SWAP2 SWAP1 PUSH2 0x841 JUMP JUMPDEST PUSH1 0x20 PUSH1 0x40 MLOAD DUP1 DUP4 SUB DUP2 PUSH1 0x0 DUP8 GAS CALL ISZERO DUP1 ISZERO PUSH2 0xE3 JUMPI RETURNDATASIZE PUSH1 0x0 DUP1 RETURNDATACOPY RETURNDATASIZE PUSH1 0x0 REVERT JUMPDEST POP POP POP POP PUSH1 0x40 MLOAD RETURNDATASIZE PUSH1 0x1F NOT PUSH1 0x1F DUP3 ADD AND DUP3 ADD DUP1 PUSH1 0x40 MSTORE POP DUP2 ADD SWAP1 PUSH2 0x107 SWAP2 SWAP1 PUSH2 0x8B0 JUMP JUMPDEST POP PUSH20 0x812666209B90344EC8E528375298AB9045C2BD08 PUSH20 0xFFFFFFFFFFFFFFFFFFFFFFFFFFFFFFFFFFFFFFFF AND PUSH4 0x95EA7B3 PUSH20 0xA6AD18C2AC47803E193F75C3677B14BF19B94883 DUP4 PUSH1 0x40 MLOAD DUP4 PUSH4 0xFFFFFFFF AND PUSH1 0xE0 SHL DUP2 MSTORE PUSH1 0x4 ADD PUSH2 0x16B SWAP3 SWAP2 SWAP1 PUSH2 0x8DD JUMP JUMPDEST PUSH1 0x20 PUSH1 0x40 MLOAD DUP1 DUP4 SUB DUP2 PUSH1 0x0 DUP8 GAS CALL ISZERO DUP1 ISZERO PUSH2 0x18A JUMPI RETURNDATASIZE PUSH1 0x0 DUP1 RETURNDATACOPY RETURNDATASIZE PUSH1 0x0 REVERT JUMPDEST POP POP POP POP PUSH1 0x40 MLOAD RETURNDATASIZE PUSH1 0x1F NOT PUSH1 0x1F DUP3 ADD AND DUP3 ADD DUP1 PUSH1 0x40 MSTORE POP DUP2 ADD SWAP1 PUSH2 0x1AE SWAP2 SWAP1 PUSH2 0x8B0 JUMP JUMPDEST POP PUSH1 0x0 PUSH1 0x2 PUSH8 0xFFFFFFFFFFFFFFFF DUP2 GT ISZERO PUSH2 0x1CC JUMPI PUSH2 0x1CB PUSH2 0x906 JUMP JUMPDEST JUMPDEST PUSH1 0x40 MLOAD SWAP1 DUP1 DUP3 MSTORE DUP1 PUSH1 0x20 MUL PUSH1 0x20 ADD DUP3 ADD PUSH1 0x40 MSTORE DUP1 ISZERO PUSH2 0x1FA JUMPI DUP2 PUSH1 0x20 ADD PUSH1 0x20 DUP3 MUL DUP1 CALLDATASIZE DUP4 CALLDATACOPY DUP1 DUP3 ADD SWAP2 POP POP SWAP1 POP JUMPDEST POP SWAP1 POP PUSH20 0x812666209B90344EC8E528375298AB9045C2BD08 DUP2 PUSH1 0x0 DUP2 MLOAD DUP2 LT PUSH2 0x226 JUMPI PUSH2 0x225 PUSH2 0x935 JUMP JUMPDEST JUMPDEST PUSH1 0x20 MUL PUSH1 0x20 ADD ADD SWAP1 PUSH20 0xFFFFFFFFFFFFFFFFFFFFFFFFFFFFFFFFFFFFFFFF AND SWAP1 DUP2 PUSH20 0xFFFFFFFFFFFFFFFFFFFFFFFFFFFFFFFFFFFFFFFF AND DUP2 MSTORE POP POP PUSH20 0xFAFEDB041C0DD4FA2DC0D87A6B0979EE6FA7AF5F DUP2 PUSH1 0x1 DUP2 MLOAD DUP2 LT PUSH2 0x289 JUMPI PUSH2 0x288 PUSH2 0x935 JUMP JUMPDEST JUMPDEST PUSH1 0x20 MUL PUSH1 0x20 ADD ADD SWAP1 PUSH20 0xFFFFFFFFFFFFFFFFFFFFFFFFFFFFFFFFFFFFFFFF AND SWAP1 DUP2 PUSH20 0xFFFFFFFFFFFFFFFFFFFFFFFFFFFFFFFFFFFFFFFF AND DUP2 MSTORE POP POP PUSH20 0xA6AD18C2AC47803E193F75C3677B14BF19B94883 PUSH20 0xFFFFFFFFFFFFFFFFFFFFFFFFFFFFFFFFFFFFFFFF AND PUSH4 0x38ED1739 DUP4 PUSH1 0x0 DUP5 CALLER TIMESTAMP PUSH1 0x40 MLOAD DUP7 PUSH4 0xFFFFFFFF AND PUSH1 0xE0 SHL DUP2 MSTORE PUSH1 0x4 ADD PUSH2 0x319 SWAP6 SWAP5 SWAP4 SWAP3 SWAP2 SWAP1 PUSH2 0xA67 JUMP JUMPDEST PUSH1 0x0 PUSH1 0x40 MLOAD DUP1 DUP4 SUB DUP2 PUSH1 0x0 DUP8 GAS CALL ISZERO DUP1 ISZERO PUSH2 0x338 JUMPI RETURNDATASIZE PUSH1 0x0 DUP1 RETURNDATACOPY RETURNDATASIZE PUSH1 0x0 REVERT JUMPDEST POP POP POP POP PUSH1 0x40 MLOAD RETURNDATASIZE PUSH1 0x0 DUP3 RETURNDATACOPY RETURNDATASIZE PUSH1 0x1F NOT PUSH1 0x1F DUP3 ADD AND DUP3 ADD DUP1 PUSH1 0x40 MSTORE POP DUP2 ADD SWAP1 PUSH2 0x361 SWAP2 SWAP1 PUSH2 0xC00 JUMP JUMPDEST POP POP POP JUMP JUMPDEST PUSH20 0x812666209B90344EC8E528375298AB9045C2BD08 PUSH20 0xFFFFFFFFFFFFFFFFFFFFFFFFFFFFFFFFFFFFFFFF AND PUSH4 0x23B872DD CALLER ADDRESS DUP5 PUSH1 0x40 MLOAD DUP5 PUSH4 0xFFFFFFFF AND PUSH1 0xE0 SHL DUP2 MSTORE PUSH1 0x4 ADD PUSH2 0x3B7 SWAP4 SWAP3 SWAP2 SWAP1 PUSH2 0x841 JUMP JUMPDEST PUSH1 0x20 PUSH1 0x40 MLOAD DUP1 DUP4 SUB DUP2 PUSH1 0x0 DUP8 GAS CALL ISZERO DUP1 ISZERO PUSH2 0x3D6 JUMPI RETURNDATASIZE PUSH1 0x0 DUP1 RETURNDATACOPY RETURNDATASIZE PUSH1 0x0 REVERT JUMPDEST POP POP POP POP PUSH1 0x40 MLOAD RETURNDATASIZE PUSH1 0x1F NOT PUSH1 0x1F DUP3 ADD AND DUP3 ADD DUP1 PUSH1 0x40 MSTORE POP DUP2 ADD SWAP1 PUSH2 0x3FA SWAP2 SWAP1 PUSH2 0x8B0 JUMP JUMPDEST POP PUSH20 0x812666209B90344EC8E528375298AB9045C2BD08 PUSH20 0xFFFFFFFFFFFFFFFFFFFFFFFFFFFFFFFFFFFFFFFF AND PUSH4 0x95EA7B3 PUSH20 0xA6AD18C2AC47803E193F75C3677B14BF19B94883 DUP4 PUSH1 0x40 MLOAD DUP4 PUSH4 0xFFFFFFFF AND PUSH1 0xE0 SHL DUP2 MSTORE PUSH1 0x4 ADD PUSH2 0x45E SWAP3 SWAP2 SWAP1 PUSH2 0x8DD JUMP JUMPDEST PUSH1 0x20 PUSH1 0x40 MLOAD DUP1 DUP4 SUB DUP2 PUSH1 0x0 DUP8 GAS CALL ISZERO DUP1 ISZERO PUSH2 0x47D JUMPI RETURNDATASIZE PUSH1 0x0 DUP1 RETURNDATACOPY RETURNDATASIZE PUSH1 0x0 REVERT JUMPDEST POP POP POP POP PUSH1 0x40 MLOAD RETURNDATASIZE PUSH1 0x1F NOT PUSH1 0x1F DUP3 ADD AND DUP3 ADD DUP1 PUSH1 0x40 MSTORE POP DUP2 ADD SWAP1 PUSH2 0x4A1 SWAP2 SWAP1 PUSH2 0x8B0 JUMP JUMPDEST POP PUSH1 0x0 PUSH1 0x2 PUSH8 0xFFFFFFFFFFFFFFFF DUP2 GT ISZERO PUSH2 0x4BF JUMPI PUSH2 0x4BE PUSH2 0x906 JUMP JUMPDEST JUMPDEST PUSH1 0x40 MLOAD SWAP1 DUP1 DUP3 MSTORE DUP1 PUSH1 0x20 MUL PUSH1 0x20 ADD DUP3 ADD PUSH1 0x40 MSTORE DUP1 ISZERO PUSH2 0x4ED JUMPI DUP2 PUSH1 0x20 ADD PUSH1 0x20 DUP3 MUL DUP1 CALLDATASIZE DUP4 CALLDATACOPY DUP1 DUP3 ADD SWAP2 POP POP SWAP1 POP JUMPDEST POP SWAP1 POP PUSH20 0x812666209B90344EC8E528375298AB9045C2BD08 DUP2 PUSH1 0x0 DUP2 MLOAD DUP2 LT PUSH2 0x519 JUMPI PUSH2 0x518 PUSH2 0x935 JUMP JUMPDEST JUMPDEST PUSH1 0x20 MUL PUSH1 0x20 ADD ADD SWAP1 PUSH20 0xFFFFFFFFFFFFFFFFFFFFFFFFFFFFFFFFFFFFFFFF AND SWAP1 DUP2 PUSH20 0xFFFFFFFFFFFFFFFFFFFFFFFFFFFFFFFFFFFFFFFF AND DUP2 MSTORE POP POP PUSH20 0xFAFEDB041C0DD4FA2DC0D87A6B0979EE6FA7AF5F DUP2 PUSH1 0x1 DUP2 MLOAD DUP2 LT PUSH2 0x57C JUMPI PUSH2 0x57B PUSH2 0x935 JUMP JUMPDEST JUMPDEST PUSH1 0x20 MUL PUSH1 0x20 ADD ADD SWAP1 PUSH20 0xFFFFFFFFFFFFFFFFFFFFFFFFFFFFFFFFFFFFFFFF AND SWAP1 DUP2 PUSH20 0xFFFFFFFFFFFFFFFFFFFFFFFFFFFFFFFFFFFFFFFF AND DUP2 MSTORE POP POP PUSH1 0x0 PUSH20 0xA6AD18C2AC47803E193F75C3677B14BF19B94883 PUSH20 0xFFFFFFFFFFFFFFFFFFFFFFFFFFFFFFFFFFFFFFFF AND PUSH4 0x8803DBEE DUP6 DUP6 DUP6 CALLER TIMESTAMP PUSH1 0x40 MLOAD DUP7 PUSH4 0xFFFFFFFF AND PUSH1 0xE0 SHL DUP2 MSTORE PUSH1 0x4 ADD PUSH2 0x60D SWAP6 SWAP5 SWAP4 SWAP3 SWAP2 SWAP1 PUSH2 0xC49 JUMP JUMPDEST PUSH1 0x0 PUSH1 0x40 MLOAD DUP1 DUP4 SUB DUP2 PUSH1 0x0 DUP8 GAS CALL ISZERO DUP1 ISZERO PUSH2 0x62C JUMPI RETURNDATASIZE PUSH1 0x0 DUP1 RETURNDATACOPY RETURNDATASIZE PUSH1 0x0 REVERT JUMPDEST POP POP POP POP PUSH1 0x40 MLOAD RETURNDATASIZE PUSH1 0x0 DUP3 RETURNDATACOPY RETURNDATASIZE PUSH1 0x1F NOT PUSH1 0x1F DUP3 ADD AND DUP3 ADD DUP1 PUSH1 0x40 MSTORE POP DUP2 ADD SWAP1 PUSH2 0x655 SWAP2 SWAP1 PUSH2 0xC00 JUMP JUMPDEST SWAP1 POP DUP3 DUP2 PUSH1 0x0 DUP2 MLOAD DUP2 LT PUSH2 0x66C JUMPI PUSH2 0x66B PUSH2 0x935 JUMP JUMPDEST JUMPDEST PUSH1 0x20 MUL PUSH1 0x20 ADD ADD MLOAD LT ISZERO PUSH2 0x734 JUMPI PUSH20 0x812666209B90344EC8E528375298AB9045C2BD08 PUSH20 0xFFFFFFFFFFFFFFFFFFFFFFFFFFFFFFFFFFFFFFFF AND PUSH4 0xA9059CBB CALLER DUP4 PUSH1 0x0 DUP2 MLOAD DUP2 LT PUSH2 0x6BF JUMPI PUSH2 0x6BE PUSH2 0x935 JUMP JUMPDEST JUMPDEST PUSH1 0x20 MUL PUSH1 0x20 ADD ADD MLOAD DUP7 PUSH2 0x6D2 SWAP2 SWAP1 PUSH2 0xCD2 JUMP JUMPDEST PUSH1 0x40 MLOAD DUP4 PUSH4 0xFFFFFFFF AND PUSH1 0xE0 SHL DUP2 MSTORE PUSH1 0x4 ADD PUSH2 0x6EF SWAP3 SWAP2 SWAP1 PUSH2 0x8DD JUMP JUMPDEST PUSH1 0x20 PUSH1 0x40 MLOAD DUP1 DUP4 SUB DUP2 PUSH1 0x0 DUP8 GAS CALL ISZERO DUP1 ISZERO PUSH2 0x70E JUMPI RETURNDATASIZE PUSH1 0x0 DUP1 RETURNDATACOPY RETURNDATASIZE PUSH1 0x0 REVERT JUMPDEST POP POP POP POP PUSH1 0x40 MLOAD RETURNDATASIZE PUSH1 0x1F NOT PUSH1 0x1F DUP3 ADD AND DUP3 ADD DUP1 PUSH1 0x40 MSTORE POP DUP2 ADD SWAP1 PUSH2 0x732 SWAP2 SWAP1 PUSH2 0x8B0 JUMP JUMPDEST POP JUMPDEST POP POP POP POP JUMP JUMPDEST PUSH1 0x0 PUSH1 0x40 MLOAD SWAP1 POP SWAP1 JUMP JUMPDEST PUSH1 0x0 DUP1 REVERT JUMPDEST PUSH1 0x0 DUP1 REVERT JUMPDEST PUSH1 0x0 DUP2 SWAP1 POP SWAP2 SWAP1 POP JUMP JUMPDEST PUSH2 0x761 DUP2 PUSH2 0x74E JUMP JUMPDEST DUP2 EQ PUSH2 0x76C JUMPI PUSH1 0x0 DUP1 REVERT JUMPDEST POP JUMP JUMPDEST PUSH1 0x0 DUP2 CALLDATALOAD SWAP1 POP PUSH2 0x77E DUP2 PUSH2 0x758 JUMP JUMPDEST SWAP3 SWAP2 POP POP JUMP JUMPDEST PUSH1 0x0 PUSH1 0x20 DUP3 DUP5 SUB SLT ISZERO PUSH2 0x79A JUMPI PUSH2 0x799 PUSH2 0x744 JUMP JUMPDEST JUMPDEST PUSH1 0x0 PUSH2 0x7A8 DUP5 DUP3 DUP6 ADD PUSH2 0x76F JUMP JUMPDEST SWAP2 POP POP SWAP3 SWAP2 POP POP JUMP JUMPDEST PUSH1 0x0 DUP1 PUSH1 0x40 DUP4 DUP6 SUB SLT ISZERO PUSH2 0x7C8 JUMPI PUSH2 0x7C7 PUSH2 0x744 JUMP JUMPDEST JUMPDEST PUSH1 0x0 PUSH2 0x7D6 DUP6 DUP3 DUP7 ADD PUSH2 0x76F JUMP JUMPDEST SWAP3 POP POP PUSH1 0x20 PUSH2 0x7E7 DUP6 DUP3 DUP7 ADD PUSH2 0x76F JUMP JUMPDEST SWAP2 POP POP SWAP3 POP SWAP3 SWAP1 POP JUMP JUMPDEST PUSH1 0x0 PUSH20 0xFFFFFFFFFFFFFFFFFFFFFFFFFFFFFFFFFFFFFFFF DUP3 AND SWAP1 POP SWAP2 SWAP1 POP JUMP JUMPDEST PUSH1 0x0 PUSH2 0x81C DUP3 PUSH2 0x7F1 JUMP JUMPDEST SWAP1 POP SWAP2 SWAP1 POP JUMP JUMPDEST PUSH2 0x82C DUP2 PUSH2 0x811 JUMP JUMPDEST DUP3 MSTORE POP POP JUMP JUMPDEST PUSH2 0x83B DUP2 PUSH2 0x74E JUMP JUMPDEST DUP3 MSTORE POP POP JUMP JUMPDEST PUSH1 0x0 PUSH1 0x60 DUP3 ADD SWAP1 POP PUSH2 0x856 PUSH1 0x0 DUP4 ADD DUP7 PUSH2 0x823 JUMP JUMPDEST PUSH2 0x863 PUSH1 0x20 DUP4 ADD DUP6 PUSH2 0x823 JUMP JUMPDEST PUSH2 0x870 PUSH1 0x40 DUP4 ADD DUP5 PUSH2 0x832 JUMP JUMPDEST SWAP5 SWAP4 POP POP POP POP JUMP JUMPDEST PUSH1 0x0 DUP2 ISZERO ISZERO SWAP1 POP SWAP2 SWAP1 POP JUMP JUMPDEST PUSH2 0x88D DUP2 PUSH2 0x878 JUMP JUMPDEST DUP2 EQ PUSH2 0x898 JUMPI PUSH1 0x0 DUP1 REVERT JUMPDEST POP JUMP JUMPDEST PUSH1 0x0 DUP2 MLOAD SWAP1 POP PUSH2 0x8AA DUP2 PUSH2 0x884 JUMP JUMPDEST SWAP3 SWAP2 POP POP JUMP JUMPDEST PUSH1 0x0 PUSH1 0x20 DUP3 DUP5 SUB SLT ISZERO PUSH2 0x8C6 JUMPI PUSH2 0x8C5 PUSH2 0x744 JUMP JUMPDEST JUMPDEST PUSH1 0x0 PUSH2 0x8D4 DUP5 DUP3 DUP6 ADD PUSH2 0x89B JUMP JUMPDEST SWAP2 POP POP SWAP3 SWAP2 POP POP JUMP JUMPDEST PUSH1 0x0 PUSH1 0x40 DUP3 ADD SWAP1 POP PUSH2 0x8F2 PUSH1 0x0 DUP4 ADD DUP6 PUSH2 0x823 JUMP JUMPDEST PUSH2 0x8FF PUSH1 0x20 DUP4 ADD DUP5 PUSH2 0x832 JUMP JUMPDEST SWAP4 SWAP3 POP POP POP JUMP JUMPDEST PUSH32 0x4E487B7100000000000000000000000000000000000000000000000000000000 PUSH1 0x0 MSTORE PUSH1 0x41 PUSH1 0x4 MSTORE PUSH1 0x24 PUSH1 0x0 REVERT JUMPDEST PUSH32 0x4E487B7100000000000000000000000000000000000000000000000000000000 PUSH1 0x0 MSTORE PUSH1 0x32 PUSH1 0x4 MSTORE PUSH1 0x24 PUSH1 0x0 REVERT JUMPDEST PUSH1 0x0 DUP2 SWAP1 POP SWAP2 SWAP1 POP JUMP JUMPDEST PUSH1 0x0 DUP2 SWAP1 POP SWAP2 SWAP1 POP JUMP JUMPDEST PUSH1 0x0 PUSH2 0x993 PUSH2 0x98E PUSH2 0x989 DUP5 PUSH2 0x964 JUMP JUMPDEST PUSH2 0x96E JUMP JUMPDEST PUSH2 0x74E JUMP JUMPDEST SWAP1 POP SWAP2 SWAP1 POP JUMP JUMPDEST PUSH2 0x9A3 DUP2 PUSH2 0x978 JUMP JUMPDEST DUP3 MSTORE POP POP JUMP JUMPDEST PUSH1 0x0 DUP2 MLOAD SWAP1 POP SWAP2 SWAP1 POP JUMP JUMPDEST PUSH1 0x0 DUP3 DUP3 MSTORE PUSH1 0x20 DUP3 ADD SWAP1 POP SWAP3 SWAP2 POP POP JUMP JUMPDEST PUSH1 0x0 DUP2 SWAP1 POP PUSH1 0x20 DUP3 ADD SWAP1 POP SWAP2 SWAP1 POP JUMP JUMPDEST PUSH2 0x9DE DUP2 PUSH2 0x811 JUMP JUMPDEST DUP3 MSTORE POP POP JUMP JUMPDEST PUSH1 0x0 PUSH2 0x9F0 DUP4 DUP4 PUSH2 0x9D5 JUMP JUMPDEST PUSH1 0x20 DUP4 ADD SWAP1 POP SWAP3 SWAP2 POP POP JUMP JUMPDEST PUSH1 0x0 PUSH1 0x20 DUP3 ADD SWAP1 POP SWAP2 SWAP1 POP JUMP JUMPDEST PUSH1 0x0 PUSH2 0xA14 DUP3 PUSH2 0x9A9 JUMP JUMPDEST PUSH2 0xA1E DUP2 DUP6 PUSH2 0x9B4 JUMP JUMPDEST SWAP4 POP PUSH2 0xA29 DUP4 PUSH2 0x9C5 JUMP JUMPDEST DUP1 PUSH1 0x0 JUMPDEST DUP4 DUP2 LT ISZERO PUSH2 0xA5A JUMPI DUP2 MLOAD PUSH2 0xA41 DUP9 DUP3 PUSH2 0x9E4 JUMP JUMPDEST SWAP8 POP PUSH2 0xA4C DUP4 PUSH2 0x9FC JUMP JUMPDEST SWAP3 POP POP PUSH1 0x1 DUP2 ADD SWAP1 POP PUSH2 0xA2D JUMP JUMPDEST POP DUP6 SWAP4 POP POP POP POP SWAP3 SWAP2 POP POP JUMP JUMPDEST PUSH1 0x0 PUSH1 0xA0 DUP3 ADD SWAP1 POP PUSH2 0xA7C PUSH1 0x0 DUP4 ADD DUP9 PUSH2 0x832 JUMP JUMPDEST PUSH2 0xA89 PUSH1 0x20 DUP4 ADD DUP8 PUSH2 0x99A JUMP JUMPDEST DUP2 DUP2 SUB PUSH1 0x40 DUP4 ADD MSTORE PUSH2 0xA9B DUP2 DUP7 PUSH2 0xA09 JUMP JUMPDEST SWAP1 POP PUSH2 0xAAA PUSH1 0x60 DUP4 ADD DUP6 PUSH2 0x823 JUMP JUMPDEST PUSH2 0xAB7 PUSH1 0x80 DUP4 ADD DUP5 PUSH2 0x832 JUMP JUMPDEST SWAP7 SWAP6 POP POP POP POP POP POP JUMP JUMPDEST PUSH1 0x0 DUP1 REVERT JUMPDEST PUSH1 0x0 PUSH1 0x1F NOT PUSH1 0x1F DUP4 ADD AND SWAP1 POP SWAP2 SWAP1 POP JUMP JUMPDEST PUSH2 0xAE0 DUP3 PUSH2 0xAC6 JUMP JUMPDEST DUP2 ADD DUP2 DUP2 LT PUSH8 0xFFFFFFFFFFFFFFFF DUP3 GT OR ISZERO PUSH2 0xAFF JUMPI PUSH2 0xAFE PUSH2 0x906 JUMP JUMPDEST JUMPDEST DUP1 PUSH1 0x40 MSTORE POP POP POP JUMP JUMPDEST PUSH1 0x0 PUSH2 0xB12 PUSH2 0x73A JUMP JUMPDEST SWAP1 POP PUSH2 0xB1E DUP3 DUP3 PUSH2 0xAD7 JUMP JUMPDEST SWAP2 SWAP1 POP JUMP JUMPDEST PUSH1 0x0 PUSH8 0xFFFFFFFFFFFFFFFF DUP3 GT ISZERO PUSH2 0xB3E JUMPI PUSH2 0xB3D PUSH2 0x906 JUMP JUMPDEST JUMPDEST PUSH1 0x20 DUP3 MUL SWAP1 POP PUSH1 0x20 DUP2 ADD SWAP1 POP SWAP2 SWAP1 POP JUMP JUMPDEST PUSH1 0x0 DUP1 REVERT JUMPDEST PUSH1 0x0 DUP2 MLOAD SWAP1 POP PUSH2 0xB63 DUP2 PUSH2 0x758 JUMP JUMPDEST SWAP3 SWAP2 POP POP JUMP JUMPDEST PUSH1 0x0 PUSH2 0xB7C PUSH2 0xB77 DUP5 PUSH2 0xB23 JUMP JUMPDEST PUSH2 0xB08 JUMP JUMPDEST SWAP1 POP DUP1 DUP4 DUP3 MSTORE PUSH1 0x20 DUP3 ADD SWAP1 POP PUSH1 0x20 DUP5 MUL DUP4 ADD DUP6 DUP2 GT ISZERO PUSH2 0xB9F JUMPI PUSH2 0xB9E PUSH2 0xB4F JUMP JUMPDEST JUMPDEST DUP4 JUMPDEST DUP2 DUP2 LT ISZERO PUSH2 0xBC8 JUMPI DUP1 PUSH2 0xBB4 DUP9 DUP3 PUSH2 0xB54 JUMP JUMPDEST DUP5 MSTORE PUSH1 0x20 DUP5 ADD SWAP4 POP POP PUSH1 0x20 DUP2 ADD SWAP1 POP PUSH2 0xBA1 JUMP JUMPDEST POP POP POP SWAP4 SWAP3 POP POP POP JUMP JUMPDEST PUSH1 0x0 DUP3 PUSH1 0x1F DUP4 ADD SLT PUSH2 0xBE7 JUMPI PUSH2 0xBE6 PUSH2 0xAC1 JUMP JUMPDEST JUMPDEST DUP2 MLOAD PUSH2 0xBF7 DUP5 DUP3 PUSH1 0x20 DUP7 ADD PUSH2 0xB69 JUMP JUMPDEST SWAP2 POP POP SWAP3 SWAP2 POP POP JUMP JUMPDEST PUSH1 0x0 PUSH1 0x20 DUP3 DUP5 SUB SLT ISZERO PUSH2 0xC16 JUMPI PUSH2 0xC15 PUSH2 0x744 JUMP JUMPDEST JUMPDEST PUSH1 0x0 DUP3 ADD MLOAD PUSH8 0xFFFFFFFFFFFFFFFF DUP2 GT ISZERO PUSH2 0xC34 JUMPI PUSH2 0xC33 PUSH2 0x749 JUMP JUMPDEST JUMPDEST PUSH2 0xC40 DUP5 DUP3 DUP6 ADD PUSH2 0xBD2 JUMP JUMPDEST SWAP2 POP POP SWAP3 SWAP2 POP POP JUMP JUMPDEST PUSH1 0x0 PUSH1 0xA0 DUP3 ADD SWAP1 POP PUSH2 0xC5E PUSH1 0x0 DUP4 ADD DUP9 PUSH2 0x832 JUMP JUMPDEST PUSH2 0xC6B PUSH1 0x20 DUP4 ADD DUP8 PUSH2 0x832 JUMP JUMPDEST DUP2 DUP2 SUB PUSH1 0x40 DUP4 ADD MSTORE PUSH2 0xC7D DUP2 DUP7 PUSH2 0xA09 JUMP JUMPDEST SWAP1 POP PUSH2 0xC8C PUSH1 0x60 DUP4 ADD DUP6 PUSH2 0x823 JUMP JUMPDEST PUSH2 0xC99 PUSH1 0x80 DUP4 ADD DUP5 PUSH2 0x832 JUMP JUMPDEST SWAP7 SWAP6 POP POP POP POP POP POP JUMP JUMPDEST PUSH32 0x4E487B7100000000000000000000000000000000000000000000000000000000 PUSH1 0x0 MSTORE PUSH1 0x11 PUSH1 0x4 MSTORE PUSH1 0x24 PUSH1 0x0 REVERT JUMPDEST PUSH1 0x0 PUSH2 0xCDD DUP3 PUSH2 0x74E JUMP JUMPDEST SWAP2 POP PUSH2 0xCE8 DUP4 PUSH2 0x74E JUMP JUMPDEST SWAP3 POP DUP3 DUP3 SUB SWAP1 POP DUP2 DUP2 GT ISZERO PUSH2 0xD00 JUMPI PUSH2 0xCFF PUSH2 0xCA3 JUMP JUMPDEST JUMPDEST SWAP3 SWAP2 POP POP JUMP INVALID LOG2 PUSH5 0x6970667358 0x22 SLT KECCAK256 DUP11 SWAP15 0xBB 0x25 MSTORE8 PUSH25 0x69EEA25177D67C5F948372B1BED83AA05792AB02EF196D639C ADDRESS PUSH5 0x736F6C6343 STOP ADDMOD GT STOP CALLER "},"methodIdentifiers":{"swapSingleExactAmountIn(uint256)":"a8264c9f","swapSingleExactAmountOut(uint256,uint256)":"b26a1bdf"}}}}}