{
  "_format": "hh-sol-artifact-1",
  "contractName": "SimpleStorage",
  "sourceName": "contracts/simple_storage.sol",
  "abi": [
    {
      "inputs": [],
      "name": "get",
      "outputs": [
        {
          "internalType": "string",
          "name": "",
          "type": "string"
        }
      ],
      "stateMutability": "view",
      "type": "function"
    },
    {
      "inputs": [
        {
          "internalType": "string",
          "name": "_text",
          "type": "string"
        }
      ],
      "name": "set",
      "outputs": [],
      "stateMutability": "nonpayable",
      "type": "function"
    },
    {
      "inputs": [],
      "name": "text",
      "outputs": [
        {
          "internalType": "string",
          "name": "",
          "type": "string"
        }
      ],
      "stateMutability": "view",
      "type": "function"
    }
  ],
  "bytecode": "0x608060405234801561001057600080fd5b50610698806100206000396000f3fe608060405234801561001057600080fd5b50600436106100415760003560e01c80631f1bd692146100465780634ed3885e146100645780636d4ce63c14610080575b600080fd5b61004e61009e565b60405161005b9190610264565b60405180910390f35b61007e600480360381019061007991906102f5565b61012c565b005b610088610142565b6040516100959190610264565b60405180910390f35b600080546100ab90610371565b80601f01602080910402602001604051908101604052809291908181526020018280546100d790610371565b80156101245780601f106100f957610100808354040283529160200191610124565b820191906000526020600020905b81548152906001019060200180831161010757829003601f168201915b505050505081565b81816000918261013d929190610592565b505050565b60606000805461015190610371565b80601f016020809104026020016040519081016040528092919081815260200182805461017d90610371565b80156101ca5780601f1061019f576101008083540402835291602001916101ca565b820191906000526020600020905b8154815290600101906020018083116101ad57829003601f168201915b5050505050905090565b600081519050919050565b600082825260208201905092915050565b60005b8381101561020e5780820151818401526020810190506101f3565b60008484015250505050565b6000601f19601f8301169050919050565b6000610236826101d4565b61024081856101df565b93506102508185602086016101f0565b6102598161021a565b840191505092915050565b6000602082019050818103600083015261027e818461022b565b905092915050565b600080fd5b600080fd5b600080fd5b600080fd5b600080fd5b60008083601f8401126102b5576102b4610290565b5b8235905067ffffffffffffffff8111156102d2576102d1610295565b5b6020830191508360018202830111156102ee576102ed61029a565b5b9250929050565b6000806020838503121561030c5761030b610286565b5b600083013567ffffffffffffffff81111561032a5761032961028b565b5b6103368582860161029f565b92509250509250929050565b7f4e487b7100000000000000000000000000000000000000000000000000000000600052602260045260246000fd5b6000600282049050600182168061038957607f821691505b60208210810361039c5761039b610342565b5b50919050565b600082905092915050565b7f4e487b7100000000000000000000000000000000000000000000000000000000600052604160045260246000fd5b60008190508160005260206000209050919050565b60006020601f8301049050919050565b600082821b905092915050565b60006008830261043e7fffffffffffffffffffffffffffffffffffffffffffffffffffffffffffffffff82610401565b6104488683610401565b95508019841693508086168417925050509392505050565b6000819050919050565b6000819050919050565b600061048f61048a61048584610460565b61046a565b610460565b9050919050565b6000819050919050565b6104a983610474565b6104bd6104b582610496565b84845461040e565b825550505050565b600090565b6104d26104c5565b6104dd8184846104a0565b505050565b5b81811015610501576104f66000826104ca565b6001810190506104e3565b5050565b601f82111561054657610517816103dc565b610520846103f1565b8101602085101561052f578190505b61054361053b856103f1565b8301826104e2565b50505b505050565b600082821c905092915050565b60006105696000198460080261054b565b1980831691505092915050565b60006105828383610558565b9150826002028217905092915050565b61059c83836103a2565b67ffffffffffffffff8111156105b5576105b46103ad565b5b6105bf8254610371565b6105ca828285610505565b6000601f8311600181146105f957600084156105e7578287013590505b6105f18582610576565b865550610659565b601f198416610607866103dc565b60005b8281101561062f5784890135825560018201915060208501945060208101905061060a565b8683101561064c5784890135610648601f891682610558565b8355505b6001600288020188555050505b5050505050505056fea2646970667358221220163e619c01f94e5a106ef44442ff6c4827da4c72b2df161067e92b1a6a1c30ec64736f6c63430008110033",
  "linkReferences": {},
  "deployedLinkReferences": {}
}