{
  "_format": "hh-sol-artifact-1",
  "contractName": "Call",
  "sourceName": "contracts/call.sol",
  "abi": [
    {
      "inputs": [
        {
          "internalType": "address",
          "name": "_addr",
          "type": "address"
        }
      ],
      "name": "callBar",
      "outputs": [],
      "stateMutability": "nonpayable",
      "type": "function"
    },
    {
      "inputs": [
        {
          "internalType": "address",
          "name": "_addr",
          "type": "address"
        }
      ],
      "name": "callDoesNotExist",
      "outputs": [],
      "stateMutability": "nonpayable",
      "type": "function"
    },
    {
      "inputs": [
        {
          "internalType": "address payable",
          "name": "_addr",
          "type": "address"
        }
      ],
      "name": "callFoo",
      "outputs": [
        {
          "internalType": "bytes",
          "name": "",
          "type": "bytes"
        }
      ],
      "stateMutability": "payable",
      "type": "function"
    }
  ],
  "bytecode": "0x608060405234801561001057600080fd5b50610883806100206000396000f3fe6080604052600436106100345760003560e01c80635072578114610039578063b0feeff614610062578063edcbe76c1461008b575b600080fd5b34801561004557600080fd5b50610060600480360381019061005b91906104e8565b6100bb565b005b34801561006e57600080fd5b50610089600480360381019061008491906104e8565b610200565b005b6100a560048036038101906100a09190610553565b610336565b6040516100b29190610610565b60405180910390f35b6000808273ffffffffffffffffffffffffffffffffffffffff16600560006040516024016100ea92919061069f565b6040516020818303038152906040527f4b109a0d000000000000000000000000000000000000000000000000000000007bffffffffffffffffffffffffffffffffffffffffffffffffffffffff19166020820180517bffffffffffffffffffffffffffffffffffffffffffffffffffffffff83818316178352505050506040516101749190610704565b6000604051808303816000865af19150503d80600081146101b1576040519150601f19603f3d011682016040523d82523d6000602084013e6101b6565b606091505b5091509150816101fb576040517f08c379a00000000000000000000000000000000000000000000000000000000081526004016101f290610778565b60405180910390fd5b505050565b6000808273ffffffffffffffffffffffffffffffffffffffff166040516024016040516020818303038152906040527f1dcc85ae000000000000000000000000000000000000000000000000000000007bffffffffffffffffffffffffffffffffffffffffffffffffffffffff19166020820180517bffffffffffffffffffffffffffffffffffffffffffffffffffffffff83818316178352505050506040516102aa9190610704565b6000604051808303816000865af19150503d80600081146102e7576040519150601f19603f3d011682016040523d82523d6000602084013e6102ec565b606091505b509150915081610331576040517f08c379a000000000000000000000000000000000000000000000000000000000815260040161032890610778565b60405180910390fd5b505050565b60606000808373ffffffffffffffffffffffffffffffffffffffff163461138890607b604051602401610369919061081f565b6040516020818303038152906040527f24ccab8f000000000000000000000000000000000000000000000000000000007bffffffffffffffffffffffffffffffffffffffffffffffffffffffff19166020820180517bffffffffffffffffffffffffffffffffffffffffffffffffffffffff83818316178352505050506040516103f39190610704565b600060405180830381858888f193505050503d8060008114610431576040519150601f19603f3d011682016040523d82523d6000602084013e610436565b606091505b50915091508161047b576040517f08c379a000000000000000000000000000000000000000000000000000000000815260040161047290610778565b60405180910390fd5b8092505050919050565b600080fd5b600073ffffffffffffffffffffffffffffffffffffffff82169050919050565b60006104b58261048a565b9050919050565b6104c5816104aa565b81146104d057600080fd5b50565b6000813590506104e2816104bc565b92915050565b6000602082840312156104fe576104fd610485565b5b600061050c848285016104d3565b91505092915050565b60006105208261048a565b9050919050565b61053081610515565b811461053b57600080fd5b50565b60008135905061054d81610527565b92915050565b60006020828403121561056957610568610485565b5b60006105778482850161053e565b91505092915050565b600081519050919050565b600082825260208201905092915050565b60005b838110156105ba57808201518184015260208101905061059f565b60008484015250505050565b6000601f19601f8301169050919050565b60006105e282610580565b6105ec818561058b565b93506105fc81856020860161059c565b610605816105c6565b840191505092915050565b6000602082019050818103600083015261062a81846105d7565b905092915050565b6000819050919050565b600060ff82169050919050565b6000819050919050565b600061066e61066961066484610632565b610649565b61063c565b9050919050565b61067e81610653565b82525050565b60008115159050919050565b61069981610684565b82525050565b60006040820190506106b46000830185610675565b6106c16020830184610690565b9392505050565b600081905092915050565b60006106de82610580565b6106e881856106c8565b93506106f881856020860161059c565b80840191505092915050565b600061071082846106d3565b915081905092915050565b600082825260208201905092915050565b7f7478206661696c65640000000000000000000000000000000000000000000000600082015250565b600061076260098361071b565b915061076d8261072c565b602082019050919050565b6000602082019050818103600083015261079181610755565b9050919050565b7f63616c6c20666f6f000000000000000000000000000000000000000000000000600082015250565b60006107ce60088361071b565b91506107d982610798565b602082019050919050565b6000819050919050565b60006108096108046107ff846107e4565b610649565b61063c565b9050919050565b610819816107ee565b82525050565b60006040820190508181036000830152610838816107c1565b90506108476020830184610810565b9291505056fea2646970667358221220fced32825411e7b7d0689ad412768bd561b85a08c425dffea9a619a3fbb83e5764736f6c63430008110033",
  "linkReferences": {},
  "deployedLinkReferences": {}
}