{
  "_format": "hh-sol-artifact-1",
  "contractName": "EnumExamples",
  "sourceName": "contracts/enum.sol",
  "abi": [
    {
      "inputs": [],
      "name": "cancel",
      "outputs": [],
      "stateMutability": "nonpayable",
      "type": "function"
    },
    {
      "inputs": [],
      "name": "get",
      "outputs": [
        {
          "internalType": "enum EnumExamples.Status",
          "name": "",
          "type": "uint8"
        }
      ],
      "stateMutability": "view",
      "type": "function"
    },
    {
      "inputs": [],
      "name": "reset",
      "outputs": [],
      "stateMutability": "nonpayable",
      "type": "function"
    },
    {
      "inputs": [
        {
          "internalType": "enum EnumExamples.Status",
          "name": "_status",
          "type": "uint8"
        }
      ],
      "name": "set",
      "outputs": [],
      "stateMutability": "nonpayable",
      "type": "function"
    },
    {
      "inputs": [],
      "name": "ship",
      "outputs": [],
      "stateMutability": "nonpayable",
      "type": "function"
    },
    {
      "inputs": [],
      "name": "status",
      "outputs": [
        {
          "internalType": "enum EnumExamples.Status",
          "name": "",
          "type": "uint8"
        }
      ],
      "stateMutability": "view",
      "type": "function"
    }
  ],
  "bytecode": "0x608060405234801561001057600080fd5b506102ba806100206000396000f3fe608060405234801561001057600080fd5b50600436106100625760003560e01c8063200d2ed21461006757806324b8ba5f146100855780636d4ce63c146100a1578063b6bef7b3146100bf578063d826f88f146100c9578063ea8a1af0146100d3575b600080fd5b61006f6100dd565b60405161007c9190610212565b60405180910390f35b61009f600480360381019061009a9190610257565b6100ee565b005b6100a961011a565b6040516100b69190610212565b60405180910390f35b6100c7610130565b005b6100d161015c565b005b6100db61016f565b005b60008054906101000a900460ff1681565b806000806101000a81548160ff021916908360058111156101125761011161019b565b5b021790555050565b60008060009054906101000a900460ff16905090565b60026000806101000a81548160ff021916908360058111156101555761015461019b565b5b0217905550565b6000806101000a81549060ff0219169055565b60056000806101000a81548160ff021916908360058111156101945761019361019b565b5b0217905550565b7f4e487b7100000000000000000000000000000000000000000000000000000000600052602160045260246000fd5b600681106101db576101da61019b565b5b50565b60008190506101ec826101ca565b919050565b60006101fc826101de565b9050919050565b61020c816101f1565b82525050565b60006020820190506102276000830184610203565b92915050565b600080fd5b6006811061023f57600080fd5b50565b60008135905061025181610232565b92915050565b60006020828403121561026d5761026c61022d565b5b600061027b84828501610242565b9150509291505056fea2646970667358221220ad3f34a051d9514a09fac57bfeb425b083d0aeabb2dd26074cb25e3142a10e2b64736f6c63430008110033",
  "linkReferences": {},
  "deployedLinkReferences": {}
}