{"contracts/multi_call.sol":{"MultiCall":{"abi":[{"inputs":[{"internalType":"address[]","name":"targets","type":"address[]"},{"internalType":"bytes[]","name":"data","type":"bytes[]"}],"name":"multiCall","outputs":[{"internalType":"bytes[]","name":"","type":"bytes[]"}],"stateMutability":"view","type":"function"}],"evm":{"bytecode":{"linkReferences":{},"object":"608060405234801561001057600080fd5b5061087a806100206000396000f3fe608060405234801561001057600080fd5b506004361061002b5760003560e01c8063da5b4ffd14610030575b600080fd5b61004a6004803603810190610045919061030c565b610060565b60405161005791906104df565b60405180910390f35b606060008383905067ffffffffffffffff81111561008157610080610501565b5b6040519080825280602002602001820160405280156100b457816020015b606081526020019060019003908161009f5790505b5090508383905086869050146100ff576040517f08c379a00000000000000000000000000000000000000000000000000000000081526004016100f6906105b3565b60405180910390fd5b60005b8686905081101561023a57600080888884818110610123576101226105d3565b5b90506020020160208101906101389190610660565b73ffffffffffffffffffffffffffffffffffffffff16878785818110610161576101606105d3565b5b9050602002810190610173919061069c565b60405161018192919061073e565b600060405180830381855afa9150503d80600081146101bc576040519150601f19603f3d011682016040523d82523d6000602084013e6101c1565b606091505b509150915081610206576040517f08c379a00000000000000000000000000000000000000000000000000000000081526004016101fd906107a3565b60405180910390fd5b8084848151811061021a576102196105d3565b5b602002602001018190525050508080610232906107fc565b915050610102565b5080915050949350505050565b600080fd5b600080fd5b600080fd5b600080fd5b600080fd5b60008083601f84011261027657610275610251565b5b8235905067ffffffffffffffff81111561029357610292610256565b5b6020830191508360208202830111156102af576102ae61025b565b5b9250929050565b60008083601f8401126102cc576102cb610251565b5b8235905067ffffffffffffffff8111156102e9576102e8610256565b5b6020830191508360208202830111156103055761030461025b565b5b9250929050565b6000806000806040858703121561032657610325610247565b5b600085013567ffffffffffffffff8111156103445761034361024c565b5b61035087828801610260565b9450945050602085013567ffffffffffffffff8111156103735761037261024c565b5b61037f878288016102b6565b925092505092959194509250565b600081519050919050565b600082825260208201905092915050565b6000819050602082019050919050565b600081519050919050565b600082825260208201905092915050565b60005b838110156103f35780820151818401526020810190506103d8565b60008484015250505050565b6000601f19601f8301169050919050565b600061041b826103b9565b61042581856103c4565b93506104358185602086016103d5565b61043e816103ff565b840191505092915050565b60006104558383610410565b905092915050565b6000602082019050919050565b60006104758261038d565b61047f8185610398565b935083602082028501610491856103a9565b8060005b858110156104cd57848403895281516104ae8582610449565b94506104b98361045d565b925060208a01995050600181019050610495565b50829750879550505050505092915050565b600060208201905081810360008301526104f9818461046a565b905092915050565b7f4e487b7100000000000000000000000000000000000000000000000000000000600052604160045260246000fd5b600082825260208201905092915050565b7f54617267657420616e642064617461206c656e67746873206e6f74206571756160008201527f6c00000000000000000000000000000000000000000000000000000000000000602082015250565b600061059d602183610530565b91506105a882610541565b604082019050919050565b600060208201905081810360008301526105cc81610590565b9050919050565b7f4e487b7100000000000000000000000000000000000000000000000000000000600052603260045260246000fd5b600073ffffffffffffffffffffffffffffffffffffffff82169050919050565b600061062d82610602565b9050919050565b61063d81610622565b811461064857600080fd5b50565b60008135905061065a81610634565b92915050565b60006020828403121561067657610675610247565b5b60006106848482850161064b565b91505092915050565b600080fd5b600080fd5b600080fd5b600080833560016020038436030381126106b9576106b861068d565b5b80840192508235915067ffffffffffffffff8211156106db576106da610692565b5b6020830192506001820236038313156106f7576106f6610697565b5b509250929050565b600081905092915050565b82818337600083830152505050565b600061072583856106ff565b935061073283858461070a565b82840190509392505050565b600061074b828486610719565b91508190509392505050565b7f63616c6c206661696c6564000000000000000000000000000000000000000000600082015250565b600061078d600b83610530565b915061079882610757565b602082019050919050565b600060208201905081810360008301526107bc81610780565b9050919050565b7f4e487b7100000000000000000000000000000000000000000000000000000000600052601160045260246000fd5b6000819050919050565b6000610807826107f2565b91507fffffffffffffffffffffffffffffffffffffffffffffffffffffffffffffffff8203610839576108386107c3565b5b60018201905091905056fea26469706673582212203adb2b3c4df724efa983af441eaef6c65dc1ef17a8c2707da621aa6b66624d8a64736f6c63430008110033","opcodes":"PUSH1 0x80 PUSH1 0x40 MSTORE CALLVALUE DUP1 ISZERO PUSH2 0x10 JUMPI PUSH1 0x0 DUP1 REVERT JUMPDEST POP PUSH2 0x87A DUP1 PUSH2 0x20 PUSH1 0x0 CODECOPY PUSH1 0x0 RETURN INVALID PUSH1 0x80 PUSH1 0x40 MSTORE CALLVALUE DUP1 ISZERO PUSH2 0x10 JUMPI PUSH1 0x0 DUP1 REVERT JUMPDEST POP PUSH1 0x4 CALLDATASIZE LT PUSH2 0x2B JUMPI PUSH1 0x0 CALLDATALOAD PUSH1 0xE0 SHR DUP1 PUSH4 0xDA5B4FFD EQ PUSH2 0x30 JUMPI JUMPDEST PUSH1 0x0 DUP1 REVERT JUMPDEST PUSH2 0x4A PUSH1 0x4 DUP1 CALLDATASIZE SUB DUP2 ADD SWAP1 PUSH2 0x45 SWAP2 SWAP1 PUSH2 0x30C JUMP JUMPDEST PUSH2 0x60 JUMP JUMPDEST PUSH1 0x40 MLOAD PUSH2 0x57 SWAP2 SWAP1 PUSH2 0x4DF JUMP JUMPDEST PUSH1 0x40 MLOAD DUP1 SWAP2 SUB SWAP1 RETURN JUMPDEST PUSH1 0x60 PUSH1 0x0 DUP4 DUP4 SWAP1 POP PUSH8 0xFFFFFFFFFFFFFFFF DUP2 GT ISZERO PUSH2 0x81 JUMPI PUSH2 0x80 PUSH2 0x501 JUMP JUMPDEST JUMPDEST PUSH1 0x40 MLOAD SWAP1 DUP1 DUP3 MSTORE DUP1 PUSH1 0x20 MUL PUSH1 0x20 ADD DUP3 ADD PUSH1 0x40 MSTORE DUP1 ISZERO PUSH2 0xB4 JUMPI DUP2 PUSH1 0x20 ADD JUMPDEST PUSH1 0x60 DUP2 MSTORE PUSH1 0x20 ADD SWAP1 PUSH1 0x1 SWAP1 SUB SWAP1 DUP2 PUSH2 0x9F JUMPI SWAP1 POP JUMPDEST POP SWAP1 POP DUP4 DUP4 SWAP1 POP DUP7 DUP7 SWAP1 POP EQ PUSH2 0xFF JUMPI PUSH1 0x40 MLOAD PUSH32 0x8C379A000000000000000000000000000000000000000000000000000000000 DUP2 MSTORE PUSH1 0x4 ADD PUSH2 0xF6 SWAP1 PUSH2 0x5B3 JUMP JUMPDEST PUSH1 0x40 MLOAD DUP1 SWAP2 SUB SWAP1 REVERT JUMPDEST PUSH1 0x0 JUMPDEST DUP7 DUP7 SWAP1 POP DUP2 LT ISZERO PUSH2 0x23A JUMPI PUSH1 0x0 DUP1 DUP9 DUP9 DUP5 DUP2 DUP2 LT PUSH2 0x123 JUMPI PUSH2 0x122 PUSH2 0x5D3 JUMP JUMPDEST JUMPDEST SWAP1 POP PUSH1 0x20 MUL ADD PUSH1 0x20 DUP2 ADD SWAP1 PUSH2 0x138 SWAP2 SWAP1 PUSH2 0x660 JUMP JUMPDEST PUSH20 0xFFFFFFFFFFFFFFFFFFFFFFFFFFFFFFFFFFFFFFFF AND DUP8 DUP8 DUP6 DUP2 DUP2 LT PUSH2 0x161 JUMPI PUSH2 0x160 PUSH2 0x5D3 JUMP JUMPDEST JUMPDEST SWAP1 POP PUSH1 0x20 MUL DUP2 ADD SWAP1 PUSH2 0x173 SWAP2 SWAP1 PUSH2 0x69C JUMP JUMPDEST PUSH1 0x40 MLOAD PUSH2 0x181 SWAP3 SWAP2 SWAP1 PUSH2 0x73E JUMP JUMPDEST PUSH1 0x0 PUSH1 0x40 MLOAD DUP1 DUP4 SUB DUP2 DUP6 GAS STATICCALL SWAP2 POP POP RETURNDATASIZE DUP1 PUSH1 0x0 DUP2 EQ PUSH2 0x1BC JUMPI PUSH1 0x40 MLOAD SWAP2 POP PUSH1 0x1F NOT PUSH1 0x3F RETURNDATASIZE ADD AND DUP3 ADD PUSH1 0x40 MSTORE RETURNDATASIZE DUP3 MSTORE RETURNDATASIZE PUSH1 0x0 PUSH1 0x20 DUP5 ADD RETURNDATACOPY PUSH2 0x1C1 JUMP JUMPDEST PUSH1 0x60 SWAP2 POP JUMPDEST POP SWAP2 POP SWAP2 POP DUP2 PUSH2 0x206 JUMPI PUSH1 0x40 MLOAD PUSH32 0x8C379A000000000000000000000000000000000000000000000000000000000 DUP2 MSTORE PUSH1 0x4 ADD PUSH2 0x1FD SWAP1 PUSH2 0x7A3 JUMP JUMPDEST PUSH1 0x40 MLOAD DUP1 SWAP2 SUB SWAP1 REVERT JUMPDEST DUP1 DUP5 DUP5 DUP2 MLOAD DUP2 LT PUSH2 0x21A JUMPI PUSH2 0x219 PUSH2 0x5D3 JUMP JUMPDEST JUMPDEST PUSH1 0x20 MUL PUSH1 0x20 ADD ADD DUP2 SWAP1 MSTORE POP POP POP DUP1 DUP1 PUSH2 0x232 SWAP1 PUSH2 0x7FC JUMP JUMPDEST SWAP2 POP POP PUSH2 0x102 JUMP JUMPDEST POP DUP1 SWAP2 POP POP SWAP5 SWAP4 POP POP POP POP JUMP JUMPDEST PUSH1 0x0 DUP1 REVERT JUMPDEST PUSH1 0x0 DUP1 REVERT JUMPDEST PUSH1 0x0 DUP1 REVERT JUMPDEST PUSH1 0x0 DUP1 REVERT JUMPDEST PUSH1 0x0 DUP1 REVERT JUMPDEST PUSH1 0x0 DUP1 DUP4 PUSH1 0x1F DUP5 ADD SLT PUSH2 0x276 JUMPI PUSH2 0x275 PUSH2 0x251 JUMP JUMPDEST JUMPDEST DUP3 CALLDATALOAD SWAP1 POP PUSH8 0xFFFFFFFFFFFFFFFF DUP2 GT ISZERO PUSH2 0x293 JUMPI PUSH2 0x292 PUSH2 0x256 JUMP JUMPDEST JUMPDEST PUSH1 0x20 DUP4 ADD SWAP2 POP DUP4 PUSH1 0x20 DUP3 MUL DUP4 ADD GT ISZERO PUSH2 0x2AF JUMPI PUSH2 0x2AE PUSH2 0x25B JUMP JUMPDEST JUMPDEST SWAP3 POP SWAP3 SWAP1 POP JUMP JUMPDEST PUSH1 0x0 DUP1 DUP4 PUSH1 0x1F DUP5 ADD SLT PUSH2 0x2CC JUMPI PUSH2 0x2CB PUSH2 0x251 JUMP JUMPDEST JUMPDEST DUP3 CALLDATALOAD SWAP1 POP PUSH8 0xFFFFFFFFFFFFFFFF DUP2 GT ISZERO PUSH2 0x2E9 JUMPI PUSH2 0x2E8 PUSH2 0x256 JUMP JUMPDEST JUMPDEST PUSH1 0x20 DUP4 ADD SWAP2 POP DUP4 PUSH1 0x20 DUP3 MUL DUP4 ADD GT ISZERO PUSH2 0x305 JUMPI PUSH2 0x304 PUSH2 0x25B JUMP JUMPDEST JUMPDEST SWAP3 POP SWAP3 SWAP1 POP JUMP JUMPDEST PUSH1 0x0 DUP1 PUSH1 0x0 DUP1 PUSH1 0x40 DUP6 DUP8 SUB SLT ISZERO PUSH2 0x326 JUMPI PUSH2 0x325 PUSH2 0x247 JUMP JUMPDEST JUMPDEST PUSH1 0x0 DUP6 ADD CALLDATALOAD PUSH8 0xFFFFFFFFFFFFFFFF DUP2 GT ISZERO PUSH2 0x344 JUMPI PUSH2 0x343 PUSH2 0x24C JUMP JUMPDEST JUMPDEST PUSH2 0x350 DUP8 DUP3 DUP9 ADD PUSH2 0x260 JUMP JUMPDEST SWAP5 POP SWAP5 POP POP PUSH1 0x20 DUP6 ADD CALLDATALOAD PUSH8 0xFFFFFFFFFFFFFFFF DUP2 GT ISZERO PUSH2 0x373 JUMPI PUSH2 0x372 PUSH2 0x24C JUMP JUMPDEST JUMPDEST PUSH2 0x37F DUP8 DUP3 DUP9 ADD PUSH2 0x2B6 JUMP JUMPDEST SWAP3 POP SWAP3 POP POP SWAP3 SWAP6 SWAP2 SWAP5 POP SWAP3 POP JUMP JUMPDEST PUSH1 0x0 DUP2 MLOAD SWAP1 POP SWAP2 SWAP1 POP JUMP JUMPDEST PUSH1 0x0 DUP3 DUP3 MSTORE PUSH1 0x20 DUP3 ADD SWAP1 POP SWAP3 SWAP2 POP POP JUMP JUMPDEST PUSH1 0x0 DUP2 SWAP1 POP PUSH1 0x20 DUP3 ADD SWAP1 POP SWAP2 SWAP1 POP JUMP JUMPDEST PUSH1 0x0 DUP2 MLOAD SWAP1 POP SWAP2 SWAP1 POP JUMP JUMPDEST PUSH1 0x0 DUP3 DUP3 MSTORE PUSH1 0x20 DUP3 ADD SWAP1 POP SWAP3 SWAP2 POP POP JUMP JUMPDEST PUSH1 0x0 JUMPDEST DUP4 DUP2 LT ISZERO PUSH2 0x3F3 JUMPI DUP1 DUP3 ADD MLOAD DUP2 DUP5 ADD MSTORE PUSH1 0x20 DUP2 ADD SWAP1 POP PUSH2 0x3D8 JUMP JUMPDEST PUSH1 0x0 DUP5 DUP5 ADD MSTORE POP POP POP POP JUMP JUMPDEST PUSH1 0x0 PUSH1 0x1F NOT PUSH1 0x1F DUP4 ADD AND SWAP1 POP SWAP2 SWAP1 POP JUMP JUMPDEST PUSH1 0x0 PUSH2 0x41B DUP3 PUSH2 0x3B9 JUMP JUMPDEST PUSH2 0x425 DUP2 DUP6 PUSH2 0x3C4 JUMP JUMPDEST SWAP4 POP PUSH2 0x435 DUP2 DUP6 PUSH1 0x20 DUP7 ADD PUSH2 0x3D5 JUMP JUMPDEST PUSH2 0x43E DUP2 PUSH2 0x3FF JUMP JUMPDEST DUP5 ADD SWAP2 POP POP SWAP3 SWAP2 POP POP JUMP JUMPDEST PUSH1 0x0 PUSH2 0x455 DUP4 DUP4 PUSH2 0x410 JUMP JUMPDEST SWAP1 POP SWAP3 SWAP2 POP POP JUMP JUMPDEST PUSH1 0x0 PUSH1 0x20 DUP3 ADD SWAP1 POP SWAP2 SWAP1 POP JUMP JUMPDEST PUSH1 0x0 PUSH2 0x475 DUP3 PUSH2 0x38D JUMP JUMPDEST PUSH2 0x47F DUP2 DUP6 PUSH2 0x398 JUMP JUMPDEST SWAP4 POP DUP4 PUSH1 0x20 DUP3 MUL DUP6 ADD PUSH2 0x491 DUP6 PUSH2 0x3A9 JUMP JUMPDEST DUP1 PUSH1 0x0 JUMPDEST DUP6 DUP2 LT ISZERO PUSH2 0x4CD JUMPI DUP5 DUP5 SUB DUP10 MSTORE DUP2 MLOAD PUSH2 0x4AE DUP6 DUP3 PUSH2 0x449 JUMP JUMPDEST SWAP5 POP PUSH2 0x4B9 DUP4 PUSH2 0x45D JUMP JUMPDEST SWAP3 POP PUSH1 0x20 DUP11 ADD SWAP10 POP POP PUSH1 0x1 DUP2 ADD SWAP1 POP PUSH2 0x495 JUMP JUMPDEST POP DUP3 SWAP8 POP DUP8 SWAP6 POP POP POP POP POP POP SWAP3 SWAP2 POP POP JUMP JUMPDEST PUSH1 0x0 PUSH1 0x20 DUP3 ADD SWAP1 POP DUP2 DUP2 SUB PUSH1 0x0 DUP4 ADD MSTORE PUSH2 0x4F9 DUP2 DUP5 PUSH2 0x46A JUMP JUMPDEST SWAP1 POP SWAP3 SWAP2 POP POP JUMP JUMPDEST PUSH32 0x4E487B7100000000000000000000000000000000000000000000000000000000 PUSH1 0x0 MSTORE PUSH1 0x41 PUSH1 0x4 MSTORE PUSH1 0x24 PUSH1 0x0 REVERT JUMPDEST PUSH1 0x0 DUP3 DUP3 MSTORE PUSH1 0x20 DUP3 ADD SWAP1 POP SWAP3 SWAP2 POP POP JUMP JUMPDEST PUSH32 0x54617267657420616E642064617461206C656E67746873206E6F742065717561 PUSH1 0x0 DUP3 ADD MSTORE PUSH32 0x6C00000000000000000000000000000000000000000000000000000000000000 PUSH1 0x20 DUP3 ADD MSTORE POP JUMP JUMPDEST PUSH1 0x0 PUSH2 0x59D PUSH1 0x21 DUP4 PUSH2 0x530 JUMP JUMPDEST SWAP2 POP PUSH2 0x5A8 DUP3 PUSH2 0x541 JUMP JUMPDEST PUSH1 0x40 DUP3 ADD SWAP1 POP SWAP2 SWAP1 POP JUMP JUMPDEST PUSH1 0x0 PUSH1 0x20 DUP3 ADD SWAP1 POP DUP2 DUP2 SUB PUSH1 0x0 DUP4 ADD MSTORE PUSH2 0x5CC DUP2 PUSH2 0x590 JUMP JUMPDEST SWAP1 POP SWAP2 SWAP1 POP JUMP JUMPDEST PUSH32 0x4E487B7100000000000000000000000000000000000000000000000000000000 PUSH1 0x0 MSTORE PUSH1 0x32 PUSH1 0x4 MSTORE PUSH1 0x24 PUSH1 0x0 REVERT JUMPDEST PUSH1 0x0 PUSH20 0xFFFFFFFFFFFFFFFFFFFFFFFFFFFFFFFFFFFFFFFF DUP3 AND SWAP1 POP SWAP2 SWAP1 POP JUMP JUMPDEST PUSH1 0x0 PUSH2 0x62D DUP3 PUSH2 0x602 JUMP JUMPDEST SWAP1 POP SWAP2 SWAP1 POP JUMP JUMPDEST PUSH2 0x63D DUP2 PUSH2 0x622 JUMP JUMPDEST DUP2 EQ PUSH2 0x648 JUMPI PUSH1 0x0 DUP1 REVERT JUMPDEST POP JUMP JUMPDEST PUSH1 0x0 DUP2 CALLDATALOAD SWAP1 POP PUSH2 0x65A DUP2 PUSH2 0x634 JUMP JUMPDEST SWAP3 SWAP2 POP POP JUMP JUMPDEST PUSH1 0x0 PUSH1 0x20 DUP3 DUP5 SUB SLT ISZERO PUSH2 0x676 JUMPI PUSH2 0x675 PUSH2 0x247 JUMP JUMPDEST JUMPDEST PUSH1 0x0 PUSH2 0x684 DUP5 DUP3 DUP6 ADD PUSH2 0x64B JUMP JUMPDEST SWAP2 POP POP SWAP3 SWAP2 POP POP JUMP JUMPDEST PUSH1 0x0 DUP1 REVERT JUMPDEST PUSH1 0x0 DUP1 REVERT JUMPDEST PUSH1 0x0 DUP1 REVERT JUMPDEST PUSH1 0x0 DUP1 DUP4 CALLDATALOAD PUSH1 0x1 PUSH1 0x20 SUB DUP5 CALLDATASIZE SUB SUB DUP2 SLT PUSH2 0x6B9 JUMPI PUSH2 0x6B8 PUSH2 0x68D JUMP JUMPDEST JUMPDEST DUP1 DUP5 ADD SWAP3 POP DUP3 CALLDATALOAD SWAP2 POP PUSH8 0xFFFFFFFFFFFFFFFF DUP3 GT ISZERO PUSH2 0x6DB JUMPI PUSH2 0x6DA PUSH2 0x692 JUMP JUMPDEST JUMPDEST PUSH1 0x20 DUP4 ADD SWAP3 POP PUSH1 0x1 DUP3 MUL CALLDATASIZE SUB DUP4 SGT ISZERO PUSH2 0x6F7 JUMPI PUSH2 0x6F6 PUSH2 0x697 JUMP JUMPDEST JUMPDEST POP SWAP3 POP SWAP3 SWAP1 POP JUMP JUMPDEST PUSH1 0x0 DUP2 SWAP1 POP SWAP3 SWAP2 POP POP JUMP JUMPDEST DUP3 DUP2 DUP4 CALLDATACOPY PUSH1 0x0 DUP4 DUP4 ADD MSTORE POP POP POP JUMP JUMPDEST PUSH1 0x0 PUSH2 0x725 DUP4 DUP6 PUSH2 0x6FF JUMP JUMPDEST SWAP4 POP PUSH2 0x732 DUP4 DUP6 DUP5 PUSH2 0x70A JUMP JUMPDEST DUP3 DUP5 ADD SWAP1 POP SWAP4 SWAP3 POP POP POP JUMP JUMPDEST PUSH1 0x0 PUSH2 0x74B DUP3 DUP5 DUP7 PUSH2 0x719 JUMP JUMPDEST SWAP2 POP DUP2 SWAP1 POP SWAP4 SWAP3 POP POP POP JUMP JUMPDEST PUSH32 0x63616C6C206661696C6564000000000000000000000000000000000000000000 PUSH1 0x0 DUP3 ADD MSTORE POP JUMP JUMPDEST PUSH1 0x0 PUSH2 0x78D PUSH1 0xB DUP4 PUSH2 0x530 JUMP JUMPDEST SWAP2 POP PUSH2 0x798 DUP3 PUSH2 0x757 JUMP JUMPDEST PUSH1 0x20 DUP3 ADD SWAP1 POP SWAP2 SWAP1 POP JUMP JUMPDEST PUSH1 0x0 PUSH1 0x20 DUP3 ADD SWAP1 POP DUP2 DUP2 SUB PUSH1 0x0 DUP4 ADD MSTORE PUSH2 0x7BC DUP2 PUSH2 0x780 JUMP JUMPDEST SWAP1 POP SWAP2 SWAP1 POP JUMP JUMPDEST PUSH32 0x4E487B7100000000000000000000000000000000000000000000000000000000 PUSH1 0x0 MSTORE PUSH1 0x11 PUSH1 0x4 MSTORE PUSH1 0x24 PUSH1 0x0 REVERT JUMPDEST PUSH1 0x0 DUP2 SWAP1 POP SWAP2 SWAP1 POP JUMP JUMPDEST PUSH1 0x0 PUSH2 0x807 DUP3 PUSH2 0x7F2 JUMP JUMPDEST SWAP2 POP PUSH32 0xFFFFFFFFFFFFFFFFFFFFFFFFFFFFFFFFFFFFFFFFFFFFFFFFFFFFFFFFFFFFFFFF DUP3 SUB PUSH2 0x839 JUMPI PUSH2 0x838 PUSH2 0x7C3 JUMP JUMPDEST JUMPDEST PUSH1 0x1 DUP3 ADD SWAP1 POP SWAP2 SWAP1 POP JUMP INVALID LOG2 PUSH5 0x6970667358 0x22 SLT KECCAK256 GASPRICE 0xDB 0x2B EXTCODECOPY 0x4D 0xF7 0x24 0xEF 0xA9 DUP4 0xAF DIFFICULTY 0x1E 0xAE 0xF6 0xC6 0x5D 0xC1 0xEF OR 0xA8 0xC2 PUSH17 0x7DA621AA6B66624D8A64736F6C63430008 GT STOP CALLER "},"methodIdentifiers":{"multiCall(address[],bytes[])":"da5b4ffd"}}}}}