{"contracts/test_multi_call.sol":{"TestMultiCall":{"abi":[{"inputs":[{"internalType":"uint256","name":"_i","type":"uint256"}],"name":"test","outputs":[{"internalType":"uint256","name":"","type":"uint256"}],"stateMutability":"pure","type":"function"}],"evm":{"bytecode":{"linkReferences":{},"object":"608060405234801561001057600080fd5b5061011b806100206000396000f3fe6080604052348015600f57600080fd5b506004361060285760003560e01c806329e99f0714602d575b600080fd5b60436004803603810190603f91906097565b6057565b604051604e919060cc565b60405180910390f35b6000819050919050565b600080fd5b6000819050919050565b6077816066565b8114608157600080fd5b50565b6000813590506091816070565b92915050565b60006020828403121560aa5760a96061565b5b600060b6848285016084565b91505092915050565b60c6816066565b82525050565b600060208201905060df600083018460bf565b9291505056fea2646970667358221220c8dbb02556cf4c38b49eea44a769d5d4175123846581753ab38b84d8a65e085a64736f6c63430008110033","opcodes":"PUSH1 0x80 PUSH1 0x40 MSTORE CALLVALUE DUP1 ISZERO PUSH2 0x10 JUMPI PUSH1 0x0 DUP1 REVERT JUMPDEST POP PUSH2 0x11B DUP1 PUSH2 0x20 PUSH1 0x0 CODECOPY PUSH1 0x0 RETURN INVALID PUSH1 0x80 PUSH1 0x40 MSTORE CALLVALUE DUP1 ISZERO PUSH1 0xF JUMPI PUSH1 0x0 DUP1 REVERT JUMPDEST POP PUSH1 0x4 CALLDATASIZE LT PUSH1 0x28 JUMPI PUSH1 0x0 CALLDATALOAD PUSH1 0xE0 SHR DUP1 PUSH4 0x29E99F07 EQ PUSH1 0x2D JUMPI JUMPDEST PUSH1 0x0 DUP1 REVERT JUMPDEST PUSH1 0x43 PUSH1 0x4 DUP1 CALLDATASIZE SUB DUP2 ADD SWAP1 PUSH1 0x3F SWAP2 SWAP1 PUSH1 0x97 JUMP JUMPDEST PUSH1 0x57 JUMP JUMPDEST PUSH1 0x40 MLOAD PUSH1 0x4E SWAP2 SWAP1 PUSH1 0xCC JUMP JUMPDEST PUSH1 0x40 MLOAD DUP1 SWAP2 SUB SWAP1 RETURN JUMPDEST PUSH1 0x0 DUP2 SWAP1 POP SWAP2 SWAP1 POP JUMP JUMPDEST PUSH1 0x0 DUP1 REVERT JUMPDEST PUSH1 0x0 DUP2 SWAP1 POP SWAP2 SWAP1 POP JUMP JUMPDEST PUSH1 0x77 DUP2 PUSH1 0x66 JUMP JUMPDEST DUP2 EQ PUSH1 0x81 JUMPI PUSH1 0x0 DUP1 REVERT JUMPDEST POP JUMP JUMPDEST PUSH1 0x0 DUP2 CALLDATALOAD SWAP1 POP PUSH1 0x91 DUP2 PUSH1 0x70 JUMP JUMPDEST SWAP3 SWAP2 POP POP JUMP JUMPDEST PUSH1 0x0 PUSH1 0x20 DUP3 DUP5 SUB SLT ISZERO PUSH1 0xAA JUMPI PUSH1 0xA9 PUSH1 0x61 JUMP JUMPDEST JUMPDEST PUSH1 0x0 PUSH1 0xB6 DUP5 DUP3 DUP6 ADD PUSH1 0x84 JUMP JUMPDEST SWAP2 POP POP SWAP3 SWAP2 POP POP JUMP JUMPDEST PUSH1 0xC6 DUP2 PUSH1 0x66 JUMP JUMPDEST DUP3 MSTORE POP POP JUMP JUMPDEST PUSH1 0x0 PUSH1 0x20 DUP3 ADD SWAP1 POP PUSH1 0xDF PUSH1 0x0 DUP4 ADD DUP5 PUSH1 0xBF JUMP JUMPDEST SWAP3 SWAP2 POP POP JUMP INVALID LOG2 PUSH5 0x6970667358 0x22 SLT KECCAK256 0xC8 0xDB 0xB0 0x25 JUMP 0xCF 0x4C CODESIZE 0xB4 SWAP15 0xEA DIFFICULTY 0xA7 PUSH10 0xD5D4175123846581753A 0xB3 DUP12 DUP5 0xD8 0xA6 0x5E ADDMOD GAS PUSH5 0x736F6C6343 STOP ADDMOD GT STOP CALLER "},"methodIdentifiers":{"test(uint256)":"29e99f07"}}}}}