{
  "_format": "hh-sol-artifact-1",
  "contractName": "NoContract",
  "sourceName": "contracts/no_contract.sol",
  "abi": [
    {
      "stateMutability": "nonpayable",
      "type": "fallback"
    },
    {
      "inputs": [
        {
          "internalType": "address",
          "name": "addr",
          "type": "address"
        }
      ],
      "name": "isContract",
      "outputs": [
        {
          "internalType": "bool",
          "name": "",
          "type": "bool"
        }
      ],
      "stateMutability": "view",
      "type": "function"
    },
    {
      "inputs": [],
      "name": "pwned",
      "outputs": [
        {
          "internalType": "bool",
          "name": "",
          "type": "bool"
        }
      ],
      "stateMutability": "view",
      "type": "function"
    }
  ],
  "bytecode": "0x608060405260008060006101000a81548160ff02191690831515021790555034801561002a57600080fd5b5061028a8061003a6000396000f3fe608060405234801561001057600080fd5b506004361061003a5760003560e01c8063162790551461009f57806395f11c0e146100cf5761003b565b5b610044336100ed565b15610084576040517f08c379a000000000000000000000000000000000000000000000000000000000815260040161007b9061016e565b60405180910390fd5b60016000806101000a81548160ff0219169083151502179055005b6100b960048036038101906100b491906101f1565b6100ed565b6040516100c69190610239565b60405180910390f35b6100d7610100565b6040516100e49190610239565b60405180910390f35b600080823b905060008111915050919050565b60008054906101000a900460ff1681565b600082825260208201905092915050565b7f6e6f20636f6e747261637420616c6c6f77656400000000000000000000000000600082015250565b6000610158601383610111565b915061016382610122565b602082019050919050565b600060208201905081810360008301526101878161014b565b9050919050565b600080fd5b600073ffffffffffffffffffffffffffffffffffffffff82169050919050565b60006101be82610193565b9050919050565b6101ce816101b3565b81146101d957600080fd5b50565b6000813590506101eb816101c5565b92915050565b6000602082840312156102075761020661018e565b5b6000610215848285016101dc565b91505092915050565b60008115159050919050565b6102338161021e565b82525050565b600060208201905061024e600083018461022a565b9291505056fea2646970667358221220cd374b18ad2dc0cb98924597088f17bd794b63a76091d03d6caa65b0eeea71fa64736f6c63430008110033",
  "linkReferences": {},
  "deployedLinkReferences": {}
}