{"contracts/signature_replay.sol":{"SignatureReplay":{"abi":[{"inputs":[],"stateMutability":"payable","type":"constructor"},{"inputs":[{"internalType":"address","name":"to","type":"address"},{"internalType":"uint256","name":"amount","type":"uint256"}],"name":"getHash","outputs":[{"internalType":"bytes32","name":"","type":"bytes32"}],"stateMutability":"pure","type":"function"},{"inputs":[],"name":"owner","outputs":[{"internalType":"address","name":"","type":"address"}],"stateMutability":"view","type":"function"},{"inputs":[{"internalType":"uint256","name":"amount","type":"uint256"},{"internalType":"bytes","name":"sig","type":"bytes"}],"name":"withdraw","outputs":[],"stateMutability":"nonpayable","type":"function"}],"evm":{"bytecode":{"linkReferences":{},"object":"60a06040523373ffffffffffffffffffffffffffffffffffffffff1660808173ffffffffffffffffffffffffffffffffffffffff16815250506080516108f861005a600039600081816101cb015261029601526108f86000f3fe608060405234801561001057600080fd5b50600436106100415760003560e01c8063030ba25d146100465780638da5cb5b14610062578063ed05582b14610080575b600080fd5b610060600480360381019061005b919061047d565b6100b0565b005b61006a6101c9565b604051610077919061051e565b60405180910390f35b61009a60048036038101906100959190610565565b6101ed565b6040516100a791906105be565b60405180910390f35b60008054906101000a900460ff16156100fe576040517f08c379a00000000000000000000000000000000000000000000000000000000081526004016100f590610636565b60405180910390fd5b60016000806101000a81548160ff02191690831515021790555061012433848484610220565b610163576040517f08c379a000000000000000000000000000000000000000000000000000000000815260040161015a906106a2565b60405180910390fd5b3373ffffffffffffffffffffffffffffffffffffffff166108fc849081150290604051600060405180830381858888f193505050501580156101a9573d6000803e3d6000fd5b5060008060006101000a81548160ff021916908315150217905550505050565b7f000000000000000000000000000000000000000000000000000000000000000081565b6000828260405160200161020292919061072b565b60405160208183030381529060405280519060200120905092915050565b60008061022d86866101ed565b9050600061023a82610340565b9050600080600061028e88888080601f016020809104026020016040519081016040528093929190818152602001838380828437600081840152601f19601f82011690508083019250505050505050610370565b9250925092507f000000000000000000000000000000000000000000000000000000000000000073ffffffffffffffffffffffffffffffffffffffff16600185838686604051600081526020016040526040516102ee9493929190610773565b6020604051602081039080840390855afa158015610310573d6000803e3d6000fd5b5050506020604051035173ffffffffffffffffffffffffffffffffffffffff161495505050505050949350505050565b6000816040516020016103539190610830565b604051602081830303815290604052805190602001209050919050565b600080600060418451146103b9576040517f08c379a00000000000000000000000000000000000000000000000000000000081526004016103b0906108a2565b60405180910390fd5b6020840151925060408401519150606084015160001a90509193909250565b600080fd5b600080fd5b6000819050919050565b6103f5816103e2565b811461040057600080fd5b50565b600081359050610412816103ec565b92915050565b600080fd5b600080fd5b600080fd5b60008083601f84011261043d5761043c610418565b5b8235905067ffffffffffffffff81111561045a5761045961041d565b5b60208301915083600182028301111561047657610475610422565b5b9250929050565b600080600060408486031215610496576104956103d8565b5b60006104a486828701610403565b935050602084013567ffffffffffffffff8111156104c5576104c46103dd565b5b6104d186828701610427565b92509250509250925092565b600073ffffffffffffffffffffffffffffffffffffffff82169050919050565b6000610508826104dd565b9050919050565b610518816104fd565b82525050565b6000602082019050610533600083018461050f565b92915050565b610542816104fd565b811461054d57600080fd5b50565b60008135905061055f81610539565b92915050565b6000806040838503121561057c5761057b6103d8565b5b600061058a85828601610550565b925050602061059b85828601610403565b9150509250929050565b6000819050919050565b6105b8816105a5565b82525050565b60006020820190506105d360008301846105af565b92915050565b600082825260208201905092915050565b7f6c6f636b65640000000000000000000000000000000000000000000000000000600082015250565b60006106206006836105d9565b915061062b826105ea565b602082019050919050565b6000602082019050818103600083015261064f81610613565b9050919050565b7f696e76616c6964207369676e6174757265000000000000000000000000000000600082015250565b600061068c6011836105d9565b915061069782610656565b602082019050919050565b600060208201905081810360008301526106bb8161067f565b9050919050565b60008160601b9050919050565b60006106da826106c2565b9050919050565b60006106ec826106cf565b9050919050565b6107046106ff826104fd565b6106e1565b82525050565b6000819050919050565b610725610720826103e2565b61070a565b82525050565b600061073782856106f3565b6014820191506107478284610714565b6020820191508190509392505050565b600060ff82169050919050565b61076d81610757565b82525050565b600060808201905061078860008301876105af565b6107956020830186610764565b6107a260408301856105af565b6107af60608301846105af565b95945050505050565b600081905092915050565b7f19457468657265756d205369676e6564204d6573736167653a0a333200000000600082015250565b60006107f9601c836107b8565b9150610804826107c3565b601c82019050919050565b6000819050919050565b61082a610825826105a5565b61080f565b82525050565b600061083b826107ec565b91506108478284610819565b60208201915081905092915050565b7f696e76616c6964207369676e6174757265206c656e6774680000000000000000600082015250565b600061088c6018836105d9565b915061089782610856565b602082019050919050565b600060208201905081810360008301526108bb8161087f565b905091905056fea264697066735822122008ab76abf6793598c7a49922711e64de24f70ea2614712ee6d1fa53ec5822af064736f6c63430008110033","opcodes":"PUSH1 0xA0 PUSH1 0x40 MSTORE CALLER PUSH20 0xFFFFFFFFFFFFFFFFFFFFFFFFFFFFFFFFFFFFFFFF AND PUSH1 0x80 DUP2 PUSH20 0xFFFFFFFFFFFFFFFFFFFFFFFFFFFFFFFFFFFFFFFF AND DUP2 MSTORE POP POP PUSH1 0x80 MLOAD PUSH2 0x8F8 PUSH2 0x5A PUSH1 0x0 CODECOPY PUSH1 0x0 DUP2 DUP2 PUSH2 0x1CB ADD MSTORE PUSH2 0x296 ADD MSTORE PUSH2 0x8F8 PUSH1 0x0 RETURN INVALID PUSH1 0x80 PUSH1 0x40 MSTORE CALLVALUE DUP1 ISZERO PUSH2 0x10 JUMPI PUSH1 0x0 DUP1 REVERT JUMPDEST POP PUSH1 0x4 CALLDATASIZE LT PUSH2 0x41 JUMPI PUSH1 0x0 CALLDATALOAD PUSH1 0xE0 SHR DUP1 PUSH4 0x30BA25D EQ PUSH2 0x46 JUMPI DUP1 PUSH4 0x8DA5CB5B EQ PUSH2 0x62 JUMPI DUP1 PUSH4 0xED05582B EQ PUSH2 0x80 JUMPI JUMPDEST PUSH1 0x0 DUP1 REVERT JUMPDEST PUSH2 0x60 PUSH1 0x4 DUP1 CALLDATASIZE SUB DUP2 ADD SWAP1 PUSH2 0x5B SWAP2 SWAP1 PUSH2 0x47D JUMP JUMPDEST PUSH2 0xB0 JUMP JUMPDEST STOP JUMPDEST PUSH2 0x6A PUSH2 0x1C9 JUMP JUMPDEST PUSH1 0x40 MLOAD PUSH2 0x77 SWAP2 SWAP1 PUSH2 0x51E JUMP JUMPDEST PUSH1 0x40 MLOAD DUP1 SWAP2 SUB SWAP1 RETURN JUMPDEST PUSH2 0x9A PUSH1 0x4 DUP1 CALLDATASIZE SUB DUP2 ADD SWAP1 PUSH2 0x95 SWAP2 SWAP1 PUSH2 0x565 JUMP JUMPDEST PUSH2 0x1ED JUMP JUMPDEST PUSH1 0x40 MLOAD PUSH2 0xA7 SWAP2 SWAP1 PUSH2 0x5BE JUMP JUMPDEST PUSH1 0x40 MLOAD DUP1 SWAP2 SUB SWAP1 RETURN JUMPDEST PUSH1 0x0 DUP1 SLOAD SWAP1 PUSH2 0x100 EXP SWAP1 DIV PUSH1 0xFF AND ISZERO PUSH2 0xFE JUMPI PUSH1 0x40 MLOAD PUSH32 0x8C379A000000000000000000000000000000000000000000000000000000000 DUP2 MSTORE PUSH1 0x4 ADD PUSH2 0xF5 SWAP1 PUSH2 0x636 JUMP JUMPDEST PUSH1 0x40 MLOAD DUP1 SWAP2 SUB SWAP1 REVERT JUMPDEST PUSH1 0x1 PUSH1 0x0 DUP1 PUSH2 0x100 EXP DUP2 SLOAD DUP2 PUSH1 0xFF MUL NOT AND SWAP1 DUP4 ISZERO ISZERO MUL OR SWAP1 SSTORE POP PUSH2 0x124 CALLER DUP5 DUP5 DUP5 PUSH2 0x220 JUMP JUMPDEST PUSH2 0x163 JUMPI PUSH1 0x40 MLOAD PUSH32 0x8C379A000000000000000000000000000000000000000000000000000000000 DUP2 MSTORE PUSH1 0x4 ADD PUSH2 0x15A SWAP1 PUSH2 0x6A2 JUMP JUMPDEST PUSH1 0x40 MLOAD DUP1 SWAP2 SUB SWAP1 REVERT JUMPDEST CALLER PUSH20 0xFFFFFFFFFFFFFFFFFFFFFFFFFFFFFFFFFFFFFFFF AND PUSH2 0x8FC DUP5 SWAP1 DUP2 ISZERO MUL SWAP1 PUSH1 0x40 MLOAD PUSH1 0x0 PUSH1 0x40 MLOAD DUP1 DUP4 SUB DUP2 DUP6 DUP9 DUP9 CALL SWAP4 POP POP POP POP ISZERO DUP1 ISZERO PUSH2 0x1A9 JUMPI RETURNDATASIZE PUSH1 0x0 DUP1 RETURNDATACOPY RETURNDATASIZE PUSH1 0x0 REVERT JUMPDEST POP PUSH1 0x0 DUP1 PUSH1 0x0 PUSH2 0x100 EXP DUP2 SLOAD DUP2 PUSH1 0xFF MUL NOT AND SWAP1 DUP4 ISZERO ISZERO MUL OR SWAP1 SSTORE POP POP POP POP JUMP JUMPDEST PUSH32 0x0 DUP2 JUMP JUMPDEST PUSH1 0x0 DUP3 DUP3 PUSH1 0x40 MLOAD PUSH1 0x20 ADD PUSH2 0x202 SWAP3 SWAP2 SWAP1 PUSH2 0x72B JUMP JUMPDEST PUSH1 0x40 MLOAD PUSH1 0x20 DUP2 DUP4 SUB SUB DUP2 MSTORE SWAP1 PUSH1 0x40 MSTORE DUP1 MLOAD SWAP1 PUSH1 0x20 ADD KECCAK256 SWAP1 POP SWAP3 SWAP2 POP POP JUMP JUMPDEST PUSH1 0x0 DUP1 PUSH2 0x22D DUP7 DUP7 PUSH2 0x1ED JUMP JUMPDEST SWAP1 POP PUSH1 0x0 PUSH2 0x23A DUP3 PUSH2 0x340 JUMP JUMPDEST SWAP1 POP PUSH1 0x0 DUP1 PUSH1 0x0 PUSH2 0x28E DUP9 DUP9 DUP1 DUP1 PUSH1 0x1F ADD PUSH1 0x20 DUP1 SWAP2 DIV MUL PUSH1 0x20 ADD PUSH1 0x40 MLOAD SWAP1 DUP2 ADD PUSH1 0x40 MSTORE DUP1 SWAP4 SWAP3 SWAP2 SWAP1 DUP2 DUP2 MSTORE PUSH1 0x20 ADD DUP4 DUP4 DUP1 DUP3 DUP5 CALLDATACOPY PUSH1 0x0 DUP2 DUP5 ADD MSTORE PUSH1 0x1F NOT PUSH1 0x1F DUP3 ADD AND SWAP1 POP DUP1 DUP4 ADD SWAP3 POP POP POP POP POP POP POP PUSH2 0x370 JUMP JUMPDEST SWAP3 POP SWAP3 POP SWAP3 POP PUSH32 0x0 PUSH20 0xFFFFFFFFFFFFFFFFFFFFFFFFFFFFFFFFFFFFFFFF AND PUSH1 0x1 DUP6 DUP4 DUP7 DUP7 PUSH1 0x40 MLOAD PUSH1 0x0 DUP2 MSTORE PUSH1 0x20 ADD PUSH1 0x40 MSTORE PUSH1 0x40 MLOAD PUSH2 0x2EE SWAP5 SWAP4 SWAP3 SWAP2 SWAP1 PUSH2 0x773 JUMP JUMPDEST PUSH1 0x20 PUSH1 0x40 MLOAD PUSH1 0x20 DUP2 SUB SWAP1 DUP1 DUP5 SUB SWAP1 DUP6 GAS STATICCALL ISZERO DUP1 ISZERO PUSH2 0x310 JUMPI RETURNDATASIZE PUSH1 0x0 DUP1 RETURNDATACOPY RETURNDATASIZE PUSH1 0x0 REVERT JUMPDEST POP POP POP PUSH1 0x20 PUSH1 0x40 MLOAD SUB MLOAD PUSH20 0xFFFFFFFFFFFFFFFFFFFFFFFFFFFFFFFFFFFFFFFF AND EQ SWAP6 POP POP POP POP POP POP SWAP5 SWAP4 POP POP POP POP JUMP JUMPDEST PUSH1 0x0 DUP2 PUSH1 0x40 MLOAD PUSH1 0x20 ADD PUSH2 0x353 SWAP2 SWAP1 PUSH2 0x830 JUMP JUMPDEST PUSH1 0x40 MLOAD PUSH1 0x20 DUP2 DUP4 SUB SUB DUP2 MSTORE SWAP1 PUSH1 0x40 MSTORE DUP1 MLOAD SWAP1 PUSH1 0x20 ADD KECCAK256 SWAP1 POP SWAP2 SWAP1 POP JUMP JUMPDEST PUSH1 0x0 DUP1 PUSH1 0x0 PUSH1 0x41 DUP5 MLOAD EQ PUSH2 0x3B9 JUMPI PUSH1 0x40 MLOAD PUSH32 0x8C379A000000000000000000000000000000000000000000000000000000000 DUP2 MSTORE PUSH1 0x4 ADD PUSH2 0x3B0 SWAP1 PUSH2 0x8A2 JUMP JUMPDEST PUSH1 0x40 MLOAD DUP1 SWAP2 SUB SWAP1 REVERT JUMPDEST PUSH1 0x20 DUP5 ADD MLOAD SWAP3 POP PUSH1 0x40 DUP5 ADD MLOAD SWAP2 POP PUSH1 0x60 DUP5 ADD MLOAD PUSH1 0x0 BYTE SWAP1 POP SWAP2 SWAP4 SWAP1 SWAP3 POP JUMP JUMPDEST PUSH1 0x0 DUP1 REVERT JUMPDEST PUSH1 0x0 DUP1 REVERT JUMPDEST PUSH1 0x0 DUP2 SWAP1 POP SWAP2 SWAP1 POP JUMP JUMPDEST PUSH2 0x3F5 DUP2 PUSH2 0x3E2 JUMP JUMPDEST DUP2 EQ PUSH2 0x400 JUMPI PUSH1 0x0 DUP1 REVERT JUMPDEST POP JUMP JUMPDEST PUSH1 0x0 DUP2 CALLDATALOAD SWAP1 POP PUSH2 0x412 DUP2 PUSH2 0x3EC JUMP JUMPDEST SWAP3 SWAP2 POP POP JUMP JUMPDEST PUSH1 0x0 DUP1 REVERT JUMPDEST PUSH1 0x0 DUP1 REVERT JUMPDEST PUSH1 0x0 DUP1 REVERT JUMPDEST PUSH1 0x0 DUP1 DUP4 PUSH1 0x1F DUP5 ADD SLT PUSH2 0x43D JUMPI PUSH2 0x43C PUSH2 0x418 JUMP JUMPDEST JUMPDEST DUP3 CALLDATALOAD SWAP1 POP PUSH8 0xFFFFFFFFFFFFFFFF DUP2 GT ISZERO PUSH2 0x45A JUMPI PUSH2 0x459 PUSH2 0x41D JUMP JUMPDEST JUMPDEST PUSH1 0x20 DUP4 ADD SWAP2 POP DUP4 PUSH1 0x1 DUP3 MUL DUP4 ADD GT ISZERO PUSH2 0x476 JUMPI PUSH2 0x475 PUSH2 0x422 JUMP JUMPDEST JUMPDEST SWAP3 POP SWAP3 SWAP1 POP JUMP JUMPDEST PUSH1 0x0 DUP1 PUSH1 0x0 PUSH1 0x40 DUP5 DUP7 SUB SLT ISZERO PUSH2 0x496 JUMPI PUSH2 0x495 PUSH2 0x3D8 JUMP JUMPDEST JUMPDEST PUSH1 0x0 PUSH2 0x4A4 DUP7 DUP3 DUP8 ADD PUSH2 0x403 JUMP JUMPDEST SWAP4 POP POP PUSH1 0x20 DUP5 ADD CALLDATALOAD PUSH8 0xFFFFFFFFFFFFFFFF DUP2 GT ISZERO PUSH2 0x4C5 JUMPI PUSH2 0x4C4 PUSH2 0x3DD JUMP JUMPDEST JUMPDEST PUSH2 0x4D1 DUP7 DUP3 DUP8 ADD PUSH2 0x427 JUMP JUMPDEST SWAP3 POP SWAP3 POP POP SWAP3 POP SWAP3 POP SWAP3 JUMP JUMPDEST PUSH1 0x0 PUSH20 0xFFFFFFFFFFFFFFFFFFFFFFFFFFFFFFFFFFFFFFFF DUP3 AND SWAP1 POP SWAP2 SWAP1 POP JUMP JUMPDEST PUSH1 0x0 PUSH2 0x508 DUP3 PUSH2 0x4DD JUMP JUMPDEST SWAP1 POP SWAP2 SWAP1 POP JUMP JUMPDEST PUSH2 0x518 DUP2 PUSH2 0x4FD JUMP JUMPDEST DUP3 MSTORE POP POP JUMP JUMPDEST PUSH1 0x0 PUSH1 0x20 DUP3 ADD SWAP1 POP PUSH2 0x533 PUSH1 0x0 DUP4 ADD DUP5 PUSH2 0x50F JUMP JUMPDEST SWAP3 SWAP2 POP POP JUMP JUMPDEST PUSH2 0x542 DUP2 PUSH2 0x4FD JUMP JUMPDEST DUP2 EQ PUSH2 0x54D JUMPI PUSH1 0x0 DUP1 REVERT JUMPDEST POP JUMP JUMPDEST PUSH1 0x0 DUP2 CALLDATALOAD SWAP1 POP PUSH2 0x55F DUP2 PUSH2 0x539 JUMP JUMPDEST SWAP3 SWAP2 POP POP JUMP JUMPDEST PUSH1 0x0 DUP1 PUSH1 0x40 DUP4 DUP6 SUB SLT ISZERO PUSH2 0x57C JUMPI PUSH2 0x57B PUSH2 0x3D8 JUMP JUMPDEST JUMPDEST PUSH1 0x0 PUSH2 0x58A DUP6 DUP3 DUP7 ADD PUSH2 0x550 JUMP JUMPDEST SWAP3 POP POP PUSH1 0x20 PUSH2 0x59B DUP6 DUP3 DUP7 ADD PUSH2 0x403 JUMP JUMPDEST SWAP2 POP POP SWAP3 POP SWAP3 SWAP1 POP JUMP JUMPDEST PUSH1 0x0 DUP2 SWAP1 POP SWAP2 SWAP1 POP JUMP JUMPDEST PUSH2 0x5B8 DUP2 PUSH2 0x5A5 JUMP JUMPDEST DUP3 MSTORE POP POP JUMP JUMPDEST PUSH1 0x0 PUSH1 0x20 DUP3 ADD SWAP1 POP PUSH2 0x5D3 PUSH1 0x0 DUP4 ADD DUP5 PUSH2 0x5AF JUMP JUMPDEST SWAP3 SWAP2 POP POP JUMP JUMPDEST PUSH1 0x0 DUP3 DUP3 MSTORE PUSH1 0x20 DUP3 ADD SWAP1 POP SWAP3 SWAP2 POP POP JUMP JUMPDEST PUSH32 0x6C6F636B65640000000000000000000000000000000000000000000000000000 PUSH1 0x0 DUP3 ADD MSTORE POP JUMP JUMPDEST PUSH1 0x0 PUSH2 0x620 PUSH1 0x6 DUP4 PUSH2 0x5D9 JUMP JUMPDEST SWAP2 POP PUSH2 0x62B DUP3 PUSH2 0x5EA JUMP JUMPDEST PUSH1 0x20 DUP3 ADD SWAP1 POP SWAP2 SWAP1 POP JUMP JUMPDEST PUSH1 0x0 PUSH1 0x20 DUP3 ADD SWAP1 POP DUP2 DUP2 SUB PUSH1 0x0 DUP4 ADD MSTORE PUSH2 0x64F DUP2 PUSH2 0x613 JUMP JUMPDEST SWAP1 POP SWAP2 SWAP1 POP JUMP JUMPDEST PUSH32 0x696E76616C6964207369676E6174757265000000000000000000000000000000 PUSH1 0x0 DUP3 ADD MSTORE POP JUMP JUMPDEST PUSH1 0x0 PUSH2 0x68C PUSH1 0x11 DUP4 PUSH2 0x5D9 JUMP JUMPDEST SWAP2 POP PUSH2 0x697 DUP3 PUSH2 0x656 JUMP JUMPDEST PUSH1 0x20 DUP3 ADD SWAP1 POP SWAP2 SWAP1 POP JUMP JUMPDEST PUSH1 0x0 PUSH1 0x20 DUP3 ADD SWAP1 POP DUP2 DUP2 SUB PUSH1 0x0 DUP4 ADD MSTORE PUSH2 0x6BB DUP2 PUSH2 0x67F JUMP JUMPDEST SWAP1 POP SWAP2 SWAP1 POP JUMP JUMPDEST PUSH1 0x0 DUP2 PUSH1 0x60 SHL SWAP1 POP SWAP2 SWAP1 POP JUMP JUMPDEST PUSH1 0x0 PUSH2 0x6DA DUP3 PUSH2 0x6C2 JUMP JUMPDEST SWAP1 POP SWAP2 SWAP1 POP JUMP JUMPDEST PUSH1 0x0 PUSH2 0x6EC DUP3 PUSH2 0x6CF JUMP JUMPDEST SWAP1 POP SWAP2 SWAP1 POP JUMP JUMPDEST PUSH2 0x704 PUSH2 0x6FF DUP3 PUSH2 0x4FD JUMP JUMPDEST PUSH2 0x6E1 JUMP JUMPDEST DUP3 MSTORE POP POP JUMP JUMPDEST PUSH1 0x0 DUP2 SWAP1 POP SWAP2 SWAP1 POP JUMP JUMPDEST PUSH2 0x725 PUSH2 0x720 DUP3 PUSH2 0x3E2 JUMP JUMPDEST PUSH2 0x70A JUMP JUMPDEST DUP3 MSTORE POP POP JUMP JUMPDEST PUSH1 0x0 PUSH2 0x737 DUP3 DUP6 PUSH2 0x6F3 JUMP JUMPDEST PUSH1 0x14 DUP3 ADD SWAP2 POP PUSH2 0x747 DUP3 DUP5 PUSH2 0x714 JUMP JUMPDEST PUSH1 0x20 DUP3 ADD SWAP2 POP DUP2 SWAP1 POP SWAP4 SWAP3 POP POP POP JUMP JUMPDEST PUSH1 0x0 PUSH1 0xFF DUP3 AND SWAP1 POP SWAP2 SWAP1 POP JUMP JUMPDEST PUSH2 0x76D DUP2 PUSH2 0x757 JUMP JUMPDEST DUP3 MSTORE POP POP JUMP JUMPDEST PUSH1 0x0 PUSH1 0x80 DUP3 ADD SWAP1 POP PUSH2 0x788 PUSH1 0x0 DUP4 ADD DUP8 PUSH2 0x5AF JUMP JUMPDEST PUSH2 0x795 PUSH1 0x20 DUP4 ADD DUP7 PUSH2 0x764 JUMP JUMPDEST PUSH2 0x7A2 PUSH1 0x40 DUP4 ADD DUP6 PUSH2 0x5AF JUMP JUMPDEST PUSH2 0x7AF PUSH1 0x60 DUP4 ADD DUP5 PUSH2 0x5AF JUMP JUMPDEST SWAP6 SWAP5 POP POP POP POP POP JUMP JUMPDEST PUSH1 0x0 DUP2 SWAP1 POP SWAP3 SWAP2 POP POP JUMP JUMPDEST PUSH32 0x19457468657265756D205369676E6564204D6573736167653A0A333200000000 PUSH1 0x0 DUP3 ADD MSTORE POP JUMP JUMPDEST PUSH1 0x0 PUSH2 0x7F9 PUSH1 0x1C DUP4 PUSH2 0x7B8 JUMP JUMPDEST SWAP2 POP PUSH2 0x804 DUP3 PUSH2 0x7C3 JUMP JUMPDEST PUSH1 0x1C DUP3 ADD SWAP1 POP SWAP2 SWAP1 POP JUMP JUMPDEST PUSH1 0x0 DUP2 SWAP1 POP SWAP2 SWAP1 POP JUMP JUMPDEST PUSH2 0x82A PUSH2 0x825 DUP3 PUSH2 0x5A5 JUMP JUMPDEST PUSH2 0x80F JUMP JUMPDEST DUP3 MSTORE POP POP JUMP JUMPDEST PUSH1 0x0 PUSH2 0x83B DUP3 PUSH2 0x7EC JUMP JUMPDEST SWAP2 POP PUSH2 0x847 DUP3 DUP5 PUSH2 0x819 JUMP JUMPDEST PUSH1 0x20 DUP3 ADD SWAP2 POP DUP2 SWAP1 POP SWAP3 SWAP2 POP POP JUMP JUMPDEST PUSH32 0x696E76616C6964207369676E6174757265206C656E6774680000000000000000 PUSH1 0x0 DUP3 ADD MSTORE POP JUMP JUMPDEST PUSH1 0x0 PUSH2 0x88C PUSH1 0x18 DUP4 PUSH2 0x5D9 JUMP JUMPDEST SWAP2 POP PUSH2 0x897 DUP3 PUSH2 0x856 JUMP JUMPDEST PUSH1 0x20 DUP3 ADD SWAP1 POP SWAP2 SWAP1 POP JUMP JUMPDEST PUSH1 0x0 PUSH1 0x20 DUP3 ADD SWAP1 POP DUP2 DUP2 SUB PUSH1 0x0 DUP4 ADD MSTORE PUSH2 0x8BB DUP2 PUSH2 0x87F JUMP JUMPDEST SWAP1 POP SWAP2 SWAP1 POP JUMP INVALID LOG2 PUSH5 0x6970667358 0x22 SLT KECCAK256 ADDMOD 0xAB PUSH23 0xABF6793598C7A49922711E64DE24F70EA2614712EE6D1F 0xA5 RETURNDATACOPY 0xC5 DUP3 0x2A CREATE PUSH5 0x736F6C6343 STOP ADDMOD GT STOP CALLER "},"methodIdentifiers":{"getHash(address,uint256)":"ed05582b","owner()":"8da5cb5b","withdraw(uint256,bytes)":"030ba25d"}}}}}