{"contracts/sending_ether.sol":{"SendEther":{"abi":[{"inputs":[{"internalType":"address payable","name":"_to","type":"address"},{"internalType":"uint256","name":"_amount","type":"uint256"}],"name":"sendEth","outputs":[],"stateMutability":"nonpayable","type":"function"},{"inputs":[{"internalType":"address payable","name":"_to","type":"address"}],"name":"sendViaCall","outputs":[],"stateMutability":"payable","type":"function"},{"inputs":[{"internalType":"address payable","name":"_to","type":"address"}],"name":"sendViaSend","outputs":[],"stateMutability":"payable","type":"function"},{"inputs":[{"internalType":"address payable","name":"_to","type":"address"}],"name":"sendViaTransfer","outputs":[],"stateMutability":"payable","type":"function"},{"stateMutability":"payable","type":"receive"}],"evm":{"bytecode":{"linkReferences":{},"object":"608060405234801561001057600080fd5b50610565806100206000396000f3fe6080604052600436106100435760003560e01c806349dcbc5e1461004f578063636e082b1461007857806374be480614610094578063830c29ae146100b05761004a565b3661004a57005b600080fd5b34801561005b57600080fd5b5061007660048036038101906100719190610393565b6100cc565b005b610092600480360381019061008d91906103d3565b610180565b005b6100ae60048036038101906100a991906103d3565b6101ca565b005b6100ca60048036038101906100c591906103d3565b610247565b005b6000808373ffffffffffffffffffffffffffffffffffffffff16836040516100f390610431565b60006040518083038185875af1925050503d8060008114610130576040519150601f19603f3d011682016040523d82523d6000602084013e610135565b606091505b50915091508161017a576040517f08c379a0000000000000000000000000000000000000000000000000000000008152600401610171906104a3565b60405180910390fd5b50505050565b8073ffffffffffffffffffffffffffffffffffffffff166108fc349081150290604051600060405180830381858888f193505050501580156101c6573d6000803e3d6000fd5b5050565b60008173ffffffffffffffffffffffffffffffffffffffff166108fc349081150290604051600060405180830381858888f19350505050905080610243576040517f08c379a000000000000000000000000000000000000000000000000000000000815260040161023a9061050f565b60405180910390fd5b5050565b6000808273ffffffffffffffffffffffffffffffffffffffff163460405161026e90610431565b60006040518083038185875af1925050503d80600081146102ab576040519150601f19603f3d011682016040523d82523d6000602084013e6102b0565b606091505b5091509150816102f5576040517f08c379a00000000000000000000000000000000000000000000000000000000081526004016102ec9061050f565b60405180910390fd5b505050565b600080fd5b600073ffffffffffffffffffffffffffffffffffffffff82169050919050565b600061032a826102ff565b9050919050565b61033a8161031f565b811461034557600080fd5b50565b60008135905061035781610331565b92915050565b6000819050919050565b6103708161035d565b811461037b57600080fd5b50565b60008135905061038d81610367565b92915050565b600080604083850312156103aa576103a96102fa565b5b60006103b885828601610348565b92505060206103c98582860161037e565b9150509250929050565b6000602082840312156103e9576103e86102fa565b5b60006103f784828501610348565b91505092915050565b600081905092915050565b50565b600061041b600083610400565b91506104268261040b565b600082019050919050565b600061043c8261040e565b9150819050919050565b600082825260208201905092915050565b7f4661696c656420746f2073656e64206574686572000000000000000000000000600082015250565b600061048d601483610446565b915061049882610457565b602082019050919050565b600060208201905081810360008301526104bc81610480565b9050919050565b7f4661696c656420746f2073656e64204574686572000000000000000000000000600082015250565b60006104f9601483610446565b9150610504826104c3565b602082019050919050565b60006020820190508181036000830152610528816104ec565b905091905056fea2646970667358221220842eed292ea5d521864ad2b655e9552059ac84d289ed75c4f18bafddf98f895c64736f6c63430008110033","opcodes":"PUSH1 0x80 PUSH1 0x40 MSTORE CALLVALUE DUP1 ISZERO PUSH2 0x10 JUMPI PUSH1 0x0 DUP1 REVERT JUMPDEST POP PUSH2 0x565 DUP1 PUSH2 0x20 PUSH1 0x0 CODECOPY PUSH1 0x0 RETURN INVALID PUSH1 0x80 PUSH1 0x40 MSTORE PUSH1 0x4 CALLDATASIZE LT PUSH2 0x43 JUMPI PUSH1 0x0 CALLDATALOAD PUSH1 0xE0 SHR DUP1 PUSH4 0x49DCBC5E EQ PUSH2 0x4F JUMPI DUP1 PUSH4 0x636E082B EQ PUSH2 0x78 JUMPI DUP1 PUSH4 0x74BE4806 EQ PUSH2 0x94 JUMPI DUP1 PUSH4 0x830C29AE EQ PUSH2 0xB0 JUMPI PUSH2 0x4A JUMP JUMPDEST CALLDATASIZE PUSH2 0x4A JUMPI STOP JUMPDEST PUSH1 0x0 DUP1 REVERT JUMPDEST CALLVALUE DUP1 ISZERO PUSH2 0x5B JUMPI PUSH1 0x0 DUP1 REVERT JUMPDEST POP PUSH2 0x76 PUSH1 0x4 DUP1 CALLDATASIZE SUB DUP2 ADD SWAP1 PUSH2 0x71 SWAP2 SWAP1 PUSH2 0x393 JUMP JUMPDEST PUSH2 0xCC JUMP JUMPDEST STOP JUMPDEST PUSH2 0x92 PUSH1 0x4 DUP1 CALLDATASIZE SUB DUP2 ADD SWAP1 PUSH2 0x8D SWAP2 SWAP1 PUSH2 0x3D3 JUMP JUMPDEST PUSH2 0x180 JUMP JUMPDEST STOP JUMPDEST PUSH2 0xAE PUSH1 0x4 DUP1 CALLDATASIZE SUB DUP2 ADD SWAP1 PUSH2 0xA9 SWAP2 SWAP1 PUSH2 0x3D3 JUMP JUMPDEST PUSH2 0x1CA JUMP JUMPDEST STOP JUMPDEST PUSH2 0xCA PUSH1 0x4 DUP1 CALLDATASIZE SUB DUP2 ADD SWAP1 PUSH2 0xC5 SWAP2 SWAP1 PUSH2 0x3D3 JUMP JUMPDEST PUSH2 0x247 JUMP JUMPDEST STOP JUMPDEST PUSH1 0x0 DUP1 DUP4 PUSH20 0xFFFFFFFFFFFFFFFFFFFFFFFFFFFFFFFFFFFFFFFF AND DUP4 PUSH1 0x40 MLOAD PUSH2 0xF3 SWAP1 PUSH2 0x431 JUMP JUMPDEST PUSH1 0x0 PUSH1 0x40 MLOAD DUP1 DUP4 SUB DUP2 DUP6 DUP8 GAS CALL SWAP3 POP POP POP RETURNDATASIZE DUP1 PUSH1 0x0 DUP2 EQ PUSH2 0x130 JUMPI PUSH1 0x40 MLOAD SWAP2 POP PUSH1 0x1F NOT PUSH1 0x3F RETURNDATASIZE ADD AND DUP3 ADD PUSH1 0x40 MSTORE RETURNDATASIZE DUP3 MSTORE RETURNDATASIZE PUSH1 0x0 PUSH1 0x20 DUP5 ADD RETURNDATACOPY PUSH2 0x135 JUMP JUMPDEST PUSH1 0x60 SWAP2 POP JUMPDEST POP SWAP2 POP SWAP2 POP DUP2 PUSH2 0x17A JUMPI PUSH1 0x40 MLOAD PUSH32 0x8C379A000000000000000000000000000000000000000000000000000000000 DUP2 MSTORE PUSH1 0x4 ADD PUSH2 0x171 SWAP1 PUSH2 0x4A3 JUMP JUMPDEST PUSH1 0x40 MLOAD DUP1 SWAP2 SUB SWAP1 REVERT JUMPDEST POP POP POP POP JUMP JUMPDEST DUP1 PUSH20 0xFFFFFFFFFFFFFFFFFFFFFFFFFFFFFFFFFFFFFFFF AND PUSH2 0x8FC CALLVALUE SWAP1 DUP2 ISZERO MUL SWAP1 PUSH1 0x40 MLOAD PUSH1 0x0 PUSH1 0x40 MLOAD DUP1 DUP4 SUB DUP2 DUP6 DUP9 DUP9 CALL SWAP4 POP POP POP POP ISZERO DUP1 ISZERO PUSH2 0x1C6 JUMPI RETURNDATASIZE PUSH1 0x0 DUP1 RETURNDATACOPY RETURNDATASIZE PUSH1 0x0 REVERT JUMPDEST POP POP JUMP JUMPDEST PUSH1 0x0 DUP2 PUSH20 0xFFFFFFFFFFFFFFFFFFFFFFFFFFFFFFFFFFFFFFFF AND PUSH2 0x8FC CALLVALUE SWAP1 DUP2 ISZERO MUL SWAP1 PUSH1 0x40 MLOAD PUSH1 0x0 PUSH1 0x40 MLOAD DUP1 DUP4 SUB DUP2 DUP6 DUP9 DUP9 CALL SWAP4 POP POP POP POP SWAP1 POP DUP1 PUSH2 0x243 JUMPI PUSH1 0x40 MLOAD PUSH32 0x8C379A000000000000000000000000000000000000000000000000000000000 DUP2 MSTORE PUSH1 0x4 ADD PUSH2 0x23A SWAP1 PUSH2 0x50F JUMP JUMPDEST PUSH1 0x40 MLOAD DUP1 SWAP2 SUB SWAP1 REVERT JUMPDEST POP POP JUMP JUMPDEST PUSH1 0x0 DUP1 DUP3 PUSH20 0xFFFFFFFFFFFFFFFFFFFFFFFFFFFFFFFFFFFFFFFF AND CALLVALUE PUSH1 0x40 MLOAD PUSH2 0x26E SWAP1 PUSH2 0x431 JUMP JUMPDEST PUSH1 0x0 PUSH1 0x40 MLOAD DUP1 DUP4 SUB DUP2 DUP6 DUP8 GAS CALL SWAP3 POP POP POP RETURNDATASIZE DUP1 PUSH1 0x0 DUP2 EQ PUSH2 0x2AB JUMPI PUSH1 0x40 MLOAD SWAP2 POP PUSH1 0x1F NOT PUSH1 0x3F RETURNDATASIZE ADD AND DUP3 ADD PUSH1 0x40 MSTORE RETURNDATASIZE DUP3 MSTORE RETURNDATASIZE PUSH1 0x0 PUSH1 0x20 DUP5 ADD RETURNDATACOPY PUSH2 0x2B0 JUMP JUMPDEST PUSH1 0x60 SWAP2 POP JUMPDEST POP SWAP2 POP SWAP2 POP DUP2 PUSH2 0x2F5 JUMPI PUSH1 0x40 MLOAD PUSH32 0x8C379A000000000000000000000000000000000000000000000000000000000 DUP2 MSTORE PUSH1 0x4 ADD PUSH2 0x2EC SWAP1 PUSH2 0x50F JUMP JUMPDEST PUSH1 0x40 MLOAD DUP1 SWAP2 SUB SWAP1 REVERT JUMPDEST POP POP POP JUMP JUMPDEST PUSH1 0x0 DUP1 REVERT JUMPDEST PUSH1 0x0 PUSH20 0xFFFFFFFFFFFFFFFFFFFFFFFFFFFFFFFFFFFFFFFF DUP3 AND SWAP1 POP SWAP2 SWAP1 POP JUMP JUMPDEST PUSH1 0x0 PUSH2 0x32A DUP3 PUSH2 0x2FF JUMP JUMPDEST SWAP1 POP SWAP2 SWAP1 POP JUMP JUMPDEST PUSH2 0x33A DUP2 PUSH2 0x31F JUMP JUMPDEST DUP2 EQ PUSH2 0x345 JUMPI PUSH1 0x0 DUP1 REVERT JUMPDEST POP JUMP JUMPDEST PUSH1 0x0 DUP2 CALLDATALOAD SWAP1 POP PUSH2 0x357 DUP2 PUSH2 0x331 JUMP JUMPDEST SWAP3 SWAP2 POP POP JUMP JUMPDEST PUSH1 0x0 DUP2 SWAP1 POP SWAP2 SWAP1 POP JUMP JUMPDEST PUSH2 0x370 DUP2 PUSH2 0x35D JUMP JUMPDEST DUP2 EQ PUSH2 0x37B JUMPI PUSH1 0x0 DUP1 REVERT JUMPDEST POP JUMP JUMPDEST PUSH1 0x0 DUP2 CALLDATALOAD SWAP1 POP PUSH2 0x38D DUP2 PUSH2 0x367 JUMP JUMPDEST SWAP3 SWAP2 POP POP JUMP JUMPDEST PUSH1 0x0 DUP1 PUSH1 0x40 DUP4 DUP6 SUB SLT ISZERO PUSH2 0x3AA JUMPI PUSH2 0x3A9 PUSH2 0x2FA JUMP JUMPDEST JUMPDEST PUSH1 0x0 PUSH2 0x3B8 DUP6 DUP3 DUP7 ADD PUSH2 0x348 JUMP JUMPDEST SWAP3 POP POP PUSH1 0x20 PUSH2 0x3C9 DUP6 DUP3 DUP7 ADD PUSH2 0x37E JUMP JUMPDEST SWAP2 POP POP SWAP3 POP SWAP3 SWAP1 POP JUMP JUMPDEST PUSH1 0x0 PUSH1 0x20 DUP3 DUP5 SUB SLT ISZERO PUSH2 0x3E9 JUMPI PUSH2 0x3E8 PUSH2 0x2FA JUMP JUMPDEST JUMPDEST PUSH1 0x0 PUSH2 0x3F7 DUP5 DUP3 DUP6 ADD PUSH2 0x348 JUMP JUMPDEST SWAP2 POP POP SWAP3 SWAP2 POP POP JUMP JUMPDEST PUSH1 0x0 DUP2 SWAP1 POP SWAP3 SWAP2 POP POP JUMP JUMPDEST POP JUMP JUMPDEST PUSH1 0x0 PUSH2 0x41B PUSH1 0x0 DUP4 PUSH2 0x400 JUMP JUMPDEST SWAP2 POP PUSH2 0x426 DUP3 PUSH2 0x40B JUMP JUMPDEST PUSH1 0x0 DUP3 ADD SWAP1 POP SWAP2 SWAP1 POP JUMP JUMPDEST PUSH1 0x0 PUSH2 0x43C DUP3 PUSH2 0x40E JUMP JUMPDEST SWAP2 POP DUP2 SWAP1 POP SWAP2 SWAP1 POP JUMP JUMPDEST PUSH1 0x0 DUP3 DUP3 MSTORE PUSH1 0x20 DUP3 ADD SWAP1 POP SWAP3 SWAP2 POP POP JUMP JUMPDEST PUSH32 0x4661696C656420746F2073656E64206574686572000000000000000000000000 PUSH1 0x0 DUP3 ADD MSTORE POP JUMP JUMPDEST PUSH1 0x0 PUSH2 0x48D PUSH1 0x14 DUP4 PUSH2 0x446 JUMP JUMPDEST SWAP2 POP PUSH2 0x498 DUP3 PUSH2 0x457 JUMP JUMPDEST PUSH1 0x20 DUP3 ADD SWAP1 POP SWAP2 SWAP1 POP JUMP JUMPDEST PUSH1 0x0 PUSH1 0x20 DUP3 ADD SWAP1 POP DUP2 DUP2 SUB PUSH1 0x0 DUP4 ADD MSTORE PUSH2 0x4BC DUP2 PUSH2 0x480 JUMP JUMPDEST SWAP1 POP SWAP2 SWAP1 POP JUMP JUMPDEST PUSH32 0x4661696C656420746F2073656E64204574686572000000000000000000000000 PUSH1 0x0 DUP3 ADD MSTORE POP JUMP JUMPDEST PUSH1 0x0 PUSH2 0x4F9 PUSH1 0x14 DUP4 PUSH2 0x446 JUMP JUMPDEST SWAP2 POP PUSH2 0x504 DUP3 PUSH2 0x4C3 JUMP JUMPDEST PUSH1 0x20 DUP3 ADD SWAP1 POP SWAP2 SWAP1 POP JUMP JUMPDEST PUSH1 0x0 PUSH1 0x20 DUP3 ADD SWAP1 POP DUP2 DUP2 SUB PUSH1 0x0 DUP4 ADD MSTORE PUSH2 0x528 DUP2 PUSH2 0x4EC JUMP JUMPDEST SWAP1 POP SWAP2 SWAP1 POP JUMP INVALID LOG2 PUSH5 0x6970667358 0x22 SLT KECCAK256 DUP5 0x2E 0xED 0x29 0x2E 0xA5 0xD5 0x21 DUP7 0x4A 0xD2 0xB6 SSTORE 0xE9 SSTORE KECCAK256 MSIZE 0xAC DUP5 0xD2 DUP10 0xED PUSH22 0xC4F18BAFDDF98F895C64736F6C634300081100330000 "},"methodIdentifiers":{"sendEth(address,uint256)":"49dcbc5e","sendViaCall(address)":"830c29ae","sendViaSend(address)":"74be4806","sendViaTransfer(address)":"636e082b"}}}}}