{
  "_format": "hh-sol-artifact-1",
  "contractName": "UniswapV2SingleSwap",
  "sourceName": "contracts/uniswap_v2_single_swap.sol",
  "abi": [
    {
      "inputs": [
        {
          "internalType": "uint256",
          "name": "amountIn",
          "type": "uint256"
        }
      ],
      "name": "swapSingleExactAmountIn",
      "outputs": [],
      "stateMutability": "nonpayable",
      "type": "function"
    },
    {
      "inputs": [
        {
          "internalType": "uint256",
          "name": "amountOutDesired",
          "type": "uint256"
        },
        {
          "internalType": "uint256",
          "name": "amountInMax",
          "type": "uint256"
        }
      ],
      "name": "swapSingleExactAmountOut",
      "outputs": [],
      "stateMutability": "nonpayable",
      "type": "function"
    }
  ],
  "bytecode": "0x608060405234801561001057600080fd5b50610d3c806100206000396000f3fe608060405234801561001057600080fd5b50600436106100365760003560e01c8063a8264c9f1461003b578063b26a1bdf14610057575b600080fd5b61005560048036038101906100509190610784565b610073565b005b610071600480360381019061006c91906107b1565b610366565b005b73f1277d1ed8ad466beddf92ef448a13266195662173ffffffffffffffffffffffffffffffffffffffff166323b872dd3330846040518463ffffffff1660e01b81526004016100c493929190610841565b6020604051808303816000875af11580156100e3573d6000803e3d6000fd5b505050506040513d601f19601f8201168201806040525081019061010791906108b0565b5073f1277d1ed8ad466beddf92ef448a13266195662173ffffffffffffffffffffffffffffffffffffffff1663095ea7b373a6ad18c2ac47803e193f75c3677b14bf19b94883836040518363ffffffff1660e01b815260040161016b9291906108dd565b6020604051808303816000875af115801561018a573d6000803e3d6000fd5b505050506040513d601f19601f820116820180604052508101906101ae91906108b0565b506000600267ffffffffffffffff8111156101cc576101cb610906565b5b6040519080825280602002602001820160405280156101fa5781602001602082028036833780820191505090505b50905073f1277d1ed8ad466beddf92ef448a1326619566218160008151811061022657610225610935565b5b602002602001019073ffffffffffffffffffffffffffffffffffffffff16908173ffffffffffffffffffffffffffffffffffffffff168152505073fafedb041c0dd4fa2dc0d87a6b0979ee6fa7af5f8160018151811061028957610288610935565b5b602002602001019073ffffffffffffffffffffffffffffffffffffffff16908173ffffffffffffffffffffffffffffffffffffffff168152505073a6ad18c2ac47803e193f75c3677b14bf19b9488373ffffffffffffffffffffffffffffffffffffffff166338ed17398360008430426040518663ffffffff1660e01b8152600401610319959493929190610a67565b6000604051808303816000875af1158015610338573d6000803e3d6000fd5b505050506040513d6000823e3d601f19601f820116820180604052508101906103619190610c00565b505050565b73f1277d1ed8ad466beddf92ef448a13266195662173ffffffffffffffffffffffffffffffffffffffff166323b872dd3330846040518463ffffffff1660e01b81526004016103b793929190610841565b6020604051808303816000875af11580156103d6573d6000803e3d6000fd5b505050506040513d601f19601f820116820180604052508101906103fa91906108b0565b5073f1277d1ed8ad466beddf92ef448a13266195662173ffffffffffffffffffffffffffffffffffffffff1663095ea7b373a6ad18c2ac47803e193f75c3677b14bf19b94883836040518363ffffffff1660e01b815260040161045e9291906108dd565b6020604051808303816000875af115801561047d573d6000803e3d6000fd5b505050506040513d601f19601f820116820180604052508101906104a191906108b0565b506000600267ffffffffffffffff8111156104bf576104be610906565b5b6040519080825280602002602001820160405280156104ed5781602001602082028036833780820191505090505b50905073f1277d1ed8ad466beddf92ef448a1326619566218160008151811061051957610518610935565b5b602002602001019073ffffffffffffffffffffffffffffffffffffffff16908173ffffffffffffffffffffffffffffffffffffffff168152505073fafedb041c0dd4fa2dc0d87a6b0979ee6fa7af5f8160018151811061057c5761057b610935565b5b602002602001019073ffffffffffffffffffffffffffffffffffffffff16908173ffffffffffffffffffffffffffffffffffffffff1681525050600073a6ad18c2ac47803e193f75c3677b14bf19b9488373ffffffffffffffffffffffffffffffffffffffff16638803dbee85858533426040518663ffffffff1660e01b815260040161060d959493929190610c49565b6000604051808303816000875af115801561062c573d6000803e3d6000fd5b505050506040513d6000823e3d601f19601f820116820180604052508101906106559190610c00565b9050828160008151811061066c5761066b610935565b5b602002602001015110156107345773f1277d1ed8ad466beddf92ef448a13266195662173ffffffffffffffffffffffffffffffffffffffff1663a9059cbb33836000815181106106bf576106be610935565b5b6020026020010151866106d29190610cd2565b6040518363ffffffff1660e01b81526004016106ef9291906108dd565b6020604051808303816000875af115801561070e573d6000803e3d6000fd5b505050506040513d601f19601f8201168201806040525081019061073291906108b0565b505b50505050565b6000604051905090565b600080fd5b600080fd5b6000819050919050565b6107618161074e565b811461076c57600080fd5b50565b60008135905061077e81610758565b92915050565b60006020828403121561079a57610799610744565b5b60006107a88482850161076f565b91505092915050565b600080604083850312156107c8576107c7610744565b5b60006107d68582860161076f565b92505060206107e78582860161076f565b9150509250929050565b600073ffffffffffffffffffffffffffffffffffffffff82169050919050565b600061081c826107f1565b9050919050565b61082c81610811565b82525050565b61083b8161074e565b82525050565b60006060820190506108566000830186610823565b6108636020830185610823565b6108706040830184610832565b949350505050565b60008115159050919050565b61088d81610878565b811461089857600080fd5b50565b6000815190506108aa81610884565b92915050565b6000602082840312156108c6576108c5610744565b5b60006108d48482850161089b565b91505092915050565b60006040820190506108f26000830185610823565b6108ff6020830184610832565b9392505050565b7f4e487b7100000000000000000000000000000000000000000000000000000000600052604160045260246000fd5b7f4e487b7100000000000000000000000000000000000000000000000000000000600052603260045260246000fd5b6000819050919050565b6000819050919050565b600061099361098e61098984610964565b61096e565b61074e565b9050919050565b6109a381610978565b82525050565b600081519050919050565b600082825260208201905092915050565b6000819050602082019050919050565b6109de81610811565b82525050565b60006109f083836109d5565b60208301905092915050565b6000602082019050919050565b6000610a14826109a9565b610a1e81856109b4565b9350610a29836109c5565b8060005b83811015610a5a578151610a4188826109e4565b9750610a4c836109fc565b925050600181019050610a2d565b5085935050505092915050565b600060a082019050610a7c6000830188610832565b610a89602083018761099a565b8181036040830152610a9b8186610a09565b9050610aaa6060830185610823565b610ab76080830184610832565b9695505050505050565b600080fd5b6000601f19601f8301169050919050565b610ae082610ac6565b810181811067ffffffffffffffff82111715610aff57610afe610906565b5b80604052505050565b6000610b1261073a565b9050610b1e8282610ad7565b919050565b600067ffffffffffffffff821115610b3e57610b3d610906565b5b602082029050602081019050919050565b600080fd5b600081519050610b6381610758565b92915050565b6000610b7c610b7784610b23565b610b08565b90508083825260208201905060208402830185811115610b9f57610b9e610b4f565b5b835b81811015610bc85780610bb48882610b54565b845260208401935050602081019050610ba1565b5050509392505050565b600082601f830112610be757610be6610ac1565b5b8151610bf7848260208601610b69565b91505092915050565b600060208284031215610c1657610c15610744565b5b600082015167ffffffffffffffff811115610c3457610c33610749565b5b610c4084828501610bd2565b91505092915050565b600060a082019050610c5e6000830188610832565b610c6b6020830187610832565b8181036040830152610c7d8186610a09565b9050610c8c6060830185610823565b610c996080830184610832565b9695505050505050565b7f4e487b7100000000000000000000000000000000000000000000000000000000600052601160045260246000fd5b6000610cdd8261074e565b9150610ce88361074e565b9250828203905081811115610d0057610cff610ca3565b5b9291505056fea2646970667358221220ee1f09c91ed04708305172e4f0d10b9aa96a09c21d07b2da19cc6466f66011fc64736f6c63430008110033",
  "linkReferences": {},
  "deployedLinkReferences": {}
}