{
  "_format": "hh-sol-artifact-1",
  "contractName": "UniswapV2SingleSwap",
  "sourceName": "contracts/uniswap_v2_single_swap.sol",
  "abi": [
    {
      "inputs": [
        {
          "internalType": "uint256",
          "name": "amountIn",
          "type": "uint256"
        },
        {
          "internalType": "uint256",
          "name": "amountOutMin",
          "type": "uint256"
        }
      ],
      "name": "swapSingleExactAmountIn",
      "outputs": [],
      "stateMutability": "nonpayable",
      "type": "function"
    },
    {
      "inputs": [
        {
          "internalType": "uint256",
          "name": "amountOutDesired",
          "type": "uint256"
        },
        {
          "internalType": "uint256",
          "name": "amountInMax",
          "type": "uint256"
        }
      ],
      "name": "swapSingleExactAmountOut",
      "outputs": [],
      "stateMutability": "nonpayable",
      "type": "function"
    }
  ],
  "bytecode": "0x608060405234801561001057600080fd5b50610c70806100206000396000f3fe608060405234801561001057600080fd5b50600436106100365760003560e01c8063b26a1bdf1461003b578063c8972e0114610057575b600080fd5b61005560048036038101906100509190610784565b610073565b005b610071600480360381019061006c9190610784565b610447565b005b73812666209b90344ec8e528375298ab9045c2bd0873ffffffffffffffffffffffffffffffffffffffff166323b872dd3330846040518463ffffffff1660e01b81526004016100c493929190610814565b6020604051808303816000875af11580156100e3573d6000803e3d6000fd5b505050506040513d601f19601f820116820180604052508101906101079190610883565b5073812666209b90344ec8e528375298ab9045c2bd0873ffffffffffffffffffffffffffffffffffffffff1663095ea7b373a6ad18c2ac47803e193f75c3677b14bf19b94883836040518363ffffffff1660e01b815260040161016b9291906108b0565b6020604051808303816000875af115801561018a573d6000803e3d6000fd5b505050506040513d601f19601f820116820180604052508101906101ae9190610883565b506000600267ffffffffffffffff8111156101cc576101cb6108d9565b5b6040519080825280602002602001820160405280156101fa5781602001602082028036833780820191505090505b50905073812666209b90344ec8e528375298ab9045c2bd088160008151811061022657610225610908565b5b602002602001019073ffffffffffffffffffffffffffffffffffffffff16908173ffffffffffffffffffffffffffffffffffffffff168152505073fafedb041c0dd4fa2dc0d87a6b0979ee6fa7af5f8160018151811061028957610288610908565b5b602002602001019073ffffffffffffffffffffffffffffffffffffffff16908173ffffffffffffffffffffffffffffffffffffffff1681525050600073a6ad18c2ac47803e193f75c3677b14bf19b9488373ffffffffffffffffffffffffffffffffffffffff16638803dbee85858533426040518663ffffffff1660e01b815260040161031a9594939291906109f5565b6000604051808303816000875af1158015610339573d6000803e3d6000fd5b505050506040513d6000823e3d601f19601f820116820180604052508101906103629190610b8e565b9050828160008151811061037957610378610908565b5b602002602001015110156104415773812666209b90344ec8e528375298ab9045c2bd0873ffffffffffffffffffffffffffffffffffffffff1663a9059cbb33836000815181106103cc576103cb610908565b5b6020026020010151866103df9190610c06565b6040518363ffffffff1660e01b81526004016103fc9291906108b0565b6020604051808303816000875af115801561041b573d6000803e3d6000fd5b505050506040513d601f19601f8201168201806040525081019061043f9190610883565b505b50505050565b73812666209b90344ec8e528375298ab9045c2bd0873ffffffffffffffffffffffffffffffffffffffff166323b872dd3330856040518463ffffffff1660e01b815260040161049893929190610814565b6020604051808303816000875af11580156104b7573d6000803e3d6000fd5b505050506040513d601f19601f820116820180604052508101906104db9190610883565b5073812666209b90344ec8e528375298ab9045c2bd0873ffffffffffffffffffffffffffffffffffffffff1663095ea7b373a6ad18c2ac47803e193f75c3677b14bf19b94883846040518363ffffffff1660e01b815260040161053f9291906108b0565b6020604051808303816000875af115801561055e573d6000803e3d6000fd5b505050506040513d601f19601f820116820180604052508101906105829190610883565b506000600267ffffffffffffffff8111156105a05761059f6108d9565b5b6040519080825280602002602001820160405280156105ce5781602001602082028036833780820191505090505b50905073812666209b90344ec8e528375298ab9045c2bd08816000815181106105fa576105f9610908565b5b602002602001019073ffffffffffffffffffffffffffffffffffffffff16908173ffffffffffffffffffffffffffffffffffffffff168152505073fafedb041c0dd4fa2dc0d87a6b0979ee6fa7af5f8160018151811061065d5761065c610908565b5b602002602001019073ffffffffffffffffffffffffffffffffffffffff16908173ffffffffffffffffffffffffffffffffffffffff168152505073a6ad18c2ac47803e193f75c3677b14bf19b9488373ffffffffffffffffffffffffffffffffffffffff166338ed173984848433426040518663ffffffff1660e01b81526004016106ec9594939291906109f5565b6000604051808303816000875af115801561070b573d6000803e3d6000fd5b505050506040513d6000823e3d601f19601f820116820180604052508101906107349190610b8e565b50505050565b6000604051905090565b600080fd5b600080fd5b6000819050919050565b6107618161074e565b811461076c57600080fd5b50565b60008135905061077e81610758565b92915050565b6000806040838503121561079b5761079a610744565b5b60006107a98582860161076f565b92505060206107ba8582860161076f565b9150509250929050565b600073ffffffffffffffffffffffffffffffffffffffff82169050919050565b60006107ef826107c4565b9050919050565b6107ff816107e4565b82525050565b61080e8161074e565b82525050565b600060608201905061082960008301866107f6565b61083660208301856107f6565b6108436040830184610805565b949350505050565b60008115159050919050565b6108608161084b565b811461086b57600080fd5b50565b60008151905061087d81610857565b92915050565b60006020828403121561089957610898610744565b5b60006108a78482850161086e565b91505092915050565b60006040820190506108c560008301856107f6565b6108d26020830184610805565b9392505050565b7f4e487b7100000000000000000000000000000000000000000000000000000000600052604160045260246000fd5b7f4e487b7100000000000000000000000000000000000000000000000000000000600052603260045260246000fd5b600081519050919050565b600082825260208201905092915050565b6000819050602082019050919050565b61096c816107e4565b82525050565b600061097e8383610963565b60208301905092915050565b6000602082019050919050565b60006109a282610937565b6109ac8185610942565b93506109b783610953565b8060005b838110156109e85781516109cf8882610972565b97506109da8361098a565b9250506001810190506109bb565b5085935050505092915050565b600060a082019050610a0a6000830188610805565b610a176020830187610805565b8181036040830152610a298186610997565b9050610a3860608301856107f6565b610a456080830184610805565b9695505050505050565b600080fd5b6000601f19601f8301169050919050565b610a6e82610a54565b810181811067ffffffffffffffff82111715610a8d57610a8c6108d9565b5b80604052505050565b6000610aa061073a565b9050610aac8282610a65565b919050565b600067ffffffffffffffff821115610acc57610acb6108d9565b5b602082029050602081019050919050565b600080fd5b600081519050610af181610758565b92915050565b6000610b0a610b0584610ab1565b610a96565b90508083825260208201905060208402830185811115610b2d57610b2c610add565b5b835b81811015610b565780610b428882610ae2565b845260208401935050602081019050610b2f565b5050509392505050565b600082601f830112610b7557610b74610a4f565b5b8151610b85848260208601610af7565b91505092915050565b600060208284031215610ba457610ba3610744565b5b600082015167ffffffffffffffff811115610bc257610bc1610749565b5b610bce84828501610b60565b91505092915050565b7f4e487b7100000000000000000000000000000000000000000000000000000000600052601160045260246000fd5b6000610c118261074e565b9150610c1c8361074e565b9250828203905081811115610c3457610c33610bd7565b5b9291505056fea2646970667358221220a9fbf286d0408a8f6df9700da72b7d2b13c804c6607b089040dc12767ad19f8d64736f6c63430008110033",
  "linkReferences": {},
  "deployedLinkReferences": {}
}