{
  "_format": "hh-sol-artifact-1",
  "contractName": "RandomNumberConsumer",
  "sourceName": "contracts/randomness.sol",
  "abi": [
    {
      "inputs": [],
      "stateMutability": "nonpayable",
      "type": "constructor"
    },
    {
      "inputs": [],
      "name": "counter",
      "outputs": [
        {
          "internalType": "uint256",
          "name": "",
          "type": "uint256"
        }
      ],
      "stateMutability": "view",
      "type": "function"
    },
    {
      "inputs": [],
      "name": "getRandom",
      "outputs": [],
      "stateMutability": "nonpayable",
      "type": "function"
    },
    {
      "inputs": [],
      "name": "lottery_contract",
      "outputs": [
        {
          "internalType": "contract Lottery",
          "name": "",
          "type": "address"
        }
      ],
      "stateMutability": "view",
      "type": "function"
    },
    {
      "inputs": [],
      "name": "owner",
      "outputs": [
        {
          "internalType": "address",
          "name": "",
          "type": "address"
        }
      ],
      "stateMutability": "view",
      "type": "function"
    },
    {
      "inputs": [
        {
          "internalType": "uint256",
          "name": "",
          "type": "uint256"
        }
      ],
      "name": "random_numbers",
      "outputs": [
        {
          "internalType": "uint256",
          "name": "",
          "type": "uint256"
        }
      ],
      "stateMutability": "view",
      "type": "function"
    },
    {
      "inputs": [
        {
          "internalType": "uint256",
          "name": "_requestId",
          "type": "uint256"
        },
        {
          "internalType": "uint256[]",
          "name": "_randomWords",
          "type": "uint256[]"
        }
      ],
      "name": "rawFulfillRandomWords",
      "outputs": [],
      "stateMutability": "nonpayable",
      "type": "function"
    },
    {
      "inputs": [
        {
          "internalType": "address",
          "name": "lottery_address",
          "type": "address"
        }
      ],
      "name": "set_lottery_contract",
      "outputs": [],
      "stateMutability": "nonpayable",
      "type": "function"
    }
  ],
  "bytecode": "0x60c06040526000600255620f4240600360146101000a81548163ffffffff021916908363ffffffff1602179055506005600360186101000a81548161ffff021916908361ffff16021790555060016003601a6101000a81548163ffffffff021916908363ffffffff16021790555073fafedb041c0dd4fa2dc0d87a6b0979ee6fa7af5f600460006101000a81548173ffffffffffffffffffffffffffffffffffffffff021916908373ffffffffffffffffffffffffffffffffffffffff1602179055507338336bdae79747a1d2c4e6c67bbf382244287ca6600560006101000a81548173ffffffffffffffffffffffffffffffffffffffff021916908373ffffffffffffffffffffffffffffffffffffffff16021790555034801561012357600080fd5b50600460009054906101000a900473ffffffffffffffffffffffffffffffffffffffff16600560009054906101000a900473ffffffffffffffffffffffffffffffffffffffff168173ffffffffffffffffffffffffffffffffffffffff1660808173ffffffffffffffffffffffffffffffffffffffff16815250508073ffffffffffffffffffffffffffffffffffffffff1660a08173ffffffffffffffffffffffffffffffffffffffff1681525050505033600360006101000a81548173ffffffffffffffffffffffffffffffffffffffff021916908373ffffffffffffffffffffffffffffffffffffffff16021790555060805160a0516110a6610256600039600081816101500152818161046e01528181610617015281816106380152610758015260006105db01526110a66000f3fe608060405234801561001057600080fd5b506004361061007d5760003560e01c806361bc221a1161005b57806361bc221a146100ec5780638da5cb5b1461010a578063aacc5a1714610128578063ac9d50d2146101325761007d565b80631fe543e314610082578063499159121461009e5780634a29a112146100bc575b600080fd5b61009c60048036038101906100979190610991565b61014e565b005b6100a66101ea565b6040516100b39190610a6c565b60405180910390f35b6100d660048036038101906100d19190610a87565b61020e565b6040516100e39190610ac3565b60405180910390f35b6100f4610226565b6040516101019190610ac3565b60405180910390f35b61011261022c565b60405161011f9190610aff565b60405180910390f35b610130610252565b005b61014c60048036038101906101479190610b46565b61033f565b005b7f000000000000000000000000000000000000000000000000000000000000000073ffffffffffffffffffffffffffffffffffffffff163373ffffffffffffffffffffffffffffffffffffffff16146101dc576040517f08c379a00000000000000000000000000000000000000000000000000000000081526004016101d390610bd0565b60405180910390fd5b6101e6828261046c565b5050565b60008054906101000a900473ffffffffffffffffffffffffffffffffffffffff1681565b60016020528060005260406000206000915090505481565b60025481565b600360009054906101000a900473ffffffffffffffffffffffffffffffffffffffff1681565b60008054906101000a900473ffffffffffffffffffffffffffffffffffffffff1673ffffffffffffffffffffffffffffffffffffffff163373ffffffffffffffffffffffffffffffffffffffff16146102e0576040517f08c379a00000000000000000000000000000000000000000000000000000000081526004016102d790610c62565b60405180910390fd5b6000610321600360149054906101000a900463ffffffff16600360189054906101000a900461ffff166003601a9054906101000a900463ffffffff166105d7565b90506000600160008381526020019081526020016000208190555050565b600060025414610384576040517f08c379a000000000000000000000000000000000000000000000000000000000815260040161037b90610cce565b60405180910390fd5b600360009054906101000a900473ffffffffffffffffffffffffffffffffffffffff1673ffffffffffffffffffffffffffffffffffffffff163373ffffffffffffffffffffffffffffffffffffffff1614610414576040517f08c379a000000000000000000000000000000000000000000000000000000000815260040161040b90610d60565b60405180910390fd5b806000806101000a81548173ffffffffffffffffffffffffffffffffffffffff021916908373ffffffffffffffffffffffffffffffffffffffff16021790555060016002546104639190610daf565b60028190555050565b7f000000000000000000000000000000000000000000000000000000000000000073ffffffffffffffffffffffffffffffffffffffff163373ffffffffffffffffffffffffffffffffffffffff16146104fa576040517f08c379a00000000000000000000000000000000000000000000000000000000081526004016104f190610e2f565b60405180910390fd5b8060008151811061050e5761050d610e4f565b5b6020026020010151600160008481526020019081526020016000208190555060008054906101000a900473ffffffffffffffffffffffffffffffffffffffff1673ffffffffffffffffffffffffffffffffffffffff1663c251ebf28260008151811061057d5761057c610e4f565b5b60200260200101516040518263ffffffff1660e01b81526004016105a19190610ac3565b600060405180830381600087803b1580156105bb57600080fd5b505af11580156105cf573d6000803e3d6000fd5b505050505050565b60007f000000000000000000000000000000000000000000000000000000000000000073ffffffffffffffffffffffffffffffffffffffff16634000aea07f00000000000000000000000000000000000000000000000000000000000000007f000000000000000000000000000000000000000000000000000000000000000073ffffffffffffffffffffffffffffffffffffffff16634306d354886040518263ffffffff1660e01b815260040161068f9190610e9d565b602060405180830381865afa1580156106ac573d6000803e3d6000fd5b505050506040513d601f19601f820116820180604052508101906106d09190610ecd565b8787876040516020016106e593929190610f17565b6040516020818303038152906040526040518463ffffffff1660e01b815260040161071293929190610fcd565b6020604051808303816000875af1158015610731573d6000803e3d6000fd5b505050506040513d601f19601f820116820180604052508101906107559190611043565b507f000000000000000000000000000000000000000000000000000000000000000073ffffffffffffffffffffffffffffffffffffffff1663fc2a88c36040518163ffffffff1660e01b8152600401602060405180830381865afa1580156107c1573d6000803e3d6000fd5b505050506040513d601f19601f820116820180604052508101906107e59190610ecd565b90509392505050565b6000604051905090565b600080fd5b600080fd5b6000819050919050565b61081581610802565b811461082057600080fd5b50565b6000813590506108328161080c565b92915050565b600080fd5b6000601f19601f8301169050919050565b7f4e487b7100000000000000000000000000000000000000000000000000000000600052604160045260246000fd5b6108868261083d565b810181811067ffffffffffffffff821117156108a5576108a461084e565b5b80604052505050565b60006108b86107ee565b90506108c4828261087d565b919050565b600067ffffffffffffffff8211156108e4576108e361084e565b5b602082029050602081019050919050565b600080fd5b600061090d610908846108c9565b6108ae565b905080838252602082019050602084028301858111156109305761092f6108f5565b5b835b8181101561095957806109458882610823565b845260208401935050602081019050610932565b5050509392505050565b600082601f83011261097857610977610838565b5b81356109888482602086016108fa565b91505092915050565b600080604083850312156109a8576109a76107f8565b5b60006109b685828601610823565b925050602083013567ffffffffffffffff8111156109d7576109d66107fd565b5b6109e385828601610963565b9150509250929050565b600073ffffffffffffffffffffffffffffffffffffffff82169050919050565b6000819050919050565b6000610a32610a2d610a28846109ed565b610a0d565b6109ed565b9050919050565b6000610a4482610a17565b9050919050565b6000610a5682610a39565b9050919050565b610a6681610a4b565b82525050565b6000602082019050610a816000830184610a5d565b92915050565b600060208284031215610a9d57610a9c6107f8565b5b6000610aab84828501610823565b91505092915050565b610abd81610802565b82525050565b6000602082019050610ad86000830184610ab4565b92915050565b6000610ae9826109ed565b9050919050565b610af981610ade565b82525050565b6000602082019050610b146000830184610af0565b92915050565b610b2381610ade565b8114610b2e57600080fd5b50565b600081359050610b4081610b1a565b92915050565b600060208284031215610b5c57610b5b6107f8565b5b6000610b6a84828501610b31565b91505092915050565b600082825260208201905092915050565b7f6f6e6c792056524620563220777261707065722063616e2066756c66696c6c00600082015250565b6000610bba601f83610b73565b9150610bc582610b84565b602082019050919050565b60006020820190508181036000830152610be981610bad565b9050919050565b7f4f6e6c7920746865206c6f747465727920636f6e74726163742063616e20636160008201527f6c6c20746869732066756e6374696f6e00000000000000000000000000000000602082015250565b6000610c4c603083610b73565b9150610c5782610bf0565b604082019050919050565b60006020820190508181036000830152610c7b81610c3f565b9050919050565b7f43616e206f6e6c792062652063616c6c6564206f6e6365000000000000000000600082015250565b6000610cb8601783610b73565b9150610cc382610c82565b602082019050919050565b60006020820190508181036000830152610ce781610cab565b9050919050565b7f4f6e6c79206f776e65722063616e2063616c6c20746869732066756e6374696f60008201527f6e2e000000000000000000000000000000000000000000000000000000000000602082015250565b6000610d4a602283610b73565b9150610d5582610cee565b604082019050919050565b60006020820190508181036000830152610d7981610d3d565b9050919050565b7f4e487b7100000000000000000000000000000000000000000000000000000000600052601160045260246000fd5b6000610dba82610802565b9150610dc583610802565b9250828201905080821115610ddd57610ddc610d80565b5b92915050565b7f4f6e6c79205652465f56325f575241505045522063616e2066756c66696c6c00600082015250565b6000610e19601f83610b73565b9150610e2482610de3565b602082019050919050565b60006020820190508181036000830152610e4881610e0c565b9050919050565b7f4e487b7100000000000000000000000000000000000000000000000000000000600052603260045260246000fd5b600063ffffffff82169050919050565b610e9781610e7e565b82525050565b6000602082019050610eb26000830184610e8e565b92915050565b600081519050610ec78161080c565b92915050565b600060208284031215610ee357610ee26107f8565b5b6000610ef184828501610eb8565b91505092915050565b600061ffff82169050919050565b610f1181610efa565b82525050565b6000606082019050610f2c6000830186610e8e565b610f396020830185610f08565b610f466040830184610e8e565b949350505050565b600081519050919050565b600082825260208201905092915050565b60005b83811015610f88578082015181840152602081019050610f6d565b60008484015250505050565b6000610f9f82610f4e565b610fa98185610f59565b9350610fb9818560208601610f6a565b610fc28161083d565b840191505092915050565b6000606082019050610fe26000830186610af0565b610fef6020830185610ab4565b81810360408301526110018184610f94565b9050949350505050565b60008115159050919050565b6110208161100b565b811461102b57600080fd5b50565b60008151905061103d81611017565b92915050565b600060208284031215611059576110586107f8565b5b60006110678482850161102e565b9150509291505056fea2646970667358221220d5675b4696da002d4118572679ce7383c33a5e1d76eabee7beb07383b3d7880c64736f6c63430008110033",
  "linkReferences": {},
  "deployedLinkReferences": {}
}