{
  "_format": "hh-sol-artifact-1",
  "contractName": "RandomNumberConsumer",
  "sourceName": "contracts/randomness.sol",
  "abi": [
    {
      "inputs": [],
      "stateMutability": "nonpayable",
      "type": "constructor"
    },
    {
      "inputs": [],
      "name": "counter",
      "outputs": [
        {
          "internalType": "uint256",
          "name": "",
          "type": "uint256"
        }
      ],
      "stateMutability": "view",
      "type": "function"
    },
    {
      "inputs": [],
      "name": "getRandom",
      "outputs": [],
      "stateMutability": "nonpayable",
      "type": "function"
    },
    {
      "inputs": [],
      "name": "lottery_contract",
      "outputs": [
        {
          "internalType": "contract Lottery",
          "name": "",
          "type": "address"
        }
      ],
      "stateMutability": "view",
      "type": "function"
    },
    {
      "inputs": [],
      "name": "owner",
      "outputs": [
        {
          "internalType": "address",
          "name": "",
          "type": "address"
        }
      ],
      "stateMutability": "view",
      "type": "function"
    },
    {
      "inputs": [
        {
          "internalType": "uint256",
          "name": "",
          "type": "uint256"
        }
      ],
      "name": "random_numbers",
      "outputs": [
        {
          "internalType": "uint256",
          "name": "",
          "type": "uint256"
        }
      ],
      "stateMutability": "view",
      "type": "function"
    },
    {
      "inputs": [
        {
          "internalType": "uint256",
          "name": "_requestId",
          "type": "uint256"
        },
        {
          "internalType": "uint256[]",
          "name": "_randomWords",
          "type": "uint256[]"
        }
      ],
      "name": "rawFulfillRandomWords",
      "outputs": [],
      "stateMutability": "nonpayable",
      "type": "function"
    },
    {
      "inputs": [
        {
          "internalType": "address",
          "name": "lottery_address",
          "type": "address"
        }
      ],
      "name": "set_lottery_contract",
      "outputs": [],
      "stateMutability": "nonpayable",
      "type": "function"
    }
  ],
  "bytecode": "0x60c06040526000600255620f4240600360146101000a81548163ffffffff021916908363ffffffff16021790555060038060186101000a81548161ffff021916908361ffff16021790555060016003601a6101000a81548163ffffffff021916908363ffffffff16021790555073fafedb041c0dd4fa2dc0d87a6b0979ee6fa7af5f600460006101000a81548173ffffffffffffffffffffffffffffffffffffffff021916908373ffffffffffffffffffffffffffffffffffffffff1602179055507338336bdae79747a1d2c4e6c67bbf382244287ca6600560006101000a81548173ffffffffffffffffffffffffffffffffffffffff021916908373ffffffffffffffffffffffffffffffffffffffff16021790555034801561012257600080fd5b50600460009054906101000a900473ffffffffffffffffffffffffffffffffffffffff16600560009054906101000a900473ffffffffffffffffffffffffffffffffffffffff168173ffffffffffffffffffffffffffffffffffffffff1660808173ffffffffffffffffffffffffffffffffffffffff16815250508073ffffffffffffffffffffffffffffffffffffffff1660a08173ffffffffffffffffffffffffffffffffffffffff1681525050505033600360006101000a81548173ffffffffffffffffffffffffffffffffffffffff021916908373ffffffffffffffffffffffffffffffffffffffff16021790555060805160a051610e8c61024e60003960008181610150015281816104fb0152818161051c015261063c015260006104bf0152610e8c6000f3fe608060405234801561001057600080fd5b506004361061007d5760003560e01c806361bc221a1161005b57806361bc221a146100ec5780638da5cb5b1461010a578063aacc5a1714610128578063ac9d50d2146101325761007d565b80631fe543e314610082578063499159121461009e5780634a29a112146100bc575b600080fd5b61009c60048036038101906100979190610875565b61014e565b005b6100a66101ea565b6040516100b39190610950565b60405180910390f35b6100d660048036038101906100d1919061096b565b61020e565b6040516100e391906109a7565b60405180910390f35b6100f4610226565b60405161010191906109a7565b60405180910390f35b61011261022c565b60405161011f91906109e3565b60405180910390f35b610130610252565b005b61014c60048036038101906101479190610a2a565b6102b1565b005b7f000000000000000000000000000000000000000000000000000000000000000073ffffffffffffffffffffffffffffffffffffffff163373ffffffffffffffffffffffffffffffffffffffff16146101dc576040517f08c379a00000000000000000000000000000000000000000000000000000000081526004016101d390610ab4565b60405180910390fd5b6101e682826103de565b5050565b60008054906101000a900473ffffffffffffffffffffffffffffffffffffffff1681565b60016020528060005260406000206000915090505481565b60025481565b600360009054906101000a900473ffffffffffffffffffffffffffffffffffffffff1681565b6000610293600360149054906101000a900463ffffffff16600360189054906101000a900461ffff166003601a9054906101000a900463ffffffff166104bb565b90506000600160008381526020019081526020016000208190555050565b6000600254146102f6576040517f08c379a00000000000000000000000000000000000000000000000000000000081526004016102ed90610b20565b60405180910390fd5b600360009054906101000a900473ffffffffffffffffffffffffffffffffffffffff1673ffffffffffffffffffffffffffffffffffffffff163373ffffffffffffffffffffffffffffffffffffffff1614610386576040517f08c379a000000000000000000000000000000000000000000000000000000000815260040161037d90610bb2565b60405180910390fd5b806000806101000a81548173ffffffffffffffffffffffffffffffffffffffff021916908373ffffffffffffffffffffffffffffffffffffffff16021790555060016002546103d59190610c01565b60028190555050565b806000815181106103f2576103f1610c35565b5b6020026020010151600160008481526020019081526020016000208190555060008054906101000a900473ffffffffffffffffffffffffffffffffffffffff1673ffffffffffffffffffffffffffffffffffffffff1663c251ebf28260008151811061046157610460610c35565b5b60200260200101516040518263ffffffff1660e01b815260040161048591906109a7565b600060405180830381600087803b15801561049f57600080fd5b505af11580156104b3573d6000803e3d6000fd5b505050505050565b60007f000000000000000000000000000000000000000000000000000000000000000073ffffffffffffffffffffffffffffffffffffffff16634000aea07f00000000000000000000000000000000000000000000000000000000000000007f000000000000000000000000000000000000000000000000000000000000000073ffffffffffffffffffffffffffffffffffffffff16634306d354886040518263ffffffff1660e01b81526004016105739190610c83565b602060405180830381865afa158015610590573d6000803e3d6000fd5b505050506040513d601f19601f820116820180604052508101906105b49190610cb3565b8787876040516020016105c993929190610cfd565b6040516020818303038152906040526040518463ffffffff1660e01b81526004016105f693929190610db3565b6020604051808303816000875af1158015610615573d6000803e3d6000fd5b505050506040513d601f19601f820116820180604052508101906106399190610e29565b507f000000000000000000000000000000000000000000000000000000000000000073ffffffffffffffffffffffffffffffffffffffff1663fc2a88c36040518163ffffffff1660e01b8152600401602060405180830381865afa1580156106a5573d6000803e3d6000fd5b505050506040513d601f19601f820116820180604052508101906106c99190610cb3565b90509392505050565b6000604051905090565b600080fd5b600080fd5b6000819050919050565b6106f9816106e6565b811461070457600080fd5b50565b600081359050610716816106f0565b92915050565b600080fd5b6000601f19601f8301169050919050565b7f4e487b7100000000000000000000000000000000000000000000000000000000600052604160045260246000fd5b61076a82610721565b810181811067ffffffffffffffff8211171561078957610788610732565b5b80604052505050565b600061079c6106d2565b90506107a88282610761565b919050565b600067ffffffffffffffff8211156107c8576107c7610732565b5b602082029050602081019050919050565b600080fd5b60006107f16107ec846107ad565b610792565b90508083825260208201905060208402830185811115610814576108136107d9565b5b835b8181101561083d57806108298882610707565b845260208401935050602081019050610816565b5050509392505050565b600082601f83011261085c5761085b61071c565b5b813561086c8482602086016107de565b91505092915050565b6000806040838503121561088c5761088b6106dc565b5b600061089a85828601610707565b925050602083013567ffffffffffffffff8111156108bb576108ba6106e1565b5b6108c785828601610847565b9150509250929050565b600073ffffffffffffffffffffffffffffffffffffffff82169050919050565b6000819050919050565b600061091661091161090c846108d1565b6108f1565b6108d1565b9050919050565b6000610928826108fb565b9050919050565b600061093a8261091d565b9050919050565b61094a8161092f565b82525050565b60006020820190506109656000830184610941565b92915050565b600060208284031215610981576109806106dc565b5b600061098f84828501610707565b91505092915050565b6109a1816106e6565b82525050565b60006020820190506109bc6000830184610998565b92915050565b60006109cd826108d1565b9050919050565b6109dd816109c2565b82525050565b60006020820190506109f860008301846109d4565b92915050565b610a07816109c2565b8114610a1257600080fd5b50565b600081359050610a24816109fe565b92915050565b600060208284031215610a4057610a3f6106dc565b5b6000610a4e84828501610a15565b91505092915050565b600082825260208201905092915050565b7f6f6e6c792056524620563220777261707065722063616e2066756c66696c6c00600082015250565b6000610a9e601f83610a57565b9150610aa982610a68565b602082019050919050565b60006020820190508181036000830152610acd81610a91565b9050919050565b7f43616e206f6e6c792062652063616c6c6564206f6e6365000000000000000000600082015250565b6000610b0a601783610a57565b9150610b1582610ad4565b602082019050919050565b60006020820190508181036000830152610b3981610afd565b9050919050565b7f4f6e6c79206f776e65722063616e2063616c6c20746869732066756e6374696f60008201527f6e2e000000000000000000000000000000000000000000000000000000000000602082015250565b6000610b9c602283610a57565b9150610ba782610b40565b604082019050919050565b60006020820190508181036000830152610bcb81610b8f565b9050919050565b7f4e487b7100000000000000000000000000000000000000000000000000000000600052601160045260246000fd5b6000610c0c826106e6565b9150610c17836106e6565b9250828201905080821115610c2f57610c2e610bd2565b5b92915050565b7f4e487b7100000000000000000000000000000000000000000000000000000000600052603260045260246000fd5b600063ffffffff82169050919050565b610c7d81610c64565b82525050565b6000602082019050610c986000830184610c74565b92915050565b600081519050610cad816106f0565b92915050565b600060208284031215610cc957610cc86106dc565b5b6000610cd784828501610c9e565b91505092915050565b600061ffff82169050919050565b610cf781610ce0565b82525050565b6000606082019050610d126000830186610c74565b610d1f6020830185610cee565b610d2c6040830184610c74565b949350505050565b600081519050919050565b600082825260208201905092915050565b60005b83811015610d6e578082015181840152602081019050610d53565b60008484015250505050565b6000610d8582610d34565b610d8f8185610d3f565b9350610d9f818560208601610d50565b610da881610721565b840191505092915050565b6000606082019050610dc860008301866109d4565b610dd56020830185610998565b8181036040830152610de78184610d7a565b9050949350505050565b60008115159050919050565b610e0681610df1565b8114610e1157600080fd5b50565b600081519050610e2381610dfd565b92915050565b600060208284031215610e3f57610e3e6106dc565b5b6000610e4d84828501610e14565b9150509291505056fea2646970667358221220cfb45a56551b6e7a30b036028d0813699a42cef75f36880ec6bfca29eabcd3e664736f6c63430008110033",
  "linkReferences": {},
  "deployedLinkReferences": {}
}