{
  "_format": "hh-sol-artifact-1",
  "contractName": "RandomNumberConsumer",
  "sourceName": "contracts/randomness.sol",
  "abi": [
    {
      "inputs": [],
      "stateMutability": "nonpayable",
      "type": "constructor"
    },
    {
      "inputs": [
        {
          "internalType": "uint256",
          "name": "lotteryId",
          "type": "uint256"
        }
      ],
      "name": "getRandom",
      "outputs": [],
      "stateMutability": "nonpayable",
      "type": "function"
    },
    {
      "inputs": [],
      "name": "lottery_contract",
      "outputs": [
        {
          "internalType": "contract lottery_interface",
          "name": "",
          "type": "address"
        }
      ],
      "stateMutability": "view",
      "type": "function"
    },
    {
      "inputs": [],
      "name": "most_recent_random",
      "outputs": [
        {
          "internalType": "uint256",
          "name": "",
          "type": "uint256"
        }
      ],
      "stateMutability": "view",
      "type": "function"
    },
    {
      "inputs": [
        {
          "internalType": "uint256",
          "name": "",
          "type": "uint256"
        }
      ],
      "name": "randomNumber",
      "outputs": [
        {
          "internalType": "uint256",
          "name": "",
          "type": "uint256"
        }
      ],
      "stateMutability": "view",
      "type": "function"
    },
    {
      "inputs": [
        {
          "internalType": "bytes32",
          "name": "requestId",
          "type": "bytes32"
        },
        {
          "internalType": "uint256",
          "name": "randomness",
          "type": "uint256"
        }
      ],
      "name": "rawFulfillRandomness",
      "outputs": [],
      "stateMutability": "nonpayable",
      "type": "function"
    },
    {
      "inputs": [
        {
          "internalType": "bytes32",
          "name": "",
          "type": "bytes32"
        }
      ],
      "name": "requestIds",
      "outputs": [
        {
          "internalType": "uint256",
          "name": "",
          "type": "uint256"
        }
      ],
      "stateMutability": "view",
      "type": "function"
    }
  ],
  "bytecode": "0x60c060405234801561001057600080fd5b5073bd13f08b8352a3635218ab9418e340c60d6eb41873fafedb041c0dd4fa2dc0d87a6b0979ee6fa7af5f8173ffffffffffffffffffffffffffffffffffffffff1660a08173ffffffffffffffffffffffffffffffffffffffff16815250508073ffffffffffffffffffffffffffffffffffffffff1660808173ffffffffffffffffffffffffffffffffffffffff168152505050507f121a143066e0f2f08b620784af77cccb35c6242460b4a8ee251b4b416abaebd460001b6002819055506601c6bf5263400060038190555060805160a051610bd96101106000396000818161017b0152610447015260008181610220015261040b0152610bd96000f3fe608060405234801561001057600080fd5b50600436106100625760003560e01c806349915912146100675780638645f7a81461008557806394985ddd146100b5578063c0159e5a146100d1578063cd4b6914146100ef578063f970dd021461010b575b600080fd5b61006f61013b565b60405161007c9190610645565b60405180910390f35b61009f600480360381019061009a919061069b565b610161565b6040516100ac91906106e1565b60405180910390f35b6100cf60048036038101906100ca9190610728565b610179565b005b6100d9610215565b6040516100e691906106e1565b60405180910390f35b61010960048036038101906101049190610768565b61021b565b005b61012560048036038101906101209190610768565b610326565b60405161013291906106e1565b60405180910390f35b600160009054906101000a900473ffffffffffffffffffffffffffffffffffffffff1681565b60056020528060005260406000206000915090505481565b7f000000000000000000000000000000000000000000000000000000000000000073ffffffffffffffffffffffffffffffffffffffff163373ffffffffffffffffffffffffffffffffffffffff1614610207576040517f08c379a00000000000000000000000000000000000000000000000000000000081526004016101fe906107f2565b60405180910390fd5b610211828261033e565b5050565b60065481565b6003547f000000000000000000000000000000000000000000000000000000000000000073ffffffffffffffffffffffffffffffffffffffff166370a08231306040518263ffffffff1660e01b81526004016102779190610833565b602060405180830381865afa158015610294573d6000803e3d6000fd5b505050506040513d601f19601f820116820180604052508101906102b89190610863565b116102f8576040517f08c379a00000000000000000000000000000000000000000000000000000000081526004016102ef90610902565b60405180910390fd5b6000610308600254600354610407565b90508160056000838152602001908152602001600020819055505050565b60046020528060005260406000206000915090505481565b80600681905550600060056000848152602001908152602001600020549050816004600083815260200190815260200160002081905550600160009054906101000a900473ffffffffffffffffffffffffffffffffffffffff1673ffffffffffffffffffffffffffffffffffffffff1663c251ebf2836040518263ffffffff1660e01b81526004016103d091906106e1565b600060405180830381600087803b1580156103ea57600080fd5b505af11580156103fe573d6000803e3d6000fd5b50505050505050565b60007f000000000000000000000000000000000000000000000000000000000000000073ffffffffffffffffffffffffffffffffffffffff16634000aea07f00000000000000000000000000000000000000000000000000000000000000008486600060405160200161047b929190610931565b6040516020818303038152906040526040518463ffffffff1660e01b81526004016104a8939291906109ea565b6020604051808303816000875af11580156104c7573d6000803e3d6000fd5b505050506040513d601f19601f820116820180604052508101906104eb9190610a60565b50600061050d8460003060008089815260200190815260200160002054610557565b905060016000808681526020019081526020016000205461052e9190610abc565b6000808681526020019081526020016000208190555061054e8482610593565b91505092915050565b6000848484846040516020016105709493929190610af0565b6040516020818303038152906040528051906020012060001c9050949350505050565b600082826040516020016105a8929190610b77565b60405160208183030381529060405280519060200120905092915050565b600073ffffffffffffffffffffffffffffffffffffffff82169050919050565b6000819050919050565b600061060b610606610601846105c6565b6105e6565b6105c6565b9050919050565b600061061d826105f0565b9050919050565b600061062f82610612565b9050919050565b61063f81610624565b82525050565b600060208201905061065a6000830184610636565b92915050565b600080fd5b6000819050919050565b61067881610665565b811461068357600080fd5b50565b6000813590506106958161066f565b92915050565b6000602082840312156106b1576106b0610660565b5b60006106bf84828501610686565b91505092915050565b6000819050919050565b6106db816106c8565b82525050565b60006020820190506106f660008301846106d2565b92915050565b610705816106c8565b811461071057600080fd5b50565b600081359050610722816106fc565b92915050565b6000806040838503121561073f5761073e610660565b5b600061074d85828601610686565b925050602061075e85828601610713565b9150509250929050565b60006020828403121561077e5761077d610660565b5b600061078c84828501610713565b91505092915050565b600082825260208201905092915050565b7f4f6e6c7920565246436f6f7264696e61746f722063616e2066756c66696c6c00600082015250565b60006107dc601f83610795565b91506107e7826107a6565b602082019050919050565b6000602082019050818103600083015261080b816107cf565b9050919050565b600061081d826105c6565b9050919050565b61082d81610812565b82525050565b60006020820190506108486000830184610824565b92915050565b60008151905061085d816106fc565b92915050565b60006020828403121561087957610878610660565b5b60006108878482850161084e565b91505092915050565b7f4e6f7420656e6f756768204c494e4b202d2066696c6c20636f6e74726163742060008201527f7769746820666175636574000000000000000000000000000000000000000000602082015250565b60006108ec602b83610795565b91506108f782610890565b604082019050919050565b6000602082019050818103600083015261091b816108df565b9050919050565b61092b81610665565b82525050565b60006040820190506109466000830185610922565b61095360208301846106d2565b9392505050565b600081519050919050565b600082825260208201905092915050565b60005b83811015610994578082015181840152602081019050610979565b60008484015250505050565b6000601f19601f8301169050919050565b60006109bc8261095a565b6109c68185610965565b93506109d6818560208601610976565b6109df816109a0565b840191505092915050565b60006060820190506109ff6000830186610824565b610a0c60208301856106d2565b8181036040830152610a1e81846109b1565b9050949350505050565b60008115159050919050565b610a3d81610a28565b8114610a4857600080fd5b50565b600081519050610a5a81610a34565b92915050565b600060208284031215610a7657610a75610660565b5b6000610a8484828501610a4b565b91505092915050565b7f4e487b7100000000000000000000000000000000000000000000000000000000600052601160045260246000fd5b6000610ac7826106c8565b9150610ad2836106c8565b9250828201905080821115610aea57610ae9610a8d565b5b92915050565b6000608082019050610b056000830187610922565b610b1260208301866106d2565b610b1f6040830185610824565b610b2c60608301846106d2565b95945050505050565b6000819050919050565b610b50610b4b82610665565b610b35565b82525050565b6000819050919050565b610b71610b6c826106c8565b610b56565b82525050565b6000610b838285610b3f565b602082019150610b938284610b60565b602082019150819050939250505056fea2646970667358221220e3b85f1f10e5a7db554392d343162d5fa396f1cf929dc81258946e946194bd9e64736f6c63430008110033",
  "linkReferences": {},
  "deployedLinkReferences": {}
}