{
  "_format": "hh-sol-artifact-1",
  "contractName": "RandomNumberConsumer",
  "sourceName": "contracts/randomness.sol",
  "abi": [
    {
      "inputs": [],
      "stateMutability": "nonpayable",
      "type": "constructor"
    },
    {
      "inputs": [],
      "name": "counter",
      "outputs": [
        {
          "internalType": "uint256",
          "name": "",
          "type": "uint256"
        }
      ],
      "stateMutability": "view",
      "type": "function"
    },
    {
      "inputs": [
        {
          "internalType": "uint256",
          "name": "lotteryId",
          "type": "uint256"
        }
      ],
      "name": "getRandom",
      "outputs": [],
      "stateMutability": "nonpayable",
      "type": "function"
    },
    {
      "inputs": [],
      "name": "lottery_contract",
      "outputs": [
        {
          "internalType": "contract Lottery",
          "name": "",
          "type": "address"
        }
      ],
      "stateMutability": "view",
      "type": "function"
    },
    {
      "inputs": [],
      "name": "most_recent_random",
      "outputs": [
        {
          "internalType": "uint256",
          "name": "",
          "type": "uint256"
        }
      ],
      "stateMutability": "view",
      "type": "function"
    },
    {
      "inputs": [],
      "name": "owner",
      "outputs": [
        {
          "internalType": "address",
          "name": "",
          "type": "address"
        }
      ],
      "stateMutability": "view",
      "type": "function"
    },
    {
      "inputs": [
        {
          "internalType": "uint256",
          "name": "",
          "type": "uint256"
        }
      ],
      "name": "randomNumber",
      "outputs": [
        {
          "internalType": "uint256",
          "name": "",
          "type": "uint256"
        }
      ],
      "stateMutability": "view",
      "type": "function"
    },
    {
      "inputs": [
        {
          "internalType": "bytes32",
          "name": "requestId",
          "type": "bytes32"
        },
        {
          "internalType": "uint256",
          "name": "randomness",
          "type": "uint256"
        }
      ],
      "name": "rawFulfillRandomness",
      "outputs": [],
      "stateMutability": "nonpayable",
      "type": "function"
    },
    {
      "inputs": [
        {
          "internalType": "bytes32",
          "name": "",
          "type": "bytes32"
        }
      ],
      "name": "requestIds",
      "outputs": [
        {
          "internalType": "uint256",
          "name": "",
          "type": "uint256"
        }
      ],
      "stateMutability": "view",
      "type": "function"
    },
    {
      "inputs": [
        {
          "internalType": "address",
          "name": "lottery_address",
          "type": "address"
        }
      ],
      "name": "set_lottery_contract",
      "outputs": [],
      "stateMutability": "nonpayable",
      "type": "function"
    }
  ],
  "bytecode": "0x60c0604052600060075534801561001557600080fd5b5073bd13f08b8352a3635218ab9418e340c60d6eb41873fafedb041c0dd4fa2dc0d87a6b0979ee6fa7af5f8173ffffffffffffffffffffffffffffffffffffffff1660a08173ffffffffffffffffffffffffffffffffffffffff16815250508073ffffffffffffffffffffffffffffffffffffffff1660808173ffffffffffffffffffffffffffffffffffffffff168152505050507f121a143066e0f2f08b620784af77cccb35c6242460b4a8ee251b4b416abaebd460001b6002819055506601c6bf5263400060038190555033600860006101000a81548173ffffffffffffffffffffffffffffffffffffffff021916908373ffffffffffffffffffffffffffffffffffffffff16021790555060805160a051610f1361015660003960008181610230015261062a01526000818161040301526105ee0152610f136000f3fe608060405234801561001057600080fd5b50600436106100935760003560e01c806394985ddd1161006657806394985ddd14610122578063ac9d50d21461013e578063c0159e5a1461015a578063cd4b691414610178578063f970dd021461019457610093565b8063499159121461009857806361bc221a146100b65780638645f7a8146100d45780638da5cb5b14610104575b600080fd5b6100a06101c4565b6040516100ad9190610828565b60405180910390f35b6100be6101ea565b6040516100cb919061085c565b60405180910390f35b6100ee60048036038101906100e991906108b2565b6101f0565b6040516100fb919061085c565b60405180910390f35b61010c610208565b6040516101199190610900565b60405180910390f35b61013c60048036038101906101379190610947565b61022e565b005b610158600480360381019061015391906109b3565b6102ca565b005b6101626103f8565b60405161016f919061085c565b60405180910390f35b610192600480360381019061018d91906109e0565b6103fe565b005b6101ae60048036038101906101a991906109e0565b610509565b6040516101bb919061085c565b60405180910390f35b600160009054906101000a900473ffffffffffffffffffffffffffffffffffffffff1681565b60075481565b60056020528060005260406000206000915090505481565b600860009054906101000a900473ffffffffffffffffffffffffffffffffffffffff1681565b7f000000000000000000000000000000000000000000000000000000000000000073ffffffffffffffffffffffffffffffffffffffff163373ffffffffffffffffffffffffffffffffffffffff16146102bc576040517f08c379a00000000000000000000000000000000000000000000000000000000081526004016102b390610a6a565b60405180910390fd5b6102c68282610521565b5050565b60006007541461030f576040517f08c379a000000000000000000000000000000000000000000000000000000000815260040161030690610ad6565b60405180910390fd5b600860009054906101000a900473ffffffffffffffffffffffffffffffffffffffff1673ffffffffffffffffffffffffffffffffffffffff163373ffffffffffffffffffffffffffffffffffffffff161461039f576040517f08c379a000000000000000000000000000000000000000000000000000000000815260040161039690610b68565b60405180910390fd5b80600160006101000a81548173ffffffffffffffffffffffffffffffffffffffff021916908373ffffffffffffffffffffffffffffffffffffffff16021790555060016007546103ef9190610bb7565b60078190555050565b60065481565b6003547f000000000000000000000000000000000000000000000000000000000000000073ffffffffffffffffffffffffffffffffffffffff166370a08231306040518263ffffffff1660e01b815260040161045a9190610900565b602060405180830381865afa158015610477573d6000803e3d6000fd5b505050506040513d601f19601f8201168201806040525081019061049b9190610c00565b116104db576040517f08c379a00000000000000000000000000000000000000000000000000000000081526004016104d290610c9f565b60405180910390fd5b60006104eb6002546003546105ea565b90508160056000838152602001908152602001600020819055505050565b60046020528060005260406000206000915090505481565b80600681905550600060056000848152602001908152602001600020549050816004600083815260200190815260200160002081905550600160009054906101000a900473ffffffffffffffffffffffffffffffffffffffff1673ffffffffffffffffffffffffffffffffffffffff1663c251ebf2836040518263ffffffff1660e01b81526004016105b3919061085c565b600060405180830381600087803b1580156105cd57600080fd5b505af11580156105e1573d6000803e3d6000fd5b50505050505050565b60007f000000000000000000000000000000000000000000000000000000000000000073ffffffffffffffffffffffffffffffffffffffff16634000aea07f00000000000000000000000000000000000000000000000000000000000000008486600060405160200161065e929190610cce565b6040516020818303038152906040526040518463ffffffff1660e01b815260040161068b93929190610d87565b6020604051808303816000875af11580156106aa573d6000803e3d6000fd5b505050506040513d601f19601f820116820180604052508101906106ce9190610dfd565b5060006106f0846000306000808981526020019081526020016000205461073a565b90506001600080868152602001908152602001600020546107119190610bb7565b600080868152602001908152602001600020819055506107318482610776565b91505092915050565b6000848484846040516020016107539493929190610e2a565b6040516020818303038152906040528051906020012060001c9050949350505050565b6000828260405160200161078b929190610eb1565b60405160208183030381529060405280519060200120905092915050565b600073ffffffffffffffffffffffffffffffffffffffff82169050919050565b6000819050919050565b60006107ee6107e96107e4846107a9565b6107c9565b6107a9565b9050919050565b6000610800826107d3565b9050919050565b6000610812826107f5565b9050919050565b61082281610807565b82525050565b600060208201905061083d6000830184610819565b92915050565b6000819050919050565b61085681610843565b82525050565b6000602082019050610871600083018461084d565b92915050565b600080fd5b6000819050919050565b61088f8161087c565b811461089a57600080fd5b50565b6000813590506108ac81610886565b92915050565b6000602082840312156108c8576108c7610877565b5b60006108d68482850161089d565b91505092915050565b60006108ea826107a9565b9050919050565b6108fa816108df565b82525050565b600060208201905061091560008301846108f1565b92915050565b61092481610843565b811461092f57600080fd5b50565b6000813590506109418161091b565b92915050565b6000806040838503121561095e5761095d610877565b5b600061096c8582860161089d565b925050602061097d85828601610932565b9150509250929050565b610990816108df565b811461099b57600080fd5b50565b6000813590506109ad81610987565b92915050565b6000602082840312156109c9576109c8610877565b5b60006109d78482850161099e565b91505092915050565b6000602082840312156109f6576109f5610877565b5b6000610a0484828501610932565b91505092915050565b600082825260208201905092915050565b7f4f6e6c7920565246436f6f7264696e61746f722063616e2066756c66696c6c00600082015250565b6000610a54601f83610a0d565b9150610a5f82610a1e565b602082019050919050565b60006020820190508181036000830152610a8381610a47565b9050919050565b7f43616e206f6e6c792062652063616c6c6564206f6e6365000000000000000000600082015250565b6000610ac0601783610a0d565b9150610acb82610a8a565b602082019050919050565b60006020820190508181036000830152610aef81610ab3565b9050919050565b7f4f6e6c79206f776e65722063616e2063616c6c20746869732066756e6374696f60008201527f6e2e000000000000000000000000000000000000000000000000000000000000602082015250565b6000610b52602283610a0d565b9150610b5d82610af6565b604082019050919050565b60006020820190508181036000830152610b8181610b45565b9050919050565b7f4e487b7100000000000000000000000000000000000000000000000000000000600052601160045260246000fd5b6000610bc282610843565b9150610bcd83610843565b9250828201905080821115610be557610be4610b88565b5b92915050565b600081519050610bfa8161091b565b92915050565b600060208284031215610c1657610c15610877565b5b6000610c2484828501610beb565b91505092915050565b7f4e6f7420656e6f756768204c494e4b202d2066696c6c20636f6e74726163742060008201527f7769746820666175636574000000000000000000000000000000000000000000602082015250565b6000610c89602b83610a0d565b9150610c9482610c2d565b604082019050919050565b60006020820190508181036000830152610cb881610c7c565b9050919050565b610cc88161087c565b82525050565b6000604082019050610ce36000830185610cbf565b610cf0602083018461084d565b9392505050565b600081519050919050565b600082825260208201905092915050565b60005b83811015610d31578082015181840152602081019050610d16565b60008484015250505050565b6000601f19601f8301169050919050565b6000610d5982610cf7565b610d638185610d02565b9350610d73818560208601610d13565b610d7c81610d3d565b840191505092915050565b6000606082019050610d9c60008301866108f1565b610da9602083018561084d565b8181036040830152610dbb8184610d4e565b9050949350505050565b60008115159050919050565b610dda81610dc5565b8114610de557600080fd5b50565b600081519050610df781610dd1565b92915050565b600060208284031215610e1357610e12610877565b5b6000610e2184828501610de8565b91505092915050565b6000608082019050610e3f6000830187610cbf565b610e4c602083018661084d565b610e5960408301856108f1565b610e66606083018461084d565b95945050505050565b6000819050919050565b610e8a610e858261087c565b610e6f565b82525050565b6000819050919050565b610eab610ea682610843565b610e90565b82525050565b6000610ebd8285610e79565b602082019150610ecd8284610e9a565b602082019150819050939250505056fea2646970667358221220ea9ced04123fcc38db4d3f285a6d240164226c1bc9763a8be4842a6cb4169bf664736f6c63430008110033",
  "linkReferences": {},
  "deployedLinkReferences": {}
}