{"contracts/test_re_entrancy_guard.sol":{"TestReentrancyGuard":{"abi":[{"inputs":[{"internalType":"uint256","name":"_max","type":"uint256"}],"stateMutability":"nonpayable","type":"constructor"},{"stateMutability":"nonpayable","type":"fallback"},{"inputs":[{"internalType":"address","name":"contract_re_rentrancy","type":"address"}],"name":"call_test","outputs":[],"stateMutability":"nonpayable","type":"function"},{"inputs":[],"name":"count","outputs":[{"internalType":"uint256","name":"","type":"uint256"}],"stateMutability":"view","type":"function"},{"inputs":[],"name":"max","outputs":[{"internalType":"uint256","name":"","type":"uint256"}],"stateMutability":"view","type":"function"}],"evm":{"bytecode":{"linkReferences":{},"object":"60a060405234801561001057600080fd5b506040516107483803806107488339818101604052810190610032919061007b565b8060808181525050506100a8565b600080fd5b6000819050919050565b61005881610045565b811461006357600080fd5b50565b6000815190506100758161004f565b92915050565b60006020828403121561009157610090610040565b5b600061009f84828501610066565b91505092915050565b60805161067f6100c96000396000818160480152610227015261067f6000f3fe608060405234801561001057600080fd5b50600436106100455760003560e01c806306661abd146101c75780636ac5db19146101e5578063e035d05f1461020357610046565b5b7f000000000000000000000000000000000000000000000000000000000000000060005410156101c557600160008082825461008291906103c0565b9250508190555060003373ffffffffffffffffffffffffffffffffffffffff16306040516024016100b39190610435565b6040516020818303038152906040527fbb29998e000000000000000000000000000000000000000000000000000000007bffffffffffffffffffffffffffffffffffffffffffffffffffffffff19166020820180517bffffffffffffffffffffffffffffffffffffffffffffffffffffffff838183161783525050505060405161013d91906104c1565b6000604051808303816000865af19150503d806000811461017a576040519150601f19603f3d011682016040523d82523d6000602084013e61017f565b606091505b50509050806101c3576040517f08c379a00000000000000000000000000000000000000000000000000000000081526004016101ba90610535565b60405180910390fd5b505b005b6101cf61021f565b6040516101dc9190610564565b60405180910390f35b6101ed610225565b6040516101fa9190610564565b60405180910390f35b61021d600480360381019061021891906105b0565b610249565b005b60005481565b7f000000000000000000000000000000000000000000000000000000000000000081565b60008173ffffffffffffffffffffffffffffffffffffffff16306040516024016102739190610435565b6040516020818303038152906040527fbb29998e000000000000000000000000000000000000000000000000000000007bffffffffffffffffffffffffffffffffffffffffffffffffffffffff19166020820180517bffffffffffffffffffffffffffffffffffffffffffffffffffffffff83818316178352505050506040516102fd91906104c1565b6000604051808303816000865af19150503d806000811461033a576040519150601f19603f3d011682016040523d82523d6000602084013e61033f565b606091505b5050905080610383576040517f08c379a000000000000000000000000000000000000000000000000000000000815260040161037a90610629565b60405180910390fd5b5050565b6000819050919050565b7f4e487b7100000000000000000000000000000000000000000000000000000000600052601160045260246000fd5b60006103cb82610387565b91506103d683610387565b92508282019050808211156103ee576103ed610391565b5b92915050565b600073ffffffffffffffffffffffffffffffffffffffff82169050919050565b600061041f826103f4565b9050919050565b61042f81610414565b82525050565b600060208201905061044a6000830184610426565b92915050565b600081519050919050565b600081905092915050565b60005b83811015610484578082015181840152602081019050610469565b60008484015250505050565b600061049b82610450565b6104a5818561045b565b93506104b5818560208601610466565b80840191505092915050565b60006104cd8284610490565b915081905092915050565b600082825260208201905092915050565b7f63616c6c206261636b206661696c656400000000000000000000000000000000600082015250565b600061051f6010836104d8565b915061052a826104e9565b602082019050919050565b6000602082019050818103600083015261054e81610512565b9050919050565b61055e81610387565b82525050565b60006020820190506105796000830184610555565b92915050565b600080fd5b61058d81610414565b811461059857600080fd5b50565b6000813590506105aa81610584565b92915050565b6000602082840312156105c6576105c561057f565b5b60006105d48482850161059b565b91505092915050565b7f66697273742063616c6c206661696c6564000000000000000000000000000000600082015250565b60006106136011836104d8565b915061061e826105dd565b602082019050919050565b6000602082019050818103600083015261064281610606565b905091905056fea2646970667358221220ce31557d7ac7950037772d7aadb0d39e91504c9f771196e5d26fb6b32553233164736f6c63430008110033","opcodes":"PUSH1 0xA0 PUSH1 0x40 MSTORE CALLVALUE DUP1 ISZERO PUSH2 0x10 JUMPI PUSH1 0x0 DUP1 REVERT JUMPDEST POP PUSH1 0x40 MLOAD PUSH2 0x748 CODESIZE SUB DUP1 PUSH2 0x748 DUP4 CODECOPY DUP2 DUP2 ADD PUSH1 0x40 MSTORE DUP2 ADD SWAP1 PUSH2 0x32 SWAP2 SWAP1 PUSH2 0x7B JUMP JUMPDEST DUP1 PUSH1 0x80 DUP2 DUP2 MSTORE POP POP POP PUSH2 0xA8 JUMP JUMPDEST PUSH1 0x0 DUP1 REVERT JUMPDEST PUSH1 0x0 DUP2 SWAP1 POP SWAP2 SWAP1 POP JUMP JUMPDEST PUSH2 0x58 DUP2 PUSH2 0x45 JUMP JUMPDEST DUP2 EQ PUSH2 0x63 JUMPI PUSH1 0x0 DUP1 REVERT JUMPDEST POP JUMP JUMPDEST PUSH1 0x0 DUP2 MLOAD SWAP1 POP PUSH2 0x75 DUP2 PUSH2 0x4F JUMP JUMPDEST SWAP3 SWAP2 POP POP JUMP JUMPDEST PUSH1 0x0 PUSH1 0x20 DUP3 DUP5 SUB SLT ISZERO PUSH2 0x91 JUMPI PUSH2 0x90 PUSH2 0x40 JUMP JUMPDEST JUMPDEST PUSH1 0x0 PUSH2 0x9F DUP5 DUP3 DUP6 ADD PUSH2 0x66 JUMP JUMPDEST SWAP2 POP POP SWAP3 SWAP2 POP POP JUMP JUMPDEST PUSH1 0x80 MLOAD PUSH2 0x67F PUSH2 0xC9 PUSH1 0x0 CODECOPY PUSH1 0x0 DUP2 DUP2 PUSH1 0x48 ADD MSTORE PUSH2 0x227 ADD MSTORE PUSH2 0x67F PUSH1 0x0 RETURN INVALID PUSH1 0x80 PUSH1 0x40 MSTORE CALLVALUE DUP1 ISZERO PUSH2 0x10 JUMPI PUSH1 0x0 DUP1 REVERT JUMPDEST POP PUSH1 0x4 CALLDATASIZE LT PUSH2 0x45 JUMPI PUSH1 0x0 CALLDATALOAD PUSH1 0xE0 SHR DUP1 PUSH4 0x6661ABD EQ PUSH2 0x1C7 JUMPI DUP1 PUSH4 0x6AC5DB19 EQ PUSH2 0x1E5 JUMPI DUP1 PUSH4 0xE035D05F EQ PUSH2 0x203 JUMPI PUSH2 0x46 JUMP JUMPDEST JUMPDEST PUSH32 0x0 PUSH1 0x0 SLOAD LT ISZERO PUSH2 0x1C5 JUMPI PUSH1 0x1 PUSH1 0x0 DUP1 DUP3 DUP3 SLOAD PUSH2 0x82 SWAP2 SWAP1 PUSH2 0x3C0 JUMP JUMPDEST SWAP3 POP POP DUP2 SWAP1 SSTORE POP PUSH1 0x0 CALLER PUSH20 0xFFFFFFFFFFFFFFFFFFFFFFFFFFFFFFFFFFFFFFFF AND ADDRESS PUSH1 0x40 MLOAD PUSH1 0x24 ADD PUSH2 0xB3 SWAP2 SWAP1 PUSH2 0x435 JUMP JUMPDEST PUSH1 0x40 MLOAD PUSH1 0x20 DUP2 DUP4 SUB SUB DUP2 MSTORE SWAP1 PUSH1 0x40 MSTORE PUSH32 0xBB29998E00000000000000000000000000000000000000000000000000000000 PUSH28 0xFFFFFFFFFFFFFFFFFFFFFFFFFFFFFFFFFFFFFFFFFFFFFFFFFFFFFFFF NOT AND PUSH1 0x20 DUP3 ADD DUP1 MLOAD PUSH28 0xFFFFFFFFFFFFFFFFFFFFFFFFFFFFFFFFFFFFFFFFFFFFFFFFFFFFFFFF DUP4 DUP2 DUP4 AND OR DUP4 MSTORE POP POP POP POP PUSH1 0x40 MLOAD PUSH2 0x13D SWAP2 SWAP1 PUSH2 0x4C1 JUMP JUMPDEST PUSH1 0x0 PUSH1 0x40 MLOAD DUP1 DUP4 SUB DUP2 PUSH1 0x0 DUP7 GAS CALL SWAP2 POP POP RETURNDATASIZE DUP1 PUSH1 0x0 DUP2 EQ PUSH2 0x17A JUMPI PUSH1 0x40 MLOAD SWAP2 POP PUSH1 0x1F NOT PUSH1 0x3F RETURNDATASIZE ADD AND DUP3 ADD PUSH1 0x40 MSTORE RETURNDATASIZE DUP3 MSTORE RETURNDATASIZE PUSH1 0x0 PUSH1 0x20 DUP5 ADD RETURNDATACOPY PUSH2 0x17F JUMP JUMPDEST PUSH1 0x60 SWAP2 POP JUMPDEST POP POP SWAP1 POP DUP1 PUSH2 0x1C3 JUMPI PUSH1 0x40 MLOAD PUSH32 0x8C379A000000000000000000000000000000000000000000000000000000000 DUP2 MSTORE PUSH1 0x4 ADD PUSH2 0x1BA SWAP1 PUSH2 0x535 JUMP JUMPDEST PUSH1 0x40 MLOAD DUP1 SWAP2 SUB SWAP1 REVERT JUMPDEST POP JUMPDEST STOP JUMPDEST PUSH2 0x1CF PUSH2 0x21F JUMP JUMPDEST PUSH1 0x40 MLOAD PUSH2 0x1DC SWAP2 SWAP1 PUSH2 0x564 JUMP JUMPDEST PUSH1 0x40 MLOAD DUP1 SWAP2 SUB SWAP1 RETURN JUMPDEST PUSH2 0x1ED PUSH2 0x225 JUMP JUMPDEST PUSH1 0x40 MLOAD PUSH2 0x1FA SWAP2 SWAP1 PUSH2 0x564 JUMP JUMPDEST PUSH1 0x40 MLOAD DUP1 SWAP2 SUB SWAP1 RETURN JUMPDEST PUSH2 0x21D PUSH1 0x4 DUP1 CALLDATASIZE SUB DUP2 ADD SWAP1 PUSH2 0x218 SWAP2 SWAP1 PUSH2 0x5B0 JUMP JUMPDEST PUSH2 0x249 JUMP JUMPDEST STOP JUMPDEST PUSH1 0x0 SLOAD DUP2 JUMP JUMPDEST PUSH32 0x0 DUP2 JUMP JUMPDEST PUSH1 0x0 DUP2 PUSH20 0xFFFFFFFFFFFFFFFFFFFFFFFFFFFFFFFFFFFFFFFF AND ADDRESS PUSH1 0x40 MLOAD PUSH1 0x24 ADD PUSH2 0x273 SWAP2 SWAP1 PUSH2 0x435 JUMP JUMPDEST PUSH1 0x40 MLOAD PUSH1 0x20 DUP2 DUP4 SUB SUB DUP2 MSTORE SWAP1 PUSH1 0x40 MSTORE PUSH32 0xBB29998E00000000000000000000000000000000000000000000000000000000 PUSH28 0xFFFFFFFFFFFFFFFFFFFFFFFFFFFFFFFFFFFFFFFFFFFFFFFFFFFFFFFF NOT AND PUSH1 0x20 DUP3 ADD DUP1 MLOAD PUSH28 0xFFFFFFFFFFFFFFFFFFFFFFFFFFFFFFFFFFFFFFFFFFFFFFFFFFFFFFFF DUP4 DUP2 DUP4 AND OR DUP4 MSTORE POP POP POP POP PUSH1 0x40 MLOAD PUSH2 0x2FD SWAP2 SWAP1 PUSH2 0x4C1 JUMP JUMPDEST PUSH1 0x0 PUSH1 0x40 MLOAD DUP1 DUP4 SUB DUP2 PUSH1 0x0 DUP7 GAS CALL SWAP2 POP POP RETURNDATASIZE DUP1 PUSH1 0x0 DUP2 EQ PUSH2 0x33A JUMPI PUSH1 0x40 MLOAD SWAP2 POP PUSH1 0x1F NOT PUSH1 0x3F RETURNDATASIZE ADD AND DUP3 ADD PUSH1 0x40 MSTORE RETURNDATASIZE DUP3 MSTORE RETURNDATASIZE PUSH1 0x0 PUSH1 0x20 DUP5 ADD RETURNDATACOPY PUSH2 0x33F JUMP JUMPDEST PUSH1 0x60 SWAP2 POP JUMPDEST POP POP SWAP1 POP DUP1 PUSH2 0x383 JUMPI PUSH1 0x40 MLOAD PUSH32 0x8C379A000000000000000000000000000000000000000000000000000000000 DUP2 MSTORE PUSH1 0x4 ADD PUSH2 0x37A SWAP1 PUSH2 0x629 JUMP JUMPDEST PUSH1 0x40 MLOAD DUP1 SWAP2 SUB SWAP1 REVERT JUMPDEST POP POP JUMP JUMPDEST PUSH1 0x0 DUP2 SWAP1 POP SWAP2 SWAP1 POP JUMP JUMPDEST PUSH32 0x4E487B7100000000000000000000000000000000000000000000000000000000 PUSH1 0x0 MSTORE PUSH1 0x11 PUSH1 0x4 MSTORE PUSH1 0x24 PUSH1 0x0 REVERT JUMPDEST PUSH1 0x0 PUSH2 0x3CB DUP3 PUSH2 0x387 JUMP JUMPDEST SWAP2 POP PUSH2 0x3D6 DUP4 PUSH2 0x387 JUMP JUMPDEST SWAP3 POP DUP3 DUP3 ADD SWAP1 POP DUP1 DUP3 GT ISZERO PUSH2 0x3EE JUMPI PUSH2 0x3ED PUSH2 0x391 JUMP JUMPDEST JUMPDEST SWAP3 SWAP2 POP POP JUMP JUMPDEST PUSH1 0x0 PUSH20 0xFFFFFFFFFFFFFFFFFFFFFFFFFFFFFFFFFFFFFFFF DUP3 AND SWAP1 POP SWAP2 SWAP1 POP JUMP JUMPDEST PUSH1 0x0 PUSH2 0x41F DUP3 PUSH2 0x3F4 JUMP JUMPDEST SWAP1 POP SWAP2 SWAP1 POP JUMP JUMPDEST PUSH2 0x42F DUP2 PUSH2 0x414 JUMP JUMPDEST DUP3 MSTORE POP POP JUMP JUMPDEST PUSH1 0x0 PUSH1 0x20 DUP3 ADD SWAP1 POP PUSH2 0x44A PUSH1 0x0 DUP4 ADD DUP5 PUSH2 0x426 JUMP JUMPDEST SWAP3 SWAP2 POP POP JUMP JUMPDEST PUSH1 0x0 DUP2 MLOAD SWAP1 POP SWAP2 SWAP1 POP JUMP JUMPDEST PUSH1 0x0 DUP2 SWAP1 POP SWAP3 SWAP2 POP POP JUMP JUMPDEST PUSH1 0x0 JUMPDEST DUP4 DUP2 LT ISZERO PUSH2 0x484 JUMPI DUP1 DUP3 ADD MLOAD DUP2 DUP5 ADD MSTORE PUSH1 0x20 DUP2 ADD SWAP1 POP PUSH2 0x469 JUMP JUMPDEST PUSH1 0x0 DUP5 DUP5 ADD MSTORE POP POP POP POP JUMP JUMPDEST PUSH1 0x0 PUSH2 0x49B DUP3 PUSH2 0x450 JUMP JUMPDEST PUSH2 0x4A5 DUP2 DUP6 PUSH2 0x45B JUMP JUMPDEST SWAP4 POP PUSH2 0x4B5 DUP2 DUP6 PUSH1 0x20 DUP7 ADD PUSH2 0x466 JUMP JUMPDEST DUP1 DUP5 ADD SWAP2 POP POP SWAP3 SWAP2 POP POP JUMP JUMPDEST PUSH1 0x0 PUSH2 0x4CD DUP3 DUP5 PUSH2 0x490 JUMP JUMPDEST SWAP2 POP DUP2 SWAP1 POP SWAP3 SWAP2 POP POP JUMP JUMPDEST PUSH1 0x0 DUP3 DUP3 MSTORE PUSH1 0x20 DUP3 ADD SWAP1 POP SWAP3 SWAP2 POP POP JUMP JUMPDEST PUSH32 0x63616C6C206261636B206661696C656400000000000000000000000000000000 PUSH1 0x0 DUP3 ADD MSTORE POP JUMP JUMPDEST PUSH1 0x0 PUSH2 0x51F PUSH1 0x10 DUP4 PUSH2 0x4D8 JUMP JUMPDEST SWAP2 POP PUSH2 0x52A DUP3 PUSH2 0x4E9 JUMP JUMPDEST PUSH1 0x20 DUP3 ADD SWAP1 POP SWAP2 SWAP1 POP JUMP JUMPDEST PUSH1 0x0 PUSH1 0x20 DUP3 ADD SWAP1 POP DUP2 DUP2 SUB PUSH1 0x0 DUP4 ADD MSTORE PUSH2 0x54E DUP2 PUSH2 0x512 JUMP JUMPDEST SWAP1 POP SWAP2 SWAP1 POP JUMP JUMPDEST PUSH2 0x55E DUP2 PUSH2 0x387 JUMP JUMPDEST DUP3 MSTORE POP POP JUMP JUMPDEST PUSH1 0x0 PUSH1 0x20 DUP3 ADD SWAP1 POP PUSH2 0x579 PUSH1 0x0 DUP4 ADD DUP5 PUSH2 0x555 JUMP JUMPDEST SWAP3 SWAP2 POP POP JUMP JUMPDEST PUSH1 0x0 DUP1 REVERT JUMPDEST PUSH2 0x58D DUP2 PUSH2 0x414 JUMP JUMPDEST DUP2 EQ PUSH2 0x598 JUMPI PUSH1 0x0 DUP1 REVERT JUMPDEST POP JUMP JUMPDEST PUSH1 0x0 DUP2 CALLDATALOAD SWAP1 POP PUSH2 0x5AA DUP2 PUSH2 0x584 JUMP JUMPDEST SWAP3 SWAP2 POP POP JUMP JUMPDEST PUSH1 0x0 PUSH1 0x20 DUP3 DUP5 SUB SLT ISZERO PUSH2 0x5C6 JUMPI PUSH2 0x5C5 PUSH2 0x57F JUMP JUMPDEST JUMPDEST PUSH1 0x0 PUSH2 0x5D4 DUP5 DUP3 DUP6 ADD PUSH2 0x59B JUMP JUMPDEST SWAP2 POP POP SWAP3 SWAP2 POP POP JUMP JUMPDEST PUSH32 0x66697273742063616C6C206661696C6564000000000000000000000000000000 PUSH1 0x0 DUP3 ADD MSTORE POP JUMP JUMPDEST PUSH1 0x0 PUSH2 0x613 PUSH1 0x11 DUP4 PUSH2 0x4D8 JUMP JUMPDEST SWAP2 POP PUSH2 0x61E DUP3 PUSH2 0x5DD JUMP JUMPDEST PUSH1 0x20 DUP3 ADD SWAP1 POP SWAP2 SWAP1 POP JUMP JUMPDEST PUSH1 0x0 PUSH1 0x20 DUP3 ADD SWAP1 POP DUP2 DUP2 SUB PUSH1 0x0 DUP4 ADD MSTORE PUSH2 0x642 DUP2 PUSH2 0x606 JUMP JUMPDEST SWAP1 POP SWAP2 SWAP1 POP JUMP INVALID LOG2 PUSH5 0x6970667358 0x22 SLT KECCAK256 0xCE BALANCE SSTORE PUSH30 0x7AC7950037772D7AADB0D39E91504C9F771196E5D26FB6B3255323316473 PUSH16 0x6C634300081100330000000000000000 "},"methodIdentifiers":{"call_test(address)":"e035d05f","count()":"06661abd","max()":"6ac5db19"}}}}}