{"contracts/re_entrancy_guard.sol":{"ReentrancyGuard":{"abi":[{"inputs":[],"name":"count","outputs":[{"internalType":"uint256","name":"","type":"uint256"}],"stateMutability":"view","type":"function"},{"inputs":[{"internalType":"address","name":"_contract","type":"address"}],"name":"test","outputs":[],"stateMutability":"nonpayable","type":"function"}],"evm":{"bytecode":{"linkReferences":{},"object":"60806040526000600160006101000a81548160ff02191690831515021790555034801561002b57600080fd5b506104548061003b6000396000f3fe608060405234801561001057600080fd5b50600436106100365760003560e01c806306661abd1461003b578063bb29998e14610059575b600080fd5b610043610075565b60405161005091906101e1565b60405180910390f35b610073600480360381019061006e919061025f565b61007b565b005b60005481565b600160009054906101000a900460ff16156100cb576040517f08c379a00000000000000000000000000000000000000000000000000000000081526004016100c2906102e9565b60405180910390fd5b60018060006101000a81548160ff02191690831515021790555060008173ffffffffffffffffffffffffffffffffffffffff1660405161010a9061033a565b6000604051808303816000865af19150503d8060008114610147576040519150601f19603f3d011682016040523d82523d6000602084013e61014c565b606091505b5050905080610190576040517f08c379a00000000000000000000000000000000000000000000000000000000081526004016101879061039b565b60405180910390fd5b60016000808282546101a291906103ea565b92505081905550506000600160006101000a81548160ff02191690831515021790555050565b6000819050919050565b6101db816101c8565b82525050565b60006020820190506101f660008301846101d2565b92915050565b600080fd5b600073ffffffffffffffffffffffffffffffffffffffff82169050919050565b600061022c82610201565b9050919050565b61023c81610221565b811461024757600080fd5b50565b60008135905061025981610233565b92915050565b600060208284031215610275576102746101fc565b5b60006102838482850161024a565b91505092915050565b600082825260208201905092915050565b7f4c6f636b65640000000000000000000000000000000000000000000000000000600082015250565b60006102d360068361028c565b91506102de8261029d565b602082019050919050565b60006020820190508181036000830152610302816102c6565b9050919050565b600081905092915050565b50565b6000610324600083610309565b915061032f82610314565b600082019050919050565b600061034582610317565b9150819050919050565b7f7478206661696c65640000000000000000000000000000000000000000000000600082015250565b600061038560098361028c565b91506103908261034f565b602082019050919050565b600060208201905081810360008301526103b481610378565b9050919050565b7f4e487b7100000000000000000000000000000000000000000000000000000000600052601160045260246000fd5b60006103f5826101c8565b9150610400836101c8565b9250828201905080821115610418576104176103bb565b5b9291505056fea2646970667358221220f86d107b5220eae97f2e93770b0997d78fcbbae4e477e631db46e6ee04f593f364736f6c63430008110033","opcodes":"PUSH1 0x80 PUSH1 0x40 MSTORE PUSH1 0x0 PUSH1 0x1 PUSH1 0x0 PUSH2 0x100 EXP DUP2 SLOAD DUP2 PUSH1 0xFF MUL NOT AND SWAP1 DUP4 ISZERO ISZERO MUL OR SWAP1 SSTORE POP CALLVALUE DUP1 ISZERO PUSH2 0x2B JUMPI PUSH1 0x0 DUP1 REVERT JUMPDEST POP PUSH2 0x454 DUP1 PUSH2 0x3B PUSH1 0x0 CODECOPY PUSH1 0x0 RETURN INVALID PUSH1 0x80 PUSH1 0x40 MSTORE CALLVALUE DUP1 ISZERO PUSH2 0x10 JUMPI PUSH1 0x0 DUP1 REVERT JUMPDEST POP PUSH1 0x4 CALLDATASIZE LT PUSH2 0x36 JUMPI PUSH1 0x0 CALLDATALOAD PUSH1 0xE0 SHR DUP1 PUSH4 0x6661ABD EQ PUSH2 0x3B JUMPI DUP1 PUSH4 0xBB29998E EQ PUSH2 0x59 JUMPI JUMPDEST PUSH1 0x0 DUP1 REVERT JUMPDEST PUSH2 0x43 PUSH2 0x75 JUMP JUMPDEST PUSH1 0x40 MLOAD PUSH2 0x50 SWAP2 SWAP1 PUSH2 0x1E1 JUMP JUMPDEST PUSH1 0x40 MLOAD DUP1 SWAP2 SUB SWAP1 RETURN JUMPDEST PUSH2 0x73 PUSH1 0x4 DUP1 CALLDATASIZE SUB DUP2 ADD SWAP1 PUSH2 0x6E SWAP2 SWAP1 PUSH2 0x25F JUMP JUMPDEST PUSH2 0x7B JUMP JUMPDEST STOP JUMPDEST PUSH1 0x0 SLOAD DUP2 JUMP JUMPDEST PUSH1 0x1 PUSH1 0x0 SWAP1 SLOAD SWAP1 PUSH2 0x100 EXP SWAP1 DIV PUSH1 0xFF AND ISZERO PUSH2 0xCB JUMPI PUSH1 0x40 MLOAD PUSH32 0x8C379A000000000000000000000000000000000000000000000000000000000 DUP2 MSTORE PUSH1 0x4 ADD PUSH2 0xC2 SWAP1 PUSH2 0x2E9 JUMP JUMPDEST PUSH1 0x40 MLOAD DUP1 SWAP2 SUB SWAP1 REVERT JUMPDEST PUSH1 0x1 DUP1 PUSH1 0x0 PUSH2 0x100 EXP DUP2 SLOAD DUP2 PUSH1 0xFF MUL NOT AND SWAP1 DUP4 ISZERO ISZERO MUL OR SWAP1 SSTORE POP PUSH1 0x0 DUP2 PUSH20 0xFFFFFFFFFFFFFFFFFFFFFFFFFFFFFFFFFFFFFFFF AND PUSH1 0x40 MLOAD PUSH2 0x10A SWAP1 PUSH2 0x33A JUMP JUMPDEST PUSH1 0x0 PUSH1 0x40 MLOAD DUP1 DUP4 SUB DUP2 PUSH1 0x0 DUP7 GAS CALL SWAP2 POP POP RETURNDATASIZE DUP1 PUSH1 0x0 DUP2 EQ PUSH2 0x147 JUMPI PUSH1 0x40 MLOAD SWAP2 POP PUSH1 0x1F NOT PUSH1 0x3F RETURNDATASIZE ADD AND DUP3 ADD PUSH1 0x40 MSTORE RETURNDATASIZE DUP3 MSTORE RETURNDATASIZE PUSH1 0x0 PUSH1 0x20 DUP5 ADD RETURNDATACOPY PUSH2 0x14C JUMP JUMPDEST PUSH1 0x60 SWAP2 POP JUMPDEST POP POP SWAP1 POP DUP1 PUSH2 0x190 JUMPI PUSH1 0x40 MLOAD PUSH32 0x8C379A000000000000000000000000000000000000000000000000000000000 DUP2 MSTORE PUSH1 0x4 ADD PUSH2 0x187 SWAP1 PUSH2 0x39B JUMP JUMPDEST PUSH1 0x40 MLOAD DUP1 SWAP2 SUB SWAP1 REVERT JUMPDEST PUSH1 0x1 PUSH1 0x0 DUP1 DUP3 DUP3 SLOAD PUSH2 0x1A2 SWAP2 SWAP1 PUSH2 0x3EA JUMP JUMPDEST SWAP3 POP POP DUP2 SWAP1 SSTORE POP POP PUSH1 0x0 PUSH1 0x1 PUSH1 0x0 PUSH2 0x100 EXP DUP2 SLOAD DUP2 PUSH1 0xFF MUL NOT AND SWAP1 DUP4 ISZERO ISZERO MUL OR SWAP1 SSTORE POP POP JUMP JUMPDEST PUSH1 0x0 DUP2 SWAP1 POP SWAP2 SWAP1 POP JUMP JUMPDEST PUSH2 0x1DB DUP2 PUSH2 0x1C8 JUMP JUMPDEST DUP3 MSTORE POP POP JUMP JUMPDEST PUSH1 0x0 PUSH1 0x20 DUP3 ADD SWAP1 POP PUSH2 0x1F6 PUSH1 0x0 DUP4 ADD DUP5 PUSH2 0x1D2 JUMP JUMPDEST SWAP3 SWAP2 POP POP JUMP JUMPDEST PUSH1 0x0 DUP1 REVERT JUMPDEST PUSH1 0x0 PUSH20 0xFFFFFFFFFFFFFFFFFFFFFFFFFFFFFFFFFFFFFFFF DUP3 AND SWAP1 POP SWAP2 SWAP1 POP JUMP JUMPDEST PUSH1 0x0 PUSH2 0x22C DUP3 PUSH2 0x201 JUMP JUMPDEST SWAP1 POP SWAP2 SWAP1 POP JUMP JUMPDEST PUSH2 0x23C DUP2 PUSH2 0x221 JUMP JUMPDEST DUP2 EQ PUSH2 0x247 JUMPI PUSH1 0x0 DUP1 REVERT JUMPDEST POP JUMP JUMPDEST PUSH1 0x0 DUP2 CALLDATALOAD SWAP1 POP PUSH2 0x259 DUP2 PUSH2 0x233 JUMP JUMPDEST SWAP3 SWAP2 POP POP JUMP JUMPDEST PUSH1 0x0 PUSH1 0x20 DUP3 DUP5 SUB SLT ISZERO PUSH2 0x275 JUMPI PUSH2 0x274 PUSH2 0x1FC JUMP JUMPDEST JUMPDEST PUSH1 0x0 PUSH2 0x283 DUP5 DUP3 DUP6 ADD PUSH2 0x24A JUMP JUMPDEST SWAP2 POP POP SWAP3 SWAP2 POP POP JUMP JUMPDEST PUSH1 0x0 DUP3 DUP3 MSTORE PUSH1 0x20 DUP3 ADD SWAP1 POP SWAP3 SWAP2 POP POP JUMP JUMPDEST PUSH32 0x4C6F636B65640000000000000000000000000000000000000000000000000000 PUSH1 0x0 DUP3 ADD MSTORE POP JUMP JUMPDEST PUSH1 0x0 PUSH2 0x2D3 PUSH1 0x6 DUP4 PUSH2 0x28C JUMP JUMPDEST SWAP2 POP PUSH2 0x2DE DUP3 PUSH2 0x29D JUMP JUMPDEST PUSH1 0x20 DUP3 ADD SWAP1 POP SWAP2 SWAP1 POP JUMP JUMPDEST PUSH1 0x0 PUSH1 0x20 DUP3 ADD SWAP1 POP DUP2 DUP2 SUB PUSH1 0x0 DUP4 ADD MSTORE PUSH2 0x302 DUP2 PUSH2 0x2C6 JUMP JUMPDEST SWAP1 POP SWAP2 SWAP1 POP JUMP JUMPDEST PUSH1 0x0 DUP2 SWAP1 POP SWAP3 SWAP2 POP POP JUMP JUMPDEST POP JUMP JUMPDEST PUSH1 0x0 PUSH2 0x324 PUSH1 0x0 DUP4 PUSH2 0x309 JUMP JUMPDEST SWAP2 POP PUSH2 0x32F DUP3 PUSH2 0x314 JUMP JUMPDEST PUSH1 0x0 DUP3 ADD SWAP1 POP SWAP2 SWAP1 POP JUMP JUMPDEST PUSH1 0x0 PUSH2 0x345 DUP3 PUSH2 0x317 JUMP JUMPDEST SWAP2 POP DUP2 SWAP1 POP SWAP2 SWAP1 POP JUMP JUMPDEST PUSH32 0x7478206661696C65640000000000000000000000000000000000000000000000 PUSH1 0x0 DUP3 ADD MSTORE POP JUMP JUMPDEST PUSH1 0x0 PUSH2 0x385 PUSH1 0x9 DUP4 PUSH2 0x28C JUMP JUMPDEST SWAP2 POP PUSH2 0x390 DUP3 PUSH2 0x34F JUMP JUMPDEST PUSH1 0x20 DUP3 ADD SWAP1 POP SWAP2 SWAP1 POP JUMP JUMPDEST PUSH1 0x0 PUSH1 0x20 DUP3 ADD SWAP1 POP DUP2 DUP2 SUB PUSH1 0x0 DUP4 ADD MSTORE PUSH2 0x3B4 DUP2 PUSH2 0x378 JUMP JUMPDEST SWAP1 POP SWAP2 SWAP1 POP JUMP JUMPDEST PUSH32 0x4E487B7100000000000000000000000000000000000000000000000000000000 PUSH1 0x0 MSTORE PUSH1 0x11 PUSH1 0x4 MSTORE PUSH1 0x24 PUSH1 0x0 REVERT JUMPDEST PUSH1 0x0 PUSH2 0x3F5 DUP3 PUSH2 0x1C8 JUMP JUMPDEST SWAP2 POP PUSH2 0x400 DUP4 PUSH2 0x1C8 JUMP JUMPDEST SWAP3 POP DUP3 DUP3 ADD SWAP1 POP DUP1 DUP3 GT ISZERO PUSH2 0x418 JUMPI PUSH2 0x417 PUSH2 0x3BB JUMP JUMPDEST JUMPDEST SWAP3 SWAP2 POP POP JUMP INVALID LOG2 PUSH5 0x6970667358 0x22 SLT KECCAK256 0xF8 PUSH14 0x107B5220EAE97F2E93770B0997D7 DUP16 0xCB 0xBA 0xE4 0xE4 PUSH24 0xE631DB46E6EE04F593F364736F6C63430008110033000000 "},"methodIdentifiers":{"count()":"06661abd","test(address)":"bb29998e"}}}}}