{
  "_format": "hh-sol-artifact-1",
  "contractName": "CFT",
  "sourceName": "contracts/ERC20.sol",
  "abi": [
    {
      "inputs": [],
      "stateMutability": "nonpayable",
      "type": "constructor"
    },
    {
      "anonymous": false,
      "inputs": [
        {
          "indexed": true,
          "internalType": "address",
          "name": "owner",
          "type": "address"
        },
        {
          "indexed": true,
          "internalType": "address",
          "name": "spender",
          "type": "address"
        },
        {
          "indexed": false,
          "internalType": "uint256",
          "name": "amount",
          "type": "uint256"
        }
      ],
      "name": "Approval",
      "type": "event"
    },
    {
      "anonymous": false,
      "inputs": [
        {
          "indexed": true,
          "internalType": "address",
          "name": "from",
          "type": "address"
        },
        {
          "indexed": true,
          "internalType": "address",
          "name": "to",
          "type": "address"
        },
        {
          "indexed": false,
          "internalType": "uint256",
          "name": "amount",
          "type": "uint256"
        }
      ],
      "name": "Transfer",
      "type": "event"
    },
    {
      "inputs": [
        {
          "internalType": "address",
          "name": "",
          "type": "address"
        },
        {
          "internalType": "address",
          "name": "",
          "type": "address"
        }
      ],
      "name": "allowance",
      "outputs": [
        {
          "internalType": "uint256",
          "name": "",
          "type": "uint256"
        }
      ],
      "stateMutability": "view",
      "type": "function"
    },
    {
      "inputs": [
        {
          "internalType": "address",
          "name": "spender",
          "type": "address"
        },
        {
          "internalType": "uint256",
          "name": "amount",
          "type": "uint256"
        }
      ],
      "name": "approve",
      "outputs": [
        {
          "internalType": "bool",
          "name": "",
          "type": "bool"
        }
      ],
      "stateMutability": "nonpayable",
      "type": "function"
    },
    {
      "inputs": [
        {
          "internalType": "address",
          "name": "",
          "type": "address"
        }
      ],
      "name": "balanceOf",
      "outputs": [
        {
          "internalType": "uint256",
          "name": "",
          "type": "uint256"
        }
      ],
      "stateMutability": "view",
      "type": "function"
    },
    {
      "inputs": [
        {
          "internalType": "uint256",
          "name": "amount",
          "type": "uint256"
        }
      ],
      "name": "burn",
      "outputs": [],
      "stateMutability": "nonpayable",
      "type": "function"
    },
    {
      "inputs": [],
      "name": "decimals",
      "outputs": [
        {
          "internalType": "uint8",
          "name": "",
          "type": "uint8"
        }
      ],
      "stateMutability": "view",
      "type": "function"
    },
    {
      "inputs": [
        {
          "internalType": "uint256",
          "name": "amount",
          "type": "uint256"
        }
      ],
      "name": "mint",
      "outputs": [],
      "stateMutability": "nonpayable",
      "type": "function"
    },
    {
      "inputs": [],
      "name": "name",
      "outputs": [
        {
          "internalType": "string",
          "name": "",
          "type": "string"
        }
      ],
      "stateMutability": "view",
      "type": "function"
    },
    {
      "inputs": [],
      "name": "symbol",
      "outputs": [
        {
          "internalType": "string",
          "name": "",
          "type": "string"
        }
      ],
      "stateMutability": "view",
      "type": "function"
    },
    {
      "inputs": [],
      "name": "totalSupply",
      "outputs": [
        {
          "internalType": "uint256",
          "name": "",
          "type": "uint256"
        }
      ],
      "stateMutability": "view",
      "type": "function"
    },
    {
      "inputs": [
        {
          "internalType": "address",
          "name": "recipient",
          "type": "address"
        },
        {
          "internalType": "uint256",
          "name": "amount",
          "type": "uint256"
        }
      ],
      "name": "transfer",
      "outputs": [
        {
          "internalType": "bool",
          "name": "",
          "type": "bool"
        }
      ],
      "stateMutability": "nonpayable",
      "type": "function"
    },
    {
      "inputs": [
        {
          "internalType": "address",
          "name": "sender",
          "type": "address"
        },
        {
          "internalType": "address",
          "name": "recipient",
          "type": "address"
        },
        {
          "internalType": "uint256",
          "name": "amount",
          "type": "uint256"
        }
      ],
      "name": "transferFrom",
      "outputs": [
        {
          "internalType": "bool",
          "name": "",
          "type": "bool"
        }
      ],
      "stateMutability": "nonpayable",
      "type": "function"
    }
  ],
  "bytecode": "0x6080604052620f42406000556040518060400160405280600e81526020017f43726f776466756e64546f6b656e0000000000000000000000000000000000008152506003908162000051919062000389565b506040518060400160405280600381526020017f43465400000000000000000000000000000000000000000000000000000000008152506004908162000098919062000389565b506012600560006101000a81548160ff021916908360ff160217905550348015620000c257600080fd5b50600054600160003373ffffffffffffffffffffffffffffffffffffffff1673ffffffffffffffffffffffffffffffffffffffff1681526020019081526020016000208190555062000470565b600081519050919050565b7f4e487b7100000000000000000000000000000000000000000000000000000000600052604160045260246000fd5b7f4e487b7100000000000000000000000000000000000000000000000000000000600052602260045260246000fd5b600060028204905060018216806200019157607f821691505b602082108103620001a757620001a662000149565b5b50919050565b60008190508160005260206000209050919050565b60006020601f8301049050919050565b600082821b905092915050565b600060088302620002117fffffffffffffffffffffffffffffffffffffffffffffffffffffffffffffffff82620001d2565b6200021d8683620001d2565b95508019841693508086168417925050509392505050565b6000819050919050565b6000819050919050565b60006200026a620002646200025e8462000235565b6200023f565b62000235565b9050919050565b6000819050919050565b620002868362000249565b6200029e620002958262000271565b848454620001df565b825550505050565b600090565b620002b5620002a6565b620002c28184846200027b565b505050565b5b81811015620002ea57620002de600082620002ab565b600181019050620002c8565b5050565b601f82111562000339576200030381620001ad565b6200030e84620001c2565b810160208510156200031e578190505b620003366200032d85620001c2565b830182620002c7565b50505b505050565b600082821c905092915050565b60006200035e600019846008026200033e565b1980831691505092915050565b60006200037983836200034b565b9150826002028217905092915050565b62000394826200010f565b67ffffffffffffffff811115620003b057620003af6200011a565b5b620003bc825462000178565b620003c9828285620002ee565b600060209050601f831160018114620004015760008415620003ec578287015190505b620003f885826200036b565b86555062000468565b601f1984166200041186620001ad565b60005b828110156200043b5784890151825560018201915060208501945060208101905062000414565b868310156200045b578489015162000457601f8916826200034b565b8355505b6001600288020188555050505b505050505050565b610dc880620004806000396000f3fe608060405234801561001057600080fd5b50600436106100a95760003560e01c806342966c681161007157806342966c681461016857806370a082311461018457806395d89b41146101b4578063a0712d68146101d2578063a9059cbb146101ee578063dd62ed3e1461021e576100a9565b806306fdde03146100ae578063095ea7b3146100cc57806318160ddd146100fc57806323b872dd1461011a578063313ce5671461014a575b600080fd5b6100b661024e565b6040516100c39190610a1c565b60405180910390f35b6100e660048036038101906100e19190610ad7565b6102dc565b6040516100f39190610b32565b60405180910390f35b6101046103e0565b6040516101119190610b5c565b60405180910390f35b610134600480360381019061012f9190610b77565b6103e6565b6040516101419190610b32565b60405180910390f35b610152610597565b60405161015f9190610be6565b60405180910390f35b610182600480360381019061017d9190610c01565b6105aa565b005b61019e60048036038101906101999190610c2e565b610681565b6040516101ab9190610b5c565b60405180910390f35b6101bc610699565b6040516101c99190610a1c565b60405180910390f35b6101ec60048036038101906101e79190610c01565b610727565b005b61020860048036038101906102039190610ad7565b6107fe565b6040516102159190610b32565b60405180910390f35b61023860048036038101906102339190610c5b565b610967565b6040516102459190610b5c565b60405180910390f35b6003805461025b90610cca565b80601f016020809104026020016040519081016040528092919081815260200182805461028790610cca565b80156102d45780601f106102a9576101008083540402835291602001916102d4565b820191906000526020600020905b8154815290600101906020018083116102b757829003601f168201915b505050505081565b600081600260003373ffffffffffffffffffffffffffffffffffffffff1673ffffffffffffffffffffffffffffffffffffffff16815260200190815260200160002060008573ffffffffffffffffffffffffffffffffffffffff1673ffffffffffffffffffffffffffffffffffffffff168152602001908152602001600020600082825461036a9190610d2a565b925050819055508273ffffffffffffffffffffffffffffffffffffffff163373ffffffffffffffffffffffffffffffffffffffff167f8c5be1e5ebec7d5bd14f71427d1e84f3dd0314c0f7b2291e5b200ac8c7c3b925846040516103ce9190610b5c565b60405180910390a36001905092915050565b60005481565b600081600260008673ffffffffffffffffffffffffffffffffffffffff1673ffffffffffffffffffffffffffffffffffffffff16815260200190815260200160002060003373ffffffffffffffffffffffffffffffffffffffff1673ffffffffffffffffffffffffffffffffffffffff16815260200190815260200160002060008282546104749190610d5e565b9250508190555081600160008673ffffffffffffffffffffffffffffffffffffffff1673ffffffffffffffffffffffffffffffffffffffff16815260200190815260200160002060008282546104ca9190610d5e565b9250508190555081600160008573ffffffffffffffffffffffffffffffffffffffff1673ffffffffffffffffffffffffffffffffffffffff16815260200190815260200160002060008282546105209190610d2a565b925050819055508273ffffffffffffffffffffffffffffffffffffffff168473ffffffffffffffffffffffffffffffffffffffff167fddf252ad1be2c89b69c2b068fc378daa952ba7f163c4a11628f55a4df523b3ef846040516105849190610b5c565b60405180910390a3600190509392505050565b600560009054906101000a900460ff1681565b80600160003373ffffffffffffffffffffffffffffffffffffffff1673ffffffffffffffffffffffffffffffffffffffff16815260200190815260200160002060008282546105f99190610d5e565b92505081905550806000808282546106119190610d5e565b92505081905550600073ffffffffffffffffffffffffffffffffffffffff163373ffffffffffffffffffffffffffffffffffffffff167fddf252ad1be2c89b69c2b068fc378daa952ba7f163c4a11628f55a4df523b3ef836040516106769190610b5c565b60405180910390a350565b60016020528060005260406000206000915090505481565b600480546106a690610cca565b80601f01602080910402602001604051908101604052809291908181526020018280546106d290610cca565b801561071f5780601f106106f45761010080835404028352916020019161071f565b820191906000526020600020905b81548152906001019060200180831161070257829003601f168201915b505050505081565b80600160003373ffffffffffffffffffffffffffffffffffffffff1673ffffffffffffffffffffffffffffffffffffffff16815260200190815260200160002060008282546107769190610d2a565b925050819055508060008082825461078e9190610d2a565b925050819055503373ffffffffffffffffffffffffffffffffffffffff16600073ffffffffffffffffffffffffffffffffffffffff167fddf252ad1be2c89b69c2b068fc378daa952ba7f163c4a11628f55a4df523b3ef836040516107f39190610b5c565b60405180910390a350565b600081600160003373ffffffffffffffffffffffffffffffffffffffff1673ffffffffffffffffffffffffffffffffffffffff16815260200190815260200160002054101561084c57600080fd5b81600160008573ffffffffffffffffffffffffffffffffffffffff1673ffffffffffffffffffffffffffffffffffffffff168152602001908152602001600020600082825461089b9190610d2a565b9250508190555081600160003373ffffffffffffffffffffffffffffffffffffffff1673ffffffffffffffffffffffffffffffffffffffff16815260200190815260200160002060008282546108f19190610d5e565b925050819055508273ffffffffffffffffffffffffffffffffffffffff163373ffffffffffffffffffffffffffffffffffffffff167fddf252ad1be2c89b69c2b068fc378daa952ba7f163c4a11628f55a4df523b3ef846040516109559190610b5c565b60405180910390a36001905092915050565b6002602052816000526040600020602052806000526040600020600091509150505481565b600081519050919050565b600082825260208201905092915050565b60005b838110156109c65780820151818401526020810190506109ab565b60008484015250505050565b6000601f19601f8301169050919050565b60006109ee8261098c565b6109f88185610997565b9350610a088185602086016109a8565b610a11816109d2565b840191505092915050565b60006020820190508181036000830152610a3681846109e3565b905092915050565b600080fd5b600073ffffffffffffffffffffffffffffffffffffffff82169050919050565b6000610a6e82610a43565b9050919050565b610a7e81610a63565b8114610a8957600080fd5b50565b600081359050610a9b81610a75565b92915050565b6000819050919050565b610ab481610aa1565b8114610abf57600080fd5b50565b600081359050610ad181610aab565b92915050565b60008060408385031215610aee57610aed610a3e565b5b6000610afc85828601610a8c565b9250506020610b0d85828601610ac2565b9150509250929050565b60008115159050919050565b610b2c81610b17565b82525050565b6000602082019050610b476000830184610b23565b92915050565b610b5681610aa1565b82525050565b6000602082019050610b716000830184610b4d565b92915050565b600080600060608486031215610b9057610b8f610a3e565b5b6000610b9e86828701610a8c565b9350506020610baf86828701610a8c565b9250506040610bc086828701610ac2565b9150509250925092565b600060ff82169050919050565b610be081610bca565b82525050565b6000602082019050610bfb6000830184610bd7565b92915050565b600060208284031215610c1757610c16610a3e565b5b6000610c2584828501610ac2565b91505092915050565b600060208284031215610c4457610c43610a3e565b5b6000610c5284828501610a8c565b91505092915050565b60008060408385031215610c7257610c71610a3e565b5b6000610c8085828601610a8c565b9250506020610c9185828601610a8c565b9150509250929050565b7f4e487b7100000000000000000000000000000000000000000000000000000000600052602260045260246000fd5b60006002820490506001821680610ce257607f821691505b602082108103610cf557610cf4610c9b565b5b50919050565b7f4e487b7100000000000000000000000000000000000000000000000000000000600052601160045260246000fd5b6000610d3582610aa1565b9150610d4083610aa1565b9250828201905080821115610d5857610d57610cfb565b5b92915050565b6000610d6982610aa1565b9150610d7483610aa1565b9250828203905081811115610d8c57610d8b610cfb565b5b9291505056fea26469706673582212203f91b8521b886a961305fee1fb1d5758d49ca630b70c51b085ac3219dbc2319464736f6c63430008110033",
  "linkReferences": {},
  "deployedLinkReferences": {}
}