{
  "_format": "hh-sol-artifact-1",
  "contractName": "CoinFlip",
  "sourceName": "contracts/coin_flip.sol",
  "abi": [
    {
      "inputs": [
        {
          "internalType": "address",
          "name": "_randomness_address",
          "type": "address"
        },
        {
          "internalType": "address",
          "name": "_funds_manager",
          "type": "address"
        }
      ],
      "stateMutability": "nonpayable",
      "type": "constructor"
    },
    {
      "anonymous": false,
      "inputs": [
        {
          "indexed": false,
          "internalType": "address",
          "name": "sender",
          "type": "address"
        },
        {
          "indexed": false,
          "internalType": "uint256",
          "name": "amount",
          "type": "uint256"
        }
      ],
      "name": "FTMReceived",
      "type": "event"
    },
    {
      "anonymous": false,
      "inputs": [
        {
          "indexed": false,
          "internalType": "address",
          "name": "player",
          "type": "address"
        },
        {
          "indexed": false,
          "internalType": "uint256",
          "name": "amount",
          "type": "uint256"
        },
        {
          "indexed": false,
          "internalType": "uint256",
          "name": "bet",
          "type": "uint256"
        },
        {
          "indexed": false,
          "internalType": "uint256",
          "name": "request_id",
          "type": "uint256"
        }
      ],
      "name": "GamePlay",
      "type": "event"
    },
    {
      "anonymous": false,
      "inputs": [
        {
          "indexed": false,
          "internalType": "address",
          "name": "player",
          "type": "address"
        },
        {
          "indexed": false,
          "internalType": "uint256",
          "name": "random_number",
          "type": "uint256"
        },
        {
          "indexed": false,
          "internalType": "uint256",
          "name": "bet",
          "type": "uint256"
        }
      ],
      "name": "GameResult",
      "type": "event"
    },
    {
      "stateMutability": "payable",
      "type": "fallback"
    },
    {
      "inputs": [
        {
          "internalType": "uint256",
          "name": "",
          "type": "uint256"
        }
      ],
      "name": "amounts",
      "outputs": [
        {
          "internalType": "uint256",
          "name": "",
          "type": "uint256"
        }
      ],
      "stateMutability": "view",
      "type": "function"
    },
    {
      "inputs": [],
      "name": "fee_balance",
      "outputs": [
        {
          "internalType": "uint256",
          "name": "",
          "type": "uint256"
        }
      ],
      "stateMutability": "view",
      "type": "function"
    },
    {
      "inputs": [
        {
          "internalType": "uint256",
          "name": "requestId",
          "type": "uint256"
        },
        {
          "internalType": "uint256",
          "name": "random_number",
          "type": "uint256"
        }
      ],
      "name": "flip_result",
      "outputs": [],
      "stateMutability": "nonpayable",
      "type": "function"
    },
    {
      "inputs": [],
      "name": "funds_manager",
      "outputs": [
        {
          "internalType": "address",
          "name": "",
          "type": "address"
        }
      ],
      "stateMutability": "view",
      "type": "function"
    },
    {
      "inputs": [
        {
          "internalType": "uint256",
          "name": "",
          "type": "uint256"
        }
      ],
      "name": "games",
      "outputs": [
        {
          "internalType": "address",
          "name": "player",
          "type": "address"
        },
        {
          "internalType": "uint256",
          "name": "bet",
          "type": "uint256"
        },
        {
          "internalType": "uint256",
          "name": "amount",
          "type": "uint256"
        },
        {
          "internalType": "bool",
          "name": "ended",
          "type": "bool"
        },
        {
          "internalType": "bool",
          "name": "won",
          "type": "bool"
        }
      ],
      "stateMutability": "view",
      "type": "function"
    },
    {
      "inputs": [],
      "name": "min_balance_factor",
      "outputs": [
        {
          "internalType": "uint256",
          "name": "",
          "type": "uint256"
        }
      ],
      "stateMutability": "view",
      "type": "function"
    },
    {
      "inputs": [],
      "name": "min_fee",
      "outputs": [
        {
          "internalType": "uint256",
          "name": "",
          "type": "uint256"
        }
      ],
      "stateMutability": "view",
      "type": "function"
    },
    {
      "inputs": [],
      "name": "owner",
      "outputs": [
        {
          "internalType": "address",
          "name": "",
          "type": "address"
        }
      ],
      "stateMutability": "view",
      "type": "function"
    },
    {
      "inputs": [
        {
          "internalType": "uint256",
          "name": "_bet",
          "type": "uint256"
        }
      ],
      "name": "play",
      "outputs": [],
      "stateMutability": "payable",
      "type": "function"
    },
    {
      "inputs": [],
      "name": "randomness_contract",
      "outputs": [
        {
          "internalType": "contract RandomNumberConsumer",
          "name": "",
          "type": "address"
        }
      ],
      "stateMutability": "view",
      "type": "function"
    },
    {
      "inputs": [
        {
          "internalType": "address",
          "name": "",
          "type": "address"
        }
      ],
      "name": "request_ids",
      "outputs": [
        {
          "internalType": "uint256",
          "name": "",
          "type": "uint256"
        }
      ],
      "stateMutability": "view",
      "type": "function"
    },
    {
      "inputs": [
        {
          "internalType": "uint256[]",
          "name": "_amounts",
          "type": "uint256[]"
        }
      ],
      "name": "setAmounts",
      "outputs": [],
      "stateMutability": "nonpayable",
      "type": "function"
    },
    {
      "inputs": [
        {
          "internalType": "address",
          "name": "_funds_manager",
          "type": "address"
        }
      ],
      "name": "setFundsManager",
      "outputs": [],
      "stateMutability": "nonpayable",
      "type": "function"
    },
    {
      "inputs": [
        {
          "internalType": "uint256",
          "name": "_min_fee",
          "type": "uint256"
        }
      ],
      "name": "setMinFee",
      "outputs": [],
      "stateMutability": "nonpayable",
      "type": "function"
    },
    {
      "inputs": [
        {
          "internalType": "address",
          "name": "randomness_address",
          "type": "address"
        }
      ],
      "name": "setRandomnessContract",
      "outputs": [],
      "stateMutability": "nonpayable",
      "type": "function"
    },
    {
      "inputs": [
        {
          "internalType": "uint256",
          "name": "_winning_fee",
          "type": "uint256"
        }
      ],
      "name": "setWinningFee",
      "outputs": [],
      "stateMutability": "nonpayable",
      "type": "function"
    },
    {
      "inputs": [],
      "name": "winning_fee",
      "outputs": [
        {
          "internalType": "uint256",
          "name": "",
          "type": "uint256"
        }
      ],
      "stateMutability": "view",
      "type": "function"
    },
    {
      "inputs": [],
      "name": "winning_fee_divisor",
      "outputs": [
        {
          "internalType": "uint256",
          "name": "",
          "type": "uint256"
        }
      ],
      "stateMutability": "view",
      "type": "function"
    },
    {
      "inputs": [],
      "name": "withdraw",
      "outputs": [],
      "stateMutability": "nonpayable",
      "type": "function"
    },
    {
      "stateMutability": "payable",
      "type": "receive"
    }
  ],
  "bytecode": "0x6080604052604051806060016040528067016345785d8a000067ffffffffffffffff1681526020016706f05b59d3b2000067ffffffffffffffff168152602001670de0b6b3a764000067ffffffffffffffff1681525060019060036200006792919062000181565b50600360025560326003556103e860045567016345785d8a0000600a553480156200009157600080fd5b5060405162002287380380620022878339818101604052810190620000b7919062000268565b816000806101000a81548173ffffffffffffffffffffffffffffffffffffffff021916908373ffffffffffffffffffffffffffffffffffffffff16021790555080600960006101000a81548173ffffffffffffffffffffffffffffffffffffffff021916908373ffffffffffffffffffffffffffffffffffffffff16021790555033600b60006101000a81548173ffffffffffffffffffffffffffffffffffffffff021916908373ffffffffffffffffffffffffffffffffffffffff1602179055505050620002af565b828054828255906000526020600020908101928215620001cc579160200282015b82811115620001cb578251829067ffffffffffffffff16905591602001919060010190620001a2565b5b509050620001db9190620001df565b5090565b5b80821115620001fa576000816000905550600101620001e0565b5090565b600080fd5b600073ffffffffffffffffffffffffffffffffffffffff82169050919050565b6000620002308262000203565b9050919050565b620002428162000223565b81146200024e57600080fd5b50565b600081519050620002628162000237565b92915050565b60008060408385031215620002825762000281620001fe565b5b6000620002928582860162000251565b9250506020620002a58582860162000251565b9150509250929050565b611fc880620002bf6000396000f3fe6080604052600436106101185760003560e01c8063585d4586116100a05780638da5cb5b116100645780638da5cb5b146103fc57806399c7e2e814610427578063ca6b282b14610450578063cb3a2e021461047b578063fa427177146104a457610158565b8063585d4586146103385780635ff7348b146103615780636898f82b1461038c5780636a7223fc146103a857806372b513d5146103d357610158565b806336b3c80f116100e757806336b3c80f146102535780633ccfd60b1461027e5780634331153c1461029557806345f0a44f146102be5780634d4f17bb146102fb57610158565b8063021a12d414610193578063117a5b90146101be5780631769f049146101ff57806331ac99201461022a57610158565b36610158577f627a1f2a33e46fb65cae23da2cb008aaa316ab9137e564b1b802a06811b99101333460405161014e9291906114a8565b60405180910390a1005b7f627a1f2a33e46fb65cae23da2cb008aaa316ab9137e564b1b802a06811b9910133346040516101899291906114a8565b60405180910390a1005b34801561019f57600080fd5b506101a86104cf565b6040516101b591906114d1565b60405180910390f35b3480156101ca57600080fd5b506101e560048036038101906101e0919061152c565b6104d5565b6040516101f6959493929190611574565b60405180910390f35b34801561020b57600080fd5b50610214610545565b60405161022191906114d1565b60405180910390f35b34801561023657600080fd5b50610251600480360381019061024c919061152c565b61054b565b005b34801561025f57600080fd5b506102686105e5565b60405161027591906114d1565b60405180910390f35b34801561028a57600080fd5b506102936105eb565b005b3480156102a157600080fd5b506102bc60048036038101906102b79190611720565b6106c4565b005b3480156102ca57600080fd5b506102e560048036038101906102e0919061152c565b6107b2565b6040516102f291906114d1565b60405180910390f35b34801561030757600080fd5b50610322600480360381019061031d9190611795565b6107d6565b60405161032f91906114d1565b60405180910390f35b34801561034457600080fd5b5061035f600480360381019061035a91906117c2565b6107ee565b005b34801561036d57600080fd5b50610376610c45565b6040516103839190611802565b60405180910390f35b6103a660048036038101906103a1919061152c565b610c6b565b005b3480156103b457600080fd5b506103bd6110d2565b6040516103ca919061187c565b60405180910390f35b3480156103df57600080fd5b506103fa60048036038101906103f5919061152c565b6110f6565b005b34801561040857600080fd5b50610411611190565b60405161041e9190611802565b60405180910390f35b34801561043357600080fd5b5061044e60048036038101906104499190611795565b6111b6565b005b34801561045c57600080fd5b5061046561128a565b60405161047291906114d1565b60405180910390f35b34801561048757600080fd5b506104a2600480360381019061049d9190611795565b611290565b005b3480156104b057600080fd5b506104b9611363565b6040516104c691906114d1565b60405180910390f35b60045481565b60056020528060005260406000206000915090508060000160009054906101000a900473ffffffffffffffffffffffffffffffffffffffff16908060010154908060020154908060030160009054906101000a900460ff16908060030160019054906101000a900460ff16905085565b60085481565b600b60009054906101000a900473ffffffffffffffffffffffffffffffffffffffff1673ffffffffffffffffffffffffffffffffffffffff163373ffffffffffffffffffffffffffffffffffffffff16146105db576040517f08c379a00000000000000000000000000000000000000000000000000000000081526004016105d29061191a565b60405180910390fd5b80600a8190555050565b60035481565b600b60009054906101000a900473ffffffffffffffffffffffffffffffffffffffff1673ffffffffffffffffffffffffffffffffffffffff163373ffffffffffffffffffffffffffffffffffffffff161461067b576040517f08c379a00000000000000000000000000000000000000000000000000000000081526004016106729061191a565b60405180910390fd5b3373ffffffffffffffffffffffffffffffffffffffff166108fc479081150290604051600060405180830381858888f193505050501580156106c1573d6000803e3d6000fd5b50565b600b60009054906101000a900473ffffffffffffffffffffffffffffffffffffffff1673ffffffffffffffffffffffffffffffffffffffff163373ffffffffffffffffffffffffffffffffffffffff1614610754576040517f08c379a000000000000000000000000000000000000000000000000000000000815260040161074b9061191a565b60405180910390fd5b6003815114610798576040517f08c379a000000000000000000000000000000000000000000000000000000000815260040161078f90611986565b60405180910390fd5b80600190805190602001906107ae9291906113e4565b5050565b600181815481106107c257600080fd5b906000526020600020016000915090505481565b60066020528060005260406000206000915090505481565b60008054906101000a900473ffffffffffffffffffffffffffffffffffffffff1673ffffffffffffffffffffffffffffffffffffffff163373ffffffffffffffffffffffffffffffffffffffff161461087c576040517f08c379a000000000000000000000000000000000000000000000000000000000815260040161087390611a18565b60405180910390fd5b600015156005600084815260200190815260200160002060030160009054906101000a900460ff161515146108e6576040517f08c379a00000000000000000000000000000000000000000000000000000000081526004016108dd90611a84565b60405180910390fd5b600073ffffffffffffffffffffffffffffffffffffffff166005600084815260200190815260200160002060000160009054906101000a900473ffffffffffffffffffffffffffffffffffffffff1673ffffffffffffffffffffffffffffffffffffffff160361098b576040517f08c379a000000000000000000000000000000000000000000000000000000000815260040161098290611af0565b60405180910390fd5b60016005600084815260200190815260200160002060030160006101000a81548160ff0219169083151502179055506000600760006005600086815260200190815260200160002060000160009054906101000a900473ffffffffffffffffffffffffffffffffffffffff1673ffffffffffffffffffffffffffffffffffffffff1673ffffffffffffffffffffffffffffffffffffffff16815260200190815260200160002060006101000a81548160ff0219169083151502179055506000600282610a579190611b3f565b905060056000848152602001908152602001600020600101548103610bb95760006004546003546005600087815260200190815260200160002060020154610a9f9190611b9f565b610aa99190611be1565b90508060086000828254610abd9190611c12565b92505081905550600a5460085410610ad857610ad7611369565b5b60008160026005600088815260200190815260200160002060020154610afe9190611b9f565b610b089190611c46565b90506005600086815260200190815260200160002060000160009054906101000a900473ffffffffffffffffffffffffffffffffffffffff1673ffffffffffffffffffffffffffffffffffffffff166108fc829081150290604051600060405180830381858888f19350505050158015610b86573d6000803e3d6000fd5b5060016005600087815260200190815260200160002060030160016101000a81548160ff02191690831515021790555050505b7f761bbf8ad882003774e8650d36faa00fdea1a75836949dfb7eb6ac36fe29505c6005600085815260200190815260200160002060000160009054906101000a900473ffffffffffffffffffffffffffffffffffffffff16826005600087815260200190815260200160002060010154604051610c3893929190611c7a565b60405180910390a1505050565b600960009054906101000a900473ffffffffffffffffffffffffffffffffffffffff1681565b60006001811115610c7f57610c7e611cb1565b5b811480610c9d5750600180811115610c9a57610c99611cb1565b5b81145b610cdc576040517f08c379a0000000000000000000000000000000000000000000000000000000008152600401610cd390611d52565b60405180910390fd5b6001600081548110610cf157610cf0611d72565b5b9060005260206000200154341480610d26575060018081548110610d1857610d17611d72565b5b906000526020600020015434145b80610d4f57506001600281548110610d4157610d40611d72565b5b906000526020600020015434145b610d8e576040517f08c379a0000000000000000000000000000000000000000000000000000000008152600401610d8590611ded565b60405180910390fd5b600760003373ffffffffffffffffffffffffffffffffffffffff1673ffffffffffffffffffffffffffffffffffffffff16815260200190815260200160002060009054906101000a900460ff1615610e1b576040517f08c379a0000000000000000000000000000000000000000000000000000000008152600401610e1290611e7f565b60405180910390fd5b34600254610e299190611b9f565b471015610e6b576040517f08c379a0000000000000000000000000000000000000000000000000000000008152600401610e6290611eeb565b60405180910390fd5b60008060009054906101000a900473ffffffffffffffffffffffffffffffffffffffff1673ffffffffffffffffffffffffffffffffffffffff1663aacc5a176040518163ffffffff1660e01b81526004016020604051808303816000875af1158015610edb573d6000803e3d6000fd5b505050506040513d601f19601f82011682018060405250810190610eff9190611f20565b90506040518060a001604052803373ffffffffffffffffffffffffffffffffffffffff168152602001838152602001348152602001600015158152602001600015158152506005600083815260200190815260200160002060008201518160000160006101000a81548173ffffffffffffffffffffffffffffffffffffffff021916908373ffffffffffffffffffffffffffffffffffffffff160217905550602082015181600101556040820151816002015560608201518160030160006101000a81548160ff02191690831515021790555060808201518160030160016101000a81548160ff02191690831515021790555090505080600660003373ffffffffffffffffffffffffffffffffffffffff1673ffffffffffffffffffffffffffffffffffffffff168152602001908152602001600020819055506001600760003373ffffffffffffffffffffffffffffffffffffffff1673ffffffffffffffffffffffffffffffffffffffff16815260200190815260200160002060006101000a81548160ff0219169083151502179055507ff19de367e8d44bb3aeb3b9c1c86dc5ab6f74caced54e8846e99221a5c5e9879f333484846040516110c69493929190611f4d565b60405180910390a15050565b60008054906101000a900473ffffffffffffffffffffffffffffffffffffffff1681565b600b60009054906101000a900473ffffffffffffffffffffffffffffffffffffffff1673ffffffffffffffffffffffffffffffffffffffff163373ffffffffffffffffffffffffffffffffffffffff1614611186576040517f08c379a000000000000000000000000000000000000000000000000000000000815260040161117d9061191a565b60405180910390fd5b8060038190555050565b600b60009054906101000a900473ffffffffffffffffffffffffffffffffffffffff1681565b600b60009054906101000a900473ffffffffffffffffffffffffffffffffffffffff1673ffffffffffffffffffffffffffffffffffffffff163373ffffffffffffffffffffffffffffffffffffffff1614611246576040517f08c379a000000000000000000000000000000000000000000000000000000000815260040161123d9061191a565b60405180910390fd5b80600960006101000a81548173ffffffffffffffffffffffffffffffffffffffff021916908373ffffffffffffffffffffffffffffffffffffffff16021790555050565b60025481565b600b60009054906101000a900473ffffffffffffffffffffffffffffffffffffffff1673ffffffffffffffffffffffffffffffffffffffff163373ffffffffffffffffffffffffffffffffffffffff1614611320576040517f08c379a00000000000000000000000000000000000000000000000000000000081526004016113179061191a565b60405180910390fd5b806000806101000a81548173ffffffffffffffffffffffffffffffffffffffff021916908373ffffffffffffffffffffffffffffffffffffffff16021790555050565b600a5481565b600060085490506000600881905550600960009054906101000a900473ffffffffffffffffffffffffffffffffffffffff1673ffffffffffffffffffffffffffffffffffffffff166108fc829081150290604051600060405180830381858888f193505050501580156113e0573d6000803e3d6000fd5b5050565b828054828255906000526020600020908101928215611420579160200282015b8281111561141f578251825591602001919060010190611404565b5b50905061142d9190611431565b5090565b5b8082111561144a576000816000905550600101611432565b5090565b600073ffffffffffffffffffffffffffffffffffffffff82169050919050565b60006114798261144e565b9050919050565b6114898161146e565b82525050565b6000819050919050565b6114a28161148f565b82525050565b60006040820190506114bd6000830185611480565b6114ca6020830184611499565b9392505050565b60006020820190506114e66000830184611499565b92915050565b6000604051905090565b600080fd5b600080fd5b6115098161148f565b811461151457600080fd5b50565b60008135905061152681611500565b92915050565b600060208284031215611542576115416114f6565b5b600061155084828501611517565b91505092915050565b60008115159050919050565b61156e81611559565b82525050565b600060a0820190506115896000830188611480565b6115966020830187611499565b6115a36040830186611499565b6115b06060830185611565565b6115bd6080830184611565565b9695505050505050565b600080fd5b6000601f19601f8301169050919050565b7f4e487b7100000000000000000000000000000000000000000000000000000000600052604160045260246000fd5b611615826115cc565b810181811067ffffffffffffffff82111715611634576116336115dd565b5b80604052505050565b60006116476114ec565b9050611653828261160c565b919050565b600067ffffffffffffffff821115611673576116726115dd565b5b602082029050602081019050919050565b600080fd5b600061169c61169784611658565b61163d565b905080838252602082019050602084028301858111156116bf576116be611684565b5b835b818110156116e857806116d48882611517565b8452602084019350506020810190506116c1565b5050509392505050565b600082601f830112611707576117066115c7565b5b8135611717848260208601611689565b91505092915050565b600060208284031215611736576117356114f6565b5b600082013567ffffffffffffffff811115611754576117536114fb565b5b611760848285016116f2565b91505092915050565b6117728161146e565b811461177d57600080fd5b50565b60008135905061178f81611769565b92915050565b6000602082840312156117ab576117aa6114f6565b5b60006117b984828501611780565b91505092915050565b600080604083850312156117d9576117d86114f6565b5b60006117e785828601611517565b92505060206117f885828601611517565b9150509250929050565b60006020820190506118176000830184611480565b92915050565b6000819050919050565b600061184261183d6118388461144e565b61181d565b61144e565b9050919050565b600061185482611827565b9050919050565b600061186682611849565b9050919050565b6118768161185b565b82525050565b6000602082019050611891600083018461186d565b92915050565b600082825260208201905092915050565b7f4f6e6c7920746865206f776e65722063616e2063616c6c20746869732066756e60008201527f6374696f6e2e0000000000000000000000000000000000000000000000000000602082015250565b6000611904602683611897565b915061190f826118a8565b604082019050919050565b60006020820190508181036000830152611933816118f7565b9050919050565b7f4172726179206d7573742068617665203320656c656d656e7473000000000000600082015250565b6000611970601a83611897565b915061197b8261193a565b602082019050919050565b6000602082019050818103600083015261199f81611963565b9050919050565b7f4f6e6c79207468652052616e646f6d4e756d626572436f6e73756d657220636f60008201527f6e74726163742063616e2063616c6c20746869732066756e6374696f6e000000602082015250565b6000611a02603d83611897565b9150611a0d826119a6565b604082019050919050565b60006020820190508181036000830152611a31816119f5565b9050919050565b7f47616d6520616c726561647920656e6465640000000000000000000000000000600082015250565b6000611a6e601283611897565b9150611a7982611a38565b602082019050919050565b60006020820190508181036000830152611a9d81611a61565b9050919050565b7f4e6f2067616d6520666f756e6420776974682074686973206964000000000000600082015250565b6000611ada601a83611897565b9150611ae582611aa4565b602082019050919050565b60006020820190508181036000830152611b0981611acd565b9050919050565b7f4e487b7100000000000000000000000000000000000000000000000000000000600052601260045260246000fd5b6000611b4a8261148f565b9150611b558361148f565b925082611b6557611b64611b10565b5b828206905092915050565b7f4e487b7100000000000000000000000000000000000000000000000000000000600052601160045260246000fd5b6000611baa8261148f565b9150611bb58361148f565b9250828202611bc38161148f565b91508282048414831517611bda57611bd9611b70565b5b5092915050565b6000611bec8261148f565b9150611bf78361148f565b925082611c0757611c06611b10565b5b828204905092915050565b6000611c1d8261148f565b9150611c288361148f565b9250828201905080821115611c4057611c3f611b70565b5b92915050565b6000611c518261148f565b9150611c5c8361148f565b9250828203905081811115611c7457611c73611b70565b5b92915050565b6000606082019050611c8f6000830186611480565b611c9c6020830185611499565b611ca96040830184611499565b949350505050565b7f4e487b7100000000000000000000000000000000000000000000000000000000600052602160045260246000fd5b7f596f75206d75737420677565737320656974686572206865616473206f72207460008201527f61696c7300000000000000000000000000000000000000000000000000000000602082015250565b6000611d3c602483611897565b9150611d4782611ce0565b604082019050919050565b60006020820190508181036000830152611d6b81611d2f565b9050919050565b7f4e487b7100000000000000000000000000000000000000000000000000000000600052603260045260246000fd5b7f416d6f756e742073656e74206e6f7420636f7272656374000000000000000000600082015250565b6000611dd7601783611897565b9150611de282611da1565b602082019050919050565b60006020820190508181036000830152611e0681611dca565b9050919050565b7f596f752061726520616c726561647920706c6179696e6720612067616d652c2060008201527f7761697420666f7220746865206f7574636f6d65000000000000000000000000602082015250565b6000611e69603483611897565b9150611e7482611e0d565b604082019050919050565b60006020820190508181036000830152611e9881611e5c565b9050919050565b7f436f6e74726163742062616c616e636520746f6f206c6f770000000000000000600082015250565b6000611ed5601883611897565b9150611ee082611e9f565b602082019050919050565b60006020820190508181036000830152611f0481611ec8565b9050919050565b600081519050611f1a81611500565b92915050565b600060208284031215611f3657611f356114f6565b5b6000611f4484828501611f0b565b91505092915050565b6000608082019050611f626000830187611480565b611f6f6020830186611499565b611f7c6040830185611499565b611f896060830184611499565b9594505050505056fea2646970667358221220e590028878f561af1abceb9be61a85eb04c784a2e00df1d55ab8a78089867f7764736f6c63430008110033",
  "linkReferences": {},
  "deployedLinkReferences": {}
}