{
  "_format": "hh-sol-artifact-1",
  "contractName": "CoinFlip",
  "sourceName": "contracts/coin_flip.sol",
  "abi": [
    {
      "inputs": [
        {
          "internalType": "address",
          "name": "randomness_address",
          "type": "address"
        }
      ],
      "stateMutability": "nonpayable",
      "type": "constructor"
    },
    {
      "anonymous": false,
      "inputs": [
        {
          "indexed": false,
          "internalType": "address",
          "name": "player",
          "type": "address"
        },
        {
          "indexed": false,
          "internalType": "uint256",
          "name": "amount",
          "type": "uint256"
        },
        {
          "indexed": false,
          "internalType": "uint256",
          "name": "bet",
          "type": "uint256"
        },
        {
          "indexed": false,
          "internalType": "uint256",
          "name": "request_id",
          "type": "uint256"
        }
      ],
      "name": "GamePlay",
      "type": "event"
    },
    {
      "anonymous": false,
      "inputs": [
        {
          "indexed": false,
          "internalType": "address",
          "name": "player",
          "type": "address"
        },
        {
          "indexed": false,
          "internalType": "uint256",
          "name": "random_number",
          "type": "uint256"
        },
        {
          "indexed": false,
          "internalType": "uint256",
          "name": "bet",
          "type": "uint256"
        }
      ],
      "name": "GameResult",
      "type": "event"
    },
    {
      "stateMutability": "payable",
      "type": "fallback"
    },
    {
      "inputs": [
        {
          "internalType": "uint256",
          "name": "",
          "type": "uint256"
        }
      ],
      "name": "amounts",
      "outputs": [
        {
          "internalType": "uint256",
          "name": "",
          "type": "uint256"
        }
      ],
      "stateMutability": "view",
      "type": "function"
    },
    {
      "inputs": [],
      "name": "denominator",
      "outputs": [
        {
          "internalType": "uint256",
          "name": "",
          "type": "uint256"
        }
      ],
      "stateMutability": "view",
      "type": "function"
    },
    {
      "inputs": [
        {
          "internalType": "uint256",
          "name": "requestId",
          "type": "uint256"
        },
        {
          "internalType": "uint256",
          "name": "random_number",
          "type": "uint256"
        }
      ],
      "name": "flip_result",
      "outputs": [],
      "stateMutability": "nonpayable",
      "type": "function"
    },
    {
      "inputs": [
        {
          "internalType": "uint256",
          "name": "",
          "type": "uint256"
        }
      ],
      "name": "games",
      "outputs": [
        {
          "internalType": "address",
          "name": "player",
          "type": "address"
        },
        {
          "internalType": "uint256",
          "name": "bet",
          "type": "uint256"
        },
        {
          "internalType": "uint256",
          "name": "amount",
          "type": "uint256"
        },
        {
          "internalType": "bool",
          "name": "ended",
          "type": "bool"
        },
        {
          "internalType": "bool",
          "name": "won",
          "type": "bool"
        }
      ],
      "stateMutability": "view",
      "type": "function"
    },
    {
      "inputs": [],
      "name": "owner",
      "outputs": [
        {
          "internalType": "address",
          "name": "",
          "type": "address"
        }
      ],
      "stateMutability": "view",
      "type": "function"
    },
    {
      "inputs": [
        {
          "internalType": "uint256",
          "name": "_bet",
          "type": "uint256"
        }
      ],
      "name": "play",
      "outputs": [],
      "stateMutability": "payable",
      "type": "function"
    },
    {
      "inputs": [],
      "name": "randomness_contract",
      "outputs": [
        {
          "internalType": "contract RandomNumberConsumer",
          "name": "",
          "type": "address"
        }
      ],
      "stateMutability": "view",
      "type": "function"
    },
    {
      "inputs": [
        {
          "internalType": "address",
          "name": "",
          "type": "address"
        }
      ],
      "name": "request_ids",
      "outputs": [
        {
          "internalType": "uint256",
          "name": "",
          "type": "uint256"
        }
      ],
      "stateMutability": "view",
      "type": "function"
    },
    {
      "inputs": [],
      "name": "winning_fee",
      "outputs": [
        {
          "internalType": "uint256",
          "name": "",
          "type": "uint256"
        }
      ],
      "stateMutability": "view",
      "type": "function"
    },
    {
      "stateMutability": "payable",
      "type": "receive"
    }
  ],
  "bytecode": "0x6080604052604051806060016040528067016345785d8a000067ffffffffffffffff1681526020016706f05b59d3b2000067ffffffffffffffff168152602001670de0b6b3a764000067ffffffffffffffff168152506001906003620000679291906200012d565b50600560025560646003553480156200007f57600080fd5b5060405162001494380380620014948339818101604052810190620000a5919062000214565b806000806101000a81548173ffffffffffffffffffffffffffffffffffffffff021916908373ffffffffffffffffffffffffffffffffffffffff16021790555033600660006101000a81548173ffffffffffffffffffffffffffffffffffffffff021916908373ffffffffffffffffffffffffffffffffffffffff1602179055505062000246565b82805482825590600052602060002090810192821562000178579160200282015b8281111562000177578251829067ffffffffffffffff169055916020019190600101906200014e565b5b5090506200018791906200018b565b5090565b5b80821115620001a65760008160009055506001016200018c565b5090565b600080fd5b600073ffffffffffffffffffffffffffffffffffffffff82169050919050565b6000620001dc82620001af565b9050919050565b620001ee81620001cf565b8114620001fa57600080fd5b50565b6000815190506200020e81620001e3565b92915050565b6000602082840312156200022d576200022c620001aa565b5b60006200023d84828501620001fd565b91505092915050565b61123e80620002566000396000f3fe60806040526004361061008a5760003560e01c8063585d458611610059578063585d4586146101795780636898f82b146101a25780636a7223fc146101be5780638da5cb5b146101e957806396ce07951461021457610091565b8063117a5b901461009357806336b3c80f146100d457806345f0a44f146100ff5780634d4f17bb1461013c57610091565b3661009157005b005b34801561009f57600080fd5b506100ba60048036038101906100b59190610a9d565b61023f565b6040516100cb959493929190610b35565b60405180910390f35b3480156100e057600080fd5b506100e96102af565b6040516100f69190610b88565b60405180910390f35b34801561010b57600080fd5b5061012660048036038101906101219190610a9d565b6102b5565b6040516101339190610b88565b60405180910390f35b34801561014857600080fd5b50610163600480360381019061015e9190610bcf565b6102d9565b6040516101709190610b88565b60405180910390f35b34801561018557600080fd5b506101a0600480360381019061019b9190610bfc565b6102f1565b005b6101bc60048036038101906101b79190610a9d565b6106e0565b005b3480156101ca57600080fd5b506101d3610a12565b6040516101e09190610c9b565b60405180910390f35b3480156101f557600080fd5b506101fe610a36565b60405161020b9190610cb6565b60405180910390f35b34801561022057600080fd5b50610229610a5c565b6040516102369190610b88565b60405180910390f35b60046020528060005260406000206000915090508060000160009054906101000a900473ffffffffffffffffffffffffffffffffffffffff16908060010154908060020154908060030160009054906101000a900460ff16908060030160019054906101000a900460ff16905085565b60025481565b600181815481106102c557600080fd5b906000526020600020016000915090505481565b60056020528060005260406000206000915090505481565b60008054906101000a900473ffffffffffffffffffffffffffffffffffffffff1673ffffffffffffffffffffffffffffffffffffffff163373ffffffffffffffffffffffffffffffffffffffff161461037f576040517f08c379a000000000000000000000000000000000000000000000000000000000815260040161037690610d54565b60405180910390fd5b600015156004600084815260200190815260200160002060030160009054906101000a900460ff161515146103e9576040517f08c379a00000000000000000000000000000000000000000000000000000000081526004016103e090610dc0565b60405180910390fd5b600073ffffffffffffffffffffffffffffffffffffffff166004600084815260200190815260200160002060000160009054906101000a900473ffffffffffffffffffffffffffffffffffffffff1673ffffffffffffffffffffffffffffffffffffffff160361048e576040517f08c379a000000000000000000000000000000000000000000000000000000000815260040161048590610e2c565b60405180910390fd5b60046000838152602001908152602001600020600201544710156104e7576040517f08c379a00000000000000000000000000000000000000000000000000000000081526004016104de90610e98565b60405180910390fd5b60016004600084815260200190815260200160002060030160006101000a81548160ff02191690831515021790555060006002826105259190610ee7565b905060046000848152602001908152602001600020600101548103610654576000600354600254600460008781526020019081526020016000206002015461056d9190610f47565b6105779190610f89565b6002600460008781526020019081526020016000206002015461059a9190610f47565b6105a49190610fba565b90506004600085815260200190815260200160002060000160009054906101000a900473ffffffffffffffffffffffffffffffffffffffff1673ffffffffffffffffffffffffffffffffffffffff166108fc829081150290604051600060405180830381858888f19350505050158015610622573d6000803e3d6000fd5b5060016004600086815260200190815260200160002060030160016101000a81548160ff021916908315150217905550505b7f761bbf8ad882003774e8650d36faa00fdea1a75836949dfb7eb6ac36fe29505c6004600085815260200190815260200160002060000160009054906101000a900473ffffffffffffffffffffffffffffffffffffffff168260046000878152602001908152602001600020600101546040516106d393929190610fee565b60405180910390a1505050565b600060018111156106f4576106f3611025565b5b811480610712575060018081111561070f5761070e611025565b5b81145b610751576040517f08c379a0000000000000000000000000000000000000000000000000000000008152600401610748906110c6565b60405180910390fd5b6001600081548110610766576107656110e6565b5b906000526020600020015434148061079b57506001808154811061078d5761078c6110e6565b5b906000526020600020015434145b806107c4575060016002815481106107b6576107b56110e6565b5b906000526020600020015434145b610803576040517f08c379a00000000000000000000000000000000000000000000000000000000081526004016107fa90611161565b60405180910390fd5b60008060009054906101000a900473ffffffffffffffffffffffffffffffffffffffff1673ffffffffffffffffffffffffffffffffffffffff1663aacc5a176040518163ffffffff1660e01b81526004016020604051808303816000875af1158015610873573d6000803e3d6000fd5b505050506040513d601f19601f820116820180604052508101906108979190611196565b90506040518060a001604052803373ffffffffffffffffffffffffffffffffffffffff168152602001838152602001348152602001600015158152602001600015158152506004600083815260200190815260200160002060008201518160000160006101000a81548173ffffffffffffffffffffffffffffffffffffffff021916908373ffffffffffffffffffffffffffffffffffffffff160217905550602082015181600101556040820151816002015560608201518160030160006101000a81548160ff02191690831515021790555060808201518160030160016101000a81548160ff02191690831515021790555090505080600560003373ffffffffffffffffffffffffffffffffffffffff1673ffffffffffffffffffffffffffffffffffffffff168152602001908152602001600020819055507ff19de367e8d44bb3aeb3b9c1c86dc5ab6f74caced54e8846e99221a5c5e9879f33348484604051610a0694939291906111c3565b60405180910390a15050565b60008054906101000a900473ffffffffffffffffffffffffffffffffffffffff1681565b600660009054906101000a900473ffffffffffffffffffffffffffffffffffffffff1681565b60035481565b600080fd5b6000819050919050565b610a7a81610a67565b8114610a8557600080fd5b50565b600081359050610a9781610a71565b92915050565b600060208284031215610ab357610ab2610a62565b5b6000610ac184828501610a88565b91505092915050565b600073ffffffffffffffffffffffffffffffffffffffff82169050919050565b6000610af582610aca565b9050919050565b610b0581610aea565b82525050565b610b1481610a67565b82525050565b60008115159050919050565b610b2f81610b1a565b82525050565b600060a082019050610b4a6000830188610afc565b610b576020830187610b0b565b610b646040830186610b0b565b610b716060830185610b26565b610b7e6080830184610b26565b9695505050505050565b6000602082019050610b9d6000830184610b0b565b92915050565b610bac81610aea565b8114610bb757600080fd5b50565b600081359050610bc981610ba3565b92915050565b600060208284031215610be557610be4610a62565b5b6000610bf384828501610bba565b91505092915050565b60008060408385031215610c1357610c12610a62565b5b6000610c2185828601610a88565b9250506020610c3285828601610a88565b9150509250929050565b6000819050919050565b6000610c61610c5c610c5784610aca565b610c3c565b610aca565b9050919050565b6000610c7382610c46565b9050919050565b6000610c8582610c68565b9050919050565b610c9581610c7a565b82525050565b6000602082019050610cb06000830184610c8c565b92915050565b6000602082019050610ccb6000830184610afc565b92915050565b600082825260208201905092915050565b7f4f6e6c79207468652052616e646f6d4e756d626572436f6e73756d657220636f60008201527f6e74726163742063616e2063616c6c20746869732066756e6374696f6e000000602082015250565b6000610d3e603d83610cd1565b9150610d4982610ce2565b604082019050919050565b60006020820190508181036000830152610d6d81610d31565b9050919050565b7f47616d6520616c726561647920656e6465640000000000000000000000000000600082015250565b6000610daa601283610cd1565b9150610db582610d74565b602082019050919050565b60006020820190508181036000830152610dd981610d9d565b9050919050565b7f4e6f2067616d6520666f756e6420776974682074686973206964000000000000600082015250565b6000610e16601a83610cd1565b9150610e2182610de0565b602082019050919050565b60006020820190508181036000830152610e4581610e09565b9050919050565b7f436f6e74726163742062616c616e636520746f6f206c6f770000000000000000600082015250565b6000610e82601883610cd1565b9150610e8d82610e4c565b602082019050919050565b60006020820190508181036000830152610eb181610e75565b9050919050565b7f4e487b7100000000000000000000000000000000000000000000000000000000600052601260045260246000fd5b6000610ef282610a67565b9150610efd83610a67565b925082610f0d57610f0c610eb8565b5b828206905092915050565b7f4e487b7100000000000000000000000000000000000000000000000000000000600052601160045260246000fd5b6000610f5282610a67565b9150610f5d83610a67565b9250828202610f6b81610a67565b91508282048414831517610f8257610f81610f18565b5b5092915050565b6000610f9482610a67565b9150610f9f83610a67565b925082610faf57610fae610eb8565b5b828204905092915050565b6000610fc582610a67565b9150610fd083610a67565b9250828203905081811115610fe857610fe7610f18565b5b92915050565b60006060820190506110036000830186610afc565b6110106020830185610b0b565b61101d6040830184610b0b565b949350505050565b7f4e487b7100000000000000000000000000000000000000000000000000000000600052602160045260246000fd5b7f596f75206d75737420677565737320656974686572206865616473206f72207460008201527f61696c7300000000000000000000000000000000000000000000000000000000602082015250565b60006110b0602483610cd1565b91506110bb82611054565b604082019050919050565b600060208201905081810360008301526110df816110a3565b9050919050565b7f4e487b7100000000000000000000000000000000000000000000000000000000600052603260045260246000fd5b7f416d6f756e742073656e74206e6f7420636f7272656374000000000000000000600082015250565b600061114b601783610cd1565b915061115682611115565b602082019050919050565b6000602082019050818103600083015261117a8161113e565b9050919050565b60008151905061119081610a71565b92915050565b6000602082840312156111ac576111ab610a62565b5b60006111ba84828501611181565b91505092915050565b60006080820190506111d86000830187610afc565b6111e56020830186610b0b565b6111f26040830185610b0b565b6111ff6060830184610b0b565b9594505050505056fea26469706673582212204843343a4736babfd7e64f17b5d20a443a7d60985ce21b1e773afb1968d6b24c64736f6c63430008110033",
  "linkReferences": {},
  "deployedLinkReferences": {}
}