{
  "_format": "hh-sol-artifact-1",
  "contractName": "CoinFlip",
  "sourceName": "contracts/coin_flip.sol",
  "abi": [
    {
      "inputs": [
        {
          "internalType": "address",
          "name": "randomness_address",
          "type": "address"
        }
      ],
      "stateMutability": "nonpayable",
      "type": "constructor"
    },
    {
      "anonymous": false,
      "inputs": [
        {
          "indexed": false,
          "internalType": "address",
          "name": "player",
          "type": "address"
        },
        {
          "indexed": false,
          "internalType": "uint256",
          "name": "random_number",
          "type": "uint256"
        },
        {
          "indexed": false,
          "internalType": "uint256",
          "name": "bet",
          "type": "uint256"
        }
      ],
      "name": "GameResult",
      "type": "event"
    },
    {
      "stateMutability": "payable",
      "type": "fallback"
    },
    {
      "inputs": [
        {
          "internalType": "uint256",
          "name": "",
          "type": "uint256"
        }
      ],
      "name": "amounts",
      "outputs": [
        {
          "internalType": "uint256",
          "name": "",
          "type": "uint256"
        }
      ],
      "stateMutability": "view",
      "type": "function"
    },
    {
      "inputs": [],
      "name": "denominator",
      "outputs": [
        {
          "internalType": "uint256",
          "name": "",
          "type": "uint256"
        }
      ],
      "stateMutability": "view",
      "type": "function"
    },
    {
      "inputs": [
        {
          "internalType": "uint256",
          "name": "requestId",
          "type": "uint256"
        },
        {
          "internalType": "uint256",
          "name": "random_number",
          "type": "uint256"
        }
      ],
      "name": "flip_result",
      "outputs": [],
      "stateMutability": "nonpayable",
      "type": "function"
    },
    {
      "inputs": [
        {
          "internalType": "uint256",
          "name": "",
          "type": "uint256"
        }
      ],
      "name": "games",
      "outputs": [
        {
          "internalType": "address",
          "name": "player",
          "type": "address"
        },
        {
          "internalType": "uint256",
          "name": "bet",
          "type": "uint256"
        },
        {
          "internalType": "uint256",
          "name": "amount",
          "type": "uint256"
        },
        {
          "internalType": "bool",
          "name": "ended",
          "type": "bool"
        }
      ],
      "stateMutability": "view",
      "type": "function"
    },
    {
      "inputs": [],
      "name": "owner",
      "outputs": [
        {
          "internalType": "address",
          "name": "",
          "type": "address"
        }
      ],
      "stateMutability": "view",
      "type": "function"
    },
    {
      "inputs": [
        {
          "internalType": "uint256",
          "name": "_bet",
          "type": "uint256"
        }
      ],
      "name": "play",
      "outputs": [],
      "stateMutability": "payable",
      "type": "function"
    },
    {
      "inputs": [],
      "name": "randomness_contract",
      "outputs": [
        {
          "internalType": "contract RandomNumberConsumer",
          "name": "",
          "type": "address"
        }
      ],
      "stateMutability": "view",
      "type": "function"
    },
    {
      "inputs": [],
      "name": "winning_fee",
      "outputs": [
        {
          "internalType": "uint256",
          "name": "",
          "type": "uint256"
        }
      ],
      "stateMutability": "view",
      "type": "function"
    },
    {
      "stateMutability": "payable",
      "type": "receive"
    }
  ],
  "bytecode": "0x6080604052604051806060016040528067016345785d8a000067ffffffffffffffff1681526020016706f05b59d3b2000067ffffffffffffffff168152602001670de0b6b3a764000067ffffffffffffffff168152506001906003620000679291906200012d565b50600560025560646003553480156200007f57600080fd5b506040516200126c3803806200126c8339818101604052810190620000a5919062000214565b806000806101000a81548173ffffffffffffffffffffffffffffffffffffffff021916908373ffffffffffffffffffffffffffffffffffffffff16021790555033600560006101000a81548173ffffffffffffffffffffffffffffffffffffffff021916908373ffffffffffffffffffffffffffffffffffffffff1602179055505062000246565b82805482825590600052602060002090810192821562000178579160200282015b8281111562000177578251829067ffffffffffffffff169055916020019190600101906200014e565b5b5090506200018791906200018b565b5090565b5b80821115620001a65760008160009055506001016200018c565b5090565b600080fd5b600073ffffffffffffffffffffffffffffffffffffffff82169050919050565b6000620001dc82620001af565b9050919050565b620001ee81620001cf565b8114620001fa57600080fd5b50565b6000815190506200020e81620001e3565b92915050565b6000602082840312156200022d576200022c620001aa565b5b60006200023d84828501620001fd565b91505092915050565b61101680620002566000396000f3fe60806040526004361061007f5760003560e01c80636898f82b1161004e5780636898f82b146101595780636a7223fc146101755780638da5cb5b146101a057806396ce0795146101cb57610086565b8063117a5b901461008857806336b3c80f146100c857806345f0a44f146100f3578063585d45861461013057610086565b3661008657005b005b34801561009457600080fd5b506100af60048036038101906100aa9190610921565b6101f6565b6040516100bf94939291906109b9565b60405180910390f35b3480156100d457600080fd5b506100dd610253565b6040516100ea91906109fe565b60405180910390f35b3480156100ff57600080fd5b5061011a60048036038101906101159190610921565b610259565b60405161012791906109fe565b60405180910390f35b34801561013c57600080fd5b5061015760048036038101906101529190610a19565b61027d565b005b610173600480360381019061016e9190610921565b61060e565b005b34801561018157600080fd5b5061018a610896565b6040516101979190610ab8565b60405180910390f35b3480156101ac57600080fd5b506101b56108ba565b6040516101c29190610ad3565b60405180910390f35b3480156101d757600080fd5b506101e06108e0565b6040516101ed91906109fe565b60405180910390f35b60046020528060005260406000206000915090508060000160009054906101000a900473ffffffffffffffffffffffffffffffffffffffff16908060010154908060020154908060030160009054906101000a900460ff16905084565b60025481565b6001818154811061026957600080fd5b906000526020600020016000915090505481565b60008054906101000a900473ffffffffffffffffffffffffffffffffffffffff1673ffffffffffffffffffffffffffffffffffffffff163373ffffffffffffffffffffffffffffffffffffffff161461030b576040517f08c379a000000000000000000000000000000000000000000000000000000000815260040161030290610b71565b60405180910390fd5b600015156004600084815260200190815260200160002060030160009054906101000a900460ff16151514610375576040517f08c379a000000000000000000000000000000000000000000000000000000000815260040161036c90610bdd565b60405180910390fd5b600073ffffffffffffffffffffffffffffffffffffffff166004600084815260200190815260200160002060000160009054906101000a900473ffffffffffffffffffffffffffffffffffffffff1673ffffffffffffffffffffffffffffffffffffffff160361041a576040517f08c379a000000000000000000000000000000000000000000000000000000000815260040161041190610c49565b60405180910390fd5b6004600083815260200190815260200160002060020154471015610473576040517f08c379a000000000000000000000000000000000000000000000000000000000815260040161046a90610cb5565b60405180910390fd5b60006002826104829190610d04565b90506004600084815260200190815260200160002060010154810361058257600060035460025460046000878152602001908152602001600020600201546104ca9190610d64565b6104d49190610da6565b600260046000878152602001908152602001600020600201546104f79190610d64565b6105019190610dd7565b90506004600085815260200190815260200160002060000160009054906101000a900473ffffffffffffffffffffffffffffffffffffffff1673ffffffffffffffffffffffffffffffffffffffff166108fc829081150290604051600060405180830381858888f1935050505015801561057f573d6000803e3d6000fd5b50505b7f761bbf8ad882003774e8650d36faa00fdea1a75836949dfb7eb6ac36fe29505c6004600085815260200190815260200160002060000160009054906101000a900473ffffffffffffffffffffffffffffffffffffffff1682600460008781526020019081526020016000206001015460405161060193929190610e0b565b60405180910390a1505050565b6000600181111561062257610621610e42565b5b811480610640575060018081111561063d5761063c610e42565b5b81145b61067f576040517f08c379a000000000000000000000000000000000000000000000000000000000815260040161067690610ee3565b60405180910390fd5b600160008154811061069457610693610f03565b5b90600052602060002001543414806106c95750600180815481106106bb576106ba610f03565b5b906000526020600020015434145b806106f2575060016002815481106106e4576106e3610f03565b5b906000526020600020015434145b610731576040517f08c379a000000000000000000000000000000000000000000000000000000000815260040161072890610f7e565b60405180910390fd5b60008060009054906101000a900473ffffffffffffffffffffffffffffffffffffffff1673ffffffffffffffffffffffffffffffffffffffff1663aacc5a176040518163ffffffff1660e01b81526004016020604051808303816000875af11580156107a1573d6000803e3d6000fd5b505050506040513d601f19601f820116820180604052508101906107c59190610fb3565b905060405180608001604052803373ffffffffffffffffffffffffffffffffffffffff168152602001838152602001348152602001600015158152506004600083815260200190815260200160002060008201518160000160006101000a81548173ffffffffffffffffffffffffffffffffffffffff021916908373ffffffffffffffffffffffffffffffffffffffff160217905550602082015181600101556040820151816002015560608201518160030160006101000a81548160ff0219169083151502179055509050505050565b60008054906101000a900473ffffffffffffffffffffffffffffffffffffffff1681565b600560009054906101000a900473ffffffffffffffffffffffffffffffffffffffff1681565b60035481565b600080fd5b6000819050919050565b6108fe816108eb565b811461090957600080fd5b50565b60008135905061091b816108f5565b92915050565b600060208284031215610937576109366108e6565b5b60006109458482850161090c565b91505092915050565b600073ffffffffffffffffffffffffffffffffffffffff82169050919050565b60006109798261094e565b9050919050565b6109898161096e565b82525050565b610998816108eb565b82525050565b60008115159050919050565b6109b38161099e565b82525050565b60006080820190506109ce6000830187610980565b6109db602083018661098f565b6109e8604083018561098f565b6109f560608301846109aa565b95945050505050565b6000602082019050610a13600083018461098f565b92915050565b60008060408385031215610a3057610a2f6108e6565b5b6000610a3e8582860161090c565b9250506020610a4f8582860161090c565b9150509250929050565b6000819050919050565b6000610a7e610a79610a748461094e565b610a59565b61094e565b9050919050565b6000610a9082610a63565b9050919050565b6000610aa282610a85565b9050919050565b610ab281610a97565b82525050565b6000602082019050610acd6000830184610aa9565b92915050565b6000602082019050610ae86000830184610980565b92915050565b600082825260208201905092915050565b7f4f6e6c79207468652052616e646f6d4e756d626572436f6e73756d657220636f60008201527f6e74726163742063616e2063616c6c20746869732066756e6374696f6e000000602082015250565b6000610b5b603d83610aee565b9150610b6682610aff565b604082019050919050565b60006020820190508181036000830152610b8a81610b4e565b9050919050565b7f47616d6520616c726561647920656e6465640000000000000000000000000000600082015250565b6000610bc7601283610aee565b9150610bd282610b91565b602082019050919050565b60006020820190508181036000830152610bf681610bba565b9050919050565b7f4e6f2067616d6520666f756e6420776974682074686973206964000000000000600082015250565b6000610c33601a83610aee565b9150610c3e82610bfd565b602082019050919050565b60006020820190508181036000830152610c6281610c26565b9050919050565b7f436f6e74726163742062616c616e636520746f6f206c6f770000000000000000600082015250565b6000610c9f601883610aee565b9150610caa82610c69565b602082019050919050565b60006020820190508181036000830152610cce81610c92565b9050919050565b7f4e487b7100000000000000000000000000000000000000000000000000000000600052601260045260246000fd5b6000610d0f826108eb565b9150610d1a836108eb565b925082610d2a57610d29610cd5565b5b828206905092915050565b7f4e487b7100000000000000000000000000000000000000000000000000000000600052601160045260246000fd5b6000610d6f826108eb565b9150610d7a836108eb565b9250828202610d88816108eb565b91508282048414831517610d9f57610d9e610d35565b5b5092915050565b6000610db1826108eb565b9150610dbc836108eb565b925082610dcc57610dcb610cd5565b5b828204905092915050565b6000610de2826108eb565b9150610ded836108eb565b9250828203905081811115610e0557610e04610d35565b5b92915050565b6000606082019050610e206000830186610980565b610e2d602083018561098f565b610e3a604083018461098f565b949350505050565b7f4e487b7100000000000000000000000000000000000000000000000000000000600052602160045260246000fd5b7f596f75206d75737420677565737320656974686572206865616473206f72207460008201527f61696c7300000000000000000000000000000000000000000000000000000000602082015250565b6000610ecd602483610aee565b9150610ed882610e71565b604082019050919050565b60006020820190508181036000830152610efc81610ec0565b9050919050565b7f4e487b7100000000000000000000000000000000000000000000000000000000600052603260045260246000fd5b7f416d6f756e742073656e74206e6f7420636f7272656374000000000000000000600082015250565b6000610f68601783610aee565b9150610f7382610f32565b602082019050919050565b60006020820190508181036000830152610f9781610f5b565b9050919050565b600081519050610fad816108f5565b92915050565b600060208284031215610fc957610fc86108e6565b5b6000610fd784828501610f9e565b9150509291505056fea2646970667358221220efea3ac327373e7ff9aa5c70bd6d7fb907e9ce9131ffb361434644842a17d0f464736f6c63430008110033",
  "linkReferences": {},
  "deployedLinkReferences": {}
}