{
  "_format": "hh-sol-artifact-1",
  "contractName": "CoinFlip",
  "sourceName": "contracts/coin_flip.sol",
  "abi": [
    {
      "inputs": [
        {
          "internalType": "address",
          "name": "randomness_address",
          "type": "address"
        }
      ],
      "stateMutability": "nonpayable",
      "type": "constructor"
    },
    {
      "anonymous": false,
      "inputs": [
        {
          "indexed": false,
          "internalType": "address",
          "name": "player",
          "type": "address"
        },
        {
          "indexed": false,
          "internalType": "uint256",
          "name": "amount",
          "type": "uint256"
        },
        {
          "indexed": false,
          "internalType": "uint256",
          "name": "bet",
          "type": "uint256"
        },
        {
          "indexed": false,
          "internalType": "uint256",
          "name": "request_id",
          "type": "uint256"
        }
      ],
      "name": "GamePlay",
      "type": "event"
    },
    {
      "anonymous": false,
      "inputs": [
        {
          "indexed": false,
          "internalType": "address",
          "name": "player",
          "type": "address"
        },
        {
          "indexed": false,
          "internalType": "uint256",
          "name": "random_number",
          "type": "uint256"
        },
        {
          "indexed": false,
          "internalType": "uint256",
          "name": "bet",
          "type": "uint256"
        }
      ],
      "name": "GameResult",
      "type": "event"
    },
    {
      "stateMutability": "payable",
      "type": "fallback"
    },
    {
      "inputs": [
        {
          "internalType": "uint256",
          "name": "",
          "type": "uint256"
        }
      ],
      "name": "amounts",
      "outputs": [
        {
          "internalType": "uint256",
          "name": "",
          "type": "uint256"
        }
      ],
      "stateMutability": "view",
      "type": "function"
    },
    {
      "inputs": [],
      "name": "denominator",
      "outputs": [
        {
          "internalType": "uint256",
          "name": "",
          "type": "uint256"
        }
      ],
      "stateMutability": "view",
      "type": "function"
    },
    {
      "inputs": [
        {
          "internalType": "uint256",
          "name": "requestId",
          "type": "uint256"
        },
        {
          "internalType": "uint256",
          "name": "random_number",
          "type": "uint256"
        }
      ],
      "name": "flip_result",
      "outputs": [],
      "stateMutability": "nonpayable",
      "type": "function"
    },
    {
      "inputs": [
        {
          "internalType": "uint256",
          "name": "",
          "type": "uint256"
        }
      ],
      "name": "games",
      "outputs": [
        {
          "internalType": "address",
          "name": "player",
          "type": "address"
        },
        {
          "internalType": "uint256",
          "name": "bet",
          "type": "uint256"
        },
        {
          "internalType": "uint256",
          "name": "amount",
          "type": "uint256"
        },
        {
          "internalType": "bool",
          "name": "ended",
          "type": "bool"
        }
      ],
      "stateMutability": "view",
      "type": "function"
    },
    {
      "inputs": [],
      "name": "owner",
      "outputs": [
        {
          "internalType": "address",
          "name": "",
          "type": "address"
        }
      ],
      "stateMutability": "view",
      "type": "function"
    },
    {
      "inputs": [
        {
          "internalType": "uint256",
          "name": "_bet",
          "type": "uint256"
        }
      ],
      "name": "play",
      "outputs": [],
      "stateMutability": "payable",
      "type": "function"
    },
    {
      "inputs": [],
      "name": "randomness_contract",
      "outputs": [
        {
          "internalType": "contract RandomNumberConsumer",
          "name": "",
          "type": "address"
        }
      ],
      "stateMutability": "view",
      "type": "function"
    },
    {
      "inputs": [
        {
          "internalType": "address",
          "name": "",
          "type": "address"
        }
      ],
      "name": "request_ids",
      "outputs": [
        {
          "internalType": "uint256",
          "name": "",
          "type": "uint256"
        }
      ],
      "stateMutability": "view",
      "type": "function"
    },
    {
      "inputs": [],
      "name": "winning_fee",
      "outputs": [
        {
          "internalType": "uint256",
          "name": "",
          "type": "uint256"
        }
      ],
      "stateMutability": "view",
      "type": "function"
    },
    {
      "stateMutability": "payable",
      "type": "receive"
    }
  ],
  "bytecode": "0x6080604052604051806060016040528067016345785d8a000067ffffffffffffffff1681526020016706f05b59d3b2000067ffffffffffffffff168152602001670de0b6b3a764000067ffffffffffffffff168152506001906003620000679291906200012d565b50600560025560646003553480156200007f57600080fd5b50604051620013eb380380620013eb8339818101604052810190620000a5919062000214565b806000806101000a81548173ffffffffffffffffffffffffffffffffffffffff021916908373ffffffffffffffffffffffffffffffffffffffff16021790555033600660006101000a81548173ffffffffffffffffffffffffffffffffffffffff021916908373ffffffffffffffffffffffffffffffffffffffff1602179055505062000246565b82805482825590600052602060002090810192821562000178579160200282015b8281111562000177578251829067ffffffffffffffff169055916020019190600101906200014e565b5b5090506200018791906200018b565b5090565b5b80821115620001a65760008160009055506001016200018c565b5090565b600080fd5b600073ffffffffffffffffffffffffffffffffffffffff82169050919050565b6000620001dc82620001af565b9050919050565b620001ee81620001cf565b8114620001fa57600080fd5b50565b6000815190506200020e81620001e3565b92915050565b6000602082840312156200022d576200022c620001aa565b5b60006200023d84828501620001fd565b91505092915050565b61119580620002566000396000f3fe60806040526004361061008a5760003560e01c8063585d458611610059578063585d4586146101785780636898f82b146101a15780636a7223fc146101bd5780638da5cb5b146101e857806396ce07951461021357610091565b8063117a5b901461009357806336b3c80f146100d357806345f0a44f146100fe5780634d4f17bb1461013b57610091565b3661009157005b005b34801561009f57600080fd5b506100ba60048036038101906100b59190610a02565b61023e565b6040516100ca9493929190610a9a565b60405180910390f35b3480156100df57600080fd5b506100e861029b565b6040516100f59190610adf565b60405180910390f35b34801561010a57600080fd5b5061012560048036038101906101209190610a02565b6102a1565b6040516101329190610adf565b60405180910390f35b34801561014757600080fd5b50610162600480360381019061015d9190610b26565b6102c5565b60405161016f9190610adf565b60405180910390f35b34801561018457600080fd5b5061019f600480360381019061019a9190610b53565b6102dd565b005b6101bb60048036038101906101b69190610a02565b61066e565b005b3480156101c957600080fd5b506101d2610977565b6040516101df9190610bf2565b60405180910390f35b3480156101f457600080fd5b506101fd61099b565b60405161020a9190610c0d565b60405180910390f35b34801561021f57600080fd5b506102286109c1565b6040516102359190610adf565b60405180910390f35b60046020528060005260406000206000915090508060000160009054906101000a900473ffffffffffffffffffffffffffffffffffffffff16908060010154908060020154908060030160009054906101000a900460ff16905084565b60025481565b600181815481106102b157600080fd5b906000526020600020016000915090505481565b60056020528060005260406000206000915090505481565b60008054906101000a900473ffffffffffffffffffffffffffffffffffffffff1673ffffffffffffffffffffffffffffffffffffffff163373ffffffffffffffffffffffffffffffffffffffff161461036b576040517f08c379a000000000000000000000000000000000000000000000000000000000815260040161036290610cab565b60405180910390fd5b600015156004600084815260200190815260200160002060030160009054906101000a900460ff161515146103d5576040517f08c379a00000000000000000000000000000000000000000000000000000000081526004016103cc90610d17565b60405180910390fd5b600073ffffffffffffffffffffffffffffffffffffffff166004600084815260200190815260200160002060000160009054906101000a900473ffffffffffffffffffffffffffffffffffffffff1673ffffffffffffffffffffffffffffffffffffffff160361047a576040517f08c379a000000000000000000000000000000000000000000000000000000000815260040161047190610d83565b60405180910390fd5b60046000838152602001908152602001600020600201544710156104d3576040517f08c379a00000000000000000000000000000000000000000000000000000000081526004016104ca90610def565b60405180910390fd5b60006002826104e29190610e3e565b9050600460008481526020019081526020016000206001015481036105e2576000600354600254600460008781526020019081526020016000206002015461052a9190610e9e565b6105349190610ee0565b600260046000878152602001908152602001600020600201546105579190610e9e565b6105619190610f11565b90506004600085815260200190815260200160002060000160009054906101000a900473ffffffffffffffffffffffffffffffffffffffff1673ffffffffffffffffffffffffffffffffffffffff166108fc829081150290604051600060405180830381858888f193505050501580156105df573d6000803e3d6000fd5b50505b7f761bbf8ad882003774e8650d36faa00fdea1a75836949dfb7eb6ac36fe29505c6004600085815260200190815260200160002060000160009054906101000a900473ffffffffffffffffffffffffffffffffffffffff1682600460008781526020019081526020016000206001015460405161066193929190610f45565b60405180910390a1505050565b6000600181111561068257610681610f7c565b5b8114806106a0575060018081111561069d5761069c610f7c565b5b81145b6106df576040517f08c379a00000000000000000000000000000000000000000000000000000000081526004016106d69061101d565b60405180910390fd5b60016000815481106106f4576106f361103d565b5b906000526020600020015434148061072957506001808154811061071b5761071a61103d565b5b906000526020600020015434145b80610752575060016002815481106107445761074361103d565b5b906000526020600020015434145b610791576040517f08c379a0000000000000000000000000000000000000000000000000000000008152600401610788906110b8565b60405180910390fd5b60008060009054906101000a900473ffffffffffffffffffffffffffffffffffffffff1673ffffffffffffffffffffffffffffffffffffffff1663aacc5a176040518163ffffffff1660e01b81526004016020604051808303816000875af1158015610801573d6000803e3d6000fd5b505050506040513d601f19601f8201168201806040525081019061082591906110ed565b905060405180608001604052803373ffffffffffffffffffffffffffffffffffffffff168152602001838152602001348152602001600015158152506004600083815260200190815260200160002060008201518160000160006101000a81548173ffffffffffffffffffffffffffffffffffffffff021916908373ffffffffffffffffffffffffffffffffffffffff160217905550602082015181600101556040820151816002015560608201518160030160006101000a81548160ff02191690831515021790555090505080600560003373ffffffffffffffffffffffffffffffffffffffff1673ffffffffffffffffffffffffffffffffffffffff168152602001908152602001600020819055507ff19de367e8d44bb3aeb3b9c1c86dc5ab6f74caced54e8846e99221a5c5e9879f3334848460405161096b949392919061111a565b60405180910390a15050565b60008054906101000a900473ffffffffffffffffffffffffffffffffffffffff1681565b600660009054906101000a900473ffffffffffffffffffffffffffffffffffffffff1681565b60035481565b600080fd5b6000819050919050565b6109df816109cc565b81146109ea57600080fd5b50565b6000813590506109fc816109d6565b92915050565b600060208284031215610a1857610a176109c7565b5b6000610a26848285016109ed565b91505092915050565b600073ffffffffffffffffffffffffffffffffffffffff82169050919050565b6000610a5a82610a2f565b9050919050565b610a6a81610a4f565b82525050565b610a79816109cc565b82525050565b60008115159050919050565b610a9481610a7f565b82525050565b6000608082019050610aaf6000830187610a61565b610abc6020830186610a70565b610ac96040830185610a70565b610ad66060830184610a8b565b95945050505050565b6000602082019050610af46000830184610a70565b92915050565b610b0381610a4f565b8114610b0e57600080fd5b50565b600081359050610b2081610afa565b92915050565b600060208284031215610b3c57610b3b6109c7565b5b6000610b4a84828501610b11565b91505092915050565b60008060408385031215610b6a57610b696109c7565b5b6000610b78858286016109ed565b9250506020610b89858286016109ed565b9150509250929050565b6000819050919050565b6000610bb8610bb3610bae84610a2f565b610b93565b610a2f565b9050919050565b6000610bca82610b9d565b9050919050565b6000610bdc82610bbf565b9050919050565b610bec81610bd1565b82525050565b6000602082019050610c076000830184610be3565b92915050565b6000602082019050610c226000830184610a61565b92915050565b600082825260208201905092915050565b7f4f6e6c79207468652052616e646f6d4e756d626572436f6e73756d657220636f60008201527f6e74726163742063616e2063616c6c20746869732066756e6374696f6e000000602082015250565b6000610c95603d83610c28565b9150610ca082610c39565b604082019050919050565b60006020820190508181036000830152610cc481610c88565b9050919050565b7f47616d6520616c726561647920656e6465640000000000000000000000000000600082015250565b6000610d01601283610c28565b9150610d0c82610ccb565b602082019050919050565b60006020820190508181036000830152610d3081610cf4565b9050919050565b7f4e6f2067616d6520666f756e6420776974682074686973206964000000000000600082015250565b6000610d6d601a83610c28565b9150610d7882610d37565b602082019050919050565b60006020820190508181036000830152610d9c81610d60565b9050919050565b7f436f6e74726163742062616c616e636520746f6f206c6f770000000000000000600082015250565b6000610dd9601883610c28565b9150610de482610da3565b602082019050919050565b60006020820190508181036000830152610e0881610dcc565b9050919050565b7f4e487b7100000000000000000000000000000000000000000000000000000000600052601260045260246000fd5b6000610e49826109cc565b9150610e54836109cc565b925082610e6457610e63610e0f565b5b828206905092915050565b7f4e487b7100000000000000000000000000000000000000000000000000000000600052601160045260246000fd5b6000610ea9826109cc565b9150610eb4836109cc565b9250828202610ec2816109cc565b91508282048414831517610ed957610ed8610e6f565b5b5092915050565b6000610eeb826109cc565b9150610ef6836109cc565b925082610f0657610f05610e0f565b5b828204905092915050565b6000610f1c826109cc565b9150610f27836109cc565b9250828203905081811115610f3f57610f3e610e6f565b5b92915050565b6000606082019050610f5a6000830186610a61565b610f676020830185610a70565b610f746040830184610a70565b949350505050565b7f4e487b7100000000000000000000000000000000000000000000000000000000600052602160045260246000fd5b7f596f75206d75737420677565737320656974686572206865616473206f72207460008201527f61696c7300000000000000000000000000000000000000000000000000000000602082015250565b6000611007602483610c28565b915061101282610fab565b604082019050919050565b6000602082019050818103600083015261103681610ffa565b9050919050565b7f4e487b7100000000000000000000000000000000000000000000000000000000600052603260045260246000fd5b7f416d6f756e742073656e74206e6f7420636f7272656374000000000000000000600082015250565b60006110a2601783610c28565b91506110ad8261106c565b602082019050919050565b600060208201905081810360008301526110d181611095565b9050919050565b6000815190506110e7816109d6565b92915050565b600060208284031215611103576111026109c7565b5b6000611111848285016110d8565b91505092915050565b600060808201905061112f6000830187610a61565b61113c6020830186610a70565b6111496040830185610a70565b6111566060830184610a70565b9594505050505056fea2646970667358221220d2a1f208071d54e2b5c29dc28b0f3d98b6bf40dd4ea2e618884baeb124d946b764736f6c63430008110033",
  "linkReferences": {},
  "deployedLinkReferences": {}
}