{
  "_format": "hh-sol-artifact-1",
  "contractName": "randomness",
  "sourceName": "contracts/randomness.sol",
  "abi": [
    {
      "inputs": [],
      "stateMutability": "nonpayable",
      "type": "constructor"
    },
    {
      "inputs": [],
      "name": "lastRequestId",
      "outputs": [
        {
          "internalType": "uint256",
          "name": "",
          "type": "uint256"
        }
      ],
      "stateMutability": "view",
      "type": "function"
    },
    {
      "inputs": [
        {
          "internalType": "uint256",
          "name": "_requestId",
          "type": "uint256"
        },
        {
          "internalType": "uint256[]",
          "name": "_randomWords",
          "type": "uint256[]"
        }
      ],
      "name": "rawFulfillRandomWords",
      "outputs": [],
      "stateMutability": "nonpayable",
      "type": "function"
    },
    {
      "inputs": [
        {
          "internalType": "uint256",
          "name": "",
          "type": "uint256"
        }
      ],
      "name": "requestIds",
      "outputs": [
        {
          "internalType": "uint256",
          "name": "",
          "type": "uint256"
        }
      ],
      "stateMutability": "view",
      "type": "function"
    },
    {
      "inputs": [],
      "name": "requestRandomWords",
      "outputs": [
        {
          "internalType": "uint256",
          "name": "requestId",
          "type": "uint256"
        }
      ],
      "stateMutability": "nonpayable",
      "type": "function"
    },
    {
      "inputs": [
        {
          "internalType": "uint256",
          "name": "",
          "type": "uint256"
        }
      ],
      "name": "s_requests",
      "outputs": [
        {
          "internalType": "uint256",
          "name": "paid",
          "type": "uint256"
        },
        {
          "internalType": "bool",
          "name": "fulfilled",
          "type": "bool"
        }
      ],
      "stateMutability": "view",
      "type": "function"
    }
  ],
  "bytecode": "0x60c0604052620f4240600360006101000a81548163ffffffff021916908363ffffffff16021790555060038060046101000a81548161ffff021916908361ffff1602179055506001600360066101000a81548163ffffffff021916908363ffffffff16021790555073fafedb041c0dd4fa2dc0d87a6b0979ee6fa7af5f6003600a6101000a81548173ffffffffffffffffffffffffffffffffffffffff021916908373ffffffffffffffffffffffffffffffffffffffff1602179055507338336bdae79747a1d2c4e6c67bbf382244287ca6600460006101000a81548173ffffffffffffffffffffffffffffffffffffffff021916908373ffffffffffffffffffffffffffffffffffffffff16021790555034801561011d57600080fd5b506003600a9054906101000a900473ffffffffffffffffffffffffffffffffffffffff16600460009054906101000a900473ffffffffffffffffffffffffffffffffffffffff168173ffffffffffffffffffffffffffffffffffffffff1660808173ffffffffffffffffffffffffffffffffffffffff16815250508073ffffffffffffffffffffffffffffffffffffffff1660a08173ffffffffffffffffffffffffffffffffffffffff1681525050505033600560006101000a81548173ffffffffffffffffffffffffffffffffffffffff021916908373ffffffffffffffffffffffffffffffffffffffff16021790555060805160a051610e2761025060003960008181610117015281816102e6015281816105740152818161059501526106b5015260006105380152610e276000f3fe608060405234801561001057600080fd5b50600436106100575760003560e01c80631fe543e31461005c5780638796ba8c14610078578063a168fa89146100a8578063e0c86289146100d9578063fc2a88c3146100f7575b600080fd5b61007660048036038101906100719190610958565b610115565b005b610092600480360381019061008d91906109b4565b6101b1565b60405161009f91906109f0565b60405180910390f35b6100c260048036038101906100bd91906109b4565b6101d5565b6040516100d0929190610a26565b60405180910390f35b6100e1610206565b6040516100ee91906109f0565b60405180910390f35b6100ff61047a565b60405161010c91906109f0565b60405180910390f35b7f000000000000000000000000000000000000000000000000000000000000000073ffffffffffffffffffffffffffffffffffffffff163373ffffffffffffffffffffffffffffffffffffffff16146101a3576040517f08c379a000000000000000000000000000000000000000000000000000000000815260040161019a90610aac565b60405180910390fd5b6101ad8282610480565b5050565b600181815481106101c157600080fd5b906000526020600020016000915090505481565b60006020528060005260406000206000915090508060000154908060010160009054906101000a900460ff16905082565b6000600560009054906101000a900473ffffffffffffffffffffffffffffffffffffffff1673ffffffffffffffffffffffffffffffffffffffff163373ffffffffffffffffffffffffffffffffffffffff1614610298576040517f08c379a000000000000000000000000000000000000000000000000000000000815260040161028f90610b3e565b60405180910390fd5b6102d7600360009054906101000a900463ffffffff16600360049054906101000a900461ffff16600360069054906101000a900463ffffffff16610534565b905060405180606001604052807f000000000000000000000000000000000000000000000000000000000000000073ffffffffffffffffffffffffffffffffffffffff16634306d354600360009054906101000a900463ffffffff166040518263ffffffff1660e01b815260040161034f9190610b7d565b602060405180830381865afa15801561036c573d6000803e3d6000fd5b505050506040513d601f19601f820116820180604052508101906103909190610bad565b8152602001600015158152602001600067ffffffffffffffff8111156103b9576103b8610815565b5b6040519080825280602002602001820160405280156103e75781602001602082028036833780820191505090505b508152506000808381526020019081526020016000206000820151816000015560208201518160010160006101000a81548160ff021916908315150217905550604082015181600201908051906020019061044392919061074b565b5090505060018190806001815401808255809150506001900390600052602060002001600090919091909150558060028190555090565b60025481565b600080600084815260200190815260200160002060000154116104d8576040517f08c379a00000000000000000000000000000000000000000000000000000000081526004016104cf90610c26565b60405180910390fd5b600160008084815260200190815260200160002060010160006101000a81548160ff02191690831515021790555080600080848152602001908152602001600020600201908051906020019061052f92919061074b565b505050565b60007f000000000000000000000000000000000000000000000000000000000000000073ffffffffffffffffffffffffffffffffffffffff16634000aea07f00000000000000000000000000000000000000000000000000000000000000007f000000000000000000000000000000000000000000000000000000000000000073ffffffffffffffffffffffffffffffffffffffff16634306d354886040518263ffffffff1660e01b81526004016105ec9190610b7d565b602060405180830381865afa158015610609573d6000803e3d6000fd5b505050506040513d601f19601f8201168201806040525081019061062d9190610bad565b87878760405160200161064293929190610c63565b6040516020818303038152906040526040518463ffffffff1660e01b815260040161066f93929190610d5a565b6020604051808303816000875af115801561068e573d6000803e3d6000fd5b505050506040513d601f19601f820116820180604052508101906106b29190610dc4565b507f000000000000000000000000000000000000000000000000000000000000000073ffffffffffffffffffffffffffffffffffffffff1663fc2a88c36040518163ffffffff1660e01b8152600401602060405180830381865afa15801561071e573d6000803e3d6000fd5b505050506040513d601f19601f820116820180604052508101906107429190610bad565b90509392505050565b828054828255906000526020600020908101928215610787579160200282015b8281111561078657825182559160200191906001019061076b565b5b5090506107949190610798565b5090565b5b808211156107b1576000816000905550600101610799565b5090565b6000604051905090565b600080fd5b600080fd5b6000819050919050565b6107dc816107c9565b81146107e757600080fd5b50565b6000813590506107f9816107d3565b92915050565b600080fd5b6000601f19601f8301169050919050565b7f4e487b7100000000000000000000000000000000000000000000000000000000600052604160045260246000fd5b61084d82610804565b810181811067ffffffffffffffff8211171561086c5761086b610815565b5b80604052505050565b600061087f6107b5565b905061088b8282610844565b919050565b600067ffffffffffffffff8211156108ab576108aa610815565b5b602082029050602081019050919050565b600080fd5b60006108d46108cf84610890565b610875565b905080838252602082019050602084028301858111156108f7576108f66108bc565b5b835b81811015610920578061090c88826107ea565b8452602084019350506020810190506108f9565b5050509392505050565b600082601f83011261093f5761093e6107ff565b5b813561094f8482602086016108c1565b91505092915050565b6000806040838503121561096f5761096e6107bf565b5b600061097d858286016107ea565b925050602083013567ffffffffffffffff81111561099e5761099d6107c4565b5b6109aa8582860161092a565b9150509250929050565b6000602082840312156109ca576109c96107bf565b5b60006109d8848285016107ea565b91505092915050565b6109ea816107c9565b82525050565b6000602082019050610a0560008301846109e1565b92915050565b60008115159050919050565b610a2081610a0b565b82525050565b6000604082019050610a3b60008301856109e1565b610a486020830184610a17565b9392505050565b600082825260208201905092915050565b7f6f6e6c792056524620563220777261707065722063616e2066756c66696c6c00600082015250565b6000610a96601f83610a4f565b9150610aa182610a60565b602082019050919050565b60006020820190508181036000830152610ac581610a89565b9050919050565b7f4f6e6c79206f776e65722063616e2063616c6c20746869732066756e6374696f60008201527f6e2e000000000000000000000000000000000000000000000000000000000000602082015250565b6000610b28602283610a4f565b9150610b3382610acc565b604082019050919050565b60006020820190508181036000830152610b5781610b1b565b9050919050565b600063ffffffff82169050919050565b610b7781610b5e565b82525050565b6000602082019050610b926000830184610b6e565b92915050565b600081519050610ba7816107d3565b92915050565b600060208284031215610bc357610bc26107bf565b5b6000610bd184828501610b98565b91505092915050565b7f72657175657374206e6f7420666f756e64000000000000000000000000000000600082015250565b6000610c10601183610a4f565b9150610c1b82610bda565b602082019050919050565b60006020820190508181036000830152610c3f81610c03565b9050919050565b600061ffff82169050919050565b610c5d81610c46565b82525050565b6000606082019050610c786000830186610b6e565b610c856020830185610c54565b610c926040830184610b6e565b949350505050565b600073ffffffffffffffffffffffffffffffffffffffff82169050919050565b6000610cc582610c9a565b9050919050565b610cd581610cba565b82525050565b600081519050919050565b600082825260208201905092915050565b60005b83811015610d15578082015181840152602081019050610cfa565b60008484015250505050565b6000610d2c82610cdb565b610d368185610ce6565b9350610d46818560208601610cf7565b610d4f81610804565b840191505092915050565b6000606082019050610d6f6000830186610ccc565b610d7c60208301856109e1565b8181036040830152610d8e8184610d21565b9050949350505050565b610da181610a0b565b8114610dac57600080fd5b50565b600081519050610dbe81610d98565b92915050565b600060208284031215610dda57610dd96107bf565b5b6000610de884828501610daf565b9150509291505056fea2646970667358221220da849807e3fa5aae3f4b578f8c633a2dc53daeeb15f7db1c071d2f877c4150ab64736f6c63430008110033",
  "linkReferences": {},
  "deployedLinkReferences": {}
}