{
  "_format": "hh-sol-artifact-1",
  "contractName": "randomness",
  "sourceName": "contracts/randomness.sol",
  "abi": [
    {
      "inputs": [],
      "stateMutability": "nonpayable",
      "type": "constructor"
    },
    {
      "inputs": [],
      "name": "getRandomNumber",
      "outputs": [
        {
          "internalType": "uint256",
          "name": "",
          "type": "uint256"
        }
      ],
      "stateMutability": "view",
      "type": "function"
    },
    {
      "inputs": [
        {
          "internalType": "uint256",
          "name": "_requestId",
          "type": "uint256"
        },
        {
          "internalType": "uint256[]",
          "name": "_randomWords",
          "type": "uint256[]"
        }
      ],
      "name": "rawFulfillRandomWords",
      "outputs": [],
      "stateMutability": "nonpayable",
      "type": "function"
    },
    {
      "inputs": [],
      "name": "request",
      "outputs": [
        {
          "internalType": "uint256",
          "name": "paid",
          "type": "uint256"
        },
        {
          "internalType": "bool",
          "name": "fulfilled",
          "type": "bool"
        },
        {
          "internalType": "uint256",
          "name": "randomWords",
          "type": "uint256"
        }
      ],
      "stateMutability": "view",
      "type": "function"
    },
    {
      "inputs": [],
      "name": "requestRandomWords",
      "outputs": [
        {
          "internalType": "uint256",
          "name": "requestId",
          "type": "uint256"
        }
      ],
      "stateMutability": "nonpayable",
      "type": "function"
    }
  ],
  "bytecode": "0x60c0604052620f4240600360006101000a81548163ffffffff021916908363ffffffff16021790555060038060046101000a81548161ffff021916908361ffff1602179055506001600360066101000a81548163ffffffff021916908363ffffffff16021790555073fafedb041c0dd4fa2dc0d87a6b0979ee6fa7af5f6003600a6101000a81548173ffffffffffffffffffffffffffffffffffffffff021916908373ffffffffffffffffffffffffffffffffffffffff1602179055507338336bdae79747a1d2c4e6c67bbf382244287ca6600460006101000a81548173ffffffffffffffffffffffffffffffffffffffff021916908373ffffffffffffffffffffffffffffffffffffffff16021790555034801561011d57600080fd5b506003600a9054906101000a900473ffffffffffffffffffffffffffffffffffffffff16600460009054906101000a900473ffffffffffffffffffffffffffffffffffffffff168173ffffffffffffffffffffffffffffffffffffffff1660808173ffffffffffffffffffffffffffffffffffffffff16815250508073ffffffffffffffffffffffffffffffffffffffff1660a08173ffffffffffffffffffffffffffffffffffffffff1681525050505033600560006101000a81548173ffffffffffffffffffffffffffffffffffffffff021916908373ffffffffffffffffffffffffffffffffffffffff16021790555060805160a051610d0261024f6000396000818160cb01528181610283015281816104490152818161046a015261058a0152600061040d0152610d026000f3fe608060405234801561001057600080fd5b506004361061004c5760003560e01c80631fe543e314610051578063338cdca11461006d578063dbdff2c11461008d578063e0c86289146100ab575b600080fd5b61006b600480360381019061006691906107c3565b6100c9565b005b610075610165565b60405161008493929190610849565b60405180910390f35b61009561018a565b6040516100a29190610880565b60405180910390f35b6100b36101a3565b6040516100c09190610880565b60405180910390f35b7f000000000000000000000000000000000000000000000000000000000000000073ffffffffffffffffffffffffffffffffffffffff163373ffffffffffffffffffffffffffffffffffffffff1614610157576040517f08c379a000000000000000000000000000000000000000000000000000000000815260040161014e906108f8565b60405180910390fd5b610161828261037b565b5050565b60008060000154908060010160009054906101000a900460ff16908060020154905083565b6000600a60006002015461019e9190610947565b905090565b6000600560009054906101000a900473ffffffffffffffffffffffffffffffffffffffff1673ffffffffffffffffffffffffffffffffffffffff163373ffffffffffffffffffffffffffffffffffffffff1614610235576040517f08c379a000000000000000000000000000000000000000000000000000000000815260040161022c906109ea565b60405180910390fd5b610274600360009054906101000a900463ffffffff16600360049054906101000a900461ffff16600360069054906101000a900463ffffffff16610409565b905060405180606001604052807f000000000000000000000000000000000000000000000000000000000000000073ffffffffffffffffffffffffffffffffffffffff16634306d354600360009054906101000a900463ffffffff166040518263ffffffff1660e01b81526004016102ec9190610a29565b602060405180830381865afa158015610309573d6000803e3d6000fd5b505050506040513d601f19601f8201168201806040525081019061032d9190610a59565b81526020016000151581526020016000815250600080820151816000015560208201518160010160006101000a81548160ff0219169083151502179055506040820151816002015590505090565b60008060000154116103c2576040517f08c379a00000000000000000000000000000000000000000000000000000000081526004016103b990610ad2565b60405180910390fd5b6001600060010160006101000a81548160ff021916908315150217905550806000815181106103f4576103f3610af2565b5b60200260200101516000600201819055505050565b60007f000000000000000000000000000000000000000000000000000000000000000073ffffffffffffffffffffffffffffffffffffffff16634000aea07f00000000000000000000000000000000000000000000000000000000000000007f000000000000000000000000000000000000000000000000000000000000000073ffffffffffffffffffffffffffffffffffffffff16634306d354886040518263ffffffff1660e01b81526004016104c19190610a29565b602060405180830381865afa1580156104de573d6000803e3d6000fd5b505050506040513d601f19601f820116820180604052508101906105029190610a59565b87878760405160200161051793929190610b3e565b6040516020818303038152906040526040518463ffffffff1660e01b815260040161054493929190610c35565b6020604051808303816000875af1158015610563573d6000803e3d6000fd5b505050506040513d601f19601f820116820180604052508101906105879190610c9f565b507f000000000000000000000000000000000000000000000000000000000000000073ffffffffffffffffffffffffffffffffffffffff1663fc2a88c36040518163ffffffff1660e01b8152600401602060405180830381865afa1580156105f3573d6000803e3d6000fd5b505050506040513d601f19601f820116820180604052508101906106179190610a59565b90509392505050565b6000604051905090565b600080fd5b600080fd5b6000819050919050565b61064781610634565b811461065257600080fd5b50565b6000813590506106648161063e565b92915050565b600080fd5b6000601f19601f8301169050919050565b7f4e487b7100000000000000000000000000000000000000000000000000000000600052604160045260246000fd5b6106b88261066f565b810181811067ffffffffffffffff821117156106d7576106d6610680565b5b80604052505050565b60006106ea610620565b90506106f682826106af565b919050565b600067ffffffffffffffff82111561071657610715610680565b5b602082029050602081019050919050565b600080fd5b600061073f61073a846106fb565b6106e0565b9050808382526020820190506020840283018581111561076257610761610727565b5b835b8181101561078b57806107778882610655565b845260208401935050602081019050610764565b5050509392505050565b600082601f8301126107aa576107a961066a565b5b81356107ba84826020860161072c565b91505092915050565b600080604083850312156107da576107d961062a565b5b60006107e885828601610655565b925050602083013567ffffffffffffffff8111156108095761080861062f565b5b61081585828601610795565b9150509250929050565b61082881610634565b82525050565b60008115159050919050565b6108438161082e565b82525050565b600060608201905061085e600083018661081f565b61086b602083018561083a565b610878604083018461081f565b949350505050565b6000602082019050610895600083018461081f565b92915050565b600082825260208201905092915050565b7f6f6e6c792056524620563220777261707065722063616e2066756c66696c6c00600082015250565b60006108e2601f8361089b565b91506108ed826108ac565b602082019050919050565b60006020820190508181036000830152610911816108d5565b9050919050565b7f4e487b7100000000000000000000000000000000000000000000000000000000600052601260045260246000fd5b600061095282610634565b915061095d83610634565b92508261096d5761096c610918565b5b828206905092915050565b7f4f6e6c79206f776e65722063616e2063616c6c20746869732066756e6374696f60008201527f6e2e000000000000000000000000000000000000000000000000000000000000602082015250565b60006109d460228361089b565b91506109df82610978565b604082019050919050565b60006020820190508181036000830152610a03816109c7565b9050919050565b600063ffffffff82169050919050565b610a2381610a0a565b82525050565b6000602082019050610a3e6000830184610a1a565b92915050565b600081519050610a538161063e565b92915050565b600060208284031215610a6f57610a6e61062a565b5b6000610a7d84828501610a44565b91505092915050565b7f72657175657374206e6f7420666f756e64000000000000000000000000000000600082015250565b6000610abc60118361089b565b9150610ac782610a86565b602082019050919050565b60006020820190508181036000830152610aeb81610aaf565b9050919050565b7f4e487b7100000000000000000000000000000000000000000000000000000000600052603260045260246000fd5b600061ffff82169050919050565b610b3881610b21565b82525050565b6000606082019050610b536000830186610a1a565b610b606020830185610b2f565b610b6d6040830184610a1a565b949350505050565b600073ffffffffffffffffffffffffffffffffffffffff82169050919050565b6000610ba082610b75565b9050919050565b610bb081610b95565b82525050565b600081519050919050565b600082825260208201905092915050565b60005b83811015610bf0578082015181840152602081019050610bd5565b60008484015250505050565b6000610c0782610bb6565b610c118185610bc1565b9350610c21818560208601610bd2565b610c2a8161066f565b840191505092915050565b6000606082019050610c4a6000830186610ba7565b610c57602083018561081f565b8181036040830152610c698184610bfc565b9050949350505050565b610c7c8161082e565b8114610c8757600080fd5b50565b600081519050610c9981610c73565b92915050565b600060208284031215610cb557610cb461062a565b5b6000610cc384828501610c8a565b9150509291505056fea26469706673582212200f97a556de70890892608e6e5e253967bc266b69b4360d73f804da9da2d12a6864736f6c63430008110033",
  "linkReferences": {},
  "deployedLinkReferences": {}
}