{
  "_format": "hh-sol-artifact-1",
  "contractName": "MappingBasic",
  "sourceName": "contracts/mapping.sol",
  "abi": [
    {
      "inputs": [
        {
          "internalType": "address",
          "name": "",
          "type": "address"
        }
      ],
      "name": "balances",
      "outputs": [
        {
          "internalType": "uint256",
          "name": "",
          "type": "uint256"
        }
      ],
      "stateMutability": "view",
      "type": "function"
    },
    {
      "inputs": [],
      "name": "examples",
      "outputs": [],
      "stateMutability": "nonpayable",
      "type": "function"
    },
    {
      "inputs": [
        {
          "internalType": "address",
          "name": "_addr",
          "type": "address"
        }
      ],
      "name": "get",
      "outputs": [
        {
          "internalType": "uint256",
          "name": "",
          "type": "uint256"
        }
      ],
      "stateMutability": "view",
      "type": "function"
    },
    {
      "inputs": [
        {
          "internalType": "address",
          "name": "",
          "type": "address"
        },
        {
          "internalType": "address",
          "name": "",
          "type": "address"
        }
      ],
      "name": "isFriend",
      "outputs": [
        {
          "internalType": "bool",
          "name": "",
          "type": "bool"
        }
      ],
      "stateMutability": "view",
      "type": "function"
    },
    {
      "inputs": [
        {
          "internalType": "address",
          "name": "_addr",
          "type": "address"
        }
      ],
      "name": "remove",
      "outputs": [],
      "stateMutability": "nonpayable",
      "type": "function"
    },
    {
      "inputs": [
        {
          "internalType": "address",
          "name": "_addr",
          "type": "address"
        },
        {
          "internalType": "uint256",
          "name": "_val",
          "type": "uint256"
        }
      ],
      "name": "set",
      "outputs": [],
      "stateMutability": "nonpayable",
      "type": "function"
    }
  ],
  "bytecode": "0x608060405234801561001057600080fd5b5061064c806100206000396000f3fe608060405234801561001057600080fd5b50600436106100625760003560e01c806327e235e31461006757806329092d0e146100975780632da5d42e146100b3578063335d00c2146100e35780633825d828146100ed578063c2bc2efc14610109575b600080fd5b610081600480360381019061007c9190610470565b610139565b60405161008e91906104b6565b60405180910390f35b6100b160048036038101906100ac9190610470565b610151565b005b6100cd60048036038101906100c891906104d1565b610198565b6040516100da919061052c565b60405180910390f35b6100eb6101c7565b005b61010760048036038101906101029190610573565b61037e565b005b610123600480360381019061011e9190610470565b6103c5565b60405161013091906104b6565b60405180910390f35b60006020528060005260406000206000915090505481565b60008060008373ffffffffffffffffffffffffffffffffffffffff1673ffffffffffffffffffffffffffffffffffffffff1681526020019081526020016000208190555050565b60016020528160005260406000206020528060005260406000206000915091509054906101000a900460ff1681565b607b6000803373ffffffffffffffffffffffffffffffffffffffff1673ffffffffffffffffffffffffffffffffffffffff1681526020019081526020016000208190555060008060003373ffffffffffffffffffffffffffffffffffffffff1673ffffffffffffffffffffffffffffffffffffffff1681526020019081526020016000205490506101c86000803373ffffffffffffffffffffffffffffffffffffffff1673ffffffffffffffffffffffffffffffffffffffff168152602001908152602001600020600082825461029e91906105e2565b925050819055506000803373ffffffffffffffffffffffffffffffffffffffff1673ffffffffffffffffffffffffffffffffffffffff1681526020019081526020016000206000905560018060003373ffffffffffffffffffffffffffffffffffffffff1673ffffffffffffffffffffffffffffffffffffffff16815260200190815260200160002060003073ffffffffffffffffffffffffffffffffffffffff1673ffffffffffffffffffffffffffffffffffffffff16815260200190815260200160002060006101000a81548160ff02191690831515021790555050565b806000808473ffffffffffffffffffffffffffffffffffffffff1673ffffffffffffffffffffffffffffffffffffffff168152602001908152602001600020819055505050565b60008060008373ffffffffffffffffffffffffffffffffffffffff1673ffffffffffffffffffffffffffffffffffffffff168152602001908152602001600020549050919050565b600080fd5b600073ffffffffffffffffffffffffffffffffffffffff82169050919050565b600061043d82610412565b9050919050565b61044d81610432565b811461045857600080fd5b50565b60008135905061046a81610444565b92915050565b6000602082840312156104865761048561040d565b5b60006104948482850161045b565b91505092915050565b6000819050919050565b6104b08161049d565b82525050565b60006020820190506104cb60008301846104a7565b92915050565b600080604083850312156104e8576104e761040d565b5b60006104f68582860161045b565b92505060206105078582860161045b565b9150509250929050565b60008115159050919050565b61052681610511565b82525050565b6000602082019050610541600083018461051d565b92915050565b6105508161049d565b811461055b57600080fd5b50565b60008135905061056d81610547565b92915050565b6000806040838503121561058a5761058961040d565b5b60006105988582860161045b565b92505060206105a98582860161055e565b9150509250929050565b7f4e487b7100000000000000000000000000000000000000000000000000000000600052601160045260246000fd5b60006105ed8261049d565b91506105f88361049d565b92508282019050808211156106105761060f6105b3565b5b9291505056fea264697066735822122021e33aea5d628caf7152dba5f5057531bb7d92218fe50e1bffa89183298fce1664736f6c63430008110033",
  "linkReferences": {},
  "deployedLinkReferences": {}
}