{
  "_format": "hh-sol-artifact-1",
  "contractName": "ErrorHandling",
  "sourceName": "contracts/error_handling.sol",
  "abi": [
    {
      "inputs": [
        {
          "internalType": "uint256",
          "name": "x",
          "type": "uint256"
        },
        {
          "internalType": "uint256",
          "name": "y",
          "type": "uint256"
        }
      ],
      "name": "div",
      "outputs": [
        {
          "internalType": "uint256",
          "name": "",
          "type": "uint256"
        }
      ],
      "stateMutability": "pure",
      "type": "function"
    },
    {
      "inputs": [],
      "name": "testAssert",
      "outputs": [],
      "stateMutability": "view",
      "type": "function"
    },
    {
      "inputs": [
        {
          "internalType": "uint256",
          "name": "_i",
          "type": "uint256"
        }
      ],
      "name": "testRequire",
      "outputs": [],
      "stateMutability": "pure",
      "type": "function"
    },
    {
      "inputs": [
        {
          "internalType": "uint256",
          "name": "_i",
          "type": "uint256"
        }
      ],
      "name": "testRevert",
      "outputs": [],
      "stateMutability": "pure",
      "type": "function"
    }
  ],
  "bytecode": "0x608060405234801561001057600080fd5b5061043d806100206000396000f3fe608060405234801561001057600080fd5b506004361061004c5760003560e01c806320987767146100515780632b813bc01461006d578063a391c15b14610077578063b8bd717f146100a7575b600080fd5b61006b600480360381019061006691906101f8565b6100c3565b005b61007561010a565b005b610091600480360381019061008c9190610225565b61011e565b60405161009e9190610274565b60405180910390f35b6100c160048036038101906100bc91906101f8565b610176565b005b600a811115610107576040517f08c379a00000000000000000000000000000000000000000000000000000000081526004016100fe906102ec565b60405180910390fd5b50565b600080541461011c5761011b61030c565b5b565b6000808211610162576040517f08c379a000000000000000000000000000000000000000000000000000000000815260040161015990610387565b60405180910390fd5b818361016e91906103d6565b905092915050565b600a8111156101ba576040517f08c379a00000000000000000000000000000000000000000000000000000000081526004016101b1906102ec565b60405180910390fd5b50565b600080fd5b6000819050919050565b6101d5816101c2565b81146101e057600080fd5b50565b6000813590506101f2816101cc565b92915050565b60006020828403121561020e5761020d6101bd565b5b600061021c848285016101e3565b91505092915050565b6000806040838503121561023c5761023b6101bd565b5b600061024a858286016101e3565b925050602061025b858286016101e3565b9150509250929050565b61026e816101c2565b82525050565b60006020820190506102896000830184610265565b92915050565b600082825260208201905092915050565b7f69203e2031300000000000000000000000000000000000000000000000000000600082015250565b60006102d660068361028f565b91506102e1826102a0565b602082019050919050565b60006020820190508181036000830152610305816102c9565b9050919050565b7f4e487b7100000000000000000000000000000000000000000000000000000000600052600160045260246000fd5b7f6469762062792030000000000000000000000000000000000000000000000000600082015250565b600061037160088361028f565b915061037c8261033b565b602082019050919050565b600060208201905081810360008301526103a081610364565b9050919050565b7f4e487b7100000000000000000000000000000000000000000000000000000000600052601260045260246000fd5b60006103e1826101c2565b91506103ec836101c2565b9250826103fc576103fb6103a7565b5b82820490509291505056fea26469706673582212205d5acb32d4bbb51d4ca1ab41fe515ca123789b74ce998bd3c826c7f5e35cccf064736f6c63430008110033",
  "linkReferences": {},
  "deployedLinkReferences": {}
}