{"contracts/time_lock.sol":{"TimeLock":{"abi":[{"inputs":[],"stateMutability":"nonpayable","type":"constructor"},{"inputs":[{"internalType":"bytes32","name":"txId","type":"bytes32"}],"name":"AlreadyQueuedError","type":"error"},{"inputs":[{"internalType":"bytes32","name":"txId","type":"bytes32"}],"name":"NotQueuedError","type":"error"},{"inputs":[{"internalType":"uint256","name":"block_timestamp","type":"uint256"},{"internalType":"uint256","name":"timestamp","type":"uint256"}],"name":"TimestampExpiredError","type":"error"},{"inputs":[{"internalType":"uint256","name":"block_timestamp","type":"uint256"},{"internalType":"uint256","name":"timestamp","type":"uint256"}],"name":"TimestampNotInRangeError","type":"error"},{"inputs":[{"internalType":"uint256","name":"block_timestamp","type":"uint256"},{"internalType":"uint256","name":"timestamp","type":"uint256"}],"name":"TimestampNotPassedError","type":"error"},{"inputs":[],"name":"TxFailedError","type":"error"},{"anonymous":false,"inputs":[{"indexed":true,"internalType":"bytes32","name":"txId","type":"bytes32"}],"name":"Cancel","type":"event"},{"anonymous":false,"inputs":[{"indexed":true,"internalType":"bytes32","name":"txId","type":"bytes32"},{"indexed":true,"internalType":"address","name":"target","type":"address"},{"indexed":false,"internalType":"uint256","name":"value","type":"uint256"},{"indexed":false,"internalType":"string","name":"func","type":"string"},{"indexed":false,"internalType":"bytes","name":"data","type":"bytes"},{"indexed":false,"internalType":"uint256","name":"timestamp","type":"uint256"}],"name":"Execute","type":"event"},{"anonymous":false,"inputs":[{"indexed":true,"internalType":"bytes32","name":"txId","type":"bytes32"},{"indexed":true,"internalType":"address","name":"target","type":"address"},{"indexed":false,"internalType":"uint256","name":"value","type":"uint256"},{"indexed":false,"internalType":"string","name":"func","type":"string"},{"indexed":false,"internalType":"bytes","name":"data","type":"bytes"},{"indexed":false,"internalType":"uint256","name":"timestamp","type":"uint256"}],"name":"Queue","type":"event"},{"inputs":[],"name":"GRACE_PERIOD","outputs":[{"internalType":"uint256","name":"","type":"uint256"}],"stateMutability":"view","type":"function"},{"inputs":[],"name":"MAX_DELAY","outputs":[{"internalType":"uint256","name":"","type":"uint256"}],"stateMutability":"view","type":"function"},{"inputs":[],"name":"MIN_DELAY","outputs":[{"internalType":"uint256","name":"","type":"uint256"}],"stateMutability":"view","type":"function"},{"inputs":[{"internalType":"bytes32","name":"_txId","type":"bytes32"}],"name":"cancel","outputs":[],"stateMutability":"nonpayable","type":"function"},{"inputs":[{"internalType":"address","name":"_target","type":"address"},{"internalType":"uint256","name":"_value","type":"uint256"},{"internalType":"string","name":"_func","type":"string"},{"internalType":"bytes","name":"_data","type":"bytes"},{"internalType":"uint256","name":"_timestamp","type":"uint256"}],"name":"execute","outputs":[{"internalType":"bytes","name":"","type":"bytes"}],"stateMutability":"payable","type":"function"},{"inputs":[{"internalType":"address","name":"_target","type":"address"},{"internalType":"uint256","name":"_value","type":"uint256"},{"internalType":"string","name":"_func","type":"string"},{"internalType":"bytes","name":"_data","type":"bytes"},{"internalType":"uint256","name":"_timestamp","type":"uint256"}],"name":"getTxId","outputs":[{"internalType":"bytes32","name":"","type":"bytes32"}],"stateMutability":"pure","type":"function"},{"inputs":[],"name":"owner","outputs":[{"internalType":"address","name":"","type":"address"}],"stateMutability":"view","type":"function"},{"inputs":[{"internalType":"address","name":"_target","type":"address"},{"internalType":"uint256","name":"_value","type":"uint256"},{"internalType":"string","name":"_func","type":"string"},{"internalType":"bytes","name":"_data","type":"bytes"},{"internalType":"uint256","name":"_timestamp","type":"uint256"}],"name":"queue","outputs":[{"internalType":"bytes32","name":"txId","type":"bytes32"}],"stateMutability":"nonpayable","type":"function"},{"inputs":[{"internalType":"bytes32","name":"","type":"bytes32"}],"name":"queued","outputs":[{"internalType":"bool","name":"","type":"bool"}],"stateMutability":"view","type":"function"},{"stateMutability":"payable","type":"receive"}],"evm":{"bytecode":{"linkReferences":{},"object":"608060405234801561001057600080fd5b50336000806101000a81548173ffffffffffffffffffffffffffffffffffffffff021916908373ffffffffffffffffffffffffffffffffffffffff1602179055506110ff806100606000396000f3fe60806040526004361061008a5760003560e01c80638da5cb5b116100595780638da5cb5b146101785780639f81aed7146101a3578063b0f8b142146101ce578063c1a287e2146101fe578063c4d252f51461022957610091565b8063228250c9146100965780634125ff90146100d35780634b9915a5146100fe5780638a1ce0b61461013b57610091565b3661009157005b600080fd5b3480156100a257600080fd5b506100bd60048036038101906100b891906109f5565b610252565b6040516100ca9190610a3d565b60405180910390f35b3480156100df57600080fd5b506100e8610272565b6040516100f59190610a71565b60405180910390f35b34801561010a57600080fd5b5061012560048036038101906101209190610bd1565b610278565b6040516101329190610c9c565b60405180910390f35b34801561014757600080fd5b50610162600480360381019061015d9190610bd1565b610475565b60405161016f9190610c9c565b60405180910390f35b34801561018457600080fd5b5061018d6104b7565b60405161019a9190610cc6565b60405180910390f35b3480156101af57600080fd5b506101b86104db565b6040516101c59190610a71565b60405180910390f35b6101e860048036038101906101e39190610bd1565b6104e0565b6040516101f59190610d71565b60405180910390f35b34801561020a57600080fd5b50610213610863565b6040516102209190610a71565b60405180910390f35b34801561023557600080fd5b50610250600480360381019061024b91906109f5565b610869565b005b60016020528060005260406000206000915054906101000a900460ff1681565b6103e881565b60003373ffffffffffffffffffffffffffffffffffffffff1660008054906101000a900473ffffffffffffffffffffffffffffffffffffffff1673ffffffffffffffffffffffffffffffffffffffff1614610308576040517f08c379a00000000000000000000000000000000000000000000000000000000081526004016102ff90610df0565b60405180910390fd5b61031788888888888888610475565b90506001600082815260200190815260200160002060009054906101000a900460ff161561037c57806040517f995042be0000000000000000000000000000000000000000000000000000000081526004016103739190610c9c565b60405180910390fd5b600a426103899190610e3f565b8210806103a257506103e84261039f9190610e3f565b82115b156103e65742826040517f1a9616c20000000000000000000000000000000000000000000000000000000081526004016103dd929190610e73565b60405180910390fd5b600180600083815260200190815260200160002060006101000a81548160ff0219169083151502179055508773ffffffffffffffffffffffffffffffffffffffff16817f3c22f47140594040d205a5533cfedd86c9ab8622c39ead03affb2d97052c794c89898989898960405161046296959493929190610f05565b60405180910390a3979650505050505050565b6000878787878787876040516020016104949796959493929190610f5c565b604051602081830303815290604052805190602001209050979650505050505050565b60008054906101000a900473ffffffffffffffffffffffffffffffffffffffff1681565b600a81565b60603373ffffffffffffffffffffffffffffffffffffffff1660008054906101000a900473ffffffffffffffffffffffffffffffffffffffff1673ffffffffffffffffffffffffffffffffffffffff1614610570576040517f08c379a000000000000000000000000000000000000000000000000000000000815260040161056790610df0565b60405180910390fd5b600061058189898989898989610475565b90506001600082815260200190815260200160002060009054906101000a900460ff166105e557806040517f0995c9d50000000000000000000000000000000000000000000000000000000081526004016105dc9190610c9c565b60405180910390fd5b8242101561062c5742836040517f035fce5b000000000000000000000000000000000000000000000000000000008152600401610623929190610e73565b60405180910390fd5b6103e88361063a9190610e3f565b42111561068d57426103e8846106509190610e3f565b6040517f92ae26d1000000000000000000000000000000000000000000000000000000008152600401610684929190610e73565b60405180910390fd5b60006001600083815260200190815260200160002060006101000a81548160ff021916908315150217905550606060008888905011156107095787876040516106d7929190610ff1565b604051809103902086866040516020016106f393929190611057565b6040516020818303038152906040529050610751565b85858080601f016020809104026020016040519081016040528093929190818152602001838380828437600081840152601f19601f8201169050808301925050505050505090505b6000808b73ffffffffffffffffffffffffffffffffffffffff168b8460405161077a91906110b2565b60006040518083038185875af1925050503d80600081146107b7576040519150601f19603f3d011682016040523d82523d6000602084013e6107bc565b606091505b5091509150816107f8576040517fd9b4f81e00000000000000000000000000000000000000000000000000000000815260040160405180910390fd5b8b73ffffffffffffffffffffffffffffffffffffffff16847fd1d5c3c892c18716bd88852091d1b63dc6849e9d7c37f69d566884bf954d4bd98d8d8d8d8d8d60405161084996959493929190610f05565b60405180910390a380945050505050979650505050505050565b6103e881565b3373ffffffffffffffffffffffffffffffffffffffff1660008054906101000a900473ffffffffffffffffffffffffffffffffffffffff1673ffffffffffffffffffffffffffffffffffffffff16146108f7576040517f08c379a00000000000000000000000000000000000000000000000000000000081526004016108ee90610df0565b60405180910390fd5b6001600082815260200190815260200160002060009054906101000a900460ff1661095957806040517f0995c9d50000000000000000000000000000000000000000000000000000000081526004016109509190610c9c565b60405180910390fd5b60006001600083815260200190815260200160002060006101000a81548160ff021916908315150217905550807fe8d9861dbc9c663ed3accd261bbe2fe01e0d3d9e5f51fa38523b265c7757a93a60405160405180910390a250565b600080fd5b600080fd5b6000819050919050565b6109d2816109bf565b81146109dd57600080fd5b50565b6000813590506109ef816109c9565b92915050565b600060208284031215610a0b57610a0a6109b5565b5b6000610a19848285016109e0565b91505092915050565b60008115159050919050565b610a3781610a22565b82525050565b6000602082019050610a526000830184610a2e565b92915050565b6000819050919050565b610a6b81610a58565b82525050565b6000602082019050610a866000830184610a62565b92915050565b600073ffffffffffffffffffffffffffffffffffffffff82169050919050565b6000610ab782610a8c565b9050919050565b610ac781610aac565b8114610ad257600080fd5b50565b600081359050610ae481610abe565b92915050565b610af381610a58565b8114610afe57600080fd5b50565b600081359050610b1081610aea565b92915050565b600080fd5b600080fd5b600080fd5b60008083601f840112610b3b57610b3a610b16565b5b8235905067ffffffffffffffff811115610b5857610b57610b1b565b5b602083019150836001820283011115610b7457610b73610b20565b5b9250929050565b60008083601f840112610b9157610b90610b16565b5b8235905067ffffffffffffffff811115610bae57610bad610b1b565b5b602083019150836001820283011115610bca57610bc9610b20565b5b9250929050565b600080600080600080600060a0888a031215610bf057610bef6109b5565b5b6000610bfe8a828b01610ad5565b9750506020610c0f8a828b01610b01565b965050604088013567ffffffffffffffff811115610c3057610c2f6109ba565b5b610c3c8a828b01610b25565b9550955050606088013567ffffffffffffffff811115610c5f57610c5e6109ba565b5b610c6b8a828b01610b7b565b93509350506080610c7e8a828b01610b01565b91505092959891949750929550565b610c96816109bf565b82525050565b6000602082019050610cb16000830184610c8d565b92915050565b610cc081610aac565b82525050565b6000602082019050610cdb6000830184610cb7565b92915050565b600081519050919050565b600082825260208201905092915050565b60005b83811015610d1b578082015181840152602081019050610d00565b60008484015250505050565b6000601f19601f8301169050919050565b6000610d4382610ce1565b610d4d8185610cec565b9350610d5d818560208601610cfd565b610d6681610d27565b840191505092915050565b60006020820190508181036000830152610d8b8184610d38565b905092915050565b600082825260208201905092915050565b7f4e6f74206f776e65720000000000000000000000000000000000000000000000600082015250565b6000610dda600983610d93565b9150610de582610da4565b602082019050919050565b60006020820190508181036000830152610e0981610dcd565b9050919050565b7f4e487b7100000000000000000000000000000000000000000000000000000000600052601160045260246000fd5b6000610e4a82610a58565b9150610e5583610a58565b9250828201905080821115610e6d57610e6c610e10565b5b92915050565b6000604082019050610e886000830185610a62565b610e956020830184610a62565b9392505050565b82818337600083830152505050565b6000610eb78385610d93565b9350610ec4838584610e9c565b610ecd83610d27565b840190509392505050565b6000610ee48385610cec565b9350610ef1838584610e9c565b610efa83610d27565b840190509392505050565b6000608082019050610f1a6000830189610a62565b8181036020830152610f2d818789610eab565b90508181036040830152610f42818587610ed8565b9050610f516060830184610a62565b979650505050505050565b600060a082019050610f71600083018a610cb7565b610f7e6020830189610a62565b8181036040830152610f91818789610eab565b90508181036060830152610fa6818587610ed8565b9050610fb56080830184610a62565b98975050505050505050565b600081905092915050565b6000610fd88385610fc1565b9350610fe5838584610e9c565b82840190509392505050565b6000610ffe828486610fcc565b91508190509392505050565b60007fffffffff0000000000000000000000000000000000000000000000000000000082169050919050565b6000819050919050565b61105161104c8261100a565b611036565b82525050565b60006110638286611040565b600482019150611074828486610fcc565b9150819050949350505050565b600061108c82610ce1565b6110968185610fc1565b93506110a6818560208601610cfd565b80840191505092915050565b60006110be8284611081565b91508190509291505056fea2646970667358221220da9d3855f4c3bcaae1fea86fdff7bd13f977182f24ef322478538086e8e54e7564736f6c63430008110033","opcodes":"PUSH1 0x80 PUSH1 0x40 MSTORE CALLVALUE DUP1 ISZERO PUSH2 0x10 JUMPI PUSH1 0x0 DUP1 REVERT JUMPDEST POP CALLER PUSH1 0x0 DUP1 PUSH2 0x100 EXP DUP2 SLOAD DUP2 PUSH20 0xFFFFFFFFFFFFFFFFFFFFFFFFFFFFFFFFFFFFFFFF MUL NOT AND SWAP1 DUP4 PUSH20 0xFFFFFFFFFFFFFFFFFFFFFFFFFFFFFFFFFFFFFFFF AND MUL OR SWAP1 SSTORE POP PUSH2 0x10FF DUP1 PUSH2 0x60 PUSH1 0x0 CODECOPY PUSH1 0x0 RETURN INVALID PUSH1 0x80 PUSH1 0x40 MSTORE PUSH1 0x4 CALLDATASIZE LT PUSH2 0x8A JUMPI PUSH1 0x0 CALLDATALOAD PUSH1 0xE0 SHR DUP1 PUSH4 0x8DA5CB5B GT PUSH2 0x59 JUMPI DUP1 PUSH4 0x8DA5CB5B EQ PUSH2 0x178 JUMPI DUP1 PUSH4 0x9F81AED7 EQ PUSH2 0x1A3 JUMPI DUP1 PUSH4 0xB0F8B142 EQ PUSH2 0x1CE JUMPI DUP1 PUSH4 0xC1A287E2 EQ PUSH2 0x1FE JUMPI DUP1 PUSH4 0xC4D252F5 EQ PUSH2 0x229 JUMPI PUSH2 0x91 JUMP JUMPDEST DUP1 PUSH4 0x228250C9 EQ PUSH2 0x96 JUMPI DUP1 PUSH4 0x4125FF90 EQ PUSH2 0xD3 JUMPI DUP1 PUSH4 0x4B9915A5 EQ PUSH2 0xFE JUMPI DUP1 PUSH4 0x8A1CE0B6 EQ PUSH2 0x13B JUMPI PUSH2 0x91 JUMP JUMPDEST CALLDATASIZE PUSH2 0x91 JUMPI STOP JUMPDEST PUSH1 0x0 DUP1 REVERT JUMPDEST CALLVALUE DUP1 ISZERO PUSH2 0xA2 JUMPI PUSH1 0x0 DUP1 REVERT JUMPDEST POP PUSH2 0xBD PUSH1 0x4 DUP1 CALLDATASIZE SUB DUP2 ADD SWAP1 PUSH2 0xB8 SWAP2 SWAP1 PUSH2 0x9F5 JUMP JUMPDEST PUSH2 0x252 JUMP JUMPDEST PUSH1 0x40 MLOAD PUSH2 0xCA SWAP2 SWAP1 PUSH2 0xA3D JUMP JUMPDEST PUSH1 0x40 MLOAD DUP1 SWAP2 SUB SWAP1 RETURN JUMPDEST CALLVALUE DUP1 ISZERO PUSH2 0xDF JUMPI PUSH1 0x0 DUP1 REVERT JUMPDEST POP PUSH2 0xE8 PUSH2 0x272 JUMP JUMPDEST PUSH1 0x40 MLOAD PUSH2 0xF5 SWAP2 SWAP1 PUSH2 0xA71 JUMP JUMPDEST PUSH1 0x40 MLOAD DUP1 SWAP2 SUB SWAP1 RETURN JUMPDEST CALLVALUE DUP1 ISZERO PUSH2 0x10A JUMPI PUSH1 0x0 DUP1 REVERT JUMPDEST POP PUSH2 0x125 PUSH1 0x4 DUP1 CALLDATASIZE SUB DUP2 ADD SWAP1 PUSH2 0x120 SWAP2 SWAP1 PUSH2 0xBD1 JUMP JUMPDEST PUSH2 0x278 JUMP JUMPDEST PUSH1 0x40 MLOAD PUSH2 0x132 SWAP2 SWAP1 PUSH2 0xC9C JUMP JUMPDEST PUSH1 0x40 MLOAD DUP1 SWAP2 SUB SWAP1 RETURN JUMPDEST CALLVALUE DUP1 ISZERO PUSH2 0x147 JUMPI PUSH1 0x0 DUP1 REVERT JUMPDEST POP PUSH2 0x162 PUSH1 0x4 DUP1 CALLDATASIZE SUB DUP2 ADD SWAP1 PUSH2 0x15D SWAP2 SWAP1 PUSH2 0xBD1 JUMP JUMPDEST PUSH2 0x475 JUMP JUMPDEST PUSH1 0x40 MLOAD PUSH2 0x16F SWAP2 SWAP1 PUSH2 0xC9C JUMP JUMPDEST PUSH1 0x40 MLOAD DUP1 SWAP2 SUB SWAP1 RETURN JUMPDEST CALLVALUE DUP1 ISZERO PUSH2 0x184 JUMPI PUSH1 0x0 DUP1 REVERT JUMPDEST POP PUSH2 0x18D PUSH2 0x4B7 JUMP JUMPDEST PUSH1 0x40 MLOAD PUSH2 0x19A SWAP2 SWAP1 PUSH2 0xCC6 JUMP JUMPDEST PUSH1 0x40 MLOAD DUP1 SWAP2 SUB SWAP1 RETURN JUMPDEST CALLVALUE DUP1 ISZERO PUSH2 0x1AF JUMPI PUSH1 0x0 DUP1 REVERT JUMPDEST POP PUSH2 0x1B8 PUSH2 0x4DB JUMP JUMPDEST PUSH1 0x40 MLOAD PUSH2 0x1C5 SWAP2 SWAP1 PUSH2 0xA71 JUMP JUMPDEST PUSH1 0x40 MLOAD DUP1 SWAP2 SUB SWAP1 RETURN JUMPDEST PUSH2 0x1E8 PUSH1 0x4 DUP1 CALLDATASIZE SUB DUP2 ADD SWAP1 PUSH2 0x1E3 SWAP2 SWAP1 PUSH2 0xBD1 JUMP JUMPDEST PUSH2 0x4E0 JUMP JUMPDEST PUSH1 0x40 MLOAD PUSH2 0x1F5 SWAP2 SWAP1 PUSH2 0xD71 JUMP JUMPDEST PUSH1 0x40 MLOAD DUP1 SWAP2 SUB SWAP1 RETURN JUMPDEST CALLVALUE DUP1 ISZERO PUSH2 0x20A JUMPI PUSH1 0x0 DUP1 REVERT JUMPDEST POP PUSH2 0x213 PUSH2 0x863 JUMP JUMPDEST PUSH1 0x40 MLOAD PUSH2 0x220 SWAP2 SWAP1 PUSH2 0xA71 JUMP JUMPDEST PUSH1 0x40 MLOAD DUP1 SWAP2 SUB SWAP1 RETURN JUMPDEST CALLVALUE DUP1 ISZERO PUSH2 0x235 JUMPI PUSH1 0x0 DUP1 REVERT JUMPDEST POP PUSH2 0x250 PUSH1 0x4 DUP1 CALLDATASIZE SUB DUP2 ADD SWAP1 PUSH2 0x24B SWAP2 SWAP1 PUSH2 0x9F5 JUMP JUMPDEST PUSH2 0x869 JUMP JUMPDEST STOP JUMPDEST PUSH1 0x1 PUSH1 0x20 MSTORE DUP1 PUSH1 0x0 MSTORE PUSH1 0x40 PUSH1 0x0 KECCAK256 PUSH1 0x0 SWAP2 POP SLOAD SWAP1 PUSH2 0x100 EXP SWAP1 DIV PUSH1 0xFF AND DUP2 JUMP JUMPDEST PUSH2 0x3E8 DUP2 JUMP JUMPDEST PUSH1 0x0 CALLER PUSH20 0xFFFFFFFFFFFFFFFFFFFFFFFFFFFFFFFFFFFFFFFF AND PUSH1 0x0 DUP1 SLOAD SWAP1 PUSH2 0x100 EXP SWAP1 DIV PUSH20 0xFFFFFFFFFFFFFFFFFFFFFFFFFFFFFFFFFFFFFFFF AND PUSH20 0xFFFFFFFFFFFFFFFFFFFFFFFFFFFFFFFFFFFFFFFF AND EQ PUSH2 0x308 JUMPI PUSH1 0x40 MLOAD PUSH32 0x8C379A000000000000000000000000000000000000000000000000000000000 DUP2 MSTORE PUSH1 0x4 ADD PUSH2 0x2FF SWAP1 PUSH2 0xDF0 JUMP JUMPDEST PUSH1 0x40 MLOAD DUP1 SWAP2 SUB SWAP1 REVERT JUMPDEST PUSH2 0x317 DUP9 DUP9 DUP9 DUP9 DUP9 DUP9 DUP9 PUSH2 0x475 JUMP JUMPDEST SWAP1 POP PUSH1 0x1 PUSH1 0x0 DUP3 DUP2 MSTORE PUSH1 0x20 ADD SWAP1 DUP2 MSTORE PUSH1 0x20 ADD PUSH1 0x0 KECCAK256 PUSH1 0x0 SWAP1 SLOAD SWAP1 PUSH2 0x100 EXP SWAP1 DIV PUSH1 0xFF AND ISZERO PUSH2 0x37C JUMPI DUP1 PUSH1 0x40 MLOAD PUSH32 0x995042BE00000000000000000000000000000000000000000000000000000000 DUP2 MSTORE PUSH1 0x4 ADD PUSH2 0x373 SWAP2 SWAP1 PUSH2 0xC9C JUMP JUMPDEST PUSH1 0x40 MLOAD DUP1 SWAP2 SUB SWAP1 REVERT JUMPDEST PUSH1 0xA TIMESTAMP PUSH2 0x389 SWAP2 SWAP1 PUSH2 0xE3F JUMP JUMPDEST DUP3 LT DUP1 PUSH2 0x3A2 JUMPI POP PUSH2 0x3E8 TIMESTAMP PUSH2 0x39F SWAP2 SWAP1 PUSH2 0xE3F JUMP JUMPDEST DUP3 GT JUMPDEST ISZERO PUSH2 0x3E6 JUMPI TIMESTAMP DUP3 PUSH1 0x40 MLOAD PUSH32 0x1A9616C200000000000000000000000000000000000000000000000000000000 DUP2 MSTORE PUSH1 0x4 ADD PUSH2 0x3DD SWAP3 SWAP2 SWAP1 PUSH2 0xE73 JUMP JUMPDEST PUSH1 0x40 MLOAD DUP1 SWAP2 SUB SWAP1 REVERT JUMPDEST PUSH1 0x1 DUP1 PUSH1 0x0 DUP4 DUP2 MSTORE PUSH1 0x20 ADD SWAP1 DUP2 MSTORE PUSH1 0x20 ADD PUSH1 0x0 KECCAK256 PUSH1 0x0 PUSH2 0x100 EXP DUP2 SLOAD DUP2 PUSH1 0xFF MUL NOT AND SWAP1 DUP4 ISZERO ISZERO MUL OR SWAP1 SSTORE POP DUP8 PUSH20 0xFFFFFFFFFFFFFFFFFFFFFFFFFFFFFFFFFFFFFFFF AND DUP2 PUSH32 0x3C22F47140594040D205A5533CFEDD86C9AB8622C39EAD03AFFB2D97052C794C DUP10 DUP10 DUP10 DUP10 DUP10 DUP10 PUSH1 0x40 MLOAD PUSH2 0x462 SWAP7 SWAP6 SWAP5 SWAP4 SWAP3 SWAP2 SWAP1 PUSH2 0xF05 JUMP JUMPDEST PUSH1 0x40 MLOAD DUP1 SWAP2 SUB SWAP1 LOG3 SWAP8 SWAP7 POP POP POP POP POP POP POP JUMP JUMPDEST PUSH1 0x0 DUP8 DUP8 DUP8 DUP8 DUP8 DUP8 DUP8 PUSH1 0x40 MLOAD PUSH1 0x20 ADD PUSH2 0x494 SWAP8 SWAP7 SWAP6 SWAP5 SWAP4 SWAP3 SWAP2 SWAP1 PUSH2 0xF5C JUMP JUMPDEST PUSH1 0x40 MLOAD PUSH1 0x20 DUP2 DUP4 SUB SUB DUP2 MSTORE SWAP1 PUSH1 0x40 MSTORE DUP1 MLOAD SWAP1 PUSH1 0x20 ADD KECCAK256 SWAP1 POP SWAP8 SWAP7 POP POP POP POP POP POP POP JUMP JUMPDEST PUSH1 0x0 DUP1 SLOAD SWAP1 PUSH2 0x100 EXP SWAP1 DIV PUSH20 0xFFFFFFFFFFFFFFFFFFFFFFFFFFFFFFFFFFFFFFFF AND DUP2 JUMP JUMPDEST PUSH1 0xA DUP2 JUMP JUMPDEST PUSH1 0x60 CALLER PUSH20 0xFFFFFFFFFFFFFFFFFFFFFFFFFFFFFFFFFFFFFFFF AND PUSH1 0x0 DUP1 SLOAD SWAP1 PUSH2 0x100 EXP SWAP1 DIV PUSH20 0xFFFFFFFFFFFFFFFFFFFFFFFFFFFFFFFFFFFFFFFF AND PUSH20 0xFFFFFFFFFFFFFFFFFFFFFFFFFFFFFFFFFFFFFFFF AND EQ PUSH2 0x570 JUMPI PUSH1 0x40 MLOAD PUSH32 0x8C379A000000000000000000000000000000000000000000000000000000000 DUP2 MSTORE PUSH1 0x4 ADD PUSH2 0x567 SWAP1 PUSH2 0xDF0 JUMP JUMPDEST PUSH1 0x40 MLOAD DUP1 SWAP2 SUB SWAP1 REVERT JUMPDEST PUSH1 0x0 PUSH2 0x581 DUP10 DUP10 DUP10 DUP10 DUP10 DUP10 DUP10 PUSH2 0x475 JUMP JUMPDEST SWAP1 POP PUSH1 0x1 PUSH1 0x0 DUP3 DUP2 MSTORE PUSH1 0x20 ADD SWAP1 DUP2 MSTORE PUSH1 0x20 ADD PUSH1 0x0 KECCAK256 PUSH1 0x0 SWAP1 SLOAD SWAP1 PUSH2 0x100 EXP SWAP1 DIV PUSH1 0xFF AND PUSH2 0x5E5 JUMPI DUP1 PUSH1 0x40 MLOAD PUSH32 0x995C9D500000000000000000000000000000000000000000000000000000000 DUP2 MSTORE PUSH1 0x4 ADD PUSH2 0x5DC SWAP2 SWAP1 PUSH2 0xC9C JUMP JUMPDEST PUSH1 0x40 MLOAD DUP1 SWAP2 SUB SWAP1 REVERT JUMPDEST DUP3 TIMESTAMP LT ISZERO PUSH2 0x62C JUMPI TIMESTAMP DUP4 PUSH1 0x40 MLOAD PUSH32 0x35FCE5B00000000000000000000000000000000000000000000000000000000 DUP2 MSTORE PUSH1 0x4 ADD PUSH2 0x623 SWAP3 SWAP2 SWAP1 PUSH2 0xE73 JUMP JUMPDEST PUSH1 0x40 MLOAD DUP1 SWAP2 SUB SWAP1 REVERT JUMPDEST PUSH2 0x3E8 DUP4 PUSH2 0x63A SWAP2 SWAP1 PUSH2 0xE3F JUMP JUMPDEST TIMESTAMP GT ISZERO PUSH2 0x68D JUMPI TIMESTAMP PUSH2 0x3E8 DUP5 PUSH2 0x650 SWAP2 SWAP1 PUSH2 0xE3F JUMP JUMPDEST PUSH1 0x40 MLOAD PUSH32 0x92AE26D100000000000000000000000000000000000000000000000000000000 DUP2 MSTORE PUSH1 0x4 ADD PUSH2 0x684 SWAP3 SWAP2 SWAP1 PUSH2 0xE73 JUMP JUMPDEST PUSH1 0x40 MLOAD DUP1 SWAP2 SUB SWAP1 REVERT JUMPDEST PUSH1 0x0 PUSH1 0x1 PUSH1 0x0 DUP4 DUP2 MSTORE PUSH1 0x20 ADD SWAP1 DUP2 MSTORE PUSH1 0x20 ADD PUSH1 0x0 KECCAK256 PUSH1 0x0 PUSH2 0x100 EXP DUP2 SLOAD DUP2 PUSH1 0xFF MUL NOT AND SWAP1 DUP4 ISZERO ISZERO MUL OR SWAP1 SSTORE POP PUSH1 0x60 PUSH1 0x0 DUP9 DUP9 SWAP1 POP GT ISZERO PUSH2 0x709 JUMPI DUP8 DUP8 PUSH1 0x40 MLOAD PUSH2 0x6D7 SWAP3 SWAP2 SWAP1 PUSH2 0xFF1 JUMP JUMPDEST PUSH1 0x40 MLOAD DUP1 SWAP2 SUB SWAP1 KECCAK256 DUP7 DUP7 PUSH1 0x40 MLOAD PUSH1 0x20 ADD PUSH2 0x6F3 SWAP4 SWAP3 SWAP2 SWAP1 PUSH2 0x1057 JUMP JUMPDEST PUSH1 0x40 MLOAD PUSH1 0x20 DUP2 DUP4 SUB SUB DUP2 MSTORE SWAP1 PUSH1 0x40 MSTORE SWAP1 POP PUSH2 0x751 JUMP JUMPDEST DUP6 DUP6 DUP1 DUP1 PUSH1 0x1F ADD PUSH1 0x20 DUP1 SWAP2 DIV MUL PUSH1 0x20 ADD PUSH1 0x40 MLOAD SWAP1 DUP2 ADD PUSH1 0x40 MSTORE DUP1 SWAP4 SWAP3 SWAP2 SWAP1 DUP2 DUP2 MSTORE PUSH1 0x20 ADD DUP4 DUP4 DUP1 DUP3 DUP5 CALLDATACOPY PUSH1 0x0 DUP2 DUP5 ADD MSTORE PUSH1 0x1F NOT PUSH1 0x1F DUP3 ADD AND SWAP1 POP DUP1 DUP4 ADD SWAP3 POP POP POP POP POP POP POP SWAP1 POP JUMPDEST PUSH1 0x0 DUP1 DUP12 PUSH20 0xFFFFFFFFFFFFFFFFFFFFFFFFFFFFFFFFFFFFFFFF AND DUP12 DUP5 PUSH1 0x40 MLOAD PUSH2 0x77A SWAP2 SWAP1 PUSH2 0x10B2 JUMP JUMPDEST PUSH1 0x0 PUSH1 0x40 MLOAD DUP1 DUP4 SUB DUP2 DUP6 DUP8 GAS CALL SWAP3 POP POP POP RETURNDATASIZE DUP1 PUSH1 0x0 DUP2 EQ PUSH2 0x7B7 JUMPI PUSH1 0x40 MLOAD SWAP2 POP PUSH1 0x1F NOT PUSH1 0x3F RETURNDATASIZE ADD AND DUP3 ADD PUSH1 0x40 MSTORE RETURNDATASIZE DUP3 MSTORE RETURNDATASIZE PUSH1 0x0 PUSH1 0x20 DUP5 ADD RETURNDATACOPY PUSH2 0x7BC JUMP JUMPDEST PUSH1 0x60 SWAP2 POP JUMPDEST POP SWAP2 POP SWAP2 POP DUP2 PUSH2 0x7F8 JUMPI PUSH1 0x40 MLOAD PUSH32 0xD9B4F81E00000000000000000000000000000000000000000000000000000000 DUP2 MSTORE PUSH1 0x4 ADD PUSH1 0x40 MLOAD DUP1 SWAP2 SUB SWAP1 REVERT JUMPDEST DUP12 PUSH20 0xFFFFFFFFFFFFFFFFFFFFFFFFFFFFFFFFFFFFFFFF AND DUP5 PUSH32 0xD1D5C3C892C18716BD88852091D1B63DC6849E9D7C37F69D566884BF954D4BD9 DUP14 DUP14 DUP14 DUP14 DUP14 DUP14 PUSH1 0x40 MLOAD PUSH2 0x849 SWAP7 SWAP6 SWAP5 SWAP4 SWAP3 SWAP2 SWAP1 PUSH2 0xF05 JUMP JUMPDEST PUSH1 0x40 MLOAD DUP1 SWAP2 SUB SWAP1 LOG3 DUP1 SWAP5 POP POP POP POP POP SWAP8 SWAP7 POP POP POP POP POP POP POP JUMP JUMPDEST PUSH2 0x3E8 DUP2 JUMP JUMPDEST CALLER PUSH20 0xFFFFFFFFFFFFFFFFFFFFFFFFFFFFFFFFFFFFFFFF AND PUSH1 0x0 DUP1 SLOAD SWAP1 PUSH2 0x100 EXP SWAP1 DIV PUSH20 0xFFFFFFFFFFFFFFFFFFFFFFFFFFFFFFFFFFFFFFFF AND PUSH20 0xFFFFFFFFFFFFFFFFFFFFFFFFFFFFFFFFFFFFFFFF AND EQ PUSH2 0x8F7 JUMPI PUSH1 0x40 MLOAD PUSH32 0x8C379A000000000000000000000000000000000000000000000000000000000 DUP2 MSTORE PUSH1 0x4 ADD PUSH2 0x8EE SWAP1 PUSH2 0xDF0 JUMP JUMPDEST PUSH1 0x40 MLOAD DUP1 SWAP2 SUB SWAP1 REVERT JUMPDEST PUSH1 0x1 PUSH1 0x0 DUP3 DUP2 MSTORE PUSH1 0x20 ADD SWAP1 DUP2 MSTORE PUSH1 0x20 ADD PUSH1 0x0 KECCAK256 PUSH1 0x0 SWAP1 SLOAD SWAP1 PUSH2 0x100 EXP SWAP1 DIV PUSH1 0xFF AND PUSH2 0x959 JUMPI DUP1 PUSH1 0x40 MLOAD PUSH32 0x995C9D500000000000000000000000000000000000000000000000000000000 DUP2 MSTORE PUSH1 0x4 ADD PUSH2 0x950 SWAP2 SWAP1 PUSH2 0xC9C JUMP JUMPDEST PUSH1 0x40 MLOAD DUP1 SWAP2 SUB SWAP1 REVERT JUMPDEST PUSH1 0x0 PUSH1 0x1 PUSH1 0x0 DUP4 DUP2 MSTORE PUSH1 0x20 ADD SWAP1 DUP2 MSTORE PUSH1 0x20 ADD PUSH1 0x0 KECCAK256 PUSH1 0x0 PUSH2 0x100 EXP DUP2 SLOAD DUP2 PUSH1 0xFF MUL NOT AND SWAP1 DUP4 ISZERO ISZERO MUL OR SWAP1 SSTORE POP DUP1 PUSH32 0xE8D9861DBC9C663ED3ACCD261BBE2FE01E0D3D9E5F51FA38523B265C7757A93A PUSH1 0x40 MLOAD PUSH1 0x40 MLOAD DUP1 SWAP2 SUB SWAP1 LOG2 POP JUMP JUMPDEST PUSH1 0x0 DUP1 REVERT JUMPDEST PUSH1 0x0 DUP1 REVERT JUMPDEST PUSH1 0x0 DUP2 SWAP1 POP SWAP2 SWAP1 POP JUMP JUMPDEST PUSH2 0x9D2 DUP2 PUSH2 0x9BF JUMP JUMPDEST DUP2 EQ PUSH2 0x9DD JUMPI PUSH1 0x0 DUP1 REVERT JUMPDEST POP JUMP JUMPDEST PUSH1 0x0 DUP2 CALLDATALOAD SWAP1 POP PUSH2 0x9EF DUP2 PUSH2 0x9C9 JUMP JUMPDEST SWAP3 SWAP2 POP POP JUMP JUMPDEST PUSH1 0x0 PUSH1 0x20 DUP3 DUP5 SUB SLT ISZERO PUSH2 0xA0B JUMPI PUSH2 0xA0A PUSH2 0x9B5 JUMP JUMPDEST JUMPDEST PUSH1 0x0 PUSH2 0xA19 DUP5 DUP3 DUP6 ADD PUSH2 0x9E0 JUMP JUMPDEST SWAP2 POP POP SWAP3 SWAP2 POP POP JUMP JUMPDEST PUSH1 0x0 DUP2 ISZERO ISZERO SWAP1 POP SWAP2 SWAP1 POP JUMP JUMPDEST PUSH2 0xA37 DUP2 PUSH2 0xA22 JUMP JUMPDEST DUP3 MSTORE POP POP JUMP JUMPDEST PUSH1 0x0 PUSH1 0x20 DUP3 ADD SWAP1 POP PUSH2 0xA52 PUSH1 0x0 DUP4 ADD DUP5 PUSH2 0xA2E JUMP JUMPDEST SWAP3 SWAP2 POP POP JUMP JUMPDEST PUSH1 0x0 DUP2 SWAP1 POP SWAP2 SWAP1 POP JUMP JUMPDEST PUSH2 0xA6B DUP2 PUSH2 0xA58 JUMP JUMPDEST DUP3 MSTORE POP POP JUMP JUMPDEST PUSH1 0x0 PUSH1 0x20 DUP3 ADD SWAP1 POP PUSH2 0xA86 PUSH1 0x0 DUP4 ADD DUP5 PUSH2 0xA62 JUMP JUMPDEST SWAP3 SWAP2 POP POP JUMP JUMPDEST PUSH1 0x0 PUSH20 0xFFFFFFFFFFFFFFFFFFFFFFFFFFFFFFFFFFFFFFFF DUP3 AND SWAP1 POP SWAP2 SWAP1 POP JUMP JUMPDEST PUSH1 0x0 PUSH2 0xAB7 DUP3 PUSH2 0xA8C JUMP JUMPDEST SWAP1 POP SWAP2 SWAP1 POP JUMP JUMPDEST PUSH2 0xAC7 DUP2 PUSH2 0xAAC JUMP JUMPDEST DUP2 EQ PUSH2 0xAD2 JUMPI PUSH1 0x0 DUP1 REVERT JUMPDEST POP JUMP JUMPDEST PUSH1 0x0 DUP2 CALLDATALOAD SWAP1 POP PUSH2 0xAE4 DUP2 PUSH2 0xABE JUMP JUMPDEST SWAP3 SWAP2 POP POP JUMP JUMPDEST PUSH2 0xAF3 DUP2 PUSH2 0xA58 JUMP JUMPDEST DUP2 EQ PUSH2 0xAFE JUMPI PUSH1 0x0 DUP1 REVERT JUMPDEST POP JUMP JUMPDEST PUSH1 0x0 DUP2 CALLDATALOAD SWAP1 POP PUSH2 0xB10 DUP2 PUSH2 0xAEA JUMP JUMPDEST SWAP3 SWAP2 POP POP JUMP JUMPDEST PUSH1 0x0 DUP1 REVERT JUMPDEST PUSH1 0x0 DUP1 REVERT JUMPDEST PUSH1 0x0 DUP1 REVERT JUMPDEST PUSH1 0x0 DUP1 DUP4 PUSH1 0x1F DUP5 ADD SLT PUSH2 0xB3B JUMPI PUSH2 0xB3A PUSH2 0xB16 JUMP JUMPDEST JUMPDEST DUP3 CALLDATALOAD SWAP1 POP PUSH8 0xFFFFFFFFFFFFFFFF DUP2 GT ISZERO PUSH2 0xB58 JUMPI PUSH2 0xB57 PUSH2 0xB1B JUMP JUMPDEST JUMPDEST PUSH1 0x20 DUP4 ADD SWAP2 POP DUP4 PUSH1 0x1 DUP3 MUL DUP4 ADD GT ISZERO PUSH2 0xB74 JUMPI PUSH2 0xB73 PUSH2 0xB20 JUMP JUMPDEST JUMPDEST SWAP3 POP SWAP3 SWAP1 POP JUMP JUMPDEST PUSH1 0x0 DUP1 DUP4 PUSH1 0x1F DUP5 ADD SLT PUSH2 0xB91 JUMPI PUSH2 0xB90 PUSH2 0xB16 JUMP JUMPDEST JUMPDEST DUP3 CALLDATALOAD SWAP1 POP PUSH8 0xFFFFFFFFFFFFFFFF DUP2 GT ISZERO PUSH2 0xBAE JUMPI PUSH2 0xBAD PUSH2 0xB1B JUMP JUMPDEST JUMPDEST PUSH1 0x20 DUP4 ADD SWAP2 POP DUP4 PUSH1 0x1 DUP3 MUL DUP4 ADD GT ISZERO PUSH2 0xBCA JUMPI PUSH2 0xBC9 PUSH2 0xB20 JUMP JUMPDEST JUMPDEST SWAP3 POP SWAP3 SWAP1 POP JUMP JUMPDEST PUSH1 0x0 DUP1 PUSH1 0x0 DUP1 PUSH1 0x0 DUP1 PUSH1 0x0 PUSH1 0xA0 DUP9 DUP11 SUB SLT ISZERO PUSH2 0xBF0 JUMPI PUSH2 0xBEF PUSH2 0x9B5 JUMP JUMPDEST JUMPDEST PUSH1 0x0 PUSH2 0xBFE DUP11 DUP3 DUP12 ADD PUSH2 0xAD5 JUMP JUMPDEST SWAP8 POP POP PUSH1 0x20 PUSH2 0xC0F DUP11 DUP3 DUP12 ADD PUSH2 0xB01 JUMP JUMPDEST SWAP7 POP POP PUSH1 0x40 DUP9 ADD CALLDATALOAD PUSH8 0xFFFFFFFFFFFFFFFF DUP2 GT ISZERO PUSH2 0xC30 JUMPI PUSH2 0xC2F PUSH2 0x9BA JUMP JUMPDEST JUMPDEST PUSH2 0xC3C DUP11 DUP3 DUP12 ADD PUSH2 0xB25 JUMP JUMPDEST SWAP6 POP SWAP6 POP POP PUSH1 0x60 DUP9 ADD CALLDATALOAD PUSH8 0xFFFFFFFFFFFFFFFF DUP2 GT ISZERO PUSH2 0xC5F JUMPI PUSH2 0xC5E PUSH2 0x9BA JUMP JUMPDEST JUMPDEST PUSH2 0xC6B DUP11 DUP3 DUP12 ADD PUSH2 0xB7B JUMP JUMPDEST SWAP4 POP SWAP4 POP POP PUSH1 0x80 PUSH2 0xC7E DUP11 DUP3 DUP12 ADD PUSH2 0xB01 JUMP JUMPDEST SWAP2 POP POP SWAP3 SWAP6 SWAP9 SWAP2 SWAP5 SWAP8 POP SWAP3 SWAP6 POP JUMP JUMPDEST PUSH2 0xC96 DUP2 PUSH2 0x9BF JUMP JUMPDEST DUP3 MSTORE POP POP JUMP JUMPDEST PUSH1 0x0 PUSH1 0x20 DUP3 ADD SWAP1 POP PUSH2 0xCB1 PUSH1 0x0 DUP4 ADD DUP5 PUSH2 0xC8D JUMP JUMPDEST SWAP3 SWAP2 POP POP JUMP JUMPDEST PUSH2 0xCC0 DUP2 PUSH2 0xAAC JUMP JUMPDEST DUP3 MSTORE POP POP JUMP JUMPDEST PUSH1 0x0 PUSH1 0x20 DUP3 ADD SWAP1 POP PUSH2 0xCDB PUSH1 0x0 DUP4 ADD DUP5 PUSH2 0xCB7 JUMP JUMPDEST SWAP3 SWAP2 POP POP JUMP JUMPDEST PUSH1 0x0 DUP2 MLOAD SWAP1 POP SWAP2 SWAP1 POP JUMP JUMPDEST PUSH1 0x0 DUP3 DUP3 MSTORE PUSH1 0x20 DUP3 ADD SWAP1 POP SWAP3 SWAP2 POP POP JUMP JUMPDEST PUSH1 0x0 JUMPDEST DUP4 DUP2 LT ISZERO PUSH2 0xD1B JUMPI DUP1 DUP3 ADD MLOAD DUP2 DUP5 ADD MSTORE PUSH1 0x20 DUP2 ADD SWAP1 POP PUSH2 0xD00 JUMP JUMPDEST PUSH1 0x0 DUP5 DUP5 ADD MSTORE POP POP POP POP JUMP JUMPDEST PUSH1 0x0 PUSH1 0x1F NOT PUSH1 0x1F DUP4 ADD AND SWAP1 POP SWAP2 SWAP1 POP JUMP JUMPDEST PUSH1 0x0 PUSH2 0xD43 DUP3 PUSH2 0xCE1 JUMP JUMPDEST PUSH2 0xD4D DUP2 DUP6 PUSH2 0xCEC JUMP JUMPDEST SWAP4 POP PUSH2 0xD5D DUP2 DUP6 PUSH1 0x20 DUP7 ADD PUSH2 0xCFD JUMP JUMPDEST PUSH2 0xD66 DUP2 PUSH2 0xD27 JUMP JUMPDEST DUP5 ADD SWAP2 POP POP SWAP3 SWAP2 POP POP JUMP JUMPDEST PUSH1 0x0 PUSH1 0x20 DUP3 ADD SWAP1 POP DUP2 DUP2 SUB PUSH1 0x0 DUP4 ADD MSTORE PUSH2 0xD8B DUP2 DUP5 PUSH2 0xD38 JUMP JUMPDEST SWAP1 POP SWAP3 SWAP2 POP POP JUMP JUMPDEST PUSH1 0x0 DUP3 DUP3 MSTORE PUSH1 0x20 DUP3 ADD SWAP1 POP SWAP3 SWAP2 POP POP JUMP JUMPDEST PUSH32 0x4E6F74206F776E65720000000000000000000000000000000000000000000000 PUSH1 0x0 DUP3 ADD MSTORE POP JUMP JUMPDEST PUSH1 0x0 PUSH2 0xDDA PUSH1 0x9 DUP4 PUSH2 0xD93 JUMP JUMPDEST SWAP2 POP PUSH2 0xDE5 DUP3 PUSH2 0xDA4 JUMP JUMPDEST PUSH1 0x20 DUP3 ADD SWAP1 POP SWAP2 SWAP1 POP JUMP JUMPDEST PUSH1 0x0 PUSH1 0x20 DUP3 ADD SWAP1 POP DUP2 DUP2 SUB PUSH1 0x0 DUP4 ADD MSTORE PUSH2 0xE09 DUP2 PUSH2 0xDCD JUMP JUMPDEST SWAP1 POP SWAP2 SWAP1 POP JUMP JUMPDEST PUSH32 0x4E487B7100000000000000000000000000000000000000000000000000000000 PUSH1 0x0 MSTORE PUSH1 0x11 PUSH1 0x4 MSTORE PUSH1 0x24 PUSH1 0x0 REVERT JUMPDEST PUSH1 0x0 PUSH2 0xE4A DUP3 PUSH2 0xA58 JUMP JUMPDEST SWAP2 POP PUSH2 0xE55 DUP4 PUSH2 0xA58 JUMP JUMPDEST SWAP3 POP DUP3 DUP3 ADD SWAP1 POP DUP1 DUP3 GT ISZERO PUSH2 0xE6D JUMPI PUSH2 0xE6C PUSH2 0xE10 JUMP JUMPDEST JUMPDEST SWAP3 SWAP2 POP POP JUMP JUMPDEST PUSH1 0x0 PUSH1 0x40 DUP3 ADD SWAP1 POP PUSH2 0xE88 PUSH1 0x0 DUP4 ADD DUP6 PUSH2 0xA62 JUMP JUMPDEST PUSH2 0xE95 PUSH1 0x20 DUP4 ADD DUP5 PUSH2 0xA62 JUMP JUMPDEST SWAP4 SWAP3 POP POP POP JUMP JUMPDEST DUP3 DUP2 DUP4 CALLDATACOPY PUSH1 0x0 DUP4 DUP4 ADD MSTORE POP POP POP JUMP JUMPDEST PUSH1 0x0 PUSH2 0xEB7 DUP4 DUP6 PUSH2 0xD93 JUMP JUMPDEST SWAP4 POP PUSH2 0xEC4 DUP4 DUP6 DUP5 PUSH2 0xE9C JUMP JUMPDEST PUSH2 0xECD DUP4 PUSH2 0xD27 JUMP JUMPDEST DUP5 ADD SWAP1 POP SWAP4 SWAP3 POP POP POP JUMP JUMPDEST PUSH1 0x0 PUSH2 0xEE4 DUP4 DUP6 PUSH2 0xCEC JUMP JUMPDEST SWAP4 POP PUSH2 0xEF1 DUP4 DUP6 DUP5 PUSH2 0xE9C JUMP JUMPDEST PUSH2 0xEFA DUP4 PUSH2 0xD27 JUMP JUMPDEST DUP5 ADD SWAP1 POP SWAP4 SWAP3 POP POP POP JUMP JUMPDEST PUSH1 0x0 PUSH1 0x80 DUP3 ADD SWAP1 POP PUSH2 0xF1A PUSH1 0x0 DUP4 ADD DUP10 PUSH2 0xA62 JUMP JUMPDEST DUP2 DUP2 SUB PUSH1 0x20 DUP4 ADD MSTORE PUSH2 0xF2D DUP2 DUP8 DUP10 PUSH2 0xEAB JUMP JUMPDEST SWAP1 POP DUP2 DUP2 SUB PUSH1 0x40 DUP4 ADD MSTORE PUSH2 0xF42 DUP2 DUP6 DUP8 PUSH2 0xED8 JUMP JUMPDEST SWAP1 POP PUSH2 0xF51 PUSH1 0x60 DUP4 ADD DUP5 PUSH2 0xA62 JUMP JUMPDEST SWAP8 SWAP7 POP POP POP POP POP POP POP JUMP JUMPDEST PUSH1 0x0 PUSH1 0xA0 DUP3 ADD SWAP1 POP PUSH2 0xF71 PUSH1 0x0 DUP4 ADD DUP11 PUSH2 0xCB7 JUMP JUMPDEST PUSH2 0xF7E PUSH1 0x20 DUP4 ADD DUP10 PUSH2 0xA62 JUMP JUMPDEST DUP2 DUP2 SUB PUSH1 0x40 DUP4 ADD MSTORE PUSH2 0xF91 DUP2 DUP8 DUP10 PUSH2 0xEAB JUMP JUMPDEST SWAP1 POP DUP2 DUP2 SUB PUSH1 0x60 DUP4 ADD MSTORE PUSH2 0xFA6 DUP2 DUP6 DUP8 PUSH2 0xED8 JUMP JUMPDEST SWAP1 POP PUSH2 0xFB5 PUSH1 0x80 DUP4 ADD DUP5 PUSH2 0xA62 JUMP JUMPDEST SWAP9 SWAP8 POP POP POP POP POP POP POP POP JUMP JUMPDEST PUSH1 0x0 DUP2 SWAP1 POP SWAP3 SWAP2 POP POP JUMP JUMPDEST PUSH1 0x0 PUSH2 0xFD8 DUP4 DUP6 PUSH2 0xFC1 JUMP JUMPDEST SWAP4 POP PUSH2 0xFE5 DUP4 DUP6 DUP5 PUSH2 0xE9C JUMP JUMPDEST DUP3 DUP5 ADD SWAP1 POP SWAP4 SWAP3 POP POP POP JUMP JUMPDEST PUSH1 0x0 PUSH2 0xFFE DUP3 DUP5 DUP7 PUSH2 0xFCC JUMP JUMPDEST SWAP2 POP DUP2 SWAP1 POP SWAP4 SWAP3 POP POP POP JUMP JUMPDEST PUSH1 0x0 PUSH32 0xFFFFFFFF00000000000000000000000000000000000000000000000000000000 DUP3 AND SWAP1 POP SWAP2 SWAP1 POP JUMP JUMPDEST PUSH1 0x0 DUP2 SWAP1 POP SWAP2 SWAP1 POP JUMP JUMPDEST PUSH2 0x1051 PUSH2 0x104C DUP3 PUSH2 0x100A JUMP JUMPDEST PUSH2 0x1036 JUMP JUMPDEST DUP3 MSTORE POP POP JUMP JUMPDEST PUSH1 0x0 PUSH2 0x1063 DUP3 DUP7 PUSH2 0x1040 JUMP JUMPDEST PUSH1 0x4 DUP3 ADD SWAP2 POP PUSH2 0x1074 DUP3 DUP5 DUP7 PUSH2 0xFCC JUMP JUMPDEST SWAP2 POP DUP2 SWAP1 POP SWAP5 SWAP4 POP POP POP POP JUMP JUMPDEST PUSH1 0x0 PUSH2 0x108C DUP3 PUSH2 0xCE1 JUMP JUMPDEST PUSH2 0x1096 DUP2 DUP6 PUSH2 0xFC1 JUMP JUMPDEST SWAP4 POP PUSH2 0x10A6 DUP2 DUP6 PUSH1 0x20 DUP7 ADD PUSH2 0xCFD JUMP JUMPDEST DUP1 DUP5 ADD SWAP2 POP POP SWAP3 SWAP2 POP POP JUMP JUMPDEST PUSH1 0x0 PUSH2 0x10BE DUP3 DUP5 PUSH2 0x1081 JUMP JUMPDEST SWAP2 POP DUP2 SWAP1 POP SWAP3 SWAP2 POP POP JUMP INVALID LOG2 PUSH5 0x6970667358 0x22 SLT KECCAK256 0xDA SWAP14 CODESIZE SSTORE DELEGATECALL 0xC3 0xBC 0xAA 0xE1 INVALID 0xA8 PUSH16 0xDFF7BD13F977182F24EF322478538086 0xE8 0xE5 0x4E PUSH22 0x64736F6C634300081100330000000000000000000000 "},"methodIdentifiers":{"GRACE_PERIOD()":"c1a287e2","MAX_DELAY()":"4125ff90","MIN_DELAY()":"9f81aed7","cancel(bytes32)":"c4d252f5","execute(address,uint256,string,bytes,uint256)":"b0f8b142","getTxId(address,uint256,string,bytes,uint256)":"8a1ce0b6","owner()":"8da5cb5b","queue(address,uint256,string,bytes,uint256)":"4b9915a5","queued(bytes32)":"228250c9"}}}}}