{
  "_format": "hh-sol-artifact-1",
  "contractName": "TestCall",
  "sourceName": "contracts/test_call.sol",
  "abi": [
    {
      "stateMutability": "payable",
      "type": "fallback"
    },
    {
      "inputs": [
        {
          "internalType": "uint256",
          "name": "_x",
          "type": "uint256"
        },
        {
          "internalType": "bool",
          "name": "_b",
          "type": "bool"
        }
      ],
      "name": "bar",
      "outputs": [],
      "stateMutability": "nonpayable",
      "type": "function"
    },
    {
      "inputs": [],
      "name": "barWasCalled",
      "outputs": [
        {
          "internalType": "bool",
          "name": "",
          "type": "bool"
        }
      ],
      "stateMutability": "view",
      "type": "function"
    },
    {
      "inputs": [
        {
          "internalType": "string",
          "name": "_message",
          "type": "string"
        },
        {
          "internalType": "uint256",
          "name": "_x",
          "type": "uint256"
        }
      ],
      "name": "foo",
      "outputs": [
        {
          "internalType": "bool",
          "name": "",
          "type": "bool"
        }
      ],
      "stateMutability": "payable",
      "type": "function"
    },
    {
      "stateMutability": "payable",
      "type": "receive"
    }
  ],
  "bytecode": "0x608060405234801561001057600080fd5b506103c4806100206000396000f3fe6080604052600436106100385760003560e01c806324ccab8f146100415780634b109a0d146100715780637936caa21461009a5761003f565b3661003f57005b005b61005b60048036038101906100569190610290565b6100c5565b6040516100689190610307565b60405180910390f35b34801561007d57600080fd5b506100986004803603810190610093919061034e565b6100d1565b005b3480156100a657600080fd5b506100af6100ef565b6040516100bc9190610307565b60405180910390f35b60006001905092915050565b60016000806101000a81548160ff0219169083151502179055505050565b60008054906101000a900460ff1681565b6000604051905090565b600080fd5b600080fd5b600080fd5b600080fd5b6000601f19601f8301169050919050565b7f4e487b7100000000000000000000000000000000000000000000000000000000600052604160045260246000fd5b6101678261011e565b810181811067ffffffffffffffff821117156101865761018561012f565b5b80604052505050565b6000610199610100565b90506101a5828261015e565b919050565b600067ffffffffffffffff8211156101c5576101c461012f565b5b6101ce8261011e565b9050602081019050919050565b82818337600083830152505050565b60006101fd6101f8846101aa565b61018f565b90508281526020810184848401111561021957610218610119565b5b6102248482856101db565b509392505050565b600082601f83011261024157610240610114565b5b81356102518482602086016101ea565b91505092915050565b6000819050919050565b61026d8161025a565b811461027857600080fd5b50565b60008135905061028a81610264565b92915050565b600080604083850312156102a7576102a661010a565b5b600083013567ffffffffffffffff8111156102c5576102c461010f565b5b6102d18582860161022c565b92505060206102e28582860161027b565b9150509250929050565b60008115159050919050565b610301816102ec565b82525050565b600060208201905061031c60008301846102f8565b92915050565b61032b816102ec565b811461033657600080fd5b50565b60008135905061034881610322565b92915050565b600080604083850312156103655761036461010a565b5b60006103738582860161027b565b925050602061038485828601610339565b915050925092905056fea264697066735822122078001dad1035ae9f536651e01639ae55bc421dd9f77520b3446ff4a94aa1b92264736f6c63430008110033",
  "linkReferences": {},
  "deployedLinkReferences": {}
}