{"contracts/counter.sol":{"Counter":{"abi":[{"inputs":[],"name":"count","outputs":[{"internalType":"uint256","name":"","type":"uint256"}],"stateMutability":"view","type":"function"},{"inputs":[],"name":"dec","outputs":[{"internalType":"uint256","name":"","type":"uint256"}],"stateMutability":"nonpayable","type":"function"},{"inputs":[],"name":"inc","outputs":[{"internalType":"uint256","name":"","type":"uint256"}],"stateMutability":"nonpayable","type":"function"}],"evm":{"bytecode":{"linkReferences":{},"object":"60806040526000805534801561001457600080fd5b506101db806100246000396000f3fe608060405234801561001057600080fd5b50600436106100415760003560e01c806306661abd14610046578063371303c014610064578063b3bcfa8214610082575b600080fd5b61004e6100a0565b60405161005b91906100f3565b60405180910390f35b61006c6100a6565b60405161007991906100f3565b60405180910390f35b61008a6100c0565b60405161009791906100f3565b60405180910390f35b60005481565b600060016000546100b7919061013d565b60008190555090565b600060016000546100d19190610171565b60008190555090565b6000819050919050565b6100ed816100da565b82525050565b600060208201905061010860008301846100e4565b92915050565b7f4e487b7100000000000000000000000000000000000000000000000000000000600052601160045260246000fd5b6000610148826100da565b9150610153836100da565b925082820190508082111561016b5761016a61010e565b5b92915050565b600061017c826100da565b9150610187836100da565b925082820390508181111561019f5761019e61010e565b5b9291505056fea2646970667358221220ab416c740826652a34d91a9ea8d3979c8d01bc0c31540fab990896862b7ced5864736f6c63430008110033","opcodes":"PUSH1 0x80 PUSH1 0x40 MSTORE PUSH1 0x0 DUP1 SSTORE CALLVALUE DUP1 ISZERO PUSH2 0x14 JUMPI PUSH1 0x0 DUP1 REVERT JUMPDEST POP PUSH2 0x1DB DUP1 PUSH2 0x24 PUSH1 0x0 CODECOPY PUSH1 0x0 RETURN INVALID PUSH1 0x80 PUSH1 0x40 MSTORE CALLVALUE DUP1 ISZERO PUSH2 0x10 JUMPI PUSH1 0x0 DUP1 REVERT JUMPDEST POP PUSH1 0x4 CALLDATASIZE LT PUSH2 0x41 JUMPI PUSH1 0x0 CALLDATALOAD PUSH1 0xE0 SHR DUP1 PUSH4 0x6661ABD EQ PUSH2 0x46 JUMPI DUP1 PUSH4 0x371303C0 EQ PUSH2 0x64 JUMPI DUP1 PUSH4 0xB3BCFA82 EQ PUSH2 0x82 JUMPI JUMPDEST PUSH1 0x0 DUP1 REVERT JUMPDEST PUSH2 0x4E PUSH2 0xA0 JUMP JUMPDEST PUSH1 0x40 MLOAD PUSH2 0x5B SWAP2 SWAP1 PUSH2 0xF3 JUMP JUMPDEST PUSH1 0x40 MLOAD DUP1 SWAP2 SUB SWAP1 RETURN JUMPDEST PUSH2 0x6C PUSH2 0xA6 JUMP JUMPDEST PUSH1 0x40 MLOAD PUSH2 0x79 SWAP2 SWAP1 PUSH2 0xF3 JUMP JUMPDEST PUSH1 0x40 MLOAD DUP1 SWAP2 SUB SWAP1 RETURN JUMPDEST PUSH2 0x8A PUSH2 0xC0 JUMP JUMPDEST PUSH1 0x40 MLOAD PUSH2 0x97 SWAP2 SWAP1 PUSH2 0xF3 JUMP JUMPDEST PUSH1 0x40 MLOAD DUP1 SWAP2 SUB SWAP1 RETURN JUMPDEST PUSH1 0x0 SLOAD DUP2 JUMP JUMPDEST PUSH1 0x0 PUSH1 0x1 PUSH1 0x0 SLOAD PUSH2 0xB7 SWAP2 SWAP1 PUSH2 0x13D JUMP JUMPDEST PUSH1 0x0 DUP2 SWAP1 SSTORE POP SWAP1 JUMP JUMPDEST PUSH1 0x0 PUSH1 0x1 PUSH1 0x0 SLOAD PUSH2 0xD1 SWAP2 SWAP1 PUSH2 0x171 JUMP JUMPDEST PUSH1 0x0 DUP2 SWAP1 SSTORE POP SWAP1 JUMP JUMPDEST PUSH1 0x0 DUP2 SWAP1 POP SWAP2 SWAP1 POP JUMP JUMPDEST PUSH2 0xED DUP2 PUSH2 0xDA JUMP JUMPDEST DUP3 MSTORE POP POP JUMP JUMPDEST PUSH1 0x0 PUSH1 0x20 DUP3 ADD SWAP1 POP PUSH2 0x108 PUSH1 0x0 DUP4 ADD DUP5 PUSH2 0xE4 JUMP JUMPDEST SWAP3 SWAP2 POP POP JUMP JUMPDEST PUSH32 0x4E487B7100000000000000000000000000000000000000000000000000000000 PUSH1 0x0 MSTORE PUSH1 0x11 PUSH1 0x4 MSTORE PUSH1 0x24 PUSH1 0x0 REVERT JUMPDEST PUSH1 0x0 PUSH2 0x148 DUP3 PUSH2 0xDA JUMP JUMPDEST SWAP2 POP PUSH2 0x153 DUP4 PUSH2 0xDA JUMP JUMPDEST SWAP3 POP DUP3 DUP3 ADD SWAP1 POP DUP1 DUP3 GT ISZERO PUSH2 0x16B JUMPI PUSH2 0x16A PUSH2 0x10E JUMP JUMPDEST JUMPDEST SWAP3 SWAP2 POP POP JUMP JUMPDEST PUSH1 0x0 PUSH2 0x17C DUP3 PUSH2 0xDA JUMP JUMPDEST SWAP2 POP PUSH2 0x187 DUP4 PUSH2 0xDA JUMP JUMPDEST SWAP3 POP DUP3 DUP3 SUB SWAP1 POP DUP2 DUP2 GT ISZERO PUSH2 0x19F JUMPI PUSH2 0x19E PUSH2 0x10E JUMP JUMPDEST JUMPDEST SWAP3 SWAP2 POP POP JUMP INVALID LOG2 PUSH5 0x6970667358 0x22 SLT KECCAK256 0xAB COINBASE PUSH13 0x740826652A34D91A9EA8D3979C DUP14 ADD 0xBC 0xC BALANCE SLOAD 0xF 0xAB SWAP10 ADDMOD SWAP7 DUP7 0x2B PUSH29 0xED5864736F6C6343000811003300000000000000000000000000000000 "},"methodIdentifiers":{"count()":"06661abd","dec()":"b3bcfa82","inc()":"371303c0"}}}}}