{
  "_format": "hh-sol-artifact-1",
  "contractName": "MultiCall",
  "sourceName": "contracts/multi_call.sol",
  "abi": [
    {
      "inputs": [
        {
          "internalType": "address[]",
          "name": "targets",
          "type": "address[]"
        },
        {
          "internalType": "bytes[]",
          "name": "data",
          "type": "bytes[]"
        }
      ],
      "name": "multiCall",
      "outputs": [
        {
          "internalType": "bytes[]",
          "name": "",
          "type": "bytes[]"
        }
      ],
      "stateMutability": "view",
      "type": "function"
    }
  ],
  "bytecode": "0x608060405234801561001057600080fd5b5061087a806100206000396000f3fe608060405234801561001057600080fd5b506004361061002b5760003560e01c8063da5b4ffd14610030575b600080fd5b61004a6004803603810190610045919061030c565b610060565b60405161005791906104df565b60405180910390f35b606060008383905067ffffffffffffffff81111561008157610080610501565b5b6040519080825280602002602001820160405280156100b457816020015b606081526020019060019003908161009f5790505b5090508383905086869050146100ff576040517f08c379a00000000000000000000000000000000000000000000000000000000081526004016100f6906105b3565b60405180910390fd5b60005b8686905081101561023a57600080888884818110610123576101226105d3565b5b90506020020160208101906101389190610660565b73ffffffffffffffffffffffffffffffffffffffff16878785818110610161576101606105d3565b5b9050602002810190610173919061069c565b60405161018192919061073e565b600060405180830381855afa9150503d80600081146101bc576040519150601f19603f3d011682016040523d82523d6000602084013e6101c1565b606091505b509150915081610206576040517f08c379a00000000000000000000000000000000000000000000000000000000081526004016101fd906107a3565b60405180910390fd5b8084848151811061021a576102196105d3565b5b602002602001018190525050508080610232906107fc565b915050610102565b5080915050949350505050565b600080fd5b600080fd5b600080fd5b600080fd5b600080fd5b60008083601f84011261027657610275610251565b5b8235905067ffffffffffffffff81111561029357610292610256565b5b6020830191508360208202830111156102af576102ae61025b565b5b9250929050565b60008083601f8401126102cc576102cb610251565b5b8235905067ffffffffffffffff8111156102e9576102e8610256565b5b6020830191508360208202830111156103055761030461025b565b5b9250929050565b6000806000806040858703121561032657610325610247565b5b600085013567ffffffffffffffff8111156103445761034361024c565b5b61035087828801610260565b9450945050602085013567ffffffffffffffff8111156103735761037261024c565b5b61037f878288016102b6565b925092505092959194509250565b600081519050919050565b600082825260208201905092915050565b6000819050602082019050919050565b600081519050919050565b600082825260208201905092915050565b60005b838110156103f35780820151818401526020810190506103d8565b60008484015250505050565b6000601f19601f8301169050919050565b600061041b826103b9565b61042581856103c4565b93506104358185602086016103d5565b61043e816103ff565b840191505092915050565b60006104558383610410565b905092915050565b6000602082019050919050565b60006104758261038d565b61047f8185610398565b935083602082028501610491856103a9565b8060005b858110156104cd57848403895281516104ae8582610449565b94506104b98361045d565b925060208a01995050600181019050610495565b50829750879550505050505092915050565b600060208201905081810360008301526104f9818461046a565b905092915050565b7f4e487b7100000000000000000000000000000000000000000000000000000000600052604160045260246000fd5b600082825260208201905092915050565b7f54617267657420616e642064617461206c656e67746873206e6f74206571756160008201527f6c00000000000000000000000000000000000000000000000000000000000000602082015250565b600061059d602183610530565b91506105a882610541565b604082019050919050565b600060208201905081810360008301526105cc81610590565b9050919050565b7f4e487b7100000000000000000000000000000000000000000000000000000000600052603260045260246000fd5b600073ffffffffffffffffffffffffffffffffffffffff82169050919050565b600061062d82610602565b9050919050565b61063d81610622565b811461064857600080fd5b50565b60008135905061065a81610634565b92915050565b60006020828403121561067657610675610247565b5b60006106848482850161064b565b91505092915050565b600080fd5b600080fd5b600080fd5b600080833560016020038436030381126106b9576106b861068d565b5b80840192508235915067ffffffffffffffff8211156106db576106da610692565b5b6020830192506001820236038313156106f7576106f6610697565b5b509250929050565b600081905092915050565b82818337600083830152505050565b600061072583856106ff565b935061073283858461070a565b82840190509392505050565b600061074b828486610719565b91508190509392505050565b7f63616c6c206661696c6564000000000000000000000000000000000000000000600082015250565b600061078d600b83610530565b915061079882610757565b602082019050919050565b600060208201905081810360008301526107bc81610780565b9050919050565b7f4e487b7100000000000000000000000000000000000000000000000000000000600052601160045260246000fd5b6000819050919050565b6000610807826107f2565b91507fffffffffffffffffffffffffffffffffffffffffffffffffffffffffffffffff8203610839576108386107c3565b5b60018201905091905056fea26469706673582212203adb2b3c4df724efa983af441eaef6c65dc1ef17a8c2707da621aa6b66624d8a64736f6c63430008110033",
  "linkReferences": {},
  "deployedLinkReferences": {}
}