{
  "_format": "hh-sol-artifact-1",
  "contractName": "BuggyProxy",
  "sourceName": "contracts/BuggyProxy.sol",
  "abi": [
    {
      "inputs": [],
      "stateMutability": "nonpayable",
      "type": "constructor"
    },
    {
      "stateMutability": "payable",
      "type": "fallback"
    },
    {
      "inputs": [],
      "name": "admin",
      "outputs": [
        {
          "internalType": "address",
          "name": "",
          "type": "address"
        }
      ],
      "stateMutability": "view",
      "type": "function"
    },
    {
      "inputs": [],
      "name": "implementation",
      "outputs": [
        {
          "internalType": "address",
          "name": "",
          "type": "address"
        }
      ],
      "stateMutability": "view",
      "type": "function"
    },
    {
      "inputs": [
        {
          "internalType": "address",
          "name": "_implementation",
          "type": "address"
        }
      ],
      "name": "upgradeTo",
      "outputs": [],
      "stateMutability": "nonpayable",
      "type": "function"
    },
    {
      "stateMutability": "payable",
      "type": "receive"
    }
  ],
  "bytecode": "0x608060405234801561001057600080fd5b5033600160006101000a81548173ffffffffffffffffffffffffffffffffffffffff021916908373ffffffffffffffffffffffffffffffffffffffff1602179055506104f8806100616000396000f3fe6080604052600436106100385760003560e01c80633659cfe6146100515780635c60da1b1461007a578063f851a440146100a557610047565b36610047576100456100d0565b005b61004f6100d0565b005b34801561005d57600080fd5b506100786004803603810190610073919061032a565b6101aa565b005b34801561008657600080fd5b5061008f61027d565b60405161009c9190610366565b60405180910390f35b3480156100b157600080fd5b506100ba6102a1565b6040516100c79190610366565b60405180910390f35b606060008060008054906101000a900473ffffffffffffffffffffffffffffffffffffffff1673ffffffffffffffffffffffffffffffffffffffff1660003660405161011d9291906103c0565b600060405180830381855af49150503d8060008114610158576040519150601f19603f3d011682016040523d82523d6000602084013e61015d565b606091505b5091509150816101a2576040517f08c379a000000000000000000000000000000000000000000000000000000000815260040161019990610436565b60405180910390fd5b809250505090565b600160009054906101000a900473ffffffffffffffffffffffffffffffffffffffff1673ffffffffffffffffffffffffffffffffffffffff163373ffffffffffffffffffffffffffffffffffffffff161461023a576040517f08c379a0000000000000000000000000000000000000000000000000000000008152600401610231906104a2565b60405180910390fd5b806000806101000a81548173ffffffffffffffffffffffffffffffffffffffff021916908373ffffffffffffffffffffffffffffffffffffffff16021790555050565b60008054906101000a900473ffffffffffffffffffffffffffffffffffffffff1681565b600160009054906101000a900473ffffffffffffffffffffffffffffffffffffffff1681565b600080fd5b600073ffffffffffffffffffffffffffffffffffffffff82169050919050565b60006102f7826102cc565b9050919050565b610307816102ec565b811461031257600080fd5b50565b600081359050610324816102fe565b92915050565b6000602082840312156103405761033f6102c7565b5b600061034e84828501610315565b91505092915050565b610360816102ec565b82525050565b600060208201905061037b6000830184610357565b92915050565b600081905092915050565b82818337600083830152505050565b60006103a78385610381565b93506103b483858461038c565b82840190509392505050565b60006103cd82848661039b565b91508190509392505050565b600082825260208201905092915050565b7f64656c656761746563616c6c206661696c656400000000000000000000000000600082015250565b60006104206013836103d9565b915061042b826103ea565b602082019050919050565b6000602082019050818103600083015261044f81610413565b9050919050565b7f6e6f7420617574686f72697a6564000000000000000000000000000000000000600082015250565b600061048c600e836103d9565b915061049782610456565b602082019050919050565b600060208201905081810360008301526104bb8161047f565b905091905056fea26469706673582212209eb1f7d532899f810c445ac0a240a251f1b42cf31aadf430cdd3e4d30b9c56d764736f6c63430008110033",
  "linkReferences": {},
  "deployedLinkReferences": {}
}