{
  "_format": "hh-sol-artifact-1",
  "contractName": "VisibilityChild",
  "sourceName": "contracts/visibility.sol",
  "abi": [
    {
      "inputs": [],
      "name": "examples",
      "outputs": [],
      "stateMutability": "view",
      "type": "function"
    },
    {
      "inputs": [],
      "name": "examples2",
      "outputs": [],
      "stateMutability": "view",
      "type": "function"
    },
    {
      "inputs": [],
      "name": "externalFunc",
      "outputs": [
        {
          "internalType": "uint256",
          "name": "",
          "type": "uint256"
        }
      ],
      "stateMutability": "pure",
      "type": "function"
    },
    {
      "inputs": [],
      "name": "publicFunc",
      "outputs": [
        {
          "internalType": "uint256",
          "name": "",
          "type": "uint256"
        }
      ],
      "stateMutability": "pure",
      "type": "function"
    },
    {
      "inputs": [],
      "name": "test",
      "outputs": [
        {
          "internalType": "uint256",
          "name": "",
          "type": "uint256"
        }
      ],
      "stateMutability": "view",
      "type": "function"
    },
    {
      "inputs": [],
      "name": "z",
      "outputs": [
        {
          "internalType": "uint256",
          "name": "",
          "type": "uint256"
        }
      ],
      "stateMutability": "view",
      "type": "function"
    }
  ],
  "bytecode": "0x608060405260008055600180556002805534801561001c57600080fd5b506103508061002c6000396000f3fe608060405234801561001057600080fd5b50600436106100625760003560e01c8063335d00c21461006757806342b148aa146100715780634b73383f1461008f578063c3be8e2c146100ad578063c5d7802e146100b7578063f8a8fd6d146100d5575b600080fd5b61006f6100f3565b005b61007961019e565b604051610086919061023e565b60405180910390f35b6100976101a8565b6040516100a4919061023e565b60405180910390f35b6100b56101b1565b005b6100bf6101d6565b6040516100cc919061023e565b60405180910390f35b6100dd6101dc565b6040516100ea919061023e565b60405180910390f35b6002546001546000546101069190610288565b6101109190610288565b50610119610217565b5061012261021c565b5061012b6101a8565b503073ffffffffffffffffffffffffffffffffffffffff166342b148aa6040518163ffffffff1660e01b8152600401602060405180830381865afa158015610177573d6000803e3d6000fd5b505050506040513d601f19601f8201168201806040525081019061019b91906102ed565b50565b600061012c905090565b600060c8905090565b6002546001546101c19190610288565b506101ca61021c565b506101d36101a8565b50565b60025481565b60006101e66101a8565b6101ee61021c565b6002546001546101fe9190610288565b6102089190610288565b6102129190610288565b905090565b600090565b60006064905090565b6000819050919050565b61023881610225565b82525050565b6000602082019050610253600083018461022f565b92915050565b7f4e487b7100000000000000000000000000000000000000000000000000000000600052601160045260246000fd5b600061029382610225565b915061029e83610225565b92508282019050808211156102b6576102b5610259565b5b92915050565b600080fd5b6102ca81610225565b81146102d557600080fd5b50565b6000815190506102e7816102c1565b92915050565b600060208284031215610303576103026102bc565b5b6000610311848285016102d8565b9150509291505056fea264697066735822122057aff64765d98d1679af56cd69ae00c028776dc4682fc24fad802176c79d2f9b64736f6c63430008110033",
  "linkReferences": {},
  "deployedLinkReferences": {}
}