{
  "_format": "hh-sol-artifact-1",
  "contractName": "VisibilityBase",
  "sourceName": "contracts/visibility.sol",
  "abi": [
    {
      "inputs": [],
      "name": "examples",
      "outputs": [],
      "stateMutability": "view",
      "type": "function"
    },
    {
      "inputs": [],
      "name": "externalFunc",
      "outputs": [
        {
          "internalType": "uint256",
          "name": "",
          "type": "uint256"
        }
      ],
      "stateMutability": "pure",
      "type": "function"
    },
    {
      "inputs": [],
      "name": "publicFunc",
      "outputs": [
        {
          "internalType": "uint256",
          "name": "",
          "type": "uint256"
        }
      ],
      "stateMutability": "pure",
      "type": "function"
    },
    {
      "inputs": [],
      "name": "z",
      "outputs": [
        {
          "internalType": "uint256",
          "name": "",
          "type": "uint256"
        }
      ],
      "stateMutability": "view",
      "type": "function"
    }
  ],
  "bytecode": "0x608060405260008055600180556002805534801561001c57600080fd5b506102b28061002c6000396000f3fe608060405234801561001057600080fd5b506004361061004c5760003560e01c8063335d00c21461005157806342b148aa1461005b5780634b73383f14610079578063c5d7802e14610097575b600080fd5b6100596100b5565b005b610063610160565b60405161007091906101a0565b60405180910390f35b61008161016a565b60405161008e91906101a0565b60405180910390f35b61009f610173565b6040516100ac91906101a0565b60405180910390f35b6002546001546000546100c891906101ea565b6100d291906101ea565b506100db610179565b506100e461017e565b506100ed61016a565b503073ffffffffffffffffffffffffffffffffffffffff166342b148aa6040518163ffffffff1660e01b8152600401602060405180830381865afa158015610139573d6000803e3d6000fd5b505050506040513d601f19601f8201168201806040525081019061015d919061024f565b50565b600061012c905090565b600060c8905090565b60025481565b600090565b60006064905090565b6000819050919050565b61019a81610187565b82525050565b60006020820190506101b56000830184610191565b92915050565b7f4e487b7100000000000000000000000000000000000000000000000000000000600052601160045260246000fd5b60006101f582610187565b915061020083610187565b9250828201905080821115610218576102176101bb565b5b92915050565b600080fd5b61022c81610187565b811461023757600080fd5b50565b60008151905061024981610223565b92915050565b6000602082840312156102655761026461021e565b5b60006102738482850161023a565b9150509291505056fea2646970667358221220976c0faaacd2b7eff437d111c99d2bad478182b4338c9ad56236fdfb4e7d2bbe64736f6c63430008110033",
  "linkReferences": {},
  "deployedLinkReferences": {}
}