{
  "_format": "hh-sol-artifact-1",
  "contractName": "RandomNumberConsumer",
  "sourceName": "contracts/randomness.sol",
  "abi": [
    {
      "inputs": [],
      "stateMutability": "nonpayable",
      "type": "constructor"
    },
    {
      "inputs": [],
      "name": "counter",
      "outputs": [
        {
          "internalType": "uint256",
          "name": "",
          "type": "uint256"
        }
      ],
      "stateMutability": "view",
      "type": "function"
    },
    {
      "inputs": [],
      "name": "flip_contract",
      "outputs": [
        {
          "internalType": "contract CoinFlip",
          "name": "",
          "type": "address"
        }
      ],
      "stateMutability": "view",
      "type": "function"
    },
    {
      "inputs": [],
      "name": "getRandom",
      "outputs": [
        {
          "internalType": "uint256",
          "name": "",
          "type": "uint256"
        }
      ],
      "stateMutability": "nonpayable",
      "type": "function"
    },
    {
      "inputs": [],
      "name": "owner",
      "outputs": [
        {
          "internalType": "address",
          "name": "",
          "type": "address"
        }
      ],
      "stateMutability": "view",
      "type": "function"
    },
    {
      "inputs": [
        {
          "internalType": "uint256",
          "name": "",
          "type": "uint256"
        }
      ],
      "name": "random_numbers",
      "outputs": [
        {
          "internalType": "uint256",
          "name": "",
          "type": "uint256"
        }
      ],
      "stateMutability": "view",
      "type": "function"
    },
    {
      "inputs": [
        {
          "internalType": "uint256",
          "name": "_requestId",
          "type": "uint256"
        },
        {
          "internalType": "uint256[]",
          "name": "_randomWords",
          "type": "uint256[]"
        }
      ],
      "name": "rawFulfillRandomWords",
      "outputs": [],
      "stateMutability": "nonpayable",
      "type": "function"
    },
    {
      "inputs": [
        {
          "internalType": "uint32",
          "name": "gas_limit",
          "type": "uint32"
        }
      ],
      "name": "set_callback_gas_limit",
      "outputs": [],
      "stateMutability": "nonpayable",
      "type": "function"
    },
    {
      "inputs": [
        {
          "internalType": "address payable",
          "name": "flip_address",
          "type": "address"
        }
      ],
      "name": "set_flip_contract",
      "outputs": [],
      "stateMutability": "nonpayable",
      "type": "function"
    },
    {
      "inputs": [
        {
          "internalType": "address",
          "name": "link_address",
          "type": "address"
        }
      ],
      "name": "set_link_address",
      "outputs": [],
      "stateMutability": "nonpayable",
      "type": "function"
    },
    {
      "inputs": [
        {
          "internalType": "uint16",
          "name": "confirmations",
          "type": "uint16"
        }
      ],
      "name": "set_request_confirmations",
      "outputs": [],
      "stateMutability": "nonpayable",
      "type": "function"
    },
    {
      "inputs": [
        {
          "internalType": "address",
          "name": "wrapper_address",
          "type": "address"
        }
      ],
      "name": "set_wrapper_address",
      "outputs": [],
      "stateMutability": "nonpayable",
      "type": "function"
    }
  ],
  "bytecode": "0x60c06040526000600255620f4240600360146101000a81548163ffffffff021916908363ffffffff1602179055506005600360186101000a81548161ffff021916908361ffff16021790555060016003601a6101000a81548163ffffffff021916908363ffffffff16021790555073fafedb041c0dd4fa2dc0d87a6b0979ee6fa7af5f600460006101000a81548173ffffffffffffffffffffffffffffffffffffffff021916908373ffffffffffffffffffffffffffffffffffffffff1602179055507338336bdae79747a1d2c4e6c67bbf382244287ca6600560006101000a81548173ffffffffffffffffffffffffffffffffffffffff021916908373ffffffffffffffffffffffffffffffffffffffff16021790555034801561012357600080fd5b50600460009054906101000a900473ffffffffffffffffffffffffffffffffffffffff16600560009054906101000a900473ffffffffffffffffffffffffffffffffffffffff168173ffffffffffffffffffffffffffffffffffffffff1660808173ffffffffffffffffffffffffffffffffffffffff16815250508073ffffffffffffffffffffffffffffffffffffffff1660a08173ffffffffffffffffffffffffffffffffffffffff1681525050505033600360006101000a81548173ffffffffffffffffffffffffffffffffffffffff021916908373ffffffffffffffffffffffffffffffffffffffff16021790555060805160a0516115b1610256600039600081816102b001528181610831015281816109dc015281816109fd0152610b1d015260006109a001526115b16000f3fe608060405234801561001057600080fd5b50600436106100a95760003560e01c80637cb41699116100715780637cb416991461015057806386b968e21461016c5780638da5cb5b14610188578063a77965e9146101a6578063aacc5a17146101c2578063db718959146101e0576100a9565b80631f116d95146100ae5780631fe543e3146100ca5780634a29a112146100e65780634cffa4691461011657806361bc221a14610132575b600080fd5b6100c860048036038101906100c39190610c01565b6101fe565b005b6100e460048036038101906100df9190610dbd565b6102ae565b005b61010060048036038101906100fb9190610e19565b61034a565b60405161010d9190610e55565b60405180910390f35b610130600480360381019061012b9190610eac565b610362565b005b61013a610416565b6040516101479190610e55565b60405180910390f35b61016a60048036038101906101659190610f37565b61041c565b005b61018660048036038101906101819190610f37565b6104f0565b005b6101906105c4565b60405161019d9190610f73565b60405180910390f35b6101c060048036038101906101bb9190610fcc565b6105ea565b005b6101ca610717565b6040516101d79190610e55565b60405180910390f35b6101e861080b565b6040516101f59190611058565b60405180910390f35b600360009054906101000a900473ffffffffffffffffffffffffffffffffffffffff1673ffffffffffffffffffffffffffffffffffffffff163373ffffffffffffffffffffffffffffffffffffffff161461028e576040517f08c379a0000000000000000000000000000000000000000000000000000000008152600401610285906110f6565b60405180910390fd5b80600360186101000a81548161ffff021916908361ffff16021790555050565b7f000000000000000000000000000000000000000000000000000000000000000073ffffffffffffffffffffffffffffffffffffffff163373ffffffffffffffffffffffffffffffffffffffff161461033c576040517f08c379a000000000000000000000000000000000000000000000000000000000815260040161033390611162565b60405180910390fd5b610346828261082f565b5050565b60016020528060005260406000206000915090505481565b600360009054906101000a900473ffffffffffffffffffffffffffffffffffffffff1673ffffffffffffffffffffffffffffffffffffffff163373ffffffffffffffffffffffffffffffffffffffff16146103f2576040517f08c379a00000000000000000000000000000000000000000000000000000000081526004016103e9906110f6565b60405180910390fd5b80600360146101000a81548163ffffffff021916908363ffffffff16021790555050565b60025481565b600360009054906101000a900473ffffffffffffffffffffffffffffffffffffffff1673ffffffffffffffffffffffffffffffffffffffff163373ffffffffffffffffffffffffffffffffffffffff16146104ac576040517f08c379a00000000000000000000000000000000000000000000000000000000081526004016104a3906110f6565b60405180910390fd5b80600560006101000a81548173ffffffffffffffffffffffffffffffffffffffff021916908373ffffffffffffffffffffffffffffffffffffffff16021790555050565b600360009054906101000a900473ffffffffffffffffffffffffffffffffffffffff1673ffffffffffffffffffffffffffffffffffffffff163373ffffffffffffffffffffffffffffffffffffffff1614610580576040517f08c379a0000000000000000000000000000000000000000000000000000000008152600401610577906110f6565b60405180910390fd5b80600460006101000a81548173ffffffffffffffffffffffffffffffffffffffff021916908373ffffffffffffffffffffffffffffffffffffffff16021790555050565b600360009054906101000a900473ffffffffffffffffffffffffffffffffffffffff1681565b60006002541461062f576040517f08c379a0000000000000000000000000000000000000000000000000000000008152600401610626906111ce565b60405180910390fd5b600360009054906101000a900473ffffffffffffffffffffffffffffffffffffffff1673ffffffffffffffffffffffffffffffffffffffff163373ffffffffffffffffffffffffffffffffffffffff16146106bf576040517f08c379a00000000000000000000000000000000000000000000000000000000081526004016106b6906110f6565b60405180910390fd5b806000806101000a81548173ffffffffffffffffffffffffffffffffffffffff021916908373ffffffffffffffffffffffffffffffffffffffff160217905550600160025461070e919061121d565b60028190555050565b60008060009054906101000a900473ffffffffffffffffffffffffffffffffffffffff1673ffffffffffffffffffffffffffffffffffffffff163373ffffffffffffffffffffffffffffffffffffffff16146107a8576040517f08c379a000000000000000000000000000000000000000000000000000000000815260040161079f906112c3565b60405180910390fd5b60006107e9600360149054906101000a900463ffffffff16600360189054906101000a900461ffff166003601a9054906101000a900463ffffffff1661099c565b9050600060016000838152602001908152602001600020819055508091505090565b60008054906101000a900473ffffffffffffffffffffffffffffffffffffffff1681565b7f000000000000000000000000000000000000000000000000000000000000000073ffffffffffffffffffffffffffffffffffffffff163373ffffffffffffffffffffffffffffffffffffffff16146108bd576040517f08c379a00000000000000000000000000000000000000000000000000000000081526004016108b49061132f565b60405180910390fd5b806000815181106108d1576108d061134f565b5b6020026020010151600160008481526020019081526020016000208190555060008054906101000a900473ffffffffffffffffffffffffffffffffffffffff1673ffffffffffffffffffffffffffffffffffffffff1663585d458683836000815181106109415761094061134f565b5b60200260200101516040518363ffffffff1660e01b815260040161096692919061137e565b600060405180830381600087803b15801561098057600080fd5b505af1158015610994573d6000803e3d6000fd5b505050505050565b60007f000000000000000000000000000000000000000000000000000000000000000073ffffffffffffffffffffffffffffffffffffffff16634000aea07f00000000000000000000000000000000000000000000000000000000000000007f000000000000000000000000000000000000000000000000000000000000000073ffffffffffffffffffffffffffffffffffffffff16634306d354886040518263ffffffff1660e01b8152600401610a5491906113b6565b602060405180830381865afa158015610a71573d6000803e3d6000fd5b505050506040513d601f19601f82011682018060405250810190610a9591906113e6565b878787604051602001610aaa93929190611422565b6040516020818303038152906040526040518463ffffffff1660e01b8152600401610ad7939291906114d8565b6020604051808303816000875af1158015610af6573d6000803e3d6000fd5b505050506040513d601f19601f82011682018060405250810190610b1a919061154e565b507f000000000000000000000000000000000000000000000000000000000000000073ffffffffffffffffffffffffffffffffffffffff1663fc2a88c36040518163ffffffff1660e01b8152600401602060405180830381865afa158015610b86573d6000803e3d6000fd5b505050506040513d601f19601f82011682018060405250810190610baa91906113e6565b90509392505050565b6000604051905090565b600080fd5b600080fd5b600061ffff82169050919050565b610bde81610bc7565b8114610be957600080fd5b50565b600081359050610bfb81610bd5565b92915050565b600060208284031215610c1757610c16610bbd565b5b6000610c2584828501610bec565b91505092915050565b6000819050919050565b610c4181610c2e565b8114610c4c57600080fd5b50565b600081359050610c5e81610c38565b92915050565b600080fd5b6000601f19601f8301169050919050565b7f4e487b7100000000000000000000000000000000000000000000000000000000600052604160045260246000fd5b610cb282610c69565b810181811067ffffffffffffffff82111715610cd157610cd0610c7a565b5b80604052505050565b6000610ce4610bb3565b9050610cf08282610ca9565b919050565b600067ffffffffffffffff821115610d1057610d0f610c7a565b5b602082029050602081019050919050565b600080fd5b6000610d39610d3484610cf5565b610cda565b90508083825260208201905060208402830185811115610d5c57610d5b610d21565b5b835b81811015610d855780610d718882610c4f565b845260208401935050602081019050610d5e565b5050509392505050565b600082601f830112610da457610da3610c64565b5b8135610db4848260208601610d26565b91505092915050565b60008060408385031215610dd457610dd3610bbd565b5b6000610de285828601610c4f565b925050602083013567ffffffffffffffff811115610e0357610e02610bc2565b5b610e0f85828601610d8f565b9150509250929050565b600060208284031215610e2f57610e2e610bbd565b5b6000610e3d84828501610c4f565b91505092915050565b610e4f81610c2e565b82525050565b6000602082019050610e6a6000830184610e46565b92915050565b600063ffffffff82169050919050565b610e8981610e70565b8114610e9457600080fd5b50565b600081359050610ea681610e80565b92915050565b600060208284031215610ec257610ec1610bbd565b5b6000610ed084828501610e97565b91505092915050565b600073ffffffffffffffffffffffffffffffffffffffff82169050919050565b6000610f0482610ed9565b9050919050565b610f1481610ef9565b8114610f1f57600080fd5b50565b600081359050610f3181610f0b565b92915050565b600060208284031215610f4d57610f4c610bbd565b5b6000610f5b84828501610f22565b91505092915050565b610f6d81610ef9565b82525050565b6000602082019050610f886000830184610f64565b92915050565b6000610f9982610ed9565b9050919050565b610fa981610f8e565b8114610fb457600080fd5b50565b600081359050610fc681610fa0565b92915050565b600060208284031215610fe257610fe1610bbd565b5b6000610ff084828501610fb7565b91505092915050565b6000819050919050565b600061101e61101961101484610ed9565b610ff9565b610ed9565b9050919050565b600061103082611003565b9050919050565b600061104282611025565b9050919050565b61105281611037565b82525050565b600060208201905061106d6000830184611049565b92915050565b600082825260208201905092915050565b7f4f6e6c79206f776e65722063616e2063616c6c20746869732066756e6374696f60008201527f6e2e000000000000000000000000000000000000000000000000000000000000602082015250565b60006110e0602283611073565b91506110eb82611084565b604082019050919050565b6000602082019050818103600083015261110f816110d3565b9050919050565b7f6f6e6c792056524620563220777261707065722063616e2066756c66696c6c00600082015250565b600061114c601f83611073565b915061115782611116565b602082019050919050565b6000602082019050818103600083015261117b8161113f565b9050919050565b7f43616e206f6e6c792062652063616c6c6564206f6e6365000000000000000000600082015250565b60006111b8601783611073565b91506111c382611182565b602082019050919050565b600060208201905081810360008301526111e7816111ab565b9050919050565b7f4e487b7100000000000000000000000000000000000000000000000000000000600052601160045260246000fd5b600061122882610c2e565b915061123383610c2e565b925082820190508082111561124b5761124a6111ee565b5b92915050565b7f4f6e6c792074686520436f696e466c697020636f6e74726163742063616e206360008201527f616c6c20746869732066756e6374696f6e000000000000000000000000000000602082015250565b60006112ad603183611073565b91506112b882611251565b604082019050919050565b600060208201905081810360008301526112dc816112a0565b9050919050565b7f4f6e6c79205652465f56325f575241505045522063616e2066756c66696c6c00600082015250565b6000611319601f83611073565b9150611324826112e3565b602082019050919050565b600060208201905081810360008301526113488161130c565b9050919050565b7f4e487b7100000000000000000000000000000000000000000000000000000000600052603260045260246000fd5b60006040820190506113936000830185610e46565b6113a06020830184610e46565b9392505050565b6113b081610e70565b82525050565b60006020820190506113cb60008301846113a7565b92915050565b6000815190506113e081610c38565b92915050565b6000602082840312156113fc576113fb610bbd565b5b600061140a848285016113d1565b91505092915050565b61141c81610bc7565b82525050565b600060608201905061143760008301866113a7565b6114446020830185611413565b61145160408301846113a7565b949350505050565b600081519050919050565b600082825260208201905092915050565b60005b83811015611493578082015181840152602081019050611478565b60008484015250505050565b60006114aa82611459565b6114b48185611464565b93506114c4818560208601611475565b6114cd81610c69565b840191505092915050565b60006060820190506114ed6000830186610f64565b6114fa6020830185610e46565b818103604083015261150c818461149f565b9050949350505050565b60008115159050919050565b61152b81611516565b811461153657600080fd5b50565b60008151905061154881611522565b92915050565b60006020828403121561156457611563610bbd565b5b600061157284828501611539565b9150509291505056fea264697066735822122026f00f01c54bd5acdf7b0da3585068f3926d1bbb8076fa7acda205d99188c69264736f6c63430008110033",
  "linkReferences": {},
  "deployedLinkReferences": {}
}