{
  "_format": "hh-sol-artifact-1",
  "contractName": "RandomNumberConsumer",
  "sourceName": "contracts/randomness.sol",
  "abi": [
    {
      "inputs": [],
      "stateMutability": "nonpayable",
      "type": "constructor"
    },
    {
      "inputs": [],
      "name": "counter",
      "outputs": [
        {
          "internalType": "uint256",
          "name": "",
          "type": "uint256"
        }
      ],
      "stateMutability": "view",
      "type": "function"
    },
    {
      "inputs": [],
      "name": "flip_contract",
      "outputs": [
        {
          "internalType": "contract CoinFlip",
          "name": "",
          "type": "address"
        }
      ],
      "stateMutability": "view",
      "type": "function"
    },
    {
      "inputs": [],
      "name": "getRandom",
      "outputs": [
        {
          "internalType": "uint256",
          "name": "",
          "type": "uint256"
        }
      ],
      "stateMutability": "nonpayable",
      "type": "function"
    },
    {
      "inputs": [],
      "name": "owner",
      "outputs": [
        {
          "internalType": "address",
          "name": "",
          "type": "address"
        }
      ],
      "stateMutability": "view",
      "type": "function"
    },
    {
      "inputs": [
        {
          "internalType": "uint256",
          "name": "",
          "type": "uint256"
        }
      ],
      "name": "random_numbers",
      "outputs": [
        {
          "internalType": "uint256",
          "name": "",
          "type": "uint256"
        }
      ],
      "stateMutability": "view",
      "type": "function"
    },
    {
      "inputs": [
        {
          "internalType": "uint256",
          "name": "_requestId",
          "type": "uint256"
        },
        {
          "internalType": "uint256[]",
          "name": "_randomWords",
          "type": "uint256[]"
        }
      ],
      "name": "rawFulfillRandomWords",
      "outputs": [],
      "stateMutability": "nonpayable",
      "type": "function"
    },
    {
      "inputs": [
        {
          "internalType": "address payable",
          "name": "flip_address",
          "type": "address"
        }
      ],
      "name": "set_flip_contract",
      "outputs": [],
      "stateMutability": "nonpayable",
      "type": "function"
    }
  ],
  "bytecode": "0x60c06040526000600255620f4240600360146101000a81548163ffffffff021916908363ffffffff1602179055506005600360186101000a81548161ffff021916908361ffff16021790555060016003601a6101000a81548163ffffffff021916908363ffffffff16021790555073fafedb041c0dd4fa2dc0d87a6b0979ee6fa7af5f600460006101000a81548173ffffffffffffffffffffffffffffffffffffffff021916908373ffffffffffffffffffffffffffffffffffffffff1602179055507338336bdae79747a1d2c4e6c67bbf382244287ca6600560006101000a81548173ffffffffffffffffffffffffffffffffffffffff021916908373ffffffffffffffffffffffffffffffffffffffff16021790555034801561012357600080fd5b50600460009054906101000a900473ffffffffffffffffffffffffffffffffffffffff16600560009054906101000a900473ffffffffffffffffffffffffffffffffffffffff168173ffffffffffffffffffffffffffffffffffffffff1660808173ffffffffffffffffffffffffffffffffffffffff16815250508073ffffffffffffffffffffffffffffffffffffffff1660a08173ffffffffffffffffffffffffffffffffffffffff1681525050505033600360006101000a81548173ffffffffffffffffffffffffffffffffffffffff021916908373ffffffffffffffffffffffffffffffffffffffff16021790555060805160a0516110fe610256600039600081816101640152818161048901528181610634015281816106550152610775015260006105f801526110fe6000f3fe608060405234801561001057600080fd5b506004361061007d5760003560e01c80638da5cb5b1161005b5780638da5cb5b146100ec578063a77965e91461010a578063aacc5a1714610126578063db718959146101445761007d565b80631fe543e3146100825780634a29a1121461009e57806361bc221a146100ce575b600080fd5b61009c600480360381019061009791906109ae565b610162565b005b6100b860048036038101906100b39190610a0a565b6101fe565b6040516100c59190610a46565b60405180910390f35b6100d6610216565b6040516100e39190610a46565b60405180910390f35b6100f461021c565b6040516101019190610aa2565b60405180910390f35b610124600480360381019061011f9190610afb565b610242565b005b61012e61036f565b60405161013b9190610a46565b60405180910390f35b61014c610463565b6040516101599190610b87565b60405180910390f35b7f000000000000000000000000000000000000000000000000000000000000000073ffffffffffffffffffffffffffffffffffffffff163373ffffffffffffffffffffffffffffffffffffffff16146101f0576040517f08c379a00000000000000000000000000000000000000000000000000000000081526004016101e790610bff565b60405180910390fd5b6101fa8282610487565b5050565b60016020528060005260406000206000915090505481565b60025481565b600360009054906101000a900473ffffffffffffffffffffffffffffffffffffffff1681565b600060025414610287576040517f08c379a000000000000000000000000000000000000000000000000000000000815260040161027e90610c6b565b60405180910390fd5b600360009054906101000a900473ffffffffffffffffffffffffffffffffffffffff1673ffffffffffffffffffffffffffffffffffffffff163373ffffffffffffffffffffffffffffffffffffffff1614610317576040517f08c379a000000000000000000000000000000000000000000000000000000000815260040161030e90610cfd565b60405180910390fd5b806000806101000a81548173ffffffffffffffffffffffffffffffffffffffff021916908373ffffffffffffffffffffffffffffffffffffffff16021790555060016002546103669190610d4c565b60028190555050565b60008060009054906101000a900473ffffffffffffffffffffffffffffffffffffffff1673ffffffffffffffffffffffffffffffffffffffff163373ffffffffffffffffffffffffffffffffffffffff1614610400576040517f08c379a00000000000000000000000000000000000000000000000000000000081526004016103f790610df2565b60405180910390fd5b6000610441600360149054906101000a900463ffffffff16600360189054906101000a900461ffff166003601a9054906101000a900463ffffffff166105f4565b9050600060016000838152602001908152602001600020819055508091505090565b60008054906101000a900473ffffffffffffffffffffffffffffffffffffffff1681565b7f000000000000000000000000000000000000000000000000000000000000000073ffffffffffffffffffffffffffffffffffffffff163373ffffffffffffffffffffffffffffffffffffffff1614610515576040517f08c379a000000000000000000000000000000000000000000000000000000000815260040161050c90610e5e565b60405180910390fd5b8060008151811061052957610528610e7e565b5b6020026020010151600160008481526020019081526020016000208190555060008054906101000a900473ffffffffffffffffffffffffffffffffffffffff1673ffffffffffffffffffffffffffffffffffffffff1663585d4586838360008151811061059957610598610e7e565b5b60200260200101516040518363ffffffff1660e01b81526004016105be929190610ead565b600060405180830381600087803b1580156105d857600080fd5b505af11580156105ec573d6000803e3d6000fd5b505050505050565b60007f000000000000000000000000000000000000000000000000000000000000000073ffffffffffffffffffffffffffffffffffffffff16634000aea07f00000000000000000000000000000000000000000000000000000000000000007f000000000000000000000000000000000000000000000000000000000000000073ffffffffffffffffffffffffffffffffffffffff16634306d354886040518263ffffffff1660e01b81526004016106ac9190610ef5565b602060405180830381865afa1580156106c9573d6000803e3d6000fd5b505050506040513d601f19601f820116820180604052508101906106ed9190610f25565b87878760405160200161070293929190610f6f565b6040516020818303038152906040526040518463ffffffff1660e01b815260040161072f93929190611025565b6020604051808303816000875af115801561074e573d6000803e3d6000fd5b505050506040513d601f19601f82011682018060405250810190610772919061109b565b507f000000000000000000000000000000000000000000000000000000000000000073ffffffffffffffffffffffffffffffffffffffff1663fc2a88c36040518163ffffffff1660e01b8152600401602060405180830381865afa1580156107de573d6000803e3d6000fd5b505050506040513d601f19601f820116820180604052508101906108029190610f25565b90509392505050565b6000604051905090565b600080fd5b600080fd5b6000819050919050565b6108328161081f565b811461083d57600080fd5b50565b60008135905061084f81610829565b92915050565b600080fd5b6000601f19601f8301169050919050565b7f4e487b7100000000000000000000000000000000000000000000000000000000600052604160045260246000fd5b6108a38261085a565b810181811067ffffffffffffffff821117156108c2576108c161086b565b5b80604052505050565b60006108d561080b565b90506108e1828261089a565b919050565b600067ffffffffffffffff8211156109015761090061086b565b5b602082029050602081019050919050565b600080fd5b600061092a610925846108e6565b6108cb565b9050808382526020820190506020840283018581111561094d5761094c610912565b5b835b8181101561097657806109628882610840565b84526020840193505060208101905061094f565b5050509392505050565b600082601f83011261099557610994610855565b5b81356109a5848260208601610917565b91505092915050565b600080604083850312156109c5576109c4610815565b5b60006109d385828601610840565b925050602083013567ffffffffffffffff8111156109f4576109f361081a565b5b610a0085828601610980565b9150509250929050565b600060208284031215610a2057610a1f610815565b5b6000610a2e84828501610840565b91505092915050565b610a408161081f565b82525050565b6000602082019050610a5b6000830184610a37565b92915050565b600073ffffffffffffffffffffffffffffffffffffffff82169050919050565b6000610a8c82610a61565b9050919050565b610a9c81610a81565b82525050565b6000602082019050610ab76000830184610a93565b92915050565b6000610ac882610a61565b9050919050565b610ad881610abd565b8114610ae357600080fd5b50565b600081359050610af581610acf565b92915050565b600060208284031215610b1157610b10610815565b5b6000610b1f84828501610ae6565b91505092915050565b6000819050919050565b6000610b4d610b48610b4384610a61565b610b28565b610a61565b9050919050565b6000610b5f82610b32565b9050919050565b6000610b7182610b54565b9050919050565b610b8181610b66565b82525050565b6000602082019050610b9c6000830184610b78565b92915050565b600082825260208201905092915050565b7f6f6e6c792056524620563220777261707065722063616e2066756c66696c6c00600082015250565b6000610be9601f83610ba2565b9150610bf482610bb3565b602082019050919050565b60006020820190508181036000830152610c1881610bdc565b9050919050565b7f43616e206f6e6c792062652063616c6c6564206f6e6365000000000000000000600082015250565b6000610c55601783610ba2565b9150610c6082610c1f565b602082019050919050565b60006020820190508181036000830152610c8481610c48565b9050919050565b7f4f6e6c79206f776e65722063616e2063616c6c20746869732066756e6374696f60008201527f6e2e000000000000000000000000000000000000000000000000000000000000602082015250565b6000610ce7602283610ba2565b9150610cf282610c8b565b604082019050919050565b60006020820190508181036000830152610d1681610cda565b9050919050565b7f4e487b7100000000000000000000000000000000000000000000000000000000600052601160045260246000fd5b6000610d578261081f565b9150610d628361081f565b9250828201905080821115610d7a57610d79610d1d565b5b92915050565b7f4f6e6c792074686520436f696e466c697020636f6e74726163742063616e206360008201527f616c6c20746869732066756e6374696f6e000000000000000000000000000000602082015250565b6000610ddc603183610ba2565b9150610de782610d80565b604082019050919050565b60006020820190508181036000830152610e0b81610dcf565b9050919050565b7f4f6e6c79205652465f56325f575241505045522063616e2066756c66696c6c00600082015250565b6000610e48601f83610ba2565b9150610e5382610e12565b602082019050919050565b60006020820190508181036000830152610e7781610e3b565b9050919050565b7f4e487b7100000000000000000000000000000000000000000000000000000000600052603260045260246000fd5b6000604082019050610ec26000830185610a37565b610ecf6020830184610a37565b9392505050565b600063ffffffff82169050919050565b610eef81610ed6565b82525050565b6000602082019050610f0a6000830184610ee6565b92915050565b600081519050610f1f81610829565b92915050565b600060208284031215610f3b57610f3a610815565b5b6000610f4984828501610f10565b91505092915050565b600061ffff82169050919050565b610f6981610f52565b82525050565b6000606082019050610f846000830186610ee6565b610f916020830185610f60565b610f9e6040830184610ee6565b949350505050565b600081519050919050565b600082825260208201905092915050565b60005b83811015610fe0578082015181840152602081019050610fc5565b60008484015250505050565b6000610ff782610fa6565b6110018185610fb1565b9350611011818560208601610fc2565b61101a8161085a565b840191505092915050565b600060608201905061103a6000830186610a93565b6110476020830185610a37565b81810360408301526110598184610fec565b9050949350505050565b60008115159050919050565b61107881611063565b811461108357600080fd5b50565b6000815190506110958161106f565b92915050565b6000602082840312156110b1576110b0610815565b5b60006110bf84828501611086565b9150509291505056fea26469706673582212204b74bf5f6f9db18c8ab0bcec4373be0f779ad2ce149cab7bbe407be3fc0a0ca364736f6c63430008110033",
  "linkReferences": {},
  "deployedLinkReferences": {}
}