{
  "_format": "hh-sol-artifact-1",
  "contractName": "FunctionSelectorClash",
  "sourceName": "contracts/function_selector_clash.sol",
  "abi": [
    {
      "inputs": [],
      "stateMutability": "payable",
      "type": "constructor"
    },
    {
      "inputs": [
        {
          "internalType": "string",
          "name": "_func",
          "type": "string"
        },
        {
          "internalType": "bytes",
          "name": "_data",
          "type": "bytes"
        }
      ],
      "name": "execute",
      "outputs": [],
      "stateMutability": "nonpayable",
      "type": "function"
    },
    {
      "inputs": [
        {
          "internalType": "address payable",
          "name": "_to",
          "type": "address"
        },
        {
          "internalType": "uint256",
          "name": "_amount",
          "type": "uint256"
        }
      ],
      "name": "transfer",
      "outputs": [],
      "stateMutability": "nonpayable",
      "type": "function"
    }
  ],
  "bytecode": "0x60806040526108a4806100136000396000f3fe608060405234801561001057600080fd5b50600436106100365760003560e01c8063229320ca1461003b578063a9059cbb14610057575b600080fd5b61005560048036038101906100509190610401565b610073565b005b610071600480360381019061006c9190610516565b61022a565b005b6100f684848080601f016020809104026020016040519081016040528093929190818152602001838380828437600081840152601f19601f820116905080830192505050505050506040518060400160405280601981526020017f7472616e7366657228616464726573732c75696e7432353629000000000000008152506102e3565b15610136576040517f08c379a000000000000000000000000000000000000000000000000000000000815260040161012d906105b3565b60405180910390fd5b60008484604051610148929190610612565b6040518091039020905060003073ffffffffffffffffffffffffffffffffffffffff1682858560405160200161018093929190610678565b60405160208183030381529060405260405161019c9190610708565b6000604051808303816000865af19150503d80600081146101d9576040519150601f19603f3d011682016040523d82523d6000602084013e6101de565b606091505b5050905080610222576040517f08c379a00000000000000000000000000000000000000000000000000000000081526004016102199061076b565b60405180910390fd5b505050505050565b3073ffffffffffffffffffffffffffffffffffffffff163373ffffffffffffffffffffffffffffffffffffffff1614610298576040517f08c379a000000000000000000000000000000000000000000000000000000000815260040161028f906107d7565b60405180910390fd5b8173ffffffffffffffffffffffffffffffffffffffff166108fc829081150290604051600060405180830381858888f193505050501580156102de573d6000803e3d6000fd5b505050565b6000816040516020016102f6919061084c565b604051602081830303815290604052805190602001208360405160200161031d919061084c565b6040516020818303038152906040528051906020012014905092915050565b600080fd5b600080fd5b600080fd5b600080fd5b600080fd5b60008083601f84011261036b5761036a610346565b5b8235905067ffffffffffffffff8111156103885761038761034b565b5b6020830191508360018202830111156103a4576103a3610350565b5b9250929050565b60008083601f8401126103c1576103c0610346565b5b8235905067ffffffffffffffff8111156103de576103dd61034b565b5b6020830191508360018202830111156103fa576103f9610350565b5b9250929050565b6000806000806040858703121561041b5761041a61033c565b5b600085013567ffffffffffffffff81111561043957610438610341565b5b61044587828801610355565b9450945050602085013567ffffffffffffffff81111561046857610467610341565b5b610474878288016103ab565b925092505092959194509250565b600073ffffffffffffffffffffffffffffffffffffffff82169050919050565b60006104ad82610482565b9050919050565b6104bd816104a2565b81146104c857600080fd5b50565b6000813590506104da816104b4565b92915050565b6000819050919050565b6104f3816104e0565b81146104fe57600080fd5b50565b600081359050610510816104ea565b92915050565b6000806040838503121561052d5761052c61033c565b5b600061053b858286016104cb565b925050602061054c85828601610501565b9150509250929050565b600082825260208201905092915050565b7f63616c6c20746f207472616e73666572206e6f7420616c6c6f77656400000000600082015250565b600061059d601c83610556565b91506105a882610567565b602082019050919050565b600060208201905081810360008301526105cc81610590565b9050919050565b600081905092915050565b82818337600083830152505050565b60006105f983856105d3565b93506106068385846105de565b82840190509392505050565b600061061f8284866105ed565b91508190509392505050565b60007fffffffff0000000000000000000000000000000000000000000000000000000082169050919050565b6000819050919050565b61067261066d8261062b565b610657565b82525050565b60006106848286610661565b6004820191506106958284866105ed565b9150819050949350505050565b600081519050919050565b60005b838110156106cb5780820151818401526020810190506106b0565b60008484015250505050565b60006106e2826106a2565b6106ec81856105d3565b93506106fc8185602086016106ad565b80840191505092915050565b600061071482846106d7565b915081905092915050565b7f7478206661696c65640000000000000000000000000000000000000000000000600082015250565b6000610755600983610556565b91506107608261071f565b602082019050919050565b6000602082019050818103600083015261078481610748565b9050919050565b7f6e6f7420617574686f72697a6564000000000000000000000000000000000000600082015250565b60006107c1600e83610556565b91506107cc8261078b565b602082019050919050565b600060208201905081810360008301526107f0816107b4565b9050919050565b600081519050919050565b6000601f19601f8301169050919050565b600061081e826107f7565b6108288185610556565b93506108388185602086016106ad565b61084181610802565b840191505092915050565b600060208201905081810360008301526108668184610813565b90509291505056fea264697066735822122014d9534ec636d83c7b710266252591f13729d8c0ff2ae66aa33cbfbdc1714a6664736f6c63430008110033",
  "linkReferences": {},
  "deployedLinkReferences": {}
}