{
  "_format": "hh-sol-artifact-1",
  "contractName": "StructExamples",
  "sourceName": "contracts/struct.sol",
  "abi": [
    {
      "inputs": [
        {
          "internalType": "uint256",
          "name": "",
          "type": "uint256"
        }
      ],
      "name": "cars",
      "outputs": [
        {
          "internalType": "string",
          "name": "model",
          "type": "string"
        },
        {
          "internalType": "uint256",
          "name": "year",
          "type": "uint256"
        },
        {
          "internalType": "address",
          "name": "owner",
          "type": "address"
        }
      ],
      "stateMutability": "view",
      "type": "function"
    },
    {
      "inputs": [],
      "name": "examples",
      "outputs": [],
      "stateMutability": "nonpayable",
      "type": "function"
    },
    {
      "inputs": [
        {
          "internalType": "uint256",
          "name": "_index",
          "type": "uint256"
        }
      ],
      "name": "get",
      "outputs": [
        {
          "internalType": "string",
          "name": "model",
          "type": "string"
        },
        {
          "internalType": "uint256",
          "name": "year",
          "type": "uint256"
        },
        {
          "internalType": "address",
          "name": "owner",
          "type": "address"
        }
      ],
      "stateMutability": "view",
      "type": "function"
    },
    {
      "inputs": [
        {
          "internalType": "string",
          "name": "_model",
          "type": "string"
        },
        {
          "internalType": "uint256",
          "name": "_year",
          "type": "uint256"
        }
      ],
      "name": "register",
      "outputs": [],
      "stateMutability": "nonpayable",
      "type": "function"
    },
    {
      "inputs": [
        {
          "internalType": "uint256",
          "name": "_index",
          "type": "uint256"
        },
        {
          "internalType": "address",
          "name": "_owner",
          "type": "address"
        }
      ],
      "name": "transfer",
      "outputs": [],
      "stateMutability": "nonpayable",
      "type": "function"
    }
  ],
  "bytecode": "0x608060405234801561001057600080fd5b50610fb9806100206000396000f3fe608060405234801561001057600080fd5b50600436106100575760003560e01c8063335d00c21461005c5780639507d39a14610066578063b7760c8f14610098578063ea87152b146100b4578063f7746e36146100d0575b600080fd5b610064610102565b005b610080600480360381019061007b919061092e565b610556565b60405161008f93929190610a3b565b60405180910390f35b6100b260048036038101906100ad9190610aa5565b61069a565b005b6100ce60048036038101906100c99190610c1a565b610702565b005b6100ea60048036038101906100e5919061092e565b6107cb565b6040516100f993929190610a3b565b60405180910390f35b600060405180606001604052806040518060400160405280600681526020017f546f796f7461000000000000000000000000000000000000000000000000000081525081526020016107bc81526020013373ffffffffffffffffffffffffffffffffffffffff168152509050600060405180606001604052806040518060400160405280600b81526020017f4c616d626f726768696e6900000000000000000000000000000000000000000081525081526020016107cf81526020013373ffffffffffffffffffffffffffffffffffffffff1681525090506101e26108ad565b6040518060400160405280600581526020017f5465736c6100000000000000000000000000000000000000000000000000000081525081600001819052506107e481602001818152505033816040019073ffffffffffffffffffffffffffffffffffffffff16908173ffffffffffffffffffffffffffffffffffffffff1681525050600083908060018154018082558091505060019003906000526020600020906003020160009091909190915060008201518160000190816102a59190610e82565b506020820151816001015560408201518160020160006101000a81548173ffffffffffffffffffffffffffffffffffffffff021916908373ffffffffffffffffffffffffffffffffffffffff16021790555050506000829080600181540180825580915050600190039060005260206000209060030201600090919091909150600082015181600001908161033a9190610e82565b506020820151816001015560408201518160020160006101000a81548173ffffffffffffffffffffffffffffffffffffffff021916908373ffffffffffffffffffffffffffffffffffffffff1602179055505050600081908060018154018082558091505060019003906000526020600020906003020160009091909190915060008201518160000190816103cf9190610e82565b506020820151816001015560408201518160020160006101000a81548173ffffffffffffffffffffffffffffffffffffffff021916908373ffffffffffffffffffffffffffffffffffffffff1602179055505050600060405180606001604052806040518060400160405280600781526020017f466572726172690000000000000000000000000000000000000000000000000081525081526020016107d081526020013373ffffffffffffffffffffffffffffffffffffffff16815250908060018154018082558091505060019003906000526020600020906003020160009091909190915060008201518160000190816104cb9190610e82565b506020820151816001015560408201518160020160006101000a81548173ffffffffffffffffffffffffffffffffffffffff021916908373ffffffffffffffffffffffffffffffffffffffff160217905550505060008060008154811061053557610534610f54565b5b906000526020600020906003020190506107c4816001018190555050505050565b606060008060008085815481106105705761056f610f54565b5b906000526020600020906003020160405180606001604052908160008201805461059990610ca5565b80601f01602080910402602001604051908101604052809291908181526020018280546105c590610ca5565b80156106125780601f106105e757610100808354040283529160200191610612565b820191906000526020600020905b8154815290600101906020018083116105f557829003601f168201915b50505050508152602001600182015481526020016002820160009054906101000a900473ffffffffffffffffffffffffffffffffffffffff1673ffffffffffffffffffffffffffffffffffffffff1673ffffffffffffffffffffffffffffffffffffffff16815250509050806000015181602001518260400151935093509350509193909250565b80600083815481106106af576106ae610f54565b5b906000526020600020906003020160020160006101000a81548173ffffffffffffffffffffffffffffffffffffffff021916908373ffffffffffffffffffffffffffffffffffffffff1602179055505050565b600060405180606001604052808481526020018381526020013373ffffffffffffffffffffffffffffffffffffffff16815250908060018154018082558091505060019003906000526020600020906003020160009091909190915060008201518160000190816107739190610e82565b506020820151816001015560408201518160020160006101000a81548173ffffffffffffffffffffffffffffffffffffffff021916908373ffffffffffffffffffffffffffffffffffffffff16021790555050505050565b600081815481106107db57600080fd5b90600052602060002090600302016000915090508060000180546107fe90610ca5565b80601f016020809104026020016040519081016040528092919081815260200182805461082a90610ca5565b80156108775780601f1061084c57610100808354040283529160200191610877565b820191906000526020600020905b81548152906001019060200180831161085a57829003601f168201915b5050505050908060010154908060020160009054906101000a900473ffffffffffffffffffffffffffffffffffffffff16905083565b60405180606001604052806060815260200160008152602001600073ffffffffffffffffffffffffffffffffffffffff1681525090565b6000604051905090565b600080fd5b600080fd5b6000819050919050565b61090b816108f8565b811461091657600080fd5b50565b60008135905061092881610902565b92915050565b600060208284031215610944576109436108ee565b5b600061095284828501610919565b91505092915050565b600081519050919050565b600082825260208201905092915050565b60005b8381101561099557808201518184015260208101905061097a565b60008484015250505050565b6000601f19601f8301169050919050565b60006109bd8261095b565b6109c78185610966565b93506109d7818560208601610977565b6109e0816109a1565b840191505092915050565b6109f4816108f8565b82525050565b600073ffffffffffffffffffffffffffffffffffffffff82169050919050565b6000610a25826109fa565b9050919050565b610a3581610a1a565b82525050565b60006060820190508181036000830152610a5581866109b2565b9050610a6460208301856109eb565b610a716040830184610a2c565b949350505050565b610a8281610a1a565b8114610a8d57600080fd5b50565b600081359050610a9f81610a79565b92915050565b60008060408385031215610abc57610abb6108ee565b5b6000610aca85828601610919565b9250506020610adb85828601610a90565b9150509250929050565b600080fd5b600080fd5b7f4e487b7100000000000000000000000000000000000000000000000000000000600052604160045260246000fd5b610b27826109a1565b810181811067ffffffffffffffff82111715610b4657610b45610aef565b5b80604052505050565b6000610b596108e4565b9050610b658282610b1e565b919050565b600067ffffffffffffffff821115610b8557610b84610aef565b5b610b8e826109a1565b9050602081019050919050565b82818337600083830152505050565b6000610bbd610bb884610b6a565b610b4f565b905082815260208101848484011115610bd957610bd8610aea565b5b610be4848285610b9b565b509392505050565b600082601f830112610c0157610c00610ae5565b5b8135610c11848260208601610baa565b91505092915050565b60008060408385031215610c3157610c306108ee565b5b600083013567ffffffffffffffff811115610c4f57610c4e6108f3565b5b610c5b85828601610bec565b9250506020610c6c85828601610919565b9150509250929050565b7f4e487b7100000000000000000000000000000000000000000000000000000000600052602260045260246000fd5b60006002820490506001821680610cbd57607f821691505b602082108103610cd057610ccf610c76565b5b50919050565b60008190508160005260206000209050919050565b60006020601f8301049050919050565b600082821b905092915050565b600060088302610d387fffffffffffffffffffffffffffffffffffffffffffffffffffffffffffffffff82610cfb565b610d428683610cfb565b95508019841693508086168417925050509392505050565b6000819050919050565b6000610d7f610d7a610d75846108f8565b610d5a565b6108f8565b9050919050565b6000819050919050565b610d9983610d64565b610dad610da582610d86565b848454610d08565b825550505050565b600090565b610dc2610db5565b610dcd818484610d90565b505050565b5b81811015610df157610de6600082610dba565b600181019050610dd3565b5050565b601f821115610e3657610e0781610cd6565b610e1084610ceb565b81016020851015610e1f578190505b610e33610e2b85610ceb565b830182610dd2565b50505b505050565b600082821c905092915050565b6000610e5960001984600802610e3b565b1980831691505092915050565b6000610e728383610e48565b9150826002028217905092915050565b610e8b8261095b565b67ffffffffffffffff811115610ea457610ea3610aef565b5b610eae8254610ca5565b610eb9828285610df5565b600060209050601f831160018114610eec5760008415610eda578287015190505b610ee48582610e66565b865550610f4c565b601f198416610efa86610cd6565b60005b82811015610f2257848901518255600182019150602085019450602081019050610efd565b86831015610f3f5784890151610f3b601f891682610e48565b8355505b6001600288020188555050505b505050505050565b7f4e487b7100000000000000000000000000000000000000000000000000000000600052603260045260246000fdfea2646970667358221220b34d4b7e492e14102e90b339d1674dd21cd39cc32a7ca64253c1963abb95a11d64736f6c63430008110033",
  "linkReferences": {},
  "deployedLinkReferences": {}
}