{
  "_format": "hh-sol-artifact-1",
  "contractName": "TestMultiCall",
  "sourceName": "contracts/test_multi_call.sol",
  "abi": [
    {
      "inputs": [
        {
          "internalType": "uint256",
          "name": "_i",
          "type": "uint256"
        }
      ],
      "name": "test",
      "outputs": [
        {
          "internalType": "uint256",
          "name": "",
          "type": "uint256"
        }
      ],
      "stateMutability": "pure",
      "type": "function"
    }
  ],
  "bytecode": "0x608060405234801561001057600080fd5b5061011b806100206000396000f3fe6080604052348015600f57600080fd5b506004361060285760003560e01c806329e99f0714602d575b600080fd5b60436004803603810190603f91906097565b6057565b604051604e919060cc565b60405180910390f35b6000819050919050565b600080fd5b6000819050919050565b6077816066565b8114608157600080fd5b50565b6000813590506091816070565b92915050565b60006020828403121560aa5760a96061565b5b600060b6848285016084565b91505092915050565b60c6816066565b82525050565b600060208201905060df600083018460bf565b9291505056fea2646970667358221220c8dbb02556cf4c38b49eea44a769d5d4175123846581753ab38b84d8a65e085a64736f6c63430008110033",
  "linkReferences": {},
  "deployedLinkReferences": {}
}