{
  "_format": "hh-sol-artifact-1",
  "contractName": "Lottery",
  "sourceName": "contracts/lottery.sol",
  "abi": [
    {
      "inputs": [
        {
          "internalType": "address",
          "name": "randomness_address",
          "type": "address"
        }
      ],
      "stateMutability": "nonpayable",
      "type": "constructor"
    },
    {
      "inputs": [],
      "name": "end_lottery",
      "outputs": [],
      "stateMutability": "nonpayable",
      "type": "function"
    },
    {
      "inputs": [],
      "name": "enter",
      "outputs": [],
      "stateMutability": "payable",
      "type": "function"
    },
    {
      "inputs": [
        {
          "internalType": "uint256",
          "name": "randomness",
          "type": "uint256"
        }
      ],
      "name": "fulfill_random",
      "outputs": [],
      "stateMutability": "nonpayable",
      "type": "function"
    },
    {
      "inputs": [],
      "name": "get_players",
      "outputs": [
        {
          "internalType": "address payable[]",
          "name": "",
          "type": "address[]"
        }
      ],
      "stateMutability": "view",
      "type": "function"
    },
    {
      "inputs": [],
      "name": "get_pot",
      "outputs": [
        {
          "internalType": "uint256",
          "name": "",
          "type": "uint256"
        }
      ],
      "stateMutability": "view",
      "type": "function"
    },
    {
      "inputs": [
        {
          "internalType": "uint256",
          "name": "",
          "type": "uint256"
        }
      ],
      "name": "lotteries",
      "outputs": [
        {
          "internalType": "enum Lottery.LOTTERY_STATE",
          "name": "lottery_state",
          "type": "uint8"
        },
        {
          "internalType": "uint256",
          "name": "minimum",
          "type": "uint256"
        }
      ],
      "stateMutability": "view",
      "type": "function"
    },
    {
      "inputs": [],
      "name": "lotteryId",
      "outputs": [
        {
          "internalType": "uint256",
          "name": "",
          "type": "uint256"
        }
      ],
      "stateMutability": "view",
      "type": "function"
    },
    {
      "inputs": [],
      "name": "owner",
      "outputs": [
        {
          "internalType": "address",
          "name": "",
          "type": "address"
        }
      ],
      "stateMutability": "view",
      "type": "function"
    },
    {
      "inputs": [],
      "name": "randomness_contract",
      "outputs": [
        {
          "internalType": "contract RandomNumberConsumer",
          "name": "",
          "type": "address"
        }
      ],
      "stateMutability": "view",
      "type": "function"
    },
    {
      "inputs": [],
      "name": "start_new_lottery",
      "outputs": [],
      "stateMutability": "nonpayable",
      "type": "function"
    }
  ],
  "bytecode": "0x60806040523480156200001157600080fd5b50604051620014c8380380620014c8833981810160405281019062000037919062000175565b336000806101000a81548173ffffffffffffffffffffffffffffffffffffffff021916908373ffffffffffffffffffffffffffffffffffffffff16021790555080600160006101000a81548173ffffffffffffffffffffffffffffffffffffffff021916908373ffffffffffffffffffffffffffffffffffffffff1602179055506000600381905550600160026000600354815260200190815260200160002060000160006101000a81548160ff02191690836002811115620000ff57620000fe620001a7565b5b021790555050620001d6565b600080fd5b600073ffffffffffffffffffffffffffffffffffffffff82169050919050565b60006200013d8262000110565b9050919050565b6200014f8162000130565b81146200015b57600080fd5b50565b6000815190506200016f8162000144565b92915050565b6000602082840312156200018e576200018d6200010b565b5b60006200019e848285016200015e565b91505092915050565b7f4e487b7100000000000000000000000000000000000000000000000000000000600052602160045260246000fd5b6112e280620001e66000396000f3fe6080604052600436106100915760003560e01c8063c251ebf211610059578063c251ebf21461016c578063d718aea914610195578063e580f47b146101ac578063e7e4552c146101d7578063e97dcb621461020257610091565b80631398e07614610096578063475f3de1146100d457806362c0553f146100eb5780636a7223fc146101165780638da5cb5b14610141575b600080fd5b3480156100a257600080fd5b506100bd60048036038101906100b89190610b47565b61020c565b6040516100cb929190610bfa565b60405180910390f35b3480156100e057600080fd5b506100e961023d565b005b3480156100f757600080fd5b5061010061039a565b60405161010d9190610c23565b60405180910390f35b34801561012257600080fd5b5061012b6103a2565b6040516101389190610cbd565b60405180910390f35b34801561014d57600080fd5b506101566103c8565b6040516101639190610cf9565b60405180910390f35b34801561017857600080fd5b50610193600480360381019061018e9190610b47565b6103ec565b005b3480156101a157600080fd5b506101aa610685565b005b3480156101b857600080fd5b506101c16107fe565b6040516101ce9190610c23565b60405180910390f35b3480156101e357600080fd5b506101ec610804565b6040516101f99190610de4565b60405180910390f35b61020a6108a8565b005b60026020528060005260406000206000915090508060000160009054906101000a900460ff16908060010154905082565b60008054906101000a900473ffffffffffffffffffffffffffffffffffffffff1673ffffffffffffffffffffffffffffffffffffffff163373ffffffffffffffffffffffffffffffffffffffff16146102cb576040517f08c379a00000000000000000000000000000000000000000000000000000000081526004016102c290610e89565b60405180910390fd5b600160028111156102df576102de610b74565b5b60026000600354815260200190815260200160002060000160009054906101000a900460ff16600281111561031757610316610b74565b5b14610357576040517f08c379a000000000000000000000000000000000000000000000000000000000815260040161034e90610ef5565b60405180910390fd5b600060026000600354815260200190815260200160002060000160006101000a81548160ff0219169083600281111561039357610392610b74565b5b0217905550565b600047905090565b600160009054906101000a900473ffffffffffffffffffffffffffffffffffffffff1681565b60008054906101000a900473ffffffffffffffffffffffffffffffffffffffff1681565b6002808111156103ff576103fe610b74565b5b6002600060016003546104129190610f44565b815260200190815260200160002060000160009054906101000a900460ff16600281111561044357610442610b74565b5b14610483576040517f08c379a000000000000000000000000000000000000000000000000000000000815260040161047a90610fc4565b60405180910390fd5b600081116104c6576040517f08c379a00000000000000000000000000000000000000000000000000000000081526004016104bd90611030565b60405180910390fd5b600160009054906101000a900473ffffffffffffffffffffffffffffffffffffffff1673ffffffffffffffffffffffffffffffffffffffff163373ffffffffffffffffffffffffffffffffffffffff1614610556576040517f08c379a000000000000000000000000000000000000000000000000000000000815260040161054d906110c2565b60405180910390fd5b600060026000600160035461056b9190610f44565b8152602001908152602001600020600201805490508261058b9190611111565b90506002600060016003546105a09190610f44565b815260200190815260200160002060020181815481106105c3576105c2611142565b5b9060005260206000200160009054906101000a900473ffffffffffffffffffffffffffffffffffffffff1673ffffffffffffffffffffffffffffffffffffffff166108fc479081150290604051600060405180830381858888f19350505050158015610633573d6000803e3d6000fd5b5060016002600060016003546106499190610f44565b815260200190815260200160002060000160006101000a81548160ff0219169083600281111561067c5761067b610b74565b5b02179055505050565b60008054906101000a900473ffffffffffffffffffffffffffffffffffffffff1673ffffffffffffffffffffffffffffffffffffffff163373ffffffffffffffffffffffffffffffffffffffff1614610713576040517f08c379a000000000000000000000000000000000000000000000000000000000815260040161070a90610e89565b60405180910390fd5b6000600281111561072757610726610b74565b5b60026000600354815260200190815260200160002060000160009054906101000a900460ff16600281111561075f5761075e610b74565b5b1461079f576040517f08c379a0000000000000000000000000000000000000000000000000000000008152600401610796906111bd565b60405180910390fd5b6002806000600354815260200190815260200160002060000160006101000a81548160ff021916908360028111156107da576107d9610b74565b5b021790555060016003546107ee91906111dd565b6003819055506107fc6109d8565b565b60035481565b606060026000600354815260200190815260200160002060020180548060200260200160405190810160405280929190818152602001828054801561089e57602002820191906000526020600020905b8160009054906101000a900473ffffffffffffffffffffffffffffffffffffffff1673ffffffffffffffffffffffffffffffffffffffff1681526020019060010190808311610854575b5050505050905090565b60026000600354815260200190815260200160002060010154341015610903576040517f08c379a00000000000000000000000000000000000000000000000000000000081526004016108fa9061125d565b60405180910390fd5b6000600281111561091757610916610b74565b5b60026000600354815260200190815260200160002060000160009054906101000a900460ff16600281111561094f5761094e610b74565b5b1461095d5761095c61127d565b5b600260006003548152602001908152602001600020600201339080600181540180825580915050600190039060005260206000200160009091909190916101000a81548173ffffffffffffffffffffffffffffffffffffffff021916908373ffffffffffffffffffffffffffffffffffffffff160217905550565b6002808111156109eb576109ea610b74565b5b6002600060016003546109fe9190610f44565b815260200190815260200160002060000160009054906101000a900460ff166002811115610a2f57610a2e610b74565b5b14610a6f576040517f08c379a0000000000000000000000000000000000000000000000000000000008152600401610a6690610fc4565b60405180910390fd5b600160009054906101000a900473ffffffffffffffffffffffffffffffffffffffff1673ffffffffffffffffffffffffffffffffffffffff1663cd4b69146001600354610abc9190610f44565b6040518263ffffffff1660e01b8152600401610ad89190610c23565b600060405180830381600087803b158015610af257600080fd5b505af1158015610b06573d6000803e3d6000fd5b50505050565b600080fd5b6000819050919050565b610b2481610b11565b8114610b2f57600080fd5b50565b600081359050610b4181610b1b565b92915050565b600060208284031215610b5d57610b5c610b0c565b5b6000610b6b84828501610b32565b91505092915050565b7f4e487b7100000000000000000000000000000000000000000000000000000000600052602160045260246000fd5b60038110610bb457610bb3610b74565b5b50565b6000819050610bc582610ba3565b919050565b6000610bd582610bb7565b9050919050565b610be581610bca565b82525050565b610bf481610b11565b82525050565b6000604082019050610c0f6000830185610bdc565b610c1c6020830184610beb565b9392505050565b6000602082019050610c386000830184610beb565b92915050565b600073ffffffffffffffffffffffffffffffffffffffff82169050919050565b6000819050919050565b6000610c83610c7e610c7984610c3e565b610c5e565b610c3e565b9050919050565b6000610c9582610c68565b9050919050565b6000610ca782610c8a565b9050919050565b610cb781610c9c565b82525050565b6000602082019050610cd26000830184610cae565b92915050565b6000610ce382610c3e565b9050919050565b610cf381610cd8565b82525050565b6000602082019050610d0e6000830184610cea565b92915050565b600081519050919050565b600082825260208201905092915050565b6000819050602082019050919050565b6000610d4b82610c3e565b9050919050565b610d5b81610d40565b82525050565b6000610d6d8383610d52565b60208301905092915050565b6000602082019050919050565b6000610d9182610d14565b610d9b8185610d1f565b9350610da683610d30565b8060005b83811015610dd7578151610dbe8882610d61565b9750610dc983610d79565b925050600181019050610daa565b5085935050505092915050565b60006020820190508181036000830152610dfe8184610d86565b905092915050565b600082825260208201905092915050565b7f4f6e6c79206f776e65722063616e2063616c6c20746869732066756e6374696f60008201527f6e2e000000000000000000000000000000000000000000000000000000000000602082015250565b6000610e73602283610e06565b9150610e7e82610e17565b604082019050919050565b60006020820190508181036000830152610ea281610e66565b9050919050565b7f63616e27742073746172742061206e6577206c6f747465727920796574000000600082015250565b6000610edf601d83610e06565b9150610eea82610ea9565b602082019050919050565b60006020820190508181036000830152610f0e81610ed2565b9050919050565b7f4e487b7100000000000000000000000000000000000000000000000000000000600052601160045260246000fd5b6000610f4f82610b11565b9150610f5a83610b11565b9250828203905081811115610f7257610f71610f15565b5b92915050565b7f596f75206172656e277420617420746861742073746167652079657421000000600082015250565b6000610fae601d83610e06565b9150610fb982610f78565b602082019050919050565b60006020820190508181036000830152610fdd81610fa1565b9050919050565b7f72616e646f6d2d6e6f742d666f756e6400000000000000000000000000000000600082015250565b600061101a601083610e06565b915061102582610fe4565b602082019050919050565b600060208201905081810360008301526110498161100d565b9050919050565b7f43616c6c206e6f7420636f6d696e672066726f6d2072616e646f6d6e6573732060008201527f636f6e7472616374000000000000000000000000000000000000000000000000602082015250565b60006110ac602883610e06565b91506110b782611050565b604082019050919050565b600060208201905081810360008301526110db8161109f565b9050919050565b7f4e487b7100000000000000000000000000000000000000000000000000000000600052601260045260246000fd5b600061111c82610b11565b915061112783610b11565b925082611137576111366110e2565b5b828206905092915050565b7f4e487b7100000000000000000000000000000000000000000000000000000000600052603260045260246000fd5b7f546865206c6f7474657279206861736e2774206576656e207374617274656421600082015250565b60006111a7602083610e06565b91506111b282611171565b602082019050919050565b600060208201905081810360008301526111d68161119a565b9050919050565b60006111e882610b11565b91506111f383610b11565b925082820190508082111561120b5761120a610f15565b5b92915050565b7f4e6f7420656e6f7567682046544d2073656e7400000000000000000000000000600082015250565b6000611247601383610e06565b915061125282611211565b602082019050919050565b600060208201905081810360008301526112768161123a565b9050919050565b7f4e487b7100000000000000000000000000000000000000000000000000000000600052600160045260246000fdfea2646970667358221220d0329a3e862ff08f499ac82e203ed21d1c80761125a5a31e22ee52bb77d91d0664736f6c63430008110033",
  "linkReferences": {},
  "deployedLinkReferences": {}
}