{
  "_format": "hh-sol-artifact-1",
  "contractName": "Lottery",
  "sourceName": "contracts/lottery.sol",
  "abi": [
    {
      "inputs": [
        {
          "internalType": "address",
          "name": "randomness_address",
          "type": "address"
        }
      ],
      "stateMutability": "nonpayable",
      "type": "constructor"
    },
    {
      "anonymous": false,
      "inputs": [
        {
          "indexed": false,
          "internalType": "uint256",
          "name": "lotteryId",
          "type": "uint256"
        }
      ],
      "name": "LotteryEnded",
      "type": "event"
    },
    {
      "anonymous": false,
      "inputs": [
        {
          "indexed": false,
          "internalType": "uint256",
          "name": "lotteryId",
          "type": "uint256"
        },
        {
          "indexed": false,
          "internalType": "address",
          "name": "player",
          "type": "address"
        }
      ],
      "name": "LotteryEntered",
      "type": "event"
    },
    {
      "anonymous": false,
      "inputs": [
        {
          "indexed": false,
          "internalType": "uint256",
          "name": "lotteryId",
          "type": "uint256"
        },
        {
          "indexed": false,
          "internalType": "uint256",
          "name": "ticket_price",
          "type": "uint256"
        }
      ],
      "name": "LotteryStarted",
      "type": "event"
    },
    {
      "anonymous": false,
      "inputs": [
        {
          "indexed": false,
          "internalType": "uint256",
          "name": "lotteryId",
          "type": "uint256"
        },
        {
          "indexed": false,
          "internalType": "address",
          "name": "winner",
          "type": "address"
        }
      ],
      "name": "LotteryWinner",
      "type": "event"
    },
    {
      "inputs": [],
      "name": "end_lottery",
      "outputs": [],
      "stateMutability": "nonpayable",
      "type": "function"
    },
    {
      "inputs": [],
      "name": "enter",
      "outputs": [],
      "stateMutability": "payable",
      "type": "function"
    },
    {
      "inputs": [
        {
          "internalType": "uint256",
          "name": "randomness",
          "type": "uint256"
        }
      ],
      "name": "fulfill_random",
      "outputs": [],
      "stateMutability": "nonpayable",
      "type": "function"
    },
    {
      "inputs": [],
      "name": "get_players",
      "outputs": [
        {
          "internalType": "address payable[]",
          "name": "",
          "type": "address[]"
        }
      ],
      "stateMutability": "view",
      "type": "function"
    },
    {
      "inputs": [],
      "name": "get_pot",
      "outputs": [
        {
          "internalType": "uint256",
          "name": "",
          "type": "uint256"
        }
      ],
      "stateMutability": "view",
      "type": "function"
    },
    {
      "inputs": [
        {
          "internalType": "uint256",
          "name": "",
          "type": "uint256"
        }
      ],
      "name": "lotteries",
      "outputs": [
        {
          "internalType": "enum Lottery.LOTTERY_STATE",
          "name": "lottery_state",
          "type": "uint8"
        },
        {
          "internalType": "uint256",
          "name": "ticket_price",
          "type": "uint256"
        }
      ],
      "stateMutability": "view",
      "type": "function"
    },
    {
      "inputs": [],
      "name": "lotteryId",
      "outputs": [
        {
          "internalType": "uint256",
          "name": "",
          "type": "uint256"
        }
      ],
      "stateMutability": "view",
      "type": "function"
    },
    {
      "inputs": [],
      "name": "owner",
      "outputs": [
        {
          "internalType": "address",
          "name": "",
          "type": "address"
        }
      ],
      "stateMutability": "view",
      "type": "function"
    },
    {
      "inputs": [],
      "name": "randomness_contract",
      "outputs": [
        {
          "internalType": "contract RandomNumberConsumer",
          "name": "",
          "type": "address"
        }
      ],
      "stateMutability": "view",
      "type": "function"
    },
    {
      "inputs": [
        {
          "internalType": "uint256",
          "name": "_ticket_price",
          "type": "uint256"
        }
      ],
      "name": "start_new_lottery",
      "outputs": [],
      "stateMutability": "nonpayable",
      "type": "function"
    }
  ],
  "bytecode": "0x60806040523480156200001157600080fd5b506040516200162438038062001624833981810160405281019062000037919062000175565b336000806101000a81548173ffffffffffffffffffffffffffffffffffffffff021916908373ffffffffffffffffffffffffffffffffffffffff16021790555080600160006101000a81548173ffffffffffffffffffffffffffffffffffffffff021916908373ffffffffffffffffffffffffffffffffffffffff1602179055506000600381905550600160026000600354815260200190815260200160002060000160006101000a81548160ff02191690836002811115620000ff57620000fe620001a7565b5b021790555050620001d6565b600080fd5b600073ffffffffffffffffffffffffffffffffffffffff82169050919050565b60006200013d8262000110565b9050919050565b6200014f8162000130565b81146200015b57600080fd5b50565b6000815190506200016f8162000144565b92915050565b6000602082840312156200018e576200018d6200010b565b5b60006200019e848285016200015e565b91505092915050565b7f4e487b7100000000000000000000000000000000000000000000000000000000600052602160045260246000fd5b61143e80620001e66000396000f3fe6080604052600436106100915760003560e01c8063d0b82d7711610059578063d0b82d771461017e578063d718aea9146101a7578063e580f47b146101be578063e7e4552c146101e9578063e97dcb621461021457610091565b80631398e0761461009657806362c0553f146100d45780636a7223fc146100ff5780638da5cb5b1461012a578063c251ebf214610155575b600080fd5b3480156100a257600080fd5b506100bd60048036038101906100b89190610c10565b61021e565b6040516100cb929190610cc3565b60405180910390f35b3480156100e057600080fd5b506100e961024f565b6040516100f69190610cec565b60405180910390f35b34801561010b57600080fd5b50610114610257565b6040516101219190610d86565b60405180910390f35b34801561013657600080fd5b5061013f61027d565b60405161014c9190610dc2565b60405180910390f35b34801561016157600080fd5b5061017c60048036038101906101779190610c10565b6102a1565b005b34801561018a57600080fd5b506101a560048036038101906101a09190610c10565b6105a1565b005b3480156101b357600080fd5b506101bc610757565b005b3480156101ca57600080fd5b506101d361098f565b6040516101e09190610cec565b60405180910390f35b3480156101f557600080fd5b506101fe610995565b60405161020b9190610ead565b60405180910390f35b61021c610a39565b005b60026020528060005260406000206000915090508060000160009054906101000a900460ff16908060010154905082565b600047905090565b600160009054906101000a900473ffffffffffffffffffffffffffffffffffffffff1681565b60008054906101000a900473ffffffffffffffffffffffffffffffffffffffff1681565b600060016003546102b29190610efe565b90506002808111156102c7576102c6610c3d565b5b6002600083815260200190815260200160002060000160009054906101000a900460ff1660028111156102fd576102fc610c3d565b5b1461033d576040517f08c379a000000000000000000000000000000000000000000000000000000000815260040161033490610f8f565b60405180910390fd5b60008211610380576040517f08c379a000000000000000000000000000000000000000000000000000000000815260040161037790610ffb565b60405180910390fd5b600160009054906101000a900473ffffffffffffffffffffffffffffffffffffffff1673ffffffffffffffffffffffffffffffffffffffff163373ffffffffffffffffffffffffffffffffffffffff1614610410576040517f08c379a00000000000000000000000000000000000000000000000000000000081526004016104079061108d565b60405180910390fd5b600060026000838152602001908152602001600020600201805490508361043791906110dc565b90506002600083815260200190815260200160002060020181815481106104615761046061110d565b5b9060005260206000200160009054906101000a900473ffffffffffffffffffffffffffffffffffffffff1673ffffffffffffffffffffffffffffffffffffffff166108fc479081150290604051600060405180830381858888f193505050501580156104d1573d6000803e3d6000fd5b5060016002600084815260200190815260200160002060000160006101000a81548160ff0219169083600281111561050c5761050b610c3d565b5b02179055507fe889741f811e43708e11c26f71911284b5b2fe112108a2f7c945229286192a948260026000858152602001908152602001600020600201838154811061055b5761055a61110d565b5b9060005260206000200160009054906101000a900473ffffffffffffffffffffffffffffffffffffffff1660405161059492919061115d565b60405180910390a1505050565b60008054906101000a900473ffffffffffffffffffffffffffffffffffffffff1673ffffffffffffffffffffffffffffffffffffffff163373ffffffffffffffffffffffffffffffffffffffff161461062f576040517f08c379a0000000000000000000000000000000000000000000000000000000008152600401610626906111f8565b60405180910390fd5b6001600281111561064357610642610c3d565b5b60026000600354815260200190815260200160002060000160009054906101000a900460ff16600281111561067b5761067a610c3d565b5b146106bb576040517f08c379a00000000000000000000000000000000000000000000000000000000081526004016106b290611264565b60405180910390fd5b8060026000600354815260200190815260200160002060010181905550600060026000600354815260200190815260200160002060000160006101000a81548160ff0219169083600281111561071457610713610c3d565b5b02179055507f42da29f4f7ae27bdc650322fcbe8b195ca17a63b0ae83b04577efe0e3e079c0c6003548260405161074c929190611284565b60405180910390a150565b60008054906101000a900473ffffffffffffffffffffffffffffffffffffffff1673ffffffffffffffffffffffffffffffffffffffff163373ffffffffffffffffffffffffffffffffffffffff16146107e5576040517f08c379a00000000000000000000000000000000000000000000000000000000081526004016107dc906111f8565b60405180910390fd5b600060028111156107f9576107f8610c3d565b5b60026000600354815260200190815260200160002060000160009054906101000a900460ff16600281111561083157610830610c3d565b5b14610871576040517f08c379a0000000000000000000000000000000000000000000000000000000008152600401610868906112f9565b60405180910390fd5b6002806000600354815260200190815260200160002060000160006101000a81548160ff021916908360028111156108ac576108ab610c3d565b5b0217905550600160009054906101000a900473ffffffffffffffffffffffffffffffffffffffff1673ffffffffffffffffffffffffffffffffffffffff1663aacc5a176040518163ffffffff1660e01b8152600401600060405180830381600087803b15801561091b57600080fd5b505af115801561092f573d6000803e3d6000fd5b5050505060016003546109429190611319565b6003819055507fe28742282056724e602056f6aa9ca3b96df0f2aaced985aacac5b0a789a40a1d60016003546109789190610efe565b6040516109859190610cec565b60405180910390a1565b60035481565b6060600260006003548152602001908152602001600020600201805480602002602001604051908101604052809291908181526020018280548015610a2f57602002820191906000526020600020905b8160009054906101000a900473ffffffffffffffffffffffffffffffffffffffff1673ffffffffffffffffffffffffffffffffffffffff16815260200190600101908083116109e5575b5050505050905090565b600260006003548152602001908152602001600020600101543414610a93576040517f08c379a0000000000000000000000000000000000000000000000000000000008152600401610a8a906113bf565b60405180910390fd5b60006002811115610aa757610aa6610c3d565b5b60026000600354815260200190815260200160002060000160009054906101000a900460ff166002811115610adf57610ade610c3d565b5b14610b1f576040517f08c379a0000000000000000000000000000000000000000000000000000000008152600401610b16906112f9565b60405180910390fd5b600260006003548152602001908152602001600020600201339080600181540180825580915050600190039060005260206000200160009091909190916101000a81548173ffffffffffffffffffffffffffffffffffffffff021916908373ffffffffffffffffffffffffffffffffffffffff1602179055507fa251449cc9691898deea9085824eb7ba32ab8f4ce6b3fdfd4ad8a4daf6131c8960035433604051610bcb9291906113df565b60405180910390a1565b600080fd5b6000819050919050565b610bed81610bda565b8114610bf857600080fd5b50565b600081359050610c0a81610be4565b92915050565b600060208284031215610c2657610c25610bd5565b5b6000610c3484828501610bfb565b91505092915050565b7f4e487b7100000000000000000000000000000000000000000000000000000000600052602160045260246000fd5b60038110610c7d57610c7c610c3d565b5b50565b6000819050610c8e82610c6c565b919050565b6000610c9e82610c80565b9050919050565b610cae81610c93565b82525050565b610cbd81610bda565b82525050565b6000604082019050610cd86000830185610ca5565b610ce56020830184610cb4565b9392505050565b6000602082019050610d016000830184610cb4565b92915050565b600073ffffffffffffffffffffffffffffffffffffffff82169050919050565b6000819050919050565b6000610d4c610d47610d4284610d07565b610d27565b610d07565b9050919050565b6000610d5e82610d31565b9050919050565b6000610d7082610d53565b9050919050565b610d8081610d65565b82525050565b6000602082019050610d9b6000830184610d77565b92915050565b6000610dac82610d07565b9050919050565b610dbc81610da1565b82525050565b6000602082019050610dd76000830184610db3565b92915050565b600081519050919050565b600082825260208201905092915050565b6000819050602082019050919050565b6000610e1482610d07565b9050919050565b610e2481610e09565b82525050565b6000610e368383610e1b565b60208301905092915050565b6000602082019050919050565b6000610e5a82610ddd565b610e648185610de8565b9350610e6f83610df9565b8060005b83811015610ea0578151610e878882610e2a565b9750610e9283610e42565b925050600181019050610e73565b5085935050505092915050565b60006020820190508181036000830152610ec78184610e4f565b905092915050565b7f4e487b7100000000000000000000000000000000000000000000000000000000600052601160045260246000fd5b6000610f0982610bda565b9150610f1483610bda565b9250828203905081811115610f2c57610f2b610ecf565b5b92915050565b600082825260208201905092915050565b7f596f75206172656e277420617420746861742073746167652079657421000000600082015250565b6000610f79601d83610f32565b9150610f8482610f43565b602082019050919050565b60006020820190508181036000830152610fa881610f6c565b9050919050565b7f72616e646f6d2d6e6f742d666f756e6400000000000000000000000000000000600082015250565b6000610fe5601083610f32565b9150610ff082610faf565b602082019050919050565b6000602082019050818103600083015261101481610fd8565b9050919050565b7f43616c6c206e6f7420636f6d696e672066726f6d2072616e646f6d6e6573732060008201527f636f6e7472616374000000000000000000000000000000000000000000000000602082015250565b6000611077602883610f32565b91506110828261101b565b604082019050919050565b600060208201905081810360008301526110a68161106a565b9050919050565b7f4e487b7100000000000000000000000000000000000000000000000000000000600052601260045260246000fd5b60006110e782610bda565b91506110f283610bda565b925082611102576111016110ad565b5b828206905092915050565b7f4e487b7100000000000000000000000000000000000000000000000000000000600052603260045260246000fd5b600061114782610d53565b9050919050565b6111578161113c565b82525050565b60006040820190506111726000830185610cb4565b61117f602083018461114e565b9392505050565b7f4f6e6c79206f776e65722063616e2063616c6c20746869732066756e6374696f60008201527f6e2e000000000000000000000000000000000000000000000000000000000000602082015250565b60006111e2602283610f32565b91506111ed82611186565b604082019050919050565b60006020820190508181036000830152611211816111d5565b9050919050565b7f63616e27742073746172742061206e6577206c6f747465727920796574000000600082015250565b600061124e601d83610f32565b915061125982611218565b602082019050919050565b6000602082019050818103600083015261127d81611241565b9050919050565b60006040820190506112996000830185610cb4565b6112a66020830184610cb4565b9392505050565b7f546865206c6f7474657279206861736e2774206576656e207374617274656421600082015250565b60006112e3602083610f32565b91506112ee826112ad565b602082019050919050565b60006020820190508181036000830152611312816112d6565b9050919050565b600061132482610bda565b915061132f83610bda565b925082820190508082111561134757611346610ecf565b5b92915050565b7f57726f6e672070726963652c20636865636b20746865207469636b657420707260008201527f6963650000000000000000000000000000000000000000000000000000000000602082015250565b60006113a9602383610f32565b91506113b48261134d565b604082019050919050565b600060208201905081810360008301526113d88161139c565b9050919050565b60006040820190506113f46000830185610cb4565b6114016020830184610db3565b939250505056fea2646970667358221220091e49c26180a1f893c53665fa83626e62c83645d4ba4105fad710210068fa6164736f6c63430008110033",
  "linkReferences": {},
  "deployedLinkReferences": {}
}