{
  "_format": "hh-sol-artifact-1",
  "contractName": "Lottery",
  "sourceName": "contracts/lottery.sol",
  "abi": [
    {
      "inputs": [
        {
          "internalType": "address",
          "name": "randomness_address",
          "type": "address"
        }
      ],
      "stateMutability": "nonpayable",
      "type": "constructor"
    },
    {
      "inputs": [],
      "name": "end_lottery",
      "outputs": [],
      "stateMutability": "nonpayable",
      "type": "function"
    },
    {
      "inputs": [],
      "name": "enter",
      "outputs": [],
      "stateMutability": "payable",
      "type": "function"
    },
    {
      "inputs": [
        {
          "internalType": "uint256",
          "name": "randomness",
          "type": "uint256"
        }
      ],
      "name": "fulfill_random",
      "outputs": [],
      "stateMutability": "nonpayable",
      "type": "function"
    },
    {
      "inputs": [],
      "name": "get_players",
      "outputs": [
        {
          "internalType": "address payable[]",
          "name": "",
          "type": "address[]"
        }
      ],
      "stateMutability": "view",
      "type": "function"
    },
    {
      "inputs": [],
      "name": "get_pot",
      "outputs": [
        {
          "internalType": "uint256",
          "name": "",
          "type": "uint256"
        }
      ],
      "stateMutability": "view",
      "type": "function"
    },
    {
      "inputs": [
        {
          "internalType": "uint256",
          "name": "",
          "type": "uint256"
        }
      ],
      "name": "lotteries",
      "outputs": [
        {
          "internalType": "enum Lottery.LOTTERY_STATE",
          "name": "lottery_state",
          "type": "uint8"
        },
        {
          "internalType": "uint256",
          "name": "minimum",
          "type": "uint256"
        }
      ],
      "stateMutability": "view",
      "type": "function"
    },
    {
      "inputs": [],
      "name": "lotteryId",
      "outputs": [
        {
          "internalType": "uint256",
          "name": "",
          "type": "uint256"
        }
      ],
      "stateMutability": "view",
      "type": "function"
    },
    {
      "inputs": [],
      "name": "owner",
      "outputs": [
        {
          "internalType": "address",
          "name": "",
          "type": "address"
        }
      ],
      "stateMutability": "view",
      "type": "function"
    },
    {
      "inputs": [],
      "name": "randomness_contract",
      "outputs": [
        {
          "internalType": "contract RandomNumberConsumer",
          "name": "",
          "type": "address"
        }
      ],
      "stateMutability": "view",
      "type": "function"
    },
    {
      "inputs": [],
      "name": "start_new_lottery",
      "outputs": [],
      "stateMutability": "nonpayable",
      "type": "function"
    }
  ],
  "bytecode": "0x60806040523480156200001157600080fd5b506040516200144c3803806200144c833981810160405281019062000037919062000175565b336000806101000a81548173ffffffffffffffffffffffffffffffffffffffff021916908373ffffffffffffffffffffffffffffffffffffffff16021790555080600160006101000a81548173ffffffffffffffffffffffffffffffffffffffff021916908373ffffffffffffffffffffffffffffffffffffffff1602179055506000600381905550600160026000600354815260200190815260200160002060000160006101000a81548160ff02191690836002811115620000ff57620000fe620001a7565b5b021790555050620001d6565b600080fd5b600073ffffffffffffffffffffffffffffffffffffffff82169050919050565b60006200013d8262000110565b9050919050565b6200014f8162000130565b81146200015b57600080fd5b50565b6000815190506200016f8162000144565b92915050565b6000602082840312156200018e576200018d6200010b565b5b60006200019e848285016200015e565b91505092915050565b7f4e487b7100000000000000000000000000000000000000000000000000000000600052602160045260246000fd5b61126680620001e66000396000f3fe6080604052600436106100915760003560e01c8063c251ebf211610059578063c251ebf21461016c578063d718aea914610195578063e580f47b146101ac578063e7e4552c146101d7578063e97dcb621461020257610091565b80631398e07614610096578063475f3de1146100d457806362c0553f146100eb5780636a7223fc146101165780638da5cb5b14610141575b600080fd5b3480156100a257600080fd5b506100bd60048036038101906100b89190610aff565b61020c565b6040516100cb929190610bb2565b60405180910390f35b3480156100e057600080fd5b506100e961023d565b005b3480156100f757600080fd5b5061010061039a565b60405161010d9190610bdb565b60405180910390f35b34801561012257600080fd5b5061012b6103a2565b6040516101389190610c75565b60405180910390f35b34801561014d57600080fd5b506101566103c8565b6040516101639190610cb1565b60405180910390f35b34801561017857600080fd5b50610193600480360381019061018e9190610aff565b6103ec565b005b3480156101a157600080fd5b506101aa610655565b005b3480156101b857600080fd5b506101c16107ce565b6040516101ce9190610bdb565b60405180910390f35b3480156101e357600080fd5b506101ec6107d4565b6040516101f99190610d9c565b60405180910390f35b61020a610878565b005b60026020528060005260406000206000915090508060000160009054906101000a900460ff16908060010154905082565b60008054906101000a900473ffffffffffffffffffffffffffffffffffffffff1673ffffffffffffffffffffffffffffffffffffffff163373ffffffffffffffffffffffffffffffffffffffff16146102cb576040517f08c379a00000000000000000000000000000000000000000000000000000000081526004016102c290610e41565b60405180910390fd5b600160028111156102df576102de610b2c565b5b60026000600354815260200190815260200160002060000160009054906101000a900460ff16600281111561031757610316610b2c565b5b14610357576040517f08c379a000000000000000000000000000000000000000000000000000000000815260040161034e90610ead565b60405180910390fd5b600060026000600354815260200190815260200160002060000160006101000a81548160ff0219169083600281111561039357610392610b2c565b5b0217905550565b600047905090565b600160009054906101000a900473ffffffffffffffffffffffffffffffffffffffff1681565b60008054906101000a900473ffffffffffffffffffffffffffffffffffffffff1681565b6002808111156103ff576103fe610b2c565b5b60026000600354815260200190815260200160002060000160009054906101000a900460ff16600281111561043757610436610b2c565b5b14610477576040517f08c379a000000000000000000000000000000000000000000000000000000000815260040161046e90610f19565b60405180910390fd5b600081116104ba576040517f08c379a00000000000000000000000000000000000000000000000000000000081526004016104b190610f85565b60405180910390fd5b600160009054906101000a900473ffffffffffffffffffffffffffffffffffffffff1673ffffffffffffffffffffffffffffffffffffffff163373ffffffffffffffffffffffffffffffffffffffff161461054a576040517f08c379a000000000000000000000000000000000000000000000000000000000815260040161054190611017565b60405180910390fd5b600060026000600354815260200190815260200160002060020180549050826105739190611066565b9050600260006003548152602001908152602001600020600201818154811061059f5761059e611097565b5b9060005260206000200160009054906101000a900473ffffffffffffffffffffffffffffffffffffffff1673ffffffffffffffffffffffffffffffffffffffff166108fc479081150290604051600060405180830381858888f1935050505015801561060f573d6000803e3d6000fd5b50600160026000600354815260200190815260200160002060000160006101000a81548160ff0219169083600281111561064c5761064b610b2c565b5b02179055505050565b60008054906101000a900473ffffffffffffffffffffffffffffffffffffffff1673ffffffffffffffffffffffffffffffffffffffff163373ffffffffffffffffffffffffffffffffffffffff16146106e3576040517f08c379a00000000000000000000000000000000000000000000000000000000081526004016106da90610e41565b60405180910390fd5b600060028111156106f7576106f6610b2c565b5b60026000600354815260200190815260200160002060000160009054906101000a900460ff16600281111561072f5761072e610b2c565b5b1461076f576040517f08c379a000000000000000000000000000000000000000000000000000000000815260040161076690611112565b60405180910390fd5b6002806000600354815260200190815260200160002060000160006101000a81548160ff021916908360028111156107aa576107a9610b2c565b5b021790555060016003546107be9190611161565b6003819055506107cc6109a8565b565b60035481565b606060026000600354815260200190815260200160002060020180548060200260200160405190810160405280929190818152602001828054801561086e57602002820191906000526020600020905b8160009054906101000a900473ffffffffffffffffffffffffffffffffffffffff1673ffffffffffffffffffffffffffffffffffffffff1681526020019060010190808311610824575b5050505050905090565b600260006003548152602001908152602001600020600101543410156108d3576040517f08c379a00000000000000000000000000000000000000000000000000000000081526004016108ca906111e1565b60405180910390fd5b600060028111156108e7576108e6610b2c565b5b60026000600354815260200190815260200160002060000160009054906101000a900460ff16600281111561091f5761091e610b2c565b5b1461092d5761092c611201565b5b600260006003548152602001908152602001600020600201339080600181540180825580915050600190039060005260206000200160009091909190916101000a81548173ffffffffffffffffffffffffffffffffffffffff021916908373ffffffffffffffffffffffffffffffffffffffff160217905550565b6002808111156109bb576109ba610b2c565b5b60026000600354815260200190815260200160002060000160009054906101000a900460ff1660028111156109f3576109f2610b2c565b5b14610a33576040517f08c379a0000000000000000000000000000000000000000000000000000000008152600401610a2a90610f19565b60405180910390fd5b600160009054906101000a900473ffffffffffffffffffffffffffffffffffffffff1673ffffffffffffffffffffffffffffffffffffffff1663cd4b69146003546040518263ffffffff1660e01b8152600401610a909190610bdb565b600060405180830381600087803b158015610aaa57600080fd5b505af1158015610abe573d6000803e3d6000fd5b50505050565b600080fd5b6000819050919050565b610adc81610ac9565b8114610ae757600080fd5b50565b600081359050610af981610ad3565b92915050565b600060208284031215610b1557610b14610ac4565b5b6000610b2384828501610aea565b91505092915050565b7f4e487b7100000000000000000000000000000000000000000000000000000000600052602160045260246000fd5b60038110610b6c57610b6b610b2c565b5b50565b6000819050610b7d82610b5b565b919050565b6000610b8d82610b6f565b9050919050565b610b9d81610b82565b82525050565b610bac81610ac9565b82525050565b6000604082019050610bc76000830185610b94565b610bd46020830184610ba3565b9392505050565b6000602082019050610bf06000830184610ba3565b92915050565b600073ffffffffffffffffffffffffffffffffffffffff82169050919050565b6000819050919050565b6000610c3b610c36610c3184610bf6565b610c16565b610bf6565b9050919050565b6000610c4d82610c20565b9050919050565b6000610c5f82610c42565b9050919050565b610c6f81610c54565b82525050565b6000602082019050610c8a6000830184610c66565b92915050565b6000610c9b82610bf6565b9050919050565b610cab81610c90565b82525050565b6000602082019050610cc66000830184610ca2565b92915050565b600081519050919050565b600082825260208201905092915050565b6000819050602082019050919050565b6000610d0382610bf6565b9050919050565b610d1381610cf8565b82525050565b6000610d258383610d0a565b60208301905092915050565b6000602082019050919050565b6000610d4982610ccc565b610d538185610cd7565b9350610d5e83610ce8565b8060005b83811015610d8f578151610d768882610d19565b9750610d8183610d31565b925050600181019050610d62565b5085935050505092915050565b60006020820190508181036000830152610db68184610d3e565b905092915050565b600082825260208201905092915050565b7f4f6e6c79206f776e65722063616e2063616c6c20746869732066756e6374696f60008201527f6e2e000000000000000000000000000000000000000000000000000000000000602082015250565b6000610e2b602283610dbe565b9150610e3682610dcf565b604082019050919050565b60006020820190508181036000830152610e5a81610e1e565b9050919050565b7f63616e27742073746172742061206e6577206c6f747465727920796574000000600082015250565b6000610e97601d83610dbe565b9150610ea282610e61565b602082019050919050565b60006020820190508181036000830152610ec681610e8a565b9050919050565b7f596f75206172656e277420617420746861742073746167652079657421000000600082015250565b6000610f03601d83610dbe565b9150610f0e82610ecd565b602082019050919050565b60006020820190508181036000830152610f3281610ef6565b9050919050565b7f72616e646f6d2d6e6f742d666f756e6400000000000000000000000000000000600082015250565b6000610f6f601083610dbe565b9150610f7a82610f39565b602082019050919050565b60006020820190508181036000830152610f9e81610f62565b9050919050565b7f43616c6c206e6f7420636f6d696e672066726f6d2072616e646f6d6e6573732060008201527f636f6e7472616374000000000000000000000000000000000000000000000000602082015250565b6000611001602883610dbe565b915061100c82610fa5565b604082019050919050565b6000602082019050818103600083015261103081610ff4565b9050919050565b7f4e487b7100000000000000000000000000000000000000000000000000000000600052601260045260246000fd5b600061107182610ac9565b915061107c83610ac9565b92508261108c5761108b611037565b5b828206905092915050565b7f4e487b7100000000000000000000000000000000000000000000000000000000600052603260045260246000fd5b7f546865206c6f7474657279206861736e2774206576656e207374617274656421600082015250565b60006110fc602083610dbe565b9150611107826110c6565b602082019050919050565b6000602082019050818103600083015261112b816110ef565b9050919050565b7f4e487b7100000000000000000000000000000000000000000000000000000000600052601160045260246000fd5b600061116c82610ac9565b915061117783610ac9565b925082820190508082111561118f5761118e611132565b5b92915050565b7f4e6f7420656e6f7567682046544d2073656e7400000000000000000000000000600082015250565b60006111cb601383610dbe565b91506111d682611195565b602082019050919050565b600060208201905081810360008301526111fa816111be565b9050919050565b7f4e487b7100000000000000000000000000000000000000000000000000000000600052600160045260246000fdfea2646970667358221220a8fb88a88082aa47bd9d4c6914750e162db9b1238134f61b01ec4d6862466ae364736f6c63430008110033",
  "linkReferences": {},
  "deployedLinkReferences": {}
}