{"contracts/BuggyProxy.sol":{"BuggyProxy":{"abi":[{"inputs":[],"stateMutability":"nonpayable","type":"constructor"},{"stateMutability":"payable","type":"fallback"},{"inputs":[],"name":"admin","outputs":[{"internalType":"address","name":"","type":"address"}],"stateMutability":"view","type":"function"},{"inputs":[],"name":"implementation","outputs":[{"internalType":"address","name":"","type":"address"}],"stateMutability":"view","type":"function"},{"inputs":[{"internalType":"address","name":"_implementation","type":"address"}],"name":"upgradeTo","outputs":[],"stateMutability":"nonpayable","type":"function"},{"stateMutability":"payable","type":"receive"}],"evm":{"bytecode":{"linkReferences":{},"object":"608060405234801561001057600080fd5b5033600160006101000a81548173ffffffffffffffffffffffffffffffffffffffff021916908373ffffffffffffffffffffffffffffffffffffffff1602179055506104f8806100616000396000f3fe6080604052600436106100385760003560e01c80633659cfe6146100515780635c60da1b1461007a578063f851a440146100a557610047565b36610047576100456100d0565b005b61004f6100d0565b005b34801561005d57600080fd5b506100786004803603810190610073919061032a565b6101aa565b005b34801561008657600080fd5b5061008f61027d565b60405161009c9190610366565b60405180910390f35b3480156100b157600080fd5b506100ba6102a1565b6040516100c79190610366565b60405180910390f35b606060008060008054906101000a900473ffffffffffffffffffffffffffffffffffffffff1673ffffffffffffffffffffffffffffffffffffffff1660003660405161011d9291906103c0565b600060405180830381855af49150503d8060008114610158576040519150601f19603f3d011682016040523d82523d6000602084013e61015d565b606091505b5091509150816101a2576040517f08c379a000000000000000000000000000000000000000000000000000000000815260040161019990610436565b60405180910390fd5b809250505090565b600160009054906101000a900473ffffffffffffffffffffffffffffffffffffffff1673ffffffffffffffffffffffffffffffffffffffff163373ffffffffffffffffffffffffffffffffffffffff161461023a576040517f08c379a0000000000000000000000000000000000000000000000000000000008152600401610231906104a2565b60405180910390fd5b806000806101000a81548173ffffffffffffffffffffffffffffffffffffffff021916908373ffffffffffffffffffffffffffffffffffffffff16021790555050565b60008054906101000a900473ffffffffffffffffffffffffffffffffffffffff1681565b600160009054906101000a900473ffffffffffffffffffffffffffffffffffffffff1681565b600080fd5b600073ffffffffffffffffffffffffffffffffffffffff82169050919050565b60006102f7826102cc565b9050919050565b610307816102ec565b811461031257600080fd5b50565b600081359050610324816102fe565b92915050565b6000602082840312156103405761033f6102c7565b5b600061034e84828501610315565b91505092915050565b610360816102ec565b82525050565b600060208201905061037b6000830184610357565b92915050565b600081905092915050565b82818337600083830152505050565b60006103a78385610381565b93506103b483858461038c565b82840190509392505050565b60006103cd82848661039b565b91508190509392505050565b600082825260208201905092915050565b7f64656c656761746563616c6c206661696c656400000000000000000000000000600082015250565b60006104206013836103d9565b915061042b826103ea565b602082019050919050565b6000602082019050818103600083015261044f81610413565b9050919050565b7f6e6f7420617574686f72697a6564000000000000000000000000000000000000600082015250565b600061048c600e836103d9565b915061049782610456565b602082019050919050565b600060208201905081810360008301526104bb8161047f565b905091905056fea26469706673582212209eb1f7d532899f810c445ac0a240a251f1b42cf31aadf430cdd3e4d30b9c56d764736f6c63430008110033","opcodes":"PUSH1 0x80 PUSH1 0x40 MSTORE CALLVALUE DUP1 ISZERO PUSH2 0x10 JUMPI PUSH1 0x0 DUP1 REVERT JUMPDEST POP CALLER PUSH1 0x1 PUSH1 0x0 PUSH2 0x100 EXP DUP2 SLOAD DUP2 PUSH20 0xFFFFFFFFFFFFFFFFFFFFFFFFFFFFFFFFFFFFFFFF MUL NOT AND SWAP1 DUP4 PUSH20 0xFFFFFFFFFFFFFFFFFFFFFFFFFFFFFFFFFFFFFFFF AND MUL OR SWAP1 SSTORE POP PUSH2 0x4F8 DUP1 PUSH2 0x61 PUSH1 0x0 CODECOPY PUSH1 0x0 RETURN INVALID PUSH1 0x80 PUSH1 0x40 MSTORE PUSH1 0x4 CALLDATASIZE LT PUSH2 0x38 JUMPI PUSH1 0x0 CALLDATALOAD PUSH1 0xE0 SHR DUP1 PUSH4 0x3659CFE6 EQ PUSH2 0x51 JUMPI DUP1 PUSH4 0x5C60DA1B EQ PUSH2 0x7A JUMPI DUP1 PUSH4 0xF851A440 EQ PUSH2 0xA5 JUMPI PUSH2 0x47 JUMP JUMPDEST CALLDATASIZE PUSH2 0x47 JUMPI PUSH2 0x45 PUSH2 0xD0 JUMP JUMPDEST STOP JUMPDEST PUSH2 0x4F PUSH2 0xD0 JUMP JUMPDEST STOP JUMPDEST CALLVALUE DUP1 ISZERO PUSH2 0x5D JUMPI PUSH1 0x0 DUP1 REVERT JUMPDEST POP PUSH2 0x78 PUSH1 0x4 DUP1 CALLDATASIZE SUB DUP2 ADD SWAP1 PUSH2 0x73 SWAP2 SWAP1 PUSH2 0x32A JUMP JUMPDEST PUSH2 0x1AA JUMP JUMPDEST STOP JUMPDEST CALLVALUE DUP1 ISZERO PUSH2 0x86 JUMPI PUSH1 0x0 DUP1 REVERT JUMPDEST POP PUSH2 0x8F PUSH2 0x27D JUMP JUMPDEST PUSH1 0x40 MLOAD PUSH2 0x9C SWAP2 SWAP1 PUSH2 0x366 JUMP JUMPDEST PUSH1 0x40 MLOAD DUP1 SWAP2 SUB SWAP1 RETURN JUMPDEST CALLVALUE DUP1 ISZERO PUSH2 0xB1 JUMPI PUSH1 0x0 DUP1 REVERT JUMPDEST POP PUSH2 0xBA PUSH2 0x2A1 JUMP JUMPDEST PUSH1 0x40 MLOAD PUSH2 0xC7 SWAP2 SWAP1 PUSH2 0x366 JUMP JUMPDEST PUSH1 0x40 MLOAD DUP1 SWAP2 SUB SWAP1 RETURN JUMPDEST PUSH1 0x60 PUSH1 0x0 DUP1 PUSH1 0x0 DUP1 SLOAD SWAP1 PUSH2 0x100 EXP SWAP1 DIV PUSH20 0xFFFFFFFFFFFFFFFFFFFFFFFFFFFFFFFFFFFFFFFF AND PUSH20 0xFFFFFFFFFFFFFFFFFFFFFFFFFFFFFFFFFFFFFFFF AND PUSH1 0x0 CALLDATASIZE PUSH1 0x40 MLOAD PUSH2 0x11D SWAP3 SWAP2 SWAP1 PUSH2 0x3C0 JUMP JUMPDEST PUSH1 0x0 PUSH1 0x40 MLOAD DUP1 DUP4 SUB DUP2 DUP6 GAS DELEGATECALL SWAP2 POP POP RETURNDATASIZE DUP1 PUSH1 0x0 DUP2 EQ PUSH2 0x158 JUMPI PUSH1 0x40 MLOAD SWAP2 POP PUSH1 0x1F NOT PUSH1 0x3F RETURNDATASIZE ADD AND DUP3 ADD PUSH1 0x40 MSTORE RETURNDATASIZE DUP3 MSTORE RETURNDATASIZE PUSH1 0x0 PUSH1 0x20 DUP5 ADD RETURNDATACOPY PUSH2 0x15D JUMP JUMPDEST PUSH1 0x60 SWAP2 POP JUMPDEST POP SWAP2 POP SWAP2 POP DUP2 PUSH2 0x1A2 JUMPI PUSH1 0x40 MLOAD PUSH32 0x8C379A000000000000000000000000000000000000000000000000000000000 DUP2 MSTORE PUSH1 0x4 ADD PUSH2 0x199 SWAP1 PUSH2 0x436 JUMP JUMPDEST PUSH1 0x40 MLOAD DUP1 SWAP2 SUB SWAP1 REVERT JUMPDEST DUP1 SWAP3 POP POP POP SWAP1 JUMP JUMPDEST PUSH1 0x1 PUSH1 0x0 SWAP1 SLOAD SWAP1 PUSH2 0x100 EXP SWAP1 DIV PUSH20 0xFFFFFFFFFFFFFFFFFFFFFFFFFFFFFFFFFFFFFFFF AND PUSH20 0xFFFFFFFFFFFFFFFFFFFFFFFFFFFFFFFFFFFFFFFF AND CALLER PUSH20 0xFFFFFFFFFFFFFFFFFFFFFFFFFFFFFFFFFFFFFFFF AND EQ PUSH2 0x23A JUMPI PUSH1 0x40 MLOAD PUSH32 0x8C379A000000000000000000000000000000000000000000000000000000000 DUP2 MSTORE PUSH1 0x4 ADD PUSH2 0x231 SWAP1 PUSH2 0x4A2 JUMP JUMPDEST PUSH1 0x40 MLOAD DUP1 SWAP2 SUB SWAP1 REVERT JUMPDEST DUP1 PUSH1 0x0 DUP1 PUSH2 0x100 EXP DUP2 SLOAD DUP2 PUSH20 0xFFFFFFFFFFFFFFFFFFFFFFFFFFFFFFFFFFFFFFFF MUL NOT AND SWAP1 DUP4 PUSH20 0xFFFFFFFFFFFFFFFFFFFFFFFFFFFFFFFFFFFFFFFF AND MUL OR SWAP1 SSTORE POP POP JUMP JUMPDEST PUSH1 0x0 DUP1 SLOAD SWAP1 PUSH2 0x100 EXP SWAP1 DIV PUSH20 0xFFFFFFFFFFFFFFFFFFFFFFFFFFFFFFFFFFFFFFFF AND DUP2 JUMP JUMPDEST PUSH1 0x1 PUSH1 0x0 SWAP1 SLOAD SWAP1 PUSH2 0x100 EXP SWAP1 DIV PUSH20 0xFFFFFFFFFFFFFFFFFFFFFFFFFFFFFFFFFFFFFFFF AND DUP2 JUMP JUMPDEST PUSH1 0x0 DUP1 REVERT JUMPDEST PUSH1 0x0 PUSH20 0xFFFFFFFFFFFFFFFFFFFFFFFFFFFFFFFFFFFFFFFF DUP3 AND SWAP1 POP SWAP2 SWAP1 POP JUMP JUMPDEST PUSH1 0x0 PUSH2 0x2F7 DUP3 PUSH2 0x2CC JUMP JUMPDEST SWAP1 POP SWAP2 SWAP1 POP JUMP JUMPDEST PUSH2 0x307 DUP2 PUSH2 0x2EC JUMP JUMPDEST DUP2 EQ PUSH2 0x312 JUMPI PUSH1 0x0 DUP1 REVERT JUMPDEST POP JUMP JUMPDEST PUSH1 0x0 DUP2 CALLDATALOAD SWAP1 POP PUSH2 0x324 DUP2 PUSH2 0x2FE JUMP JUMPDEST SWAP3 SWAP2 POP POP JUMP JUMPDEST PUSH1 0x0 PUSH1 0x20 DUP3 DUP5 SUB SLT ISZERO PUSH2 0x340 JUMPI PUSH2 0x33F PUSH2 0x2C7 JUMP JUMPDEST JUMPDEST PUSH1 0x0 PUSH2 0x34E DUP5 DUP3 DUP6 ADD PUSH2 0x315 JUMP JUMPDEST SWAP2 POP POP SWAP3 SWAP2 POP POP JUMP JUMPDEST PUSH2 0x360 DUP2 PUSH2 0x2EC JUMP JUMPDEST DUP3 MSTORE POP POP JUMP JUMPDEST PUSH1 0x0 PUSH1 0x20 DUP3 ADD SWAP1 POP PUSH2 0x37B PUSH1 0x0 DUP4 ADD DUP5 PUSH2 0x357 JUMP JUMPDEST SWAP3 SWAP2 POP POP JUMP JUMPDEST PUSH1 0x0 DUP2 SWAP1 POP SWAP3 SWAP2 POP POP JUMP JUMPDEST DUP3 DUP2 DUP4 CALLDATACOPY PUSH1 0x0 DUP4 DUP4 ADD MSTORE POP POP POP JUMP JUMPDEST PUSH1 0x0 PUSH2 0x3A7 DUP4 DUP6 PUSH2 0x381 JUMP JUMPDEST SWAP4 POP PUSH2 0x3B4 DUP4 DUP6 DUP5 PUSH2 0x38C JUMP JUMPDEST DUP3 DUP5 ADD SWAP1 POP SWAP4 SWAP3 POP POP POP JUMP JUMPDEST PUSH1 0x0 PUSH2 0x3CD DUP3 DUP5 DUP7 PUSH2 0x39B JUMP JUMPDEST SWAP2 POP DUP2 SWAP1 POP SWAP4 SWAP3 POP POP POP JUMP JUMPDEST PUSH1 0x0 DUP3 DUP3 MSTORE PUSH1 0x20 DUP3 ADD SWAP1 POP SWAP3 SWAP2 POP POP JUMP JUMPDEST PUSH32 0x64656C656761746563616C6C206661696C656400000000000000000000000000 PUSH1 0x0 DUP3 ADD MSTORE POP JUMP JUMPDEST PUSH1 0x0 PUSH2 0x420 PUSH1 0x13 DUP4 PUSH2 0x3D9 JUMP JUMPDEST SWAP2 POP PUSH2 0x42B DUP3 PUSH2 0x3EA JUMP JUMPDEST PUSH1 0x20 DUP3 ADD SWAP1 POP SWAP2 SWAP1 POP JUMP JUMPDEST PUSH1 0x0 PUSH1 0x20 DUP3 ADD SWAP1 POP DUP2 DUP2 SUB PUSH1 0x0 DUP4 ADD MSTORE PUSH2 0x44F DUP2 PUSH2 0x413 JUMP JUMPDEST SWAP1 POP SWAP2 SWAP1 POP JUMP JUMPDEST PUSH32 0x6E6F7420617574686F72697A6564000000000000000000000000000000000000 PUSH1 0x0 DUP3 ADD MSTORE POP JUMP JUMPDEST PUSH1 0x0 PUSH2 0x48C PUSH1 0xE DUP4 PUSH2 0x3D9 JUMP JUMPDEST SWAP2 POP PUSH2 0x497 DUP3 PUSH2 0x456 JUMP JUMPDEST PUSH1 0x20 DUP3 ADD SWAP1 POP SWAP2 SWAP1 POP JUMP JUMPDEST PUSH1 0x0 PUSH1 0x20 DUP3 ADD SWAP1 POP DUP2 DUP2 SUB PUSH1 0x0 DUP4 ADD MSTORE PUSH2 0x4BB DUP2 PUSH2 0x47F JUMP JUMPDEST SWAP1 POP SWAP2 SWAP1 POP JUMP INVALID LOG2 PUSH5 0x6970667358 0x22 SLT KECCAK256 SWAP15 0xB1 0xF7 0xD5 ORIGIN DUP10 SWAP16 DUP2 0xC DIFFICULTY GAS 0xC0 LOG2 BLOCKHASH LOG2 MLOAD CALL 0xB4 0x2C RETURN BYTE 0xAD DELEGATECALL ADDRESS 0xCD 0xD3 0xE4 0xD3 SIGNEXTEND SWAP13 JUMP 0xD7 PUSH5 0x736F6C6343 STOP ADDMOD GT STOP CALLER "},"methodIdentifiers":{"admin()":"f851a440","implementation()":"5c60da1b","upgradeTo(address)":"3659cfe6"}}}}}