{"contracts/mintSFT.sol":{"Obake":{"abi":[{"inputs":[{"internalType":"string","name":"uri","type":"string"}],"stateMutability":"nonpayable","type":"constructor"},{"anonymous":false,"inputs":[{"indexed":true,"internalType":"address","name":"account","type":"address"},{"indexed":true,"internalType":"address","name":"operator","type":"address"},{"indexed":false,"internalType":"bool","name":"approved","type":"bool"}],"name":"ApprovalForAll","type":"event"},{"anonymous":false,"inputs":[{"indexed":true,"internalType":"address","name":"previousOwner","type":"address"},{"indexed":true,"internalType":"address","name":"newOwner","type":"address"}],"name":"OwnershipTransferred","type":"event"},{"anonymous":false,"inputs":[{"indexed":true,"internalType":"address","name":"operator","type":"address"},{"indexed":true,"internalType":"address","name":"from","type":"address"},{"indexed":true,"internalType":"address","name":"to","type":"address"},{"indexed":false,"internalType":"uint256[]","name":"ids","type":"uint256[]"},{"indexed":false,"internalType":"uint256[]","name":"values","type":"uint256[]"}],"name":"TransferBatch","type":"event"},{"anonymous":false,"inputs":[{"indexed":true,"internalType":"address","name":"operator","type":"address"},{"indexed":true,"internalType":"address","name":"from","type":"address"},{"indexed":true,"internalType":"address","name":"to","type":"address"},{"indexed":false,"internalType":"uint256","name":"id","type":"uint256"},{"indexed":false,"internalType":"uint256","name":"value","type":"uint256"}],"name":"TransferSingle","type":"event"},{"anonymous":false,"inputs":[{"indexed":false,"internalType":"string","name":"value","type":"string"},{"indexed":true,"internalType":"uint256","name":"id","type":"uint256"}],"name":"URI","type":"event"},{"inputs":[],"name":"ID","outputs":[{"internalType":"uint256","name":"","type":"uint256"}],"stateMutability":"view","type":"function"},{"inputs":[{"internalType":"address","name":"account","type":"address"},{"internalType":"uint256","name":"id","type":"uint256"}],"name":"balanceOf","outputs":[{"internalType":"uint256","name":"","type":"uint256"}],"stateMutability":"view","type":"function"},{"inputs":[{"internalType":"address[]","name":"accounts","type":"address[]"},{"internalType":"uint256[]","name":"ids","type":"uint256[]"}],"name":"balanceOfBatch","outputs":[{"internalType":"uint256[]","name":"","type":"uint256[]"}],"stateMutability":"view","type":"function"},{"inputs":[],"name":"cost","outputs":[{"internalType":"uint256","name":"","type":"uint256"}],"stateMutability":"view","type":"function"},{"inputs":[{"internalType":"address","name":"account","type":"address"},{"internalType":"address","name":"operator","type":"address"}],"name":"isApprovedForAll","outputs":[{"internalType":"bool","name":"","type":"bool"}],"stateMutability":"view","type":"function"},{"inputs":[],"name":"maxMintAmountPerTx","outputs":[{"internalType":"uint256","name":"","type":"uint256"}],"stateMutability":"view","type":"function"},{"inputs":[],"name":"maxSupply","outputs":[{"internalType":"uint256","name":"","type":"uint256"}],"stateMutability":"view","type":"function"},{"inputs":[{"internalType":"uint256","name":"_mintAmount","type":"uint256"}],"name":"mint","outputs":[],"stateMutability":"payable","type":"function"},{"inputs":[],"name":"name","outputs":[{"internalType":"string","name":"","type":"string"}],"stateMutability":"pure","type":"function"},{"inputs":[],"name":"owner","outputs":[{"internalType":"address","name":"","type":"address"}],"stateMutability":"view","type":"function"},{"inputs":[],"name":"paused","outputs":[{"internalType":"bool","name":"","type":"bool"}],"stateMutability":"view","type":"function"},{"inputs":[],"name":"renounceOwnership","outputs":[],"stateMutability":"nonpayable","type":"function"},{"inputs":[{"internalType":"address","name":"from","type":"address"},{"internalType":"address","name":"to","type":"address"},{"internalType":"uint256[]","name":"ids","type":"uint256[]"},{"internalType":"uint256[]","name":"amounts","type":"uint256[]"},{"internalType":"bytes","name":"data","type":"bytes"}],"name":"safeBatchTransferFrom","outputs":[],"stateMutability":"nonpayable","type":"function"},{"inputs":[{"internalType":"address","name":"from","type":"address"},{"internalType":"address","name":"to","type":"address"},{"internalType":"uint256","name":"id","type":"uint256"},{"internalType":"uint256","name":"amount","type":"uint256"},{"internalType":"bytes","name":"data","type":"bytes"}],"name":"safeTransferFrom","outputs":[],"stateMutability":"nonpayable","type":"function"},{"inputs":[{"internalType":"address","name":"operator","type":"address"},{"internalType":"bool","name":"approved","type":"bool"}],"name":"setApprovalForAll","outputs":[],"stateMutability":"nonpayable","type":"function"},{"inputs":[{"internalType":"uint256","name":"_cost","type":"uint256"}],"name":"setCost","outputs":[],"stateMutability":"nonpayable","type":"function"},{"inputs":[{"internalType":"uint256","name":"_maxMintAmountPerTx","type":"uint256"}],"name":"setMaxMintAmountPerTx","outputs":[],"stateMutability":"nonpayable","type":"function"},{"inputs":[{"internalType":"bool","name":"_state","type":"bool"}],"name":"setPaused","outputs":[],"stateMutability":"nonpayable","type":"function"},{"inputs":[],"name":"supply","outputs":[{"internalType":"uint256","name":"_value","type":"uint256"}],"stateMutability":"view","type":"function"},{"inputs":[{"internalType":"bytes4","name":"interfaceId","type":"bytes4"}],"name":"supportsInterface","outputs":[{"internalType":"bool","name":"","type":"bool"}],"stateMutability":"view","type":"function"},{"inputs":[],"name":"symbol","outputs":[{"internalType":"string","name":"","type":"string"}],"stateMutability":"pure","type":"function"},{"inputs":[{"internalType":"address","name":"newOwner","type":"address"}],"name":"transferOwnership","outputs":[],"stateMutability":"nonpayable","type":"function"},{"inputs":[{"internalType":"uint256","name":"","type":"uint256"}],"name":"uri","outputs":[{"internalType":"string","name":"","type":"string"}],"stateMutability":"view","type":"function"},{"inputs":[],"name":"withdraw","outputs":[],"stateMutability":"nonpayable","type":"function"}],"evm":{"bytecode":{"linkReferences":{},"object":"6080604052662386f26fc100006005556109c460065560056007556001600860006101000a81548160ff0219169083151502179055503480156200004257600080fd5b5060405162003b3138038062003b31833981810160405281019062000068919062000318565b806200007a81620000a260201b60201c565b506200009b6200008f620000b760201b60201c565b620000bf60201b60201c565b506200069b565b8060029081620000b39190620005b4565b5050565b600033905090565b6000600360009054906101000a900473ffffffffffffffffffffffffffffffffffffffff16905081600360006101000a81548173ffffffffffffffffffffffffffffffffffffffff021916908373ffffffffffffffffffffffffffffffffffffffff1602179055508173ffffffffffffffffffffffffffffffffffffffff168173ffffffffffffffffffffffffffffffffffffffff167f8be0079c531659141344cd1fd0a4f28419497f9722a3daafe3b4186f6b6457e060405160405180910390a35050565b6000604051905090565b600080fd5b600080fd5b600080fd5b600080fd5b6000601f19601f8301169050919050565b7f4e487b7100000000000000000000000000000000000000000000000000000000600052604160045260246000fd5b620001ee82620001a3565b810181811067ffffffffffffffff8211171562000210576200020f620001b4565b5b80604052505050565b60006200022562000185565b9050620002338282620001e3565b919050565b600067ffffffffffffffff821115620002565762000255620001b4565b5b6200026182620001a3565b9050602081019050919050565b60005b838110156200028e57808201518184015260208101905062000271565b60008484015250505050565b6000620002b1620002ab8462000238565b62000219565b905082815260208101848484011115620002d057620002cf6200019e565b5b620002dd8482856200026e565b509392505050565b600082601f830112620002fd57620002fc62000199565b5b81516200030f8482602086016200029a565b91505092915050565b6000602082840312156200033157620003306200018f565b5b600082015167ffffffffffffffff81111562000352576200035162000194565b5b6200036084828501620002e5565b91505092915050565b600081519050919050565b7f4e487b7100000000000000000000000000000000000000000000000000000000600052602260045260246000fd5b60006002820490506001821680620003bc57607f821691505b602082108103620003d257620003d162000374565b5b50919050565b60008190508160005260206000209050919050565b60006020601f8301049050919050565b600082821b905092915050565b6000600883026200043c7fffffffffffffffffffffffffffffffffffffffffffffffffffffffffffffffff82620003fd565b620004488683620003fd565b95508019841693508086168417925050509392505050565b6000819050919050565b6000819050919050565b6000620004956200048f620004898462000460565b6200046a565b62000460565b9050919050565b6000819050919050565b620004b18362000474565b620004c9620004c0826200049c565b8484546200040a565b825550505050565b600090565b620004e0620004d1565b620004ed818484620004a6565b505050565b5b81811015620005155762000509600082620004d6565b600181019050620004f3565b5050565b601f82111562000564576200052e81620003d8565b6200053984620003ed565b8101602085101562000549578190505b620005616200055885620003ed565b830182620004f2565b50505b505050565b600082821c905092915050565b6000620005896000198460080262000569565b1980831691505092915050565b6000620005a4838362000576565b9150826002028217905092915050565b620005bf8262000369565b67ffffffffffffffff811115620005db57620005da620001b4565b5b620005e78254620003a3565b620005f482828562000519565b600060209050601f8311600181146200062c576000841562000617578287015190505b62000623858262000596565b86555062000693565b601f1984166200063c86620003d8565b60005b8281101562000666578489015182556001820191506020850194506020810190506200063f565b8683101562000686578489015162000682601f89168262000576565b8355505b6001600288020188555050505b505050505050565b61348680620006ab6000396000f3fe60806040526004361061014a5760003560e01c8063715018a6116100b6578063b071401b1161006f578063b071401b1461045e578063b3cea21714610487578063d5abeb01146104b2578063e985e9c5146104dd578063f242432a1461051a578063f2fde38b146105435761014a565b8063715018a6146103815780638da5cb5b1461039857806394354fd0146103c357806395d89b41146103ee578063a0712d6814610419578063a22cb465146104355761014a565b806316c38b3c1161010857806316c38b3c146102875780632eb2c2d6146102b05780633ccfd60b146102d957806344a0d68a146102f05780634e1273f4146103195780635c975abb146103565761014a565b8062fdd58e1461014f57806301ffc9a71461018c578063047fc9aa146101c957806306fdde03146101f45780630e89341c1461021f57806313faede61461025c575b600080fd5b34801561015b57600080fd5b5061017660048036038101906101719190611e70565b61056c565b6040516101839190611ebf565b60405180910390f35b34801561019857600080fd5b506101b360048036038101906101ae9190611f32565b610634565b6040516101c09190611f7a565b60405180910390f35b3480156101d557600080fd5b506101de610716565b6040516101eb9190611ebf565b60405180910390f35b34801561020057600080fd5b50610209610722565b6040516102169190612025565b60405180910390f35b34801561022b57600080fd5b5061024660048036038101906102419190612047565b61075f565b6040516102539190612025565b60405180910390f35b34801561026857600080fd5b506102716107f3565b60405161027e9190611ebf565b60405180910390f35b34801561029357600080fd5b506102ae60048036038101906102a991906120a0565b6107f9565b005b3480156102bc57600080fd5b506102d760048036038101906102d291906122ca565b61081e565b005b3480156102e557600080fd5b506102ee6108bf565b005b3480156102fc57600080fd5b5061031760048036038101906103129190612047565b61097d565b005b34801561032557600080fd5b50610340600480360381019061033b919061245c565b61098f565b60405161034d9190612592565b60405180910390f35b34801561036257600080fd5b5061036b610aa8565b6040516103789190611f7a565b60405180910390f35b34801561038d57600080fd5b50610396610abb565b005b3480156103a457600080fd5b506103ad610acf565b6040516103ba91906125c3565b60405180910390f35b3480156103cf57600080fd5b506103d8610af9565b6040516103e59190611ebf565b60405180910390f35b3480156103fa57600080fd5b50610403610aff565b6040516104109190612025565b60405180910390f35b610433600480360381019061042e9190612047565b610b3c565b005b34801561044157600080fd5b5061045c600480360381019061045791906125de565b610cd0565b005b34801561046a57600080fd5b5061048560048036038101906104809190612047565b610ce6565b005b34801561049357600080fd5b5061049c610cf8565b6040516104a99190611ebf565b60405180910390f35b3480156104be57600080fd5b506104c7610cfd565b6040516104d49190611ebf565b60405180910390f35b3480156104e957600080fd5b5061050460048036038101906104ff919061261e565b610d03565b6040516105119190611f7a565b60405180910390f35b34801561052657600080fd5b50610541600480360381019061053c919061265e565b610d97565b005b34801561054f57600080fd5b5061056a600480360381019061056591906126f5565b610e38565b005b60008073ffffffffffffffffffffffffffffffffffffffff168373ffffffffffffffffffffffffffffffffffffffff16036105dc576040517f08c379a00000000000000000000000000000000000000000000000000000000081526004016105d390612794565b60405180910390fd5b60008083815260200190815260200160002060008473ffffffffffffffffffffffffffffffffffffffff1673ffffffffffffffffffffffffffffffffffffffff16815260200190815260200160002054905092915050565b60007fd9b67a26000000000000000000000000000000000000000000000000000000007bffffffffffffffffffffffffffffffffffffffffffffffffffffffff1916827bffffffffffffffffffffffffffffffffffffffffffffffffffffffff191614806106ff57507f0e89341c000000000000000000000000000000000000000000000000000000007bffffffffffffffffffffffffffffffffffffffffffffffffffffffff1916827bffffffffffffffffffffffffffffffffffffffffffffffffffffffff1916145b8061070f575061070e82610ebb565b5b9050919050565b60048060000154905081565b60606040518060400160405280600581526020017f4f62616b65000000000000000000000000000000000000000000000000000000815250905090565b60606002805461076e906127e3565b80601f016020809104026020016040519081016040528092919081815260200182805461079a906127e3565b80156107e75780601f106107bc576101008083540402835291602001916107e7565b820191906000526020600020905b8154815290600101906020018083116107ca57829003601f168201915b50505050509050919050565b60055481565b610801610f25565b80600860006101000a81548160ff02191690831515021790555050565b610826610fa3565b73ffffffffffffffffffffffffffffffffffffffff168573ffffffffffffffffffffffffffffffffffffffff16148061086c575061086b85610866610fa3565b610d03565b5b6108ab576040517f08c379a00000000000000000000000000000000000000000000000000000000081526004016108a290612886565b60405180910390fd5b6108b88585858585610fab565b5050505050565b6108c7610f25565b60006108d1610acf565b73ffffffffffffffffffffffffffffffffffffffff16476040516108f4906128d7565b60006040518083038185875af1925050503d8060008114610931576040519150601f19603f3d011682016040523d82523d6000602084013e610936565b606091505b505090508061097a576040517f08c379a00000000000000000000000000000000000000000000000000000000081526004016109719061295e565b60405180910390fd5b50565b610985610f25565b8060058190555050565b606081518351146109d5576040517f08c379a00000000000000000000000000000000000000000000000000000000081526004016109cc906129f0565b60405180910390fd5b6000835167ffffffffffffffff8111156109f2576109f16120d2565b5b604051908082528060200260200182016040528015610a205781602001602082028036833780820191505090505b50905060005b8451811015610a9d57610a6d858281518110610a4557610a44612a10565b5b6020026020010151858381518110610a6057610a5f612a10565b5b602002602001015161056c565b828281518110610a8057610a7f612a10565b5b60200260200101818152505080610a9690612a6e565b9050610a26565b508091505092915050565b600860009054906101000a900460ff1681565b610ac3610f25565b610acd60006112cc565b565b6000600360009054906101000a900473ffffffffffffffffffffffffffffffffffffffff16905090565b60075481565b60606040518060400160405280600381526020017f4f424b0000000000000000000000000000000000000000000000000000000000815250905090565b80600081118015610b4f57506007548111155b610b8e576040517f08c379a0000000000000000000000000000000000000000000000000000000008152600401610b8590612b02565b60405180910390fd5b60065481610b9c6004611392565b610ba69190612b22565b1115610be7576040517f08c379a0000000000000000000000000000000000000000000000000000000008152600401610bde90612ba2565b60405180910390fd5b600860009054906101000a900460ff1615610c37576040517f08c379a0000000000000000000000000000000000000000000000000000000008152600401610c2e90612c0e565b60405180910390fd5b81600554610c459190612c2e565b341015610c87576040517f08c379a0000000000000000000000000000000000000000000000000000000008152600401610c7e90612cbc565b60405180910390fd5b60005b82811015610caf57610c9c60046113a0565b8080610ca790612a6e565b915050610c8a565b50610ccc33600184604051806020016040528060008152506113b6565b5050565b610ce2610cdb610fa3565b8383611566565b5050565b610cee610f25565b8060078190555050565b600181565b60065481565b6000600160008473ffffffffffffffffffffffffffffffffffffffff1673ffffffffffffffffffffffffffffffffffffffff16815260200190815260200160002060008373ffffffffffffffffffffffffffffffffffffffff1673ffffffffffffffffffffffffffffffffffffffff16815260200190815260200160002060009054906101000a900460ff16905092915050565b610d9f610fa3565b73ffffffffffffffffffffffffffffffffffffffff168573ffffffffffffffffffffffffffffffffffffffff161480610de55750610de485610ddf610fa3565b610d03565b5b610e24576040517f08c379a0000000000000000000000000000000000000000000000000000000008152600401610e1b90612886565b60405180910390fd5b610e3185858585856116d2565b5050505050565b610e40610f25565b600073ffffffffffffffffffffffffffffffffffffffff168173ffffffffffffffffffffffffffffffffffffffff1603610eaf576040517f08c379a0000000000000000000000000000000000000000000000000000000008152600401610ea690612d4e565b60405180910390fd5b610eb8816112cc565b50565b60007f01ffc9a7000000000000000000000000000000000000000000000000000000007bffffffffffffffffffffffffffffffffffffffffffffffffffffffff1916827bffffffffffffffffffffffffffffffffffffffffffffffffffffffff1916149050919050565b610f2d610fa3565b73ffffffffffffffffffffffffffffffffffffffff16610f4b610acf565b73ffffffffffffffffffffffffffffffffffffffff1614610fa1576040517f08c379a0000000000000000000000000000000000000000000000000000000008152600401610f9890612dba565b60405180910390fd5b565b600033905090565b8151835114610fef576040517f08c379a0000000000000000000000000000000000000000000000000000000008152600401610fe690612e4c565b60405180910390fd5b600073ffffffffffffffffffffffffffffffffffffffff168473ffffffffffffffffffffffffffffffffffffffff160361105e576040517f08c379a000000000000000000000000000000000000000000000000000000000815260040161105590612ede565b60405180910390fd5b6000611068610fa3565b905061107881878787878761196d565b60005b845181101561122957600085828151811061109957611098612a10565b5b6020026020010151905060008583815181106110b8576110b7612a10565b5b60200260200101519050600080600084815260200190815260200160002060008b73ffffffffffffffffffffffffffffffffffffffff1673ffffffffffffffffffffffffffffffffffffffff16815260200190815260200160002054905081811015611159576040517f08c379a000000000000000000000000000000000000000000000000000000000815260040161115090612f70565b60405180910390fd5b81810360008085815260200190815260200160002060008c73ffffffffffffffffffffffffffffffffffffffff1673ffffffffffffffffffffffffffffffffffffffff168152602001908152602001600020819055508160008085815260200190815260200160002060008b73ffffffffffffffffffffffffffffffffffffffff1673ffffffffffffffffffffffffffffffffffffffff168152602001908152602001600020600082825461120e9190612b22565b925050819055505050508061122290612a6e565b905061107b565b508473ffffffffffffffffffffffffffffffffffffffff168673ffffffffffffffffffffffffffffffffffffffff168273ffffffffffffffffffffffffffffffffffffffff167f4a39dc06d4c0dbc64b70af90fd698a233a518aa5d07e595d983b8c0526c8f7fb87876040516112a0929190612f90565b60405180910390a46112b6818787878787611975565b6112c481878787878761197d565b505050505050565b6000600360009054906101000a900473ffffffffffffffffffffffffffffffffffffffff16905081600360006101000a81548173ffffffffffffffffffffffffffffffffffffffff021916908373ffffffffffffffffffffffffffffffffffffffff1602179055508173ffffffffffffffffffffffffffffffffffffffff168173ffffffffffffffffffffffffffffffffffffffff167f8be0079c531659141344cd1fd0a4f28419497f9722a3daafe3b4186f6b6457e060405160405180910390a35050565b600081600001549050919050565b6001816000016000828254019250508190555050565b600073ffffffffffffffffffffffffffffffffffffffff168473ffffffffffffffffffffffffffffffffffffffff1603611425576040517f08c379a000000000000000000000000000000000000000000000000000000000815260040161141c90613039565b60405180910390fd5b600061142f610fa3565b9050600061143c85611b54565b9050600061144985611b54565b905061145a8360008985858961196d565b8460008088815260200190815260200160002060008973ffffffffffffffffffffffffffffffffffffffff1673ffffffffffffffffffffffffffffffffffffffff16815260200190815260200160002060008282546114b99190612b22565b925050819055508673ffffffffffffffffffffffffffffffffffffffff16600073ffffffffffffffffffffffffffffffffffffffff168473ffffffffffffffffffffffffffffffffffffffff167fc3d58168c5ae7397731d063d5bbf3d657854427343f4c083240f7aacaa2d0f628989604051611537929190613059565b60405180910390a461154e83600089858589611975565b61155d83600089898989611bce565b50505050505050565b8173ffffffffffffffffffffffffffffffffffffffff168373ffffffffffffffffffffffffffffffffffffffff16036115d4576040517f08c379a00000000000000000000000000000000000000000000000000000000081526004016115cb906130f4565b60405180910390fd5b80600160008573ffffffffffffffffffffffffffffffffffffffff1673ffffffffffffffffffffffffffffffffffffffff16815260200190815260200160002060008473ffffffffffffffffffffffffffffffffffffffff1673ffffffffffffffffffffffffffffffffffffffff16815260200190815260200160002060006101000a81548160ff0219169083151502179055508173ffffffffffffffffffffffffffffffffffffffff168373ffffffffffffffffffffffffffffffffffffffff167f17307eab39ab6107e8899845ad3d59bd9653f200f220920489ca2b5937696c31836040516116c59190611f7a565b60405180910390a3505050565b600073ffffffffffffffffffffffffffffffffffffffff168473ffffffffffffffffffffffffffffffffffffffff1603611741576040517f08c379a000000000000000000000000000000000000000000000000000000000815260040161173890612ede565b60405180910390fd5b600061174b610fa3565b9050600061175885611b54565b9050600061176585611b54565b905061177583898985858961196d565b600080600088815260200190815260200160002060008a73ffffffffffffffffffffffffffffffffffffffff1673ffffffffffffffffffffffffffffffffffffffff1681526020019081526020016000205490508581101561180c576040517f08c379a000000000000000000000000000000000000000000000000000000000815260040161180390612f70565b60405180910390fd5b85810360008089815260200190815260200160002060008b73ffffffffffffffffffffffffffffffffffffffff1673ffffffffffffffffffffffffffffffffffffffff168152602001908152602001600020819055508560008089815260200190815260200160002060008a73ffffffffffffffffffffffffffffffffffffffff1673ffffffffffffffffffffffffffffffffffffffff16815260200190815260200160002060008282546118c19190612b22565b925050819055508773ffffffffffffffffffffffffffffffffffffffff168973ffffffffffffffffffffffffffffffffffffffff168573ffffffffffffffffffffffffffffffffffffffff167fc3d58168c5ae7397731d063d5bbf3d657854427343f4c083240f7aacaa2d0f628a8a60405161193e929190613059565b60405180910390a4611954848a8a86868a611975565b611962848a8a8a8a8a611bce565b505050505050505050565b505050505050565b505050505050565b61199c8473ffffffffffffffffffffffffffffffffffffffff16611da5565b15611b4c578373ffffffffffffffffffffffffffffffffffffffff1663bc197c8187878686866040518663ffffffff1660e01b81526004016119e2959493929190613169565b6020604051808303816000875af1925050508015611a1e57506040513d601f19601f82011682018060405250810190611a1b91906131e6565b60015b611ac357611a2a613220565b806308c379a003611a865750611a3e613242565b80611a495750611a88565b806040517f08c379a0000000000000000000000000000000000000000000000000000000008152600401611a7d9190612025565b60405180910390fd5b505b6040517f08c379a0000000000000000000000000000000000000000000000000000000008152600401611aba90613344565b60405180910390fd5b63bc197c8160e01b7bffffffffffffffffffffffffffffffffffffffffffffffffffffffff1916817bffffffffffffffffffffffffffffffffffffffffffffffffffffffff191614611b4a576040517f08c379a0000000000000000000000000000000000000000000000000000000008152600401611b41906133d6565b60405180910390fd5b505b505050505050565b60606000600167ffffffffffffffff811115611b7357611b726120d2565b5b604051908082528060200260200182016040528015611ba15781602001602082028036833780820191505090505b5090508281600081518110611bb957611bb8612a10565b5b60200260200101818152505080915050919050565b611bed8473ffffffffffffffffffffffffffffffffffffffff16611da5565b15611d9d578373ffffffffffffffffffffffffffffffffffffffff1663f23a6e6187878686866040518663ffffffff1660e01b8152600401611c339594939291906133f6565b6020604051808303816000875af1925050508015611c6f57506040513d601f19601f82011682018060405250810190611c6c91906131e6565b60015b611d1457611c7b613220565b806308c379a003611cd75750611c8f613242565b80611c9a5750611cd9565b806040517f08c379a0000000000000000000000000000000000000000000000000000000008152600401611cce9190612025565b60405180910390fd5b505b6040517f08c379a0000000000000000000000000000000000000000000000000000000008152600401611d0b90613344565b60405180910390fd5b63f23a6e6160e01b7bffffffffffffffffffffffffffffffffffffffffffffffffffffffff1916817bffffffffffffffffffffffffffffffffffffffffffffffffffffffff191614611d9b576040517f08c379a0000000000000000000000000000000000000000000000000000000008152600401611d92906133d6565b60405180910390fd5b505b505050505050565b6000808273ffffffffffffffffffffffffffffffffffffffff163b119050919050565b6000604051905090565b600080fd5b600080fd5b600073ffffffffffffffffffffffffffffffffffffffff82169050919050565b6000611e0782611ddc565b9050919050565b611e1781611dfc565b8114611e2257600080fd5b50565b600081359050611e3481611e0e565b92915050565b6000819050919050565b611e4d81611e3a565b8114611e5857600080fd5b50565b600081359050611e6a81611e44565b92915050565b60008060408385031215611e8757611e86611dd2565b5b6000611e9585828601611e25565b9250506020611ea685828601611e5b565b9150509250929050565b611eb981611e3a565b82525050565b6000602082019050611ed46000830184611eb0565b92915050565b60007fffffffff0000000000000000000000000000000000000000000000000000000082169050919050565b611f0f81611eda565b8114611f1a57600080fd5b50565b600081359050611f2c81611f06565b92915050565b600060208284031215611f4857611f47611dd2565b5b6000611f5684828501611f1d565b91505092915050565b60008115159050919050565b611f7481611f5f565b82525050565b6000602082019050611f8f6000830184611f6b565b92915050565b600081519050919050565b600082825260208201905092915050565b60005b83811015611fcf578082015181840152602081019050611fb4565b60008484015250505050565b6000601f19601f8301169050919050565b6000611ff782611f95565b6120018185611fa0565b9350612011818560208601611fb1565b61201a81611fdb565b840191505092915050565b6000602082019050818103600083015261203f8184611fec565b905092915050565b60006020828403121561205d5761205c611dd2565b5b600061206b84828501611e5b565b91505092915050565b61207d81611f5f565b811461208857600080fd5b50565b60008135905061209a81612074565b92915050565b6000602082840312156120b6576120b5611dd2565b5b60006120c48482850161208b565b91505092915050565b600080fd5b7f4e487b7100000000000000000000000000000000000000000000000000000000600052604160045260246000fd5b61210a82611fdb565b810181811067ffffffffffffffff82111715612129576121286120d2565b5b80604052505050565b600061213c611dc8565b90506121488282612101565b919050565b600067ffffffffffffffff821115612168576121676120d2565b5b602082029050602081019050919050565b600080fd5b600061219161218c8461214d565b612132565b905080838252602082019050602084028301858111156121b4576121b3612179565b5b835b818110156121dd57806121c98882611e5b565b8452602084019350506020810190506121b6565b5050509392505050565b600082601f8301126121fc576121fb6120cd565b5b813561220c84826020860161217e565b91505092915050565b600080fd5b600067ffffffffffffffff821115612235576122346120d2565b5b61223e82611fdb565b9050602081019050919050565b82818337600083830152505050565b600061226d6122688461221a565b612132565b90508281526020810184848401111561228957612288612215565b5b61229484828561224b565b509392505050565b600082601f8301126122b1576122b06120cd565b5b81356122c184826020860161225a565b91505092915050565b600080600080600060a086880312156122e6576122e5611dd2565b5b60006122f488828901611e25565b955050602061230588828901611e25565b945050604086013567ffffffffffffffff81111561232657612325611dd7565b5b612332888289016121e7565b935050606086013567ffffffffffffffff81111561235357612352611dd7565b5b61235f888289016121e7565b925050608086013567ffffffffffffffff8111156123805761237f611dd7565b5b61238c8882890161229c565b9150509295509295909350565b600067ffffffffffffffff8211156123b4576123b36120d2565b5b602082029050602081019050919050565b60006123d86123d384612399565b612132565b905080838252602082019050602084028301858111156123fb576123fa612179565b5b835b8181101561242457806124108882611e25565b8452602084019350506020810190506123fd565b5050509392505050565b600082601f830112612443576124426120cd565b5b81356124538482602086016123c5565b91505092915050565b6000806040838503121561247357612472611dd2565b5b600083013567ffffffffffffffff81111561249157612490611dd7565b5b61249d8582860161242e565b925050602083013567ffffffffffffffff8111156124be576124bd611dd7565b5b6124ca858286016121e7565b9150509250929050565b600081519050919050565b600082825260208201905092915050565b6000819050602082019050919050565b61250981611e3a565b82525050565b600061251b8383612500565b60208301905092915050565b6000602082019050919050565b600061253f826124d4565b61254981856124df565b9350612554836124f0565b8060005b8381101561258557815161256c888261250f565b975061257783612527565b925050600181019050612558565b5085935050505092915050565b600060208201905081810360008301526125ac8184612534565b905092915050565b6125bd81611dfc565b82525050565b60006020820190506125d860008301846125b4565b92915050565b600080604083850312156125f5576125f4611dd2565b5b600061260385828601611e25565b92505060206126148582860161208b565b9150509250929050565b6000806040838503121561263557612634611dd2565b5b600061264385828601611e25565b925050602061265485828601611e25565b9150509250929050565b600080600080600060a0868803121561267a57612679611dd2565b5b600061268888828901611e25565b955050602061269988828901611e25565b94505060406126aa88828901611e5b565b93505060606126bb88828901611e5b565b925050608086013567ffffffffffffffff8111156126dc576126db611dd7565b5b6126e88882890161229c565b9150509295509295909350565b60006020828403121561270b5761270a611dd2565b5b600061271984828501611e25565b91505092915050565b7f455243313135353a2061646472657373207a65726f206973206e6f742061207660008201527f616c6964206f776e657200000000000000000000000000000000000000000000602082015250565b600061277e602a83611fa0565b915061278982612722565b604082019050919050565b600060208201905081810360008301526127ad81612771565b9050919050565b7f4e487b7100000000000000000000000000000000000000000000000000000000600052602260045260246000fd5b600060028204905060018216806127fb57607f821691505b60208210810361280e5761280d6127b4565b5b50919050565b7f455243313135353a2063616c6c6572206973206e6f7420746f6b656e206f776e60008201527f6572206f7220617070726f766564000000000000000000000000000000000000602082015250565b6000612870602e83611fa0565b915061287b82612814565b604082019050919050565b6000602082019050818103600083015261289f81612863565b9050919050565b600081905092915050565b50565b60006128c16000836128a6565b91506128cc826128b1565b600082019050919050565b60006128e2826128b4565b9150819050919050565b7f4661696c656420746f207472616e736665722066756e647320746f206f776e6560008201527f7200000000000000000000000000000000000000000000000000000000000000602082015250565b6000612948602183611fa0565b9150612953826128ec565b604082019050919050565b600060208201905081810360008301526129778161293b565b9050919050565b7f455243313135353a206163636f756e747320616e6420696473206c656e67746860008201527f206d69736d617463680000000000000000000000000000000000000000000000602082015250565b60006129da602983611fa0565b91506129e58261297e565b604082019050919050565b60006020820190508181036000830152612a09816129cd565b9050919050565b7f4e487b7100000000000000000000000000000000000000000000000000000000600052603260045260246000fd5b7f4e487b7100000000000000000000000000000000000000000000000000000000600052601160045260246000fd5b6000612a7982611e3a565b91507fffffffffffffffffffffffffffffffffffffffffffffffffffffffffffffffff8203612aab57612aaa612a3f565b5b600182019050919050565b7f496e76616c6964206d696e7420616d6f756e7421000000000000000000000000600082015250565b6000612aec601483611fa0565b9150612af782612ab6565b602082019050919050565b60006020820190508181036000830152612b1b81612adf565b9050919050565b6000612b2d82611e3a565b9150612b3883611e3a565b9250828201905080821115612b5057612b4f612a3f565b5b92915050565b7f4d617820737570706c7920657863656564656421000000000000000000000000600082015250565b6000612b8c601483611fa0565b9150612b9782612b56565b602082019050919050565b60006020820190508181036000830152612bbb81612b7f565b9050919050565b7f54686520636f6e74726163742069732070617573656421000000000000000000600082015250565b6000612bf8601783611fa0565b9150612c0382612bc2565b602082019050919050565b60006020820190508181036000830152612c2781612beb565b9050919050565b6000612c3982611e3a565b9150612c4483611e3a565b9250828202612c5281611e3a565b91508282048414831517612c6957612c68612a3f565b5b5092915050565b7f496e73756666696369656e742066756e64732100000000000000000000000000600082015250565b6000612ca6601383611fa0565b9150612cb182612c70565b602082019050919050565b60006020820190508181036000830152612cd581612c99565b9050919050565b7f4f776e61626c653a206e6577206f776e657220697320746865207a65726f206160008201527f6464726573730000000000000000000000000000000000000000000000000000602082015250565b6000612d38602683611fa0565b9150612d4382612cdc565b604082019050919050565b60006020820190508181036000830152612d6781612d2b565b9050919050565b7f4f776e61626c653a2063616c6c6572206973206e6f7420746865206f776e6572600082015250565b6000612da4602083611fa0565b9150612daf82612d6e565b602082019050919050565b60006020820190508181036000830152612dd381612d97565b9050919050565b7f455243313135353a2069647320616e6420616d6f756e7473206c656e6774682060008201527f6d69736d61746368000000000000000000000000000000000000000000000000602082015250565b6000612e36602883611fa0565b9150612e4182612dda565b604082019050919050565b60006020820190508181036000830152612e6581612e29565b9050919050565b7f455243313135353a207472616e7366657220746f20746865207a65726f20616460008201527f6472657373000000000000000000000000000000000000000000000000000000602082015250565b6000612ec8602583611fa0565b9150612ed382612e6c565b604082019050919050565b60006020820190508181036000830152612ef781612ebb565b9050919050565b7f455243313135353a20696e73756666696369656e742062616c616e636520666f60008201527f72207472616e7366657200000000000000000000000000000000000000000000602082015250565b6000612f5a602a83611fa0565b9150612f6582612efe565b604082019050919050565b60006020820190508181036000830152612f8981612f4d565b9050919050565b60006040820190508181036000830152612faa8185612534565b90508181036020830152612fbe8184612534565b90509392505050565b7f455243313135353a206d696e7420746f20746865207a65726f2061646472657360008201527f7300000000000000000000000000000000000000000000000000000000000000602082015250565b6000613023602183611fa0565b915061302e82612fc7565b604082019050919050565b6000602082019050818103600083015261305281613016565b9050919050565b600060408201905061306e6000830185611eb0565b61307b6020830184611eb0565b9392505050565b7f455243313135353a2073657474696e6720617070726f76616c2073746174757360008201527f20666f722073656c660000000000000000000000000000000000000000000000602082015250565b60006130de602983611fa0565b91506130e982613082565b604082019050919050565b6000602082019050818103600083015261310d816130d1565b9050919050565b600081519050919050565b600082825260208201905092915050565b600061313b82613114565b613145818561311f565b9350613155818560208601611fb1565b61315e81611fdb565b840191505092915050565b600060a08201905061317e60008301886125b4565b61318b60208301876125b4565b818103604083015261319d8186612534565b905081810360608301526131b18185612534565b905081810360808301526131c58184613130565b90509695505050505050565b6000815190506131e081611f06565b92915050565b6000602082840312156131fc576131fb611dd2565b5b600061320a848285016131d1565b91505092915050565b60008160e01c9050919050565b600060033d111561323f5760046000803e61323c600051613213565b90505b90565b600060443d106132cf57613254611dc8565b60043d036004823e80513d602482011167ffffffffffffffff8211171561327c5750506132cf565b808201805167ffffffffffffffff81111561329a57505050506132cf565b80602083010160043d0385018111156132b75750505050506132cf565b6132c682602001850186612101565b82955050505050505b90565b7f455243313135353a207472616e7366657220746f206e6f6e2d4552433131353560008201527f526563656976657220696d706c656d656e746572000000000000000000000000602082015250565b600061332e603483611fa0565b9150613339826132d2565b604082019050919050565b6000602082019050818103600083015261335d81613321565b9050919050565b7f455243313135353a204552433131353552656365697665722072656a6563746560008201527f6420746f6b656e73000000000000000000000000000000000000000000000000602082015250565b60006133c0602883611fa0565b91506133cb82613364565b604082019050919050565b600060208201905081810360008301526133ef816133b3565b9050919050565b600060a08201905061340b60008301886125b4565b61341860208301876125b4565b6134256040830186611eb0565b6134326060830185611eb0565b81810360808301526134448184613130565b9050969550505050505056fea2646970667358221220279a2635e86b22e3702170b3be991d7d7f55882235ff08362c92c338df1257c264736f6c63430008110033","opcodes":"PUSH1 0x80 PUSH1 0x40 MSTORE PUSH7 0x2386F26FC10000 PUSH1 0x5 SSTORE PUSH2 0x9C4 PUSH1 0x6 SSTORE PUSH1 0x5 PUSH1 0x7 SSTORE PUSH1 0x1 PUSH1 0x8 PUSH1 0x0 PUSH2 0x100 EXP DUP2 SLOAD DUP2 PUSH1 0xFF MUL NOT AND SWAP1 DUP4 ISZERO ISZERO MUL OR SWAP1 SSTORE POP CALLVALUE DUP1 ISZERO PUSH3 0x42 JUMPI PUSH1 0x0 DUP1 REVERT JUMPDEST POP PUSH1 0x40 MLOAD PUSH3 0x3B31 CODESIZE SUB DUP1 PUSH3 0x3B31 DUP4 CODECOPY DUP2 DUP2 ADD PUSH1 0x40 MSTORE DUP2 ADD SWAP1 PUSH3 0x68 SWAP2 SWAP1 PUSH3 0x318 JUMP JUMPDEST DUP1 PUSH3 0x7A DUP2 PUSH3 0xA2 PUSH1 0x20 SHL PUSH1 0x20 SHR JUMP JUMPDEST POP PUSH3 0x9B PUSH3 0x8F PUSH3 0xB7 PUSH1 0x20 SHL PUSH1 0x20 SHR JUMP JUMPDEST PUSH3 0xBF PUSH1 0x20 SHL PUSH1 0x20 SHR JUMP JUMPDEST POP PUSH3 0x69B JUMP JUMPDEST DUP1 PUSH1 0x2 SWAP1 DUP2 PUSH3 0xB3 SWAP2 SWAP1 PUSH3 0x5B4 JUMP JUMPDEST POP POP JUMP JUMPDEST PUSH1 0x0 CALLER SWAP1 POP SWAP1 JUMP JUMPDEST PUSH1 0x0 PUSH1 0x3 PUSH1 0x0 SWAP1 SLOAD SWAP1 PUSH2 0x100 EXP SWAP1 DIV PUSH20 0xFFFFFFFFFFFFFFFFFFFFFFFFFFFFFFFFFFFFFFFF AND SWAP1 POP DUP2 PUSH1 0x3 PUSH1 0x0 PUSH2 0x100 EXP DUP2 SLOAD DUP2 PUSH20 0xFFFFFFFFFFFFFFFFFFFFFFFFFFFFFFFFFFFFFFFF MUL NOT AND SWAP1 DUP4 PUSH20 0xFFFFFFFFFFFFFFFFFFFFFFFFFFFFFFFFFFFFFFFF AND MUL OR SWAP1 SSTORE POP DUP2 PUSH20 0xFFFFFFFFFFFFFFFFFFFFFFFFFFFFFFFFFFFFFFFF AND DUP2 PUSH20 0xFFFFFFFFFFFFFFFFFFFFFFFFFFFFFFFFFFFFFFFF AND PUSH32 0x8BE0079C531659141344CD1FD0A4F28419497F9722A3DAAFE3B4186F6B6457E0 PUSH1 0x40 MLOAD PUSH1 0x40 MLOAD DUP1 SWAP2 SUB SWAP1 LOG3 POP POP JUMP JUMPDEST PUSH1 0x0 PUSH1 0x40 MLOAD SWAP1 POP SWAP1 JUMP JUMPDEST PUSH1 0x0 DUP1 REVERT JUMPDEST PUSH1 0x0 DUP1 REVERT JUMPDEST PUSH1 0x0 DUP1 REVERT JUMPDEST PUSH1 0x0 DUP1 REVERT JUMPDEST PUSH1 0x0 PUSH1 0x1F NOT PUSH1 0x1F DUP4 ADD AND SWAP1 POP SWAP2 SWAP1 POP JUMP JUMPDEST PUSH32 0x4E487B7100000000000000000000000000000000000000000000000000000000 PUSH1 0x0 MSTORE PUSH1 0x41 PUSH1 0x4 MSTORE PUSH1 0x24 PUSH1 0x0 REVERT JUMPDEST PUSH3 0x1EE DUP3 PUSH3 0x1A3 JUMP JUMPDEST DUP2 ADD DUP2 DUP2 LT PUSH8 0xFFFFFFFFFFFFFFFF DUP3 GT OR ISZERO PUSH3 0x210 JUMPI PUSH3 0x20F PUSH3 0x1B4 JUMP JUMPDEST JUMPDEST DUP1 PUSH1 0x40 MSTORE POP POP POP JUMP JUMPDEST PUSH1 0x0 PUSH3 0x225 PUSH3 0x185 JUMP JUMPDEST SWAP1 POP PUSH3 0x233 DUP3 DUP3 PUSH3 0x1E3 JUMP JUMPDEST SWAP2 SWAP1 POP JUMP JUMPDEST PUSH1 0x0 PUSH8 0xFFFFFFFFFFFFFFFF DUP3 GT ISZERO PUSH3 0x256 JUMPI PUSH3 0x255 PUSH3 0x1B4 JUMP JUMPDEST JUMPDEST PUSH3 0x261 DUP3 PUSH3 0x1A3 JUMP JUMPDEST SWAP1 POP PUSH1 0x20 DUP2 ADD SWAP1 POP SWAP2 SWAP1 POP JUMP JUMPDEST PUSH1 0x0 JUMPDEST DUP4 DUP2 LT ISZERO PUSH3 0x28E JUMPI DUP1 DUP3 ADD MLOAD DUP2 DUP5 ADD MSTORE PUSH1 0x20 DUP2 ADD SWAP1 POP PUSH3 0x271 JUMP JUMPDEST PUSH1 0x0 DUP5 DUP5 ADD MSTORE POP POP POP POP JUMP JUMPDEST PUSH1 0x0 PUSH3 0x2B1 PUSH3 0x2AB DUP5 PUSH3 0x238 JUMP JUMPDEST PUSH3 0x219 JUMP JUMPDEST SWAP1 POP DUP3 DUP2 MSTORE PUSH1 0x20 DUP2 ADD DUP5 DUP5 DUP5 ADD GT ISZERO PUSH3 0x2D0 JUMPI PUSH3 0x2CF PUSH3 0x19E JUMP JUMPDEST JUMPDEST PUSH3 0x2DD DUP5 DUP3 DUP6 PUSH3 0x26E JUMP JUMPDEST POP SWAP4 SWAP3 POP POP POP JUMP JUMPDEST PUSH1 0x0 DUP3 PUSH1 0x1F DUP4 ADD SLT PUSH3 0x2FD JUMPI PUSH3 0x2FC PUSH3 0x199 JUMP JUMPDEST JUMPDEST DUP2 MLOAD PUSH3 0x30F DUP5 DUP3 PUSH1 0x20 DUP7 ADD PUSH3 0x29A JUMP JUMPDEST SWAP2 POP POP SWAP3 SWAP2 POP POP JUMP JUMPDEST PUSH1 0x0 PUSH1 0x20 DUP3 DUP5 SUB SLT ISZERO PUSH3 0x331 JUMPI PUSH3 0x330 PUSH3 0x18F JUMP JUMPDEST JUMPDEST PUSH1 0x0 DUP3 ADD MLOAD PUSH8 0xFFFFFFFFFFFFFFFF DUP2 GT ISZERO PUSH3 0x352 JUMPI PUSH3 0x351 PUSH3 0x194 JUMP JUMPDEST JUMPDEST PUSH3 0x360 DUP5 DUP3 DUP6 ADD PUSH3 0x2E5 JUMP JUMPDEST SWAP2 POP POP SWAP3 SWAP2 POP POP JUMP JUMPDEST PUSH1 0x0 DUP2 MLOAD SWAP1 POP SWAP2 SWAP1 POP JUMP JUMPDEST PUSH32 0x4E487B7100000000000000000000000000000000000000000000000000000000 PUSH1 0x0 MSTORE PUSH1 0x22 PUSH1 0x4 MSTORE PUSH1 0x24 PUSH1 0x0 REVERT JUMPDEST PUSH1 0x0 PUSH1 0x2 DUP3 DIV SWAP1 POP PUSH1 0x1 DUP3 AND DUP1 PUSH3 0x3BC JUMPI PUSH1 0x7F DUP3 AND SWAP2 POP JUMPDEST PUSH1 0x20 DUP3 LT DUP2 SUB PUSH3 0x3D2 JUMPI PUSH3 0x3D1 PUSH3 0x374 JUMP JUMPDEST JUMPDEST POP SWAP2 SWAP1 POP JUMP JUMPDEST PUSH1 0x0 DUP2 SWAP1 POP DUP2 PUSH1 0x0 MSTORE PUSH1 0x20 PUSH1 0x0 KECCAK256 SWAP1 POP SWAP2 SWAP1 POP JUMP JUMPDEST PUSH1 0x0 PUSH1 0x20 PUSH1 0x1F DUP4 ADD DIV SWAP1 POP SWAP2 SWAP1 POP JUMP JUMPDEST PUSH1 0x0 DUP3 DUP3 SHL SWAP1 POP SWAP3 SWAP2 POP POP JUMP JUMPDEST PUSH1 0x0 PUSH1 0x8 DUP4 MUL PUSH3 0x43C PUSH32 0xFFFFFFFFFFFFFFFFFFFFFFFFFFFFFFFFFFFFFFFFFFFFFFFFFFFFFFFFFFFFFFFF DUP3 PUSH3 0x3FD JUMP JUMPDEST PUSH3 0x448 DUP7 DUP4 PUSH3 0x3FD JUMP JUMPDEST SWAP6 POP DUP1 NOT DUP5 AND SWAP4 POP DUP1 DUP7 AND DUP5 OR SWAP3 POP POP POP SWAP4 SWAP3 POP POP POP JUMP JUMPDEST PUSH1 0x0 DUP2 SWAP1 POP SWAP2 SWAP1 POP JUMP JUMPDEST PUSH1 0x0 DUP2 SWAP1 POP SWAP2 SWAP1 POP JUMP JUMPDEST PUSH1 0x0 PUSH3 0x495 PUSH3 0x48F PUSH3 0x489 DUP5 PUSH3 0x460 JUMP JUMPDEST PUSH3 0x46A JUMP JUMPDEST PUSH3 0x460 JUMP JUMPDEST SWAP1 POP SWAP2 SWAP1 POP JUMP JUMPDEST PUSH1 0x0 DUP2 SWAP1 POP SWAP2 SWAP1 POP JUMP JUMPDEST PUSH3 0x4B1 DUP4 PUSH3 0x474 JUMP JUMPDEST PUSH3 0x4C9 PUSH3 0x4C0 DUP3 PUSH3 0x49C JUMP JUMPDEST DUP5 DUP5 SLOAD PUSH3 0x40A JUMP JUMPDEST DUP3 SSTORE POP POP POP POP JUMP JUMPDEST PUSH1 0x0 SWAP1 JUMP JUMPDEST PUSH3 0x4E0 PUSH3 0x4D1 JUMP JUMPDEST PUSH3 0x4ED DUP2 DUP5 DUP5 PUSH3 0x4A6 JUMP JUMPDEST POP POP POP JUMP JUMPDEST JUMPDEST DUP2 DUP2 LT ISZERO PUSH3 0x515 JUMPI PUSH3 0x509 PUSH1 0x0 DUP3 PUSH3 0x4D6 JUMP JUMPDEST PUSH1 0x1 DUP2 ADD SWAP1 POP PUSH3 0x4F3 JUMP JUMPDEST POP POP JUMP JUMPDEST PUSH1 0x1F DUP3 GT ISZERO PUSH3 0x564 JUMPI PUSH3 0x52E DUP2 PUSH3 0x3D8 JUMP JUMPDEST PUSH3 0x539 DUP5 PUSH3 0x3ED JUMP JUMPDEST DUP2 ADD PUSH1 0x20 DUP6 LT ISZERO PUSH3 0x549 JUMPI DUP2 SWAP1 POP JUMPDEST PUSH3 0x561 PUSH3 0x558 DUP6 PUSH3 0x3ED JUMP JUMPDEST DUP4 ADD DUP3 PUSH3 0x4F2 JUMP JUMPDEST POP POP JUMPDEST POP POP POP JUMP JUMPDEST PUSH1 0x0 DUP3 DUP3 SHR SWAP1 POP SWAP3 SWAP2 POP POP JUMP JUMPDEST PUSH1 0x0 PUSH3 0x589 PUSH1 0x0 NOT DUP5 PUSH1 0x8 MUL PUSH3 0x569 JUMP JUMPDEST NOT DUP1 DUP4 AND SWAP2 POP POP SWAP3 SWAP2 POP POP JUMP JUMPDEST PUSH1 0x0 PUSH3 0x5A4 DUP4 DUP4 PUSH3 0x576 JUMP JUMPDEST SWAP2 POP DUP3 PUSH1 0x2 MUL DUP3 OR SWAP1 POP SWAP3 SWAP2 POP POP JUMP JUMPDEST PUSH3 0x5BF DUP3 PUSH3 0x369 JUMP JUMPDEST PUSH8 0xFFFFFFFFFFFFFFFF DUP2 GT ISZERO PUSH3 0x5DB JUMPI PUSH3 0x5DA PUSH3 0x1B4 JUMP JUMPDEST JUMPDEST PUSH3 0x5E7 DUP3 SLOAD PUSH3 0x3A3 JUMP JUMPDEST PUSH3 0x5F4 DUP3 DUP3 DUP6 PUSH3 0x519 JUMP JUMPDEST PUSH1 0x0 PUSH1 0x20 SWAP1 POP PUSH1 0x1F DUP4 GT PUSH1 0x1 DUP2 EQ PUSH3 0x62C JUMPI PUSH1 0x0 DUP5 ISZERO PUSH3 0x617 JUMPI DUP3 DUP8 ADD MLOAD SWAP1 POP JUMPDEST PUSH3 0x623 DUP6 DUP3 PUSH3 0x596 JUMP JUMPDEST DUP7 SSTORE POP PUSH3 0x693 JUMP JUMPDEST PUSH1 0x1F NOT DUP5 AND PUSH3 0x63C DUP7 PUSH3 0x3D8 JUMP JUMPDEST PUSH1 0x0 JUMPDEST DUP3 DUP2 LT ISZERO PUSH3 0x666 JUMPI DUP5 DUP10 ADD MLOAD DUP3 SSTORE PUSH1 0x1 DUP3 ADD SWAP2 POP PUSH1 0x20 DUP6 ADD SWAP5 POP PUSH1 0x20 DUP2 ADD SWAP1 POP PUSH3 0x63F JUMP JUMPDEST DUP7 DUP4 LT ISZERO PUSH3 0x686 JUMPI DUP5 DUP10 ADD MLOAD PUSH3 0x682 PUSH1 0x1F DUP10 AND DUP3 PUSH3 0x576 JUMP JUMPDEST DUP4 SSTORE POP JUMPDEST PUSH1 0x1 PUSH1 0x2 DUP9 MUL ADD DUP9 SSTORE POP POP POP JUMPDEST POP POP POP POP POP POP JUMP JUMPDEST PUSH2 0x3486 DUP1 PUSH3 0x6AB PUSH1 0x0 CODECOPY PUSH1 0x0 RETURN INVALID PUSH1 0x80 PUSH1 0x40 MSTORE PUSH1 0x4 CALLDATASIZE LT PUSH2 0x14A JUMPI PUSH1 0x0 CALLDATALOAD PUSH1 0xE0 SHR DUP1 PUSH4 0x715018A6 GT PUSH2 0xB6 JUMPI DUP1 PUSH4 0xB071401B GT PUSH2 0x6F JUMPI DUP1 PUSH4 0xB071401B EQ PUSH2 0x45E JUMPI DUP1 PUSH4 0xB3CEA217 EQ PUSH2 0x487 JUMPI DUP1 PUSH4 0xD5ABEB01 EQ PUSH2 0x4B2 JUMPI DUP1 PUSH4 0xE985E9C5 EQ PUSH2 0x4DD JUMPI DUP1 PUSH4 0xF242432A EQ PUSH2 0x51A JUMPI DUP1 PUSH4 0xF2FDE38B EQ PUSH2 0x543 JUMPI PUSH2 0x14A JUMP JUMPDEST DUP1 PUSH4 0x715018A6 EQ PUSH2 0x381 JUMPI DUP1 PUSH4 0x8DA5CB5B EQ PUSH2 0x398 JUMPI DUP1 PUSH4 0x94354FD0 EQ PUSH2 0x3C3 JUMPI DUP1 PUSH4 0x95D89B41 EQ PUSH2 0x3EE JUMPI DUP1 PUSH4 0xA0712D68 EQ PUSH2 0x419 JUMPI DUP1 PUSH4 0xA22CB465 EQ PUSH2 0x435 JUMPI PUSH2 0x14A JUMP JUMPDEST DUP1 PUSH4 0x16C38B3C GT PUSH2 0x108 JUMPI DUP1 PUSH4 0x16C38B3C EQ PUSH2 0x287 JUMPI DUP1 PUSH4 0x2EB2C2D6 EQ PUSH2 0x2B0 JUMPI DUP1 PUSH4 0x3CCFD60B EQ PUSH2 0x2D9 JUMPI DUP1 PUSH4 0x44A0D68A EQ PUSH2 0x2F0 JUMPI DUP1 PUSH4 0x4E1273F4 EQ PUSH2 0x319 JUMPI DUP1 PUSH4 0x5C975ABB EQ PUSH2 0x356 JUMPI PUSH2 0x14A JUMP JUMPDEST DUP1 PUSH3 0xFDD58E EQ PUSH2 0x14F JUMPI DUP1 PUSH4 0x1FFC9A7 EQ PUSH2 0x18C JUMPI DUP1 PUSH4 0x47FC9AA EQ PUSH2 0x1C9 JUMPI DUP1 PUSH4 0x6FDDE03 EQ PUSH2 0x1F4 JUMPI DUP1 PUSH4 0xE89341C EQ PUSH2 0x21F JUMPI DUP1 PUSH4 0x13FAEDE6 EQ PUSH2 0x25C JUMPI JUMPDEST PUSH1 0x0 DUP1 REVERT JUMPDEST CALLVALUE DUP1 ISZERO PUSH2 0x15B JUMPI PUSH1 0x0 DUP1 REVERT JUMPDEST POP PUSH2 0x176 PUSH1 0x4 DUP1 CALLDATASIZE SUB DUP2 ADD SWAP1 PUSH2 0x171 SWAP2 SWAP1 PUSH2 0x1E70 JUMP JUMPDEST PUSH2 0x56C JUMP JUMPDEST PUSH1 0x40 MLOAD PUSH2 0x183 SWAP2 SWAP1 PUSH2 0x1EBF JUMP JUMPDEST PUSH1 0x40 MLOAD DUP1 SWAP2 SUB SWAP1 RETURN JUMPDEST CALLVALUE DUP1 ISZERO PUSH2 0x198 JUMPI PUSH1 0x0 DUP1 REVERT JUMPDEST POP PUSH2 0x1B3 PUSH1 0x4 DUP1 CALLDATASIZE SUB DUP2 ADD SWAP1 PUSH2 0x1AE SWAP2 SWAP1 PUSH2 0x1F32 JUMP JUMPDEST PUSH2 0x634 JUMP JUMPDEST PUSH1 0x40 MLOAD PUSH2 0x1C0 SWAP2 SWAP1 PUSH2 0x1F7A JUMP JUMPDEST PUSH1 0x40 MLOAD DUP1 SWAP2 SUB SWAP1 RETURN JUMPDEST CALLVALUE DUP1 ISZERO PUSH2 0x1D5 JUMPI PUSH1 0x0 DUP1 REVERT JUMPDEST POP PUSH2 0x1DE PUSH2 0x716 JUMP JUMPDEST PUSH1 0x40 MLOAD PUSH2 0x1EB SWAP2 SWAP1 PUSH2 0x1EBF JUMP JUMPDEST PUSH1 0x40 MLOAD DUP1 SWAP2 SUB SWAP1 RETURN JUMPDEST CALLVALUE DUP1 ISZERO PUSH2 0x200 JUMPI PUSH1 0x0 DUP1 REVERT JUMPDEST POP PUSH2 0x209 PUSH2 0x722 JUMP JUMPDEST PUSH1 0x40 MLOAD PUSH2 0x216 SWAP2 SWAP1 PUSH2 0x2025 JUMP JUMPDEST PUSH1 0x40 MLOAD DUP1 SWAP2 SUB SWAP1 RETURN JUMPDEST CALLVALUE DUP1 ISZERO PUSH2 0x22B JUMPI PUSH1 0x0 DUP1 REVERT JUMPDEST POP PUSH2 0x246 PUSH1 0x4 DUP1 CALLDATASIZE SUB DUP2 ADD SWAP1 PUSH2 0x241 SWAP2 SWAP1 PUSH2 0x2047 JUMP JUMPDEST PUSH2 0x75F JUMP JUMPDEST PUSH1 0x40 MLOAD PUSH2 0x253 SWAP2 SWAP1 PUSH2 0x2025 JUMP JUMPDEST PUSH1 0x40 MLOAD DUP1 SWAP2 SUB SWAP1 RETURN JUMPDEST CALLVALUE DUP1 ISZERO PUSH2 0x268 JUMPI PUSH1 0x0 DUP1 REVERT JUMPDEST POP PUSH2 0x271 PUSH2 0x7F3 JUMP JUMPDEST PUSH1 0x40 MLOAD PUSH2 0x27E SWAP2 SWAP1 PUSH2 0x1EBF JUMP JUMPDEST PUSH1 0x40 MLOAD DUP1 SWAP2 SUB SWAP1 RETURN JUMPDEST CALLVALUE DUP1 ISZERO PUSH2 0x293 JUMPI PUSH1 0x0 DUP1 REVERT JUMPDEST POP PUSH2 0x2AE PUSH1 0x4 DUP1 CALLDATASIZE SUB DUP2 ADD SWAP1 PUSH2 0x2A9 SWAP2 SWAP1 PUSH2 0x20A0 JUMP JUMPDEST PUSH2 0x7F9 JUMP JUMPDEST STOP JUMPDEST CALLVALUE DUP1 ISZERO PUSH2 0x2BC JUMPI PUSH1 0x0 DUP1 REVERT JUMPDEST POP PUSH2 0x2D7 PUSH1 0x4 DUP1 CALLDATASIZE SUB DUP2 ADD SWAP1 PUSH2 0x2D2 SWAP2 SWAP1 PUSH2 0x22CA JUMP JUMPDEST PUSH2 0x81E JUMP JUMPDEST STOP JUMPDEST CALLVALUE DUP1 ISZERO PUSH2 0x2E5 JUMPI PUSH1 0x0 DUP1 REVERT JUMPDEST POP PUSH2 0x2EE PUSH2 0x8BF JUMP JUMPDEST STOP JUMPDEST CALLVALUE DUP1 ISZERO PUSH2 0x2FC JUMPI PUSH1 0x0 DUP1 REVERT JUMPDEST POP PUSH2 0x317 PUSH1 0x4 DUP1 CALLDATASIZE SUB DUP2 ADD SWAP1 PUSH2 0x312 SWAP2 SWAP1 PUSH2 0x2047 JUMP JUMPDEST PUSH2 0x97D JUMP JUMPDEST STOP JUMPDEST CALLVALUE DUP1 ISZERO PUSH2 0x325 JUMPI PUSH1 0x0 DUP1 REVERT JUMPDEST POP PUSH2 0x340 PUSH1 0x4 DUP1 CALLDATASIZE SUB DUP2 ADD SWAP1 PUSH2 0x33B SWAP2 SWAP1 PUSH2 0x245C JUMP JUMPDEST PUSH2 0x98F JUMP JUMPDEST PUSH1 0x40 MLOAD PUSH2 0x34D SWAP2 SWAP1 PUSH2 0x2592 JUMP JUMPDEST PUSH1 0x40 MLOAD DUP1 SWAP2 SUB SWAP1 RETURN JUMPDEST CALLVALUE DUP1 ISZERO PUSH2 0x362 JUMPI PUSH1 0x0 DUP1 REVERT JUMPDEST POP PUSH2 0x36B PUSH2 0xAA8 JUMP JUMPDEST PUSH1 0x40 MLOAD PUSH2 0x378 SWAP2 SWAP1 PUSH2 0x1F7A JUMP JUMPDEST PUSH1 0x40 MLOAD DUP1 SWAP2 SUB SWAP1 RETURN JUMPDEST CALLVALUE DUP1 ISZERO PUSH2 0x38D JUMPI PUSH1 0x0 DUP1 REVERT JUMPDEST POP PUSH2 0x396 PUSH2 0xABB JUMP JUMPDEST STOP JUMPDEST CALLVALUE DUP1 ISZERO PUSH2 0x3A4 JUMPI PUSH1 0x0 DUP1 REVERT JUMPDEST POP PUSH2 0x3AD PUSH2 0xACF JUMP JUMPDEST PUSH1 0x40 MLOAD PUSH2 0x3BA SWAP2 SWAP1 PUSH2 0x25C3 JUMP JUMPDEST PUSH1 0x40 MLOAD DUP1 SWAP2 SUB SWAP1 RETURN JUMPDEST CALLVALUE DUP1 ISZERO PUSH2 0x3CF JUMPI PUSH1 0x0 DUP1 REVERT JUMPDEST POP PUSH2 0x3D8 PUSH2 0xAF9 JUMP JUMPDEST PUSH1 0x40 MLOAD PUSH2 0x3E5 SWAP2 SWAP1 PUSH2 0x1EBF JUMP JUMPDEST PUSH1 0x40 MLOAD DUP1 SWAP2 SUB SWAP1 RETURN JUMPDEST CALLVALUE DUP1 ISZERO PUSH2 0x3FA JUMPI PUSH1 0x0 DUP1 REVERT JUMPDEST POP PUSH2 0x403 PUSH2 0xAFF JUMP JUMPDEST PUSH1 0x40 MLOAD PUSH2 0x410 SWAP2 SWAP1 PUSH2 0x2025 JUMP JUMPDEST PUSH1 0x40 MLOAD DUP1 SWAP2 SUB SWAP1 RETURN JUMPDEST PUSH2 0x433 PUSH1 0x4 DUP1 CALLDATASIZE SUB DUP2 ADD SWAP1 PUSH2 0x42E SWAP2 SWAP1 PUSH2 0x2047 JUMP JUMPDEST PUSH2 0xB3C JUMP JUMPDEST STOP JUMPDEST CALLVALUE DUP1 ISZERO PUSH2 0x441 JUMPI PUSH1 0x0 DUP1 REVERT JUMPDEST POP PUSH2 0x45C PUSH1 0x4 DUP1 CALLDATASIZE SUB DUP2 ADD SWAP1 PUSH2 0x457 SWAP2 SWAP1 PUSH2 0x25DE JUMP JUMPDEST PUSH2 0xCD0 JUMP JUMPDEST STOP JUMPDEST CALLVALUE DUP1 ISZERO PUSH2 0x46A JUMPI PUSH1 0x0 DUP1 REVERT JUMPDEST POP PUSH2 0x485 PUSH1 0x4 DUP1 CALLDATASIZE SUB DUP2 ADD SWAP1 PUSH2 0x480 SWAP2 SWAP1 PUSH2 0x2047 JUMP JUMPDEST PUSH2 0xCE6 JUMP JUMPDEST STOP JUMPDEST CALLVALUE DUP1 ISZERO PUSH2 0x493 JUMPI PUSH1 0x0 DUP1 REVERT JUMPDEST POP PUSH2 0x49C PUSH2 0xCF8 JUMP JUMPDEST PUSH1 0x40 MLOAD PUSH2 0x4A9 SWAP2 SWAP1 PUSH2 0x1EBF JUMP JUMPDEST PUSH1 0x40 MLOAD DUP1 SWAP2 SUB SWAP1 RETURN JUMPDEST CALLVALUE DUP1 ISZERO PUSH2 0x4BE JUMPI PUSH1 0x0 DUP1 REVERT JUMPDEST POP PUSH2 0x4C7 PUSH2 0xCFD JUMP JUMPDEST PUSH1 0x40 MLOAD PUSH2 0x4D4 SWAP2 SWAP1 PUSH2 0x1EBF JUMP JUMPDEST PUSH1 0x40 MLOAD DUP1 SWAP2 SUB SWAP1 RETURN JUMPDEST CALLVALUE DUP1 ISZERO PUSH2 0x4E9 JUMPI PUSH1 0x0 DUP1 REVERT JUMPDEST POP PUSH2 0x504 PUSH1 0x4 DUP1 CALLDATASIZE SUB DUP2 ADD SWAP1 PUSH2 0x4FF SWAP2 SWAP1 PUSH2 0x261E JUMP JUMPDEST PUSH2 0xD03 JUMP JUMPDEST PUSH1 0x40 MLOAD PUSH2 0x511 SWAP2 SWAP1 PUSH2 0x1F7A JUMP JUMPDEST PUSH1 0x40 MLOAD DUP1 SWAP2 SUB SWAP1 RETURN JUMPDEST CALLVALUE DUP1 ISZERO PUSH2 0x526 JUMPI PUSH1 0x0 DUP1 REVERT JUMPDEST POP PUSH2 0x541 PUSH1 0x4 DUP1 CALLDATASIZE SUB DUP2 ADD SWAP1 PUSH2 0x53C SWAP2 SWAP1 PUSH2 0x265E JUMP JUMPDEST PUSH2 0xD97 JUMP JUMPDEST STOP JUMPDEST CALLVALUE DUP1 ISZERO PUSH2 0x54F JUMPI PUSH1 0x0 DUP1 REVERT JUMPDEST POP PUSH2 0x56A PUSH1 0x4 DUP1 CALLDATASIZE SUB DUP2 ADD SWAP1 PUSH2 0x565 SWAP2 SWAP1 PUSH2 0x26F5 JUMP JUMPDEST PUSH2 0xE38 JUMP JUMPDEST STOP JUMPDEST PUSH1 0x0 DUP1 PUSH20 0xFFFFFFFFFFFFFFFFFFFFFFFFFFFFFFFFFFFFFFFF AND DUP4 PUSH20 0xFFFFFFFFFFFFFFFFFFFFFFFFFFFFFFFFFFFFFFFF AND SUB PUSH2 0x5DC JUMPI PUSH1 0x40 MLOAD PUSH32 0x8C379A000000000000000000000000000000000000000000000000000000000 DUP2 MSTORE PUSH1 0x4 ADD PUSH2 0x5D3 SWAP1 PUSH2 0x2794 JUMP JUMPDEST PUSH1 0x40 MLOAD DUP1 SWAP2 SUB SWAP1 REVERT JUMPDEST PUSH1 0x0 DUP1 DUP4 DUP2 MSTORE PUSH1 0x20 ADD SWAP1 DUP2 MSTORE PUSH1 0x20 ADD PUSH1 0x0 KECCAK256 PUSH1 0x0 DUP5 PUSH20 0xFFFFFFFFFFFFFFFFFFFFFFFFFFFFFFFFFFFFFFFF AND PUSH20 0xFFFFFFFFFFFFFFFFFFFFFFFFFFFFFFFFFFFFFFFF AND DUP2 MSTORE PUSH1 0x20 ADD SWAP1 DUP2 MSTORE PUSH1 0x20 ADD PUSH1 0x0 KECCAK256 SLOAD SWAP1 POP SWAP3 SWAP2 POP POP JUMP JUMPDEST PUSH1 0x0 PUSH32 0xD9B67A2600000000000000000000000000000000000000000000000000000000 PUSH28 0xFFFFFFFFFFFFFFFFFFFFFFFFFFFFFFFFFFFFFFFFFFFFFFFFFFFFFFFF NOT AND DUP3 PUSH28 0xFFFFFFFFFFFFFFFFFFFFFFFFFFFFFFFFFFFFFFFFFFFFFFFFFFFFFFFF NOT AND EQ DUP1 PUSH2 0x6FF JUMPI POP PUSH32 0xE89341C00000000000000000000000000000000000000000000000000000000 PUSH28 0xFFFFFFFFFFFFFFFFFFFFFFFFFFFFFFFFFFFFFFFFFFFFFFFFFFFFFFFF NOT AND DUP3 PUSH28 0xFFFFFFFFFFFFFFFFFFFFFFFFFFFFFFFFFFFFFFFFFFFFFFFFFFFFFFFF NOT AND EQ JUMPDEST DUP1 PUSH2 0x70F JUMPI POP PUSH2 0x70E DUP3 PUSH2 0xEBB JUMP JUMPDEST JUMPDEST SWAP1 POP SWAP2 SWAP1 POP JUMP JUMPDEST PUSH1 0x4 DUP1 PUSH1 0x0 ADD SLOAD SWAP1 POP DUP2 JUMP JUMPDEST PUSH1 0x60 PUSH1 0x40 MLOAD DUP1 PUSH1 0x40 ADD PUSH1 0x40 MSTORE DUP1 PUSH1 0x5 DUP2 MSTORE PUSH1 0x20 ADD PUSH32 0x4F62616B65000000000000000000000000000000000000000000000000000000 DUP2 MSTORE POP SWAP1 POP SWAP1 JUMP JUMPDEST PUSH1 0x60 PUSH1 0x2 DUP1 SLOAD PUSH2 0x76E SWAP1 PUSH2 0x27E3 JUMP JUMPDEST DUP1 PUSH1 0x1F ADD PUSH1 0x20 DUP1 SWAP2 DIV MUL PUSH1 0x20 ADD PUSH1 0x40 MLOAD SWAP1 DUP2 ADD PUSH1 0x40 MSTORE DUP1 SWAP3 SWAP2 SWAP1 DUP2 DUP2 MSTORE PUSH1 0x20 ADD DUP3 DUP1 SLOAD PUSH2 0x79A SWAP1 PUSH2 0x27E3 JUMP JUMPDEST DUP1 ISZERO PUSH2 0x7E7 JUMPI DUP1 PUSH1 0x1F LT PUSH2 0x7BC JUMPI PUSH2 0x100 DUP1 DUP4 SLOAD DIV MUL DUP4 MSTORE SWAP2 PUSH1 0x20 ADD SWAP2 PUSH2 0x7E7 JUMP JUMPDEST DUP3 ADD SWAP2 SWAP1 PUSH1 0x0 MSTORE PUSH1 0x20 PUSH1 0x0 KECCAK256 SWAP1 JUMPDEST DUP2 SLOAD DUP2 MSTORE SWAP1 PUSH1 0x1 ADD SWAP1 PUSH1 0x20 ADD DUP1 DUP4 GT PUSH2 0x7CA JUMPI DUP3 SWAP1 SUB PUSH1 0x1F AND DUP3 ADD SWAP2 JUMPDEST POP POP POP POP POP SWAP1 POP SWAP2 SWAP1 POP JUMP JUMPDEST PUSH1 0x5 SLOAD DUP2 JUMP JUMPDEST PUSH2 0x801 PUSH2 0xF25 JUMP JUMPDEST DUP1 PUSH1 0x8 PUSH1 0x0 PUSH2 0x100 EXP DUP2 SLOAD DUP2 PUSH1 0xFF MUL NOT AND SWAP1 DUP4 ISZERO ISZERO MUL OR SWAP1 SSTORE POP POP JUMP JUMPDEST PUSH2 0x826 PUSH2 0xFA3 JUMP JUMPDEST PUSH20 0xFFFFFFFFFFFFFFFFFFFFFFFFFFFFFFFFFFFFFFFF AND DUP6 PUSH20 0xFFFFFFFFFFFFFFFFFFFFFFFFFFFFFFFFFFFFFFFF AND EQ DUP1 PUSH2 0x86C JUMPI POP PUSH2 0x86B DUP6 PUSH2 0x866 PUSH2 0xFA3 JUMP JUMPDEST PUSH2 0xD03 JUMP JUMPDEST JUMPDEST PUSH2 0x8AB JUMPI PUSH1 0x40 MLOAD PUSH32 0x8C379A000000000000000000000000000000000000000000000000000000000 DUP2 MSTORE PUSH1 0x4 ADD PUSH2 0x8A2 SWAP1 PUSH2 0x2886 JUMP JUMPDEST PUSH1 0x40 MLOAD DUP1 SWAP2 SUB SWAP1 REVERT JUMPDEST PUSH2 0x8B8 DUP6 DUP6 DUP6 DUP6 DUP6 PUSH2 0xFAB JUMP JUMPDEST POP POP POP POP POP JUMP JUMPDEST PUSH2 0x8C7 PUSH2 0xF25 JUMP JUMPDEST PUSH1 0x0 PUSH2 0x8D1 PUSH2 0xACF JUMP JUMPDEST PUSH20 0xFFFFFFFFFFFFFFFFFFFFFFFFFFFFFFFFFFFFFFFF AND SELFBALANCE PUSH1 0x40 MLOAD PUSH2 0x8F4 SWAP1 PUSH2 0x28D7 JUMP JUMPDEST PUSH1 0x0 PUSH1 0x40 MLOAD DUP1 DUP4 SUB DUP2 DUP6 DUP8 GAS CALL SWAP3 POP POP POP RETURNDATASIZE DUP1 PUSH1 0x0 DUP2 EQ PUSH2 0x931 JUMPI PUSH1 0x40 MLOAD SWAP2 POP PUSH1 0x1F NOT PUSH1 0x3F RETURNDATASIZE ADD AND DUP3 ADD PUSH1 0x40 MSTORE RETURNDATASIZE DUP3 MSTORE RETURNDATASIZE PUSH1 0x0 PUSH1 0x20 DUP5 ADD RETURNDATACOPY PUSH2 0x936 JUMP JUMPDEST PUSH1 0x60 SWAP2 POP JUMPDEST POP POP SWAP1 POP DUP1 PUSH2 0x97A JUMPI PUSH1 0x40 MLOAD PUSH32 0x8C379A000000000000000000000000000000000000000000000000000000000 DUP2 MSTORE PUSH1 0x4 ADD PUSH2 0x971 SWAP1 PUSH2 0x295E JUMP JUMPDEST PUSH1 0x40 MLOAD DUP1 SWAP2 SUB SWAP1 REVERT JUMPDEST POP JUMP JUMPDEST PUSH2 0x985 PUSH2 0xF25 JUMP JUMPDEST DUP1 PUSH1 0x5 DUP2 SWAP1 SSTORE POP POP JUMP JUMPDEST PUSH1 0x60 DUP2 MLOAD DUP4 MLOAD EQ PUSH2 0x9D5 JUMPI PUSH1 0x40 MLOAD PUSH32 0x8C379A000000000000000000000000000000000000000000000000000000000 DUP2 MSTORE PUSH1 0x4 ADD PUSH2 0x9CC SWAP1 PUSH2 0x29F0 JUMP JUMPDEST PUSH1 0x40 MLOAD DUP1 SWAP2 SUB SWAP1 REVERT JUMPDEST PUSH1 0x0 DUP4 MLOAD PUSH8 0xFFFFFFFFFFFFFFFF DUP2 GT ISZERO PUSH2 0x9F2 JUMPI PUSH2 0x9F1 PUSH2 0x20D2 JUMP JUMPDEST JUMPDEST PUSH1 0x40 MLOAD SWAP1 DUP1 DUP3 MSTORE DUP1 PUSH1 0x20 MUL PUSH1 0x20 ADD DUP3 ADD PUSH1 0x40 MSTORE DUP1 ISZERO PUSH2 0xA20 JUMPI DUP2 PUSH1 0x20 ADD PUSH1 0x20 DUP3 MUL DUP1 CALLDATASIZE DUP4 CALLDATACOPY DUP1 DUP3 ADD SWAP2 POP POP SWAP1 POP JUMPDEST POP SWAP1 POP PUSH1 0x0 JUMPDEST DUP5 MLOAD DUP2 LT ISZERO PUSH2 0xA9D JUMPI PUSH2 0xA6D DUP6 DUP3 DUP2 MLOAD DUP2 LT PUSH2 0xA45 JUMPI PUSH2 0xA44 PUSH2 0x2A10 JUMP JUMPDEST JUMPDEST PUSH1 0x20 MUL PUSH1 0x20 ADD ADD MLOAD DUP6 DUP4 DUP2 MLOAD DUP2 LT PUSH2 0xA60 JUMPI PUSH2 0xA5F PUSH2 0x2A10 JUMP JUMPDEST JUMPDEST PUSH1 0x20 MUL PUSH1 0x20 ADD ADD MLOAD PUSH2 0x56C JUMP JUMPDEST DUP3 DUP3 DUP2 MLOAD DUP2 LT PUSH2 0xA80 JUMPI PUSH2 0xA7F PUSH2 0x2A10 JUMP JUMPDEST JUMPDEST PUSH1 0x20 MUL PUSH1 0x20 ADD ADD DUP2 DUP2 MSTORE POP POP DUP1 PUSH2 0xA96 SWAP1 PUSH2 0x2A6E JUMP JUMPDEST SWAP1 POP PUSH2 0xA26 JUMP JUMPDEST POP DUP1 SWAP2 POP POP SWAP3 SWAP2 POP POP JUMP JUMPDEST PUSH1 0x8 PUSH1 0x0 SWAP1 SLOAD SWAP1 PUSH2 0x100 EXP SWAP1 DIV PUSH1 0xFF AND DUP2 JUMP JUMPDEST PUSH2 0xAC3 PUSH2 0xF25 JUMP JUMPDEST PUSH2 0xACD PUSH1 0x0 PUSH2 0x12CC JUMP JUMPDEST JUMP JUMPDEST PUSH1 0x0 PUSH1 0x3 PUSH1 0x0 SWAP1 SLOAD SWAP1 PUSH2 0x100 EXP SWAP1 DIV PUSH20 0xFFFFFFFFFFFFFFFFFFFFFFFFFFFFFFFFFFFFFFFF AND SWAP1 POP SWAP1 JUMP JUMPDEST PUSH1 0x7 SLOAD DUP2 JUMP JUMPDEST PUSH1 0x60 PUSH1 0x40 MLOAD DUP1 PUSH1 0x40 ADD PUSH1 0x40 MSTORE DUP1 PUSH1 0x3 DUP2 MSTORE PUSH1 0x20 ADD PUSH32 0x4F424B0000000000000000000000000000000000000000000000000000000000 DUP2 MSTORE POP SWAP1 POP SWAP1 JUMP JUMPDEST DUP1 PUSH1 0x0 DUP2 GT DUP1 ISZERO PUSH2 0xB4F JUMPI POP PUSH1 0x7 SLOAD DUP2 GT ISZERO JUMPDEST PUSH2 0xB8E JUMPI PUSH1 0x40 MLOAD PUSH32 0x8C379A000000000000000000000000000000000000000000000000000000000 DUP2 MSTORE PUSH1 0x4 ADD PUSH2 0xB85 SWAP1 PUSH2 0x2B02 JUMP JUMPDEST PUSH1 0x40 MLOAD DUP1 SWAP2 SUB SWAP1 REVERT JUMPDEST PUSH1 0x6 SLOAD DUP2 PUSH2 0xB9C PUSH1 0x4 PUSH2 0x1392 JUMP JUMPDEST PUSH2 0xBA6 SWAP2 SWAP1 PUSH2 0x2B22 JUMP JUMPDEST GT ISZERO PUSH2 0xBE7 JUMPI PUSH1 0x40 MLOAD PUSH32 0x8C379A000000000000000000000000000000000000000000000000000000000 DUP2 MSTORE PUSH1 0x4 ADD PUSH2 0xBDE SWAP1 PUSH2 0x2BA2 JUMP JUMPDEST PUSH1 0x40 MLOAD DUP1 SWAP2 SUB SWAP1 REVERT JUMPDEST PUSH1 0x8 PUSH1 0x0 SWAP1 SLOAD SWAP1 PUSH2 0x100 EXP SWAP1 DIV PUSH1 0xFF AND ISZERO PUSH2 0xC37 JUMPI PUSH1 0x40 MLOAD PUSH32 0x8C379A000000000000000000000000000000000000000000000000000000000 DUP2 MSTORE PUSH1 0x4 ADD PUSH2 0xC2E SWAP1 PUSH2 0x2C0E JUMP JUMPDEST PUSH1 0x40 MLOAD DUP1 SWAP2 SUB SWAP1 REVERT JUMPDEST DUP2 PUSH1 0x5 SLOAD PUSH2 0xC45 SWAP2 SWAP1 PUSH2 0x2C2E JUMP JUMPDEST CALLVALUE LT ISZERO PUSH2 0xC87 JUMPI PUSH1 0x40 MLOAD PUSH32 0x8C379A000000000000000000000000000000000000000000000000000000000 DUP2 MSTORE PUSH1 0x4 ADD PUSH2 0xC7E SWAP1 PUSH2 0x2CBC JUMP JUMPDEST PUSH1 0x40 MLOAD DUP1 SWAP2 SUB SWAP1 REVERT JUMPDEST PUSH1 0x0 JUMPDEST DUP3 DUP2 LT ISZERO PUSH2 0xCAF JUMPI PUSH2 0xC9C PUSH1 0x4 PUSH2 0x13A0 JUMP JUMPDEST DUP1 DUP1 PUSH2 0xCA7 SWAP1 PUSH2 0x2A6E JUMP JUMPDEST SWAP2 POP POP PUSH2 0xC8A JUMP JUMPDEST POP PUSH2 0xCCC CALLER PUSH1 0x1 DUP5 PUSH1 0x40 MLOAD DUP1 PUSH1 0x20 ADD PUSH1 0x40 MSTORE DUP1 PUSH1 0x0 DUP2 MSTORE POP PUSH2 0x13B6 JUMP JUMPDEST POP POP JUMP JUMPDEST PUSH2 0xCE2 PUSH2 0xCDB PUSH2 0xFA3 JUMP JUMPDEST DUP4 DUP4 PUSH2 0x1566 JUMP JUMPDEST POP POP JUMP JUMPDEST PUSH2 0xCEE PUSH2 0xF25 JUMP JUMPDEST DUP1 PUSH1 0x7 DUP2 SWAP1 SSTORE POP POP JUMP JUMPDEST PUSH1 0x1 DUP2 JUMP JUMPDEST PUSH1 0x6 SLOAD DUP2 JUMP JUMPDEST PUSH1 0x0 PUSH1 0x1 PUSH1 0x0 DUP5 PUSH20 0xFFFFFFFFFFFFFFFFFFFFFFFFFFFFFFFFFFFFFFFF AND PUSH20 0xFFFFFFFFFFFFFFFFFFFFFFFFFFFFFFFFFFFFFFFF AND DUP2 MSTORE PUSH1 0x20 ADD SWAP1 DUP2 MSTORE PUSH1 0x20 ADD PUSH1 0x0 KECCAK256 PUSH1 0x0 DUP4 PUSH20 0xFFFFFFFFFFFFFFFFFFFFFFFFFFFFFFFFFFFFFFFF AND PUSH20 0xFFFFFFFFFFFFFFFFFFFFFFFFFFFFFFFFFFFFFFFF AND DUP2 MSTORE PUSH1 0x20 ADD SWAP1 DUP2 MSTORE PUSH1 0x20 ADD PUSH1 0x0 KECCAK256 PUSH1 0x0 SWAP1 SLOAD SWAP1 PUSH2 0x100 EXP SWAP1 DIV PUSH1 0xFF AND SWAP1 POP SWAP3 SWAP2 POP POP JUMP JUMPDEST PUSH2 0xD9F PUSH2 0xFA3 JUMP JUMPDEST PUSH20 0xFFFFFFFFFFFFFFFFFFFFFFFFFFFFFFFFFFFFFFFF AND DUP6 PUSH20 0xFFFFFFFFFFFFFFFFFFFFFFFFFFFFFFFFFFFFFFFF AND EQ DUP1 PUSH2 0xDE5 JUMPI POP PUSH2 0xDE4 DUP6 PUSH2 0xDDF PUSH2 0xFA3 JUMP JUMPDEST PUSH2 0xD03 JUMP JUMPDEST JUMPDEST PUSH2 0xE24 JUMPI PUSH1 0x40 MLOAD PUSH32 0x8C379A000000000000000000000000000000000000000000000000000000000 DUP2 MSTORE PUSH1 0x4 ADD PUSH2 0xE1B SWAP1 PUSH2 0x2886 JUMP JUMPDEST PUSH1 0x40 MLOAD DUP1 SWAP2 SUB SWAP1 REVERT JUMPDEST PUSH2 0xE31 DUP6 DUP6 DUP6 DUP6 DUP6 PUSH2 0x16D2 JUMP JUMPDEST POP POP POP POP POP JUMP JUMPDEST PUSH2 0xE40 PUSH2 0xF25 JUMP JUMPDEST PUSH1 0x0 PUSH20 0xFFFFFFFFFFFFFFFFFFFFFFFFFFFFFFFFFFFFFFFF AND DUP2 PUSH20 0xFFFFFFFFFFFFFFFFFFFFFFFFFFFFFFFFFFFFFFFF AND SUB PUSH2 0xEAF JUMPI PUSH1 0x40 MLOAD PUSH32 0x8C379A000000000000000000000000000000000000000000000000000000000 DUP2 MSTORE PUSH1 0x4 ADD PUSH2 0xEA6 SWAP1 PUSH2 0x2D4E JUMP JUMPDEST PUSH1 0x40 MLOAD DUP1 SWAP2 SUB SWAP1 REVERT JUMPDEST PUSH2 0xEB8 DUP2 PUSH2 0x12CC JUMP JUMPDEST POP JUMP JUMPDEST PUSH1 0x0 PUSH32 0x1FFC9A700000000000000000000000000000000000000000000000000000000 PUSH28 0xFFFFFFFFFFFFFFFFFFFFFFFFFFFFFFFFFFFFFFFFFFFFFFFFFFFFFFFF NOT AND DUP3 PUSH28 0xFFFFFFFFFFFFFFFFFFFFFFFFFFFFFFFFFFFFFFFFFFFFFFFFFFFFFFFF NOT AND EQ SWAP1 POP SWAP2 SWAP1 POP JUMP JUMPDEST PUSH2 0xF2D PUSH2 0xFA3 JUMP JUMPDEST PUSH20 0xFFFFFFFFFFFFFFFFFFFFFFFFFFFFFFFFFFFFFFFF AND PUSH2 0xF4B PUSH2 0xACF JUMP JUMPDEST PUSH20 0xFFFFFFFFFFFFFFFFFFFFFFFFFFFFFFFFFFFFFFFF AND EQ PUSH2 0xFA1 JUMPI PUSH1 0x40 MLOAD PUSH32 0x8C379A000000000000000000000000000000000000000000000000000000000 DUP2 MSTORE PUSH1 0x4 ADD PUSH2 0xF98 SWAP1 PUSH2 0x2DBA JUMP JUMPDEST PUSH1 0x40 MLOAD DUP1 SWAP2 SUB SWAP1 REVERT JUMPDEST JUMP JUMPDEST PUSH1 0x0 CALLER SWAP1 POP SWAP1 JUMP JUMPDEST DUP2 MLOAD DUP4 MLOAD EQ PUSH2 0xFEF JUMPI PUSH1 0x40 MLOAD PUSH32 0x8C379A000000000000000000000000000000000000000000000000000000000 DUP2 MSTORE PUSH1 0x4 ADD PUSH2 0xFE6 SWAP1 PUSH2 0x2E4C JUMP JUMPDEST PUSH1 0x40 MLOAD DUP1 SWAP2 SUB SWAP1 REVERT JUMPDEST PUSH1 0x0 PUSH20 0xFFFFFFFFFFFFFFFFFFFFFFFFFFFFFFFFFFFFFFFF AND DUP5 PUSH20 0xFFFFFFFFFFFFFFFFFFFFFFFFFFFFFFFFFFFFFFFF AND SUB PUSH2 0x105E JUMPI PUSH1 0x40 MLOAD PUSH32 0x8C379A000000000000000000000000000000000000000000000000000000000 DUP2 MSTORE PUSH1 0x4 ADD PUSH2 0x1055 SWAP1 PUSH2 0x2EDE JUMP JUMPDEST PUSH1 0x40 MLOAD DUP1 SWAP2 SUB SWAP1 REVERT JUMPDEST PUSH1 0x0 PUSH2 0x1068 PUSH2 0xFA3 JUMP JUMPDEST SWAP1 POP PUSH2 0x1078 DUP2 DUP8 DUP8 DUP8 DUP8 DUP8 PUSH2 0x196D JUMP JUMPDEST PUSH1 0x0 JUMPDEST DUP5 MLOAD DUP2 LT ISZERO PUSH2 0x1229 JUMPI PUSH1 0x0 DUP6 DUP3 DUP2 MLOAD DUP2 LT PUSH2 0x1099 JUMPI PUSH2 0x1098 PUSH2 0x2A10 JUMP JUMPDEST JUMPDEST PUSH1 0x20 MUL PUSH1 0x20 ADD ADD MLOAD SWAP1 POP PUSH1 0x0 DUP6 DUP4 DUP2 MLOAD DUP2 LT PUSH2 0x10B8 JUMPI PUSH2 0x10B7 PUSH2 0x2A10 JUMP JUMPDEST JUMPDEST PUSH1 0x20 MUL PUSH1 0x20 ADD ADD MLOAD SWAP1 POP PUSH1 0x0 DUP1 PUSH1 0x0 DUP5 DUP2 MSTORE PUSH1 0x20 ADD SWAP1 DUP2 MSTORE PUSH1 0x20 ADD PUSH1 0x0 KECCAK256 PUSH1 0x0 DUP12 PUSH20 0xFFFFFFFFFFFFFFFFFFFFFFFFFFFFFFFFFFFFFFFF AND PUSH20 0xFFFFFFFFFFFFFFFFFFFFFFFFFFFFFFFFFFFFFFFF AND DUP2 MSTORE PUSH1 0x20 ADD SWAP1 DUP2 MSTORE PUSH1 0x20 ADD PUSH1 0x0 KECCAK256 SLOAD SWAP1 POP DUP2 DUP2 LT ISZERO PUSH2 0x1159 JUMPI PUSH1 0x40 MLOAD PUSH32 0x8C379A000000000000000000000000000000000000000000000000000000000 DUP2 MSTORE PUSH1 0x4 ADD PUSH2 0x1150 SWAP1 PUSH2 0x2F70 JUMP JUMPDEST PUSH1 0x40 MLOAD DUP1 SWAP2 SUB SWAP1 REVERT JUMPDEST DUP2 DUP2 SUB PUSH1 0x0 DUP1 DUP6 DUP2 MSTORE PUSH1 0x20 ADD SWAP1 DUP2 MSTORE PUSH1 0x20 ADD PUSH1 0x0 KECCAK256 PUSH1 0x0 DUP13 PUSH20 0xFFFFFFFFFFFFFFFFFFFFFFFFFFFFFFFFFFFFFFFF AND PUSH20 0xFFFFFFFFFFFFFFFFFFFFFFFFFFFFFFFFFFFFFFFF AND DUP2 MSTORE PUSH1 0x20 ADD SWAP1 DUP2 MSTORE PUSH1 0x20 ADD PUSH1 0x0 KECCAK256 DUP2 SWAP1 SSTORE POP DUP2 PUSH1 0x0 DUP1 DUP6 DUP2 MSTORE PUSH1 0x20 ADD SWAP1 DUP2 MSTORE PUSH1 0x20 ADD PUSH1 0x0 KECCAK256 PUSH1 0x0 DUP12 PUSH20 0xFFFFFFFFFFFFFFFFFFFFFFFFFFFFFFFFFFFFFFFF AND PUSH20 0xFFFFFFFFFFFFFFFFFFFFFFFFFFFFFFFFFFFFFFFF AND DUP2 MSTORE PUSH1 0x20 ADD SWAP1 DUP2 MSTORE PUSH1 0x20 ADD PUSH1 0x0 KECCAK256 PUSH1 0x0 DUP3 DUP3 SLOAD PUSH2 0x120E SWAP2 SWAP1 PUSH2 0x2B22 JUMP JUMPDEST SWAP3 POP POP DUP2 SWAP1 SSTORE POP POP POP POP DUP1 PUSH2 0x1222 SWAP1 PUSH2 0x2A6E JUMP JUMPDEST SWAP1 POP PUSH2 0x107B JUMP JUMPDEST POP DUP5 PUSH20 0xFFFFFFFFFFFFFFFFFFFFFFFFFFFFFFFFFFFFFFFF AND DUP7 PUSH20 0xFFFFFFFFFFFFFFFFFFFFFFFFFFFFFFFFFFFFFFFF AND DUP3 PUSH20 0xFFFFFFFFFFFFFFFFFFFFFFFFFFFFFFFFFFFFFFFF AND PUSH32 0x4A39DC06D4C0DBC64B70AF90FD698A233A518AA5D07E595D983B8C0526C8F7FB DUP8 DUP8 PUSH1 0x40 MLOAD PUSH2 0x12A0 SWAP3 SWAP2 SWAP1 PUSH2 0x2F90 JUMP JUMPDEST PUSH1 0x40 MLOAD DUP1 SWAP2 SUB SWAP1 LOG4 PUSH2 0x12B6 DUP2 DUP8 DUP8 DUP8 DUP8 DUP8 PUSH2 0x1975 JUMP JUMPDEST PUSH2 0x12C4 DUP2 DUP8 DUP8 DUP8 DUP8 DUP8 PUSH2 0x197D JUMP JUMPDEST POP POP POP POP POP POP JUMP JUMPDEST PUSH1 0x0 PUSH1 0x3 PUSH1 0x0 SWAP1 SLOAD SWAP1 PUSH2 0x100 EXP SWAP1 DIV PUSH20 0xFFFFFFFFFFFFFFFFFFFFFFFFFFFFFFFFFFFFFFFF AND SWAP1 POP DUP2 PUSH1 0x3 PUSH1 0x0 PUSH2 0x100 EXP DUP2 SLOAD DUP2 PUSH20 0xFFFFFFFFFFFFFFFFFFFFFFFFFFFFFFFFFFFFFFFF MUL NOT AND SWAP1 DUP4 PUSH20 0xFFFFFFFFFFFFFFFFFFFFFFFFFFFFFFFFFFFFFFFF AND MUL OR SWAP1 SSTORE POP DUP2 PUSH20 0xFFFFFFFFFFFFFFFFFFFFFFFFFFFFFFFFFFFFFFFF AND DUP2 PUSH20 0xFFFFFFFFFFFFFFFFFFFFFFFFFFFFFFFFFFFFFFFF AND PUSH32 0x8BE0079C531659141344CD1FD0A4F28419497F9722A3DAAFE3B4186F6B6457E0 PUSH1 0x40 MLOAD PUSH1 0x40 MLOAD DUP1 SWAP2 SUB SWAP1 LOG3 POP POP JUMP JUMPDEST PUSH1 0x0 DUP2 PUSH1 0x0 ADD SLOAD SWAP1 POP SWAP2 SWAP1 POP JUMP JUMPDEST PUSH1 0x1 DUP2 PUSH1 0x0 ADD PUSH1 0x0 DUP3 DUP3 SLOAD ADD SWAP3 POP POP DUP2 SWAP1 SSTORE POP POP JUMP JUMPDEST PUSH1 0x0 PUSH20 0xFFFFFFFFFFFFFFFFFFFFFFFFFFFFFFFFFFFFFFFF AND DUP5 PUSH20 0xFFFFFFFFFFFFFFFFFFFFFFFFFFFFFFFFFFFFFFFF AND SUB PUSH2 0x1425 JUMPI PUSH1 0x40 MLOAD PUSH32 0x8C379A000000000000000000000000000000000000000000000000000000000 DUP2 MSTORE PUSH1 0x4 ADD PUSH2 0x141C SWAP1 PUSH2 0x3039 JUMP JUMPDEST PUSH1 0x40 MLOAD DUP1 SWAP2 SUB SWAP1 REVERT JUMPDEST PUSH1 0x0 PUSH2 0x142F PUSH2 0xFA3 JUMP JUMPDEST SWAP1 POP PUSH1 0x0 PUSH2 0x143C DUP6 PUSH2 0x1B54 JUMP JUMPDEST SWAP1 POP PUSH1 0x0 PUSH2 0x1449 DUP6 PUSH2 0x1B54 JUMP JUMPDEST SWAP1 POP PUSH2 0x145A DUP4 PUSH1 0x0 DUP10 DUP6 DUP6 DUP10 PUSH2 0x196D JUMP JUMPDEST DUP5 PUSH1 0x0 DUP1 DUP9 DUP2 MSTORE PUSH1 0x20 ADD SWAP1 DUP2 MSTORE PUSH1 0x20 ADD PUSH1 0x0 KECCAK256 PUSH1 0x0 DUP10 PUSH20 0xFFFFFFFFFFFFFFFFFFFFFFFFFFFFFFFFFFFFFFFF AND PUSH20 0xFFFFFFFFFFFFFFFFFFFFFFFFFFFFFFFFFFFFFFFF AND DUP2 MSTORE PUSH1 0x20 ADD SWAP1 DUP2 MSTORE PUSH1 0x20 ADD PUSH1 0x0 KECCAK256 PUSH1 0x0 DUP3 DUP3 SLOAD PUSH2 0x14B9 SWAP2 SWAP1 PUSH2 0x2B22 JUMP JUMPDEST SWAP3 POP POP DUP2 SWAP1 SSTORE POP DUP7 PUSH20 0xFFFFFFFFFFFFFFFFFFFFFFFFFFFFFFFFFFFFFFFF AND PUSH1 0x0 PUSH20 0xFFFFFFFFFFFFFFFFFFFFFFFFFFFFFFFFFFFFFFFF AND DUP5 PUSH20 0xFFFFFFFFFFFFFFFFFFFFFFFFFFFFFFFFFFFFFFFF AND PUSH32 0xC3D58168C5AE7397731D063D5BBF3D657854427343F4C083240F7AACAA2D0F62 DUP10 DUP10 PUSH1 0x40 MLOAD PUSH2 0x1537 SWAP3 SWAP2 SWAP1 PUSH2 0x3059 JUMP JUMPDEST PUSH1 0x40 MLOAD DUP1 SWAP2 SUB SWAP1 LOG4 PUSH2 0x154E DUP4 PUSH1 0x0 DUP10 DUP6 DUP6 DUP10 PUSH2 0x1975 JUMP JUMPDEST PUSH2 0x155D DUP4 PUSH1 0x0 DUP10 DUP10 DUP10 DUP10 PUSH2 0x1BCE JUMP JUMPDEST POP POP POP POP POP POP POP JUMP JUMPDEST DUP2 PUSH20 0xFFFFFFFFFFFFFFFFFFFFFFFFFFFFFFFFFFFFFFFF AND DUP4 PUSH20 0xFFFFFFFFFFFFFFFFFFFFFFFFFFFFFFFFFFFFFFFF AND SUB PUSH2 0x15D4 JUMPI PUSH1 0x40 MLOAD PUSH32 0x8C379A000000000000000000000000000000000000000000000000000000000 DUP2 MSTORE PUSH1 0x4 ADD PUSH2 0x15CB SWAP1 PUSH2 0x30F4 JUMP JUMPDEST PUSH1 0x40 MLOAD DUP1 SWAP2 SUB SWAP1 REVERT JUMPDEST DUP1 PUSH1 0x1 PUSH1 0x0 DUP6 PUSH20 0xFFFFFFFFFFFFFFFFFFFFFFFFFFFFFFFFFFFFFFFF AND PUSH20 0xFFFFFFFFFFFFFFFFFFFFFFFFFFFFFFFFFFFFFFFF AND DUP2 MSTORE PUSH1 0x20 ADD SWAP1 DUP2 MSTORE PUSH1 0x20 ADD PUSH1 0x0 KECCAK256 PUSH1 0x0 DUP5 PUSH20 0xFFFFFFFFFFFFFFFFFFFFFFFFFFFFFFFFFFFFFFFF AND PUSH20 0xFFFFFFFFFFFFFFFFFFFFFFFFFFFFFFFFFFFFFFFF AND DUP2 MSTORE PUSH1 0x20 ADD SWAP1 DUP2 MSTORE PUSH1 0x20 ADD PUSH1 0x0 KECCAK256 PUSH1 0x0 PUSH2 0x100 EXP DUP2 SLOAD DUP2 PUSH1 0xFF MUL NOT AND SWAP1 DUP4 ISZERO ISZERO MUL OR SWAP1 SSTORE POP DUP2 PUSH20 0xFFFFFFFFFFFFFFFFFFFFFFFFFFFFFFFFFFFFFFFF AND DUP4 PUSH20 0xFFFFFFFFFFFFFFFFFFFFFFFFFFFFFFFFFFFFFFFF AND PUSH32 0x17307EAB39AB6107E8899845AD3D59BD9653F200F220920489CA2B5937696C31 DUP4 PUSH1 0x40 MLOAD PUSH2 0x16C5 SWAP2 SWAP1 PUSH2 0x1F7A JUMP JUMPDEST PUSH1 0x40 MLOAD DUP1 SWAP2 SUB SWAP1 LOG3 POP POP POP JUMP JUMPDEST PUSH1 0x0 PUSH20 0xFFFFFFFFFFFFFFFFFFFFFFFFFFFFFFFFFFFFFFFF AND DUP5 PUSH20 0xFFFFFFFFFFFFFFFFFFFFFFFFFFFFFFFFFFFFFFFF AND SUB PUSH2 0x1741 JUMPI PUSH1 0x40 MLOAD PUSH32 0x8C379A000000000000000000000000000000000000000000000000000000000 DUP2 MSTORE PUSH1 0x4 ADD PUSH2 0x1738 SWAP1 PUSH2 0x2EDE JUMP JUMPDEST PUSH1 0x40 MLOAD DUP1 SWAP2 SUB SWAP1 REVERT JUMPDEST PUSH1 0x0 PUSH2 0x174B PUSH2 0xFA3 JUMP JUMPDEST SWAP1 POP PUSH1 0x0 PUSH2 0x1758 DUP6 PUSH2 0x1B54 JUMP JUMPDEST SWAP1 POP PUSH1 0x0 PUSH2 0x1765 DUP6 PUSH2 0x1B54 JUMP JUMPDEST SWAP1 POP PUSH2 0x1775 DUP4 DUP10 DUP10 DUP6 DUP6 DUP10 PUSH2 0x196D JUMP JUMPDEST PUSH1 0x0 DUP1 PUSH1 0x0 DUP9 DUP2 MSTORE PUSH1 0x20 ADD SWAP1 DUP2 MSTORE PUSH1 0x20 ADD PUSH1 0x0 KECCAK256 PUSH1 0x0 DUP11 PUSH20 0xFFFFFFFFFFFFFFFFFFFFFFFFFFFFFFFFFFFFFFFF AND PUSH20 0xFFFFFFFFFFFFFFFFFFFFFFFFFFFFFFFFFFFFFFFF AND DUP2 MSTORE PUSH1 0x20 ADD SWAP1 DUP2 MSTORE PUSH1 0x20 ADD PUSH1 0x0 KECCAK256 SLOAD SWAP1 POP DUP6 DUP2 LT ISZERO PUSH2 0x180C JUMPI PUSH1 0x40 MLOAD PUSH32 0x8C379A000000000000000000000000000000000000000000000000000000000 DUP2 MSTORE PUSH1 0x4 ADD PUSH2 0x1803 SWAP1 PUSH2 0x2F70 JUMP JUMPDEST PUSH1 0x40 MLOAD DUP1 SWAP2 SUB SWAP1 REVERT JUMPDEST DUP6 DUP2 SUB PUSH1 0x0 DUP1 DUP10 DUP2 MSTORE PUSH1 0x20 ADD SWAP1 DUP2 MSTORE PUSH1 0x20 ADD PUSH1 0x0 KECCAK256 PUSH1 0x0 DUP12 PUSH20 0xFFFFFFFFFFFFFFFFFFFFFFFFFFFFFFFFFFFFFFFF AND PUSH20 0xFFFFFFFFFFFFFFFFFFFFFFFFFFFFFFFFFFFFFFFF AND DUP2 MSTORE PUSH1 0x20 ADD SWAP1 DUP2 MSTORE PUSH1 0x20 ADD PUSH1 0x0 KECCAK256 DUP2 SWAP1 SSTORE POP DUP6 PUSH1 0x0 DUP1 DUP10 DUP2 MSTORE PUSH1 0x20 ADD SWAP1 DUP2 MSTORE PUSH1 0x20 ADD PUSH1 0x0 KECCAK256 PUSH1 0x0 DUP11 PUSH20 0xFFFFFFFFFFFFFFFFFFFFFFFFFFFFFFFFFFFFFFFF AND PUSH20 0xFFFFFFFFFFFFFFFFFFFFFFFFFFFFFFFFFFFFFFFF AND DUP2 MSTORE PUSH1 0x20 ADD SWAP1 DUP2 MSTORE PUSH1 0x20 ADD PUSH1 0x0 KECCAK256 PUSH1 0x0 DUP3 DUP3 SLOAD PUSH2 0x18C1 SWAP2 SWAP1 PUSH2 0x2B22 JUMP JUMPDEST SWAP3 POP POP DUP2 SWAP1 SSTORE POP DUP8 PUSH20 0xFFFFFFFFFFFFFFFFFFFFFFFFFFFFFFFFFFFFFFFF AND DUP10 PUSH20 0xFFFFFFFFFFFFFFFFFFFFFFFFFFFFFFFFFFFFFFFF AND DUP6 PUSH20 0xFFFFFFFFFFFFFFFFFFFFFFFFFFFFFFFFFFFFFFFF AND PUSH32 0xC3D58168C5AE7397731D063D5BBF3D657854427343F4C083240F7AACAA2D0F62 DUP11 DUP11 PUSH1 0x40 MLOAD PUSH2 0x193E SWAP3 SWAP2 SWAP1 PUSH2 0x3059 JUMP JUMPDEST PUSH1 0x40 MLOAD DUP1 SWAP2 SUB SWAP1 LOG4 PUSH2 0x1954 DUP5 DUP11 DUP11 DUP7 DUP7 DUP11 PUSH2 0x1975 JUMP JUMPDEST PUSH2 0x1962 DUP5 DUP11 DUP11 DUP11 DUP11 DUP11 PUSH2 0x1BCE JUMP JUMPDEST POP POP POP POP POP POP POP POP POP JUMP JUMPDEST POP POP POP POP POP POP JUMP JUMPDEST POP POP POP POP POP POP JUMP JUMPDEST PUSH2 0x199C DUP5 PUSH20 0xFFFFFFFFFFFFFFFFFFFFFFFFFFFFFFFFFFFFFFFF AND PUSH2 0x1DA5 JUMP JUMPDEST ISZERO PUSH2 0x1B4C JUMPI DUP4 PUSH20 0xFFFFFFFFFFFFFFFFFFFFFFFFFFFFFFFFFFFFFFFF AND PUSH4 0xBC197C81 DUP8 DUP8 DUP7 DUP7 DUP7 PUSH1 0x40 MLOAD DUP7 PUSH4 0xFFFFFFFF AND PUSH1 0xE0 SHL DUP2 MSTORE PUSH1 0x4 ADD PUSH2 0x19E2 SWAP6 SWAP5 SWAP4 SWAP3 SWAP2 SWAP1 PUSH2 0x3169 JUMP JUMPDEST PUSH1 0x20 PUSH1 0x40 MLOAD DUP1 DUP4 SUB DUP2 PUSH1 0x0 DUP8 GAS CALL SWAP3 POP POP POP DUP1 ISZERO PUSH2 0x1A1E JUMPI POP PUSH1 0x40 MLOAD RETURNDATASIZE PUSH1 0x1F NOT PUSH1 0x1F DUP3 ADD AND DUP3 ADD DUP1 PUSH1 0x40 MSTORE POP DUP2 ADD SWAP1 PUSH2 0x1A1B SWAP2 SWAP1 PUSH2 0x31E6 JUMP JUMPDEST PUSH1 0x1 JUMPDEST PUSH2 0x1AC3 JUMPI PUSH2 0x1A2A PUSH2 0x3220 JUMP JUMPDEST DUP1 PUSH4 0x8C379A0 SUB PUSH2 0x1A86 JUMPI POP PUSH2 0x1A3E PUSH2 0x3242 JUMP JUMPDEST DUP1 PUSH2 0x1A49 JUMPI POP PUSH2 0x1A88 JUMP JUMPDEST DUP1 PUSH1 0x40 MLOAD PUSH32 0x8C379A000000000000000000000000000000000000000000000000000000000 DUP2 MSTORE PUSH1 0x4 ADD PUSH2 0x1A7D SWAP2 SWAP1 PUSH2 0x2025 JUMP JUMPDEST PUSH1 0x40 MLOAD DUP1 SWAP2 SUB SWAP1 REVERT JUMPDEST POP JUMPDEST PUSH1 0x40 MLOAD PUSH32 0x8C379A000000000000000000000000000000000000000000000000000000000 DUP2 MSTORE PUSH1 0x4 ADD PUSH2 0x1ABA SWAP1 PUSH2 0x3344 JUMP JUMPDEST PUSH1 0x40 MLOAD DUP1 SWAP2 SUB SWAP1 REVERT JUMPDEST PUSH4 0xBC197C81 PUSH1 0xE0 SHL PUSH28 0xFFFFFFFFFFFFFFFFFFFFFFFFFFFFFFFFFFFFFFFFFFFFFFFFFFFFFFFF NOT AND DUP2 PUSH28 0xFFFFFFFFFFFFFFFFFFFFFFFFFFFFFFFFFFFFFFFFFFFFFFFFFFFFFFFF NOT AND EQ PUSH2 0x1B4A JUMPI PUSH1 0x40 MLOAD PUSH32 0x8C379A000000000000000000000000000000000000000000000000000000000 DUP2 MSTORE PUSH1 0x4 ADD PUSH2 0x1B41 SWAP1 PUSH2 0x33D6 JUMP JUMPDEST PUSH1 0x40 MLOAD DUP1 SWAP2 SUB SWAP1 REVERT JUMPDEST POP JUMPDEST POP POP POP POP POP POP JUMP JUMPDEST PUSH1 0x60 PUSH1 0x0 PUSH1 0x1 PUSH8 0xFFFFFFFFFFFFFFFF DUP2 GT ISZERO PUSH2 0x1B73 JUMPI PUSH2 0x1B72 PUSH2 0x20D2 JUMP JUMPDEST JUMPDEST PUSH1 0x40 MLOAD SWAP1 DUP1 DUP3 MSTORE DUP1 PUSH1 0x20 MUL PUSH1 0x20 ADD DUP3 ADD PUSH1 0x40 MSTORE DUP1 ISZERO PUSH2 0x1BA1 JUMPI DUP2 PUSH1 0x20 ADD PUSH1 0x20 DUP3 MUL DUP1 CALLDATASIZE DUP4 CALLDATACOPY DUP1 DUP3 ADD SWAP2 POP POP SWAP1 POP JUMPDEST POP SWAP1 POP DUP3 DUP2 PUSH1 0x0 DUP2 MLOAD DUP2 LT PUSH2 0x1BB9 JUMPI PUSH2 0x1BB8 PUSH2 0x2A10 JUMP JUMPDEST JUMPDEST PUSH1 0x20 MUL PUSH1 0x20 ADD ADD DUP2 DUP2 MSTORE POP POP DUP1 SWAP2 POP POP SWAP2 SWAP1 POP JUMP JUMPDEST PUSH2 0x1BED DUP5 PUSH20 0xFFFFFFFFFFFFFFFFFFFFFFFFFFFFFFFFFFFFFFFF AND PUSH2 0x1DA5 JUMP JUMPDEST ISZERO PUSH2 0x1D9D JUMPI DUP4 PUSH20 0xFFFFFFFFFFFFFFFFFFFFFFFFFFFFFFFFFFFFFFFF AND PUSH4 0xF23A6E61 DUP8 DUP8 DUP7 DUP7 DUP7 PUSH1 0x40 MLOAD DUP7 PUSH4 0xFFFFFFFF AND PUSH1 0xE0 SHL DUP2 MSTORE PUSH1 0x4 ADD PUSH2 0x1C33 SWAP6 SWAP5 SWAP4 SWAP3 SWAP2 SWAP1 PUSH2 0x33F6 JUMP JUMPDEST PUSH1 0x20 PUSH1 0x40 MLOAD DUP1 DUP4 SUB DUP2 PUSH1 0x0 DUP8 GAS CALL SWAP3 POP POP POP DUP1 ISZERO PUSH2 0x1C6F JUMPI POP PUSH1 0x40 MLOAD RETURNDATASIZE PUSH1 0x1F NOT PUSH1 0x1F DUP3 ADD AND DUP3 ADD DUP1 PUSH1 0x40 MSTORE POP DUP2 ADD SWAP1 PUSH2 0x1C6C SWAP2 SWAP1 PUSH2 0x31E6 JUMP JUMPDEST PUSH1 0x1 JUMPDEST PUSH2 0x1D14 JUMPI PUSH2 0x1C7B PUSH2 0x3220 JUMP JUMPDEST DUP1 PUSH4 0x8C379A0 SUB PUSH2 0x1CD7 JUMPI POP PUSH2 0x1C8F PUSH2 0x3242 JUMP JUMPDEST DUP1 PUSH2 0x1C9A JUMPI POP PUSH2 0x1CD9 JUMP JUMPDEST DUP1 PUSH1 0x40 MLOAD PUSH32 0x8C379A000000000000000000000000000000000000000000000000000000000 DUP2 MSTORE PUSH1 0x4 ADD PUSH2 0x1CCE SWAP2 SWAP1 PUSH2 0x2025 JUMP JUMPDEST PUSH1 0x40 MLOAD DUP1 SWAP2 SUB SWAP1 REVERT JUMPDEST POP JUMPDEST PUSH1 0x40 MLOAD PUSH32 0x8C379A000000000000000000000000000000000000000000000000000000000 DUP2 MSTORE PUSH1 0x4 ADD PUSH2 0x1D0B SWAP1 PUSH2 0x3344 JUMP JUMPDEST PUSH1 0x40 MLOAD DUP1 SWAP2 SUB SWAP1 REVERT JUMPDEST PUSH4 0xF23A6E61 PUSH1 0xE0 SHL PUSH28 0xFFFFFFFFFFFFFFFFFFFFFFFFFFFFFFFFFFFFFFFFFFFFFFFFFFFFFFFF NOT AND DUP2 PUSH28 0xFFFFFFFFFFFFFFFFFFFFFFFFFFFFFFFFFFFFFFFFFFFFFFFFFFFFFFFF NOT AND EQ PUSH2 0x1D9B JUMPI PUSH1 0x40 MLOAD PUSH32 0x8C379A000000000000000000000000000000000000000000000000000000000 DUP2 MSTORE PUSH1 0x4 ADD PUSH2 0x1D92 SWAP1 PUSH2 0x33D6 JUMP JUMPDEST PUSH1 0x40 MLOAD DUP1 SWAP2 SUB SWAP1 REVERT JUMPDEST POP JUMPDEST POP POP POP POP POP POP JUMP JUMPDEST PUSH1 0x0 DUP1 DUP3 PUSH20 0xFFFFFFFFFFFFFFFFFFFFFFFFFFFFFFFFFFFFFFFF AND EXTCODESIZE GT SWAP1 POP SWAP2 SWAP1 POP JUMP JUMPDEST PUSH1 0x0 PUSH1 0x40 MLOAD SWAP1 POP SWAP1 JUMP JUMPDEST PUSH1 0x0 DUP1 REVERT JUMPDEST PUSH1 0x0 DUP1 REVERT JUMPDEST PUSH1 0x0 PUSH20 0xFFFFFFFFFFFFFFFFFFFFFFFFFFFFFFFFFFFFFFFF DUP3 AND SWAP1 POP SWAP2 SWAP1 POP JUMP JUMPDEST PUSH1 0x0 PUSH2 0x1E07 DUP3 PUSH2 0x1DDC JUMP JUMPDEST SWAP1 POP SWAP2 SWAP1 POP JUMP JUMPDEST PUSH2 0x1E17 DUP2 PUSH2 0x1DFC JUMP JUMPDEST DUP2 EQ PUSH2 0x1E22 JUMPI PUSH1 0x0 DUP1 REVERT JUMPDEST POP JUMP JUMPDEST PUSH1 0x0 DUP2 CALLDATALOAD SWAP1 POP PUSH2 0x1E34 DUP2 PUSH2 0x1E0E JUMP JUMPDEST SWAP3 SWAP2 POP POP JUMP JUMPDEST PUSH1 0x0 DUP2 SWAP1 POP SWAP2 SWAP1 POP JUMP JUMPDEST PUSH2 0x1E4D DUP2 PUSH2 0x1E3A JUMP JUMPDEST DUP2 EQ PUSH2 0x1E58 JUMPI PUSH1 0x0 DUP1 REVERT JUMPDEST POP JUMP JUMPDEST PUSH1 0x0 DUP2 CALLDATALOAD SWAP1 POP PUSH2 0x1E6A DUP2 PUSH2 0x1E44 JUMP JUMPDEST SWAP3 SWAP2 POP POP JUMP JUMPDEST PUSH1 0x0 DUP1 PUSH1 0x40 DUP4 DUP6 SUB SLT ISZERO PUSH2 0x1E87 JUMPI PUSH2 0x1E86 PUSH2 0x1DD2 JUMP JUMPDEST JUMPDEST PUSH1 0x0 PUSH2 0x1E95 DUP6 DUP3 DUP7 ADD PUSH2 0x1E25 JUMP JUMPDEST SWAP3 POP POP PUSH1 0x20 PUSH2 0x1EA6 DUP6 DUP3 DUP7 ADD PUSH2 0x1E5B JUMP JUMPDEST SWAP2 POP POP SWAP3 POP SWAP3 SWAP1 POP JUMP JUMPDEST PUSH2 0x1EB9 DUP2 PUSH2 0x1E3A JUMP JUMPDEST DUP3 MSTORE POP POP JUMP JUMPDEST PUSH1 0x0 PUSH1 0x20 DUP3 ADD SWAP1 POP PUSH2 0x1ED4 PUSH1 0x0 DUP4 ADD DUP5 PUSH2 0x1EB0 JUMP JUMPDEST SWAP3 SWAP2 POP POP JUMP JUMPDEST PUSH1 0x0 PUSH32 0xFFFFFFFF00000000000000000000000000000000000000000000000000000000 DUP3 AND SWAP1 POP SWAP2 SWAP1 POP JUMP JUMPDEST PUSH2 0x1F0F DUP2 PUSH2 0x1EDA JUMP JUMPDEST DUP2 EQ PUSH2 0x1F1A JUMPI PUSH1 0x0 DUP1 REVERT JUMPDEST POP JUMP JUMPDEST PUSH1 0x0 DUP2 CALLDATALOAD SWAP1 POP PUSH2 0x1F2C DUP2 PUSH2 0x1F06 JUMP JUMPDEST SWAP3 SWAP2 POP POP JUMP JUMPDEST PUSH1 0x0 PUSH1 0x20 DUP3 DUP5 SUB SLT ISZERO PUSH2 0x1F48 JUMPI PUSH2 0x1F47 PUSH2 0x1DD2 JUMP JUMPDEST JUMPDEST PUSH1 0x0 PUSH2 0x1F56 DUP5 DUP3 DUP6 ADD PUSH2 0x1F1D JUMP JUMPDEST SWAP2 POP POP SWAP3 SWAP2 POP POP JUMP JUMPDEST PUSH1 0x0 DUP2 ISZERO ISZERO SWAP1 POP SWAP2 SWAP1 POP JUMP JUMPDEST PUSH2 0x1F74 DUP2 PUSH2 0x1F5F JUMP JUMPDEST DUP3 MSTORE POP POP JUMP JUMPDEST PUSH1 0x0 PUSH1 0x20 DUP3 ADD SWAP1 POP PUSH2 0x1F8F PUSH1 0x0 DUP4 ADD DUP5 PUSH2 0x1F6B JUMP JUMPDEST SWAP3 SWAP2 POP POP JUMP JUMPDEST PUSH1 0x0 DUP2 MLOAD SWAP1 POP SWAP2 SWAP1 POP JUMP JUMPDEST PUSH1 0x0 DUP3 DUP3 MSTORE PUSH1 0x20 DUP3 ADD SWAP1 POP SWAP3 SWAP2 POP POP JUMP JUMPDEST PUSH1 0x0 JUMPDEST DUP4 DUP2 LT ISZERO PUSH2 0x1FCF JUMPI DUP1 DUP3 ADD MLOAD DUP2 DUP5 ADD MSTORE PUSH1 0x20 DUP2 ADD SWAP1 POP PUSH2 0x1FB4 JUMP JUMPDEST PUSH1 0x0 DUP5 DUP5 ADD MSTORE POP POP POP POP JUMP JUMPDEST PUSH1 0x0 PUSH1 0x1F NOT PUSH1 0x1F DUP4 ADD AND SWAP1 POP SWAP2 SWAP1 POP JUMP JUMPDEST PUSH1 0x0 PUSH2 0x1FF7 DUP3 PUSH2 0x1F95 JUMP JUMPDEST PUSH2 0x2001 DUP2 DUP6 PUSH2 0x1FA0 JUMP JUMPDEST SWAP4 POP PUSH2 0x2011 DUP2 DUP6 PUSH1 0x20 DUP7 ADD PUSH2 0x1FB1 JUMP JUMPDEST PUSH2 0x201A DUP2 PUSH2 0x1FDB JUMP JUMPDEST DUP5 ADD SWAP2 POP POP SWAP3 SWAP2 POP POP JUMP JUMPDEST PUSH1 0x0 PUSH1 0x20 DUP3 ADD SWAP1 POP DUP2 DUP2 SUB PUSH1 0x0 DUP4 ADD MSTORE PUSH2 0x203F DUP2 DUP5 PUSH2 0x1FEC JUMP JUMPDEST SWAP1 POP SWAP3 SWAP2 POP POP JUMP JUMPDEST PUSH1 0x0 PUSH1 0x20 DUP3 DUP5 SUB SLT ISZERO PUSH2 0x205D JUMPI PUSH2 0x205C PUSH2 0x1DD2 JUMP JUMPDEST JUMPDEST PUSH1 0x0 PUSH2 0x206B DUP5 DUP3 DUP6 ADD PUSH2 0x1E5B JUMP JUMPDEST SWAP2 POP POP SWAP3 SWAP2 POP POP JUMP JUMPDEST PUSH2 0x207D DUP2 PUSH2 0x1F5F JUMP JUMPDEST DUP2 EQ PUSH2 0x2088 JUMPI PUSH1 0x0 DUP1 REVERT JUMPDEST POP JUMP JUMPDEST PUSH1 0x0 DUP2 CALLDATALOAD SWAP1 POP PUSH2 0x209A DUP2 PUSH2 0x2074 JUMP JUMPDEST SWAP3 SWAP2 POP POP JUMP JUMPDEST PUSH1 0x0 PUSH1 0x20 DUP3 DUP5 SUB SLT ISZERO PUSH2 0x20B6 JUMPI PUSH2 0x20B5 PUSH2 0x1DD2 JUMP JUMPDEST JUMPDEST PUSH1 0x0 PUSH2 0x20C4 DUP5 DUP3 DUP6 ADD PUSH2 0x208B JUMP JUMPDEST SWAP2 POP POP SWAP3 SWAP2 POP POP JUMP JUMPDEST PUSH1 0x0 DUP1 REVERT JUMPDEST PUSH32 0x4E487B7100000000000000000000000000000000000000000000000000000000 PUSH1 0x0 MSTORE PUSH1 0x41 PUSH1 0x4 MSTORE PUSH1 0x24 PUSH1 0x0 REVERT JUMPDEST PUSH2 0x210A DUP3 PUSH2 0x1FDB JUMP JUMPDEST DUP2 ADD DUP2 DUP2 LT PUSH8 0xFFFFFFFFFFFFFFFF DUP3 GT OR ISZERO PUSH2 0x2129 JUMPI PUSH2 0x2128 PUSH2 0x20D2 JUMP JUMPDEST JUMPDEST DUP1 PUSH1 0x40 MSTORE POP POP POP JUMP JUMPDEST PUSH1 0x0 PUSH2 0x213C PUSH2 0x1DC8 JUMP JUMPDEST SWAP1 POP PUSH2 0x2148 DUP3 DUP3 PUSH2 0x2101 JUMP JUMPDEST SWAP2 SWAP1 POP JUMP JUMPDEST PUSH1 0x0 PUSH8 0xFFFFFFFFFFFFFFFF DUP3 GT ISZERO PUSH2 0x2168 JUMPI PUSH2 0x2167 PUSH2 0x20D2 JUMP JUMPDEST JUMPDEST PUSH1 0x20 DUP3 MUL SWAP1 POP PUSH1 0x20 DUP2 ADD SWAP1 POP SWAP2 SWAP1 POP JUMP JUMPDEST PUSH1 0x0 DUP1 REVERT JUMPDEST PUSH1 0x0 PUSH2 0x2191 PUSH2 0x218C DUP5 PUSH2 0x214D JUMP JUMPDEST PUSH2 0x2132 JUMP JUMPDEST SWAP1 POP DUP1 DUP4 DUP3 MSTORE PUSH1 0x20 DUP3 ADD SWAP1 POP PUSH1 0x20 DUP5 MUL DUP4 ADD DUP6 DUP2 GT ISZERO PUSH2 0x21B4 JUMPI PUSH2 0x21B3 PUSH2 0x2179 JUMP JUMPDEST JUMPDEST DUP4 JUMPDEST DUP2 DUP2 LT ISZERO PUSH2 0x21DD JUMPI DUP1 PUSH2 0x21C9 DUP9 DUP3 PUSH2 0x1E5B JUMP JUMPDEST DUP5 MSTORE PUSH1 0x20 DUP5 ADD SWAP4 POP POP PUSH1 0x20 DUP2 ADD SWAP1 POP PUSH2 0x21B6 JUMP JUMPDEST POP POP POP SWAP4 SWAP3 POP POP POP JUMP JUMPDEST PUSH1 0x0 DUP3 PUSH1 0x1F DUP4 ADD SLT PUSH2 0x21FC JUMPI PUSH2 0x21FB PUSH2 0x20CD JUMP JUMPDEST JUMPDEST DUP2 CALLDATALOAD PUSH2 0x220C DUP5 DUP3 PUSH1 0x20 DUP7 ADD PUSH2 0x217E JUMP JUMPDEST SWAP2 POP POP SWAP3 SWAP2 POP POP JUMP JUMPDEST PUSH1 0x0 DUP1 REVERT JUMPDEST PUSH1 0x0 PUSH8 0xFFFFFFFFFFFFFFFF DUP3 GT ISZERO PUSH2 0x2235 JUMPI PUSH2 0x2234 PUSH2 0x20D2 JUMP JUMPDEST JUMPDEST PUSH2 0x223E DUP3 PUSH2 0x1FDB JUMP JUMPDEST SWAP1 POP PUSH1 0x20 DUP2 ADD SWAP1 POP SWAP2 SWAP1 POP JUMP JUMPDEST DUP3 DUP2 DUP4 CALLDATACOPY PUSH1 0x0 DUP4 DUP4 ADD MSTORE POP POP POP JUMP JUMPDEST PUSH1 0x0 PUSH2 0x226D PUSH2 0x2268 DUP5 PUSH2 0x221A JUMP JUMPDEST PUSH2 0x2132 JUMP JUMPDEST SWAP1 POP DUP3 DUP2 MSTORE PUSH1 0x20 DUP2 ADD DUP5 DUP5 DUP5 ADD GT ISZERO PUSH2 0x2289 JUMPI PUSH2 0x2288 PUSH2 0x2215 JUMP JUMPDEST JUMPDEST PUSH2 0x2294 DUP5 DUP3 DUP6 PUSH2 0x224B JUMP JUMPDEST POP SWAP4 SWAP3 POP POP POP JUMP JUMPDEST PUSH1 0x0 DUP3 PUSH1 0x1F DUP4 ADD SLT PUSH2 0x22B1 JUMPI PUSH2 0x22B0 PUSH2 0x20CD JUMP JUMPDEST JUMPDEST DUP2 CALLDATALOAD PUSH2 0x22C1 DUP5 DUP3 PUSH1 0x20 DUP7 ADD PUSH2 0x225A JUMP JUMPDEST SWAP2 POP POP SWAP3 SWAP2 POP POP JUMP JUMPDEST PUSH1 0x0 DUP1 PUSH1 0x0 DUP1 PUSH1 0x0 PUSH1 0xA0 DUP7 DUP9 SUB SLT ISZERO PUSH2 0x22E6 JUMPI PUSH2 0x22E5 PUSH2 0x1DD2 JUMP JUMPDEST JUMPDEST PUSH1 0x0 PUSH2 0x22F4 DUP9 DUP3 DUP10 ADD PUSH2 0x1E25 JUMP JUMPDEST SWAP6 POP POP PUSH1 0x20 PUSH2 0x2305 DUP9 DUP3 DUP10 ADD PUSH2 0x1E25 JUMP JUMPDEST SWAP5 POP POP PUSH1 0x40 DUP7 ADD CALLDATALOAD PUSH8 0xFFFFFFFFFFFFFFFF DUP2 GT ISZERO PUSH2 0x2326 JUMPI PUSH2 0x2325 PUSH2 0x1DD7 JUMP JUMPDEST JUMPDEST PUSH2 0x2332 DUP9 DUP3 DUP10 ADD PUSH2 0x21E7 JUMP JUMPDEST SWAP4 POP POP PUSH1 0x60 DUP7 ADD CALLDATALOAD PUSH8 0xFFFFFFFFFFFFFFFF DUP2 GT ISZERO PUSH2 0x2353 JUMPI PUSH2 0x2352 PUSH2 0x1DD7 JUMP JUMPDEST JUMPDEST PUSH2 0x235F DUP9 DUP3 DUP10 ADD PUSH2 0x21E7 JUMP JUMPDEST SWAP3 POP POP PUSH1 0x80 DUP7 ADD CALLDATALOAD PUSH8 0xFFFFFFFFFFFFFFFF DUP2 GT ISZERO PUSH2 0x2380 JUMPI PUSH2 0x237F PUSH2 0x1DD7 JUMP JUMPDEST JUMPDEST PUSH2 0x238C DUP9 DUP3 DUP10 ADD PUSH2 0x229C JUMP JUMPDEST SWAP2 POP POP SWAP3 SWAP6 POP SWAP3 SWAP6 SWAP1 SWAP4 POP JUMP JUMPDEST PUSH1 0x0 PUSH8 0xFFFFFFFFFFFFFFFF DUP3 GT ISZERO PUSH2 0x23B4 JUMPI PUSH2 0x23B3 PUSH2 0x20D2 JUMP JUMPDEST JUMPDEST PUSH1 0x20 DUP3 MUL SWAP1 POP PUSH1 0x20 DUP2 ADD SWAP1 POP SWAP2 SWAP1 POP JUMP JUMPDEST PUSH1 0x0 PUSH2 0x23D8 PUSH2 0x23D3 DUP5 PUSH2 0x2399 JUMP JUMPDEST PUSH2 0x2132 JUMP JUMPDEST SWAP1 POP DUP1 DUP4 DUP3 MSTORE PUSH1 0x20 DUP3 ADD SWAP1 POP PUSH1 0x20 DUP5 MUL DUP4 ADD DUP6 DUP2 GT ISZERO PUSH2 0x23FB JUMPI PUSH2 0x23FA PUSH2 0x2179 JUMP JUMPDEST JUMPDEST DUP4 JUMPDEST DUP2 DUP2 LT ISZERO PUSH2 0x2424 JUMPI DUP1 PUSH2 0x2410 DUP9 DUP3 PUSH2 0x1E25 JUMP JUMPDEST DUP5 MSTORE PUSH1 0x20 DUP5 ADD SWAP4 POP POP PUSH1 0x20 DUP2 ADD SWAP1 POP PUSH2 0x23FD JUMP JUMPDEST POP POP POP SWAP4 SWAP3 POP POP POP JUMP JUMPDEST PUSH1 0x0 DUP3 PUSH1 0x1F DUP4 ADD SLT PUSH2 0x2443 JUMPI PUSH2 0x2442 PUSH2 0x20CD JUMP JUMPDEST JUMPDEST DUP2 CALLDATALOAD PUSH2 0x2453 DUP5 DUP3 PUSH1 0x20 DUP7 ADD PUSH2 0x23C5 JUMP JUMPDEST SWAP2 POP POP SWAP3 SWAP2 POP POP JUMP JUMPDEST PUSH1 0x0 DUP1 PUSH1 0x40 DUP4 DUP6 SUB SLT ISZERO PUSH2 0x2473 JUMPI PUSH2 0x2472 PUSH2 0x1DD2 JUMP JUMPDEST JUMPDEST PUSH1 0x0 DUP4 ADD CALLDATALOAD PUSH8 0xFFFFFFFFFFFFFFFF DUP2 GT ISZERO PUSH2 0x2491 JUMPI PUSH2 0x2490 PUSH2 0x1DD7 JUMP JUMPDEST JUMPDEST PUSH2 0x249D DUP6 DUP3 DUP7 ADD PUSH2 0x242E JUMP JUMPDEST SWAP3 POP POP PUSH1 0x20 DUP4 ADD CALLDATALOAD PUSH8 0xFFFFFFFFFFFFFFFF DUP2 GT ISZERO PUSH2 0x24BE JUMPI PUSH2 0x24BD PUSH2 0x1DD7 JUMP JUMPDEST JUMPDEST PUSH2 0x24CA DUP6 DUP3 DUP7 ADD PUSH2 0x21E7 JUMP JUMPDEST SWAP2 POP POP SWAP3 POP SWAP3 SWAP1 POP JUMP JUMPDEST PUSH1 0x0 DUP2 MLOAD SWAP1 POP SWAP2 SWAP1 POP JUMP JUMPDEST PUSH1 0x0 DUP3 DUP3 MSTORE PUSH1 0x20 DUP3 ADD SWAP1 POP SWAP3 SWAP2 POP POP JUMP JUMPDEST PUSH1 0x0 DUP2 SWAP1 POP PUSH1 0x20 DUP3 ADD SWAP1 POP SWAP2 SWAP1 POP JUMP JUMPDEST PUSH2 0x2509 DUP2 PUSH2 0x1E3A JUMP JUMPDEST DUP3 MSTORE POP POP JUMP JUMPDEST PUSH1 0x0 PUSH2 0x251B DUP4 DUP4 PUSH2 0x2500 JUMP JUMPDEST PUSH1 0x20 DUP4 ADD SWAP1 POP SWAP3 SWAP2 POP POP JUMP JUMPDEST PUSH1 0x0 PUSH1 0x20 DUP3 ADD SWAP1 POP SWAP2 SWAP1 POP JUMP JUMPDEST PUSH1 0x0 PUSH2 0x253F DUP3 PUSH2 0x24D4 JUMP JUMPDEST PUSH2 0x2549 DUP2 DUP6 PUSH2 0x24DF JUMP JUMPDEST SWAP4 POP PUSH2 0x2554 DUP4 PUSH2 0x24F0 JUMP JUMPDEST DUP1 PUSH1 0x0 JUMPDEST DUP4 DUP2 LT ISZERO PUSH2 0x2585 JUMPI DUP2 MLOAD PUSH2 0x256C DUP9 DUP3 PUSH2 0x250F JUMP JUMPDEST SWAP8 POP PUSH2 0x2577 DUP4 PUSH2 0x2527 JUMP JUMPDEST SWAP3 POP POP PUSH1 0x1 DUP2 ADD SWAP1 POP PUSH2 0x2558 JUMP JUMPDEST POP DUP6 SWAP4 POP POP POP POP SWAP3 SWAP2 POP POP JUMP JUMPDEST PUSH1 0x0 PUSH1 0x20 DUP3 ADD SWAP1 POP DUP2 DUP2 SUB PUSH1 0x0 DUP4 ADD MSTORE PUSH2 0x25AC DUP2 DUP5 PUSH2 0x2534 JUMP JUMPDEST SWAP1 POP SWAP3 SWAP2 POP POP JUMP JUMPDEST PUSH2 0x25BD DUP2 PUSH2 0x1DFC JUMP JUMPDEST DUP3 MSTORE POP POP JUMP JUMPDEST PUSH1 0x0 PUSH1 0x20 DUP3 ADD SWAP1 POP PUSH2 0x25D8 PUSH1 0x0 DUP4 ADD DUP5 PUSH2 0x25B4 JUMP JUMPDEST SWAP3 SWAP2 POP POP JUMP JUMPDEST PUSH1 0x0 DUP1 PUSH1 0x40 DUP4 DUP6 SUB SLT ISZERO PUSH2 0x25F5 JUMPI PUSH2 0x25F4 PUSH2 0x1DD2 JUMP JUMPDEST JUMPDEST PUSH1 0x0 PUSH2 0x2603 DUP6 DUP3 DUP7 ADD PUSH2 0x1E25 JUMP JUMPDEST SWAP3 POP POP PUSH1 0x20 PUSH2 0x2614 DUP6 DUP3 DUP7 ADD PUSH2 0x208B JUMP JUMPDEST SWAP2 POP POP SWAP3 POP SWAP3 SWAP1 POP JUMP JUMPDEST PUSH1 0x0 DUP1 PUSH1 0x40 DUP4 DUP6 SUB SLT ISZERO PUSH2 0x2635 JUMPI PUSH2 0x2634 PUSH2 0x1DD2 JUMP JUMPDEST JUMPDEST PUSH1 0x0 PUSH2 0x2643 DUP6 DUP3 DUP7 ADD PUSH2 0x1E25 JUMP JUMPDEST SWAP3 POP POP PUSH1 0x20 PUSH2 0x2654 DUP6 DUP3 DUP7 ADD PUSH2 0x1E25 JUMP JUMPDEST SWAP2 POP POP SWAP3 POP SWAP3 SWAP1 POP JUMP JUMPDEST PUSH1 0x0 DUP1 PUSH1 0x0 DUP1 PUSH1 0x0 PUSH1 0xA0 DUP7 DUP9 SUB SLT ISZERO PUSH2 0x267A JUMPI PUSH2 0x2679 PUSH2 0x1DD2 JUMP JUMPDEST JUMPDEST PUSH1 0x0 PUSH2 0x2688 DUP9 DUP3 DUP10 ADD PUSH2 0x1E25 JUMP JUMPDEST SWAP6 POP POP PUSH1 0x20 PUSH2 0x2699 DUP9 DUP3 DUP10 ADD PUSH2 0x1E25 JUMP JUMPDEST SWAP5 POP POP PUSH1 0x40 PUSH2 0x26AA DUP9 DUP3 DUP10 ADD PUSH2 0x1E5B JUMP JUMPDEST SWAP4 POP POP PUSH1 0x60 PUSH2 0x26BB DUP9 DUP3 DUP10 ADD PUSH2 0x1E5B JUMP JUMPDEST SWAP3 POP POP PUSH1 0x80 DUP7 ADD CALLDATALOAD PUSH8 0xFFFFFFFFFFFFFFFF DUP2 GT ISZERO PUSH2 0x26DC JUMPI PUSH2 0x26DB PUSH2 0x1DD7 JUMP JUMPDEST JUMPDEST PUSH2 0x26E8 DUP9 DUP3 DUP10 ADD PUSH2 0x229C JUMP JUMPDEST SWAP2 POP POP SWAP3 SWAP6 POP SWAP3 SWAP6 SWAP1 SWAP4 POP JUMP JUMPDEST PUSH1 0x0 PUSH1 0x20 DUP3 DUP5 SUB SLT ISZERO PUSH2 0x270B JUMPI PUSH2 0x270A PUSH2 0x1DD2 JUMP JUMPDEST JUMPDEST PUSH1 0x0 PUSH2 0x2719 DUP5 DUP3 DUP6 ADD PUSH2 0x1E25 JUMP JUMPDEST SWAP2 POP POP SWAP3 SWAP2 POP POP JUMP JUMPDEST PUSH32 0x455243313135353A2061646472657373207A65726F206973206E6F7420612076 PUSH1 0x0 DUP3 ADD MSTORE PUSH32 0x616C6964206F776E657200000000000000000000000000000000000000000000 PUSH1 0x20 DUP3 ADD MSTORE POP JUMP JUMPDEST PUSH1 0x0 PUSH2 0x277E PUSH1 0x2A DUP4 PUSH2 0x1FA0 JUMP JUMPDEST SWAP2 POP PUSH2 0x2789 DUP3 PUSH2 0x2722 JUMP JUMPDEST PUSH1 0x40 DUP3 ADD SWAP1 POP SWAP2 SWAP1 POP JUMP JUMPDEST PUSH1 0x0 PUSH1 0x20 DUP3 ADD SWAP1 POP DUP2 DUP2 SUB PUSH1 0x0 DUP4 ADD MSTORE PUSH2 0x27AD DUP2 PUSH2 0x2771 JUMP JUMPDEST SWAP1 POP SWAP2 SWAP1 POP JUMP JUMPDEST PUSH32 0x4E487B7100000000000000000000000000000000000000000000000000000000 PUSH1 0x0 MSTORE PUSH1 0x22 PUSH1 0x4 MSTORE PUSH1 0x24 PUSH1 0x0 REVERT JUMPDEST PUSH1 0x0 PUSH1 0x2 DUP3 DIV SWAP1 POP PUSH1 0x1 DUP3 AND DUP1 PUSH2 0x27FB JUMPI PUSH1 0x7F DUP3 AND SWAP2 POP JUMPDEST PUSH1 0x20 DUP3 LT DUP2 SUB PUSH2 0x280E JUMPI PUSH2 0x280D PUSH2 0x27B4 JUMP JUMPDEST JUMPDEST POP SWAP2 SWAP1 POP JUMP JUMPDEST PUSH32 0x455243313135353A2063616C6C6572206973206E6F7420746F6B656E206F776E PUSH1 0x0 DUP3 ADD MSTORE PUSH32 0x6572206F7220617070726F766564000000000000000000000000000000000000 PUSH1 0x20 DUP3 ADD MSTORE POP JUMP JUMPDEST PUSH1 0x0 PUSH2 0x2870 PUSH1 0x2E DUP4 PUSH2 0x1FA0 JUMP JUMPDEST SWAP2 POP PUSH2 0x287B DUP3 PUSH2 0x2814 JUMP JUMPDEST PUSH1 0x40 DUP3 ADD SWAP1 POP SWAP2 SWAP1 POP JUMP JUMPDEST PUSH1 0x0 PUSH1 0x20 DUP3 ADD SWAP1 POP DUP2 DUP2 SUB PUSH1 0x0 DUP4 ADD MSTORE PUSH2 0x289F DUP2 PUSH2 0x2863 JUMP JUMPDEST SWAP1 POP SWAP2 SWAP1 POP JUMP JUMPDEST PUSH1 0x0 DUP2 SWAP1 POP SWAP3 SWAP2 POP POP JUMP JUMPDEST POP JUMP JUMPDEST PUSH1 0x0 PUSH2 0x28C1 PUSH1 0x0 DUP4 PUSH2 0x28A6 JUMP JUMPDEST SWAP2 POP PUSH2 0x28CC DUP3 PUSH2 0x28B1 JUMP JUMPDEST PUSH1 0x0 DUP3 ADD SWAP1 POP SWAP2 SWAP1 POP JUMP JUMPDEST PUSH1 0x0 PUSH2 0x28E2 DUP3 PUSH2 0x28B4 JUMP JUMPDEST SWAP2 POP DUP2 SWAP1 POP SWAP2 SWAP1 POP JUMP JUMPDEST PUSH32 0x4661696C656420746F207472616E736665722066756E647320746F206F776E65 PUSH1 0x0 DUP3 ADD MSTORE PUSH32 0x7200000000000000000000000000000000000000000000000000000000000000 PUSH1 0x20 DUP3 ADD MSTORE POP JUMP JUMPDEST PUSH1 0x0 PUSH2 0x2948 PUSH1 0x21 DUP4 PUSH2 0x1FA0 JUMP JUMPDEST SWAP2 POP PUSH2 0x2953 DUP3 PUSH2 0x28EC JUMP JUMPDEST PUSH1 0x40 DUP3 ADD SWAP1 POP SWAP2 SWAP1 POP JUMP JUMPDEST PUSH1 0x0 PUSH1 0x20 DUP3 ADD SWAP1 POP DUP2 DUP2 SUB PUSH1 0x0 DUP4 ADD MSTORE PUSH2 0x2977 DUP2 PUSH2 0x293B JUMP JUMPDEST SWAP1 POP SWAP2 SWAP1 POP JUMP JUMPDEST PUSH32 0x455243313135353A206163636F756E747320616E6420696473206C656E677468 PUSH1 0x0 DUP3 ADD MSTORE PUSH32 0x206D69736D617463680000000000000000000000000000000000000000000000 PUSH1 0x20 DUP3 ADD MSTORE POP JUMP JUMPDEST PUSH1 0x0 PUSH2 0x29DA PUSH1 0x29 DUP4 PUSH2 0x1FA0 JUMP JUMPDEST SWAP2 POP PUSH2 0x29E5 DUP3 PUSH2 0x297E JUMP JUMPDEST PUSH1 0x40 DUP3 ADD SWAP1 POP SWAP2 SWAP1 POP JUMP JUMPDEST PUSH1 0x0 PUSH1 0x20 DUP3 ADD SWAP1 POP DUP2 DUP2 SUB PUSH1 0x0 DUP4 ADD MSTORE PUSH2 0x2A09 DUP2 PUSH2 0x29CD JUMP JUMPDEST SWAP1 POP SWAP2 SWAP1 POP JUMP JUMPDEST PUSH32 0x4E487B7100000000000000000000000000000000000000000000000000000000 PUSH1 0x0 MSTORE PUSH1 0x32 PUSH1 0x4 MSTORE PUSH1 0x24 PUSH1 0x0 REVERT JUMPDEST PUSH32 0x4E487B7100000000000000000000000000000000000000000000000000000000 PUSH1 0x0 MSTORE PUSH1 0x11 PUSH1 0x4 MSTORE PUSH1 0x24 PUSH1 0x0 REVERT JUMPDEST PUSH1 0x0 PUSH2 0x2A79 DUP3 PUSH2 0x1E3A JUMP JUMPDEST SWAP2 POP PUSH32 0xFFFFFFFFFFFFFFFFFFFFFFFFFFFFFFFFFFFFFFFFFFFFFFFFFFFFFFFFFFFFFFFF DUP3 SUB PUSH2 0x2AAB JUMPI PUSH2 0x2AAA PUSH2 0x2A3F JUMP JUMPDEST JUMPDEST PUSH1 0x1 DUP3 ADD SWAP1 POP SWAP2 SWAP1 POP JUMP JUMPDEST PUSH32 0x496E76616C6964206D696E7420616D6F756E7421000000000000000000000000 PUSH1 0x0 DUP3 ADD MSTORE POP JUMP JUMPDEST PUSH1 0x0 PUSH2 0x2AEC PUSH1 0x14 DUP4 PUSH2 0x1FA0 JUMP JUMPDEST SWAP2 POP PUSH2 0x2AF7 DUP3 PUSH2 0x2AB6 JUMP JUMPDEST PUSH1 0x20 DUP3 ADD SWAP1 POP SWAP2 SWAP1 POP JUMP JUMPDEST PUSH1 0x0 PUSH1 0x20 DUP3 ADD SWAP1 POP DUP2 DUP2 SUB PUSH1 0x0 DUP4 ADD MSTORE PUSH2 0x2B1B DUP2 PUSH2 0x2ADF JUMP JUMPDEST SWAP1 POP SWAP2 SWAP1 POP JUMP JUMPDEST PUSH1 0x0 PUSH2 0x2B2D DUP3 PUSH2 0x1E3A JUMP JUMPDEST SWAP2 POP PUSH2 0x2B38 DUP4 PUSH2 0x1E3A JUMP JUMPDEST SWAP3 POP DUP3 DUP3 ADD SWAP1 POP DUP1 DUP3 GT ISZERO PUSH2 0x2B50 JUMPI PUSH2 0x2B4F PUSH2 0x2A3F JUMP JUMPDEST JUMPDEST SWAP3 SWAP2 POP POP JUMP JUMPDEST PUSH32 0x4D617820737570706C7920657863656564656421000000000000000000000000 PUSH1 0x0 DUP3 ADD MSTORE POP JUMP JUMPDEST PUSH1 0x0 PUSH2 0x2B8C PUSH1 0x14 DUP4 PUSH2 0x1FA0 JUMP JUMPDEST SWAP2 POP PUSH2 0x2B97 DUP3 PUSH2 0x2B56 JUMP JUMPDEST PUSH1 0x20 DUP3 ADD SWAP1 POP SWAP2 SWAP1 POP JUMP JUMPDEST PUSH1 0x0 PUSH1 0x20 DUP3 ADD SWAP1 POP DUP2 DUP2 SUB PUSH1 0x0 DUP4 ADD MSTORE PUSH2 0x2BBB DUP2 PUSH2 0x2B7F JUMP JUMPDEST SWAP1 POP SWAP2 SWAP1 POP JUMP JUMPDEST PUSH32 0x54686520636F6E74726163742069732070617573656421000000000000000000 PUSH1 0x0 DUP3 ADD MSTORE POP JUMP JUMPDEST PUSH1 0x0 PUSH2 0x2BF8 PUSH1 0x17 DUP4 PUSH2 0x1FA0 JUMP JUMPDEST SWAP2 POP PUSH2 0x2C03 DUP3 PUSH2 0x2BC2 JUMP JUMPDEST PUSH1 0x20 DUP3 ADD SWAP1 POP SWAP2 SWAP1 POP JUMP JUMPDEST PUSH1 0x0 PUSH1 0x20 DUP3 ADD SWAP1 POP DUP2 DUP2 SUB PUSH1 0x0 DUP4 ADD MSTORE PUSH2 0x2C27 DUP2 PUSH2 0x2BEB JUMP JUMPDEST SWAP1 POP SWAP2 SWAP1 POP JUMP JUMPDEST PUSH1 0x0 PUSH2 0x2C39 DUP3 PUSH2 0x1E3A JUMP JUMPDEST SWAP2 POP PUSH2 0x2C44 DUP4 PUSH2 0x1E3A JUMP JUMPDEST SWAP3 POP DUP3 DUP3 MUL PUSH2 0x2C52 DUP2 PUSH2 0x1E3A JUMP JUMPDEST SWAP2 POP DUP3 DUP3 DIV DUP5 EQ DUP4 ISZERO OR PUSH2 0x2C69 JUMPI PUSH2 0x2C68 PUSH2 0x2A3F JUMP JUMPDEST JUMPDEST POP SWAP3 SWAP2 POP POP JUMP JUMPDEST PUSH32 0x496E73756666696369656E742066756E64732100000000000000000000000000 PUSH1 0x0 DUP3 ADD MSTORE POP JUMP JUMPDEST PUSH1 0x0 PUSH2 0x2CA6 PUSH1 0x13 DUP4 PUSH2 0x1FA0 JUMP JUMPDEST SWAP2 POP PUSH2 0x2CB1 DUP3 PUSH2 0x2C70 JUMP JUMPDEST PUSH1 0x20 DUP3 ADD SWAP1 POP SWAP2 SWAP1 POP JUMP JUMPDEST PUSH1 0x0 PUSH1 0x20 DUP3 ADD SWAP1 POP DUP2 DUP2 SUB PUSH1 0x0 DUP4 ADD MSTORE PUSH2 0x2CD5 DUP2 PUSH2 0x2C99 JUMP JUMPDEST SWAP1 POP SWAP2 SWAP1 POP JUMP JUMPDEST PUSH32 0x4F776E61626C653A206E6577206F776E657220697320746865207A65726F2061 PUSH1 0x0 DUP3 ADD MSTORE PUSH32 0x6464726573730000000000000000000000000000000000000000000000000000 PUSH1 0x20 DUP3 ADD MSTORE POP JUMP JUMPDEST PUSH1 0x0 PUSH2 0x2D38 PUSH1 0x26 DUP4 PUSH2 0x1FA0 JUMP JUMPDEST SWAP2 POP PUSH2 0x2D43 DUP3 PUSH2 0x2CDC JUMP JUMPDEST PUSH1 0x40 DUP3 ADD SWAP1 POP SWAP2 SWAP1 POP JUMP JUMPDEST PUSH1 0x0 PUSH1 0x20 DUP3 ADD SWAP1 POP DUP2 DUP2 SUB PUSH1 0x0 DUP4 ADD MSTORE PUSH2 0x2D67 DUP2 PUSH2 0x2D2B JUMP JUMPDEST SWAP1 POP SWAP2 SWAP1 POP JUMP JUMPDEST PUSH32 0x4F776E61626C653A2063616C6C6572206973206E6F7420746865206F776E6572 PUSH1 0x0 DUP3 ADD MSTORE POP JUMP JUMPDEST PUSH1 0x0 PUSH2 0x2DA4 PUSH1 0x20 DUP4 PUSH2 0x1FA0 JUMP JUMPDEST SWAP2 POP PUSH2 0x2DAF DUP3 PUSH2 0x2D6E JUMP JUMPDEST PUSH1 0x20 DUP3 ADD SWAP1 POP SWAP2 SWAP1 POP JUMP JUMPDEST PUSH1 0x0 PUSH1 0x20 DUP3 ADD SWAP1 POP DUP2 DUP2 SUB PUSH1 0x0 DUP4 ADD MSTORE PUSH2 0x2DD3 DUP2 PUSH2 0x2D97 JUMP JUMPDEST SWAP1 POP SWAP2 SWAP1 POP JUMP JUMPDEST PUSH32 0x455243313135353A2069647320616E6420616D6F756E7473206C656E67746820 PUSH1 0x0 DUP3 ADD MSTORE PUSH32 0x6D69736D61746368000000000000000000000000000000000000000000000000 PUSH1 0x20 DUP3 ADD MSTORE POP JUMP JUMPDEST PUSH1 0x0 PUSH2 0x2E36 PUSH1 0x28 DUP4 PUSH2 0x1FA0 JUMP JUMPDEST SWAP2 POP PUSH2 0x2E41 DUP3 PUSH2 0x2DDA JUMP JUMPDEST PUSH1 0x40 DUP3 ADD SWAP1 POP SWAP2 SWAP1 POP JUMP JUMPDEST PUSH1 0x0 PUSH1 0x20 DUP3 ADD SWAP1 POP DUP2 DUP2 SUB PUSH1 0x0 DUP4 ADD MSTORE PUSH2 0x2E65 DUP2 PUSH2 0x2E29 JUMP JUMPDEST SWAP1 POP SWAP2 SWAP1 POP JUMP JUMPDEST PUSH32 0x455243313135353A207472616E7366657220746F20746865207A65726F206164 PUSH1 0x0 DUP3 ADD MSTORE PUSH32 0x6472657373000000000000000000000000000000000000000000000000000000 PUSH1 0x20 DUP3 ADD MSTORE POP JUMP JUMPDEST PUSH1 0x0 PUSH2 0x2EC8 PUSH1 0x25 DUP4 PUSH2 0x1FA0 JUMP JUMPDEST SWAP2 POP PUSH2 0x2ED3 DUP3 PUSH2 0x2E6C JUMP JUMPDEST PUSH1 0x40 DUP3 ADD SWAP1 POP SWAP2 SWAP1 POP JUMP JUMPDEST PUSH1 0x0 PUSH1 0x20 DUP3 ADD SWAP1 POP DUP2 DUP2 SUB PUSH1 0x0 DUP4 ADD MSTORE PUSH2 0x2EF7 DUP2 PUSH2 0x2EBB JUMP JUMPDEST SWAP1 POP SWAP2 SWAP1 POP JUMP JUMPDEST PUSH32 0x455243313135353A20696E73756666696369656E742062616C616E636520666F PUSH1 0x0 DUP3 ADD MSTORE PUSH32 0x72207472616E7366657200000000000000000000000000000000000000000000 PUSH1 0x20 DUP3 ADD MSTORE POP JUMP JUMPDEST PUSH1 0x0 PUSH2 0x2F5A PUSH1 0x2A DUP4 PUSH2 0x1FA0 JUMP JUMPDEST SWAP2 POP PUSH2 0x2F65 DUP3 PUSH2 0x2EFE JUMP JUMPDEST PUSH1 0x40 DUP3 ADD SWAP1 POP SWAP2 SWAP1 POP JUMP JUMPDEST PUSH1 0x0 PUSH1 0x20 DUP3 ADD SWAP1 POP DUP2 DUP2 SUB PUSH1 0x0 DUP4 ADD MSTORE PUSH2 0x2F89 DUP2 PUSH2 0x2F4D JUMP JUMPDEST SWAP1 POP SWAP2 SWAP1 POP JUMP JUMPDEST PUSH1 0x0 PUSH1 0x40 DUP3 ADD SWAP1 POP DUP2 DUP2 SUB PUSH1 0x0 DUP4 ADD MSTORE PUSH2 0x2FAA DUP2 DUP6 PUSH2 0x2534 JUMP JUMPDEST SWAP1 POP DUP2 DUP2 SUB PUSH1 0x20 DUP4 ADD MSTORE PUSH2 0x2FBE DUP2 DUP5 PUSH2 0x2534 JUMP JUMPDEST SWAP1 POP SWAP4 SWAP3 POP POP POP JUMP JUMPDEST PUSH32 0x455243313135353A206D696E7420746F20746865207A65726F20616464726573 PUSH1 0x0 DUP3 ADD MSTORE PUSH32 0x7300000000000000000000000000000000000000000000000000000000000000 PUSH1 0x20 DUP3 ADD MSTORE POP JUMP JUMPDEST PUSH1 0x0 PUSH2 0x3023 PUSH1 0x21 DUP4 PUSH2 0x1FA0 JUMP JUMPDEST SWAP2 POP PUSH2 0x302E DUP3 PUSH2 0x2FC7 JUMP JUMPDEST PUSH1 0x40 DUP3 ADD SWAP1 POP SWAP2 SWAP1 POP JUMP JUMPDEST PUSH1 0x0 PUSH1 0x20 DUP3 ADD SWAP1 POP DUP2 DUP2 SUB PUSH1 0x0 DUP4 ADD MSTORE PUSH2 0x3052 DUP2 PUSH2 0x3016 JUMP JUMPDEST SWAP1 POP SWAP2 SWAP1 POP JUMP JUMPDEST PUSH1 0x0 PUSH1 0x40 DUP3 ADD SWAP1 POP PUSH2 0x306E PUSH1 0x0 DUP4 ADD DUP6 PUSH2 0x1EB0 JUMP JUMPDEST PUSH2 0x307B PUSH1 0x20 DUP4 ADD DUP5 PUSH2 0x1EB0 JUMP JUMPDEST SWAP4 SWAP3 POP POP POP JUMP JUMPDEST PUSH32 0x455243313135353A2073657474696E6720617070726F76616C20737461747573 PUSH1 0x0 DUP3 ADD MSTORE PUSH32 0x20666F722073656C660000000000000000000000000000000000000000000000 PUSH1 0x20 DUP3 ADD MSTORE POP JUMP JUMPDEST PUSH1 0x0 PUSH2 0x30DE PUSH1 0x29 DUP4 PUSH2 0x1FA0 JUMP JUMPDEST SWAP2 POP PUSH2 0x30E9 DUP3 PUSH2 0x3082 JUMP JUMPDEST PUSH1 0x40 DUP3 ADD SWAP1 POP SWAP2 SWAP1 POP JUMP JUMPDEST PUSH1 0x0 PUSH1 0x20 DUP3 ADD SWAP1 POP DUP2 DUP2 SUB PUSH1 0x0 DUP4 ADD MSTORE PUSH2 0x310D DUP2 PUSH2 0x30D1 JUMP JUMPDEST SWAP1 POP SWAP2 SWAP1 POP JUMP JUMPDEST PUSH1 0x0 DUP2 MLOAD SWAP1 POP SWAP2 SWAP1 POP JUMP JUMPDEST PUSH1 0x0 DUP3 DUP3 MSTORE PUSH1 0x20 DUP3 ADD SWAP1 POP SWAP3 SWAP2 POP POP JUMP JUMPDEST PUSH1 0x0 PUSH2 0x313B DUP3 PUSH2 0x3114 JUMP JUMPDEST PUSH2 0x3145 DUP2 DUP6 PUSH2 0x311F JUMP JUMPDEST SWAP4 POP PUSH2 0x3155 DUP2 DUP6 PUSH1 0x20 DUP7 ADD PUSH2 0x1FB1 JUMP JUMPDEST PUSH2 0x315E DUP2 PUSH2 0x1FDB JUMP JUMPDEST DUP5 ADD SWAP2 POP POP SWAP3 SWAP2 POP POP JUMP JUMPDEST PUSH1 0x0 PUSH1 0xA0 DUP3 ADD SWAP1 POP PUSH2 0x317E PUSH1 0x0 DUP4 ADD DUP9 PUSH2 0x25B4 JUMP JUMPDEST PUSH2 0x318B PUSH1 0x20 DUP4 ADD DUP8 PUSH2 0x25B4 JUMP JUMPDEST DUP2 DUP2 SUB PUSH1 0x40 DUP4 ADD MSTORE PUSH2 0x319D DUP2 DUP7 PUSH2 0x2534 JUMP JUMPDEST SWAP1 POP DUP2 DUP2 SUB PUSH1 0x60 DUP4 ADD MSTORE PUSH2 0x31B1 DUP2 DUP6 PUSH2 0x2534 JUMP JUMPDEST SWAP1 POP DUP2 DUP2 SUB PUSH1 0x80 DUP4 ADD MSTORE PUSH2 0x31C5 DUP2 DUP5 PUSH2 0x3130 JUMP JUMPDEST SWAP1 POP SWAP7 SWAP6 POP POP POP POP POP POP JUMP JUMPDEST PUSH1 0x0 DUP2 MLOAD SWAP1 POP PUSH2 0x31E0 DUP2 PUSH2 0x1F06 JUMP JUMPDEST SWAP3 SWAP2 POP POP JUMP JUMPDEST PUSH1 0x0 PUSH1 0x20 DUP3 DUP5 SUB SLT ISZERO PUSH2 0x31FC JUMPI PUSH2 0x31FB PUSH2 0x1DD2 JUMP JUMPDEST JUMPDEST PUSH1 0x0 PUSH2 0x320A DUP5 DUP3 DUP6 ADD PUSH2 0x31D1 JUMP JUMPDEST SWAP2 POP POP SWAP3 SWAP2 POP POP JUMP JUMPDEST PUSH1 0x0 DUP2 PUSH1 0xE0 SHR SWAP1 POP SWAP2 SWAP1 POP JUMP JUMPDEST PUSH1 0x0 PUSH1 0x3 RETURNDATASIZE GT ISZERO PUSH2 0x323F JUMPI PUSH1 0x4 PUSH1 0x0 DUP1 RETURNDATACOPY PUSH2 0x323C PUSH1 0x0 MLOAD PUSH2 0x3213 JUMP JUMPDEST SWAP1 POP JUMPDEST SWAP1 JUMP JUMPDEST PUSH1 0x0 PUSH1 0x44 RETURNDATASIZE LT PUSH2 0x32CF JUMPI PUSH2 0x3254 PUSH2 0x1DC8 JUMP JUMPDEST PUSH1 0x4 RETURNDATASIZE SUB PUSH1 0x4 DUP3 RETURNDATACOPY DUP1 MLOAD RETURNDATASIZE PUSH1 0x24 DUP3 ADD GT PUSH8 0xFFFFFFFFFFFFFFFF DUP3 GT OR ISZERO PUSH2 0x327C JUMPI POP POP PUSH2 0x32CF JUMP JUMPDEST DUP1 DUP3 ADD DUP1 MLOAD PUSH8 0xFFFFFFFFFFFFFFFF DUP2 GT ISZERO PUSH2 0x329A JUMPI POP POP POP POP PUSH2 0x32CF JUMP JUMPDEST DUP1 PUSH1 0x20 DUP4 ADD ADD PUSH1 0x4 RETURNDATASIZE SUB DUP6 ADD DUP2 GT ISZERO PUSH2 0x32B7 JUMPI POP POP POP POP POP PUSH2 0x32CF JUMP JUMPDEST PUSH2 0x32C6 DUP3 PUSH1 0x20 ADD DUP6 ADD DUP7 PUSH2 0x2101 JUMP JUMPDEST DUP3 SWAP6 POP POP POP POP POP POP JUMPDEST SWAP1 JUMP JUMPDEST PUSH32 0x455243313135353A207472616E7366657220746F206E6F6E2D45524331313535 PUSH1 0x0 DUP3 ADD MSTORE PUSH32 0x526563656976657220696D706C656D656E746572000000000000000000000000 PUSH1 0x20 DUP3 ADD MSTORE POP JUMP JUMPDEST PUSH1 0x0 PUSH2 0x332E PUSH1 0x34 DUP4 PUSH2 0x1FA0 JUMP JUMPDEST SWAP2 POP PUSH2 0x3339 DUP3 PUSH2 0x32D2 JUMP JUMPDEST PUSH1 0x40 DUP3 ADD SWAP1 POP SWAP2 SWAP1 POP JUMP JUMPDEST PUSH1 0x0 PUSH1 0x20 DUP3 ADD SWAP1 POP DUP2 DUP2 SUB PUSH1 0x0 DUP4 ADD MSTORE PUSH2 0x335D DUP2 PUSH2 0x3321 JUMP JUMPDEST SWAP1 POP SWAP2 SWAP1 POP JUMP JUMPDEST PUSH32 0x455243313135353A204552433131353552656365697665722072656A65637465 PUSH1 0x0 DUP3 ADD MSTORE PUSH32 0x6420746F6B656E73000000000000000000000000000000000000000000000000 PUSH1 0x20 DUP3 ADD MSTORE POP JUMP JUMPDEST PUSH1 0x0 PUSH2 0x33C0 PUSH1 0x28 DUP4 PUSH2 0x1FA0 JUMP JUMPDEST SWAP2 POP PUSH2 0x33CB DUP3 PUSH2 0x3364 JUMP JUMPDEST PUSH1 0x40 DUP3 ADD SWAP1 POP SWAP2 SWAP1 POP JUMP JUMPDEST PUSH1 0x0 PUSH1 0x20 DUP3 ADD SWAP1 POP DUP2 DUP2 SUB PUSH1 0x0 DUP4 ADD MSTORE PUSH2 0x33EF DUP2 PUSH2 0x33B3 JUMP JUMPDEST SWAP1 POP SWAP2 SWAP1 POP JUMP JUMPDEST PUSH1 0x0 PUSH1 0xA0 DUP3 ADD SWAP1 POP PUSH2 0x340B PUSH1 0x0 DUP4 ADD DUP9 PUSH2 0x25B4 JUMP JUMPDEST PUSH2 0x3418 PUSH1 0x20 DUP4 ADD DUP8 PUSH2 0x25B4 JUMP JUMPDEST PUSH2 0x3425 PUSH1 0x40 DUP4 ADD DUP7 PUSH2 0x1EB0 JUMP JUMPDEST PUSH2 0x3432 PUSH1 0x60 DUP4 ADD DUP6 PUSH2 0x1EB0 JUMP JUMPDEST DUP2 DUP2 SUB PUSH1 0x80 DUP4 ADD MSTORE PUSH2 0x3444 DUP2 DUP5 PUSH2 0x3130 JUMP JUMPDEST SWAP1 POP SWAP7 SWAP6 POP POP POP POP POP POP JUMP INVALID LOG2 PUSH5 0x6970667358 0x22 SLT KECCAK256 0x27 SWAP11 0x26 CALLDATALOAD 0xE8 PUSH12 0x22E3702170B3BE991D7D7F55 DUP9 0x22 CALLDATALOAD SELFDESTRUCT ADDMOD CALLDATASIZE 0x2C SWAP3 0xC3 CODESIZE 0xDF SLT JUMPI 0xC2 PUSH5 0x736F6C6343 STOP ADDMOD GT STOP CALLER "},"methodIdentifiers":{"ID()":"b3cea217","balanceOf(address,uint256)":"00fdd58e","balanceOfBatch(address[],uint256[])":"4e1273f4","cost()":"13faede6","isApprovedForAll(address,address)":"e985e9c5","maxMintAmountPerTx()":"94354fd0","maxSupply()":"d5abeb01","mint(uint256)":"a0712d68","name()":"06fdde03","owner()":"8da5cb5b","paused()":"5c975abb","renounceOwnership()":"715018a6","safeBatchTransferFrom(address,address,uint256[],uint256[],bytes)":"2eb2c2d6","safeTransferFrom(address,address,uint256,uint256,bytes)":"f242432a","setApprovalForAll(address,bool)":"a22cb465","setCost(uint256)":"44a0d68a","setMaxMintAmountPerTx(uint256)":"b071401b","setPaused(bool)":"16c38b3c","supply()":"047fc9aa","supportsInterface(bytes4)":"01ffc9a7","symbol()":"95d89b41","transferOwnership(address)":"f2fde38b","uri(uint256)":"0e89341c","withdraw()":"3ccfd60b"}}}}}