{
  "_format": "hh-sol-artifact-1",
  "contractName": "Hodl",
  "sourceName": "contracts/hodl.sol",
  "abi": [
    {
      "inputs": [
        {
          "internalType": "address",
          "name": "",
          "type": "address"
        }
      ],
      "name": "balanceOf",
      "outputs": [
        {
          "internalType": "uint256",
          "name": "",
          "type": "uint256"
        }
      ],
      "stateMutability": "view",
      "type": "function"
    },
    {
      "inputs": [],
      "name": "deposit",
      "outputs": [],
      "stateMutability": "payable",
      "type": "function"
    },
    {
      "inputs": [
        {
          "internalType": "address",
          "name": "",
          "type": "address"
        }
      ],
      "name": "lockedUntil",
      "outputs": [
        {
          "internalType": "uint256",
          "name": "",
          "type": "uint256"
        }
      ],
      "stateMutability": "view",
      "type": "function"
    },
    {
      "inputs": [],
      "name": "withdraw",
      "outputs": [],
      "stateMutability": "nonpayable",
      "type": "function"
    }
  ],
  "bytecode": "0x608060405234801561001057600080fd5b506104e6806100206000396000f3fe60806040526004361061003f5760003560e01c80633ccfd60b1461004457806370a082311461005b5780639bc289f114610098578063d0e30db0146100d5575b600080fd5b34801561005057600080fd5b506100596100df565b005b34801561006757600080fd5b50610082600480360381019061007d919061036f565b610232565b60405161008f91906103b5565b60405180910390f35b3480156100a457600080fd5b506100bf60048036038101906100ba919061036f565b61024a565b6040516100cc91906103b5565b60405180910390f35b6100dd610262565b005b600160003373ffffffffffffffffffffffffffffffffffffffff1673ffffffffffffffffffffffffffffffffffffffff16815260200190815260200160002054421015610161576040517f08c379a00000000000000000000000000000000000000000000000000000000081526004016101589061042d565b60405180910390fd5b60008060003373ffffffffffffffffffffffffffffffffffffffff1673ffffffffffffffffffffffffffffffffffffffff16815260200190815260200160002054905060008060003373ffffffffffffffffffffffffffffffffffffffff1673ffffffffffffffffffffffffffffffffffffffff168152602001908152602001600020819055503373ffffffffffffffffffffffffffffffffffffffff166108fc829081150290604051600060405180830381858888f1935050505015801561022e573d6000803e3d6000fd5b5050565b60006020528060005260406000206000915090505481565b60016020528060005260406000206000915090505481565b346000803373ffffffffffffffffffffffffffffffffffffffff1673ffffffffffffffffffffffffffffffffffffffff16815260200190815260200160002060008282546102b0919061047c565b925050819055506305a39a80426102c7919061047c565b600160003373ffffffffffffffffffffffffffffffffffffffff1673ffffffffffffffffffffffffffffffffffffffff16815260200190815260200160002081905550565b600080fd5b600073ffffffffffffffffffffffffffffffffffffffff82169050919050565b600061033c82610311565b9050919050565b61034c81610331565b811461035757600080fd5b50565b60008135905061036981610343565b92915050565b6000602082840312156103855761038461030c565b5b60006103938482850161035a565b91505092915050565b6000819050919050565b6103af8161039c565b82525050565b60006020820190506103ca60008301846103a6565b92915050565b600082825260208201905092915050565b7f546f6f20736f6f6e000000000000000000000000000000000000000000000000600082015250565b60006104176008836103d0565b9150610422826103e1565b602082019050919050565b600060208201905081810360008301526104468161040a565b9050919050565b7f4e487b7100000000000000000000000000000000000000000000000000000000600052601160045260246000fd5b60006104878261039c565b91506104928361039c565b92508282019050808211156104aa576104a961044d565b5b9291505056fea264697066735822122001b4ce38b53f52e3c29e79b33d40b4abbbc210892eeb697f0dd9446171f2cb1c64736f6c63430008110033",
  "linkReferences": {},
  "deployedLinkReferences": {}
}