{
  "_format": "hh-sol-artifact-1",
  "contractName": "CPAMM",
  "sourceName": "contracts/constant_product_AMM.sol",
  "abi": [
    {
      "inputs": [
        {
          "internalType": "address",
          "name": "_token0",
          "type": "address"
        },
        {
          "internalType": "address",
          "name": "_token1",
          "type": "address"
        }
      ],
      "stateMutability": "nonpayable",
      "type": "constructor"
    },
    {
      "inputs": [
        {
          "internalType": "uint256",
          "name": "_amount0",
          "type": "uint256"
        },
        {
          "internalType": "uint256",
          "name": "_amount1",
          "type": "uint256"
        }
      ],
      "name": "addLiquidity",
      "outputs": [
        {
          "internalType": "uint256",
          "name": "shares",
          "type": "uint256"
        }
      ],
      "stateMutability": "nonpayable",
      "type": "function"
    },
    {
      "inputs": [
        {
          "internalType": "address",
          "name": "",
          "type": "address"
        }
      ],
      "name": "balanceOf",
      "outputs": [
        {
          "internalType": "uint256",
          "name": "",
          "type": "uint256"
        }
      ],
      "stateMutability": "view",
      "type": "function"
    },
    {
      "inputs": [
        {
          "internalType": "uint256",
          "name": "_shares",
          "type": "uint256"
        }
      ],
      "name": "removeLiquidity",
      "outputs": [
        {
          "internalType": "uint256",
          "name": "amount0",
          "type": "uint256"
        },
        {
          "internalType": "uint256",
          "name": "amount1",
          "type": "uint256"
        }
      ],
      "stateMutability": "nonpayable",
      "type": "function"
    },
    {
      "inputs": [],
      "name": "reserve0",
      "outputs": [
        {
          "internalType": "uint256",
          "name": "",
          "type": "uint256"
        }
      ],
      "stateMutability": "view",
      "type": "function"
    },
    {
      "inputs": [],
      "name": "reserve1",
      "outputs": [
        {
          "internalType": "uint256",
          "name": "",
          "type": "uint256"
        }
      ],
      "stateMutability": "view",
      "type": "function"
    },
    {
      "inputs": [
        {
          "internalType": "address",
          "name": "_tokenIn",
          "type": "address"
        },
        {
          "internalType": "uint256",
          "name": "_amountIn",
          "type": "uint256"
        }
      ],
      "name": "swap",
      "outputs": [
        {
          "internalType": "uint256",
          "name": "amountOut",
          "type": "uint256"
        }
      ],
      "stateMutability": "nonpayable",
      "type": "function"
    },
    {
      "inputs": [],
      "name": "token0",
      "outputs": [
        {
          "internalType": "contract IERC20",
          "name": "",
          "type": "address"
        }
      ],
      "stateMutability": "view",
      "type": "function"
    },
    {
      "inputs": [],
      "name": "token1",
      "outputs": [
        {
          "internalType": "contract IERC20",
          "name": "",
          "type": "address"
        }
      ],
      "stateMutability": "view",
      "type": "function"
    },
    {
      "inputs": [],
      "name": "totalSupply",
      "outputs": [
        {
          "internalType": "uint256",
          "name": "",
          "type": "uint256"
        }
      ],
      "stateMutability": "view",
      "type": "function"
    }
  ],
  "bytecode": "0x60c06040523480156200001157600080fd5b506040516200187f3803806200187f833981810160405281019062000037919062000111565b8173ffffffffffffffffffffffffffffffffffffffff1660808173ffffffffffffffffffffffffffffffffffffffff16815250508073ffffffffffffffffffffffffffffffffffffffff1660a08173ffffffffffffffffffffffffffffffffffffffff1681525050505062000158565b600080fd5b600073ffffffffffffffffffffffffffffffffffffffff82169050919050565b6000620000d982620000ac565b9050919050565b620000eb81620000cc565b8114620000f757600080fd5b50565b6000815190506200010b81620000e0565b92915050565b600080604083850312156200012b576200012a620000a7565b5b60006200013b85828601620000fa565b92505060206200014e85828601620000fa565b9150509250929050565b60805160a05161168a620001f5600039600081816102e2015281816104cc015281816106150152818161087a0152818161097601528181610aa601528181610b1401528181610d240152610dcf0152600081816101f1015281816102440152818161042d01528181610574015281816107e00152818161092101528181610a4a01528181610ac701528181610af30152610c8a015261168a6000f3fe608060405234801561001057600080fd5b50600436106100935760003560e01c806370a082311161006657806370a08231146101105780639c8f9f23146101405780639cd441da14610171578063d004f0f7146101a1578063d21220a7146101d157610093565b80630dfe16811461009857806318160ddd146100b6578063443cb4bc146100d45780635a76f25e146100f2575b600080fd5b6100a06101ef565b6040516100ad9190610ffc565b60405180910390f35b6100be610213565b6040516100cb9190611030565b60405180910390f35b6100dc610219565b6040516100e99190611030565b60405180910390f35b6100fa61021f565b6040516101079190611030565b60405180910390f35b61012a6004803603810190610125919061108e565b610225565b6040516101379190611030565b60405180910390f35b61015a600480360381019061015591906110e7565b61023d565b604051610168929190611114565b60405180910390f35b61018b6004803603810190610186919061113d565b610570565b6040516101989190611030565b60405180910390f35b6101bb60048036038101906101b6919061117d565b61091d565b6040516101c89190611030565b60405180910390f35b6101d9610dcd565b6040516101e69190610ffc565b60405180910390f35b7f000000000000000000000000000000000000000000000000000000000000000081565b60025481565b60005481565b60015481565b60036020528060005260406000206000915090505481565b60008060007f000000000000000000000000000000000000000000000000000000000000000073ffffffffffffffffffffffffffffffffffffffff166370a08231306040518263ffffffff1660e01b815260040161029b91906111cc565b602060405180830381865afa1580156102b8573d6000803e3d6000fd5b505050506040513d601f19601f820116820180604052508101906102dc91906111fc565b905060007f000000000000000000000000000000000000000000000000000000000000000073ffffffffffffffffffffffffffffffffffffffff166370a08231306040518263ffffffff1660e01b815260040161033991906111cc565b602060405180830381865afa158015610356573d6000803e3d6000fd5b505050506040513d601f19601f8201168201806040525081019061037a91906111fc565b9050600254828661038b9190611258565b61039591906112c9565b935060025481866103a69190611258565b6103b091906112c9565b92506000841180156103c25750600083115b610401576040517f08c379a00000000000000000000000000000000000000000000000000000000081526004016103f890611357565b60405180910390fd5b61040b3386610df1565b61042b848361041a9190611377565b84836104269190611377565b610e64565b7f000000000000000000000000000000000000000000000000000000000000000073ffffffffffffffffffffffffffffffffffffffff1663a9059cbb33866040518363ffffffff1660e01b81526004016104869291906113ab565b6020604051808303816000875af11580156104a5573d6000803e3d6000fd5b505050506040513d601f19601f820116820180604052508101906104c9919061140c565b507f000000000000000000000000000000000000000000000000000000000000000073ffffffffffffffffffffffffffffffffffffffff1663a9059cbb33856040518363ffffffff1660e01b81526004016105259291906113ab565b6020604051808303816000875af1158015610544573d6000803e3d6000fd5b505050506040513d601f19601f82011682018060405250810190610568919061140c565b505050915091565b60007f000000000000000000000000000000000000000000000000000000000000000073ffffffffffffffffffffffffffffffffffffffff166323b872dd3330866040518463ffffffff1660e01b81526004016105cf93929190611439565b6020604051808303816000875af11580156105ee573d6000803e3d6000fd5b505050506040513d601f19601f82011682018060405250810190610612919061140c565b507f000000000000000000000000000000000000000000000000000000000000000073ffffffffffffffffffffffffffffffffffffffff166323b872dd3330856040518463ffffffff1660e01b815260040161067093929190611439565b6020604051808303816000875af115801561068f573d6000803e3d6000fd5b505050506040513d601f19601f820116820180604052508101906106b3919061140c565b506000805411806106c657506000600154115b1561072857826001546106d99190611258565b826000546106e79190611258565b14610727576040517f08c379a000000000000000000000000000000000000000000000000000000000815260040161071e906114bc565b60405180910390fd5b5b60006002540361074d5761074682846107419190611258565b610e76565b905061078e565b61078b600054600254856107619190611258565b61076b91906112c9565b6001546002548561077c9190611258565b61078691906112c9565b610ef0565b90505b600081116107d1576040517f08c379a00000000000000000000000000000000000000000000000000000000081526004016107c890611528565b60405180910390fd5b6107db3382610f0a565b6109177f000000000000000000000000000000000000000000000000000000000000000073ffffffffffffffffffffffffffffffffffffffff166370a08231306040518263ffffffff1660e01b815260040161083791906111cc565b602060405180830381865afa158015610854573d6000803e3d6000fd5b505050506040513d601f19601f8201168201806040525081019061087891906111fc565b7f000000000000000000000000000000000000000000000000000000000000000073ffffffffffffffffffffffffffffffffffffffff166370a08231306040518263ffffffff1660e01b81526004016108d191906111cc565b602060405180830381865afa1580156108ee573d6000803e3d6000fd5b505050506040513d601f19601f8201168201806040525081019061091291906111fc565b610e64565b92915050565b60007f000000000000000000000000000000000000000000000000000000000000000073ffffffffffffffffffffffffffffffffffffffff168373ffffffffffffffffffffffffffffffffffffffff1614806109c457507f000000000000000000000000000000000000000000000000000000000000000073ffffffffffffffffffffffffffffffffffffffff168373ffffffffffffffffffffffffffffffffffffffff16145b610a03576040517f08c379a00000000000000000000000000000000000000000000000000000000081526004016109fa90611594565b60405180910390fd5b60008211610a46576040517f08c379a0000000000000000000000000000000000000000000000000000000008152600401610a3d90611600565b60405180910390fd5b60007f000000000000000000000000000000000000000000000000000000000000000073ffffffffffffffffffffffffffffffffffffffff168473ffffffffffffffffffffffffffffffffffffffff1614905060008060008084610af1577f00000000000000000000000000000000000000000000000000000000000000007f0000000000000000000000000000000000000000000000000000000000000000600154600054610b3a565b7f00000000000000000000000000000000000000000000000000000000000000007f00000000000000000000000000000000000000000000000000000000000000006000546001545b93509350935093508373ffffffffffffffffffffffffffffffffffffffff166323b872dd33308a6040518463ffffffff1660e01b8152600401610b7f93929190611439565b6020604051808303816000875af1158015610b9e573d6000803e3d6000fd5b505050506040513d601f19601f82011682018060405250810190610bc2919061140c565b5060006103e86103e589610bd69190611258565b610be091906112c9565b90508083610bee9190611620565b8183610bfa9190611258565b610c0491906112c9565b96508373ffffffffffffffffffffffffffffffffffffffff1663a9059cbb33896040518363ffffffff1660e01b8152600401610c419291906113ab565b6020604051808303816000875af1158015610c60573d6000803e3d6000fd5b505050506040513d601f19601f82011682018060405250810190610c84919061140c565b50610dc17f000000000000000000000000000000000000000000000000000000000000000073ffffffffffffffffffffffffffffffffffffffff166370a08231306040518263ffffffff1660e01b8152600401610ce191906111cc565b602060405180830381865afa158015610cfe573d6000803e3d6000fd5b505050506040513d601f19601f82011682018060405250810190610d2291906111fc565b7f000000000000000000000000000000000000000000000000000000000000000073ffffffffffffffffffffffffffffffffffffffff166370a08231306040518263ffffffff1660e01b8152600401610d7b91906111cc565b602060405180830381865afa158015610d98573d6000803e3d6000fd5b505050506040513d601f19601f82011682018060405250810190610dbc91906111fc565b610e64565b50505050505092915050565b7f000000000000000000000000000000000000000000000000000000000000000081565b80600360008473ffffffffffffffffffffffffffffffffffffffff1673ffffffffffffffffffffffffffffffffffffffff1681526020019081526020016000206000828254610e409190611377565b925050819055508060026000828254610e599190611377565b925050819055505050565b81600081905550806001819055505050565b60006003821115610edd5781905060006001600284610e9591906112c9565b610e9f9190611620565b90505b81811015610ed7578091506002818285610ebc91906112c9565b610ec69190611620565b610ed091906112c9565b9050610ea2565b50610eeb565b60008214610eea57600190505b5b919050565b600081831115610f005781610f02565b825b905092915050565b80600360008473ffffffffffffffffffffffffffffffffffffffff1673ffffffffffffffffffffffffffffffffffffffff1681526020019081526020016000206000828254610f599190611620565b925050819055508060026000828254610f729190611620565b925050819055505050565b600073ffffffffffffffffffffffffffffffffffffffff82169050919050565b6000819050919050565b6000610fc2610fbd610fb884610f7d565b610f9d565b610f7d565b9050919050565b6000610fd482610fa7565b9050919050565b6000610fe682610fc9565b9050919050565b610ff681610fdb565b82525050565b60006020820190506110116000830184610fed565b92915050565b6000819050919050565b61102a81611017565b82525050565b60006020820190506110456000830184611021565b92915050565b600080fd5b600061105b82610f7d565b9050919050565b61106b81611050565b811461107657600080fd5b50565b60008135905061108881611062565b92915050565b6000602082840312156110a4576110a361104b565b5b60006110b284828501611079565b91505092915050565b6110c481611017565b81146110cf57600080fd5b50565b6000813590506110e1816110bb565b92915050565b6000602082840312156110fd576110fc61104b565b5b600061110b848285016110d2565b91505092915050565b60006040820190506111296000830185611021565b6111366020830184611021565b9392505050565b600080604083850312156111545761115361104b565b5b6000611162858286016110d2565b9250506020611173858286016110d2565b9150509250929050565b600080604083850312156111945761119361104b565b5b60006111a285828601611079565b92505060206111b3858286016110d2565b9150509250929050565b6111c681611050565b82525050565b60006020820190506111e160008301846111bd565b92915050565b6000815190506111f6816110bb565b92915050565b6000602082840312156112125761121161104b565b5b6000611220848285016111e7565b91505092915050565b7f4e487b7100000000000000000000000000000000000000000000000000000000600052601160045260246000fd5b600061126382611017565b915061126e83611017565b925082820261127c81611017565b9150828204841483151761129357611292611229565b5b5092915050565b7f4e487b7100000000000000000000000000000000000000000000000000000000600052601260045260246000fd5b60006112d482611017565b91506112df83611017565b9250826112ef576112ee61129a565b5b828204905092915050565b600082825260208201905092915050565b7f616d6f756e7430206f7220616d6f756e7431203d203000000000000000000000600082015250565b60006113416016836112fa565b915061134c8261130b565b602082019050919050565b6000602082019050818103600083015261137081611334565b9050919050565b600061138282611017565b915061138d83611017565b92508282039050818111156113a5576113a4611229565b5b92915050565b60006040820190506113c060008301856111bd565b6113cd6020830184611021565b9392505050565b60008115159050919050565b6113e9816113d4565b81146113f457600080fd5b50565b600081519050611406816113e0565b92915050565b6000602082840312156114225761142161104b565b5b6000611430848285016113f7565b91505092915050565b600060608201905061144e60008301866111bd565b61145b60208301856111bd565b6114686040830184611021565b949350505050565b7f78202f207920213d206478202f20647900000000000000000000000000000000600082015250565b60006114a66010836112fa565b91506114b182611470565b602082019050919050565b600060208201905081810360008301526114d581611499565b9050919050565b7f736861726573203d203000000000000000000000000000000000000000000000600082015250565b6000611512600a836112fa565b915061151d826114dc565b602082019050919050565b6000602082019050818103600083015261154181611505565b9050919050565b7f696e76616c696420746f6b656e00000000000000000000000000000000000000600082015250565b600061157e600d836112fa565b915061158982611548565b602082019050919050565b600060208201905081810360008301526115ad81611571565b9050919050565b7f616d6f756e7420696e203d203000000000000000000000000000000000000000600082015250565b60006115ea600d836112fa565b91506115f5826115b4565b602082019050919050565b60006020820190508181036000830152611619816115dd565b9050919050565b600061162b82611017565b915061163683611017565b925082820190508082111561164e5761164d611229565b5b9291505056fea26469706673582212205b4c722b3c952ba3730410b5b8daefc675f5befa66ddde9586fc3012290d7d2964736f6c63430008110033",
  "linkReferences": {},
  "deployedLinkReferences": {}
}