{"contracts/visibility.sol":{"VisibilityChild":{"abi":[{"inputs":[],"name":"examples","outputs":[],"stateMutability":"view","type":"function"},{"inputs":[],"name":"examples2","outputs":[],"stateMutability":"view","type":"function"},{"inputs":[],"name":"externalFunc","outputs":[{"internalType":"uint256","name":"","type":"uint256"}],"stateMutability":"pure","type":"function"},{"inputs":[],"name":"publicFunc","outputs":[{"internalType":"uint256","name":"","type":"uint256"}],"stateMutability":"pure","type":"function"},{"inputs":[],"name":"test","outputs":[{"internalType":"uint256","name":"","type":"uint256"}],"stateMutability":"view","type":"function"},{"inputs":[],"name":"z","outputs":[{"internalType":"uint256","name":"","type":"uint256"}],"stateMutability":"view","type":"function"}],"evm":{"bytecode":{"linkReferences":{},"object":"608060405260008055600180556002805534801561001c57600080fd5b506103508061002c6000396000f3fe608060405234801561001057600080fd5b50600436106100625760003560e01c8063335d00c21461006757806342b148aa146100715780634b73383f1461008f578063c3be8e2c146100ad578063c5d7802e146100b7578063f8a8fd6d146100d5575b600080fd5b61006f6100f3565b005b61007961019e565b604051610086919061023e565b60405180910390f35b6100976101a8565b6040516100a4919061023e565b60405180910390f35b6100b56101b1565b005b6100bf6101d6565b6040516100cc919061023e565b60405180910390f35b6100dd6101dc565b6040516100ea919061023e565b60405180910390f35b6002546001546000546101069190610288565b6101109190610288565b50610119610217565b5061012261021c565b5061012b6101a8565b503073ffffffffffffffffffffffffffffffffffffffff166342b148aa6040518163ffffffff1660e01b8152600401602060405180830381865afa158015610177573d6000803e3d6000fd5b505050506040513d601f19601f8201168201806040525081019061019b91906102ed565b50565b600061012c905090565b600060c8905090565b6002546001546101c19190610288565b506101ca61021c565b506101d36101a8565b50565b60025481565b60006101e66101a8565b6101ee61021c565b6002546001546101fe9190610288565b6102089190610288565b6102129190610288565b905090565b600090565b60006064905090565b6000819050919050565b61023881610225565b82525050565b6000602082019050610253600083018461022f565b92915050565b7f4e487b7100000000000000000000000000000000000000000000000000000000600052601160045260246000fd5b600061029382610225565b915061029e83610225565b92508282019050808211156102b6576102b5610259565b5b92915050565b600080fd5b6102ca81610225565b81146102d557600080fd5b50565b6000815190506102e7816102c1565b92915050565b600060208284031215610303576103026102bc565b5b6000610311848285016102d8565b9150509291505056fea264697066735822122057aff64765d98d1679af56cd69ae00c028776dc4682fc24fad802176c79d2f9b64736f6c63430008110033","opcodes":"PUSH1 0x80 PUSH1 0x40 MSTORE PUSH1 0x0 DUP1 SSTORE PUSH1 0x1 DUP1 SSTORE PUSH1 0x2 DUP1 SSTORE CALLVALUE DUP1 ISZERO PUSH2 0x1C JUMPI PUSH1 0x0 DUP1 REVERT JUMPDEST POP PUSH2 0x350 DUP1 PUSH2 0x2C PUSH1 0x0 CODECOPY PUSH1 0x0 RETURN INVALID PUSH1 0x80 PUSH1 0x40 MSTORE CALLVALUE DUP1 ISZERO PUSH2 0x10 JUMPI PUSH1 0x0 DUP1 REVERT JUMPDEST POP PUSH1 0x4 CALLDATASIZE LT PUSH2 0x62 JUMPI PUSH1 0x0 CALLDATALOAD PUSH1 0xE0 SHR DUP1 PUSH4 0x335D00C2 EQ PUSH2 0x67 JUMPI DUP1 PUSH4 0x42B148AA EQ PUSH2 0x71 JUMPI DUP1 PUSH4 0x4B73383F EQ PUSH2 0x8F JUMPI DUP1 PUSH4 0xC3BE8E2C EQ PUSH2 0xAD JUMPI DUP1 PUSH4 0xC5D7802E EQ PUSH2 0xB7 JUMPI DUP1 PUSH4 0xF8A8FD6D EQ PUSH2 0xD5 JUMPI JUMPDEST PUSH1 0x0 DUP1 REVERT JUMPDEST PUSH2 0x6F PUSH2 0xF3 JUMP JUMPDEST STOP JUMPDEST PUSH2 0x79 PUSH2 0x19E JUMP JUMPDEST PUSH1 0x40 MLOAD PUSH2 0x86 SWAP2 SWAP1 PUSH2 0x23E JUMP JUMPDEST PUSH1 0x40 MLOAD DUP1 SWAP2 SUB SWAP1 RETURN JUMPDEST PUSH2 0x97 PUSH2 0x1A8 JUMP JUMPDEST PUSH1 0x40 MLOAD PUSH2 0xA4 SWAP2 SWAP1 PUSH2 0x23E JUMP JUMPDEST PUSH1 0x40 MLOAD DUP1 SWAP2 SUB SWAP1 RETURN JUMPDEST PUSH2 0xB5 PUSH2 0x1B1 JUMP JUMPDEST STOP JUMPDEST PUSH2 0xBF PUSH2 0x1D6 JUMP JUMPDEST PUSH1 0x40 MLOAD PUSH2 0xCC SWAP2 SWAP1 PUSH2 0x23E JUMP JUMPDEST PUSH1 0x40 MLOAD DUP1 SWAP2 SUB SWAP1 RETURN JUMPDEST PUSH2 0xDD PUSH2 0x1DC JUMP JUMPDEST PUSH1 0x40 MLOAD PUSH2 0xEA SWAP2 SWAP1 PUSH2 0x23E JUMP JUMPDEST PUSH1 0x40 MLOAD DUP1 SWAP2 SUB SWAP1 RETURN JUMPDEST PUSH1 0x2 SLOAD PUSH1 0x1 SLOAD PUSH1 0x0 SLOAD PUSH2 0x106 SWAP2 SWAP1 PUSH2 0x288 JUMP JUMPDEST PUSH2 0x110 SWAP2 SWAP1 PUSH2 0x288 JUMP JUMPDEST POP PUSH2 0x119 PUSH2 0x217 JUMP JUMPDEST POP PUSH2 0x122 PUSH2 0x21C JUMP JUMPDEST POP PUSH2 0x12B PUSH2 0x1A8 JUMP JUMPDEST POP ADDRESS PUSH20 0xFFFFFFFFFFFFFFFFFFFFFFFFFFFFFFFFFFFFFFFF AND PUSH4 0x42B148AA PUSH1 0x40 MLOAD DUP2 PUSH4 0xFFFFFFFF AND PUSH1 0xE0 SHL DUP2 MSTORE PUSH1 0x4 ADD PUSH1 0x20 PUSH1 0x40 MLOAD DUP1 DUP4 SUB DUP2 DUP7 GAS STATICCALL ISZERO DUP1 ISZERO PUSH2 0x177 JUMPI RETURNDATASIZE PUSH1 0x0 DUP1 RETURNDATACOPY RETURNDATASIZE PUSH1 0x0 REVERT JUMPDEST POP POP POP POP PUSH1 0x40 MLOAD RETURNDATASIZE PUSH1 0x1F NOT PUSH1 0x1F DUP3 ADD AND DUP3 ADD DUP1 PUSH1 0x40 MSTORE POP DUP2 ADD SWAP1 PUSH2 0x19B SWAP2 SWAP1 PUSH2 0x2ED JUMP JUMPDEST POP JUMP JUMPDEST PUSH1 0x0 PUSH2 0x12C SWAP1 POP SWAP1 JUMP JUMPDEST PUSH1 0x0 PUSH1 0xC8 SWAP1 POP SWAP1 JUMP JUMPDEST PUSH1 0x2 SLOAD PUSH1 0x1 SLOAD PUSH2 0x1C1 SWAP2 SWAP1 PUSH2 0x288 JUMP JUMPDEST POP PUSH2 0x1CA PUSH2 0x21C JUMP JUMPDEST POP PUSH2 0x1D3 PUSH2 0x1A8 JUMP JUMPDEST POP JUMP JUMPDEST PUSH1 0x2 SLOAD DUP2 JUMP JUMPDEST PUSH1 0x0 PUSH2 0x1E6 PUSH2 0x1A8 JUMP JUMPDEST PUSH2 0x1EE PUSH2 0x21C JUMP JUMPDEST PUSH1 0x2 SLOAD PUSH1 0x1 SLOAD PUSH2 0x1FE SWAP2 SWAP1 PUSH2 0x288 JUMP JUMPDEST PUSH2 0x208 SWAP2 SWAP1 PUSH2 0x288 JUMP JUMPDEST PUSH2 0x212 SWAP2 SWAP1 PUSH2 0x288 JUMP JUMPDEST SWAP1 POP SWAP1 JUMP JUMPDEST PUSH1 0x0 SWAP1 JUMP JUMPDEST PUSH1 0x0 PUSH1 0x64 SWAP1 POP SWAP1 JUMP JUMPDEST PUSH1 0x0 DUP2 SWAP1 POP SWAP2 SWAP1 POP JUMP JUMPDEST PUSH2 0x238 DUP2 PUSH2 0x225 JUMP JUMPDEST DUP3 MSTORE POP POP JUMP JUMPDEST PUSH1 0x0 PUSH1 0x20 DUP3 ADD SWAP1 POP PUSH2 0x253 PUSH1 0x0 DUP4 ADD DUP5 PUSH2 0x22F JUMP JUMPDEST SWAP3 SWAP2 POP POP JUMP JUMPDEST PUSH32 0x4E487B7100000000000000000000000000000000000000000000000000000000 PUSH1 0x0 MSTORE PUSH1 0x11 PUSH1 0x4 MSTORE PUSH1 0x24 PUSH1 0x0 REVERT JUMPDEST PUSH1 0x0 PUSH2 0x293 DUP3 PUSH2 0x225 JUMP JUMPDEST SWAP2 POP PUSH2 0x29E DUP4 PUSH2 0x225 JUMP JUMPDEST SWAP3 POP DUP3 DUP3 ADD SWAP1 POP DUP1 DUP3 GT ISZERO PUSH2 0x2B6 JUMPI PUSH2 0x2B5 PUSH2 0x259 JUMP JUMPDEST JUMPDEST SWAP3 SWAP2 POP POP JUMP JUMPDEST PUSH1 0x0 DUP1 REVERT JUMPDEST PUSH2 0x2CA DUP2 PUSH2 0x225 JUMP JUMPDEST DUP2 EQ PUSH2 0x2D5 JUMPI PUSH1 0x0 DUP1 REVERT JUMPDEST POP JUMP JUMPDEST PUSH1 0x0 DUP2 MLOAD SWAP1 POP PUSH2 0x2E7 DUP2 PUSH2 0x2C1 JUMP JUMPDEST SWAP3 SWAP2 POP POP JUMP JUMPDEST PUSH1 0x0 PUSH1 0x20 DUP3 DUP5 SUB SLT ISZERO PUSH2 0x303 JUMPI PUSH2 0x302 PUSH2 0x2BC JUMP JUMPDEST JUMPDEST PUSH1 0x0 PUSH2 0x311 DUP5 DUP3 DUP6 ADD PUSH2 0x2D8 JUMP JUMPDEST SWAP2 POP POP SWAP3 SWAP2 POP POP JUMP INVALID LOG2 PUSH5 0x6970667358 0x22 SLT KECCAK256 JUMPI 0xAF 0xF6 SELFBALANCE PUSH6 0xD98D1679AF56 0xCD PUSH10 0xAE00C028776DC4682FC2 0x4F 0xAD DUP1 0x21 PUSH23 0xC79D2F9B64736F6C634300081100330000000000000000 "},"methodIdentifiers":{"examples()":"335d00c2","examples2()":"c3be8e2c","externalFunc()":"42b148aa","publicFunc()":"4b73383f","test()":"f8a8fd6d","z()":"c5d7802e"}}}}}