{
  "_format": "hh-sol-artifact-1",
  "contractName": "FunctionModifier",
  "sourceName": "contracts/modifier.sol",
  "abi": [
    {
      "inputs": [],
      "name": "count",
      "outputs": [
        {
          "internalType": "uint256",
          "name": "",
          "type": "uint256"
        }
      ],
      "stateMutability": "view",
      "type": "function"
    },
    {
      "inputs": [],
      "name": "dec",
      "outputs": [],
      "stateMutability": "nonpayable",
      "type": "function"
    },
    {
      "inputs": [],
      "name": "inc",
      "outputs": [],
      "stateMutability": "nonpayable",
      "type": "function"
    },
    {
      "inputs": [
        {
          "internalType": "uint256",
          "name": "_x",
          "type": "uint256"
        }
      ],
      "name": "incBy",
      "outputs": [],
      "stateMutability": "nonpayable",
      "type": "function"
    },
    {
      "inputs": [],
      "name": "paused",
      "outputs": [
        {
          "internalType": "bool",
          "name": "",
          "type": "bool"
        }
      ],
      "stateMutability": "view",
      "type": "function"
    },
    {
      "inputs": [],
      "name": "reset",
      "outputs": [],
      "stateMutability": "nonpayable",
      "type": "function"
    },
    {
      "inputs": [
        {
          "internalType": "bool",
          "name": "_paused",
          "type": "bool"
        }
      ],
      "name": "setPause",
      "outputs": [],
      "stateMutability": "nonpayable",
      "type": "function"
    }
  ],
  "bytecode": "0x608060405234801561001057600080fd5b50610662806100206000396000f3fe608060405234801561001057600080fd5b506004361061007d5760003560e01c806370119d061161005b57806370119d06146100c8578063b3bcfa82146100e4578063bedb86fb146100ee578063d826f88f1461010a5761007d565b806306661abd14610082578063371303c0146100a05780635c975abb146100aa575b600080fd5b61008a610114565b6040516100979190610338565b60405180910390f35b6100a861011a565b005b6100b2610183565b6040516100bf919061036e565b60405180910390f35b6100e260048036038101906100dd91906103ba565b610194565b005b6100ec610243565b005b61010860048036038101906101039190610413565b6102ac565b005b6101126102c8565b005b60015481565b60008054906101000a900460ff1615610168576040517f08c379a000000000000000000000000000000000000000000000000000000000815260040161015f9061049d565b60405180910390fd5b600180600082825461017a91906104ec565b92505081905550565b60008054906101000a900460ff1681565b60008054906101000a900460ff16156101e2576040517f08c379a00000000000000000000000000000000000000000000000000000000081526004016101d99061049d565b60405180910390fd5b80600a8110610226576040517f08c379a000000000000000000000000000000000000000000000000000000000815260040161021d9061056c565b60405180910390fd5b816001600082825461023891906104ec565b925050819055505050565b60008054906101000a900460ff1615610291576040517f08c379a00000000000000000000000000000000000000000000000000000000081526004016102889061049d565b60405180910390fd5b60018060008282546102a3919061058c565b92505081905550565b806000806101000a81548160ff02191690831515021790555050565b60008054906101000a900460ff16610315576040517f08c379a000000000000000000000000000000000000000000000000000000000815260040161030c9061060c565b60405180910390fd5b6000600181905550565b6000819050919050565b6103328161031f565b82525050565b600060208201905061034d6000830184610329565b92915050565b60008115159050919050565b61036881610353565b82525050565b6000602082019050610383600083018461035f565b92915050565b600080fd5b6103978161031f565b81146103a257600080fd5b50565b6000813590506103b48161038e565b92915050565b6000602082840312156103d0576103cf610389565b5b60006103de848285016103a5565b91505092915050565b6103f081610353565b81146103fb57600080fd5b50565b60008135905061040d816103e7565b92915050565b60006020828403121561042957610428610389565b5b6000610437848285016103fe565b91505092915050565b600082825260208201905092915050565b7f7061757365640000000000000000000000000000000000000000000000000000600082015250565b6000610487600683610440565b915061049282610451565b602082019050919050565b600060208201905081810360008301526104b68161047a565b9050919050565b7f4e487b7100000000000000000000000000000000000000000000000000000000600052601160045260246000fd5b60006104f78261031f565b91506105028361031f565b925082820190508082111561051a576105196104bd565b5b92915050565b7f78203e3d20313000000000000000000000000000000000000000000000000000600082015250565b6000610556600783610440565b915061056182610520565b602082019050919050565b6000602082019050818103600083015261058581610549565b9050919050565b60006105978261031f565b91506105a28361031f565b92508282039050818111156105ba576105b96104bd565b5b92915050565b7f6e6f742070617573656400000000000000000000000000000000000000000000600082015250565b60006105f6600a83610440565b9150610601826105c0565b602082019050919050565b60006020820190508181036000830152610625816105e9565b905091905056fea26469706673582212200d2918af0c7644f66d1cbea979dd07a154ca07d40aeac22dc8d77ab9f2b79d4764736f6c63430008110033",
  "linkReferences": {},
  "deployedLinkReferences": {}
}