{
  "_format": "hh-sol-artifact-1",
  "contractName": "TimeLock",
  "sourceName": "contracts/time_lock.sol",
  "abi": [
    {
      "inputs": [],
      "stateMutability": "nonpayable",
      "type": "constructor"
    },
    {
      "inputs": [
        {
          "internalType": "bytes32",
          "name": "txId",
          "type": "bytes32"
        }
      ],
      "name": "AlreadyQueuedError",
      "type": "error"
    },
    {
      "inputs": [
        {
          "internalType": "bytes32",
          "name": "txId",
          "type": "bytes32"
        }
      ],
      "name": "NotQueuedError",
      "type": "error"
    },
    {
      "inputs": [
        {
          "internalType": "uint256",
          "name": "block_timestamp",
          "type": "uint256"
        },
        {
          "internalType": "uint256",
          "name": "timestamp",
          "type": "uint256"
        }
      ],
      "name": "TimestampExpiredError",
      "type": "error"
    },
    {
      "inputs": [
        {
          "internalType": "uint256",
          "name": "block_timestamp",
          "type": "uint256"
        },
        {
          "internalType": "uint256",
          "name": "timestamp",
          "type": "uint256"
        }
      ],
      "name": "TimestampNotInRangeError",
      "type": "error"
    },
    {
      "inputs": [
        {
          "internalType": "uint256",
          "name": "block_timestamp",
          "type": "uint256"
        },
        {
          "internalType": "uint256",
          "name": "timestamp",
          "type": "uint256"
        }
      ],
      "name": "TimestampNotPassedError",
      "type": "error"
    },
    {
      "inputs": [],
      "name": "TxFailedError",
      "type": "error"
    },
    {
      "anonymous": false,
      "inputs": [
        {
          "indexed": true,
          "internalType": "bytes32",
          "name": "txId",
          "type": "bytes32"
        }
      ],
      "name": "Cancel",
      "type": "event"
    },
    {
      "anonymous": false,
      "inputs": [
        {
          "indexed": true,
          "internalType": "bytes32",
          "name": "txId",
          "type": "bytes32"
        },
        {
          "indexed": true,
          "internalType": "address",
          "name": "target",
          "type": "address"
        },
        {
          "indexed": false,
          "internalType": "uint256",
          "name": "value",
          "type": "uint256"
        },
        {
          "indexed": false,
          "internalType": "string",
          "name": "func",
          "type": "string"
        },
        {
          "indexed": false,
          "internalType": "bytes",
          "name": "data",
          "type": "bytes"
        },
        {
          "indexed": false,
          "internalType": "uint256",
          "name": "timestamp",
          "type": "uint256"
        }
      ],
      "name": "Execute",
      "type": "event"
    },
    {
      "anonymous": false,
      "inputs": [
        {
          "indexed": true,
          "internalType": "bytes32",
          "name": "txId",
          "type": "bytes32"
        },
        {
          "indexed": true,
          "internalType": "address",
          "name": "target",
          "type": "address"
        },
        {
          "indexed": false,
          "internalType": "uint256",
          "name": "value",
          "type": "uint256"
        },
        {
          "indexed": false,
          "internalType": "string",
          "name": "func",
          "type": "string"
        },
        {
          "indexed": false,
          "internalType": "bytes",
          "name": "data",
          "type": "bytes"
        },
        {
          "indexed": false,
          "internalType": "uint256",
          "name": "timestamp",
          "type": "uint256"
        }
      ],
      "name": "Queue",
      "type": "event"
    },
    {
      "inputs": [],
      "name": "GRACE_PERIOD",
      "outputs": [
        {
          "internalType": "uint256",
          "name": "",
          "type": "uint256"
        }
      ],
      "stateMutability": "view",
      "type": "function"
    },
    {
      "inputs": [],
      "name": "MAX_DELAY",
      "outputs": [
        {
          "internalType": "uint256",
          "name": "",
          "type": "uint256"
        }
      ],
      "stateMutability": "view",
      "type": "function"
    },
    {
      "inputs": [],
      "name": "MIN_DELAY",
      "outputs": [
        {
          "internalType": "uint256",
          "name": "",
          "type": "uint256"
        }
      ],
      "stateMutability": "view",
      "type": "function"
    },
    {
      "inputs": [
        {
          "internalType": "bytes32",
          "name": "_txId",
          "type": "bytes32"
        }
      ],
      "name": "cancel",
      "outputs": [],
      "stateMutability": "nonpayable",
      "type": "function"
    },
    {
      "inputs": [
        {
          "internalType": "address",
          "name": "_target",
          "type": "address"
        },
        {
          "internalType": "uint256",
          "name": "_value",
          "type": "uint256"
        },
        {
          "internalType": "string",
          "name": "_func",
          "type": "string"
        },
        {
          "internalType": "bytes",
          "name": "_data",
          "type": "bytes"
        },
        {
          "internalType": "uint256",
          "name": "_timestamp",
          "type": "uint256"
        }
      ],
      "name": "execute",
      "outputs": [
        {
          "internalType": "bytes",
          "name": "",
          "type": "bytes"
        }
      ],
      "stateMutability": "payable",
      "type": "function"
    },
    {
      "inputs": [
        {
          "internalType": "address",
          "name": "_target",
          "type": "address"
        },
        {
          "internalType": "uint256",
          "name": "_value",
          "type": "uint256"
        },
        {
          "internalType": "string",
          "name": "_func",
          "type": "string"
        },
        {
          "internalType": "bytes",
          "name": "_data",
          "type": "bytes"
        },
        {
          "internalType": "uint256",
          "name": "_timestamp",
          "type": "uint256"
        }
      ],
      "name": "getTxId",
      "outputs": [
        {
          "internalType": "bytes32",
          "name": "",
          "type": "bytes32"
        }
      ],
      "stateMutability": "pure",
      "type": "function"
    },
    {
      "inputs": [],
      "name": "owner",
      "outputs": [
        {
          "internalType": "address",
          "name": "",
          "type": "address"
        }
      ],
      "stateMutability": "view",
      "type": "function"
    },
    {
      "inputs": [
        {
          "internalType": "address",
          "name": "_target",
          "type": "address"
        },
        {
          "internalType": "uint256",
          "name": "_value",
          "type": "uint256"
        },
        {
          "internalType": "string",
          "name": "_func",
          "type": "string"
        },
        {
          "internalType": "bytes",
          "name": "_data",
          "type": "bytes"
        },
        {
          "internalType": "uint256",
          "name": "_timestamp",
          "type": "uint256"
        }
      ],
      "name": "queue",
      "outputs": [
        {
          "internalType": "bytes32",
          "name": "txId",
          "type": "bytes32"
        }
      ],
      "stateMutability": "nonpayable",
      "type": "function"
    },
    {
      "inputs": [
        {
          "internalType": "bytes32",
          "name": "",
          "type": "bytes32"
        }
      ],
      "name": "queued",
      "outputs": [
        {
          "internalType": "bool",
          "name": "",
          "type": "bool"
        }
      ],
      "stateMutability": "view",
      "type": "function"
    },
    {
      "stateMutability": "payable",
      "type": "receive"
    }
  ],
  "bytecode": "0x608060405234801561001057600080fd5b50336000806101000a81548173ffffffffffffffffffffffffffffffffffffffff021916908373ffffffffffffffffffffffffffffffffffffffff1602179055506110ff806100606000396000f3fe60806040526004361061008a5760003560e01c80638da5cb5b116100595780638da5cb5b146101785780639f81aed7146101a3578063b0f8b142146101ce578063c1a287e2146101fe578063c4d252f51461022957610091565b8063228250c9146100965780634125ff90146100d35780634b9915a5146100fe5780638a1ce0b61461013b57610091565b3661009157005b600080fd5b3480156100a257600080fd5b506100bd60048036038101906100b891906109f5565b610252565b6040516100ca9190610a3d565b60405180910390f35b3480156100df57600080fd5b506100e8610272565b6040516100f59190610a71565b60405180910390f35b34801561010a57600080fd5b5061012560048036038101906101209190610bd1565b610278565b6040516101329190610c9c565b60405180910390f35b34801561014757600080fd5b50610162600480360381019061015d9190610bd1565b610475565b60405161016f9190610c9c565b60405180910390f35b34801561018457600080fd5b5061018d6104b7565b60405161019a9190610cc6565b60405180910390f35b3480156101af57600080fd5b506101b86104db565b6040516101c59190610a71565b60405180910390f35b6101e860048036038101906101e39190610bd1565b6104e0565b6040516101f59190610d71565b60405180910390f35b34801561020a57600080fd5b50610213610863565b6040516102209190610a71565b60405180910390f35b34801561023557600080fd5b50610250600480360381019061024b91906109f5565b610869565b005b60016020528060005260406000206000915054906101000a900460ff1681565b6103e881565b60003373ffffffffffffffffffffffffffffffffffffffff1660008054906101000a900473ffffffffffffffffffffffffffffffffffffffff1673ffffffffffffffffffffffffffffffffffffffff1614610308576040517f08c379a00000000000000000000000000000000000000000000000000000000081526004016102ff90610df0565b60405180910390fd5b61031788888888888888610475565b90506001600082815260200190815260200160002060009054906101000a900460ff161561037c57806040517f995042be0000000000000000000000000000000000000000000000000000000081526004016103739190610c9c565b60405180910390fd5b600a426103899190610e3f565b8210806103a257506103e84261039f9190610e3f565b82115b156103e65742826040517f1a9616c20000000000000000000000000000000000000000000000000000000081526004016103dd929190610e73565b60405180910390fd5b600180600083815260200190815260200160002060006101000a81548160ff0219169083151502179055508773ffffffffffffffffffffffffffffffffffffffff16817f3c22f47140594040d205a5533cfedd86c9ab8622c39ead03affb2d97052c794c89898989898960405161046296959493929190610f05565b60405180910390a3979650505050505050565b6000878787878787876040516020016104949796959493929190610f5c565b604051602081830303815290604052805190602001209050979650505050505050565b60008054906101000a900473ffffffffffffffffffffffffffffffffffffffff1681565b600a81565b60603373ffffffffffffffffffffffffffffffffffffffff1660008054906101000a900473ffffffffffffffffffffffffffffffffffffffff1673ffffffffffffffffffffffffffffffffffffffff1614610570576040517f08c379a000000000000000000000000000000000000000000000000000000000815260040161056790610df0565b60405180910390fd5b600061058189898989898989610475565b90506001600082815260200190815260200160002060009054906101000a900460ff166105e557806040517f0995c9d50000000000000000000000000000000000000000000000000000000081526004016105dc9190610c9c565b60405180910390fd5b8242101561062c5742836040517f035fce5b000000000000000000000000000000000000000000000000000000008152600401610623929190610e73565b60405180910390fd5b6103e88361063a9190610e3f565b42111561068d57426103e8846106509190610e3f565b6040517f92ae26d1000000000000000000000000000000000000000000000000000000008152600401610684929190610e73565b60405180910390fd5b60006001600083815260200190815260200160002060006101000a81548160ff021916908315150217905550606060008888905011156107095787876040516106d7929190610ff1565b604051809103902086866040516020016106f393929190611057565b6040516020818303038152906040529050610751565b85858080601f016020809104026020016040519081016040528093929190818152602001838380828437600081840152601f19601f8201169050808301925050505050505090505b6000808b73ffffffffffffffffffffffffffffffffffffffff168b8460405161077a91906110b2565b60006040518083038185875af1925050503d80600081146107b7576040519150601f19603f3d011682016040523d82523d6000602084013e6107bc565b606091505b5091509150816107f8576040517fd9b4f81e00000000000000000000000000000000000000000000000000000000815260040160405180910390fd5b8b73ffffffffffffffffffffffffffffffffffffffff16847fd1d5c3c892c18716bd88852091d1b63dc6849e9d7c37f69d566884bf954d4bd98d8d8d8d8d8d60405161084996959493929190610f05565b60405180910390a380945050505050979650505050505050565b6103e881565b3373ffffffffffffffffffffffffffffffffffffffff1660008054906101000a900473ffffffffffffffffffffffffffffffffffffffff1673ffffffffffffffffffffffffffffffffffffffff16146108f7576040517f08c379a00000000000000000000000000000000000000000000000000000000081526004016108ee90610df0565b60405180910390fd5b6001600082815260200190815260200160002060009054906101000a900460ff1661095957806040517f0995c9d50000000000000000000000000000000000000000000000000000000081526004016109509190610c9c565b60405180910390fd5b60006001600083815260200190815260200160002060006101000a81548160ff021916908315150217905550807fe8d9861dbc9c663ed3accd261bbe2fe01e0d3d9e5f51fa38523b265c7757a93a60405160405180910390a250565b600080fd5b600080fd5b6000819050919050565b6109d2816109bf565b81146109dd57600080fd5b50565b6000813590506109ef816109c9565b92915050565b600060208284031215610a0b57610a0a6109b5565b5b6000610a19848285016109e0565b91505092915050565b60008115159050919050565b610a3781610a22565b82525050565b6000602082019050610a526000830184610a2e565b92915050565b6000819050919050565b610a6b81610a58565b82525050565b6000602082019050610a866000830184610a62565b92915050565b600073ffffffffffffffffffffffffffffffffffffffff82169050919050565b6000610ab782610a8c565b9050919050565b610ac781610aac565b8114610ad257600080fd5b50565b600081359050610ae481610abe565b92915050565b610af381610a58565b8114610afe57600080fd5b50565b600081359050610b1081610aea565b92915050565b600080fd5b600080fd5b600080fd5b60008083601f840112610b3b57610b3a610b16565b5b8235905067ffffffffffffffff811115610b5857610b57610b1b565b5b602083019150836001820283011115610b7457610b73610b20565b5b9250929050565b60008083601f840112610b9157610b90610b16565b5b8235905067ffffffffffffffff811115610bae57610bad610b1b565b5b602083019150836001820283011115610bca57610bc9610b20565b5b9250929050565b600080600080600080600060a0888a031215610bf057610bef6109b5565b5b6000610bfe8a828b01610ad5565b9750506020610c0f8a828b01610b01565b965050604088013567ffffffffffffffff811115610c3057610c2f6109ba565b5b610c3c8a828b01610b25565b9550955050606088013567ffffffffffffffff811115610c5f57610c5e6109ba565b5b610c6b8a828b01610b7b565b93509350506080610c7e8a828b01610b01565b91505092959891949750929550565b610c96816109bf565b82525050565b6000602082019050610cb16000830184610c8d565b92915050565b610cc081610aac565b82525050565b6000602082019050610cdb6000830184610cb7565b92915050565b600081519050919050565b600082825260208201905092915050565b60005b83811015610d1b578082015181840152602081019050610d00565b60008484015250505050565b6000601f19601f8301169050919050565b6000610d4382610ce1565b610d4d8185610cec565b9350610d5d818560208601610cfd565b610d6681610d27565b840191505092915050565b60006020820190508181036000830152610d8b8184610d38565b905092915050565b600082825260208201905092915050565b7f4e6f74206f776e65720000000000000000000000000000000000000000000000600082015250565b6000610dda600983610d93565b9150610de582610da4565b602082019050919050565b60006020820190508181036000830152610e0981610dcd565b9050919050565b7f4e487b7100000000000000000000000000000000000000000000000000000000600052601160045260246000fd5b6000610e4a82610a58565b9150610e5583610a58565b9250828201905080821115610e6d57610e6c610e10565b5b92915050565b6000604082019050610e886000830185610a62565b610e956020830184610a62565b9392505050565b82818337600083830152505050565b6000610eb78385610d93565b9350610ec4838584610e9c565b610ecd83610d27565b840190509392505050565b6000610ee48385610cec565b9350610ef1838584610e9c565b610efa83610d27565b840190509392505050565b6000608082019050610f1a6000830189610a62565b8181036020830152610f2d818789610eab565b90508181036040830152610f42818587610ed8565b9050610f516060830184610a62565b979650505050505050565b600060a082019050610f71600083018a610cb7565b610f7e6020830189610a62565b8181036040830152610f91818789610eab565b90508181036060830152610fa6818587610ed8565b9050610fb56080830184610a62565b98975050505050505050565b600081905092915050565b6000610fd88385610fc1565b9350610fe5838584610e9c565b82840190509392505050565b6000610ffe828486610fcc565b91508190509392505050565b60007fffffffff0000000000000000000000000000000000000000000000000000000082169050919050565b6000819050919050565b61105161104c8261100a565b611036565b82525050565b60006110638286611040565b600482019150611074828486610fcc565b9150819050949350505050565b600061108c82610ce1565b6110968185610fc1565b93506110a6818560208601610cfd565b80840191505092915050565b60006110be8284611081565b91508190509291505056fea2646970667358221220da9d3855f4c3bcaae1fea86fdff7bd13f977182f24ef322478538086e8e54e7564736f6c63430008110033",
  "linkReferences": {},
  "deployedLinkReferences": {}
}