{
  "_format": "hh-sol-artifact-1",
  "contractName": "VendingMachine",
  "sourceName": "contracts/vendor.sol",
  "abi": [
    {
      "inputs": [],
      "stateMutability": "nonpayable",
      "type": "constructor"
    },
    {
      "anonymous": false,
      "inputs": [
        {
          "indexed": false,
          "internalType": "address",
          "name": "buyer",
          "type": "address"
        },
        {
          "indexed": false,
          "internalType": "uint256",
          "name": "amount",
          "type": "uint256"
        },
        {
          "indexed": false,
          "internalType": "uint256",
          "name": "remaining",
          "type": "uint256"
        },
        {
          "indexed": false,
          "internalType": "uint256",
          "name": "timestamp",
          "type": "uint256"
        },
        {
          "indexed": false,
          "internalType": "uint256",
          "name": "blockNumber",
          "type": "uint256"
        }
      ],
      "name": "Purchase",
      "type": "event"
    },
    {
      "anonymous": false,
      "inputs": [
        {
          "indexed": false,
          "internalType": "address",
          "name": "owner",
          "type": "address"
        },
        {
          "indexed": false,
          "internalType": "uint256",
          "name": "amount",
          "type": "uint256"
        },
        {
          "indexed": false,
          "internalType": "uint256",
          "name": "remaining",
          "type": "uint256"
        },
        {
          "indexed": false,
          "internalType": "uint256",
          "name": "timestamp",
          "type": "uint256"
        },
        {
          "indexed": false,
          "internalType": "uint256",
          "name": "blockNumber",
          "type": "uint256"
        }
      ],
      "name": "Refill",
      "type": "event"
    },
    {
      "inputs": [
        {
          "internalType": "uint256",
          "name": "amount",
          "type": "uint256"
        }
      ],
      "name": "purchase",
      "outputs": [],
      "stateMutability": "payable",
      "type": "function"
    },
    {
      "inputs": [
        {
          "internalType": "uint256",
          "name": "amount",
          "type": "uint256"
        }
      ],
      "name": "refill",
      "outputs": [],
      "stateMutability": "nonpayable",
      "type": "function"
    }
  ],
  "bytecode": "0x608060405234801561001057600080fd5b50336000806101000a81548173ffffffffffffffffffffffffffffffffffffffff021916908373ffffffffffffffffffffffffffffffffffffffff1602179055506064600160003073ffffffffffffffffffffffffffffffffffffffff1673ffffffffffffffffffffffffffffffffffffffff168152602001908152602001600020819055506107b7806100a56000396000f3fe6080604052600436106100295760003560e01c8063ca9d07ba1461002e578063efef39a114610057575b600080fd5b34801561003a57600080fd5b5061005560048036038101906100509190610437565b610073565b005b610071600480360381019061006c9190610437565b6101f8565b005b60008054906101000a900473ffffffffffffffffffffffffffffffffffffffff1673ffffffffffffffffffffffffffffffffffffffff163373ffffffffffffffffffffffffffffffffffffffff1614610101576040517f08c379a00000000000000000000000000000000000000000000000000000000081526004016100f8906104c1565b60405180910390fd5b80600160003073ffffffffffffffffffffffffffffffffffffffff1673ffffffffffffffffffffffffffffffffffffffff16815260200190815260200160002060008282546101509190610510565b925050819055507f2b3b65dfa822dc5c3aaf82c2202e30d77a1798e0f234497305ab8f2a8738fe6760008054906101000a900473ffffffffffffffffffffffffffffffffffffffff1682600160003073ffffffffffffffffffffffffffffffffffffffff1673ffffffffffffffffffffffffffffffffffffffff1681526020019081526020016000205442436040516101ed959493929190610594565b60405180910390a150565b662386f26fc100008161020b91906105e7565b34101561024d576040517f08c379a00000000000000000000000000000000000000000000000000000000081526004016102449061069b565b60405180910390fd5b80600160003073ffffffffffffffffffffffffffffffffffffffff1673ffffffffffffffffffffffffffffffffffffffff1681526020019081526020016000205410156102cf576040517f08c379a00000000000000000000000000000000000000000000000000000000081526004016102c69061072d565b60405180910390fd5b80600160003073ffffffffffffffffffffffffffffffffffffffff1673ffffffffffffffffffffffffffffffffffffffff168152602001908152602001600020600082825461031e919061074d565b9250508190555080600160003373ffffffffffffffffffffffffffffffffffffffff1673ffffffffffffffffffffffffffffffffffffffff16815260200190815260200160002060008282546103749190610510565b925050819055507fd721454499cf9c37b757e03b9d675df451c229048129d6e2d552216a035e6a553382600160003073ffffffffffffffffffffffffffffffffffffffff1673ffffffffffffffffffffffffffffffffffffffff1681526020019081526020016000205442436040516103f1959493929190610594565b60405180910390a150565b600080fd5b6000819050919050565b61041481610401565b811461041f57600080fd5b50565b6000813590506104318161040b565b92915050565b60006020828403121561044d5761044c6103fc565b5b600061045b84828501610422565b91505092915050565b600082825260208201905092915050565b7f4f6e6c79206f776e65722063616c6c61626c6500000000000000000000000000600082015250565b60006104ab601383610464565b91506104b682610475565b602082019050919050565b600060208201905081810360008301526104da8161049e565b9050919050565b7f4e487b7100000000000000000000000000000000000000000000000000000000600052601160045260246000fd5b600061051b82610401565b915061052683610401565b925082820190508082111561053e5761053d6104e1565b5b92915050565b600073ffffffffffffffffffffffffffffffffffffffff82169050919050565b600061056f82610544565b9050919050565b61057f81610564565b82525050565b61058e81610401565b82525050565b600060a0820190506105a96000830188610576565b6105b66020830187610585565b6105c36040830186610585565b6105d06060830185610585565b6105dd6080830184610585565b9695505050505050565b60006105f282610401565b91506105fd83610401565b925082820261060b81610401565b91508282048414831517610622576106216104e1565b5b5092915050565b7f596f75206d75737420706179206174206c6561737420302e303120455448207060008201527f65722063757063616b6500000000000000000000000000000000000000000000602082015250565b6000610685602a83610464565b915061069082610629565b604082019050919050565b600060208201905081810360008301526106b481610678565b9050919050565b7f4e6f7420656e6f7567682063757063616b657320696e2073746f636b20746f2060008201527f636f6d706c657465207468697320707572636861736500000000000000000000602082015250565b6000610717603683610464565b9150610722826106bb565b604082019050919050565b600060208201905081810360008301526107468161070a565b9050919050565b600061075882610401565b915061076383610401565b925082820390508181111561077b5761077a6104e1565b5b9291505056fea2646970667358221220c57ee77b25ed5ef4c6d1e1942d25862ef99d83214e257b9ab106bdae4133231764736f6c63430008110033",
  "linkReferences": {},
  "deployedLinkReferences": {}
}