{"contracts/local_variables.sol":{"LocalVariables":{"abi":[{"inputs":[],"name":"localVars","outputs":[],"stateMutability":"pure","type":"function"},{"inputs":[],"name":"mul","outputs":[{"internalType":"uint256","name":"","type":"uint256"}],"stateMutability":"pure","type":"function"}],"evm":{"bytecode":{"linkReferences":{},"object":"608060405234801561001057600080fd5b50610169806100206000396000f3fe608060405234801561001057600080fd5b50600436106100365760003560e01c806358931c461461003b578063ff2434ed14610059575b600080fd5b610043610063565b60405161005091906100a7565b60405180910390f35b61006161007e565b005b6000806201e2409050808161007891906100f1565b91505090565b6000607b90506000600190505050565b6000819050919050565b6100a18161008e565b82525050565b60006020820190506100bc6000830184610098565b92915050565b7f4e487b7100000000000000000000000000000000000000000000000000000000600052601160045260246000fd5b60006100fc8261008e565b91506101078361008e565b92508282026101158161008e565b9150828204841483151761012c5761012b6100c2565b5b509291505056fea264697066735822122005a0d1916492d8898d340f3b339a73843708843ca2bc410c3814ce9252d24eeb64736f6c63430008110033","opcodes":"PUSH1 0x80 PUSH1 0x40 MSTORE CALLVALUE DUP1 ISZERO PUSH2 0x10 JUMPI PUSH1 0x0 DUP1 REVERT JUMPDEST POP PUSH2 0x169 DUP1 PUSH2 0x20 PUSH1 0x0 CODECOPY PUSH1 0x0 RETURN INVALID PUSH1 0x80 PUSH1 0x40 MSTORE CALLVALUE DUP1 ISZERO PUSH2 0x10 JUMPI PUSH1 0x0 DUP1 REVERT JUMPDEST POP PUSH1 0x4 CALLDATASIZE LT PUSH2 0x36 JUMPI PUSH1 0x0 CALLDATALOAD PUSH1 0xE0 SHR DUP1 PUSH4 0x58931C46 EQ PUSH2 0x3B JUMPI DUP1 PUSH4 0xFF2434ED EQ PUSH2 0x59 JUMPI JUMPDEST PUSH1 0x0 DUP1 REVERT JUMPDEST PUSH2 0x43 PUSH2 0x63 JUMP JUMPDEST PUSH1 0x40 MLOAD PUSH2 0x50 SWAP2 SWAP1 PUSH2 0xA7 JUMP JUMPDEST PUSH1 0x40 MLOAD DUP1 SWAP2 SUB SWAP1 RETURN JUMPDEST PUSH2 0x61 PUSH2 0x7E JUMP JUMPDEST STOP JUMPDEST PUSH1 0x0 DUP1 PUSH3 0x1E240 SWAP1 POP DUP1 DUP2 PUSH2 0x78 SWAP2 SWAP1 PUSH2 0xF1 JUMP JUMPDEST SWAP2 POP POP SWAP1 JUMP JUMPDEST PUSH1 0x0 PUSH1 0x7B SWAP1 POP PUSH1 0x0 PUSH1 0x1 SWAP1 POP POP POP JUMP JUMPDEST PUSH1 0x0 DUP2 SWAP1 POP SWAP2 SWAP1 POP JUMP JUMPDEST PUSH2 0xA1 DUP2 PUSH2 0x8E JUMP JUMPDEST DUP3 MSTORE POP POP JUMP JUMPDEST PUSH1 0x0 PUSH1 0x20 DUP3 ADD SWAP1 POP PUSH2 0xBC PUSH1 0x0 DUP4 ADD DUP5 PUSH2 0x98 JUMP JUMPDEST SWAP3 SWAP2 POP POP JUMP JUMPDEST PUSH32 0x4E487B7100000000000000000000000000000000000000000000000000000000 PUSH1 0x0 MSTORE PUSH1 0x11 PUSH1 0x4 MSTORE PUSH1 0x24 PUSH1 0x0 REVERT JUMPDEST PUSH1 0x0 PUSH2 0xFC DUP3 PUSH2 0x8E JUMP JUMPDEST SWAP2 POP PUSH2 0x107 DUP4 PUSH2 0x8E JUMP JUMPDEST SWAP3 POP DUP3 DUP3 MUL PUSH2 0x115 DUP2 PUSH2 0x8E JUMP JUMPDEST SWAP2 POP DUP3 DUP3 DIV DUP5 EQ DUP4 ISZERO OR PUSH2 0x12C JUMPI PUSH2 0x12B PUSH2 0xC2 JUMP JUMPDEST JUMPDEST POP SWAP3 SWAP2 POP POP JUMP INVALID LOG2 PUSH5 0x6970667358 0x22 SLT KECCAK256 SDIV LOG0 0xD1 SWAP2 PUSH5 0x92D8898D34 0xF EXTCODESIZE CALLER SWAP11 PUSH20 0x843708843CA2BC410C3814CE9252D24EEB64736F PUSH13 0x63430008110033000000000000 "},"methodIdentifiers":{"localVars()":"ff2434ed","mul()":"58931c46"}}}}}