{"contracts/function_selector_clash.sol":{"FunctionSelectorClash":{"abi":[{"inputs":[],"stateMutability":"payable","type":"constructor"},{"inputs":[{"internalType":"string","name":"_func","type":"string"},{"internalType":"bytes","name":"_data","type":"bytes"}],"name":"execute","outputs":[],"stateMutability":"nonpayable","type":"function"},{"inputs":[{"internalType":"address payable","name":"_to","type":"address"},{"internalType":"uint256","name":"_amount","type":"uint256"}],"name":"transfer","outputs":[],"stateMutability":"nonpayable","type":"function"}],"evm":{"bytecode":{"linkReferences":{},"object":"60806040526108a4806100136000396000f3fe608060405234801561001057600080fd5b50600436106100365760003560e01c8063229320ca1461003b578063a9059cbb14610057575b600080fd5b61005560048036038101906100509190610401565b610073565b005b610071600480360381019061006c9190610516565b61022a565b005b6100f684848080601f016020809104026020016040519081016040528093929190818152602001838380828437600081840152601f19601f820116905080830192505050505050506040518060400160405280601981526020017f7472616e7366657228616464726573732c75696e7432353629000000000000008152506102e3565b15610136576040517f08c379a000000000000000000000000000000000000000000000000000000000815260040161012d906105b3565b60405180910390fd5b60008484604051610148929190610612565b6040518091039020905060003073ffffffffffffffffffffffffffffffffffffffff1682858560405160200161018093929190610678565b60405160208183030381529060405260405161019c9190610708565b6000604051808303816000865af19150503d80600081146101d9576040519150601f19603f3d011682016040523d82523d6000602084013e6101de565b606091505b5050905080610222576040517f08c379a00000000000000000000000000000000000000000000000000000000081526004016102199061076b565b60405180910390fd5b505050505050565b3073ffffffffffffffffffffffffffffffffffffffff163373ffffffffffffffffffffffffffffffffffffffff1614610298576040517f08c379a000000000000000000000000000000000000000000000000000000000815260040161028f906107d7565b60405180910390fd5b8173ffffffffffffffffffffffffffffffffffffffff166108fc829081150290604051600060405180830381858888f193505050501580156102de573d6000803e3d6000fd5b505050565b6000816040516020016102f6919061084c565b604051602081830303815290604052805190602001208360405160200161031d919061084c565b6040516020818303038152906040528051906020012014905092915050565b600080fd5b600080fd5b600080fd5b600080fd5b600080fd5b60008083601f84011261036b5761036a610346565b5b8235905067ffffffffffffffff8111156103885761038761034b565b5b6020830191508360018202830111156103a4576103a3610350565b5b9250929050565b60008083601f8401126103c1576103c0610346565b5b8235905067ffffffffffffffff8111156103de576103dd61034b565b5b6020830191508360018202830111156103fa576103f9610350565b5b9250929050565b6000806000806040858703121561041b5761041a61033c565b5b600085013567ffffffffffffffff81111561043957610438610341565b5b61044587828801610355565b9450945050602085013567ffffffffffffffff81111561046857610467610341565b5b610474878288016103ab565b925092505092959194509250565b600073ffffffffffffffffffffffffffffffffffffffff82169050919050565b60006104ad82610482565b9050919050565b6104bd816104a2565b81146104c857600080fd5b50565b6000813590506104da816104b4565b92915050565b6000819050919050565b6104f3816104e0565b81146104fe57600080fd5b50565b600081359050610510816104ea565b92915050565b6000806040838503121561052d5761052c61033c565b5b600061053b858286016104cb565b925050602061054c85828601610501565b9150509250929050565b600082825260208201905092915050565b7f63616c6c20746f207472616e73666572206e6f7420616c6c6f77656400000000600082015250565b600061059d601c83610556565b91506105a882610567565b602082019050919050565b600060208201905081810360008301526105cc81610590565b9050919050565b600081905092915050565b82818337600083830152505050565b60006105f983856105d3565b93506106068385846105de565b82840190509392505050565b600061061f8284866105ed565b91508190509392505050565b60007fffffffff0000000000000000000000000000000000000000000000000000000082169050919050565b6000819050919050565b61067261066d8261062b565b610657565b82525050565b60006106848286610661565b6004820191506106958284866105ed565b9150819050949350505050565b600081519050919050565b60005b838110156106cb5780820151818401526020810190506106b0565b60008484015250505050565b60006106e2826106a2565b6106ec81856105d3565b93506106fc8185602086016106ad565b80840191505092915050565b600061071482846106d7565b915081905092915050565b7f7478206661696c65640000000000000000000000000000000000000000000000600082015250565b6000610755600983610556565b91506107608261071f565b602082019050919050565b6000602082019050818103600083015261078481610748565b9050919050565b7f6e6f7420617574686f72697a6564000000000000000000000000000000000000600082015250565b60006107c1600e83610556565b91506107cc8261078b565b602082019050919050565b600060208201905081810360008301526107f0816107b4565b9050919050565b600081519050919050565b6000601f19601f8301169050919050565b600061081e826107f7565b6108288185610556565b93506108388185602086016106ad565b61084181610802565b840191505092915050565b600060208201905081810360008301526108668184610813565b90509291505056fea264697066735822122014d9534ec636d83c7b710266252591f13729d8c0ff2ae66aa33cbfbdc1714a6664736f6c63430008110033","opcodes":"PUSH1 0x80 PUSH1 0x40 MSTORE PUSH2 0x8A4 DUP1 PUSH2 0x13 PUSH1 0x0 CODECOPY PUSH1 0x0 RETURN INVALID PUSH1 0x80 PUSH1 0x40 MSTORE CALLVALUE DUP1 ISZERO PUSH2 0x10 JUMPI PUSH1 0x0 DUP1 REVERT JUMPDEST POP PUSH1 0x4 CALLDATASIZE LT PUSH2 0x36 JUMPI PUSH1 0x0 CALLDATALOAD PUSH1 0xE0 SHR DUP1 PUSH4 0x229320CA EQ PUSH2 0x3B JUMPI DUP1 PUSH4 0xA9059CBB EQ PUSH2 0x57 JUMPI JUMPDEST PUSH1 0x0 DUP1 REVERT JUMPDEST PUSH2 0x55 PUSH1 0x4 DUP1 CALLDATASIZE SUB DUP2 ADD SWAP1 PUSH2 0x50 SWAP2 SWAP1 PUSH2 0x401 JUMP JUMPDEST PUSH2 0x73 JUMP JUMPDEST STOP JUMPDEST PUSH2 0x71 PUSH1 0x4 DUP1 CALLDATASIZE SUB DUP2 ADD SWAP1 PUSH2 0x6C SWAP2 SWAP1 PUSH2 0x516 JUMP JUMPDEST PUSH2 0x22A JUMP JUMPDEST STOP JUMPDEST PUSH2 0xF6 DUP5 DUP5 DUP1 DUP1 PUSH1 0x1F ADD PUSH1 0x20 DUP1 SWAP2 DIV MUL PUSH1 0x20 ADD PUSH1 0x40 MLOAD SWAP1 DUP2 ADD PUSH1 0x40 MSTORE DUP1 SWAP4 SWAP3 SWAP2 SWAP1 DUP2 DUP2 MSTORE PUSH1 0x20 ADD DUP4 DUP4 DUP1 DUP3 DUP5 CALLDATACOPY PUSH1 0x0 DUP2 DUP5 ADD MSTORE PUSH1 0x1F NOT PUSH1 0x1F DUP3 ADD AND SWAP1 POP DUP1 DUP4 ADD SWAP3 POP POP POP POP POP POP POP PUSH1 0x40 MLOAD DUP1 PUSH1 0x40 ADD PUSH1 0x40 MSTORE DUP1 PUSH1 0x19 DUP2 MSTORE PUSH1 0x20 ADD PUSH32 0x7472616E7366657228616464726573732C75696E743235362900000000000000 DUP2 MSTORE POP PUSH2 0x2E3 JUMP JUMPDEST ISZERO PUSH2 0x136 JUMPI PUSH1 0x40 MLOAD PUSH32 0x8C379A000000000000000000000000000000000000000000000000000000000 DUP2 MSTORE PUSH1 0x4 ADD PUSH2 0x12D SWAP1 PUSH2 0x5B3 JUMP JUMPDEST PUSH1 0x40 MLOAD DUP1 SWAP2 SUB SWAP1 REVERT JUMPDEST PUSH1 0x0 DUP5 DUP5 PUSH1 0x40 MLOAD PUSH2 0x148 SWAP3 SWAP2 SWAP1 PUSH2 0x612 JUMP JUMPDEST PUSH1 0x40 MLOAD DUP1 SWAP2 SUB SWAP1 KECCAK256 SWAP1 POP PUSH1 0x0 ADDRESS PUSH20 0xFFFFFFFFFFFFFFFFFFFFFFFFFFFFFFFFFFFFFFFF AND DUP3 DUP6 DUP6 PUSH1 0x40 MLOAD PUSH1 0x20 ADD PUSH2 0x180 SWAP4 SWAP3 SWAP2 SWAP1 PUSH2 0x678 JUMP JUMPDEST PUSH1 0x40 MLOAD PUSH1 0x20 DUP2 DUP4 SUB SUB DUP2 MSTORE SWAP1 PUSH1 0x40 MSTORE PUSH1 0x40 MLOAD PUSH2 0x19C SWAP2 SWAP1 PUSH2 0x708 JUMP JUMPDEST PUSH1 0x0 PUSH1 0x40 MLOAD DUP1 DUP4 SUB DUP2 PUSH1 0x0 DUP7 GAS CALL SWAP2 POP POP RETURNDATASIZE DUP1 PUSH1 0x0 DUP2 EQ PUSH2 0x1D9 JUMPI PUSH1 0x40 MLOAD SWAP2 POP PUSH1 0x1F NOT PUSH1 0x3F RETURNDATASIZE ADD AND DUP3 ADD PUSH1 0x40 MSTORE RETURNDATASIZE DUP3 MSTORE RETURNDATASIZE PUSH1 0x0 PUSH1 0x20 DUP5 ADD RETURNDATACOPY PUSH2 0x1DE JUMP JUMPDEST PUSH1 0x60 SWAP2 POP JUMPDEST POP POP SWAP1 POP DUP1 PUSH2 0x222 JUMPI PUSH1 0x40 MLOAD PUSH32 0x8C379A000000000000000000000000000000000000000000000000000000000 DUP2 MSTORE PUSH1 0x4 ADD PUSH2 0x219 SWAP1 PUSH2 0x76B JUMP JUMPDEST PUSH1 0x40 MLOAD DUP1 SWAP2 SUB SWAP1 REVERT JUMPDEST POP POP POP POP POP POP JUMP JUMPDEST ADDRESS PUSH20 0xFFFFFFFFFFFFFFFFFFFFFFFFFFFFFFFFFFFFFFFF AND CALLER PUSH20 0xFFFFFFFFFFFFFFFFFFFFFFFFFFFFFFFFFFFFFFFF AND EQ PUSH2 0x298 JUMPI PUSH1 0x40 MLOAD PUSH32 0x8C379A000000000000000000000000000000000000000000000000000000000 DUP2 MSTORE PUSH1 0x4 ADD PUSH2 0x28F SWAP1 PUSH2 0x7D7 JUMP JUMPDEST PUSH1 0x40 MLOAD DUP1 SWAP2 SUB SWAP1 REVERT JUMPDEST DUP2 PUSH20 0xFFFFFFFFFFFFFFFFFFFFFFFFFFFFFFFFFFFFFFFF AND PUSH2 0x8FC DUP3 SWAP1 DUP2 ISZERO MUL SWAP1 PUSH1 0x40 MLOAD PUSH1 0x0 PUSH1 0x40 MLOAD DUP1 DUP4 SUB DUP2 DUP6 DUP9 DUP9 CALL SWAP4 POP POP POP POP ISZERO DUP1 ISZERO PUSH2 0x2DE JUMPI RETURNDATASIZE PUSH1 0x0 DUP1 RETURNDATACOPY RETURNDATASIZE PUSH1 0x0 REVERT JUMPDEST POP POP POP JUMP JUMPDEST PUSH1 0x0 DUP2 PUSH1 0x40 MLOAD PUSH1 0x20 ADD PUSH2 0x2F6 SWAP2 SWAP1 PUSH2 0x84C JUMP JUMPDEST PUSH1 0x40 MLOAD PUSH1 0x20 DUP2 DUP4 SUB SUB DUP2 MSTORE SWAP1 PUSH1 0x40 MSTORE DUP1 MLOAD SWAP1 PUSH1 0x20 ADD KECCAK256 DUP4 PUSH1 0x40 MLOAD PUSH1 0x20 ADD PUSH2 0x31D SWAP2 SWAP1 PUSH2 0x84C JUMP JUMPDEST PUSH1 0x40 MLOAD PUSH1 0x20 DUP2 DUP4 SUB SUB DUP2 MSTORE SWAP1 PUSH1 0x40 MSTORE DUP1 MLOAD SWAP1 PUSH1 0x20 ADD KECCAK256 EQ SWAP1 POP SWAP3 SWAP2 POP POP JUMP JUMPDEST PUSH1 0x0 DUP1 REVERT JUMPDEST PUSH1 0x0 DUP1 REVERT JUMPDEST PUSH1 0x0 DUP1 REVERT JUMPDEST PUSH1 0x0 DUP1 REVERT JUMPDEST PUSH1 0x0 DUP1 REVERT JUMPDEST PUSH1 0x0 DUP1 DUP4 PUSH1 0x1F DUP5 ADD SLT PUSH2 0x36B JUMPI PUSH2 0x36A PUSH2 0x346 JUMP JUMPDEST JUMPDEST DUP3 CALLDATALOAD SWAP1 POP PUSH8 0xFFFFFFFFFFFFFFFF DUP2 GT ISZERO PUSH2 0x388 JUMPI PUSH2 0x387 PUSH2 0x34B JUMP JUMPDEST JUMPDEST PUSH1 0x20 DUP4 ADD SWAP2 POP DUP4 PUSH1 0x1 DUP3 MUL DUP4 ADD GT ISZERO PUSH2 0x3A4 JUMPI PUSH2 0x3A3 PUSH2 0x350 JUMP JUMPDEST JUMPDEST SWAP3 POP SWAP3 SWAP1 POP JUMP JUMPDEST PUSH1 0x0 DUP1 DUP4 PUSH1 0x1F DUP5 ADD SLT PUSH2 0x3C1 JUMPI PUSH2 0x3C0 PUSH2 0x346 JUMP JUMPDEST JUMPDEST DUP3 CALLDATALOAD SWAP1 POP PUSH8 0xFFFFFFFFFFFFFFFF DUP2 GT ISZERO PUSH2 0x3DE JUMPI PUSH2 0x3DD PUSH2 0x34B JUMP JUMPDEST JUMPDEST PUSH1 0x20 DUP4 ADD SWAP2 POP DUP4 PUSH1 0x1 DUP3 MUL DUP4 ADD GT ISZERO PUSH2 0x3FA JUMPI PUSH2 0x3F9 PUSH2 0x350 JUMP JUMPDEST JUMPDEST SWAP3 POP SWAP3 SWAP1 POP JUMP JUMPDEST PUSH1 0x0 DUP1 PUSH1 0x0 DUP1 PUSH1 0x40 DUP6 DUP8 SUB SLT ISZERO PUSH2 0x41B JUMPI PUSH2 0x41A PUSH2 0x33C JUMP JUMPDEST JUMPDEST PUSH1 0x0 DUP6 ADD CALLDATALOAD PUSH8 0xFFFFFFFFFFFFFFFF DUP2 GT ISZERO PUSH2 0x439 JUMPI PUSH2 0x438 PUSH2 0x341 JUMP JUMPDEST JUMPDEST PUSH2 0x445 DUP8 DUP3 DUP9 ADD PUSH2 0x355 JUMP JUMPDEST SWAP5 POP SWAP5 POP POP PUSH1 0x20 DUP6 ADD CALLDATALOAD PUSH8 0xFFFFFFFFFFFFFFFF DUP2 GT ISZERO PUSH2 0x468 JUMPI PUSH2 0x467 PUSH2 0x341 JUMP JUMPDEST JUMPDEST PUSH2 0x474 DUP8 DUP3 DUP9 ADD PUSH2 0x3AB JUMP JUMPDEST SWAP3 POP SWAP3 POP POP SWAP3 SWAP6 SWAP2 SWAP5 POP SWAP3 POP JUMP JUMPDEST PUSH1 0x0 PUSH20 0xFFFFFFFFFFFFFFFFFFFFFFFFFFFFFFFFFFFFFFFF DUP3 AND SWAP1 POP SWAP2 SWAP1 POP JUMP JUMPDEST PUSH1 0x0 PUSH2 0x4AD DUP3 PUSH2 0x482 JUMP JUMPDEST SWAP1 POP SWAP2 SWAP1 POP JUMP JUMPDEST PUSH2 0x4BD DUP2 PUSH2 0x4A2 JUMP JUMPDEST DUP2 EQ PUSH2 0x4C8 JUMPI PUSH1 0x0 DUP1 REVERT JUMPDEST POP JUMP JUMPDEST PUSH1 0x0 DUP2 CALLDATALOAD SWAP1 POP PUSH2 0x4DA DUP2 PUSH2 0x4B4 JUMP JUMPDEST SWAP3 SWAP2 POP POP JUMP JUMPDEST PUSH1 0x0 DUP2 SWAP1 POP SWAP2 SWAP1 POP JUMP JUMPDEST PUSH2 0x4F3 DUP2 PUSH2 0x4E0 JUMP JUMPDEST DUP2 EQ PUSH2 0x4FE JUMPI PUSH1 0x0 DUP1 REVERT JUMPDEST POP JUMP JUMPDEST PUSH1 0x0 DUP2 CALLDATALOAD SWAP1 POP PUSH2 0x510 DUP2 PUSH2 0x4EA JUMP JUMPDEST SWAP3 SWAP2 POP POP JUMP JUMPDEST PUSH1 0x0 DUP1 PUSH1 0x40 DUP4 DUP6 SUB SLT ISZERO PUSH2 0x52D JUMPI PUSH2 0x52C PUSH2 0x33C JUMP JUMPDEST JUMPDEST PUSH1 0x0 PUSH2 0x53B DUP6 DUP3 DUP7 ADD PUSH2 0x4CB JUMP JUMPDEST SWAP3 POP POP PUSH1 0x20 PUSH2 0x54C DUP6 DUP3 DUP7 ADD PUSH2 0x501 JUMP JUMPDEST SWAP2 POP POP SWAP3 POP SWAP3 SWAP1 POP JUMP JUMPDEST PUSH1 0x0 DUP3 DUP3 MSTORE PUSH1 0x20 DUP3 ADD SWAP1 POP SWAP3 SWAP2 POP POP JUMP JUMPDEST PUSH32 0x63616C6C20746F207472616E73666572206E6F7420616C6C6F77656400000000 PUSH1 0x0 DUP3 ADD MSTORE POP JUMP JUMPDEST PUSH1 0x0 PUSH2 0x59D PUSH1 0x1C DUP4 PUSH2 0x556 JUMP JUMPDEST SWAP2 POP PUSH2 0x5A8 DUP3 PUSH2 0x567 JUMP JUMPDEST PUSH1 0x20 DUP3 ADD SWAP1 POP SWAP2 SWAP1 POP JUMP JUMPDEST PUSH1 0x0 PUSH1 0x20 DUP3 ADD SWAP1 POP DUP2 DUP2 SUB PUSH1 0x0 DUP4 ADD MSTORE PUSH2 0x5CC DUP2 PUSH2 0x590 JUMP JUMPDEST SWAP1 POP SWAP2 SWAP1 POP JUMP JUMPDEST PUSH1 0x0 DUP2 SWAP1 POP SWAP3 SWAP2 POP POP JUMP JUMPDEST DUP3 DUP2 DUP4 CALLDATACOPY PUSH1 0x0 DUP4 DUP4 ADD MSTORE POP POP POP JUMP JUMPDEST PUSH1 0x0 PUSH2 0x5F9 DUP4 DUP6 PUSH2 0x5D3 JUMP JUMPDEST SWAP4 POP PUSH2 0x606 DUP4 DUP6 DUP5 PUSH2 0x5DE JUMP JUMPDEST DUP3 DUP5 ADD SWAP1 POP SWAP4 SWAP3 POP POP POP JUMP JUMPDEST PUSH1 0x0 PUSH2 0x61F DUP3 DUP5 DUP7 PUSH2 0x5ED JUMP JUMPDEST SWAP2 POP DUP2 SWAP1 POP SWAP4 SWAP3 POP POP POP JUMP JUMPDEST PUSH1 0x0 PUSH32 0xFFFFFFFF00000000000000000000000000000000000000000000000000000000 DUP3 AND SWAP1 POP SWAP2 SWAP1 POP JUMP JUMPDEST PUSH1 0x0 DUP2 SWAP1 POP SWAP2 SWAP1 POP JUMP JUMPDEST PUSH2 0x672 PUSH2 0x66D DUP3 PUSH2 0x62B JUMP JUMPDEST PUSH2 0x657 JUMP JUMPDEST DUP3 MSTORE POP POP JUMP JUMPDEST PUSH1 0x0 PUSH2 0x684 DUP3 DUP7 PUSH2 0x661 JUMP JUMPDEST PUSH1 0x4 DUP3 ADD SWAP2 POP PUSH2 0x695 DUP3 DUP5 DUP7 PUSH2 0x5ED JUMP JUMPDEST SWAP2 POP DUP2 SWAP1 POP SWAP5 SWAP4 POP POP POP POP JUMP JUMPDEST PUSH1 0x0 DUP2 MLOAD SWAP1 POP SWAP2 SWAP1 POP JUMP JUMPDEST PUSH1 0x0 JUMPDEST DUP4 DUP2 LT ISZERO PUSH2 0x6CB JUMPI DUP1 DUP3 ADD MLOAD DUP2 DUP5 ADD MSTORE PUSH1 0x20 DUP2 ADD SWAP1 POP PUSH2 0x6B0 JUMP JUMPDEST PUSH1 0x0 DUP5 DUP5 ADD MSTORE POP POP POP POP JUMP JUMPDEST PUSH1 0x0 PUSH2 0x6E2 DUP3 PUSH2 0x6A2 JUMP JUMPDEST PUSH2 0x6EC DUP2 DUP6 PUSH2 0x5D3 JUMP JUMPDEST SWAP4 POP PUSH2 0x6FC DUP2 DUP6 PUSH1 0x20 DUP7 ADD PUSH2 0x6AD JUMP JUMPDEST DUP1 DUP5 ADD SWAP2 POP POP SWAP3 SWAP2 POP POP JUMP JUMPDEST PUSH1 0x0 PUSH2 0x714 DUP3 DUP5 PUSH2 0x6D7 JUMP JUMPDEST SWAP2 POP DUP2 SWAP1 POP SWAP3 SWAP2 POP POP JUMP JUMPDEST PUSH32 0x7478206661696C65640000000000000000000000000000000000000000000000 PUSH1 0x0 DUP3 ADD MSTORE POP JUMP JUMPDEST PUSH1 0x0 PUSH2 0x755 PUSH1 0x9 DUP4 PUSH2 0x556 JUMP JUMPDEST SWAP2 POP PUSH2 0x760 DUP3 PUSH2 0x71F JUMP JUMPDEST PUSH1 0x20 DUP3 ADD SWAP1 POP SWAP2 SWAP1 POP JUMP JUMPDEST PUSH1 0x0 PUSH1 0x20 DUP3 ADD SWAP1 POP DUP2 DUP2 SUB PUSH1 0x0 DUP4 ADD MSTORE PUSH2 0x784 DUP2 PUSH2 0x748 JUMP JUMPDEST SWAP1 POP SWAP2 SWAP1 POP JUMP JUMPDEST PUSH32 0x6E6F7420617574686F72697A6564000000000000000000000000000000000000 PUSH1 0x0 DUP3 ADD MSTORE POP JUMP JUMPDEST PUSH1 0x0 PUSH2 0x7C1 PUSH1 0xE DUP4 PUSH2 0x556 JUMP JUMPDEST SWAP2 POP PUSH2 0x7CC DUP3 PUSH2 0x78B JUMP JUMPDEST PUSH1 0x20 DUP3 ADD SWAP1 POP SWAP2 SWAP1 POP JUMP JUMPDEST PUSH1 0x0 PUSH1 0x20 DUP3 ADD SWAP1 POP DUP2 DUP2 SUB PUSH1 0x0 DUP4 ADD MSTORE PUSH2 0x7F0 DUP2 PUSH2 0x7B4 JUMP JUMPDEST SWAP1 POP SWAP2 SWAP1 POP JUMP JUMPDEST PUSH1 0x0 DUP2 MLOAD SWAP1 POP SWAP2 SWAP1 POP JUMP JUMPDEST PUSH1 0x0 PUSH1 0x1F NOT PUSH1 0x1F DUP4 ADD AND SWAP1 POP SWAP2 SWAP1 POP JUMP JUMPDEST PUSH1 0x0 PUSH2 0x81E DUP3 PUSH2 0x7F7 JUMP JUMPDEST PUSH2 0x828 DUP2 DUP6 PUSH2 0x556 JUMP JUMPDEST SWAP4 POP PUSH2 0x838 DUP2 DUP6 PUSH1 0x20 DUP7 ADD PUSH2 0x6AD JUMP JUMPDEST PUSH2 0x841 DUP2 PUSH2 0x802 JUMP JUMPDEST DUP5 ADD SWAP2 POP POP SWAP3 SWAP2 POP POP JUMP JUMPDEST PUSH1 0x0 PUSH1 0x20 DUP3 ADD SWAP1 POP DUP2 DUP2 SUB PUSH1 0x0 DUP4 ADD MSTORE PUSH2 0x866 DUP2 DUP5 PUSH2 0x813 JUMP JUMPDEST SWAP1 POP SWAP3 SWAP2 POP POP JUMP INVALID LOG2 PUSH5 0x6970667358 0x22 SLT KECCAK256 EQ 0xD9 MSTORE8 0x4E 0xC6 CALLDATASIZE 0xD8 EXTCODECOPY PUSH28 0x710266252591F13729D8C0FF2AE66AA33CBFBDC1714A6664736F6C63 NUMBER STOP ADDMOD GT STOP CALLER "},"methodIdentifiers":{"execute(string,bytes)":"229320ca","transfer(address,uint256)":"a9059cbb"}}}}}