{
  "_format": "hh-sol-artifact-1",
  "contractName": "CallInterface",
  "sourceName": "contracts/interface.sol",
  "abi": [
    {
      "inputs": [
        {
          "internalType": "address",
          "name": "_test",
          "type": "address"
        }
      ],
      "name": "count",
      "outputs": [
        {
          "internalType": "uint256",
          "name": "",
          "type": "uint256"
        }
      ],
      "stateMutability": "view",
      "type": "function"
    },
    {
      "inputs": [
        {
          "internalType": "address",
          "name": "_test",
          "type": "address"
        }
      ],
      "name": "dec",
      "outputs": [],
      "stateMutability": "nonpayable",
      "type": "function"
    },
    {
      "inputs": [
        {
          "internalType": "address",
          "name": "_test",
          "type": "address"
        }
      ],
      "name": "inc",
      "outputs": [],
      "stateMutability": "nonpayable",
      "type": "function"
    }
  ],
  "bytecode": "0x608060405234801561001057600080fd5b5061033f806100206000396000f3fe608060405234801561001057600080fd5b50600436106100415760003560e01c806305d85eda14610046578063740338d014610076578063d7bb055914610092575b600080fd5b610060600480360381019061005b919061024f565b6100ae565b60405161006d9190610295565b60405180910390f35b610090600480360381019061008b919061024f565b610126565b005b6100ac60048036038101906100a7919061024f565b610189565b005b60008173ffffffffffffffffffffffffffffffffffffffff166306661abd6040518163ffffffff1660e01b8152600401602060405180830381865afa1580156100fb573d6000803e3d6000fd5b505050506040513d601f19601f8201168201806040525081019061011f91906102dc565b9050919050565b8073ffffffffffffffffffffffffffffffffffffffff1663b3bcfa826040518163ffffffff1660e01b8152600401600060405180830381600087803b15801561016e57600080fd5b505af1158015610182573d6000803e3d6000fd5b5050505050565b8073ffffffffffffffffffffffffffffffffffffffff1663371303c06040518163ffffffff1660e01b8152600401600060405180830381600087803b1580156101d157600080fd5b505af11580156101e5573d6000803e3d6000fd5b5050505050565b600080fd5b600073ffffffffffffffffffffffffffffffffffffffff82169050919050565b600061021c826101f1565b9050919050565b61022c81610211565b811461023757600080fd5b50565b60008135905061024981610223565b92915050565b600060208284031215610265576102646101ec565b5b60006102738482850161023a565b91505092915050565b6000819050919050565b61028f8161027c565b82525050565b60006020820190506102aa6000830184610286565b92915050565b6102b98161027c565b81146102c457600080fd5b50565b6000815190506102d6816102b0565b92915050565b6000602082840312156102f2576102f16101ec565b5b6000610300848285016102c7565b9150509291505056fea2646970667358221220e1bb947a16e724ca97c4b8385bfb7ba9216ffd19bfc1cadd79d6bb19468f3f5464736f6c63430008110033",
  "linkReferences": {},
  "deployedLinkReferences": {}
}