{"contracts/randomness.sol":{"RandomNumberConsumer":{"abi":[{"inputs":[],"stateMutability":"nonpayable","type":"constructor"},{"inputs":[{"internalType":"uint256","name":"lotteryId","type":"uint256"}],"name":"getRandom","outputs":[],"stateMutability":"nonpayable","type":"function"},{"inputs":[],"name":"lottery_contract","outputs":[{"internalType":"contract lottery_interface","name":"","type":"address"}],"stateMutability":"view","type":"function"},{"inputs":[],"name":"most_recent_random","outputs":[{"internalType":"uint256","name":"","type":"uint256"}],"stateMutability":"view","type":"function"},{"inputs":[{"internalType":"uint256","name":"","type":"uint256"}],"name":"randomNumber","outputs":[{"internalType":"uint256","name":"","type":"uint256"}],"stateMutability":"view","type":"function"},{"inputs":[{"internalType":"bytes32","name":"requestId","type":"bytes32"},{"internalType":"uint256","name":"randomness","type":"uint256"}],"name":"rawFulfillRandomness","outputs":[],"stateMutability":"nonpayable","type":"function"},{"inputs":[{"internalType":"bytes32","name":"","type":"bytes32"}],"name":"requestIds","outputs":[{"internalType":"uint256","name":"","type":"uint256"}],"stateMutability":"view","type":"function"}],"evm":{"bytecode":{"linkReferences":{},"object":"60c060405234801561001057600080fd5b5073bd13f08b8352a3635218ab9418e340c60d6eb41873fafedb041c0dd4fa2dc0d87a6b0979ee6fa7af5f8173ffffffffffffffffffffffffffffffffffffffff1660a08173ffffffffffffffffffffffffffffffffffffffff16815250508073ffffffffffffffffffffffffffffffffffffffff1660808173ffffffffffffffffffffffffffffffffffffffff168152505050507f121a143066e0f2f08b620784af77cccb35c6242460b4a8ee251b4b416abaebd460001b6002819055506601c6bf5263400060038190555060805160a051610bd96101106000396000818161017b0152610447015260008181610220015261040b0152610bd96000f3fe608060405234801561001057600080fd5b50600436106100625760003560e01c806349915912146100675780638645f7a81461008557806394985ddd146100b5578063c0159e5a146100d1578063cd4b6914146100ef578063f970dd021461010b575b600080fd5b61006f61013b565b60405161007c9190610645565b60405180910390f35b61009f600480360381019061009a919061069b565b610161565b6040516100ac91906106e1565b60405180910390f35b6100cf60048036038101906100ca9190610728565b610179565b005b6100d9610215565b6040516100e691906106e1565b60405180910390f35b61010960048036038101906101049190610768565b61021b565b005b61012560048036038101906101209190610768565b610326565b60405161013291906106e1565b60405180910390f35b600160009054906101000a900473ffffffffffffffffffffffffffffffffffffffff1681565b60056020528060005260406000206000915090505481565b7f000000000000000000000000000000000000000000000000000000000000000073ffffffffffffffffffffffffffffffffffffffff163373ffffffffffffffffffffffffffffffffffffffff1614610207576040517f08c379a00000000000000000000000000000000000000000000000000000000081526004016101fe906107f2565b60405180910390fd5b610211828261033e565b5050565b60065481565b6003547f000000000000000000000000000000000000000000000000000000000000000073ffffffffffffffffffffffffffffffffffffffff166370a08231306040518263ffffffff1660e01b81526004016102779190610833565b602060405180830381865afa158015610294573d6000803e3d6000fd5b505050506040513d601f19601f820116820180604052508101906102b89190610863565b116102f8576040517f08c379a00000000000000000000000000000000000000000000000000000000081526004016102ef90610902565b60405180910390fd5b6000610308600254600354610407565b90508160056000838152602001908152602001600020819055505050565b60046020528060005260406000206000915090505481565b80600681905550600060056000848152602001908152602001600020549050816004600083815260200190815260200160002081905550600160009054906101000a900473ffffffffffffffffffffffffffffffffffffffff1673ffffffffffffffffffffffffffffffffffffffff1663c251ebf2836040518263ffffffff1660e01b81526004016103d091906106e1565b600060405180830381600087803b1580156103ea57600080fd5b505af11580156103fe573d6000803e3d6000fd5b50505050505050565b60007f000000000000000000000000000000000000000000000000000000000000000073ffffffffffffffffffffffffffffffffffffffff16634000aea07f00000000000000000000000000000000000000000000000000000000000000008486600060405160200161047b929190610931565b6040516020818303038152906040526040518463ffffffff1660e01b81526004016104a8939291906109ea565b6020604051808303816000875af11580156104c7573d6000803e3d6000fd5b505050506040513d601f19601f820116820180604052508101906104eb9190610a60565b50600061050d8460003060008089815260200190815260200160002054610557565b905060016000808681526020019081526020016000205461052e9190610abc565b6000808681526020019081526020016000208190555061054e8482610593565b91505092915050565b6000848484846040516020016105709493929190610af0565b6040516020818303038152906040528051906020012060001c9050949350505050565b600082826040516020016105a8929190610b77565b60405160208183030381529060405280519060200120905092915050565b600073ffffffffffffffffffffffffffffffffffffffff82169050919050565b6000819050919050565b600061060b610606610601846105c6565b6105e6565b6105c6565b9050919050565b600061061d826105f0565b9050919050565b600061062f82610612565b9050919050565b61063f81610624565b82525050565b600060208201905061065a6000830184610636565b92915050565b600080fd5b6000819050919050565b61067881610665565b811461068357600080fd5b50565b6000813590506106958161066f565b92915050565b6000602082840312156106b1576106b0610660565b5b60006106bf84828501610686565b91505092915050565b6000819050919050565b6106db816106c8565b82525050565b60006020820190506106f660008301846106d2565b92915050565b610705816106c8565b811461071057600080fd5b50565b600081359050610722816106fc565b92915050565b6000806040838503121561073f5761073e610660565b5b600061074d85828601610686565b925050602061075e85828601610713565b9150509250929050565b60006020828403121561077e5761077d610660565b5b600061078c84828501610713565b91505092915050565b600082825260208201905092915050565b7f4f6e6c7920565246436f6f7264696e61746f722063616e2066756c66696c6c00600082015250565b60006107dc601f83610795565b91506107e7826107a6565b602082019050919050565b6000602082019050818103600083015261080b816107cf565b9050919050565b600061081d826105c6565b9050919050565b61082d81610812565b82525050565b60006020820190506108486000830184610824565b92915050565b60008151905061085d816106fc565b92915050565b60006020828403121561087957610878610660565b5b60006108878482850161084e565b91505092915050565b7f4e6f7420656e6f756768204c494e4b202d2066696c6c20636f6e74726163742060008201527f7769746820666175636574000000000000000000000000000000000000000000602082015250565b60006108ec602b83610795565b91506108f782610890565b604082019050919050565b6000602082019050818103600083015261091b816108df565b9050919050565b61092b81610665565b82525050565b60006040820190506109466000830185610922565b61095360208301846106d2565b9392505050565b600081519050919050565b600082825260208201905092915050565b60005b83811015610994578082015181840152602081019050610979565b60008484015250505050565b6000601f19601f8301169050919050565b60006109bc8261095a565b6109c68185610965565b93506109d6818560208601610976565b6109df816109a0565b840191505092915050565b60006060820190506109ff6000830186610824565b610a0c60208301856106d2565b8181036040830152610a1e81846109b1565b9050949350505050565b60008115159050919050565b610a3d81610a28565b8114610a4857600080fd5b50565b600081519050610a5a81610a34565b92915050565b600060208284031215610a7657610a75610660565b5b6000610a8484828501610a4b565b91505092915050565b7f4e487b7100000000000000000000000000000000000000000000000000000000600052601160045260246000fd5b6000610ac7826106c8565b9150610ad2836106c8565b9250828201905080821115610aea57610ae9610a8d565b5b92915050565b6000608082019050610b056000830187610922565b610b1260208301866106d2565b610b1f6040830185610824565b610b2c60608301846106d2565b95945050505050565b6000819050919050565b610b50610b4b82610665565b610b35565b82525050565b6000819050919050565b610b71610b6c826106c8565b610b56565b82525050565b6000610b838285610b3f565b602082019150610b938284610b60565b602082019150819050939250505056fea2646970667358221220e3b85f1f10e5a7db554392d343162d5fa396f1cf929dc81258946e946194bd9e64736f6c63430008110033","opcodes":"PUSH1 0xC0 PUSH1 0x40 MSTORE CALLVALUE DUP1 ISZERO PUSH2 0x10 JUMPI PUSH1 0x0 DUP1 REVERT JUMPDEST POP PUSH20 0xBD13F08B8352A3635218AB9418E340C60D6EB418 PUSH20 0xFAFEDB041C0DD4FA2DC0D87A6B0979EE6FA7AF5F DUP2 PUSH20 0xFFFFFFFFFFFFFFFFFFFFFFFFFFFFFFFFFFFFFFFF AND PUSH1 0xA0 DUP2 PUSH20 0xFFFFFFFFFFFFFFFFFFFFFFFFFFFFFFFFFFFFFFFF AND DUP2 MSTORE POP POP DUP1 PUSH20 0xFFFFFFFFFFFFFFFFFFFFFFFFFFFFFFFFFFFFFFFF AND PUSH1 0x80 DUP2 PUSH20 0xFFFFFFFFFFFFFFFFFFFFFFFFFFFFFFFFFFFFFFFF AND DUP2 MSTORE POP POP POP POP PUSH32 0x121A143066E0F2F08B620784AF77CCCB35C6242460B4A8EE251B4B416ABAEBD4 PUSH1 0x0 SHL PUSH1 0x2 DUP2 SWAP1 SSTORE POP PUSH7 0x1C6BF52634000 PUSH1 0x3 DUP2 SWAP1 SSTORE POP PUSH1 0x80 MLOAD PUSH1 0xA0 MLOAD PUSH2 0xBD9 PUSH2 0x110 PUSH1 0x0 CODECOPY PUSH1 0x0 DUP2 DUP2 PUSH2 0x17B ADD MSTORE PUSH2 0x447 ADD MSTORE PUSH1 0x0 DUP2 DUP2 PUSH2 0x220 ADD MSTORE PUSH2 0x40B ADD MSTORE PUSH2 0xBD9 PUSH1 0x0 RETURN INVALID PUSH1 0x80 PUSH1 0x40 MSTORE CALLVALUE DUP1 ISZERO PUSH2 0x10 JUMPI PUSH1 0x0 DUP1 REVERT JUMPDEST POP PUSH1 0x4 CALLDATASIZE LT PUSH2 0x62 JUMPI PUSH1 0x0 CALLDATALOAD PUSH1 0xE0 SHR DUP1 PUSH4 0x49915912 EQ PUSH2 0x67 JUMPI DUP1 PUSH4 0x8645F7A8 EQ PUSH2 0x85 JUMPI DUP1 PUSH4 0x94985DDD EQ PUSH2 0xB5 JUMPI DUP1 PUSH4 0xC0159E5A EQ PUSH2 0xD1 JUMPI DUP1 PUSH4 0xCD4B6914 EQ PUSH2 0xEF JUMPI DUP1 PUSH4 0xF970DD02 EQ PUSH2 0x10B JUMPI JUMPDEST PUSH1 0x0 DUP1 REVERT JUMPDEST PUSH2 0x6F PUSH2 0x13B JUMP JUMPDEST PUSH1 0x40 MLOAD PUSH2 0x7C SWAP2 SWAP1 PUSH2 0x645 JUMP JUMPDEST PUSH1 0x40 MLOAD DUP1 SWAP2 SUB SWAP1 RETURN JUMPDEST PUSH2 0x9F PUSH1 0x4 DUP1 CALLDATASIZE SUB DUP2 ADD SWAP1 PUSH2 0x9A SWAP2 SWAP1 PUSH2 0x69B JUMP JUMPDEST PUSH2 0x161 JUMP JUMPDEST PUSH1 0x40 MLOAD PUSH2 0xAC SWAP2 SWAP1 PUSH2 0x6E1 JUMP JUMPDEST PUSH1 0x40 MLOAD DUP1 SWAP2 SUB SWAP1 RETURN JUMPDEST PUSH2 0xCF PUSH1 0x4 DUP1 CALLDATASIZE SUB DUP2 ADD SWAP1 PUSH2 0xCA SWAP2 SWAP1 PUSH2 0x728 JUMP JUMPDEST PUSH2 0x179 JUMP JUMPDEST STOP JUMPDEST PUSH2 0xD9 PUSH2 0x215 JUMP JUMPDEST PUSH1 0x40 MLOAD PUSH2 0xE6 SWAP2 SWAP1 PUSH2 0x6E1 JUMP JUMPDEST PUSH1 0x40 MLOAD DUP1 SWAP2 SUB SWAP1 RETURN JUMPDEST PUSH2 0x109 PUSH1 0x4 DUP1 CALLDATASIZE SUB DUP2 ADD SWAP1 PUSH2 0x104 SWAP2 SWAP1 PUSH2 0x768 JUMP JUMPDEST PUSH2 0x21B JUMP JUMPDEST STOP JUMPDEST PUSH2 0x125 PUSH1 0x4 DUP1 CALLDATASIZE SUB DUP2 ADD SWAP1 PUSH2 0x120 SWAP2 SWAP1 PUSH2 0x768 JUMP JUMPDEST PUSH2 0x326 JUMP JUMPDEST PUSH1 0x40 MLOAD PUSH2 0x132 SWAP2 SWAP1 PUSH2 0x6E1 JUMP JUMPDEST PUSH1 0x40 MLOAD DUP1 SWAP2 SUB SWAP1 RETURN JUMPDEST PUSH1 0x1 PUSH1 0x0 SWAP1 SLOAD SWAP1 PUSH2 0x100 EXP SWAP1 DIV PUSH20 0xFFFFFFFFFFFFFFFFFFFFFFFFFFFFFFFFFFFFFFFF AND DUP2 JUMP JUMPDEST PUSH1 0x5 PUSH1 0x20 MSTORE DUP1 PUSH1 0x0 MSTORE PUSH1 0x40 PUSH1 0x0 KECCAK256 PUSH1 0x0 SWAP2 POP SWAP1 POP SLOAD DUP2 JUMP JUMPDEST PUSH32 0x0 PUSH20 0xFFFFFFFFFFFFFFFFFFFFFFFFFFFFFFFFFFFFFFFF AND CALLER PUSH20 0xFFFFFFFFFFFFFFFFFFFFFFFFFFFFFFFFFFFFFFFF AND EQ PUSH2 0x207 JUMPI PUSH1 0x40 MLOAD PUSH32 0x8C379A000000000000000000000000000000000000000000000000000000000 DUP2 MSTORE PUSH1 0x4 ADD PUSH2 0x1FE SWAP1 PUSH2 0x7F2 JUMP JUMPDEST PUSH1 0x40 MLOAD DUP1 SWAP2 SUB SWAP1 REVERT JUMPDEST PUSH2 0x211 DUP3 DUP3 PUSH2 0x33E JUMP JUMPDEST POP POP JUMP JUMPDEST PUSH1 0x6 SLOAD DUP2 JUMP JUMPDEST PUSH1 0x3 SLOAD PUSH32 0x0 PUSH20 0xFFFFFFFFFFFFFFFFFFFFFFFFFFFFFFFFFFFFFFFF AND PUSH4 0x70A08231 ADDRESS PUSH1 0x40 MLOAD DUP3 PUSH4 0xFFFFFFFF AND PUSH1 0xE0 SHL DUP2 MSTORE PUSH1 0x4 ADD PUSH2 0x277 SWAP2 SWAP1 PUSH2 0x833 JUMP JUMPDEST PUSH1 0x20 PUSH1 0x40 MLOAD DUP1 DUP4 SUB DUP2 DUP7 GAS STATICCALL ISZERO DUP1 ISZERO PUSH2 0x294 JUMPI RETURNDATASIZE PUSH1 0x0 DUP1 RETURNDATACOPY RETURNDATASIZE PUSH1 0x0 REVERT JUMPDEST POP POP POP POP PUSH1 0x40 MLOAD RETURNDATASIZE PUSH1 0x1F NOT PUSH1 0x1F DUP3 ADD AND DUP3 ADD DUP1 PUSH1 0x40 MSTORE POP DUP2 ADD SWAP1 PUSH2 0x2B8 SWAP2 SWAP1 PUSH2 0x863 JUMP JUMPDEST GT PUSH2 0x2F8 JUMPI PUSH1 0x40 MLOAD PUSH32 0x8C379A000000000000000000000000000000000000000000000000000000000 DUP2 MSTORE PUSH1 0x4 ADD PUSH2 0x2EF SWAP1 PUSH2 0x902 JUMP JUMPDEST PUSH1 0x40 MLOAD DUP1 SWAP2 SUB SWAP1 REVERT JUMPDEST PUSH1 0x0 PUSH2 0x308 PUSH1 0x2 SLOAD PUSH1 0x3 SLOAD PUSH2 0x407 JUMP JUMPDEST SWAP1 POP DUP2 PUSH1 0x5 PUSH1 0x0 DUP4 DUP2 MSTORE PUSH1 0x20 ADD SWAP1 DUP2 MSTORE PUSH1 0x20 ADD PUSH1 0x0 KECCAK256 DUP2 SWAP1 SSTORE POP POP POP JUMP JUMPDEST PUSH1 0x4 PUSH1 0x20 MSTORE DUP1 PUSH1 0x0 MSTORE PUSH1 0x40 PUSH1 0x0 KECCAK256 PUSH1 0x0 SWAP2 POP SWAP1 POP SLOAD DUP2 JUMP JUMPDEST DUP1 PUSH1 0x6 DUP2 SWAP1 SSTORE POP PUSH1 0x0 PUSH1 0x5 PUSH1 0x0 DUP5 DUP2 MSTORE PUSH1 0x20 ADD SWAP1 DUP2 MSTORE PUSH1 0x20 ADD PUSH1 0x0 KECCAK256 SLOAD SWAP1 POP DUP2 PUSH1 0x4 PUSH1 0x0 DUP4 DUP2 MSTORE PUSH1 0x20 ADD SWAP1 DUP2 MSTORE PUSH1 0x20 ADD PUSH1 0x0 KECCAK256 DUP2 SWAP1 SSTORE POP PUSH1 0x1 PUSH1 0x0 SWAP1 SLOAD SWAP1 PUSH2 0x100 EXP SWAP1 DIV PUSH20 0xFFFFFFFFFFFFFFFFFFFFFFFFFFFFFFFFFFFFFFFF AND PUSH20 0xFFFFFFFFFFFFFFFFFFFFFFFFFFFFFFFFFFFFFFFF AND PUSH4 0xC251EBF2 DUP4 PUSH1 0x40 MLOAD DUP3 PUSH4 0xFFFFFFFF AND PUSH1 0xE0 SHL DUP2 MSTORE PUSH1 0x4 ADD PUSH2 0x3D0 SWAP2 SWAP1 PUSH2 0x6E1 JUMP JUMPDEST PUSH1 0x0 PUSH1 0x40 MLOAD DUP1 DUP4 SUB DUP2 PUSH1 0x0 DUP8 DUP1 EXTCODESIZE ISZERO DUP1 ISZERO PUSH2 0x3EA JUMPI PUSH1 0x0 DUP1 REVERT JUMPDEST POP GAS CALL ISZERO DUP1 ISZERO PUSH2 0x3FE JUMPI RETURNDATASIZE PUSH1 0x0 DUP1 RETURNDATACOPY RETURNDATASIZE PUSH1 0x0 REVERT JUMPDEST POP POP POP POP POP POP POP JUMP JUMPDEST PUSH1 0x0 PUSH32 0x0 PUSH20 0xFFFFFFFFFFFFFFFFFFFFFFFFFFFFFFFFFFFFFFFF AND PUSH4 0x4000AEA0 PUSH32 0x0 DUP5 DUP7 PUSH1 0x0 PUSH1 0x40 MLOAD PUSH1 0x20 ADD PUSH2 0x47B SWAP3 SWAP2 SWAP1 PUSH2 0x931 JUMP JUMPDEST PUSH1 0x40 MLOAD PUSH1 0x20 DUP2 DUP4 SUB SUB DUP2 MSTORE SWAP1 PUSH1 0x40 MSTORE PUSH1 0x40 MLOAD DUP5 PUSH4 0xFFFFFFFF AND PUSH1 0xE0 SHL DUP2 MSTORE PUSH1 0x4 ADD PUSH2 0x4A8 SWAP4 SWAP3 SWAP2 SWAP1 PUSH2 0x9EA JUMP JUMPDEST PUSH1 0x20 PUSH1 0x40 MLOAD DUP1 DUP4 SUB DUP2 PUSH1 0x0 DUP8 GAS CALL ISZERO DUP1 ISZERO PUSH2 0x4C7 JUMPI RETURNDATASIZE PUSH1 0x0 DUP1 RETURNDATACOPY RETURNDATASIZE PUSH1 0x0 REVERT JUMPDEST POP POP POP POP PUSH1 0x40 MLOAD RETURNDATASIZE PUSH1 0x1F NOT PUSH1 0x1F DUP3 ADD AND DUP3 ADD DUP1 PUSH1 0x40 MSTORE POP DUP2 ADD SWAP1 PUSH2 0x4EB SWAP2 SWAP1 PUSH2 0xA60 JUMP JUMPDEST POP PUSH1 0x0 PUSH2 0x50D DUP5 PUSH1 0x0 ADDRESS PUSH1 0x0 DUP1 DUP10 DUP2 MSTORE PUSH1 0x20 ADD SWAP1 DUP2 MSTORE PUSH1 0x20 ADD PUSH1 0x0 KECCAK256 SLOAD PUSH2 0x557 JUMP JUMPDEST SWAP1 POP PUSH1 0x1 PUSH1 0x0 DUP1 DUP7 DUP2 MSTORE PUSH1 0x20 ADD SWAP1 DUP2 MSTORE PUSH1 0x20 ADD PUSH1 0x0 KECCAK256 SLOAD PUSH2 0x52E SWAP2 SWAP1 PUSH2 0xABC JUMP JUMPDEST PUSH1 0x0 DUP1 DUP7 DUP2 MSTORE PUSH1 0x20 ADD SWAP1 DUP2 MSTORE PUSH1 0x20 ADD PUSH1 0x0 KECCAK256 DUP2 SWAP1 SSTORE POP PUSH2 0x54E DUP5 DUP3 PUSH2 0x593 JUMP JUMPDEST SWAP2 POP POP SWAP3 SWAP2 POP POP JUMP JUMPDEST PUSH1 0x0 DUP5 DUP5 DUP5 DUP5 PUSH1 0x40 MLOAD PUSH1 0x20 ADD PUSH2 0x570 SWAP5 SWAP4 SWAP3 SWAP2 SWAP1 PUSH2 0xAF0 JUMP JUMPDEST PUSH1 0x40 MLOAD PUSH1 0x20 DUP2 DUP4 SUB SUB DUP2 MSTORE SWAP1 PUSH1 0x40 MSTORE DUP1 MLOAD SWAP1 PUSH1 0x20 ADD KECCAK256 PUSH1 0x0 SHR SWAP1 POP SWAP5 SWAP4 POP POP POP POP JUMP JUMPDEST PUSH1 0x0 DUP3 DUP3 PUSH1 0x40 MLOAD PUSH1 0x20 ADD PUSH2 0x5A8 SWAP3 SWAP2 SWAP1 PUSH2 0xB77 JUMP JUMPDEST PUSH1 0x40 MLOAD PUSH1 0x20 DUP2 DUP4 SUB SUB DUP2 MSTORE SWAP1 PUSH1 0x40 MSTORE DUP1 MLOAD SWAP1 PUSH1 0x20 ADD KECCAK256 SWAP1 POP SWAP3 SWAP2 POP POP JUMP JUMPDEST PUSH1 0x0 PUSH20 0xFFFFFFFFFFFFFFFFFFFFFFFFFFFFFFFFFFFFFFFF DUP3 AND SWAP1 POP SWAP2 SWAP1 POP JUMP JUMPDEST PUSH1 0x0 DUP2 SWAP1 POP SWAP2 SWAP1 POP JUMP JUMPDEST PUSH1 0x0 PUSH2 0x60B PUSH2 0x606 PUSH2 0x601 DUP5 PUSH2 0x5C6 JUMP JUMPDEST PUSH2 0x5E6 JUMP JUMPDEST PUSH2 0x5C6 JUMP JUMPDEST SWAP1 POP SWAP2 SWAP1 POP JUMP JUMPDEST PUSH1 0x0 PUSH2 0x61D DUP3 PUSH2 0x5F0 JUMP JUMPDEST SWAP1 POP SWAP2 SWAP1 POP JUMP JUMPDEST PUSH1 0x0 PUSH2 0x62F DUP3 PUSH2 0x612 JUMP JUMPDEST SWAP1 POP SWAP2 SWAP1 POP JUMP JUMPDEST PUSH2 0x63F DUP2 PUSH2 0x624 JUMP JUMPDEST DUP3 MSTORE POP POP JUMP JUMPDEST PUSH1 0x0 PUSH1 0x20 DUP3 ADD SWAP1 POP PUSH2 0x65A PUSH1 0x0 DUP4 ADD DUP5 PUSH2 0x636 JUMP JUMPDEST SWAP3 SWAP2 POP POP JUMP JUMPDEST PUSH1 0x0 DUP1 REVERT JUMPDEST PUSH1 0x0 DUP2 SWAP1 POP SWAP2 SWAP1 POP JUMP JUMPDEST PUSH2 0x678 DUP2 PUSH2 0x665 JUMP JUMPDEST DUP2 EQ PUSH2 0x683 JUMPI PUSH1 0x0 DUP1 REVERT JUMPDEST POP JUMP JUMPDEST PUSH1 0x0 DUP2 CALLDATALOAD SWAP1 POP PUSH2 0x695 DUP2 PUSH2 0x66F JUMP JUMPDEST SWAP3 SWAP2 POP POP JUMP JUMPDEST PUSH1 0x0 PUSH1 0x20 DUP3 DUP5 SUB SLT ISZERO PUSH2 0x6B1 JUMPI PUSH2 0x6B0 PUSH2 0x660 JUMP JUMPDEST JUMPDEST PUSH1 0x0 PUSH2 0x6BF DUP5 DUP3 DUP6 ADD PUSH2 0x686 JUMP JUMPDEST SWAP2 POP POP SWAP3 SWAP2 POP POP JUMP JUMPDEST PUSH1 0x0 DUP2 SWAP1 POP SWAP2 SWAP1 POP JUMP JUMPDEST PUSH2 0x6DB DUP2 PUSH2 0x6C8 JUMP JUMPDEST DUP3 MSTORE POP POP JUMP JUMPDEST PUSH1 0x0 PUSH1 0x20 DUP3 ADD SWAP1 POP PUSH2 0x6F6 PUSH1 0x0 DUP4 ADD DUP5 PUSH2 0x6D2 JUMP JUMPDEST SWAP3 SWAP2 POP POP JUMP JUMPDEST PUSH2 0x705 DUP2 PUSH2 0x6C8 JUMP JUMPDEST DUP2 EQ PUSH2 0x710 JUMPI PUSH1 0x0 DUP1 REVERT JUMPDEST POP JUMP JUMPDEST PUSH1 0x0 DUP2 CALLDATALOAD SWAP1 POP PUSH2 0x722 DUP2 PUSH2 0x6FC JUMP JUMPDEST SWAP3 SWAP2 POP POP JUMP JUMPDEST PUSH1 0x0 DUP1 PUSH1 0x40 DUP4 DUP6 SUB SLT ISZERO PUSH2 0x73F JUMPI PUSH2 0x73E PUSH2 0x660 JUMP JUMPDEST JUMPDEST PUSH1 0x0 PUSH2 0x74D DUP6 DUP3 DUP7 ADD PUSH2 0x686 JUMP JUMPDEST SWAP3 POP POP PUSH1 0x20 PUSH2 0x75E DUP6 DUP3 DUP7 ADD PUSH2 0x713 JUMP JUMPDEST SWAP2 POP POP SWAP3 POP SWAP3 SWAP1 POP JUMP JUMPDEST PUSH1 0x0 PUSH1 0x20 DUP3 DUP5 SUB SLT ISZERO PUSH2 0x77E JUMPI PUSH2 0x77D PUSH2 0x660 JUMP JUMPDEST JUMPDEST PUSH1 0x0 PUSH2 0x78C DUP5 DUP3 DUP6 ADD PUSH2 0x713 JUMP JUMPDEST SWAP2 POP POP SWAP3 SWAP2 POP POP JUMP JUMPDEST PUSH1 0x0 DUP3 DUP3 MSTORE PUSH1 0x20 DUP3 ADD SWAP1 POP SWAP3 SWAP2 POP POP JUMP JUMPDEST PUSH32 0x4F6E6C7920565246436F6F7264696E61746F722063616E2066756C66696C6C00 PUSH1 0x0 DUP3 ADD MSTORE POP JUMP JUMPDEST PUSH1 0x0 PUSH2 0x7DC PUSH1 0x1F DUP4 PUSH2 0x795 JUMP JUMPDEST SWAP2 POP PUSH2 0x7E7 DUP3 PUSH2 0x7A6 JUMP JUMPDEST PUSH1 0x20 DUP3 ADD SWAP1 POP SWAP2 SWAP1 POP JUMP JUMPDEST PUSH1 0x0 PUSH1 0x20 DUP3 ADD SWAP1 POP DUP2 DUP2 SUB PUSH1 0x0 DUP4 ADD MSTORE PUSH2 0x80B DUP2 PUSH2 0x7CF JUMP JUMPDEST SWAP1 POP SWAP2 SWAP1 POP JUMP JUMPDEST PUSH1 0x0 PUSH2 0x81D DUP3 PUSH2 0x5C6 JUMP JUMPDEST SWAP1 POP SWAP2 SWAP1 POP JUMP JUMPDEST PUSH2 0x82D DUP2 PUSH2 0x812 JUMP JUMPDEST DUP3 MSTORE POP POP JUMP JUMPDEST PUSH1 0x0 PUSH1 0x20 DUP3 ADD SWAP1 POP PUSH2 0x848 PUSH1 0x0 DUP4 ADD DUP5 PUSH2 0x824 JUMP JUMPDEST SWAP3 SWAP2 POP POP JUMP JUMPDEST PUSH1 0x0 DUP2 MLOAD SWAP1 POP PUSH2 0x85D DUP2 PUSH2 0x6FC JUMP JUMPDEST SWAP3 SWAP2 POP POP JUMP JUMPDEST PUSH1 0x0 PUSH1 0x20 DUP3 DUP5 SUB SLT ISZERO PUSH2 0x879 JUMPI PUSH2 0x878 PUSH2 0x660 JUMP JUMPDEST JUMPDEST PUSH1 0x0 PUSH2 0x887 DUP5 DUP3 DUP6 ADD PUSH2 0x84E JUMP JUMPDEST SWAP2 POP POP SWAP3 SWAP2 POP POP JUMP JUMPDEST PUSH32 0x4E6F7420656E6F756768204C494E4B202D2066696C6C20636F6E747261637420 PUSH1 0x0 DUP3 ADD MSTORE PUSH32 0x7769746820666175636574000000000000000000000000000000000000000000 PUSH1 0x20 DUP3 ADD MSTORE POP JUMP JUMPDEST PUSH1 0x0 PUSH2 0x8EC PUSH1 0x2B DUP4 PUSH2 0x795 JUMP JUMPDEST SWAP2 POP PUSH2 0x8F7 DUP3 PUSH2 0x890 JUMP JUMPDEST PUSH1 0x40 DUP3 ADD SWAP1 POP SWAP2 SWAP1 POP JUMP JUMPDEST PUSH1 0x0 PUSH1 0x20 DUP3 ADD SWAP1 POP DUP2 DUP2 SUB PUSH1 0x0 DUP4 ADD MSTORE PUSH2 0x91B DUP2 PUSH2 0x8DF JUMP JUMPDEST SWAP1 POP SWAP2 SWAP1 POP JUMP JUMPDEST PUSH2 0x92B DUP2 PUSH2 0x665 JUMP JUMPDEST DUP3 MSTORE POP POP JUMP JUMPDEST PUSH1 0x0 PUSH1 0x40 DUP3 ADD SWAP1 POP PUSH2 0x946 PUSH1 0x0 DUP4 ADD DUP6 PUSH2 0x922 JUMP JUMPDEST PUSH2 0x953 PUSH1 0x20 DUP4 ADD DUP5 PUSH2 0x6D2 JUMP JUMPDEST SWAP4 SWAP3 POP POP POP JUMP JUMPDEST PUSH1 0x0 DUP2 MLOAD SWAP1 POP SWAP2 SWAP1 POP JUMP JUMPDEST PUSH1 0x0 DUP3 DUP3 MSTORE PUSH1 0x20 DUP3 ADD SWAP1 POP SWAP3 SWAP2 POP POP JUMP JUMPDEST PUSH1 0x0 JUMPDEST DUP4 DUP2 LT ISZERO PUSH2 0x994 JUMPI DUP1 DUP3 ADD MLOAD DUP2 DUP5 ADD MSTORE PUSH1 0x20 DUP2 ADD SWAP1 POP PUSH2 0x979 JUMP JUMPDEST PUSH1 0x0 DUP5 DUP5 ADD MSTORE POP POP POP POP JUMP JUMPDEST PUSH1 0x0 PUSH1 0x1F NOT PUSH1 0x1F DUP4 ADD AND SWAP1 POP SWAP2 SWAP1 POP JUMP JUMPDEST PUSH1 0x0 PUSH2 0x9BC DUP3 PUSH2 0x95A JUMP JUMPDEST PUSH2 0x9C6 DUP2 DUP6 PUSH2 0x965 JUMP JUMPDEST SWAP4 POP PUSH2 0x9D6 DUP2 DUP6 PUSH1 0x20 DUP7 ADD PUSH2 0x976 JUMP JUMPDEST PUSH2 0x9DF DUP2 PUSH2 0x9A0 JUMP JUMPDEST DUP5 ADD SWAP2 POP POP SWAP3 SWAP2 POP POP JUMP JUMPDEST PUSH1 0x0 PUSH1 0x60 DUP3 ADD SWAP1 POP PUSH2 0x9FF PUSH1 0x0 DUP4 ADD DUP7 PUSH2 0x824 JUMP JUMPDEST PUSH2 0xA0C PUSH1 0x20 DUP4 ADD DUP6 PUSH2 0x6D2 JUMP JUMPDEST DUP2 DUP2 SUB PUSH1 0x40 DUP4 ADD MSTORE PUSH2 0xA1E DUP2 DUP5 PUSH2 0x9B1 JUMP JUMPDEST SWAP1 POP SWAP5 SWAP4 POP POP POP POP JUMP JUMPDEST PUSH1 0x0 DUP2 ISZERO ISZERO SWAP1 POP SWAP2 SWAP1 POP JUMP JUMPDEST PUSH2 0xA3D DUP2 PUSH2 0xA28 JUMP JUMPDEST DUP2 EQ PUSH2 0xA48 JUMPI PUSH1 0x0 DUP1 REVERT JUMPDEST POP JUMP JUMPDEST PUSH1 0x0 DUP2 MLOAD SWAP1 POP PUSH2 0xA5A DUP2 PUSH2 0xA34 JUMP JUMPDEST SWAP3 SWAP2 POP POP JUMP JUMPDEST PUSH1 0x0 PUSH1 0x20 DUP3 DUP5 SUB SLT ISZERO PUSH2 0xA76 JUMPI PUSH2 0xA75 PUSH2 0x660 JUMP JUMPDEST JUMPDEST PUSH1 0x0 PUSH2 0xA84 DUP5 DUP3 DUP6 ADD PUSH2 0xA4B JUMP JUMPDEST SWAP2 POP POP SWAP3 SWAP2 POP POP JUMP JUMPDEST PUSH32 0x4E487B7100000000000000000000000000000000000000000000000000000000 PUSH1 0x0 MSTORE PUSH1 0x11 PUSH1 0x4 MSTORE PUSH1 0x24 PUSH1 0x0 REVERT JUMPDEST PUSH1 0x0 PUSH2 0xAC7 DUP3 PUSH2 0x6C8 JUMP JUMPDEST SWAP2 POP PUSH2 0xAD2 DUP4 PUSH2 0x6C8 JUMP JUMPDEST SWAP3 POP DUP3 DUP3 ADD SWAP1 POP DUP1 DUP3 GT ISZERO PUSH2 0xAEA JUMPI PUSH2 0xAE9 PUSH2 0xA8D JUMP JUMPDEST JUMPDEST SWAP3 SWAP2 POP POP JUMP JUMPDEST PUSH1 0x0 PUSH1 0x80 DUP3 ADD SWAP1 POP PUSH2 0xB05 PUSH1 0x0 DUP4 ADD DUP8 PUSH2 0x922 JUMP JUMPDEST PUSH2 0xB12 PUSH1 0x20 DUP4 ADD DUP7 PUSH2 0x6D2 JUMP JUMPDEST PUSH2 0xB1F PUSH1 0x40 DUP4 ADD DUP6 PUSH2 0x824 JUMP JUMPDEST PUSH2 0xB2C PUSH1 0x60 DUP4 ADD DUP5 PUSH2 0x6D2 JUMP JUMPDEST SWAP6 SWAP5 POP POP POP POP POP JUMP JUMPDEST PUSH1 0x0 DUP2 SWAP1 POP SWAP2 SWAP1 POP JUMP JUMPDEST PUSH2 0xB50 PUSH2 0xB4B DUP3 PUSH2 0x665 JUMP JUMPDEST PUSH2 0xB35 JUMP JUMPDEST DUP3 MSTORE POP POP JUMP JUMPDEST PUSH1 0x0 DUP2 SWAP1 POP SWAP2 SWAP1 POP JUMP JUMPDEST PUSH2 0xB71 PUSH2 0xB6C DUP3 PUSH2 0x6C8 JUMP JUMPDEST PUSH2 0xB56 JUMP JUMPDEST DUP3 MSTORE POP POP JUMP JUMPDEST PUSH1 0x0 PUSH2 0xB83 DUP3 DUP6 PUSH2 0xB3F JUMP JUMPDEST PUSH1 0x20 DUP3 ADD SWAP2 POP PUSH2 0xB93 DUP3 DUP5 PUSH2 0xB60 JUMP JUMPDEST PUSH1 0x20 DUP3 ADD SWAP2 POP DUP2 SWAP1 POP SWAP4 SWAP3 POP POP POP JUMP INVALID LOG2 PUSH5 0x6970667358 0x22 SLT KECCAK256 0xE3 0xB8 0x5F 0x1F LT 0xE5 0xA7 0xDB SSTORE NUMBER SWAP3 0xD3 NUMBER AND 0x2D 0x5F LOG3 SWAP7 CALL 0xCF SWAP3 SWAP14 0xC8 SLT PC SWAP5 PUSH15 0x946194BD9E64736F6C634300081100 CALLER "},"methodIdentifiers":{"getRandom(uint256)":"cd4b6914","lottery_contract()":"49915912","most_recent_random()":"c0159e5a","randomNumber(uint256)":"f970dd02","rawFulfillRandomness(bytes32,uint256)":"94985ddd","requestIds(bytes32)":"8645f7a8"}}}}}