{"contracts/randomness.sol":{"RandomNumberConsumer":{"abi":[{"inputs":[],"stateMutability":"nonpayable","type":"constructor"},{"inputs":[],"name":"counter","outputs":[{"internalType":"uint256","name":"","type":"uint256"}],"stateMutability":"view","type":"function"},{"inputs":[{"internalType":"uint256","name":"lotteryId","type":"uint256"}],"name":"getRandom","outputs":[],"stateMutability":"nonpayable","type":"function"},{"inputs":[],"name":"lottery_contract","outputs":[{"internalType":"contract Lottery","name":"","type":"address"}],"stateMutability":"view","type":"function"},{"inputs":[],"name":"most_recent_random","outputs":[{"internalType":"uint256","name":"","type":"uint256"}],"stateMutability":"view","type":"function"},{"inputs":[],"name":"owner","outputs":[{"internalType":"address","name":"","type":"address"}],"stateMutability":"view","type":"function"},{"inputs":[{"internalType":"uint256","name":"","type":"uint256"}],"name":"randomNumber","outputs":[{"internalType":"uint256","name":"","type":"uint256"}],"stateMutability":"view","type":"function"},{"inputs":[{"internalType":"bytes32","name":"requestId","type":"bytes32"},{"internalType":"uint256","name":"randomness","type":"uint256"}],"name":"rawFulfillRandomness","outputs":[],"stateMutability":"nonpayable","type":"function"},{"inputs":[{"internalType":"bytes32","name":"","type":"bytes32"}],"name":"requestIds","outputs":[{"internalType":"uint256","name":"","type":"uint256"}],"stateMutability":"view","type":"function"},{"inputs":[{"internalType":"address","name":"lottery_address","type":"address"}],"name":"set_lottery_contract","outputs":[],"stateMutability":"nonpayable","type":"function"}],"evm":{"bytecode":{"linkReferences":{},"object":"60c0604052600060075534801561001557600080fd5b5073bd13f08b8352a3635218ab9418e340c60d6eb41873fafedb041c0dd4fa2dc0d87a6b0979ee6fa7af5f8173ffffffffffffffffffffffffffffffffffffffff1660a08173ffffffffffffffffffffffffffffffffffffffff16815250508073ffffffffffffffffffffffffffffffffffffffff1660808173ffffffffffffffffffffffffffffffffffffffff168152505050507f121a143066e0f2f08b620784af77cccb35c6242460b4a8ee251b4b416abaebd460001b6002819055506601c6bf5263400060038190555033600860006101000a81548173ffffffffffffffffffffffffffffffffffffffff021916908373ffffffffffffffffffffffffffffffffffffffff16021790555060805160a051610f1361015660003960008181610230015261062a01526000818161040301526105ee0152610f136000f3fe608060405234801561001057600080fd5b50600436106100935760003560e01c806394985ddd1161006657806394985ddd14610122578063ac9d50d21461013e578063c0159e5a1461015a578063cd4b691414610178578063f970dd021461019457610093565b8063499159121461009857806361bc221a146100b65780638645f7a8146100d45780638da5cb5b14610104575b600080fd5b6100a06101c4565b6040516100ad9190610828565b60405180910390f35b6100be6101ea565b6040516100cb919061085c565b60405180910390f35b6100ee60048036038101906100e991906108b2565b6101f0565b6040516100fb919061085c565b60405180910390f35b61010c610208565b6040516101199190610900565b60405180910390f35b61013c60048036038101906101379190610947565b61022e565b005b610158600480360381019061015391906109b3565b6102ca565b005b6101626103f8565b60405161016f919061085c565b60405180910390f35b610192600480360381019061018d91906109e0565b6103fe565b005b6101ae60048036038101906101a991906109e0565b610509565b6040516101bb919061085c565b60405180910390f35b600160009054906101000a900473ffffffffffffffffffffffffffffffffffffffff1681565b60075481565b60056020528060005260406000206000915090505481565b600860009054906101000a900473ffffffffffffffffffffffffffffffffffffffff1681565b7f000000000000000000000000000000000000000000000000000000000000000073ffffffffffffffffffffffffffffffffffffffff163373ffffffffffffffffffffffffffffffffffffffff16146102bc576040517f08c379a00000000000000000000000000000000000000000000000000000000081526004016102b390610a6a565b60405180910390fd5b6102c68282610521565b5050565b60006007541461030f576040517f08c379a000000000000000000000000000000000000000000000000000000000815260040161030690610ad6565b60405180910390fd5b600860009054906101000a900473ffffffffffffffffffffffffffffffffffffffff1673ffffffffffffffffffffffffffffffffffffffff163373ffffffffffffffffffffffffffffffffffffffff161461039f576040517f08c379a000000000000000000000000000000000000000000000000000000000815260040161039690610b68565b60405180910390fd5b80600160006101000a81548173ffffffffffffffffffffffffffffffffffffffff021916908373ffffffffffffffffffffffffffffffffffffffff16021790555060016007546103ef9190610bb7565b60078190555050565b60065481565b6003547f000000000000000000000000000000000000000000000000000000000000000073ffffffffffffffffffffffffffffffffffffffff166370a08231306040518263ffffffff1660e01b815260040161045a9190610900565b602060405180830381865afa158015610477573d6000803e3d6000fd5b505050506040513d601f19601f8201168201806040525081019061049b9190610c00565b116104db576040517f08c379a00000000000000000000000000000000000000000000000000000000081526004016104d290610c9f565b60405180910390fd5b60006104eb6002546003546105ea565b90508160056000838152602001908152602001600020819055505050565b60046020528060005260406000206000915090505481565b80600681905550600060056000848152602001908152602001600020549050816004600083815260200190815260200160002081905550600160009054906101000a900473ffffffffffffffffffffffffffffffffffffffff1673ffffffffffffffffffffffffffffffffffffffff1663c251ebf2836040518263ffffffff1660e01b81526004016105b3919061085c565b600060405180830381600087803b1580156105cd57600080fd5b505af11580156105e1573d6000803e3d6000fd5b50505050505050565b60007f000000000000000000000000000000000000000000000000000000000000000073ffffffffffffffffffffffffffffffffffffffff16634000aea07f00000000000000000000000000000000000000000000000000000000000000008486600060405160200161065e929190610cce565b6040516020818303038152906040526040518463ffffffff1660e01b815260040161068b93929190610d87565b6020604051808303816000875af11580156106aa573d6000803e3d6000fd5b505050506040513d601f19601f820116820180604052508101906106ce9190610dfd565b5060006106f0846000306000808981526020019081526020016000205461073a565b90506001600080868152602001908152602001600020546107119190610bb7565b600080868152602001908152602001600020819055506107318482610776565b91505092915050565b6000848484846040516020016107539493929190610e2a565b6040516020818303038152906040528051906020012060001c9050949350505050565b6000828260405160200161078b929190610eb1565b60405160208183030381529060405280519060200120905092915050565b600073ffffffffffffffffffffffffffffffffffffffff82169050919050565b6000819050919050565b60006107ee6107e96107e4846107a9565b6107c9565b6107a9565b9050919050565b6000610800826107d3565b9050919050565b6000610812826107f5565b9050919050565b61082281610807565b82525050565b600060208201905061083d6000830184610819565b92915050565b6000819050919050565b61085681610843565b82525050565b6000602082019050610871600083018461084d565b92915050565b600080fd5b6000819050919050565b61088f8161087c565b811461089a57600080fd5b50565b6000813590506108ac81610886565b92915050565b6000602082840312156108c8576108c7610877565b5b60006108d68482850161089d565b91505092915050565b60006108ea826107a9565b9050919050565b6108fa816108df565b82525050565b600060208201905061091560008301846108f1565b92915050565b61092481610843565b811461092f57600080fd5b50565b6000813590506109418161091b565b92915050565b6000806040838503121561095e5761095d610877565b5b600061096c8582860161089d565b925050602061097d85828601610932565b9150509250929050565b610990816108df565b811461099b57600080fd5b50565b6000813590506109ad81610987565b92915050565b6000602082840312156109c9576109c8610877565b5b60006109d78482850161099e565b91505092915050565b6000602082840312156109f6576109f5610877565b5b6000610a0484828501610932565b91505092915050565b600082825260208201905092915050565b7f4f6e6c7920565246436f6f7264696e61746f722063616e2066756c66696c6c00600082015250565b6000610a54601f83610a0d565b9150610a5f82610a1e565b602082019050919050565b60006020820190508181036000830152610a8381610a47565b9050919050565b7f43616e206f6e6c792062652063616c6c6564206f6e6365000000000000000000600082015250565b6000610ac0601783610a0d565b9150610acb82610a8a565b602082019050919050565b60006020820190508181036000830152610aef81610ab3565b9050919050565b7f4f6e6c79206f776e65722063616e2063616c6c20746869732066756e6374696f60008201527f6e2e000000000000000000000000000000000000000000000000000000000000602082015250565b6000610b52602283610a0d565b9150610b5d82610af6565b604082019050919050565b60006020820190508181036000830152610b8181610b45565b9050919050565b7f4e487b7100000000000000000000000000000000000000000000000000000000600052601160045260246000fd5b6000610bc282610843565b9150610bcd83610843565b9250828201905080821115610be557610be4610b88565b5b92915050565b600081519050610bfa8161091b565b92915050565b600060208284031215610c1657610c15610877565b5b6000610c2484828501610beb565b91505092915050565b7f4e6f7420656e6f756768204c494e4b202d2066696c6c20636f6e74726163742060008201527f7769746820666175636574000000000000000000000000000000000000000000602082015250565b6000610c89602b83610a0d565b9150610c9482610c2d565b604082019050919050565b60006020820190508181036000830152610cb881610c7c565b9050919050565b610cc88161087c565b82525050565b6000604082019050610ce36000830185610cbf565b610cf0602083018461084d565b9392505050565b600081519050919050565b600082825260208201905092915050565b60005b83811015610d31578082015181840152602081019050610d16565b60008484015250505050565b6000601f19601f8301169050919050565b6000610d5982610cf7565b610d638185610d02565b9350610d73818560208601610d13565b610d7c81610d3d565b840191505092915050565b6000606082019050610d9c60008301866108f1565b610da9602083018561084d565b8181036040830152610dbb8184610d4e565b9050949350505050565b60008115159050919050565b610dda81610dc5565b8114610de557600080fd5b50565b600081519050610df781610dd1565b92915050565b600060208284031215610e1357610e12610877565b5b6000610e2184828501610de8565b91505092915050565b6000608082019050610e3f6000830187610cbf565b610e4c602083018661084d565b610e5960408301856108f1565b610e66606083018461084d565b95945050505050565b6000819050919050565b610e8a610e858261087c565b610e6f565b82525050565b6000819050919050565b610eab610ea682610843565b610e90565b82525050565b6000610ebd8285610e79565b602082019150610ecd8284610e9a565b602082019150819050939250505056fea2646970667358221220d32d161d6893fbbe3de54a52b3ee7f28b90bc9ae902146fcbaf38452ad13fa4e64736f6c63430008110033","opcodes":"PUSH1 0xC0 PUSH1 0x40 MSTORE PUSH1 0x0 PUSH1 0x7 SSTORE CALLVALUE DUP1 ISZERO PUSH2 0x15 JUMPI PUSH1 0x0 DUP1 REVERT JUMPDEST POP PUSH20 0xBD13F08B8352A3635218AB9418E340C60D6EB418 PUSH20 0xFAFEDB041C0DD4FA2DC0D87A6B0979EE6FA7AF5F DUP2 PUSH20 0xFFFFFFFFFFFFFFFFFFFFFFFFFFFFFFFFFFFFFFFF AND PUSH1 0xA0 DUP2 PUSH20 0xFFFFFFFFFFFFFFFFFFFFFFFFFFFFFFFFFFFFFFFF AND DUP2 MSTORE POP POP DUP1 PUSH20 0xFFFFFFFFFFFFFFFFFFFFFFFFFFFFFFFFFFFFFFFF AND PUSH1 0x80 DUP2 PUSH20 0xFFFFFFFFFFFFFFFFFFFFFFFFFFFFFFFFFFFFFFFF AND DUP2 MSTORE POP POP POP POP PUSH32 0x121A143066E0F2F08B620784AF77CCCB35C6242460B4A8EE251B4B416ABAEBD4 PUSH1 0x0 SHL PUSH1 0x2 DUP2 SWAP1 SSTORE POP PUSH7 0x1C6BF52634000 PUSH1 0x3 DUP2 SWAP1 SSTORE POP CALLER PUSH1 0x8 PUSH1 0x0 PUSH2 0x100 EXP DUP2 SLOAD DUP2 PUSH20 0xFFFFFFFFFFFFFFFFFFFFFFFFFFFFFFFFFFFFFFFF MUL NOT AND SWAP1 DUP4 PUSH20 0xFFFFFFFFFFFFFFFFFFFFFFFFFFFFFFFFFFFFFFFF AND MUL OR SWAP1 SSTORE POP PUSH1 0x80 MLOAD PUSH1 0xA0 MLOAD PUSH2 0xF13 PUSH2 0x156 PUSH1 0x0 CODECOPY PUSH1 0x0 DUP2 DUP2 PUSH2 0x230 ADD MSTORE PUSH2 0x62A ADD MSTORE PUSH1 0x0 DUP2 DUP2 PUSH2 0x403 ADD MSTORE PUSH2 0x5EE ADD MSTORE PUSH2 0xF13 PUSH1 0x0 RETURN INVALID PUSH1 0x80 PUSH1 0x40 MSTORE CALLVALUE DUP1 ISZERO PUSH2 0x10 JUMPI PUSH1 0x0 DUP1 REVERT JUMPDEST POP PUSH1 0x4 CALLDATASIZE LT PUSH2 0x93 JUMPI PUSH1 0x0 CALLDATALOAD PUSH1 0xE0 SHR DUP1 PUSH4 0x94985DDD GT PUSH2 0x66 JUMPI DUP1 PUSH4 0x94985DDD EQ PUSH2 0x122 JUMPI DUP1 PUSH4 0xAC9D50D2 EQ PUSH2 0x13E JUMPI DUP1 PUSH4 0xC0159E5A EQ PUSH2 0x15A JUMPI DUP1 PUSH4 0xCD4B6914 EQ PUSH2 0x178 JUMPI DUP1 PUSH4 0xF970DD02 EQ PUSH2 0x194 JUMPI PUSH2 0x93 JUMP JUMPDEST DUP1 PUSH4 0x49915912 EQ PUSH2 0x98 JUMPI DUP1 PUSH4 0x61BC221A EQ PUSH2 0xB6 JUMPI DUP1 PUSH4 0x8645F7A8 EQ PUSH2 0xD4 JUMPI DUP1 PUSH4 0x8DA5CB5B EQ PUSH2 0x104 JUMPI JUMPDEST PUSH1 0x0 DUP1 REVERT JUMPDEST PUSH2 0xA0 PUSH2 0x1C4 JUMP JUMPDEST PUSH1 0x40 MLOAD PUSH2 0xAD SWAP2 SWAP1 PUSH2 0x828 JUMP JUMPDEST PUSH1 0x40 MLOAD DUP1 SWAP2 SUB SWAP1 RETURN JUMPDEST PUSH2 0xBE PUSH2 0x1EA JUMP JUMPDEST PUSH1 0x40 MLOAD PUSH2 0xCB SWAP2 SWAP1 PUSH2 0x85C JUMP JUMPDEST PUSH1 0x40 MLOAD DUP1 SWAP2 SUB SWAP1 RETURN JUMPDEST PUSH2 0xEE PUSH1 0x4 DUP1 CALLDATASIZE SUB DUP2 ADD SWAP1 PUSH2 0xE9 SWAP2 SWAP1 PUSH2 0x8B2 JUMP JUMPDEST PUSH2 0x1F0 JUMP JUMPDEST PUSH1 0x40 MLOAD PUSH2 0xFB SWAP2 SWAP1 PUSH2 0x85C JUMP JUMPDEST PUSH1 0x40 MLOAD DUP1 SWAP2 SUB SWAP1 RETURN JUMPDEST PUSH2 0x10C PUSH2 0x208 JUMP JUMPDEST PUSH1 0x40 MLOAD PUSH2 0x119 SWAP2 SWAP1 PUSH2 0x900 JUMP JUMPDEST PUSH1 0x40 MLOAD DUP1 SWAP2 SUB SWAP1 RETURN JUMPDEST PUSH2 0x13C PUSH1 0x4 DUP1 CALLDATASIZE SUB DUP2 ADD SWAP1 PUSH2 0x137 SWAP2 SWAP1 PUSH2 0x947 JUMP JUMPDEST PUSH2 0x22E JUMP JUMPDEST STOP JUMPDEST PUSH2 0x158 PUSH1 0x4 DUP1 CALLDATASIZE SUB DUP2 ADD SWAP1 PUSH2 0x153 SWAP2 SWAP1 PUSH2 0x9B3 JUMP JUMPDEST PUSH2 0x2CA JUMP JUMPDEST STOP JUMPDEST PUSH2 0x162 PUSH2 0x3F8 JUMP JUMPDEST PUSH1 0x40 MLOAD PUSH2 0x16F SWAP2 SWAP1 PUSH2 0x85C JUMP JUMPDEST PUSH1 0x40 MLOAD DUP1 SWAP2 SUB SWAP1 RETURN JUMPDEST PUSH2 0x192 PUSH1 0x4 DUP1 CALLDATASIZE SUB DUP2 ADD SWAP1 PUSH2 0x18D SWAP2 SWAP1 PUSH2 0x9E0 JUMP JUMPDEST PUSH2 0x3FE JUMP JUMPDEST STOP JUMPDEST PUSH2 0x1AE PUSH1 0x4 DUP1 CALLDATASIZE SUB DUP2 ADD SWAP1 PUSH2 0x1A9 SWAP2 SWAP1 PUSH2 0x9E0 JUMP JUMPDEST PUSH2 0x509 JUMP JUMPDEST PUSH1 0x40 MLOAD PUSH2 0x1BB SWAP2 SWAP1 PUSH2 0x85C JUMP JUMPDEST PUSH1 0x40 MLOAD DUP1 SWAP2 SUB SWAP1 RETURN JUMPDEST PUSH1 0x1 PUSH1 0x0 SWAP1 SLOAD SWAP1 PUSH2 0x100 EXP SWAP1 DIV PUSH20 0xFFFFFFFFFFFFFFFFFFFFFFFFFFFFFFFFFFFFFFFF AND DUP2 JUMP JUMPDEST PUSH1 0x7 SLOAD DUP2 JUMP JUMPDEST PUSH1 0x5 PUSH1 0x20 MSTORE DUP1 PUSH1 0x0 MSTORE PUSH1 0x40 PUSH1 0x0 KECCAK256 PUSH1 0x0 SWAP2 POP SWAP1 POP SLOAD DUP2 JUMP JUMPDEST PUSH1 0x8 PUSH1 0x0 SWAP1 SLOAD SWAP1 PUSH2 0x100 EXP SWAP1 DIV PUSH20 0xFFFFFFFFFFFFFFFFFFFFFFFFFFFFFFFFFFFFFFFF AND DUP2 JUMP JUMPDEST PUSH32 0x0 PUSH20 0xFFFFFFFFFFFFFFFFFFFFFFFFFFFFFFFFFFFFFFFF AND CALLER PUSH20 0xFFFFFFFFFFFFFFFFFFFFFFFFFFFFFFFFFFFFFFFF AND EQ PUSH2 0x2BC JUMPI PUSH1 0x40 MLOAD PUSH32 0x8C379A000000000000000000000000000000000000000000000000000000000 DUP2 MSTORE PUSH1 0x4 ADD PUSH2 0x2B3 SWAP1 PUSH2 0xA6A JUMP JUMPDEST PUSH1 0x40 MLOAD DUP1 SWAP2 SUB SWAP1 REVERT JUMPDEST PUSH2 0x2C6 DUP3 DUP3 PUSH2 0x521 JUMP JUMPDEST POP POP JUMP JUMPDEST PUSH1 0x0 PUSH1 0x7 SLOAD EQ PUSH2 0x30F JUMPI PUSH1 0x40 MLOAD PUSH32 0x8C379A000000000000000000000000000000000000000000000000000000000 DUP2 MSTORE PUSH1 0x4 ADD PUSH2 0x306 SWAP1 PUSH2 0xAD6 JUMP JUMPDEST PUSH1 0x40 MLOAD DUP1 SWAP2 SUB SWAP1 REVERT JUMPDEST PUSH1 0x8 PUSH1 0x0 SWAP1 SLOAD SWAP1 PUSH2 0x100 EXP SWAP1 DIV PUSH20 0xFFFFFFFFFFFFFFFFFFFFFFFFFFFFFFFFFFFFFFFF AND PUSH20 0xFFFFFFFFFFFFFFFFFFFFFFFFFFFFFFFFFFFFFFFF AND CALLER PUSH20 0xFFFFFFFFFFFFFFFFFFFFFFFFFFFFFFFFFFFFFFFF AND EQ PUSH2 0x39F JUMPI PUSH1 0x40 MLOAD PUSH32 0x8C379A000000000000000000000000000000000000000000000000000000000 DUP2 MSTORE PUSH1 0x4 ADD PUSH2 0x396 SWAP1 PUSH2 0xB68 JUMP JUMPDEST PUSH1 0x40 MLOAD DUP1 SWAP2 SUB SWAP1 REVERT JUMPDEST DUP1 PUSH1 0x1 PUSH1 0x0 PUSH2 0x100 EXP DUP2 SLOAD DUP2 PUSH20 0xFFFFFFFFFFFFFFFFFFFFFFFFFFFFFFFFFFFFFFFF MUL NOT AND SWAP1 DUP4 PUSH20 0xFFFFFFFFFFFFFFFFFFFFFFFFFFFFFFFFFFFFFFFF AND MUL OR SWAP1 SSTORE POP PUSH1 0x1 PUSH1 0x7 SLOAD PUSH2 0x3EF SWAP2 SWAP1 PUSH2 0xBB7 JUMP JUMPDEST PUSH1 0x7 DUP2 SWAP1 SSTORE POP POP JUMP JUMPDEST PUSH1 0x6 SLOAD DUP2 JUMP JUMPDEST PUSH1 0x3 SLOAD PUSH32 0x0 PUSH20 0xFFFFFFFFFFFFFFFFFFFFFFFFFFFFFFFFFFFFFFFF AND PUSH4 0x70A08231 ADDRESS PUSH1 0x40 MLOAD DUP3 PUSH4 0xFFFFFFFF AND PUSH1 0xE0 SHL DUP2 MSTORE PUSH1 0x4 ADD PUSH2 0x45A SWAP2 SWAP1 PUSH2 0x900 JUMP JUMPDEST PUSH1 0x20 PUSH1 0x40 MLOAD DUP1 DUP4 SUB DUP2 DUP7 GAS STATICCALL ISZERO DUP1 ISZERO PUSH2 0x477 JUMPI RETURNDATASIZE PUSH1 0x0 DUP1 RETURNDATACOPY RETURNDATASIZE PUSH1 0x0 REVERT JUMPDEST POP POP POP POP PUSH1 0x40 MLOAD RETURNDATASIZE PUSH1 0x1F NOT PUSH1 0x1F DUP3 ADD AND DUP3 ADD DUP1 PUSH1 0x40 MSTORE POP DUP2 ADD SWAP1 PUSH2 0x49B SWAP2 SWAP1 PUSH2 0xC00 JUMP JUMPDEST GT PUSH2 0x4DB JUMPI PUSH1 0x40 MLOAD PUSH32 0x8C379A000000000000000000000000000000000000000000000000000000000 DUP2 MSTORE PUSH1 0x4 ADD PUSH2 0x4D2 SWAP1 PUSH2 0xC9F JUMP JUMPDEST PUSH1 0x40 MLOAD DUP1 SWAP2 SUB SWAP1 REVERT JUMPDEST PUSH1 0x0 PUSH2 0x4EB PUSH1 0x2 SLOAD PUSH1 0x3 SLOAD PUSH2 0x5EA JUMP JUMPDEST SWAP1 POP DUP2 PUSH1 0x5 PUSH1 0x0 DUP4 DUP2 MSTORE PUSH1 0x20 ADD SWAP1 DUP2 MSTORE PUSH1 0x20 ADD PUSH1 0x0 KECCAK256 DUP2 SWAP1 SSTORE POP POP POP JUMP JUMPDEST PUSH1 0x4 PUSH1 0x20 MSTORE DUP1 PUSH1 0x0 MSTORE PUSH1 0x40 PUSH1 0x0 KECCAK256 PUSH1 0x0 SWAP2 POP SWAP1 POP SLOAD DUP2 JUMP JUMPDEST DUP1 PUSH1 0x6 DUP2 SWAP1 SSTORE POP PUSH1 0x0 PUSH1 0x5 PUSH1 0x0 DUP5 DUP2 MSTORE PUSH1 0x20 ADD SWAP1 DUP2 MSTORE PUSH1 0x20 ADD PUSH1 0x0 KECCAK256 SLOAD SWAP1 POP DUP2 PUSH1 0x4 PUSH1 0x0 DUP4 DUP2 MSTORE PUSH1 0x20 ADD SWAP1 DUP2 MSTORE PUSH1 0x20 ADD PUSH1 0x0 KECCAK256 DUP2 SWAP1 SSTORE POP PUSH1 0x1 PUSH1 0x0 SWAP1 SLOAD SWAP1 PUSH2 0x100 EXP SWAP1 DIV PUSH20 0xFFFFFFFFFFFFFFFFFFFFFFFFFFFFFFFFFFFFFFFF AND PUSH20 0xFFFFFFFFFFFFFFFFFFFFFFFFFFFFFFFFFFFFFFFF AND PUSH4 0xC251EBF2 DUP4 PUSH1 0x40 MLOAD DUP3 PUSH4 0xFFFFFFFF AND PUSH1 0xE0 SHL DUP2 MSTORE PUSH1 0x4 ADD PUSH2 0x5B3 SWAP2 SWAP1 PUSH2 0x85C JUMP JUMPDEST PUSH1 0x0 PUSH1 0x40 MLOAD DUP1 DUP4 SUB DUP2 PUSH1 0x0 DUP8 DUP1 EXTCODESIZE ISZERO DUP1 ISZERO PUSH2 0x5CD JUMPI PUSH1 0x0 DUP1 REVERT JUMPDEST POP GAS CALL ISZERO DUP1 ISZERO PUSH2 0x5E1 JUMPI RETURNDATASIZE PUSH1 0x0 DUP1 RETURNDATACOPY RETURNDATASIZE PUSH1 0x0 REVERT JUMPDEST POP POP POP POP POP POP POP JUMP JUMPDEST PUSH1 0x0 PUSH32 0x0 PUSH20 0xFFFFFFFFFFFFFFFFFFFFFFFFFFFFFFFFFFFFFFFF AND PUSH4 0x4000AEA0 PUSH32 0x0 DUP5 DUP7 PUSH1 0x0 PUSH1 0x40 MLOAD PUSH1 0x20 ADD PUSH2 0x65E SWAP3 SWAP2 SWAP1 PUSH2 0xCCE JUMP JUMPDEST PUSH1 0x40 MLOAD PUSH1 0x20 DUP2 DUP4 SUB SUB DUP2 MSTORE SWAP1 PUSH1 0x40 MSTORE PUSH1 0x40 MLOAD DUP5 PUSH4 0xFFFFFFFF AND PUSH1 0xE0 SHL DUP2 MSTORE PUSH1 0x4 ADD PUSH2 0x68B SWAP4 SWAP3 SWAP2 SWAP1 PUSH2 0xD87 JUMP JUMPDEST PUSH1 0x20 PUSH1 0x40 MLOAD DUP1 DUP4 SUB DUP2 PUSH1 0x0 DUP8 GAS CALL ISZERO DUP1 ISZERO PUSH2 0x6AA JUMPI RETURNDATASIZE PUSH1 0x0 DUP1 RETURNDATACOPY RETURNDATASIZE PUSH1 0x0 REVERT JUMPDEST POP POP POP POP PUSH1 0x40 MLOAD RETURNDATASIZE PUSH1 0x1F NOT PUSH1 0x1F DUP3 ADD AND DUP3 ADD DUP1 PUSH1 0x40 MSTORE POP DUP2 ADD SWAP1 PUSH2 0x6CE SWAP2 SWAP1 PUSH2 0xDFD JUMP JUMPDEST POP PUSH1 0x0 PUSH2 0x6F0 DUP5 PUSH1 0x0 ADDRESS PUSH1 0x0 DUP1 DUP10 DUP2 MSTORE PUSH1 0x20 ADD SWAP1 DUP2 MSTORE PUSH1 0x20 ADD PUSH1 0x0 KECCAK256 SLOAD PUSH2 0x73A JUMP JUMPDEST SWAP1 POP PUSH1 0x1 PUSH1 0x0 DUP1 DUP7 DUP2 MSTORE PUSH1 0x20 ADD SWAP1 DUP2 MSTORE PUSH1 0x20 ADD PUSH1 0x0 KECCAK256 SLOAD PUSH2 0x711 SWAP2 SWAP1 PUSH2 0xBB7 JUMP JUMPDEST PUSH1 0x0 DUP1 DUP7 DUP2 MSTORE PUSH1 0x20 ADD SWAP1 DUP2 MSTORE PUSH1 0x20 ADD PUSH1 0x0 KECCAK256 DUP2 SWAP1 SSTORE POP PUSH2 0x731 DUP5 DUP3 PUSH2 0x776 JUMP JUMPDEST SWAP2 POP POP SWAP3 SWAP2 POP POP JUMP JUMPDEST PUSH1 0x0 DUP5 DUP5 DUP5 DUP5 PUSH1 0x40 MLOAD PUSH1 0x20 ADD PUSH2 0x753 SWAP5 SWAP4 SWAP3 SWAP2 SWAP1 PUSH2 0xE2A JUMP JUMPDEST PUSH1 0x40 MLOAD PUSH1 0x20 DUP2 DUP4 SUB SUB DUP2 MSTORE SWAP1 PUSH1 0x40 MSTORE DUP1 MLOAD SWAP1 PUSH1 0x20 ADD KECCAK256 PUSH1 0x0 SHR SWAP1 POP SWAP5 SWAP4 POP POP POP POP JUMP JUMPDEST PUSH1 0x0 DUP3 DUP3 PUSH1 0x40 MLOAD PUSH1 0x20 ADD PUSH2 0x78B SWAP3 SWAP2 SWAP1 PUSH2 0xEB1 JUMP JUMPDEST PUSH1 0x40 MLOAD PUSH1 0x20 DUP2 DUP4 SUB SUB DUP2 MSTORE SWAP1 PUSH1 0x40 MSTORE DUP1 MLOAD SWAP1 PUSH1 0x20 ADD KECCAK256 SWAP1 POP SWAP3 SWAP2 POP POP JUMP JUMPDEST PUSH1 0x0 PUSH20 0xFFFFFFFFFFFFFFFFFFFFFFFFFFFFFFFFFFFFFFFF DUP3 AND SWAP1 POP SWAP2 SWAP1 POP JUMP JUMPDEST PUSH1 0x0 DUP2 SWAP1 POP SWAP2 SWAP1 POP JUMP JUMPDEST PUSH1 0x0 PUSH2 0x7EE PUSH2 0x7E9 PUSH2 0x7E4 DUP5 PUSH2 0x7A9 JUMP JUMPDEST PUSH2 0x7C9 JUMP JUMPDEST PUSH2 0x7A9 JUMP JUMPDEST SWAP1 POP SWAP2 SWAP1 POP JUMP JUMPDEST PUSH1 0x0 PUSH2 0x800 DUP3 PUSH2 0x7D3 JUMP JUMPDEST SWAP1 POP SWAP2 SWAP1 POP JUMP JUMPDEST PUSH1 0x0 PUSH2 0x812 DUP3 PUSH2 0x7F5 JUMP JUMPDEST SWAP1 POP SWAP2 SWAP1 POP JUMP JUMPDEST PUSH2 0x822 DUP2 PUSH2 0x807 JUMP JUMPDEST DUP3 MSTORE POP POP JUMP JUMPDEST PUSH1 0x0 PUSH1 0x20 DUP3 ADD SWAP1 POP PUSH2 0x83D PUSH1 0x0 DUP4 ADD DUP5 PUSH2 0x819 JUMP JUMPDEST SWAP3 SWAP2 POP POP JUMP JUMPDEST PUSH1 0x0 DUP2 SWAP1 POP SWAP2 SWAP1 POP JUMP JUMPDEST PUSH2 0x856 DUP2 PUSH2 0x843 JUMP JUMPDEST DUP3 MSTORE POP POP JUMP JUMPDEST PUSH1 0x0 PUSH1 0x20 DUP3 ADD SWAP1 POP PUSH2 0x871 PUSH1 0x0 DUP4 ADD DUP5 PUSH2 0x84D JUMP JUMPDEST SWAP3 SWAP2 POP POP JUMP JUMPDEST PUSH1 0x0 DUP1 REVERT JUMPDEST PUSH1 0x0 DUP2 SWAP1 POP SWAP2 SWAP1 POP JUMP JUMPDEST PUSH2 0x88F DUP2 PUSH2 0x87C JUMP JUMPDEST DUP2 EQ PUSH2 0x89A JUMPI PUSH1 0x0 DUP1 REVERT JUMPDEST POP JUMP JUMPDEST PUSH1 0x0 DUP2 CALLDATALOAD SWAP1 POP PUSH2 0x8AC DUP2 PUSH2 0x886 JUMP JUMPDEST SWAP3 SWAP2 POP POP JUMP JUMPDEST PUSH1 0x0 PUSH1 0x20 DUP3 DUP5 SUB SLT ISZERO PUSH2 0x8C8 JUMPI PUSH2 0x8C7 PUSH2 0x877 JUMP JUMPDEST JUMPDEST PUSH1 0x0 PUSH2 0x8D6 DUP5 DUP3 DUP6 ADD PUSH2 0x89D JUMP JUMPDEST SWAP2 POP POP SWAP3 SWAP2 POP POP JUMP JUMPDEST PUSH1 0x0 PUSH2 0x8EA DUP3 PUSH2 0x7A9 JUMP JUMPDEST SWAP1 POP SWAP2 SWAP1 POP JUMP JUMPDEST PUSH2 0x8FA DUP2 PUSH2 0x8DF JUMP JUMPDEST DUP3 MSTORE POP POP JUMP JUMPDEST PUSH1 0x0 PUSH1 0x20 DUP3 ADD SWAP1 POP PUSH2 0x915 PUSH1 0x0 DUP4 ADD DUP5 PUSH2 0x8F1 JUMP JUMPDEST SWAP3 SWAP2 POP POP JUMP JUMPDEST PUSH2 0x924 DUP2 PUSH2 0x843 JUMP JUMPDEST DUP2 EQ PUSH2 0x92F JUMPI PUSH1 0x0 DUP1 REVERT JUMPDEST POP JUMP JUMPDEST PUSH1 0x0 DUP2 CALLDATALOAD SWAP1 POP PUSH2 0x941 DUP2 PUSH2 0x91B JUMP JUMPDEST SWAP3 SWAP2 POP POP JUMP JUMPDEST PUSH1 0x0 DUP1 PUSH1 0x40 DUP4 DUP6 SUB SLT ISZERO PUSH2 0x95E JUMPI PUSH2 0x95D PUSH2 0x877 JUMP JUMPDEST JUMPDEST PUSH1 0x0 PUSH2 0x96C DUP6 DUP3 DUP7 ADD PUSH2 0x89D JUMP JUMPDEST SWAP3 POP POP PUSH1 0x20 PUSH2 0x97D DUP6 DUP3 DUP7 ADD PUSH2 0x932 JUMP JUMPDEST SWAP2 POP POP SWAP3 POP SWAP3 SWAP1 POP JUMP JUMPDEST PUSH2 0x990 DUP2 PUSH2 0x8DF JUMP JUMPDEST DUP2 EQ PUSH2 0x99B JUMPI PUSH1 0x0 DUP1 REVERT JUMPDEST POP JUMP JUMPDEST PUSH1 0x0 DUP2 CALLDATALOAD SWAP1 POP PUSH2 0x9AD DUP2 PUSH2 0x987 JUMP JUMPDEST SWAP3 SWAP2 POP POP JUMP JUMPDEST PUSH1 0x0 PUSH1 0x20 DUP3 DUP5 SUB SLT ISZERO PUSH2 0x9C9 JUMPI PUSH2 0x9C8 PUSH2 0x877 JUMP JUMPDEST JUMPDEST PUSH1 0x0 PUSH2 0x9D7 DUP5 DUP3 DUP6 ADD PUSH2 0x99E JUMP JUMPDEST SWAP2 POP POP SWAP3 SWAP2 POP POP JUMP JUMPDEST PUSH1 0x0 PUSH1 0x20 DUP3 DUP5 SUB SLT ISZERO PUSH2 0x9F6 JUMPI PUSH2 0x9F5 PUSH2 0x877 JUMP JUMPDEST JUMPDEST PUSH1 0x0 PUSH2 0xA04 DUP5 DUP3 DUP6 ADD PUSH2 0x932 JUMP JUMPDEST SWAP2 POP POP SWAP3 SWAP2 POP POP JUMP JUMPDEST PUSH1 0x0 DUP3 DUP3 MSTORE PUSH1 0x20 DUP3 ADD SWAP1 POP SWAP3 SWAP2 POP POP JUMP JUMPDEST PUSH32 0x4F6E6C7920565246436F6F7264696E61746F722063616E2066756C66696C6C00 PUSH1 0x0 DUP3 ADD MSTORE POP JUMP JUMPDEST PUSH1 0x0 PUSH2 0xA54 PUSH1 0x1F DUP4 PUSH2 0xA0D JUMP JUMPDEST SWAP2 POP PUSH2 0xA5F DUP3 PUSH2 0xA1E JUMP JUMPDEST PUSH1 0x20 DUP3 ADD SWAP1 POP SWAP2 SWAP1 POP JUMP JUMPDEST PUSH1 0x0 PUSH1 0x20 DUP3 ADD SWAP1 POP DUP2 DUP2 SUB PUSH1 0x0 DUP4 ADD MSTORE PUSH2 0xA83 DUP2 PUSH2 0xA47 JUMP JUMPDEST SWAP1 POP SWAP2 SWAP1 POP JUMP JUMPDEST PUSH32 0x43616E206F6E6C792062652063616C6C6564206F6E6365000000000000000000 PUSH1 0x0 DUP3 ADD MSTORE POP JUMP JUMPDEST PUSH1 0x0 PUSH2 0xAC0 PUSH1 0x17 DUP4 PUSH2 0xA0D JUMP JUMPDEST SWAP2 POP PUSH2 0xACB DUP3 PUSH2 0xA8A JUMP JUMPDEST PUSH1 0x20 DUP3 ADD SWAP1 POP SWAP2 SWAP1 POP JUMP JUMPDEST PUSH1 0x0 PUSH1 0x20 DUP3 ADD SWAP1 POP DUP2 DUP2 SUB PUSH1 0x0 DUP4 ADD MSTORE PUSH2 0xAEF DUP2 PUSH2 0xAB3 JUMP JUMPDEST SWAP1 POP SWAP2 SWAP1 POP JUMP JUMPDEST PUSH32 0x4F6E6C79206F776E65722063616E2063616C6C20746869732066756E6374696F PUSH1 0x0 DUP3 ADD MSTORE PUSH32 0x6E2E000000000000000000000000000000000000000000000000000000000000 PUSH1 0x20 DUP3 ADD MSTORE POP JUMP JUMPDEST PUSH1 0x0 PUSH2 0xB52 PUSH1 0x22 DUP4 PUSH2 0xA0D JUMP JUMPDEST SWAP2 POP PUSH2 0xB5D DUP3 PUSH2 0xAF6 JUMP JUMPDEST PUSH1 0x40 DUP3 ADD SWAP1 POP SWAP2 SWAP1 POP JUMP JUMPDEST PUSH1 0x0 PUSH1 0x20 DUP3 ADD SWAP1 POP DUP2 DUP2 SUB PUSH1 0x0 DUP4 ADD MSTORE PUSH2 0xB81 DUP2 PUSH2 0xB45 JUMP JUMPDEST SWAP1 POP SWAP2 SWAP1 POP JUMP JUMPDEST PUSH32 0x4E487B7100000000000000000000000000000000000000000000000000000000 PUSH1 0x0 MSTORE PUSH1 0x11 PUSH1 0x4 MSTORE PUSH1 0x24 PUSH1 0x0 REVERT JUMPDEST PUSH1 0x0 PUSH2 0xBC2 DUP3 PUSH2 0x843 JUMP JUMPDEST SWAP2 POP PUSH2 0xBCD DUP4 PUSH2 0x843 JUMP JUMPDEST SWAP3 POP DUP3 DUP3 ADD SWAP1 POP DUP1 DUP3 GT ISZERO PUSH2 0xBE5 JUMPI PUSH2 0xBE4 PUSH2 0xB88 JUMP JUMPDEST JUMPDEST SWAP3 SWAP2 POP POP JUMP JUMPDEST PUSH1 0x0 DUP2 MLOAD SWAP1 POP PUSH2 0xBFA DUP2 PUSH2 0x91B JUMP JUMPDEST SWAP3 SWAP2 POP POP JUMP JUMPDEST PUSH1 0x0 PUSH1 0x20 DUP3 DUP5 SUB SLT ISZERO PUSH2 0xC16 JUMPI PUSH2 0xC15 PUSH2 0x877 JUMP JUMPDEST JUMPDEST PUSH1 0x0 PUSH2 0xC24 DUP5 DUP3 DUP6 ADD PUSH2 0xBEB JUMP JUMPDEST SWAP2 POP POP SWAP3 SWAP2 POP POP JUMP JUMPDEST PUSH32 0x4E6F7420656E6F756768204C494E4B202D2066696C6C20636F6E747261637420 PUSH1 0x0 DUP3 ADD MSTORE PUSH32 0x7769746820666175636574000000000000000000000000000000000000000000 PUSH1 0x20 DUP3 ADD MSTORE POP JUMP JUMPDEST PUSH1 0x0 PUSH2 0xC89 PUSH1 0x2B DUP4 PUSH2 0xA0D JUMP JUMPDEST SWAP2 POP PUSH2 0xC94 DUP3 PUSH2 0xC2D JUMP JUMPDEST PUSH1 0x40 DUP3 ADD SWAP1 POP SWAP2 SWAP1 POP JUMP JUMPDEST PUSH1 0x0 PUSH1 0x20 DUP3 ADD SWAP1 POP DUP2 DUP2 SUB PUSH1 0x0 DUP4 ADD MSTORE PUSH2 0xCB8 DUP2 PUSH2 0xC7C JUMP JUMPDEST SWAP1 POP SWAP2 SWAP1 POP JUMP JUMPDEST PUSH2 0xCC8 DUP2 PUSH2 0x87C JUMP JUMPDEST DUP3 MSTORE POP POP JUMP JUMPDEST PUSH1 0x0 PUSH1 0x40 DUP3 ADD SWAP1 POP PUSH2 0xCE3 PUSH1 0x0 DUP4 ADD DUP6 PUSH2 0xCBF JUMP JUMPDEST PUSH2 0xCF0 PUSH1 0x20 DUP4 ADD DUP5 PUSH2 0x84D JUMP JUMPDEST SWAP4 SWAP3 POP POP POP JUMP JUMPDEST PUSH1 0x0 DUP2 MLOAD SWAP1 POP SWAP2 SWAP1 POP JUMP JUMPDEST PUSH1 0x0 DUP3 DUP3 MSTORE PUSH1 0x20 DUP3 ADD SWAP1 POP SWAP3 SWAP2 POP POP JUMP JUMPDEST PUSH1 0x0 JUMPDEST DUP4 DUP2 LT ISZERO PUSH2 0xD31 JUMPI DUP1 DUP3 ADD MLOAD DUP2 DUP5 ADD MSTORE PUSH1 0x20 DUP2 ADD SWAP1 POP PUSH2 0xD16 JUMP JUMPDEST PUSH1 0x0 DUP5 DUP5 ADD MSTORE POP POP POP POP JUMP JUMPDEST PUSH1 0x0 PUSH1 0x1F NOT PUSH1 0x1F DUP4 ADD AND SWAP1 POP SWAP2 SWAP1 POP JUMP JUMPDEST PUSH1 0x0 PUSH2 0xD59 DUP3 PUSH2 0xCF7 JUMP JUMPDEST PUSH2 0xD63 DUP2 DUP6 PUSH2 0xD02 JUMP JUMPDEST SWAP4 POP PUSH2 0xD73 DUP2 DUP6 PUSH1 0x20 DUP7 ADD PUSH2 0xD13 JUMP JUMPDEST PUSH2 0xD7C DUP2 PUSH2 0xD3D JUMP JUMPDEST DUP5 ADD SWAP2 POP POP SWAP3 SWAP2 POP POP JUMP JUMPDEST PUSH1 0x0 PUSH1 0x60 DUP3 ADD SWAP1 POP PUSH2 0xD9C PUSH1 0x0 DUP4 ADD DUP7 PUSH2 0x8F1 JUMP JUMPDEST PUSH2 0xDA9 PUSH1 0x20 DUP4 ADD DUP6 PUSH2 0x84D JUMP JUMPDEST DUP2 DUP2 SUB PUSH1 0x40 DUP4 ADD MSTORE PUSH2 0xDBB DUP2 DUP5 PUSH2 0xD4E JUMP JUMPDEST SWAP1 POP SWAP5 SWAP4 POP POP POP POP JUMP JUMPDEST PUSH1 0x0 DUP2 ISZERO ISZERO SWAP1 POP SWAP2 SWAP1 POP JUMP JUMPDEST PUSH2 0xDDA DUP2 PUSH2 0xDC5 JUMP JUMPDEST DUP2 EQ PUSH2 0xDE5 JUMPI PUSH1 0x0 DUP1 REVERT JUMPDEST POP JUMP JUMPDEST PUSH1 0x0 DUP2 MLOAD SWAP1 POP PUSH2 0xDF7 DUP2 PUSH2 0xDD1 JUMP JUMPDEST SWAP3 SWAP2 POP POP JUMP JUMPDEST PUSH1 0x0 PUSH1 0x20 DUP3 DUP5 SUB SLT ISZERO PUSH2 0xE13 JUMPI PUSH2 0xE12 PUSH2 0x877 JUMP JUMPDEST JUMPDEST PUSH1 0x0 PUSH2 0xE21 DUP5 DUP3 DUP6 ADD PUSH2 0xDE8 JUMP JUMPDEST SWAP2 POP POP SWAP3 SWAP2 POP POP JUMP JUMPDEST PUSH1 0x0 PUSH1 0x80 DUP3 ADD SWAP1 POP PUSH2 0xE3F PUSH1 0x0 DUP4 ADD DUP8 PUSH2 0xCBF JUMP JUMPDEST PUSH2 0xE4C PUSH1 0x20 DUP4 ADD DUP7 PUSH2 0x84D JUMP JUMPDEST PUSH2 0xE59 PUSH1 0x40 DUP4 ADD DUP6 PUSH2 0x8F1 JUMP JUMPDEST PUSH2 0xE66 PUSH1 0x60 DUP4 ADD DUP5 PUSH2 0x84D JUMP JUMPDEST SWAP6 SWAP5 POP POP POP POP POP JUMP JUMPDEST PUSH1 0x0 DUP2 SWAP1 POP SWAP2 SWAP1 POP JUMP JUMPDEST PUSH2 0xE8A PUSH2 0xE85 DUP3 PUSH2 0x87C JUMP JUMPDEST PUSH2 0xE6F JUMP JUMPDEST DUP3 MSTORE POP POP JUMP JUMPDEST PUSH1 0x0 DUP2 SWAP1 POP SWAP2 SWAP1 POP JUMP JUMPDEST PUSH2 0xEAB PUSH2 0xEA6 DUP3 PUSH2 0x843 JUMP JUMPDEST PUSH2 0xE90 JUMP JUMPDEST DUP3 MSTORE POP POP JUMP JUMPDEST PUSH1 0x0 PUSH2 0xEBD DUP3 DUP6 PUSH2 0xE79 JUMP JUMPDEST PUSH1 0x20 DUP3 ADD SWAP2 POP PUSH2 0xECD DUP3 DUP5 PUSH2 0xE9A JUMP JUMPDEST PUSH1 0x20 DUP3 ADD SWAP2 POP DUP2 SWAP1 POP SWAP4 SWAP3 POP POP POP JUMP INVALID LOG2 PUSH5 0x6970667358 0x22 SLT KECCAK256 0xD3 0x2D AND SAR PUSH9 0x93FBBE3DE54A52B3EE PUSH32 0x28B90BC9AE902146FCBAF38452AD13FA4E64736F6C6343000811003300000000 "},"methodIdentifiers":{"counter()":"61bc221a","getRandom(uint256)":"cd4b6914","lottery_contract()":"49915912","most_recent_random()":"c0159e5a","owner()":"8da5cb5b","randomNumber(uint256)":"f970dd02","rawFulfillRandomness(bytes32,uint256)":"94985ddd","requestIds(bytes32)":"8645f7a8","set_lottery_contract(address)":"ac9d50d2"}}}}}