{
  "_format": "hh-sol-artifact-1",
  "contractName": "PiggyBank",
  "sourceName": "contracts/piggy_bank.sol",
  "abi": [
    {
      "inputs": [],
      "stateMutability": "nonpayable",
      "type": "constructor"
    },
    {
      "anonymous": false,
      "inputs": [
        {
          "indexed": false,
          "internalType": "uint256",
          "name": "amount",
          "type": "uint256"
        }
      ],
      "name": "Deposit",
      "type": "event"
    },
    {
      "anonymous": false,
      "inputs": [
        {
          "indexed": false,
          "internalType": "uint256",
          "name": "amount",
          "type": "uint256"
        }
      ],
      "name": "Withdraw",
      "type": "event"
    },
    {
      "inputs": [],
      "name": "balance",
      "outputs": [
        {
          "internalType": "uint256",
          "name": "",
          "type": "uint256"
        }
      ],
      "stateMutability": "view",
      "type": "function"
    },
    {
      "inputs": [],
      "name": "owner",
      "outputs": [
        {
          "internalType": "address",
          "name": "",
          "type": "address"
        }
      ],
      "stateMutability": "view",
      "type": "function"
    },
    {
      "inputs": [],
      "name": "withdraw",
      "outputs": [],
      "stateMutability": "nonpayable",
      "type": "function"
    },
    {
      "stateMutability": "payable",
      "type": "receive"
    }
  ],
  "bytecode": "0x608060405234801561001057600080fd5b50336000806101000a81548173ffffffffffffffffffffffffffffffffffffffff021916908373ffffffffffffffffffffffffffffffffffffffff1602179055506103d4806100606000396000f3fe6080604052600436106100385760003560e01c80633ccfd60b146100945780638da5cb5b146100ab578063b69ef8a8146100d65761008f565b3661008f57346001600082825461004f9190610267565b925050819055507f4d6ce1e535dbade1c23defba91e23b8f791ce5edc0cc320257a2b364e4e384263460405161008591906102aa565b60405180910390a1005b600080fd5b3480156100a057600080fd5b506100a9610101565b005b3480156100b757600080fd5b506100c0610204565b6040516100cd9190610306565b60405180910390f35b3480156100e257600080fd5b506100eb610228565b6040516100f891906102aa565b60405180910390f35b60008054906101000a900473ffffffffffffffffffffffffffffffffffffffff1673ffffffffffffffffffffffffffffffffffffffff163373ffffffffffffffffffffffffffffffffffffffff161461018f576040517f08c379a00000000000000000000000000000000000000000000000000000000081526004016101869061037e565b60405180910390fd5b60004790507f5b6b431d4476a211bb7d41c20d1aab9ae2321deee0d20be3d9fc9b1093fa6e3d816040516101c391906102aa565b60405180910390a160008054906101000a900473ffffffffffffffffffffffffffffffffffffffff1673ffffffffffffffffffffffffffffffffffffffff16ff5b60008054906101000a900473ffffffffffffffffffffffffffffffffffffffff1681565b60015481565b6000819050919050565b7f4e487b7100000000000000000000000000000000000000000000000000000000600052601160045260246000fd5b60006102728261022e565b915061027d8361022e565b925082820190508082111561029557610294610238565b5b92915050565b6102a48161022e565b82525050565b60006020820190506102bf600083018461029b565b92915050565b600073ffffffffffffffffffffffffffffffffffffffff82169050919050565b60006102f0826102c5565b9050919050565b610300816102e5565b82525050565b600060208201905061031b60008301846102f7565b92915050565b600082825260208201905092915050565b7f4e6f74206f776e65720000000000000000000000000000000000000000000000600082015250565b6000610368600983610321565b915061037382610332565b602082019050919050565b600060208201905081810360008301526103978161035b565b905091905056fea2646970667358221220e28d349fdb3e607c1175375b5380c3de6db313d6fec4c8dc85792e11f7344a4b64736f6c63430008110033",
  "linkReferences": {},
  "deployedLinkReferences": {}
}