{"contracts/lending_pool.sol":{"EthLendingPool":{"abi":[{"inputs":[{"internalType":"address","name":"","type":"address"}],"name":"balances","outputs":[{"internalType":"uint256","name":"","type":"uint256"}],"stateMutability":"view","type":"function"},{"inputs":[],"name":"deposit","outputs":[],"stateMutability":"payable","type":"function"},{"inputs":[{"internalType":"uint256","name":"_amount","type":"uint256"},{"internalType":"address","name":"_target","type":"address"},{"internalType":"bytes","name":"_data","type":"bytes"}],"name":"flashLoan","outputs":[],"stateMutability":"nonpayable","type":"function"},{"inputs":[{"internalType":"uint256","name":"_amount","type":"uint256"}],"name":"withdraw","outputs":[],"stateMutability":"nonpayable","type":"function"}],"evm":{"bytecode":{"linkReferences":{},"object":"608060405234801561001057600080fd5b506108b6806100206000396000f3fe60806040526004361061003f5760003560e01c806327e235e3146100445780632bd94e9c146100815780632e1a7d4d146100aa578063d0e30db0146100d3575b600080fd5b34801561005057600080fd5b5061006b60048036038101906100669190610402565b6100dd565b6040516100789190610448565b60405180910390f35b34801561008d57600080fd5b506100a860048036038101906100a391906104f4565b6100f5565b005b3480156100b657600080fd5b506100d160048036038101906100cc9190610568565b61023e565b005b6100db610343565b005b60006020528060005260406000206000915090505481565b60004790508481101561013d576040517f08c379a0000000000000000000000000000000000000000000000000000000008152600401610134906105f2565b60405180910390fd5b60008473ffffffffffffffffffffffffffffffffffffffff16868585604051610167929190610651565b60006040518083038185875af1925050503d80600081146101a4576040519150601f19603f3d011682016040523d82523d6000602084013e6101a9565b606091505b50509050806101ed576040517f08c379a00000000000000000000000000000000000000000000000000000000081526004016101e4906106b6565b60405180910390fd5b600047905082811015610235576040517f08c379a000000000000000000000000000000000000000000000000000000000815260040161022c90610722565b60405180910390fd5b50505050505050565b806000803373ffffffffffffffffffffffffffffffffffffffff1673ffffffffffffffffffffffffffffffffffffffff168152602001908152602001600020600082825461028c9190610771565b9250508190555060003373ffffffffffffffffffffffffffffffffffffffff16826040516102b9906107cb565b60006040518083038185875af1925050503d80600081146102f6576040519150601f19603f3d011682016040523d82523d6000602084013e6102fb565b606091505b505090508061033f576040517f08c379a00000000000000000000000000000000000000000000000000000000081526004016103369061082c565b60405180910390fd5b5050565b346000803373ffffffffffffffffffffffffffffffffffffffff1673ffffffffffffffffffffffffffffffffffffffff1681526020019081526020016000206000828254610391919061084c565b92505081905550565b600080fd5b600080fd5b600073ffffffffffffffffffffffffffffffffffffffff82169050919050565b60006103cf826103a4565b9050919050565b6103df816103c4565b81146103ea57600080fd5b50565b6000813590506103fc816103d6565b92915050565b6000602082840312156104185761041761039a565b5b6000610426848285016103ed565b91505092915050565b6000819050919050565b6104428161042f565b82525050565b600060208201905061045d6000830184610439565b92915050565b61046c8161042f565b811461047757600080fd5b50565b60008135905061048981610463565b92915050565b600080fd5b600080fd5b600080fd5b60008083601f8401126104b4576104b361048f565b5b8235905067ffffffffffffffff8111156104d1576104d0610494565b5b6020830191508360018202830111156104ed576104ec610499565b5b9250929050565b6000806000806060858703121561050e5761050d61039a565b5b600061051c8782880161047a565b945050602061052d878288016103ed565b935050604085013567ffffffffffffffff81111561054e5761054d61039f565b5b61055a8782880161049e565b925092505092959194509250565b60006020828403121561057e5761057d61039a565b5b600061058c8482850161047a565b91505092915050565b600082825260208201905092915050565b7f626f72726f7720616d6f756e74203e2062616c616e6365000000000000000000600082015250565b60006105dc601783610595565b91506105e7826105a6565b602082019050919050565b6000602082019050818103600083015261060b816105cf565b9050919050565b600081905092915050565b82818337600083830152505050565b60006106388385610612565b935061064583858461061d565b82840190509392505050565b600061065e82848661062c565b91508190509392505050565b7f6c6f616e206661696c6564000000000000000000000000000000000000000000600082015250565b60006106a0600b83610595565b91506106ab8261066a565b602082019050919050565b600060208201905081810360008301526106cf81610693565b9050919050565b7f62616c616e6365206166746572203c206265666f726500000000000000000000600082015250565b600061070c601683610595565b9150610717826106d6565b602082019050919050565b6000602082019050818103600083015261073b816106ff565b9050919050565b7f4e487b7100000000000000000000000000000000000000000000000000000000600052601160045260246000fd5b600061077c8261042f565b91506107878361042f565b925082820390508181111561079f5761079e610742565b5b92915050565b50565b60006107b5600083610612565b91506107c0826107a5565b600082019050919050565b60006107d6826107a8565b9150819050919050565b7f73656e6420455448206661696c65640000000000000000000000000000000000600082015250565b6000610816600f83610595565b9150610821826107e0565b602082019050919050565b6000602082019050818103600083015261084581610809565b9050919050565b60006108578261042f565b91506108628361042f565b925082820190508082111561087a57610879610742565b5b9291505056fea264697066735822122066547f40956693f96181c59ab2c42f93efeff8e6a44feb1a8c14e370513cf4ce64736f6c63430008110033","opcodes":"PUSH1 0x80 PUSH1 0x40 MSTORE CALLVALUE DUP1 ISZERO PUSH2 0x10 JUMPI PUSH1 0x0 DUP1 REVERT JUMPDEST POP PUSH2 0x8B6 DUP1 PUSH2 0x20 PUSH1 0x0 CODECOPY PUSH1 0x0 RETURN INVALID PUSH1 0x80 PUSH1 0x40 MSTORE PUSH1 0x4 CALLDATASIZE LT PUSH2 0x3F JUMPI PUSH1 0x0 CALLDATALOAD PUSH1 0xE0 SHR DUP1 PUSH4 0x27E235E3 EQ PUSH2 0x44 JUMPI DUP1 PUSH4 0x2BD94E9C EQ PUSH2 0x81 JUMPI DUP1 PUSH4 0x2E1A7D4D EQ PUSH2 0xAA JUMPI DUP1 PUSH4 0xD0E30DB0 EQ PUSH2 0xD3 JUMPI JUMPDEST PUSH1 0x0 DUP1 REVERT JUMPDEST CALLVALUE DUP1 ISZERO PUSH2 0x50 JUMPI PUSH1 0x0 DUP1 REVERT JUMPDEST POP PUSH2 0x6B PUSH1 0x4 DUP1 CALLDATASIZE SUB DUP2 ADD SWAP1 PUSH2 0x66 SWAP2 SWAP1 PUSH2 0x402 JUMP JUMPDEST PUSH2 0xDD JUMP JUMPDEST PUSH1 0x40 MLOAD PUSH2 0x78 SWAP2 SWAP1 PUSH2 0x448 JUMP JUMPDEST PUSH1 0x40 MLOAD DUP1 SWAP2 SUB SWAP1 RETURN JUMPDEST CALLVALUE DUP1 ISZERO PUSH2 0x8D JUMPI PUSH1 0x0 DUP1 REVERT JUMPDEST POP PUSH2 0xA8 PUSH1 0x4 DUP1 CALLDATASIZE SUB DUP2 ADD SWAP1 PUSH2 0xA3 SWAP2 SWAP1 PUSH2 0x4F4 JUMP JUMPDEST PUSH2 0xF5 JUMP JUMPDEST STOP JUMPDEST CALLVALUE DUP1 ISZERO PUSH2 0xB6 JUMPI PUSH1 0x0 DUP1 REVERT JUMPDEST POP PUSH2 0xD1 PUSH1 0x4 DUP1 CALLDATASIZE SUB DUP2 ADD SWAP1 PUSH2 0xCC SWAP2 SWAP1 PUSH2 0x568 JUMP JUMPDEST PUSH2 0x23E JUMP JUMPDEST STOP JUMPDEST PUSH2 0xDB PUSH2 0x343 JUMP JUMPDEST STOP JUMPDEST PUSH1 0x0 PUSH1 0x20 MSTORE DUP1 PUSH1 0x0 MSTORE PUSH1 0x40 PUSH1 0x0 KECCAK256 PUSH1 0x0 SWAP2 POP SWAP1 POP SLOAD DUP2 JUMP JUMPDEST PUSH1 0x0 SELFBALANCE SWAP1 POP DUP5 DUP2 LT ISZERO PUSH2 0x13D JUMPI PUSH1 0x40 MLOAD PUSH32 0x8C379A000000000000000000000000000000000000000000000000000000000 DUP2 MSTORE PUSH1 0x4 ADD PUSH2 0x134 SWAP1 PUSH2 0x5F2 JUMP JUMPDEST PUSH1 0x40 MLOAD DUP1 SWAP2 SUB SWAP1 REVERT JUMPDEST PUSH1 0x0 DUP5 PUSH20 0xFFFFFFFFFFFFFFFFFFFFFFFFFFFFFFFFFFFFFFFF AND DUP7 DUP6 DUP6 PUSH1 0x40 MLOAD PUSH2 0x167 SWAP3 SWAP2 SWAP1 PUSH2 0x651 JUMP JUMPDEST PUSH1 0x0 PUSH1 0x40 MLOAD DUP1 DUP4 SUB DUP2 DUP6 DUP8 GAS CALL SWAP3 POP POP POP RETURNDATASIZE DUP1 PUSH1 0x0 DUP2 EQ PUSH2 0x1A4 JUMPI PUSH1 0x40 MLOAD SWAP2 POP PUSH1 0x1F NOT PUSH1 0x3F RETURNDATASIZE ADD AND DUP3 ADD PUSH1 0x40 MSTORE RETURNDATASIZE DUP3 MSTORE RETURNDATASIZE PUSH1 0x0 PUSH1 0x20 DUP5 ADD RETURNDATACOPY PUSH2 0x1A9 JUMP JUMPDEST PUSH1 0x60 SWAP2 POP JUMPDEST POP POP SWAP1 POP DUP1 PUSH2 0x1ED JUMPI PUSH1 0x40 MLOAD PUSH32 0x8C379A000000000000000000000000000000000000000000000000000000000 DUP2 MSTORE PUSH1 0x4 ADD PUSH2 0x1E4 SWAP1 PUSH2 0x6B6 JUMP JUMPDEST PUSH1 0x40 MLOAD DUP1 SWAP2 SUB SWAP1 REVERT JUMPDEST PUSH1 0x0 SELFBALANCE SWAP1 POP DUP3 DUP2 LT ISZERO PUSH2 0x235 JUMPI PUSH1 0x40 MLOAD PUSH32 0x8C379A000000000000000000000000000000000000000000000000000000000 DUP2 MSTORE PUSH1 0x4 ADD PUSH2 0x22C SWAP1 PUSH2 0x722 JUMP JUMPDEST PUSH1 0x40 MLOAD DUP1 SWAP2 SUB SWAP1 REVERT JUMPDEST POP POP POP POP POP POP POP JUMP JUMPDEST DUP1 PUSH1 0x0 DUP1 CALLER PUSH20 0xFFFFFFFFFFFFFFFFFFFFFFFFFFFFFFFFFFFFFFFF AND PUSH20 0xFFFFFFFFFFFFFFFFFFFFFFFFFFFFFFFFFFFFFFFF AND DUP2 MSTORE PUSH1 0x20 ADD SWAP1 DUP2 MSTORE PUSH1 0x20 ADD PUSH1 0x0 KECCAK256 PUSH1 0x0 DUP3 DUP3 SLOAD PUSH2 0x28C SWAP2 SWAP1 PUSH2 0x771 JUMP JUMPDEST SWAP3 POP POP DUP2 SWAP1 SSTORE POP PUSH1 0x0 CALLER PUSH20 0xFFFFFFFFFFFFFFFFFFFFFFFFFFFFFFFFFFFFFFFF AND DUP3 PUSH1 0x40 MLOAD PUSH2 0x2B9 SWAP1 PUSH2 0x7CB JUMP JUMPDEST PUSH1 0x0 PUSH1 0x40 MLOAD DUP1 DUP4 SUB DUP2 DUP6 DUP8 GAS CALL SWAP3 POP POP POP RETURNDATASIZE DUP1 PUSH1 0x0 DUP2 EQ PUSH2 0x2F6 JUMPI PUSH1 0x40 MLOAD SWAP2 POP PUSH1 0x1F NOT PUSH1 0x3F RETURNDATASIZE ADD AND DUP3 ADD PUSH1 0x40 MSTORE RETURNDATASIZE DUP3 MSTORE RETURNDATASIZE PUSH1 0x0 PUSH1 0x20 DUP5 ADD RETURNDATACOPY PUSH2 0x2FB JUMP JUMPDEST PUSH1 0x60 SWAP2 POP JUMPDEST POP POP SWAP1 POP DUP1 PUSH2 0x33F JUMPI PUSH1 0x40 MLOAD PUSH32 0x8C379A000000000000000000000000000000000000000000000000000000000 DUP2 MSTORE PUSH1 0x4 ADD PUSH2 0x336 SWAP1 PUSH2 0x82C JUMP JUMPDEST PUSH1 0x40 MLOAD DUP1 SWAP2 SUB SWAP1 REVERT JUMPDEST POP POP JUMP JUMPDEST CALLVALUE PUSH1 0x0 DUP1 CALLER PUSH20 0xFFFFFFFFFFFFFFFFFFFFFFFFFFFFFFFFFFFFFFFF AND PUSH20 0xFFFFFFFFFFFFFFFFFFFFFFFFFFFFFFFFFFFFFFFF AND DUP2 MSTORE PUSH1 0x20 ADD SWAP1 DUP2 MSTORE PUSH1 0x20 ADD PUSH1 0x0 KECCAK256 PUSH1 0x0 DUP3 DUP3 SLOAD PUSH2 0x391 SWAP2 SWAP1 PUSH2 0x84C JUMP JUMPDEST SWAP3 POP POP DUP2 SWAP1 SSTORE POP JUMP JUMPDEST PUSH1 0x0 DUP1 REVERT JUMPDEST PUSH1 0x0 DUP1 REVERT JUMPDEST PUSH1 0x0 PUSH20 0xFFFFFFFFFFFFFFFFFFFFFFFFFFFFFFFFFFFFFFFF DUP3 AND SWAP1 POP SWAP2 SWAP1 POP JUMP JUMPDEST PUSH1 0x0 PUSH2 0x3CF DUP3 PUSH2 0x3A4 JUMP JUMPDEST SWAP1 POP SWAP2 SWAP1 POP JUMP JUMPDEST PUSH2 0x3DF DUP2 PUSH2 0x3C4 JUMP JUMPDEST DUP2 EQ PUSH2 0x3EA JUMPI PUSH1 0x0 DUP1 REVERT JUMPDEST POP JUMP JUMPDEST PUSH1 0x0 DUP2 CALLDATALOAD SWAP1 POP PUSH2 0x3FC DUP2 PUSH2 0x3D6 JUMP JUMPDEST SWAP3 SWAP2 POP POP JUMP JUMPDEST PUSH1 0x0 PUSH1 0x20 DUP3 DUP5 SUB SLT ISZERO PUSH2 0x418 JUMPI PUSH2 0x417 PUSH2 0x39A JUMP JUMPDEST JUMPDEST PUSH1 0x0 PUSH2 0x426 DUP5 DUP3 DUP6 ADD PUSH2 0x3ED JUMP JUMPDEST SWAP2 POP POP SWAP3 SWAP2 POP POP JUMP JUMPDEST PUSH1 0x0 DUP2 SWAP1 POP SWAP2 SWAP1 POP JUMP JUMPDEST PUSH2 0x442 DUP2 PUSH2 0x42F JUMP JUMPDEST DUP3 MSTORE POP POP JUMP JUMPDEST PUSH1 0x0 PUSH1 0x20 DUP3 ADD SWAP1 POP PUSH2 0x45D PUSH1 0x0 DUP4 ADD DUP5 PUSH2 0x439 JUMP JUMPDEST SWAP3 SWAP2 POP POP JUMP JUMPDEST PUSH2 0x46C DUP2 PUSH2 0x42F JUMP JUMPDEST DUP2 EQ PUSH2 0x477 JUMPI PUSH1 0x0 DUP1 REVERT JUMPDEST POP JUMP JUMPDEST PUSH1 0x0 DUP2 CALLDATALOAD SWAP1 POP PUSH2 0x489 DUP2 PUSH2 0x463 JUMP JUMPDEST SWAP3 SWAP2 POP POP JUMP JUMPDEST PUSH1 0x0 DUP1 REVERT JUMPDEST PUSH1 0x0 DUP1 REVERT JUMPDEST PUSH1 0x0 DUP1 REVERT JUMPDEST PUSH1 0x0 DUP1 DUP4 PUSH1 0x1F DUP5 ADD SLT PUSH2 0x4B4 JUMPI PUSH2 0x4B3 PUSH2 0x48F JUMP JUMPDEST JUMPDEST DUP3 CALLDATALOAD SWAP1 POP PUSH8 0xFFFFFFFFFFFFFFFF DUP2 GT ISZERO PUSH2 0x4D1 JUMPI PUSH2 0x4D0 PUSH2 0x494 JUMP JUMPDEST JUMPDEST PUSH1 0x20 DUP4 ADD SWAP2 POP DUP4 PUSH1 0x1 DUP3 MUL DUP4 ADD GT ISZERO PUSH2 0x4ED JUMPI PUSH2 0x4EC PUSH2 0x499 JUMP JUMPDEST JUMPDEST SWAP3 POP SWAP3 SWAP1 POP JUMP JUMPDEST PUSH1 0x0 DUP1 PUSH1 0x0 DUP1 PUSH1 0x60 DUP6 DUP8 SUB SLT ISZERO PUSH2 0x50E JUMPI PUSH2 0x50D PUSH2 0x39A JUMP JUMPDEST JUMPDEST PUSH1 0x0 PUSH2 0x51C DUP8 DUP3 DUP9 ADD PUSH2 0x47A JUMP JUMPDEST SWAP5 POP POP PUSH1 0x20 PUSH2 0x52D DUP8 DUP3 DUP9 ADD PUSH2 0x3ED JUMP JUMPDEST SWAP4 POP POP PUSH1 0x40 DUP6 ADD CALLDATALOAD PUSH8 0xFFFFFFFFFFFFFFFF DUP2 GT ISZERO PUSH2 0x54E JUMPI PUSH2 0x54D PUSH2 0x39F JUMP JUMPDEST JUMPDEST PUSH2 0x55A DUP8 DUP3 DUP9 ADD PUSH2 0x49E JUMP JUMPDEST SWAP3 POP SWAP3 POP POP SWAP3 SWAP6 SWAP2 SWAP5 POP SWAP3 POP JUMP JUMPDEST PUSH1 0x0 PUSH1 0x20 DUP3 DUP5 SUB SLT ISZERO PUSH2 0x57E JUMPI PUSH2 0x57D PUSH2 0x39A JUMP JUMPDEST JUMPDEST PUSH1 0x0 PUSH2 0x58C DUP5 DUP3 DUP6 ADD PUSH2 0x47A JUMP JUMPDEST SWAP2 POP POP SWAP3 SWAP2 POP POP JUMP JUMPDEST PUSH1 0x0 DUP3 DUP3 MSTORE PUSH1 0x20 DUP3 ADD SWAP1 POP SWAP3 SWAP2 POP POP JUMP JUMPDEST PUSH32 0x626F72726F7720616D6F756E74203E2062616C616E6365000000000000000000 PUSH1 0x0 DUP3 ADD MSTORE POP JUMP JUMPDEST PUSH1 0x0 PUSH2 0x5DC PUSH1 0x17 DUP4 PUSH2 0x595 JUMP JUMPDEST SWAP2 POP PUSH2 0x5E7 DUP3 PUSH2 0x5A6 JUMP JUMPDEST PUSH1 0x20 DUP3 ADD SWAP1 POP SWAP2 SWAP1 POP JUMP JUMPDEST PUSH1 0x0 PUSH1 0x20 DUP3 ADD SWAP1 POP DUP2 DUP2 SUB PUSH1 0x0 DUP4 ADD MSTORE PUSH2 0x60B DUP2 PUSH2 0x5CF JUMP JUMPDEST SWAP1 POP SWAP2 SWAP1 POP JUMP JUMPDEST PUSH1 0x0 DUP2 SWAP1 POP SWAP3 SWAP2 POP POP JUMP JUMPDEST DUP3 DUP2 DUP4 CALLDATACOPY PUSH1 0x0 DUP4 DUP4 ADD MSTORE POP POP POP JUMP JUMPDEST PUSH1 0x0 PUSH2 0x638 DUP4 DUP6 PUSH2 0x612 JUMP JUMPDEST SWAP4 POP PUSH2 0x645 DUP4 DUP6 DUP5 PUSH2 0x61D JUMP JUMPDEST DUP3 DUP5 ADD SWAP1 POP SWAP4 SWAP3 POP POP POP JUMP JUMPDEST PUSH1 0x0 PUSH2 0x65E DUP3 DUP5 DUP7 PUSH2 0x62C JUMP JUMPDEST SWAP2 POP DUP2 SWAP1 POP SWAP4 SWAP3 POP POP POP JUMP JUMPDEST PUSH32 0x6C6F616E206661696C6564000000000000000000000000000000000000000000 PUSH1 0x0 DUP3 ADD MSTORE POP JUMP JUMPDEST PUSH1 0x0 PUSH2 0x6A0 PUSH1 0xB DUP4 PUSH2 0x595 JUMP JUMPDEST SWAP2 POP PUSH2 0x6AB DUP3 PUSH2 0x66A JUMP JUMPDEST PUSH1 0x20 DUP3 ADD SWAP1 POP SWAP2 SWAP1 POP JUMP JUMPDEST PUSH1 0x0 PUSH1 0x20 DUP3 ADD SWAP1 POP DUP2 DUP2 SUB PUSH1 0x0 DUP4 ADD MSTORE PUSH2 0x6CF DUP2 PUSH2 0x693 JUMP JUMPDEST SWAP1 POP SWAP2 SWAP1 POP JUMP JUMPDEST PUSH32 0x62616C616E6365206166746572203C206265666F726500000000000000000000 PUSH1 0x0 DUP3 ADD MSTORE POP JUMP JUMPDEST PUSH1 0x0 PUSH2 0x70C PUSH1 0x16 DUP4 PUSH2 0x595 JUMP JUMPDEST SWAP2 POP PUSH2 0x717 DUP3 PUSH2 0x6D6 JUMP JUMPDEST PUSH1 0x20 DUP3 ADD SWAP1 POP SWAP2 SWAP1 POP JUMP JUMPDEST PUSH1 0x0 PUSH1 0x20 DUP3 ADD SWAP1 POP DUP2 DUP2 SUB PUSH1 0x0 DUP4 ADD MSTORE PUSH2 0x73B DUP2 PUSH2 0x6FF JUMP JUMPDEST SWAP1 POP SWAP2 SWAP1 POP JUMP JUMPDEST PUSH32 0x4E487B7100000000000000000000000000000000000000000000000000000000 PUSH1 0x0 MSTORE PUSH1 0x11 PUSH1 0x4 MSTORE PUSH1 0x24 PUSH1 0x0 REVERT JUMPDEST PUSH1 0x0 PUSH2 0x77C DUP3 PUSH2 0x42F JUMP JUMPDEST SWAP2 POP PUSH2 0x787 DUP4 PUSH2 0x42F JUMP JUMPDEST SWAP3 POP DUP3 DUP3 SUB SWAP1 POP DUP2 DUP2 GT ISZERO PUSH2 0x79F JUMPI PUSH2 0x79E PUSH2 0x742 JUMP JUMPDEST JUMPDEST SWAP3 SWAP2 POP POP JUMP JUMPDEST POP JUMP JUMPDEST PUSH1 0x0 PUSH2 0x7B5 PUSH1 0x0 DUP4 PUSH2 0x612 JUMP JUMPDEST SWAP2 POP PUSH2 0x7C0 DUP3 PUSH2 0x7A5 JUMP JUMPDEST PUSH1 0x0 DUP3 ADD SWAP1 POP SWAP2 SWAP1 POP JUMP JUMPDEST PUSH1 0x0 PUSH2 0x7D6 DUP3 PUSH2 0x7A8 JUMP JUMPDEST SWAP2 POP DUP2 SWAP1 POP SWAP2 SWAP1 POP JUMP JUMPDEST PUSH32 0x73656E6420455448206661696C65640000000000000000000000000000000000 PUSH1 0x0 DUP3 ADD MSTORE POP JUMP JUMPDEST PUSH1 0x0 PUSH2 0x816 PUSH1 0xF DUP4 PUSH2 0x595 JUMP JUMPDEST SWAP2 POP PUSH2 0x821 DUP3 PUSH2 0x7E0 JUMP JUMPDEST PUSH1 0x20 DUP3 ADD SWAP1 POP SWAP2 SWAP1 POP JUMP JUMPDEST PUSH1 0x0 PUSH1 0x20 DUP3 ADD SWAP1 POP DUP2 DUP2 SUB PUSH1 0x0 DUP4 ADD MSTORE PUSH2 0x845 DUP2 PUSH2 0x809 JUMP JUMPDEST SWAP1 POP SWAP2 SWAP1 POP JUMP JUMPDEST PUSH1 0x0 PUSH2 0x857 DUP3 PUSH2 0x42F JUMP JUMPDEST SWAP2 POP PUSH2 0x862 DUP4 PUSH2 0x42F JUMP JUMPDEST SWAP3 POP DUP3 DUP3 ADD SWAP1 POP DUP1 DUP3 GT ISZERO PUSH2 0x87A JUMPI PUSH2 0x879 PUSH2 0x742 JUMP JUMPDEST JUMPDEST SWAP3 SWAP2 POP POP JUMP INVALID LOG2 PUSH5 0x6970667358 0x22 SLT KECCAK256 PUSH7 0x547F40956693F9 PUSH2 0x81C5 SWAP11 0xB2 0xC4 0x2F SWAP4 0xEF 0xEF 0xF8 0xE6 LOG4 0x4F 0xEB BYTE DUP13 EQ 0xE3 PUSH17 0x513CF4CE64736F6C634300081100330000 "},"methodIdentifiers":{"balances(address)":"27e235e3","deposit()":"d0e30db0","flashLoan(uint256,address,bytes)":"2bd94e9c","withdraw(uint256)":"2e1a7d4d"}}}}}