{
  "_format": "hh-sol-artifact-1",
  "contractName": "TodoList",
  "sourceName": "contracts/todo_list.sol",
  "abi": [
    {
      "inputs": [
        {
          "internalType": "string",
          "name": "_text",
          "type": "string"
        }
      ],
      "name": "create",
      "outputs": [],
      "stateMutability": "nonpayable",
      "type": "function"
    },
    {
      "inputs": [
        {
          "internalType": "uint256",
          "name": "_index",
          "type": "uint256"
        }
      ],
      "name": "get",
      "outputs": [
        {
          "internalType": "string",
          "name": "",
          "type": "string"
        },
        {
          "internalType": "bool",
          "name": "",
          "type": "bool"
        }
      ],
      "stateMutability": "view",
      "type": "function"
    },
    {
      "inputs": [
        {
          "internalType": "uint256",
          "name": "",
          "type": "uint256"
        }
      ],
      "name": "todos",
      "outputs": [
        {
          "internalType": "string",
          "name": "text",
          "type": "string"
        },
        {
          "internalType": "bool",
          "name": "completed",
          "type": "bool"
        }
      ],
      "stateMutability": "view",
      "type": "function"
    },
    {
      "inputs": [
        {
          "internalType": "uint256",
          "name": "_index",
          "type": "uint256"
        }
      ],
      "name": "toggleCompleted",
      "outputs": [],
      "stateMutability": "nonpayable",
      "type": "function"
    },
    {
      "inputs": [
        {
          "internalType": "uint256",
          "name": "_index",
          "type": "uint256"
        },
        {
          "internalType": "string",
          "name": "_text",
          "type": "string"
        }
      ],
      "name": "updateText",
      "outputs": [],
      "stateMutability": "nonpayable",
      "type": "function"
    }
  ],
  "bytecode": "0x608060405234801561001057600080fd5b50610ae7806100206000396000f3fe608060405234801561001057600080fd5b50600436106100575760003560e01c8063455f50241461005c5780639507d39a14610078578063b6a46b3b146100a9578063bc8bc2b4146100c5578063cd111614146100f6575b600080fd5b61007660048036038101906100719190610480565b610112565b005b610092600480360381019061008d9190610480565b610185565b6040516100a0929190610558565b60405180910390f35b6100c360048036038101906100be91906105ed565b61027a565b005b6100df60048036038101906100da9190610480565b61033d565b6040516100ed929190610558565b60405180910390f35b610110600480360381019061010b919061063a565b610406565b005b600081815481106101265761012561069a565b5b906000526020600020906002020160010160009054906101000a900460ff16156000828154811061015a5761015961069a565b5b906000526020600020906002020160010160006101000a81548160ff02191690831515021790555050565b60606000806000848154811061019e5761019d61069a565b5b90600052602060002090600202016040518060400160405290816000820180546101c7906106f8565b80601f01602080910402602001604051908101604052809291908181526020018280546101f3906106f8565b80156102405780601f1061021557610100808354040283529160200191610240565b820191906000526020600020905b81548152906001019060200180831161022357829003601f168201915b505050505081526020016001820160009054906101000a900460ff1615151515815250509050806000015181602001519250925050915091565b6000604051806040016040528084848080601f016020809104026020016040519081016040528093929190818152602001838380828437600081840152601f19601f82011690508083019250505050505050815260200160001515815250908060018154018082558091505060019003906000526020600020906002020160009091909190915060008201518160000190816103169190610904565b5060208201518160010160006101000a81548160ff02191690831515021790555050505050565b6000818154811061034d57600080fd5b9060005260206000209060020201600091509050806000018054610370906106f8565b80601f016020809104026020016040519081016040528092919081815260200182805461039c906106f8565b80156103e95780601f106103be576101008083540402835291602001916103e9565b820191906000526020600020905b8154815290600101906020018083116103cc57829003601f168201915b5050505050908060010160009054906101000a900460ff16905082565b81816000858154811061041c5761041b61069a565b5b9060005260206000209060020201600001918261043a9291906109e1565b50505050565b600080fd5b600080fd5b6000819050919050565b61045d8161044a565b811461046857600080fd5b50565b60008135905061047a81610454565b92915050565b60006020828403121561049657610495610440565b5b60006104a48482850161046b565b91505092915050565b600081519050919050565b600082825260208201905092915050565b60005b838110156104e75780820151818401526020810190506104cc565b60008484015250505050565b6000601f19601f8301169050919050565b600061050f826104ad565b61051981856104b8565b93506105298185602086016104c9565b610532816104f3565b840191505092915050565b60008115159050919050565b6105528161053d565b82525050565b600060408201905081810360008301526105728185610504565b90506105816020830184610549565b9392505050565b600080fd5b600080fd5b600080fd5b60008083601f8401126105ad576105ac610588565b5b8235905067ffffffffffffffff8111156105ca576105c961058d565b5b6020830191508360018202830111156105e6576105e5610592565b5b9250929050565b6000806020838503121561060457610603610440565b5b600083013567ffffffffffffffff81111561062257610621610445565b5b61062e85828601610597565b92509250509250929050565b60008060006040848603121561065357610652610440565b5b60006106618682870161046b565b935050602084013567ffffffffffffffff81111561068257610681610445565b5b61068e86828701610597565b92509250509250925092565b7f4e487b7100000000000000000000000000000000000000000000000000000000600052603260045260246000fd5b7f4e487b7100000000000000000000000000000000000000000000000000000000600052602260045260246000fd5b6000600282049050600182168061071057607f821691505b602082108103610723576107226106c9565b5b50919050565b7f4e487b7100000000000000000000000000000000000000000000000000000000600052604160045260246000fd5b60008190508160005260206000209050919050565b60006020601f8301049050919050565b600082821b905092915050565b6000600883026107ba7fffffffffffffffffffffffffffffffffffffffffffffffffffffffffffffffff8261077d565b6107c4868361077d565b95508019841693508086168417925050509392505050565b6000819050919050565b60006108016107fc6107f78461044a565b6107dc565b61044a565b9050919050565b6000819050919050565b61081b836107e6565b61082f61082782610808565b84845461078a565b825550505050565b600090565b610844610837565b61084f818484610812565b505050565b5b818110156108735761086860008261083c565b600181019050610855565b5050565b601f8211156108b85761088981610758565b6108928461076d565b810160208510156108a1578190505b6108b56108ad8561076d565b830182610854565b50505b505050565b600082821c905092915050565b60006108db600019846008026108bd565b1980831691505092915050565b60006108f483836108ca565b9150826002028217905092915050565b61090d826104ad565b67ffffffffffffffff81111561092657610925610729565b5b61093082546106f8565b61093b828285610877565b600060209050601f83116001811461096e576000841561095c578287015190505b61096685826108e8565b8655506109ce565b601f19841661097c86610758565b60005b828110156109a45784890151825560018201915060208501945060208101905061097f565b868310156109c157848901516109bd601f8916826108ca565b8355505b6001600288020188555050505b505050505050565b600082905092915050565b6109eb83836109d6565b67ffffffffffffffff811115610a0457610a03610729565b5b610a0e82546106f8565b610a19828285610877565b6000601f831160018114610a485760008415610a36578287013590505b610a4085826108e8565b865550610aa8565b601f198416610a5686610758565b60005b82811015610a7e57848901358255600182019150602085019450602081019050610a59565b86831015610a9b5784890135610a97601f8916826108ca565b8355505b6001600288020188555050505b5050505050505056fea26469706673582212209e0900748e199a35409fda0b1ce68729b1e6ab1f5b6fac3991ce29d49f928a5264736f6c63430008110033",
  "linkReferences": {},
  "deployedLinkReferences": {}
}