{
  "_format": "hh-sol-artifact-1",
  "contractName": "EthLendingPool",
  "sourceName": "contracts/lending_pool.sol",
  "abi": [
    {
      "inputs": [
        {
          "internalType": "address",
          "name": "",
          "type": "address"
        }
      ],
      "name": "balances",
      "outputs": [
        {
          "internalType": "uint256",
          "name": "",
          "type": "uint256"
        }
      ],
      "stateMutability": "view",
      "type": "function"
    },
    {
      "inputs": [],
      "name": "deposit",
      "outputs": [],
      "stateMutability": "payable",
      "type": "function"
    },
    {
      "inputs": [
        {
          "internalType": "uint256",
          "name": "_amount",
          "type": "uint256"
        },
        {
          "internalType": "address",
          "name": "_target",
          "type": "address"
        },
        {
          "internalType": "bytes",
          "name": "_data",
          "type": "bytes"
        }
      ],
      "name": "flashLoan",
      "outputs": [],
      "stateMutability": "nonpayable",
      "type": "function"
    },
    {
      "inputs": [
        {
          "internalType": "uint256",
          "name": "_amount",
          "type": "uint256"
        }
      ],
      "name": "withdraw",
      "outputs": [],
      "stateMutability": "nonpayable",
      "type": "function"
    },
    {
      "stateMutability": "payable",
      "type": "receive"
    }
  ],
  "bytecode": "0x608060405234801561001057600080fd5b506108c1806100206000396000f3fe6080604052600436106100435760003560e01c806327e235e31461004f5780632bd94e9c1461008c5780632e1a7d4d146100b5578063d0e30db0146100de5761004a565b3661004a57005b600080fd5b34801561005b57600080fd5b506100766004803603810190610071919061040d565b6100e8565b6040516100839190610453565b60405180910390f35b34801561009857600080fd5b506100b360048036038101906100ae91906104ff565b610100565b005b3480156100c157600080fd5b506100dc60048036038101906100d79190610573565b610249565b005b6100e661034e565b005b60006020528060005260406000206000915090505481565b600047905084811015610148576040517f08c379a000000000000000000000000000000000000000000000000000000000815260040161013f906105fd565b60405180910390fd5b60008473ffffffffffffffffffffffffffffffffffffffff1686858560405161017292919061065c565b60006040518083038185875af1925050503d80600081146101af576040519150601f19603f3d011682016040523d82523d6000602084013e6101b4565b606091505b50509050806101f8576040517f08c379a00000000000000000000000000000000000000000000000000000000081526004016101ef906106c1565b60405180910390fd5b600047905082811015610240576040517f08c379a00000000000000000000000000000000000000000000000000000000081526004016102379061072d565b60405180910390fd5b50505050505050565b806000803373ffffffffffffffffffffffffffffffffffffffff1673ffffffffffffffffffffffffffffffffffffffff1681526020019081526020016000206000828254610297919061077c565b9250508190555060003373ffffffffffffffffffffffffffffffffffffffff16826040516102c4906107d6565b60006040518083038185875af1925050503d8060008114610301576040519150601f19603f3d011682016040523d82523d6000602084013e610306565b606091505b505090508061034a576040517f08c379a000000000000000000000000000000000000000000000000000000000815260040161034190610837565b60405180910390fd5b5050565b346000803373ffffffffffffffffffffffffffffffffffffffff1673ffffffffffffffffffffffffffffffffffffffff168152602001908152602001600020600082825461039c9190610857565b92505081905550565b600080fd5b600080fd5b600073ffffffffffffffffffffffffffffffffffffffff82169050919050565b60006103da826103af565b9050919050565b6103ea816103cf565b81146103f557600080fd5b50565b600081359050610407816103e1565b92915050565b600060208284031215610423576104226103a5565b5b6000610431848285016103f8565b91505092915050565b6000819050919050565b61044d8161043a565b82525050565b60006020820190506104686000830184610444565b92915050565b6104778161043a565b811461048257600080fd5b50565b6000813590506104948161046e565b92915050565b600080fd5b600080fd5b600080fd5b60008083601f8401126104bf576104be61049a565b5b8235905067ffffffffffffffff8111156104dc576104db61049f565b5b6020830191508360018202830111156104f8576104f76104a4565b5b9250929050565b60008060008060608587031215610519576105186103a5565b5b600061052787828801610485565b9450506020610538878288016103f8565b935050604085013567ffffffffffffffff811115610559576105586103aa565b5b610565878288016104a9565b925092505092959194509250565b600060208284031215610589576105886103a5565b5b600061059784828501610485565b91505092915050565b600082825260208201905092915050565b7f626f72726f7720616d6f756e74203e2062616c616e6365000000000000000000600082015250565b60006105e76017836105a0565b91506105f2826105b1565b602082019050919050565b60006020820190508181036000830152610616816105da565b9050919050565b600081905092915050565b82818337600083830152505050565b6000610643838561061d565b9350610650838584610628565b82840190509392505050565b6000610669828486610637565b91508190509392505050565b7f6c6f616e206661696c6564000000000000000000000000000000000000000000600082015250565b60006106ab600b836105a0565b91506106b682610675565b602082019050919050565b600060208201905081810360008301526106da8161069e565b9050919050565b7f62616c616e6365206166746572203c206265666f726500000000000000000000600082015250565b60006107176016836105a0565b9150610722826106e1565b602082019050919050565b600060208201905081810360008301526107468161070a565b9050919050565b7f4e487b7100000000000000000000000000000000000000000000000000000000600052601160045260246000fd5b60006107878261043a565b91506107928361043a565b92508282039050818111156107aa576107a961074d565b5b92915050565b50565b60006107c060008361061d565b91506107cb826107b0565b600082019050919050565b60006107e1826107b3565b9150819050919050565b7f73656e6420455448206661696c65640000000000000000000000000000000000600082015250565b6000610821600f836105a0565b915061082c826107eb565b602082019050919050565b6000602082019050818103600083015261085081610814565b9050919050565b60006108628261043a565b915061086d8361043a565b92508282019050808211156108855761088461074d565b5b9291505056fea26469706673582212207d4f5fc1127926bc0b86fff570529f37102f03de4163b2b8f7eafca4cb233dad64736f6c63430008110033",
  "linkReferences": {},
  "deployedLinkReferences": {}
}