{"contracts/randomness.sol":{"RandomNumber":{"abi":[{"inputs":[],"stateMutability":"nonpayable","type":"constructor"},{"inputs":[],"name":"getRandomNumber","outputs":[{"internalType":"bytes32","name":"requestId","type":"bytes32"}],"stateMutability":"nonpayable","type":"function"},{"inputs":[],"name":"randomResult","outputs":[{"internalType":"uint256","name":"","type":"uint256"}],"stateMutability":"view","type":"function"},{"inputs":[{"internalType":"bytes32","name":"requestId","type":"bytes32"},{"internalType":"uint256","name":"randomness","type":"uint256"}],"name":"rawFulfillRandomness","outputs":[],"stateMutability":"nonpayable","type":"function"}],"evm":{"bytecode":{"linkReferences":{},"object":"60c060405234801561001057600080fd5b50738c7382f9d8f56b33781fe506e897a4f1e2d1725573326c977e6efc84e512bb9c30f76e30c160ed06fb8173ffffffffffffffffffffffffffffffffffffffff1660a08173ffffffffffffffffffffffffffffffffffffffff16815250508073ffffffffffffffffffffffffffffffffffffffff1660808173ffffffffffffffffffffffffffffffffffffffff168152505050507f6e75b569a01ef56d18cab6a8e71e6600d6ce853834d4a5748b720d06f878b3a460001b600181905550655af3107a400060028190555060805160a0516109c261010e6000396000818160a60152610289015260008181610147015261024d01526109c26000f3fe608060405234801561001057600080fd5b50600436106100415760003560e01c806342619f661461004657806394985ddd14610064578063dbdff2c114610080575b600080fd5b61004e61009e565b60405161005b9190610421565b60405180910390f35b61007e600480360381019061007991906104a3565b6100a4565b005b610088610140565b60405161009591906104f2565b60405180910390f35b60035481565b7f000000000000000000000000000000000000000000000000000000000000000073ffffffffffffffffffffffffffffffffffffffff163373ffffffffffffffffffffffffffffffffffffffff1614610132576040517f08c379a00000000000000000000000000000000000000000000000000000000081526004016101299061056a565b60405180910390fd5b61013c8282610232565b5050565b60006002547f000000000000000000000000000000000000000000000000000000000000000073ffffffffffffffffffffffffffffffffffffffff166370a08231306040518263ffffffff1660e01b815260040161019e91906105cb565b602060405180830381865afa1580156101bb573d6000803e3d6000fd5b505050506040513d601f19601f820116820180604052508101906101df91906105fb565b1161021f576040517f08c379a00000000000000000000000000000000000000000000000000000000081526004016102169061069a565b60405180910390fd5b61022d600154600254610249565b905090565b600a8161023f91906106e9565b6003819055505050565b60007f000000000000000000000000000000000000000000000000000000000000000073ffffffffffffffffffffffffffffffffffffffff16634000aea07f0000000000000000000000000000000000000000000000000000000000000000848660006040516020016102bd92919061071a565b6040516020818303038152906040526040518463ffffffff1660e01b81526004016102ea939291906107d3565b6020604051808303816000875af1158015610309573d6000803e3d6000fd5b505050506040513d601f19601f8201168201806040525081019061032d9190610849565b50600061034f8460003060008089815260200190815260200160002054610399565b905060016000808681526020019081526020016000205461037091906108a5565b6000808681526020019081526020016000208190555061039084826103d5565b91505092915050565b6000848484846040516020016103b294939291906108d9565b6040516020818303038152906040528051906020012060001c9050949350505050565b600082826040516020016103ea929190610960565b60405160208183030381529060405280519060200120905092915050565b6000819050919050565b61041b81610408565b82525050565b60006020820190506104366000830184610412565b92915050565b600080fd5b6000819050919050565b61045481610441565b811461045f57600080fd5b50565b6000813590506104718161044b565b92915050565b61048081610408565b811461048b57600080fd5b50565b60008135905061049d81610477565b92915050565b600080604083850312156104ba576104b961043c565b5b60006104c885828601610462565b92505060206104d98582860161048e565b9150509250929050565b6104ec81610441565b82525050565b600060208201905061050760008301846104e3565b92915050565b600082825260208201905092915050565b7f4f6e6c7920565246436f6f7264696e61746f722063616e2066756c66696c6c00600082015250565b6000610554601f8361050d565b915061055f8261051e565b602082019050919050565b6000602082019050818103600083015261058381610547565b9050919050565b600073ffffffffffffffffffffffffffffffffffffffff82169050919050565b60006105b58261058a565b9050919050565b6105c5816105aa565b82525050565b60006020820190506105e060008301846105bc565b92915050565b6000815190506105f581610477565b92915050565b6000602082840312156106115761061061043c565b5b600061061f848285016105e6565b91505092915050565b7f4e6f7420656e6f756768204c494e4b202d2066696c6c20636f6e74726163742060008201527f7769746820666175636574000000000000000000000000000000000000000000602082015250565b6000610684602b8361050d565b915061068f82610628565b604082019050919050565b600060208201905081810360008301526106b381610677565b9050919050565b7f4e487b7100000000000000000000000000000000000000000000000000000000600052601260045260246000fd5b60006106f482610408565b91506106ff83610408565b92508261070f5761070e6106ba565b5b828206905092915050565b600060408201905061072f60008301856104e3565b61073c6020830184610412565b9392505050565b600081519050919050565b600082825260208201905092915050565b60005b8381101561077d578082015181840152602081019050610762565b60008484015250505050565b6000601f19601f8301169050919050565b60006107a582610743565b6107af818561074e565b93506107bf81856020860161075f565b6107c881610789565b840191505092915050565b60006060820190506107e860008301866105bc565b6107f56020830185610412565b8181036040830152610807818461079a565b9050949350505050565b60008115159050919050565b61082681610811565b811461083157600080fd5b50565b6000815190506108438161081d565b92915050565b60006020828403121561085f5761085e61043c565b5b600061086d84828501610834565b91505092915050565b7f4e487b7100000000000000000000000000000000000000000000000000000000600052601160045260246000fd5b60006108b082610408565b91506108bb83610408565b92508282019050808211156108d3576108d2610876565b5b92915050565b60006080820190506108ee60008301876104e3565b6108fb6020830186610412565b61090860408301856105bc565b6109156060830184610412565b95945050505050565b6000819050919050565b61093961093482610441565b61091e565b82525050565b6000819050919050565b61095a61095582610408565b61093f565b82525050565b600061096c8285610928565b60208201915061097c8284610949565b602082019150819050939250505056fea264697066735822122081668e82831e2ae1018e1411989411cc75b366f2ca53977f0b277f07a5c42a0964736f6c63430008110033","opcodes":"PUSH1 0xC0 PUSH1 0x40 MSTORE CALLVALUE DUP1 ISZERO PUSH2 0x10 JUMPI PUSH1 0x0 DUP1 REVERT JUMPDEST POP PUSH20 0x8C7382F9D8F56B33781FE506E897A4F1E2D17255 PUSH20 0x326C977E6EFC84E512BB9C30F76E30C160ED06FB DUP2 PUSH20 0xFFFFFFFFFFFFFFFFFFFFFFFFFFFFFFFFFFFFFFFF AND PUSH1 0xA0 DUP2 PUSH20 0xFFFFFFFFFFFFFFFFFFFFFFFFFFFFFFFFFFFFFFFF AND DUP2 MSTORE POP POP DUP1 PUSH20 0xFFFFFFFFFFFFFFFFFFFFFFFFFFFFFFFFFFFFFFFF AND PUSH1 0x80 DUP2 PUSH20 0xFFFFFFFFFFFFFFFFFFFFFFFFFFFFFFFFFFFFFFFF AND DUP2 MSTORE POP POP POP POP PUSH32 0x6E75B569A01EF56D18CAB6A8E71E6600D6CE853834D4A5748B720D06F878B3A4 PUSH1 0x0 SHL PUSH1 0x1 DUP2 SWAP1 SSTORE POP PUSH6 0x5AF3107A4000 PUSH1 0x2 DUP2 SWAP1 SSTORE POP PUSH1 0x80 MLOAD PUSH1 0xA0 MLOAD PUSH2 0x9C2 PUSH2 0x10E PUSH1 0x0 CODECOPY PUSH1 0x0 DUP2 DUP2 PUSH1 0xA6 ADD MSTORE PUSH2 0x289 ADD MSTORE PUSH1 0x0 DUP2 DUP2 PUSH2 0x147 ADD MSTORE PUSH2 0x24D ADD MSTORE PUSH2 0x9C2 PUSH1 0x0 RETURN INVALID PUSH1 0x80 PUSH1 0x40 MSTORE CALLVALUE DUP1 ISZERO PUSH2 0x10 JUMPI PUSH1 0x0 DUP1 REVERT JUMPDEST POP PUSH1 0x4 CALLDATASIZE LT PUSH2 0x41 JUMPI PUSH1 0x0 CALLDATALOAD PUSH1 0xE0 SHR DUP1 PUSH4 0x42619F66 EQ PUSH2 0x46 JUMPI DUP1 PUSH4 0x94985DDD EQ PUSH2 0x64 JUMPI DUP1 PUSH4 0xDBDFF2C1 EQ PUSH2 0x80 JUMPI JUMPDEST PUSH1 0x0 DUP1 REVERT JUMPDEST PUSH2 0x4E PUSH2 0x9E JUMP JUMPDEST PUSH1 0x40 MLOAD PUSH2 0x5B SWAP2 SWAP1 PUSH2 0x421 JUMP JUMPDEST PUSH1 0x40 MLOAD DUP1 SWAP2 SUB SWAP1 RETURN JUMPDEST PUSH2 0x7E PUSH1 0x4 DUP1 CALLDATASIZE SUB DUP2 ADD SWAP1 PUSH2 0x79 SWAP2 SWAP1 PUSH2 0x4A3 JUMP JUMPDEST PUSH2 0xA4 JUMP JUMPDEST STOP JUMPDEST PUSH2 0x88 PUSH2 0x140 JUMP JUMPDEST PUSH1 0x40 MLOAD PUSH2 0x95 SWAP2 SWAP1 PUSH2 0x4F2 JUMP JUMPDEST PUSH1 0x40 MLOAD DUP1 SWAP2 SUB SWAP1 RETURN JUMPDEST PUSH1 0x3 SLOAD DUP2 JUMP JUMPDEST PUSH32 0x0 PUSH20 0xFFFFFFFFFFFFFFFFFFFFFFFFFFFFFFFFFFFFFFFF AND CALLER PUSH20 0xFFFFFFFFFFFFFFFFFFFFFFFFFFFFFFFFFFFFFFFF AND EQ PUSH2 0x132 JUMPI PUSH1 0x40 MLOAD PUSH32 0x8C379A000000000000000000000000000000000000000000000000000000000 DUP2 MSTORE PUSH1 0x4 ADD PUSH2 0x129 SWAP1 PUSH2 0x56A JUMP JUMPDEST PUSH1 0x40 MLOAD DUP1 SWAP2 SUB SWAP1 REVERT JUMPDEST PUSH2 0x13C DUP3 DUP3 PUSH2 0x232 JUMP JUMPDEST POP POP JUMP JUMPDEST PUSH1 0x0 PUSH1 0x2 SLOAD PUSH32 0x0 PUSH20 0xFFFFFFFFFFFFFFFFFFFFFFFFFFFFFFFFFFFFFFFF AND PUSH4 0x70A08231 ADDRESS PUSH1 0x40 MLOAD DUP3 PUSH4 0xFFFFFFFF AND PUSH1 0xE0 SHL DUP2 MSTORE PUSH1 0x4 ADD PUSH2 0x19E SWAP2 SWAP1 PUSH2 0x5CB JUMP JUMPDEST PUSH1 0x20 PUSH1 0x40 MLOAD DUP1 DUP4 SUB DUP2 DUP7 GAS STATICCALL ISZERO DUP1 ISZERO PUSH2 0x1BB JUMPI RETURNDATASIZE PUSH1 0x0 DUP1 RETURNDATACOPY RETURNDATASIZE PUSH1 0x0 REVERT JUMPDEST POP POP POP POP PUSH1 0x40 MLOAD RETURNDATASIZE PUSH1 0x1F NOT PUSH1 0x1F DUP3 ADD AND DUP3 ADD DUP1 PUSH1 0x40 MSTORE POP DUP2 ADD SWAP1 PUSH2 0x1DF SWAP2 SWAP1 PUSH2 0x5FB JUMP JUMPDEST GT PUSH2 0x21F JUMPI PUSH1 0x40 MLOAD PUSH32 0x8C379A000000000000000000000000000000000000000000000000000000000 DUP2 MSTORE PUSH1 0x4 ADD PUSH2 0x216 SWAP1 PUSH2 0x69A JUMP JUMPDEST PUSH1 0x40 MLOAD DUP1 SWAP2 SUB SWAP1 REVERT JUMPDEST PUSH2 0x22D PUSH1 0x1 SLOAD PUSH1 0x2 SLOAD PUSH2 0x249 JUMP JUMPDEST SWAP1 POP SWAP1 JUMP JUMPDEST PUSH1 0xA DUP2 PUSH2 0x23F SWAP2 SWAP1 PUSH2 0x6E9 JUMP JUMPDEST PUSH1 0x3 DUP2 SWAP1 SSTORE POP POP POP JUMP JUMPDEST PUSH1 0x0 PUSH32 0x0 PUSH20 0xFFFFFFFFFFFFFFFFFFFFFFFFFFFFFFFFFFFFFFFF AND PUSH4 0x4000AEA0 PUSH32 0x0 DUP5 DUP7 PUSH1 0x0 PUSH1 0x40 MLOAD PUSH1 0x20 ADD PUSH2 0x2BD SWAP3 SWAP2 SWAP1 PUSH2 0x71A JUMP JUMPDEST PUSH1 0x40 MLOAD PUSH1 0x20 DUP2 DUP4 SUB SUB DUP2 MSTORE SWAP1 PUSH1 0x40 MSTORE PUSH1 0x40 MLOAD DUP5 PUSH4 0xFFFFFFFF AND PUSH1 0xE0 SHL DUP2 MSTORE PUSH1 0x4 ADD PUSH2 0x2EA SWAP4 SWAP3 SWAP2 SWAP1 PUSH2 0x7D3 JUMP JUMPDEST PUSH1 0x20 PUSH1 0x40 MLOAD DUP1 DUP4 SUB DUP2 PUSH1 0x0 DUP8 GAS CALL ISZERO DUP1 ISZERO PUSH2 0x309 JUMPI RETURNDATASIZE PUSH1 0x0 DUP1 RETURNDATACOPY RETURNDATASIZE PUSH1 0x0 REVERT JUMPDEST POP POP POP POP PUSH1 0x40 MLOAD RETURNDATASIZE PUSH1 0x1F NOT PUSH1 0x1F DUP3 ADD AND DUP3 ADD DUP1 PUSH1 0x40 MSTORE POP DUP2 ADD SWAP1 PUSH2 0x32D SWAP2 SWAP1 PUSH2 0x849 JUMP JUMPDEST POP PUSH1 0x0 PUSH2 0x34F DUP5 PUSH1 0x0 ADDRESS PUSH1 0x0 DUP1 DUP10 DUP2 MSTORE PUSH1 0x20 ADD SWAP1 DUP2 MSTORE PUSH1 0x20 ADD PUSH1 0x0 KECCAK256 SLOAD PUSH2 0x399 JUMP JUMPDEST SWAP1 POP PUSH1 0x1 PUSH1 0x0 DUP1 DUP7 DUP2 MSTORE PUSH1 0x20 ADD SWAP1 DUP2 MSTORE PUSH1 0x20 ADD PUSH1 0x0 KECCAK256 SLOAD PUSH2 0x370 SWAP2 SWAP1 PUSH2 0x8A5 JUMP JUMPDEST PUSH1 0x0 DUP1 DUP7 DUP2 MSTORE PUSH1 0x20 ADD SWAP1 DUP2 MSTORE PUSH1 0x20 ADD PUSH1 0x0 KECCAK256 DUP2 SWAP1 SSTORE POP PUSH2 0x390 DUP5 DUP3 PUSH2 0x3D5 JUMP JUMPDEST SWAP2 POP POP SWAP3 SWAP2 POP POP JUMP JUMPDEST PUSH1 0x0 DUP5 DUP5 DUP5 DUP5 PUSH1 0x40 MLOAD PUSH1 0x20 ADD PUSH2 0x3B2 SWAP5 SWAP4 SWAP3 SWAP2 SWAP1 PUSH2 0x8D9 JUMP JUMPDEST PUSH1 0x40 MLOAD PUSH1 0x20 DUP2 DUP4 SUB SUB DUP2 MSTORE SWAP1 PUSH1 0x40 MSTORE DUP1 MLOAD SWAP1 PUSH1 0x20 ADD KECCAK256 PUSH1 0x0 SHR SWAP1 POP SWAP5 SWAP4 POP POP POP POP JUMP JUMPDEST PUSH1 0x0 DUP3 DUP3 PUSH1 0x40 MLOAD PUSH1 0x20 ADD PUSH2 0x3EA SWAP3 SWAP2 SWAP1 PUSH2 0x960 JUMP JUMPDEST PUSH1 0x40 MLOAD PUSH1 0x20 DUP2 DUP4 SUB SUB DUP2 MSTORE SWAP1 PUSH1 0x40 MSTORE DUP1 MLOAD SWAP1 PUSH1 0x20 ADD KECCAK256 SWAP1 POP SWAP3 SWAP2 POP POP JUMP JUMPDEST PUSH1 0x0 DUP2 SWAP1 POP SWAP2 SWAP1 POP JUMP JUMPDEST PUSH2 0x41B DUP2 PUSH2 0x408 JUMP JUMPDEST DUP3 MSTORE POP POP JUMP JUMPDEST PUSH1 0x0 PUSH1 0x20 DUP3 ADD SWAP1 POP PUSH2 0x436 PUSH1 0x0 DUP4 ADD DUP5 PUSH2 0x412 JUMP JUMPDEST SWAP3 SWAP2 POP POP JUMP JUMPDEST PUSH1 0x0 DUP1 REVERT JUMPDEST PUSH1 0x0 DUP2 SWAP1 POP SWAP2 SWAP1 POP JUMP JUMPDEST PUSH2 0x454 DUP2 PUSH2 0x441 JUMP JUMPDEST DUP2 EQ PUSH2 0x45F JUMPI PUSH1 0x0 DUP1 REVERT JUMPDEST POP JUMP JUMPDEST PUSH1 0x0 DUP2 CALLDATALOAD SWAP1 POP PUSH2 0x471 DUP2 PUSH2 0x44B JUMP JUMPDEST SWAP3 SWAP2 POP POP JUMP JUMPDEST PUSH2 0x480 DUP2 PUSH2 0x408 JUMP JUMPDEST DUP2 EQ PUSH2 0x48B JUMPI PUSH1 0x0 DUP1 REVERT JUMPDEST POP JUMP JUMPDEST PUSH1 0x0 DUP2 CALLDATALOAD SWAP1 POP PUSH2 0x49D DUP2 PUSH2 0x477 JUMP JUMPDEST SWAP3 SWAP2 POP POP JUMP JUMPDEST PUSH1 0x0 DUP1 PUSH1 0x40 DUP4 DUP6 SUB SLT ISZERO PUSH2 0x4BA JUMPI PUSH2 0x4B9 PUSH2 0x43C JUMP JUMPDEST JUMPDEST PUSH1 0x0 PUSH2 0x4C8 DUP6 DUP3 DUP7 ADD PUSH2 0x462 JUMP JUMPDEST SWAP3 POP POP PUSH1 0x20 PUSH2 0x4D9 DUP6 DUP3 DUP7 ADD PUSH2 0x48E JUMP JUMPDEST SWAP2 POP POP SWAP3 POP SWAP3 SWAP1 POP JUMP JUMPDEST PUSH2 0x4EC DUP2 PUSH2 0x441 JUMP JUMPDEST DUP3 MSTORE POP POP JUMP JUMPDEST PUSH1 0x0 PUSH1 0x20 DUP3 ADD SWAP1 POP PUSH2 0x507 PUSH1 0x0 DUP4 ADD DUP5 PUSH2 0x4E3 JUMP JUMPDEST SWAP3 SWAP2 POP POP JUMP JUMPDEST PUSH1 0x0 DUP3 DUP3 MSTORE PUSH1 0x20 DUP3 ADD SWAP1 POP SWAP3 SWAP2 POP POP JUMP JUMPDEST PUSH32 0x4F6E6C7920565246436F6F7264696E61746F722063616E2066756C66696C6C00 PUSH1 0x0 DUP3 ADD MSTORE POP JUMP JUMPDEST PUSH1 0x0 PUSH2 0x554 PUSH1 0x1F DUP4 PUSH2 0x50D JUMP JUMPDEST SWAP2 POP PUSH2 0x55F DUP3 PUSH2 0x51E JUMP JUMPDEST PUSH1 0x20 DUP3 ADD SWAP1 POP SWAP2 SWAP1 POP JUMP JUMPDEST PUSH1 0x0 PUSH1 0x20 DUP3 ADD SWAP1 POP DUP2 DUP2 SUB PUSH1 0x0 DUP4 ADD MSTORE PUSH2 0x583 DUP2 PUSH2 0x547 JUMP JUMPDEST SWAP1 POP SWAP2 SWAP1 POP JUMP JUMPDEST PUSH1 0x0 PUSH20 0xFFFFFFFFFFFFFFFFFFFFFFFFFFFFFFFFFFFFFFFF DUP3 AND SWAP1 POP SWAP2 SWAP1 POP JUMP JUMPDEST PUSH1 0x0 PUSH2 0x5B5 DUP3 PUSH2 0x58A JUMP JUMPDEST SWAP1 POP SWAP2 SWAP1 POP JUMP JUMPDEST PUSH2 0x5C5 DUP2 PUSH2 0x5AA JUMP JUMPDEST DUP3 MSTORE POP POP JUMP JUMPDEST PUSH1 0x0 PUSH1 0x20 DUP3 ADD SWAP1 POP PUSH2 0x5E0 PUSH1 0x0 DUP4 ADD DUP5 PUSH2 0x5BC JUMP JUMPDEST SWAP3 SWAP2 POP POP JUMP JUMPDEST PUSH1 0x0 DUP2 MLOAD SWAP1 POP PUSH2 0x5F5 DUP2 PUSH2 0x477 JUMP JUMPDEST SWAP3 SWAP2 POP POP JUMP JUMPDEST PUSH1 0x0 PUSH1 0x20 DUP3 DUP5 SUB SLT ISZERO PUSH2 0x611 JUMPI PUSH2 0x610 PUSH2 0x43C JUMP JUMPDEST JUMPDEST PUSH1 0x0 PUSH2 0x61F DUP5 DUP3 DUP6 ADD PUSH2 0x5E6 JUMP JUMPDEST SWAP2 POP POP SWAP3 SWAP2 POP POP JUMP JUMPDEST PUSH32 0x4E6F7420656E6F756768204C494E4B202D2066696C6C20636F6E747261637420 PUSH1 0x0 DUP3 ADD MSTORE PUSH32 0x7769746820666175636574000000000000000000000000000000000000000000 PUSH1 0x20 DUP3 ADD MSTORE POP JUMP JUMPDEST PUSH1 0x0 PUSH2 0x684 PUSH1 0x2B DUP4 PUSH2 0x50D JUMP JUMPDEST SWAP2 POP PUSH2 0x68F DUP3 PUSH2 0x628 JUMP JUMPDEST PUSH1 0x40 DUP3 ADD SWAP1 POP SWAP2 SWAP1 POP JUMP JUMPDEST PUSH1 0x0 PUSH1 0x20 DUP3 ADD SWAP1 POP DUP2 DUP2 SUB PUSH1 0x0 DUP4 ADD MSTORE PUSH2 0x6B3 DUP2 PUSH2 0x677 JUMP JUMPDEST SWAP1 POP SWAP2 SWAP1 POP JUMP JUMPDEST PUSH32 0x4E487B7100000000000000000000000000000000000000000000000000000000 PUSH1 0x0 MSTORE PUSH1 0x12 PUSH1 0x4 MSTORE PUSH1 0x24 PUSH1 0x0 REVERT JUMPDEST PUSH1 0x0 PUSH2 0x6F4 DUP3 PUSH2 0x408 JUMP JUMPDEST SWAP2 POP PUSH2 0x6FF DUP4 PUSH2 0x408 JUMP JUMPDEST SWAP3 POP DUP3 PUSH2 0x70F JUMPI PUSH2 0x70E PUSH2 0x6BA JUMP JUMPDEST JUMPDEST DUP3 DUP3 MOD SWAP1 POP SWAP3 SWAP2 POP POP JUMP JUMPDEST PUSH1 0x0 PUSH1 0x40 DUP3 ADD SWAP1 POP PUSH2 0x72F PUSH1 0x0 DUP4 ADD DUP6 PUSH2 0x4E3 JUMP JUMPDEST PUSH2 0x73C PUSH1 0x20 DUP4 ADD DUP5 PUSH2 0x412 JUMP JUMPDEST SWAP4 SWAP3 POP POP POP JUMP JUMPDEST PUSH1 0x0 DUP2 MLOAD SWAP1 POP SWAP2 SWAP1 POP JUMP JUMPDEST PUSH1 0x0 DUP3 DUP3 MSTORE PUSH1 0x20 DUP3 ADD SWAP1 POP SWAP3 SWAP2 POP POP JUMP JUMPDEST PUSH1 0x0 JUMPDEST DUP4 DUP2 LT ISZERO PUSH2 0x77D JUMPI DUP1 DUP3 ADD MLOAD DUP2 DUP5 ADD MSTORE PUSH1 0x20 DUP2 ADD SWAP1 POP PUSH2 0x762 JUMP JUMPDEST PUSH1 0x0 DUP5 DUP5 ADD MSTORE POP POP POP POP JUMP JUMPDEST PUSH1 0x0 PUSH1 0x1F NOT PUSH1 0x1F DUP4 ADD AND SWAP1 POP SWAP2 SWAP1 POP JUMP JUMPDEST PUSH1 0x0 PUSH2 0x7A5 DUP3 PUSH2 0x743 JUMP JUMPDEST PUSH2 0x7AF DUP2 DUP6 PUSH2 0x74E JUMP JUMPDEST SWAP4 POP PUSH2 0x7BF DUP2 DUP6 PUSH1 0x20 DUP7 ADD PUSH2 0x75F JUMP JUMPDEST PUSH2 0x7C8 DUP2 PUSH2 0x789 JUMP JUMPDEST DUP5 ADD SWAP2 POP POP SWAP3 SWAP2 POP POP JUMP JUMPDEST PUSH1 0x0 PUSH1 0x60 DUP3 ADD SWAP1 POP PUSH2 0x7E8 PUSH1 0x0 DUP4 ADD DUP7 PUSH2 0x5BC JUMP JUMPDEST PUSH2 0x7F5 PUSH1 0x20 DUP4 ADD DUP6 PUSH2 0x412 JUMP JUMPDEST DUP2 DUP2 SUB PUSH1 0x40 DUP4 ADD MSTORE PUSH2 0x807 DUP2 DUP5 PUSH2 0x79A JUMP JUMPDEST SWAP1 POP SWAP5 SWAP4 POP POP POP POP JUMP JUMPDEST PUSH1 0x0 DUP2 ISZERO ISZERO SWAP1 POP SWAP2 SWAP1 POP JUMP JUMPDEST PUSH2 0x826 DUP2 PUSH2 0x811 JUMP JUMPDEST DUP2 EQ PUSH2 0x831 JUMPI PUSH1 0x0 DUP1 REVERT JUMPDEST POP JUMP JUMPDEST PUSH1 0x0 DUP2 MLOAD SWAP1 POP PUSH2 0x843 DUP2 PUSH2 0x81D JUMP JUMPDEST SWAP3 SWAP2 POP POP JUMP JUMPDEST PUSH1 0x0 PUSH1 0x20 DUP3 DUP5 SUB SLT ISZERO PUSH2 0x85F JUMPI PUSH2 0x85E PUSH2 0x43C JUMP JUMPDEST JUMPDEST PUSH1 0x0 PUSH2 0x86D DUP5 DUP3 DUP6 ADD PUSH2 0x834 JUMP JUMPDEST SWAP2 POP POP SWAP3 SWAP2 POP POP JUMP JUMPDEST PUSH32 0x4E487B7100000000000000000000000000000000000000000000000000000000 PUSH1 0x0 MSTORE PUSH1 0x11 PUSH1 0x4 MSTORE PUSH1 0x24 PUSH1 0x0 REVERT JUMPDEST PUSH1 0x0 PUSH2 0x8B0 DUP3 PUSH2 0x408 JUMP JUMPDEST SWAP2 POP PUSH2 0x8BB DUP4 PUSH2 0x408 JUMP JUMPDEST SWAP3 POP DUP3 DUP3 ADD SWAP1 POP DUP1 DUP3 GT ISZERO PUSH2 0x8D3 JUMPI PUSH2 0x8D2 PUSH2 0x876 JUMP JUMPDEST JUMPDEST SWAP3 SWAP2 POP POP JUMP JUMPDEST PUSH1 0x0 PUSH1 0x80 DUP3 ADD SWAP1 POP PUSH2 0x8EE PUSH1 0x0 DUP4 ADD DUP8 PUSH2 0x4E3 JUMP JUMPDEST PUSH2 0x8FB PUSH1 0x20 DUP4 ADD DUP7 PUSH2 0x412 JUMP JUMPDEST PUSH2 0x908 PUSH1 0x40 DUP4 ADD DUP6 PUSH2 0x5BC JUMP JUMPDEST PUSH2 0x915 PUSH1 0x60 DUP4 ADD DUP5 PUSH2 0x412 JUMP JUMPDEST SWAP6 SWAP5 POP POP POP POP POP JUMP JUMPDEST PUSH1 0x0 DUP2 SWAP1 POP SWAP2 SWAP1 POP JUMP JUMPDEST PUSH2 0x939 PUSH2 0x934 DUP3 PUSH2 0x441 JUMP JUMPDEST PUSH2 0x91E JUMP JUMPDEST DUP3 MSTORE POP POP JUMP JUMPDEST PUSH1 0x0 DUP2 SWAP1 POP SWAP2 SWAP1 POP JUMP JUMPDEST PUSH2 0x95A PUSH2 0x955 DUP3 PUSH2 0x408 JUMP JUMPDEST PUSH2 0x93F JUMP JUMPDEST DUP3 MSTORE POP POP JUMP JUMPDEST PUSH1 0x0 PUSH2 0x96C DUP3 DUP6 PUSH2 0x928 JUMP JUMPDEST PUSH1 0x20 DUP3 ADD SWAP2 POP PUSH2 0x97C DUP3 DUP5 PUSH2 0x949 JUMP JUMPDEST PUSH1 0x20 DUP3 ADD SWAP2 POP DUP2 SWAP1 POP SWAP4 SWAP3 POP POP POP JUMP INVALID LOG2 PUSH5 0x6970667358 0x22 SLT KECCAK256 DUP2 PUSH7 0x8E82831E2AE101 DUP15 EQ GT SWAP9 SWAP5 GT 0xCC PUSH22 0xB366F2CA53977F0B277F07A5C42A0964736F6C634300 ADDMOD GT STOP CALLER "},"methodIdentifiers":{"getRandomNumber()":"dbdff2c1","randomResult()":"42619f66","rawFulfillRandomness(bytes32,uint256)":"94985ddd"}}}}}