{
  "_format": "hh-sol-artifact-1",
  "contractName": "IterableMapping",
  "sourceName": "contracts/iterable_mapping.sol",
  "abi": [
    {
      "inputs": [
        {
          "internalType": "address",
          "name": "",
          "type": "address"
        }
      ],
      "name": "balances",
      "outputs": [
        {
          "internalType": "uint256",
          "name": "",
          "type": "uint256"
        }
      ],
      "stateMutability": "view",
      "type": "function"
    },
    {
      "inputs": [],
      "name": "first",
      "outputs": [
        {
          "internalType": "uint256",
          "name": "",
          "type": "uint256"
        }
      ],
      "stateMutability": "view",
      "type": "function"
    },
    {
      "inputs": [
        {
          "internalType": "uint256",
          "name": "_index",
          "type": "uint256"
        }
      ],
      "name": "get",
      "outputs": [
        {
          "internalType": "uint256",
          "name": "",
          "type": "uint256"
        }
      ],
      "stateMutability": "view",
      "type": "function"
    },
    {
      "inputs": [
        {
          "internalType": "address",
          "name": "",
          "type": "address"
        }
      ],
      "name": "inserted",
      "outputs": [
        {
          "internalType": "bool",
          "name": "",
          "type": "bool"
        }
      ],
      "stateMutability": "view",
      "type": "function"
    },
    {
      "inputs": [
        {
          "internalType": "uint256",
          "name": "",
          "type": "uint256"
        }
      ],
      "name": "keys",
      "outputs": [
        {
          "internalType": "address",
          "name": "",
          "type": "address"
        }
      ],
      "stateMutability": "view",
      "type": "function"
    },
    {
      "inputs": [],
      "name": "last",
      "outputs": [
        {
          "internalType": "uint256",
          "name": "",
          "type": "uint256"
        }
      ],
      "stateMutability": "view",
      "type": "function"
    },
    {
      "inputs": [
        {
          "internalType": "address",
          "name": "_addr",
          "type": "address"
        },
        {
          "internalType": "uint256",
          "name": "_bal",
          "type": "uint256"
        }
      ],
      "name": "set",
      "outputs": [],
      "stateMutability": "nonpayable",
      "type": "function"
    }
  ],
  "bytecode": "0x608060405234801561001057600080fd5b5061079e806100206000396000f3fe608060405234801561001057600080fd5b506004361061007d5760003560e01c80633df4ddf41161005b5780633df4ddf4146100fe57806347799da81461011c5780637cd380f11461013a5780639507d39a1461016a5761007d565b80630cb6aaf11461008257806327e235e3146100b25780633825d828146100e2575b600080fd5b61009c60048036038101906100979190610554565b61019a565b6040516100a991906105c2565b60405180910390f35b6100cc60048036038101906100c79190610609565b6101d9565b6040516100d99190610645565b60405180910390f35b6100fc60048036038101906100f79190610660565b6101f1565b005b610106610344565b6040516101139190610645565b60405180910390f35b6101246103ce565b6040516101319190610645565b60405180910390f35b610154600480360381019061014f9190610609565b61046e565b60405161016191906106bb565b60405180910390f35b610184600480360381019061017f9190610554565b61048e565b6040516101919190610645565b60405180910390f35b600281815481106101aa57600080fd5b906000526020600020016000915054906101000a900473ffffffffffffffffffffffffffffffffffffffff1681565b60006020528060005260406000206000915090505481565b806000808473ffffffffffffffffffffffffffffffffffffffff1673ffffffffffffffffffffffffffffffffffffffff16815260200190815260200160002081905550600160008373ffffffffffffffffffffffffffffffffffffffff1673ffffffffffffffffffffffffffffffffffffffff16815260200190815260200160002060009054906101000a900460ff166103405760018060008473ffffffffffffffffffffffffffffffffffffffff1673ffffffffffffffffffffffffffffffffffffffff16815260200190815260200160002060006101000a81548160ff0219169083151502179055506002829080600181540180825580915050600190039060005260206000200160009091909190916101000a81548173ffffffffffffffffffffffffffffffffffffffff021916908373ffffffffffffffffffffffffffffffffffffffff1602179055505b5050565b600080600260008154811061035c5761035b6106d6565b5b9060005260206000200160009054906101000a900473ffffffffffffffffffffffffffffffffffffffff1690506000808273ffffffffffffffffffffffffffffffffffffffff1673ffffffffffffffffffffffffffffffffffffffff1681526020019081526020016000205491505090565b6000806002805490509050600060026001836103ea9190610734565b815481106103fb576103fa6106d6565b5b9060005260206000200160009054906101000a900473ffffffffffffffffffffffffffffffffffffffff1690506000808273ffffffffffffffffffffffffffffffffffffffff1673ffffffffffffffffffffffffffffffffffffffff168152602001908152602001600020549250505090565b60016020528060005260406000206000915054906101000a900460ff1681565b600080600283815481106104a5576104a46106d6565b5b9060005260206000200160009054906101000a900473ffffffffffffffffffffffffffffffffffffffff1690506000808273ffffffffffffffffffffffffffffffffffffffff1673ffffffffffffffffffffffffffffffffffffffff16815260200190815260200160002054915050919050565b600080fd5b6000819050919050565b6105318161051e565b811461053c57600080fd5b50565b60008135905061054e81610528565b92915050565b60006020828403121561056a57610569610519565b5b60006105788482850161053f565b91505092915050565b600073ffffffffffffffffffffffffffffffffffffffff82169050919050565b60006105ac82610581565b9050919050565b6105bc816105a1565b82525050565b60006020820190506105d760008301846105b3565b92915050565b6105e6816105a1565b81146105f157600080fd5b50565b600081359050610603816105dd565b92915050565b60006020828403121561061f5761061e610519565b5b600061062d848285016105f4565b91505092915050565b61063f8161051e565b82525050565b600060208201905061065a6000830184610636565b92915050565b6000806040838503121561067757610676610519565b5b6000610685858286016105f4565b92505060206106968582860161053f565b9150509250929050565b60008115159050919050565b6106b5816106a0565b82525050565b60006020820190506106d060008301846106ac565b92915050565b7f4e487b7100000000000000000000000000000000000000000000000000000000600052603260045260246000fd5b7f4e487b7100000000000000000000000000000000000000000000000000000000600052601160045260246000fd5b600061073f8261051e565b915061074a8361051e565b925082820390508181111561076257610761610705565b5b9291505056fea2646970667358221220e53c4004ca4204b4aafa60a68fc27eaf05fdaa732efc3b8c3d5fccf36bd7ea6864736f6c63430008110033",
  "linkReferences": {},
  "deployedLinkReferences": {}
}