{"contracts/modifier.sol":{"FunctionModifier":{"abi":[{"inputs":[],"name":"count","outputs":[{"internalType":"uint256","name":"","type":"uint256"}],"stateMutability":"view","type":"function"},{"inputs":[],"name":"dec","outputs":[],"stateMutability":"nonpayable","type":"function"},{"inputs":[],"name":"inc","outputs":[],"stateMutability":"nonpayable","type":"function"},{"inputs":[{"internalType":"uint256","name":"_x","type":"uint256"}],"name":"incBy","outputs":[],"stateMutability":"nonpayable","type":"function"},{"inputs":[],"name":"paused","outputs":[{"internalType":"bool","name":"","type":"bool"}],"stateMutability":"view","type":"function"},{"inputs":[],"name":"reset","outputs":[],"stateMutability":"nonpayable","type":"function"},{"inputs":[{"internalType":"bool","name":"_paused","type":"bool"}],"name":"setPause","outputs":[],"stateMutability":"nonpayable","type":"function"}],"evm":{"bytecode":{"linkReferences":{},"object":"608060405234801561001057600080fd5b50610662806100206000396000f3fe608060405234801561001057600080fd5b506004361061007d5760003560e01c806370119d061161005b57806370119d06146100c8578063b3bcfa82146100e4578063bedb86fb146100ee578063d826f88f1461010a5761007d565b806306661abd14610082578063371303c0146100a05780635c975abb146100aa575b600080fd5b61008a610114565b6040516100979190610338565b60405180910390f35b6100a861011a565b005b6100b2610183565b6040516100bf919061036e565b60405180910390f35b6100e260048036038101906100dd91906103ba565b610194565b005b6100ec610243565b005b61010860048036038101906101039190610413565b6102ac565b005b6101126102c8565b005b60015481565b60008054906101000a900460ff1615610168576040517f08c379a000000000000000000000000000000000000000000000000000000000815260040161015f9061049d565b60405180910390fd5b600180600082825461017a91906104ec565b92505081905550565b60008054906101000a900460ff1681565b60008054906101000a900460ff16156101e2576040517f08c379a00000000000000000000000000000000000000000000000000000000081526004016101d99061049d565b60405180910390fd5b80600a8110610226576040517f08c379a000000000000000000000000000000000000000000000000000000000815260040161021d9061056c565b60405180910390fd5b816001600082825461023891906104ec565b925050819055505050565b60008054906101000a900460ff1615610291576040517f08c379a00000000000000000000000000000000000000000000000000000000081526004016102889061049d565b60405180910390fd5b60018060008282546102a3919061058c565b92505081905550565b806000806101000a81548160ff02191690831515021790555050565b60008054906101000a900460ff16610315576040517f08c379a000000000000000000000000000000000000000000000000000000000815260040161030c9061060c565b60405180910390fd5b6000600181905550565b6000819050919050565b6103328161031f565b82525050565b600060208201905061034d6000830184610329565b92915050565b60008115159050919050565b61036881610353565b82525050565b6000602082019050610383600083018461035f565b92915050565b600080fd5b6103978161031f565b81146103a257600080fd5b50565b6000813590506103b48161038e565b92915050565b6000602082840312156103d0576103cf610389565b5b60006103de848285016103a5565b91505092915050565b6103f081610353565b81146103fb57600080fd5b50565b60008135905061040d816103e7565b92915050565b60006020828403121561042957610428610389565b5b6000610437848285016103fe565b91505092915050565b600082825260208201905092915050565b7f7061757365640000000000000000000000000000000000000000000000000000600082015250565b6000610487600683610440565b915061049282610451565b602082019050919050565b600060208201905081810360008301526104b68161047a565b9050919050565b7f4e487b7100000000000000000000000000000000000000000000000000000000600052601160045260246000fd5b60006104f78261031f565b91506105028361031f565b925082820190508082111561051a576105196104bd565b5b92915050565b7f78203e3d20313000000000000000000000000000000000000000000000000000600082015250565b6000610556600783610440565b915061056182610520565b602082019050919050565b6000602082019050818103600083015261058581610549565b9050919050565b60006105978261031f565b91506105a28361031f565b92508282039050818111156105ba576105b96104bd565b5b92915050565b7f6e6f742070617573656400000000000000000000000000000000000000000000600082015250565b60006105f6600a83610440565b9150610601826105c0565b602082019050919050565b60006020820190508181036000830152610625816105e9565b905091905056fea26469706673582212200d2918af0c7644f66d1cbea979dd07a154ca07d40aeac22dc8d77ab9f2b79d4764736f6c63430008110033","opcodes":"PUSH1 0x80 PUSH1 0x40 MSTORE CALLVALUE DUP1 ISZERO PUSH2 0x10 JUMPI PUSH1 0x0 DUP1 REVERT JUMPDEST POP PUSH2 0x662 DUP1 PUSH2 0x20 PUSH1 0x0 CODECOPY PUSH1 0x0 RETURN INVALID PUSH1 0x80 PUSH1 0x40 MSTORE CALLVALUE DUP1 ISZERO PUSH2 0x10 JUMPI PUSH1 0x0 DUP1 REVERT JUMPDEST POP PUSH1 0x4 CALLDATASIZE LT PUSH2 0x7D JUMPI PUSH1 0x0 CALLDATALOAD PUSH1 0xE0 SHR DUP1 PUSH4 0x70119D06 GT PUSH2 0x5B JUMPI DUP1 PUSH4 0x70119D06 EQ PUSH2 0xC8 JUMPI DUP1 PUSH4 0xB3BCFA82 EQ PUSH2 0xE4 JUMPI DUP1 PUSH4 0xBEDB86FB EQ PUSH2 0xEE JUMPI DUP1 PUSH4 0xD826F88F EQ PUSH2 0x10A JUMPI PUSH2 0x7D JUMP JUMPDEST DUP1 PUSH4 0x6661ABD EQ PUSH2 0x82 JUMPI DUP1 PUSH4 0x371303C0 EQ PUSH2 0xA0 JUMPI DUP1 PUSH4 0x5C975ABB EQ PUSH2 0xAA JUMPI JUMPDEST PUSH1 0x0 DUP1 REVERT JUMPDEST PUSH2 0x8A PUSH2 0x114 JUMP JUMPDEST PUSH1 0x40 MLOAD PUSH2 0x97 SWAP2 SWAP1 PUSH2 0x338 JUMP JUMPDEST PUSH1 0x40 MLOAD DUP1 SWAP2 SUB SWAP1 RETURN JUMPDEST PUSH2 0xA8 PUSH2 0x11A JUMP JUMPDEST STOP JUMPDEST PUSH2 0xB2 PUSH2 0x183 JUMP JUMPDEST PUSH1 0x40 MLOAD PUSH2 0xBF SWAP2 SWAP1 PUSH2 0x36E JUMP JUMPDEST PUSH1 0x40 MLOAD DUP1 SWAP2 SUB SWAP1 RETURN JUMPDEST PUSH2 0xE2 PUSH1 0x4 DUP1 CALLDATASIZE SUB DUP2 ADD SWAP1 PUSH2 0xDD SWAP2 SWAP1 PUSH2 0x3BA JUMP JUMPDEST PUSH2 0x194 JUMP JUMPDEST STOP JUMPDEST PUSH2 0xEC PUSH2 0x243 JUMP JUMPDEST STOP JUMPDEST PUSH2 0x108 PUSH1 0x4 DUP1 CALLDATASIZE SUB DUP2 ADD SWAP1 PUSH2 0x103 SWAP2 SWAP1 PUSH2 0x413 JUMP JUMPDEST PUSH2 0x2AC JUMP JUMPDEST STOP JUMPDEST PUSH2 0x112 PUSH2 0x2C8 JUMP JUMPDEST STOP JUMPDEST PUSH1 0x1 SLOAD DUP2 JUMP JUMPDEST PUSH1 0x0 DUP1 SLOAD SWAP1 PUSH2 0x100 EXP SWAP1 DIV PUSH1 0xFF AND ISZERO PUSH2 0x168 JUMPI PUSH1 0x40 MLOAD PUSH32 0x8C379A000000000000000000000000000000000000000000000000000000000 DUP2 MSTORE PUSH1 0x4 ADD PUSH2 0x15F SWAP1 PUSH2 0x49D JUMP JUMPDEST PUSH1 0x40 MLOAD DUP1 SWAP2 SUB SWAP1 REVERT JUMPDEST PUSH1 0x1 DUP1 PUSH1 0x0 DUP3 DUP3 SLOAD PUSH2 0x17A SWAP2 SWAP1 PUSH2 0x4EC JUMP JUMPDEST SWAP3 POP POP DUP2 SWAP1 SSTORE POP JUMP JUMPDEST PUSH1 0x0 DUP1 SLOAD SWAP1 PUSH2 0x100 EXP SWAP1 DIV PUSH1 0xFF AND DUP2 JUMP JUMPDEST PUSH1 0x0 DUP1 SLOAD SWAP1 PUSH2 0x100 EXP SWAP1 DIV PUSH1 0xFF AND ISZERO PUSH2 0x1E2 JUMPI PUSH1 0x40 MLOAD PUSH32 0x8C379A000000000000000000000000000000000000000000000000000000000 DUP2 MSTORE PUSH1 0x4 ADD PUSH2 0x1D9 SWAP1 PUSH2 0x49D JUMP JUMPDEST PUSH1 0x40 MLOAD DUP1 SWAP2 SUB SWAP1 REVERT JUMPDEST DUP1 PUSH1 0xA DUP2 LT PUSH2 0x226 JUMPI PUSH1 0x40 MLOAD PUSH32 0x8C379A000000000000000000000000000000000000000000000000000000000 DUP2 MSTORE PUSH1 0x4 ADD PUSH2 0x21D SWAP1 PUSH2 0x56C JUMP JUMPDEST PUSH1 0x40 MLOAD DUP1 SWAP2 SUB SWAP1 REVERT JUMPDEST DUP2 PUSH1 0x1 PUSH1 0x0 DUP3 DUP3 SLOAD PUSH2 0x238 SWAP2 SWAP1 PUSH2 0x4EC JUMP JUMPDEST SWAP3 POP POP DUP2 SWAP1 SSTORE POP POP POP JUMP JUMPDEST PUSH1 0x0 DUP1 SLOAD SWAP1 PUSH2 0x100 EXP SWAP1 DIV PUSH1 0xFF AND ISZERO PUSH2 0x291 JUMPI PUSH1 0x40 MLOAD PUSH32 0x8C379A000000000000000000000000000000000000000000000000000000000 DUP2 MSTORE PUSH1 0x4 ADD PUSH2 0x288 SWAP1 PUSH2 0x49D JUMP JUMPDEST PUSH1 0x40 MLOAD DUP1 SWAP2 SUB SWAP1 REVERT JUMPDEST PUSH1 0x1 DUP1 PUSH1 0x0 DUP3 DUP3 SLOAD PUSH2 0x2A3 SWAP2 SWAP1 PUSH2 0x58C JUMP JUMPDEST SWAP3 POP POP DUP2 SWAP1 SSTORE POP JUMP JUMPDEST DUP1 PUSH1 0x0 DUP1 PUSH2 0x100 EXP DUP2 SLOAD DUP2 PUSH1 0xFF MUL NOT AND SWAP1 DUP4 ISZERO ISZERO MUL OR SWAP1 SSTORE POP POP JUMP JUMPDEST PUSH1 0x0 DUP1 SLOAD SWAP1 PUSH2 0x100 EXP SWAP1 DIV PUSH1 0xFF AND PUSH2 0x315 JUMPI PUSH1 0x40 MLOAD PUSH32 0x8C379A000000000000000000000000000000000000000000000000000000000 DUP2 MSTORE PUSH1 0x4 ADD PUSH2 0x30C SWAP1 PUSH2 0x60C JUMP JUMPDEST PUSH1 0x40 MLOAD DUP1 SWAP2 SUB SWAP1 REVERT JUMPDEST PUSH1 0x0 PUSH1 0x1 DUP2 SWAP1 SSTORE POP JUMP JUMPDEST PUSH1 0x0 DUP2 SWAP1 POP SWAP2 SWAP1 POP JUMP JUMPDEST PUSH2 0x332 DUP2 PUSH2 0x31F JUMP JUMPDEST DUP3 MSTORE POP POP JUMP JUMPDEST PUSH1 0x0 PUSH1 0x20 DUP3 ADD SWAP1 POP PUSH2 0x34D PUSH1 0x0 DUP4 ADD DUP5 PUSH2 0x329 JUMP JUMPDEST SWAP3 SWAP2 POP POP JUMP JUMPDEST PUSH1 0x0 DUP2 ISZERO ISZERO SWAP1 POP SWAP2 SWAP1 POP JUMP JUMPDEST PUSH2 0x368 DUP2 PUSH2 0x353 JUMP JUMPDEST DUP3 MSTORE POP POP JUMP JUMPDEST PUSH1 0x0 PUSH1 0x20 DUP3 ADD SWAP1 POP PUSH2 0x383 PUSH1 0x0 DUP4 ADD DUP5 PUSH2 0x35F JUMP JUMPDEST SWAP3 SWAP2 POP POP JUMP JUMPDEST PUSH1 0x0 DUP1 REVERT JUMPDEST PUSH2 0x397 DUP2 PUSH2 0x31F JUMP JUMPDEST DUP2 EQ PUSH2 0x3A2 JUMPI PUSH1 0x0 DUP1 REVERT JUMPDEST POP JUMP JUMPDEST PUSH1 0x0 DUP2 CALLDATALOAD SWAP1 POP PUSH2 0x3B4 DUP2 PUSH2 0x38E JUMP JUMPDEST SWAP3 SWAP2 POP POP JUMP JUMPDEST PUSH1 0x0 PUSH1 0x20 DUP3 DUP5 SUB SLT ISZERO PUSH2 0x3D0 JUMPI PUSH2 0x3CF PUSH2 0x389 JUMP JUMPDEST JUMPDEST PUSH1 0x0 PUSH2 0x3DE DUP5 DUP3 DUP6 ADD PUSH2 0x3A5 JUMP JUMPDEST SWAP2 POP POP SWAP3 SWAP2 POP POP JUMP JUMPDEST PUSH2 0x3F0 DUP2 PUSH2 0x353 JUMP JUMPDEST DUP2 EQ PUSH2 0x3FB JUMPI PUSH1 0x0 DUP1 REVERT JUMPDEST POP JUMP JUMPDEST PUSH1 0x0 DUP2 CALLDATALOAD SWAP1 POP PUSH2 0x40D DUP2 PUSH2 0x3E7 JUMP JUMPDEST SWAP3 SWAP2 POP POP JUMP JUMPDEST PUSH1 0x0 PUSH1 0x20 DUP3 DUP5 SUB SLT ISZERO PUSH2 0x429 JUMPI PUSH2 0x428 PUSH2 0x389 JUMP JUMPDEST JUMPDEST PUSH1 0x0 PUSH2 0x437 DUP5 DUP3 DUP6 ADD PUSH2 0x3FE JUMP JUMPDEST SWAP2 POP POP SWAP3 SWAP2 POP POP JUMP JUMPDEST PUSH1 0x0 DUP3 DUP3 MSTORE PUSH1 0x20 DUP3 ADD SWAP1 POP SWAP3 SWAP2 POP POP JUMP JUMPDEST PUSH32 0x7061757365640000000000000000000000000000000000000000000000000000 PUSH1 0x0 DUP3 ADD MSTORE POP JUMP JUMPDEST PUSH1 0x0 PUSH2 0x487 PUSH1 0x6 DUP4 PUSH2 0x440 JUMP JUMPDEST SWAP2 POP PUSH2 0x492 DUP3 PUSH2 0x451 JUMP JUMPDEST PUSH1 0x20 DUP3 ADD SWAP1 POP SWAP2 SWAP1 POP JUMP JUMPDEST PUSH1 0x0 PUSH1 0x20 DUP3 ADD SWAP1 POP DUP2 DUP2 SUB PUSH1 0x0 DUP4 ADD MSTORE PUSH2 0x4B6 DUP2 PUSH2 0x47A JUMP JUMPDEST SWAP1 POP SWAP2 SWAP1 POP JUMP JUMPDEST PUSH32 0x4E487B7100000000000000000000000000000000000000000000000000000000 PUSH1 0x0 MSTORE PUSH1 0x11 PUSH1 0x4 MSTORE PUSH1 0x24 PUSH1 0x0 REVERT JUMPDEST PUSH1 0x0 PUSH2 0x4F7 DUP3 PUSH2 0x31F JUMP JUMPDEST SWAP2 POP PUSH2 0x502 DUP4 PUSH2 0x31F JUMP JUMPDEST SWAP3 POP DUP3 DUP3 ADD SWAP1 POP DUP1 DUP3 GT ISZERO PUSH2 0x51A JUMPI PUSH2 0x519 PUSH2 0x4BD JUMP JUMPDEST JUMPDEST SWAP3 SWAP2 POP POP JUMP JUMPDEST PUSH32 0x78203E3D20313000000000000000000000000000000000000000000000000000 PUSH1 0x0 DUP3 ADD MSTORE POP JUMP JUMPDEST PUSH1 0x0 PUSH2 0x556 PUSH1 0x7 DUP4 PUSH2 0x440 JUMP JUMPDEST SWAP2 POP PUSH2 0x561 DUP3 PUSH2 0x520 JUMP JUMPDEST PUSH1 0x20 DUP3 ADD SWAP1 POP SWAP2 SWAP1 POP JUMP JUMPDEST PUSH1 0x0 PUSH1 0x20 DUP3 ADD SWAP1 POP DUP2 DUP2 SUB PUSH1 0x0 DUP4 ADD MSTORE PUSH2 0x585 DUP2 PUSH2 0x549 JUMP JUMPDEST SWAP1 POP SWAP2 SWAP1 POP JUMP JUMPDEST PUSH1 0x0 PUSH2 0x597 DUP3 PUSH2 0x31F JUMP JUMPDEST SWAP2 POP PUSH2 0x5A2 DUP4 PUSH2 0x31F JUMP JUMPDEST SWAP3 POP DUP3 DUP3 SUB SWAP1 POP DUP2 DUP2 GT ISZERO PUSH2 0x5BA JUMPI PUSH2 0x5B9 PUSH2 0x4BD JUMP JUMPDEST JUMPDEST SWAP3 SWAP2 POP POP JUMP JUMPDEST PUSH32 0x6E6F742070617573656400000000000000000000000000000000000000000000 PUSH1 0x0 DUP3 ADD MSTORE POP JUMP JUMPDEST PUSH1 0x0 PUSH2 0x5F6 PUSH1 0xA DUP4 PUSH2 0x440 JUMP JUMPDEST SWAP2 POP PUSH2 0x601 DUP3 PUSH2 0x5C0 JUMP JUMPDEST PUSH1 0x20 DUP3 ADD SWAP1 POP SWAP2 SWAP1 POP JUMP JUMPDEST PUSH1 0x0 PUSH1 0x20 DUP3 ADD SWAP1 POP DUP2 DUP2 SUB PUSH1 0x0 DUP4 ADD MSTORE PUSH2 0x625 DUP2 PUSH2 0x5E9 JUMP JUMPDEST SWAP1 POP SWAP2 SWAP1 POP JUMP INVALID LOG2 PUSH5 0x6970667358 0x22 SLT KECCAK256 0xD 0x29 XOR 0xAF 0xC PUSH23 0x44F66D1CBEA979DD07A154CA07D40AEAC22DC8D77AB9F2 0xB7 SWAP14 SELFBALANCE PUSH5 0x736F6C6343 STOP ADDMOD GT STOP CALLER "},"methodIdentifiers":{"count()":"06661abd","dec()":"b3bcfa82","inc()":"371303c0","incBy(uint256)":"70119d06","paused()":"5c975abb","reset()":"d826f88f","setPause(bool)":"bedb86fb"}}}}}