{"contracts/multi_delegate_call.sol":{"MultiDelegatecall":{"abi":[{"inputs":[],"name":"DelegatecallFailed","type":"error"},{"inputs":[{"internalType":"bytes[]","name":"data","type":"bytes[]"}],"name":"multiDelegatecall","outputs":[{"internalType":"bytes[]","name":"results","type":"bytes[]"}],"stateMutability":"payable","type":"function"}],"evm":{"bytecode":{"linkReferences":{},"object":"608060405234801561001057600080fd5b506105cf806100206000396000f3fe60806040526004361061001e5760003560e01c806310957d3c14610023575b600080fd5b61003d6004803603810190610038919061022f565b610053565b60405161004a91906103ce565b60405180910390f35b60608282905067ffffffffffffffff811115610072576100716103f0565b5b6040519080825280602002602001820160405280156100a557816020015b60608152602001906001900390816100905790505b50905060005b838390508110156101b9576000803073ffffffffffffffffffffffffffffffffffffffff168686858181106100e3576100e261041f565b5b90506020028101906100f5919061045d565b6040516101039291906104ff565b600060405180830381855af49150503d806000811461013e576040519150601f19603f3d011682016040523d82523d6000602084013e610143565b606091505b5091509150811561017257808484815181106101625761016161041f565b5b60200260200101819052506101a4565b6040517f835e98fe00000000000000000000000000000000000000000000000000000000815260040160405180910390fd5b505080806101b190610551565b9150506100ab565b5092915050565b600080fd5b600080fd5b600080fd5b600080fd5b600080fd5b60008083601f8401126101ef576101ee6101ca565b5b8235905067ffffffffffffffff81111561020c5761020b6101cf565b5b602083019150836020820283011115610228576102276101d4565b5b9250929050565b60008060208385031215610246576102456101c0565b5b600083013567ffffffffffffffff811115610264576102636101c5565b5b610270858286016101d9565b92509250509250929050565b600081519050919050565b600082825260208201905092915050565b6000819050602082019050919050565b600081519050919050565b600082825260208201905092915050565b60005b838110156102e25780820151818401526020810190506102c7565b60008484015250505050565b6000601f19601f8301169050919050565b600061030a826102a8565b61031481856102b3565b93506103248185602086016102c4565b61032d816102ee565b840191505092915050565b600061034483836102ff565b905092915050565b6000602082019050919050565b60006103648261027c565b61036e8185610287565b93508360208202850161038085610298565b8060005b858110156103bc578484038952815161039d8582610338565b94506103a88361034c565b925060208a01995050600181019050610384565b50829750879550505050505092915050565b600060208201905081810360008301526103e88184610359565b905092915050565b7f4e487b7100000000000000000000000000000000000000000000000000000000600052604160045260246000fd5b7f4e487b7100000000000000000000000000000000000000000000000000000000600052603260045260246000fd5b600080fd5b600080fd5b600080fd5b6000808335600160200384360303811261047a5761047961044e565b5b80840192508235915067ffffffffffffffff82111561049c5761049b610453565b5b6020830192506001820236038313156104b8576104b7610458565b5b509250929050565b600081905092915050565b82818337600083830152505050565b60006104e683856104c0565b93506104f38385846104cb565b82840190509392505050565b600061050c8284866104da565b91508190509392505050565b7f4e487b7100000000000000000000000000000000000000000000000000000000600052601160045260246000fd5b6000819050919050565b600061055c82610547565b91507fffffffffffffffffffffffffffffffffffffffffffffffffffffffffffffffff820361058e5761058d610518565b5b60018201905091905056fea264697066735822122009b39a0857fd8249954a0719bf281d26f311511cf35e7b506ee1a3267e8c83bc64736f6c63430008110033","opcodes":"PUSH1 0x80 PUSH1 0x40 MSTORE CALLVALUE DUP1 ISZERO PUSH2 0x10 JUMPI PUSH1 0x0 DUP1 REVERT JUMPDEST POP PUSH2 0x5CF DUP1 PUSH2 0x20 PUSH1 0x0 CODECOPY PUSH1 0x0 RETURN INVALID PUSH1 0x80 PUSH1 0x40 MSTORE PUSH1 0x4 CALLDATASIZE LT PUSH2 0x1E JUMPI PUSH1 0x0 CALLDATALOAD PUSH1 0xE0 SHR DUP1 PUSH4 0x10957D3C EQ PUSH2 0x23 JUMPI JUMPDEST PUSH1 0x0 DUP1 REVERT JUMPDEST PUSH2 0x3D PUSH1 0x4 DUP1 CALLDATASIZE SUB DUP2 ADD SWAP1 PUSH2 0x38 SWAP2 SWAP1 PUSH2 0x22F JUMP JUMPDEST PUSH2 0x53 JUMP JUMPDEST PUSH1 0x40 MLOAD PUSH2 0x4A SWAP2 SWAP1 PUSH2 0x3CE JUMP JUMPDEST PUSH1 0x40 MLOAD DUP1 SWAP2 SUB SWAP1 RETURN JUMPDEST PUSH1 0x60 DUP3 DUP3 SWAP1 POP PUSH8 0xFFFFFFFFFFFFFFFF DUP2 GT ISZERO PUSH2 0x72 JUMPI PUSH2 0x71 PUSH2 0x3F0 JUMP JUMPDEST JUMPDEST PUSH1 0x40 MLOAD SWAP1 DUP1 DUP3 MSTORE DUP1 PUSH1 0x20 MUL PUSH1 0x20 ADD DUP3 ADD PUSH1 0x40 MSTORE DUP1 ISZERO PUSH2 0xA5 JUMPI DUP2 PUSH1 0x20 ADD JUMPDEST PUSH1 0x60 DUP2 MSTORE PUSH1 0x20 ADD SWAP1 PUSH1 0x1 SWAP1 SUB SWAP1 DUP2 PUSH2 0x90 JUMPI SWAP1 POP JUMPDEST POP SWAP1 POP PUSH1 0x0 JUMPDEST DUP4 DUP4 SWAP1 POP DUP2 LT ISZERO PUSH2 0x1B9 JUMPI PUSH1 0x0 DUP1 ADDRESS PUSH20 0xFFFFFFFFFFFFFFFFFFFFFFFFFFFFFFFFFFFFFFFF AND DUP7 DUP7 DUP6 DUP2 DUP2 LT PUSH2 0xE3 JUMPI PUSH2 0xE2 PUSH2 0x41F JUMP JUMPDEST JUMPDEST SWAP1 POP PUSH1 0x20 MUL DUP2 ADD SWAP1 PUSH2 0xF5 SWAP2 SWAP1 PUSH2 0x45D JUMP JUMPDEST PUSH1 0x40 MLOAD PUSH2 0x103 SWAP3 SWAP2 SWAP1 PUSH2 0x4FF JUMP JUMPDEST PUSH1 0x0 PUSH1 0x40 MLOAD DUP1 DUP4 SUB DUP2 DUP6 GAS DELEGATECALL SWAP2 POP POP RETURNDATASIZE DUP1 PUSH1 0x0 DUP2 EQ PUSH2 0x13E JUMPI PUSH1 0x40 MLOAD SWAP2 POP PUSH1 0x1F NOT PUSH1 0x3F RETURNDATASIZE ADD AND DUP3 ADD PUSH1 0x40 MSTORE RETURNDATASIZE DUP3 MSTORE RETURNDATASIZE PUSH1 0x0 PUSH1 0x20 DUP5 ADD RETURNDATACOPY PUSH2 0x143 JUMP JUMPDEST PUSH1 0x60 SWAP2 POP JUMPDEST POP SWAP2 POP SWAP2 POP DUP2 ISZERO PUSH2 0x172 JUMPI DUP1 DUP5 DUP5 DUP2 MLOAD DUP2 LT PUSH2 0x162 JUMPI PUSH2 0x161 PUSH2 0x41F JUMP JUMPDEST JUMPDEST PUSH1 0x20 MUL PUSH1 0x20 ADD ADD DUP2 SWAP1 MSTORE POP PUSH2 0x1A4 JUMP JUMPDEST PUSH1 0x40 MLOAD PUSH32 0x835E98FE00000000000000000000000000000000000000000000000000000000 DUP2 MSTORE PUSH1 0x4 ADD PUSH1 0x40 MLOAD DUP1 SWAP2 SUB SWAP1 REVERT JUMPDEST POP POP DUP1 DUP1 PUSH2 0x1B1 SWAP1 PUSH2 0x551 JUMP JUMPDEST SWAP2 POP POP PUSH2 0xAB JUMP JUMPDEST POP SWAP3 SWAP2 POP POP JUMP JUMPDEST PUSH1 0x0 DUP1 REVERT JUMPDEST PUSH1 0x0 DUP1 REVERT JUMPDEST PUSH1 0x0 DUP1 REVERT JUMPDEST PUSH1 0x0 DUP1 REVERT JUMPDEST PUSH1 0x0 DUP1 REVERT JUMPDEST PUSH1 0x0 DUP1 DUP4 PUSH1 0x1F DUP5 ADD SLT PUSH2 0x1EF JUMPI PUSH2 0x1EE PUSH2 0x1CA JUMP JUMPDEST JUMPDEST DUP3 CALLDATALOAD SWAP1 POP PUSH8 0xFFFFFFFFFFFFFFFF DUP2 GT ISZERO PUSH2 0x20C JUMPI PUSH2 0x20B PUSH2 0x1CF JUMP JUMPDEST JUMPDEST PUSH1 0x20 DUP4 ADD SWAP2 POP DUP4 PUSH1 0x20 DUP3 MUL DUP4 ADD GT ISZERO PUSH2 0x228 JUMPI PUSH2 0x227 PUSH2 0x1D4 JUMP JUMPDEST JUMPDEST SWAP3 POP SWAP3 SWAP1 POP JUMP JUMPDEST PUSH1 0x0 DUP1 PUSH1 0x20 DUP4 DUP6 SUB SLT ISZERO PUSH2 0x246 JUMPI PUSH2 0x245 PUSH2 0x1C0 JUMP JUMPDEST JUMPDEST PUSH1 0x0 DUP4 ADD CALLDATALOAD PUSH8 0xFFFFFFFFFFFFFFFF DUP2 GT ISZERO PUSH2 0x264 JUMPI PUSH2 0x263 PUSH2 0x1C5 JUMP JUMPDEST JUMPDEST PUSH2 0x270 DUP6 DUP3 DUP7 ADD PUSH2 0x1D9 JUMP JUMPDEST SWAP3 POP SWAP3 POP POP SWAP3 POP SWAP3 SWAP1 POP JUMP JUMPDEST PUSH1 0x0 DUP2 MLOAD SWAP1 POP SWAP2 SWAP1 POP JUMP JUMPDEST PUSH1 0x0 DUP3 DUP3 MSTORE PUSH1 0x20 DUP3 ADD SWAP1 POP SWAP3 SWAP2 POP POP JUMP JUMPDEST PUSH1 0x0 DUP2 SWAP1 POP PUSH1 0x20 DUP3 ADD SWAP1 POP SWAP2 SWAP1 POP JUMP JUMPDEST PUSH1 0x0 DUP2 MLOAD SWAP1 POP SWAP2 SWAP1 POP JUMP JUMPDEST PUSH1 0x0 DUP3 DUP3 MSTORE PUSH1 0x20 DUP3 ADD SWAP1 POP SWAP3 SWAP2 POP POP JUMP JUMPDEST PUSH1 0x0 JUMPDEST DUP4 DUP2 LT ISZERO PUSH2 0x2E2 JUMPI DUP1 DUP3 ADD MLOAD DUP2 DUP5 ADD MSTORE PUSH1 0x20 DUP2 ADD SWAP1 POP PUSH2 0x2C7 JUMP JUMPDEST PUSH1 0x0 DUP5 DUP5 ADD MSTORE POP POP POP POP JUMP JUMPDEST PUSH1 0x0 PUSH1 0x1F NOT PUSH1 0x1F DUP4 ADD AND SWAP1 POP SWAP2 SWAP1 POP JUMP JUMPDEST PUSH1 0x0 PUSH2 0x30A DUP3 PUSH2 0x2A8 JUMP JUMPDEST PUSH2 0x314 DUP2 DUP6 PUSH2 0x2B3 JUMP JUMPDEST SWAP4 POP PUSH2 0x324 DUP2 DUP6 PUSH1 0x20 DUP7 ADD PUSH2 0x2C4 JUMP JUMPDEST PUSH2 0x32D DUP2 PUSH2 0x2EE JUMP JUMPDEST DUP5 ADD SWAP2 POP POP SWAP3 SWAP2 POP POP JUMP JUMPDEST PUSH1 0x0 PUSH2 0x344 DUP4 DUP4 PUSH2 0x2FF JUMP JUMPDEST SWAP1 POP SWAP3 SWAP2 POP POP JUMP JUMPDEST PUSH1 0x0 PUSH1 0x20 DUP3 ADD SWAP1 POP SWAP2 SWAP1 POP JUMP JUMPDEST PUSH1 0x0 PUSH2 0x364 DUP3 PUSH2 0x27C JUMP JUMPDEST PUSH2 0x36E DUP2 DUP6 PUSH2 0x287 JUMP JUMPDEST SWAP4 POP DUP4 PUSH1 0x20 DUP3 MUL DUP6 ADD PUSH2 0x380 DUP6 PUSH2 0x298 JUMP JUMPDEST DUP1 PUSH1 0x0 JUMPDEST DUP6 DUP2 LT ISZERO PUSH2 0x3BC JUMPI DUP5 DUP5 SUB DUP10 MSTORE DUP2 MLOAD PUSH2 0x39D DUP6 DUP3 PUSH2 0x338 JUMP JUMPDEST SWAP5 POP PUSH2 0x3A8 DUP4 PUSH2 0x34C JUMP JUMPDEST SWAP3 POP PUSH1 0x20 DUP11 ADD SWAP10 POP POP PUSH1 0x1 DUP2 ADD SWAP1 POP PUSH2 0x384 JUMP JUMPDEST POP DUP3 SWAP8 POP DUP8 SWAP6 POP POP POP POP POP POP SWAP3 SWAP2 POP POP JUMP JUMPDEST PUSH1 0x0 PUSH1 0x20 DUP3 ADD SWAP1 POP DUP2 DUP2 SUB PUSH1 0x0 DUP4 ADD MSTORE PUSH2 0x3E8 DUP2 DUP5 PUSH2 0x359 JUMP JUMPDEST SWAP1 POP SWAP3 SWAP2 POP POP JUMP JUMPDEST PUSH32 0x4E487B7100000000000000000000000000000000000000000000000000000000 PUSH1 0x0 MSTORE PUSH1 0x41 PUSH1 0x4 MSTORE PUSH1 0x24 PUSH1 0x0 REVERT JUMPDEST PUSH32 0x4E487B7100000000000000000000000000000000000000000000000000000000 PUSH1 0x0 MSTORE PUSH1 0x32 PUSH1 0x4 MSTORE PUSH1 0x24 PUSH1 0x0 REVERT JUMPDEST PUSH1 0x0 DUP1 REVERT JUMPDEST PUSH1 0x0 DUP1 REVERT JUMPDEST PUSH1 0x0 DUP1 REVERT JUMPDEST PUSH1 0x0 DUP1 DUP4 CALLDATALOAD PUSH1 0x1 PUSH1 0x20 SUB DUP5 CALLDATASIZE SUB SUB DUP2 SLT PUSH2 0x47A JUMPI PUSH2 0x479 PUSH2 0x44E JUMP JUMPDEST JUMPDEST DUP1 DUP5 ADD SWAP3 POP DUP3 CALLDATALOAD SWAP2 POP PUSH8 0xFFFFFFFFFFFFFFFF DUP3 GT ISZERO PUSH2 0x49C JUMPI PUSH2 0x49B PUSH2 0x453 JUMP JUMPDEST JUMPDEST PUSH1 0x20 DUP4 ADD SWAP3 POP PUSH1 0x1 DUP3 MUL CALLDATASIZE SUB DUP4 SGT ISZERO PUSH2 0x4B8 JUMPI PUSH2 0x4B7 PUSH2 0x458 JUMP JUMPDEST JUMPDEST POP SWAP3 POP SWAP3 SWAP1 POP JUMP JUMPDEST PUSH1 0x0 DUP2 SWAP1 POP SWAP3 SWAP2 POP POP JUMP JUMPDEST DUP3 DUP2 DUP4 CALLDATACOPY PUSH1 0x0 DUP4 DUP4 ADD MSTORE POP POP POP JUMP JUMPDEST PUSH1 0x0 PUSH2 0x4E6 DUP4 DUP6 PUSH2 0x4C0 JUMP JUMPDEST SWAP4 POP PUSH2 0x4F3 DUP4 DUP6 DUP5 PUSH2 0x4CB JUMP JUMPDEST DUP3 DUP5 ADD SWAP1 POP SWAP4 SWAP3 POP POP POP JUMP JUMPDEST PUSH1 0x0 PUSH2 0x50C DUP3 DUP5 DUP7 PUSH2 0x4DA JUMP JUMPDEST SWAP2 POP DUP2 SWAP1 POP SWAP4 SWAP3 POP POP POP JUMP JUMPDEST PUSH32 0x4E487B7100000000000000000000000000000000000000000000000000000000 PUSH1 0x0 MSTORE PUSH1 0x11 PUSH1 0x4 MSTORE PUSH1 0x24 PUSH1 0x0 REVERT JUMPDEST PUSH1 0x0 DUP2 SWAP1 POP SWAP2 SWAP1 POP JUMP JUMPDEST PUSH1 0x0 PUSH2 0x55C DUP3 PUSH2 0x547 JUMP JUMPDEST SWAP2 POP PUSH32 0xFFFFFFFFFFFFFFFFFFFFFFFFFFFFFFFFFFFFFFFFFFFFFFFFFFFFFFFFFFFFFFFF DUP3 SUB PUSH2 0x58E JUMPI PUSH2 0x58D PUSH2 0x518 JUMP JUMPDEST JUMPDEST PUSH1 0x1 DUP3 ADD SWAP1 POP SWAP2 SWAP1 POP JUMP INVALID LOG2 PUSH5 0x6970667358 0x22 SLT KECCAK256 MULMOD 0xB3 SWAP11 ADDMOD JUMPI REVERT DUP3 0x49 SWAP6 0x4A SMOD NOT 0xBF 0x28 SAR 0x26 RETURN GT MLOAD SHR RETURN 0x5E PUSH28 0x506EE1A3267E8C83BC64736F6C634300081100330000000000000000 "},"methodIdentifiers":{"multiDelegatecall(bytes[])":"10957d3c"}}}}}