{
  "_format": "hh-sol-artifact-1",
  "contractName": "RandomNumber",
  "sourceName": "contracts/randomness.sol",
  "abi": [
    {
      "inputs": [],
      "stateMutability": "nonpayable",
      "type": "constructor"
    },
    {
      "inputs": [],
      "name": "getRandomNumber",
      "outputs": [
        {
          "internalType": "bytes32",
          "name": "requestId",
          "type": "bytes32"
        }
      ],
      "stateMutability": "nonpayable",
      "type": "function"
    },
    {
      "inputs": [],
      "name": "randomResult",
      "outputs": [
        {
          "internalType": "uint256",
          "name": "",
          "type": "uint256"
        }
      ],
      "stateMutability": "view",
      "type": "function"
    },
    {
      "inputs": [
        {
          "internalType": "bytes32",
          "name": "requestId",
          "type": "bytes32"
        },
        {
          "internalType": "uint256",
          "name": "randomness",
          "type": "uint256"
        }
      ],
      "name": "rawFulfillRandomness",
      "outputs": [],
      "stateMutability": "nonpayable",
      "type": "function"
    }
  ],
  "bytecode": "0x60c060405234801561001057600080fd5b50738c7382f9d8f56b33781fe506e897a4f1e2d1725573326c977e6efc84e512bb9c30f76e30c160ed06fb8173ffffffffffffffffffffffffffffffffffffffff1660a08173ffffffffffffffffffffffffffffffffffffffff16815250508073ffffffffffffffffffffffffffffffffffffffff1660808173ffffffffffffffffffffffffffffffffffffffff168152505050507f6e75b569a01ef56d18cab6a8e71e6600d6ce853834d4a5748b720d06f878b3a460001b600181905550655af3107a400060028190555060805160a0516109c261010e6000396000818160a60152610289015260008181610147015261024d01526109c26000f3fe608060405234801561001057600080fd5b50600436106100415760003560e01c806342619f661461004657806394985ddd14610064578063dbdff2c114610080575b600080fd5b61004e61009e565b60405161005b9190610421565b60405180910390f35b61007e600480360381019061007991906104a3565b6100a4565b005b610088610140565b60405161009591906104f2565b60405180910390f35b60035481565b7f000000000000000000000000000000000000000000000000000000000000000073ffffffffffffffffffffffffffffffffffffffff163373ffffffffffffffffffffffffffffffffffffffff1614610132576040517f08c379a00000000000000000000000000000000000000000000000000000000081526004016101299061056a565b60405180910390fd5b61013c8282610232565b5050565b60006002547f000000000000000000000000000000000000000000000000000000000000000073ffffffffffffffffffffffffffffffffffffffff166370a08231306040518263ffffffff1660e01b815260040161019e91906105cb565b602060405180830381865afa1580156101bb573d6000803e3d6000fd5b505050506040513d601f19601f820116820180604052508101906101df91906105fb565b1161021f576040517f08c379a00000000000000000000000000000000000000000000000000000000081526004016102169061069a565b60405180910390fd5b61022d600154600254610249565b905090565b600a8161023f91906106e9565b6003819055505050565b60007f000000000000000000000000000000000000000000000000000000000000000073ffffffffffffffffffffffffffffffffffffffff16634000aea07f0000000000000000000000000000000000000000000000000000000000000000848660006040516020016102bd92919061071a565b6040516020818303038152906040526040518463ffffffff1660e01b81526004016102ea939291906107d3565b6020604051808303816000875af1158015610309573d6000803e3d6000fd5b505050506040513d601f19601f8201168201806040525081019061032d9190610849565b50600061034f8460003060008089815260200190815260200160002054610399565b905060016000808681526020019081526020016000205461037091906108a5565b6000808681526020019081526020016000208190555061039084826103d5565b91505092915050565b6000848484846040516020016103b294939291906108d9565b6040516020818303038152906040528051906020012060001c9050949350505050565b600082826040516020016103ea929190610960565b60405160208183030381529060405280519060200120905092915050565b6000819050919050565b61041b81610408565b82525050565b60006020820190506104366000830184610412565b92915050565b600080fd5b6000819050919050565b61045481610441565b811461045f57600080fd5b50565b6000813590506104718161044b565b92915050565b61048081610408565b811461048b57600080fd5b50565b60008135905061049d81610477565b92915050565b600080604083850312156104ba576104b961043c565b5b60006104c885828601610462565b92505060206104d98582860161048e565b9150509250929050565b6104ec81610441565b82525050565b600060208201905061050760008301846104e3565b92915050565b600082825260208201905092915050565b7f4f6e6c7920565246436f6f7264696e61746f722063616e2066756c66696c6c00600082015250565b6000610554601f8361050d565b915061055f8261051e565b602082019050919050565b6000602082019050818103600083015261058381610547565b9050919050565b600073ffffffffffffffffffffffffffffffffffffffff82169050919050565b60006105b58261058a565b9050919050565b6105c5816105aa565b82525050565b60006020820190506105e060008301846105bc565b92915050565b6000815190506105f581610477565b92915050565b6000602082840312156106115761061061043c565b5b600061061f848285016105e6565b91505092915050565b7f4e6f7420656e6f756768204c494e4b202d2066696c6c20636f6e74726163742060008201527f7769746820666175636574000000000000000000000000000000000000000000602082015250565b6000610684602b8361050d565b915061068f82610628565b604082019050919050565b600060208201905081810360008301526106b381610677565b9050919050565b7f4e487b7100000000000000000000000000000000000000000000000000000000600052601260045260246000fd5b60006106f482610408565b91506106ff83610408565b92508261070f5761070e6106ba565b5b828206905092915050565b600060408201905061072f60008301856104e3565b61073c6020830184610412565b9392505050565b600081519050919050565b600082825260208201905092915050565b60005b8381101561077d578082015181840152602081019050610762565b60008484015250505050565b6000601f19601f8301169050919050565b60006107a582610743565b6107af818561074e565b93506107bf81856020860161075f565b6107c881610789565b840191505092915050565b60006060820190506107e860008301866105bc565b6107f56020830185610412565b8181036040830152610807818461079a565b9050949350505050565b60008115159050919050565b61082681610811565b811461083157600080fd5b50565b6000815190506108438161081d565b92915050565b60006020828403121561085f5761085e61043c565b5b600061086d84828501610834565b91505092915050565b7f4e487b7100000000000000000000000000000000000000000000000000000000600052601160045260246000fd5b60006108b082610408565b91506108bb83610408565b92508282019050808211156108d3576108d2610876565b5b92915050565b60006080820190506108ee60008301876104e3565b6108fb6020830186610412565b61090860408301856105bc565b6109156060830184610412565b95945050505050565b6000819050919050565b61093961093482610441565b61091e565b82525050565b6000819050919050565b61095a61095582610408565b61093f565b82525050565b600061096c8285610928565b60208201915061097c8284610949565b602082019150819050939250505056fea264697066735822122081668e82831e2ae1018e1411989411cc75b366f2ca53977f0b277f07a5c42a0964736f6c63430008110033",
  "linkReferences": {},
  "deployedLinkReferences": {}
}