{
  "_format": "hh-sol-artifact-1",
  "contractName": "SignatureReplay",
  "sourceName": "contracts/signature_replay.sol",
  "abi": [
    {
      "inputs": [],
      "stateMutability": "payable",
      "type": "constructor"
    },
    {
      "inputs": [
        {
          "internalType": "address",
          "name": "to",
          "type": "address"
        },
        {
          "internalType": "uint256",
          "name": "amount",
          "type": "uint256"
        }
      ],
      "name": "getHash",
      "outputs": [
        {
          "internalType": "bytes32",
          "name": "",
          "type": "bytes32"
        }
      ],
      "stateMutability": "pure",
      "type": "function"
    },
    {
      "inputs": [],
      "name": "owner",
      "outputs": [
        {
          "internalType": "address",
          "name": "",
          "type": "address"
        }
      ],
      "stateMutability": "view",
      "type": "function"
    },
    {
      "inputs": [
        {
          "internalType": "uint256",
          "name": "amount",
          "type": "uint256"
        },
        {
          "internalType": "bytes",
          "name": "sig",
          "type": "bytes"
        }
      ],
      "name": "withdraw",
      "outputs": [],
      "stateMutability": "nonpayable",
      "type": "function"
    }
  ],
  "bytecode": "0x60a06040523373ffffffffffffffffffffffffffffffffffffffff1660808173ffffffffffffffffffffffffffffffffffffffff16815250506080516108f861005a600039600081816101cb015261029601526108f86000f3fe608060405234801561001057600080fd5b50600436106100415760003560e01c8063030ba25d146100465780638da5cb5b14610062578063ed05582b14610080575b600080fd5b610060600480360381019061005b919061047d565b6100b0565b005b61006a6101c9565b604051610077919061051e565b60405180910390f35b61009a60048036038101906100959190610565565b6101ed565b6040516100a791906105be565b60405180910390f35b60008054906101000a900460ff16156100fe576040517f08c379a00000000000000000000000000000000000000000000000000000000081526004016100f590610636565b60405180910390fd5b60016000806101000a81548160ff02191690831515021790555061012433848484610220565b610163576040517f08c379a000000000000000000000000000000000000000000000000000000000815260040161015a906106a2565b60405180910390fd5b3373ffffffffffffffffffffffffffffffffffffffff166108fc849081150290604051600060405180830381858888f193505050501580156101a9573d6000803e3d6000fd5b5060008060006101000a81548160ff021916908315150217905550505050565b7f000000000000000000000000000000000000000000000000000000000000000081565b6000828260405160200161020292919061072b565b60405160208183030381529060405280519060200120905092915050565b60008061022d86866101ed565b9050600061023a82610340565b9050600080600061028e88888080601f016020809104026020016040519081016040528093929190818152602001838380828437600081840152601f19601f82011690508083019250505050505050610370565b9250925092507f000000000000000000000000000000000000000000000000000000000000000073ffffffffffffffffffffffffffffffffffffffff16600185838686604051600081526020016040526040516102ee9493929190610773565b6020604051602081039080840390855afa158015610310573d6000803e3d6000fd5b5050506020604051035173ffffffffffffffffffffffffffffffffffffffff161495505050505050949350505050565b6000816040516020016103539190610830565b604051602081830303815290604052805190602001209050919050565b600080600060418451146103b9576040517f08c379a00000000000000000000000000000000000000000000000000000000081526004016103b0906108a2565b60405180910390fd5b6020840151925060408401519150606084015160001a90509193909250565b600080fd5b600080fd5b6000819050919050565b6103f5816103e2565b811461040057600080fd5b50565b600081359050610412816103ec565b92915050565b600080fd5b600080fd5b600080fd5b60008083601f84011261043d5761043c610418565b5b8235905067ffffffffffffffff81111561045a5761045961041d565b5b60208301915083600182028301111561047657610475610422565b5b9250929050565b600080600060408486031215610496576104956103d8565b5b60006104a486828701610403565b935050602084013567ffffffffffffffff8111156104c5576104c46103dd565b5b6104d186828701610427565b92509250509250925092565b600073ffffffffffffffffffffffffffffffffffffffff82169050919050565b6000610508826104dd565b9050919050565b610518816104fd565b82525050565b6000602082019050610533600083018461050f565b92915050565b610542816104fd565b811461054d57600080fd5b50565b60008135905061055f81610539565b92915050565b6000806040838503121561057c5761057b6103d8565b5b600061058a85828601610550565b925050602061059b85828601610403565b9150509250929050565b6000819050919050565b6105b8816105a5565b82525050565b60006020820190506105d360008301846105af565b92915050565b600082825260208201905092915050565b7f6c6f636b65640000000000000000000000000000000000000000000000000000600082015250565b60006106206006836105d9565b915061062b826105ea565b602082019050919050565b6000602082019050818103600083015261064f81610613565b9050919050565b7f696e76616c6964207369676e6174757265000000000000000000000000000000600082015250565b600061068c6011836105d9565b915061069782610656565b602082019050919050565b600060208201905081810360008301526106bb8161067f565b9050919050565b60008160601b9050919050565b60006106da826106c2565b9050919050565b60006106ec826106cf565b9050919050565b6107046106ff826104fd565b6106e1565b82525050565b6000819050919050565b610725610720826103e2565b61070a565b82525050565b600061073782856106f3565b6014820191506107478284610714565b6020820191508190509392505050565b600060ff82169050919050565b61076d81610757565b82525050565b600060808201905061078860008301876105af565b6107956020830186610764565b6107a260408301856105af565b6107af60608301846105af565b95945050505050565b600081905092915050565b7f19457468657265756d205369676e6564204d6573736167653a0a333200000000600082015250565b60006107f9601c836107b8565b9150610804826107c3565b601c82019050919050565b6000819050919050565b61082a610825826105a5565b61080f565b82525050565b600061083b826107ec565b91506108478284610819565b60208201915081905092915050565b7f696e76616c6964207369676e6174757265206c656e6774680000000000000000600082015250565b600061088c6018836105d9565b915061089782610856565b602082019050919050565b600060208201905081810360008301526108bb8161087f565b905091905056fea264697066735822122008ab76abf6793598c7a49922711e64de24f70ea2614712ee6d1fa53ec5822af064736f6c63430008110033",
  "linkReferences": {},
  "deployedLinkReferences": {}
}