{
  "_format": "hh-sol-artifact-1",
  "contractName": "ReentrancyGuard",
  "sourceName": "contracts/re_entrancy_guard.sol",
  "abi": [
    {
      "inputs": [],
      "name": "count",
      "outputs": [
        {
          "internalType": "uint256",
          "name": "",
          "type": "uint256"
        }
      ],
      "stateMutability": "view",
      "type": "function"
    },
    {
      "inputs": [
        {
          "internalType": "address",
          "name": "_contract",
          "type": "address"
        }
      ],
      "name": "test",
      "outputs": [],
      "stateMutability": "nonpayable",
      "type": "function"
    }
  ],
  "bytecode": "0x60806040526000600160006101000a81548160ff02191690831515021790555034801561002b57600080fd5b506104548061003b6000396000f3fe608060405234801561001057600080fd5b50600436106100365760003560e01c806306661abd1461003b578063bb29998e14610059575b600080fd5b610043610075565b60405161005091906101e1565b60405180910390f35b610073600480360381019061006e919061025f565b61007b565b005b60005481565b600160009054906101000a900460ff16156100cb576040517f08c379a00000000000000000000000000000000000000000000000000000000081526004016100c2906102e9565b60405180910390fd5b60018060006101000a81548160ff02191690831515021790555060008173ffffffffffffffffffffffffffffffffffffffff1660405161010a9061033a565b6000604051808303816000865af19150503d8060008114610147576040519150601f19603f3d011682016040523d82523d6000602084013e61014c565b606091505b5050905080610190576040517f08c379a00000000000000000000000000000000000000000000000000000000081526004016101879061039b565b60405180910390fd5b60016000808282546101a291906103ea565b92505081905550506000600160006101000a81548160ff02191690831515021790555050565b6000819050919050565b6101db816101c8565b82525050565b60006020820190506101f660008301846101d2565b92915050565b600080fd5b600073ffffffffffffffffffffffffffffffffffffffff82169050919050565b600061022c82610201565b9050919050565b61023c81610221565b811461024757600080fd5b50565b60008135905061025981610233565b92915050565b600060208284031215610275576102746101fc565b5b60006102838482850161024a565b91505092915050565b600082825260208201905092915050565b7f4c6f636b65640000000000000000000000000000000000000000000000000000600082015250565b60006102d360068361028c565b91506102de8261029d565b602082019050919050565b60006020820190508181036000830152610302816102c6565b9050919050565b600081905092915050565b50565b6000610324600083610309565b915061032f82610314565b600082019050919050565b600061034582610317565b9150819050919050565b7f7478206661696c65640000000000000000000000000000000000000000000000600082015250565b600061038560098361028c565b91506103908261034f565b602082019050919050565b600060208201905081810360008301526103b481610378565b9050919050565b7f4e487b7100000000000000000000000000000000000000000000000000000000600052601160045260246000fd5b60006103f5826101c8565b9150610400836101c8565b9250828201905080821115610418576104176103bb565b5b9291505056fea2646970667358221220f86d107b5220eae97f2e93770b0997d78fcbbae4e477e631db46e6ee04f593f364736f6c63430008110033",
  "linkReferences": {},
  "deployedLinkReferences": {}
}