{"contracts/error_handling.sol":{"ErrorHandling":{"abi":[{"inputs":[{"internalType":"uint256","name":"x","type":"uint256"},{"internalType":"uint256","name":"y","type":"uint256"}],"name":"div","outputs":[{"internalType":"uint256","name":"","type":"uint256"}],"stateMutability":"pure","type":"function"},{"inputs":[],"name":"testAssert","outputs":[],"stateMutability":"view","type":"function"},{"inputs":[{"internalType":"uint256","name":"_i","type":"uint256"}],"name":"testRequire","outputs":[],"stateMutability":"pure","type":"function"},{"inputs":[{"internalType":"uint256","name":"_i","type":"uint256"}],"name":"testRevert","outputs":[],"stateMutability":"pure","type":"function"}],"evm":{"bytecode":{"linkReferences":{},"object":"608060405234801561001057600080fd5b5061043d806100206000396000f3fe608060405234801561001057600080fd5b506004361061004c5760003560e01c806320987767146100515780632b813bc01461006d578063a391c15b14610077578063b8bd717f146100a7575b600080fd5b61006b600480360381019061006691906101f8565b6100c3565b005b61007561010a565b005b610091600480360381019061008c9190610225565b61011e565b60405161009e9190610274565b60405180910390f35b6100c160048036038101906100bc91906101f8565b610176565b005b600a811115610107576040517f08c379a00000000000000000000000000000000000000000000000000000000081526004016100fe906102ec565b60405180910390fd5b50565b600080541461011c5761011b61030c565b5b565b6000808211610162576040517f08c379a000000000000000000000000000000000000000000000000000000000815260040161015990610387565b60405180910390fd5b818361016e91906103d6565b905092915050565b600a8111156101ba576040517f08c379a00000000000000000000000000000000000000000000000000000000081526004016101b1906102ec565b60405180910390fd5b50565b600080fd5b6000819050919050565b6101d5816101c2565b81146101e057600080fd5b50565b6000813590506101f2816101cc565b92915050565b60006020828403121561020e5761020d6101bd565b5b600061021c848285016101e3565b91505092915050565b6000806040838503121561023c5761023b6101bd565b5b600061024a858286016101e3565b925050602061025b858286016101e3565b9150509250929050565b61026e816101c2565b82525050565b60006020820190506102896000830184610265565b92915050565b600082825260208201905092915050565b7f69203e2031300000000000000000000000000000000000000000000000000000600082015250565b60006102d660068361028f565b91506102e1826102a0565b602082019050919050565b60006020820190508181036000830152610305816102c9565b9050919050565b7f4e487b7100000000000000000000000000000000000000000000000000000000600052600160045260246000fd5b7f6469762062792030000000000000000000000000000000000000000000000000600082015250565b600061037160088361028f565b915061037c8261033b565b602082019050919050565b600060208201905081810360008301526103a081610364565b9050919050565b7f4e487b7100000000000000000000000000000000000000000000000000000000600052601260045260246000fd5b60006103e1826101c2565b91506103ec836101c2565b9250826103fc576103fb6103a7565b5b82820490509291505056fea26469706673582212205d5acb32d4bbb51d4ca1ab41fe515ca123789b74ce998bd3c826c7f5e35cccf064736f6c63430008110033","opcodes":"PUSH1 0x80 PUSH1 0x40 MSTORE CALLVALUE DUP1 ISZERO PUSH2 0x10 JUMPI PUSH1 0x0 DUP1 REVERT JUMPDEST POP PUSH2 0x43D DUP1 PUSH2 0x20 PUSH1 0x0 CODECOPY PUSH1 0x0 RETURN INVALID PUSH1 0x80 PUSH1 0x40 MSTORE CALLVALUE DUP1 ISZERO PUSH2 0x10 JUMPI PUSH1 0x0 DUP1 REVERT JUMPDEST POP PUSH1 0x4 CALLDATASIZE LT PUSH2 0x4C JUMPI PUSH1 0x0 CALLDATALOAD PUSH1 0xE0 SHR DUP1 PUSH4 0x20987767 EQ PUSH2 0x51 JUMPI DUP1 PUSH4 0x2B813BC0 EQ PUSH2 0x6D JUMPI DUP1 PUSH4 0xA391C15B EQ PUSH2 0x77 JUMPI DUP1 PUSH4 0xB8BD717F EQ PUSH2 0xA7 JUMPI JUMPDEST PUSH1 0x0 DUP1 REVERT JUMPDEST PUSH2 0x6B PUSH1 0x4 DUP1 CALLDATASIZE SUB DUP2 ADD SWAP1 PUSH2 0x66 SWAP2 SWAP1 PUSH2 0x1F8 JUMP JUMPDEST PUSH2 0xC3 JUMP JUMPDEST STOP JUMPDEST PUSH2 0x75 PUSH2 0x10A JUMP JUMPDEST STOP JUMPDEST PUSH2 0x91 PUSH1 0x4 DUP1 CALLDATASIZE SUB DUP2 ADD SWAP1 PUSH2 0x8C SWAP2 SWAP1 PUSH2 0x225 JUMP JUMPDEST PUSH2 0x11E JUMP JUMPDEST PUSH1 0x40 MLOAD PUSH2 0x9E SWAP2 SWAP1 PUSH2 0x274 JUMP JUMPDEST PUSH1 0x40 MLOAD DUP1 SWAP2 SUB SWAP1 RETURN JUMPDEST PUSH2 0xC1 PUSH1 0x4 DUP1 CALLDATASIZE SUB DUP2 ADD SWAP1 PUSH2 0xBC SWAP2 SWAP1 PUSH2 0x1F8 JUMP JUMPDEST PUSH2 0x176 JUMP JUMPDEST STOP JUMPDEST PUSH1 0xA DUP2 GT ISZERO PUSH2 0x107 JUMPI PUSH1 0x40 MLOAD PUSH32 0x8C379A000000000000000000000000000000000000000000000000000000000 DUP2 MSTORE PUSH1 0x4 ADD PUSH2 0xFE SWAP1 PUSH2 0x2EC JUMP JUMPDEST PUSH1 0x40 MLOAD DUP1 SWAP2 SUB SWAP1 REVERT JUMPDEST POP JUMP JUMPDEST PUSH1 0x0 DUP1 SLOAD EQ PUSH2 0x11C JUMPI PUSH2 0x11B PUSH2 0x30C JUMP JUMPDEST JUMPDEST JUMP JUMPDEST PUSH1 0x0 DUP1 DUP3 GT PUSH2 0x162 JUMPI PUSH1 0x40 MLOAD PUSH32 0x8C379A000000000000000000000000000000000000000000000000000000000 DUP2 MSTORE PUSH1 0x4 ADD PUSH2 0x159 SWAP1 PUSH2 0x387 JUMP JUMPDEST PUSH1 0x40 MLOAD DUP1 SWAP2 SUB SWAP1 REVERT JUMPDEST DUP2 DUP4 PUSH2 0x16E SWAP2 SWAP1 PUSH2 0x3D6 JUMP JUMPDEST SWAP1 POP SWAP3 SWAP2 POP POP JUMP JUMPDEST PUSH1 0xA DUP2 GT ISZERO PUSH2 0x1BA JUMPI PUSH1 0x40 MLOAD PUSH32 0x8C379A000000000000000000000000000000000000000000000000000000000 DUP2 MSTORE PUSH1 0x4 ADD PUSH2 0x1B1 SWAP1 PUSH2 0x2EC JUMP JUMPDEST PUSH1 0x40 MLOAD DUP1 SWAP2 SUB SWAP1 REVERT JUMPDEST POP JUMP JUMPDEST PUSH1 0x0 DUP1 REVERT JUMPDEST PUSH1 0x0 DUP2 SWAP1 POP SWAP2 SWAP1 POP JUMP JUMPDEST PUSH2 0x1D5 DUP2 PUSH2 0x1C2 JUMP JUMPDEST DUP2 EQ PUSH2 0x1E0 JUMPI PUSH1 0x0 DUP1 REVERT JUMPDEST POP JUMP JUMPDEST PUSH1 0x0 DUP2 CALLDATALOAD SWAP1 POP PUSH2 0x1F2 DUP2 PUSH2 0x1CC JUMP JUMPDEST SWAP3 SWAP2 POP POP JUMP JUMPDEST PUSH1 0x0 PUSH1 0x20 DUP3 DUP5 SUB SLT ISZERO PUSH2 0x20E JUMPI PUSH2 0x20D PUSH2 0x1BD JUMP JUMPDEST JUMPDEST PUSH1 0x0 PUSH2 0x21C DUP5 DUP3 DUP6 ADD PUSH2 0x1E3 JUMP JUMPDEST SWAP2 POP POP SWAP3 SWAP2 POP POP JUMP JUMPDEST PUSH1 0x0 DUP1 PUSH1 0x40 DUP4 DUP6 SUB SLT ISZERO PUSH2 0x23C JUMPI PUSH2 0x23B PUSH2 0x1BD JUMP JUMPDEST JUMPDEST PUSH1 0x0 PUSH2 0x24A DUP6 DUP3 DUP7 ADD PUSH2 0x1E3 JUMP JUMPDEST SWAP3 POP POP PUSH1 0x20 PUSH2 0x25B DUP6 DUP3 DUP7 ADD PUSH2 0x1E3 JUMP JUMPDEST SWAP2 POP POP SWAP3 POP SWAP3 SWAP1 POP JUMP JUMPDEST PUSH2 0x26E DUP2 PUSH2 0x1C2 JUMP JUMPDEST DUP3 MSTORE POP POP JUMP JUMPDEST PUSH1 0x0 PUSH1 0x20 DUP3 ADD SWAP1 POP PUSH2 0x289 PUSH1 0x0 DUP4 ADD DUP5 PUSH2 0x265 JUMP JUMPDEST SWAP3 SWAP2 POP POP JUMP JUMPDEST PUSH1 0x0 DUP3 DUP3 MSTORE PUSH1 0x20 DUP3 ADD SWAP1 POP SWAP3 SWAP2 POP POP JUMP JUMPDEST PUSH32 0x69203E2031300000000000000000000000000000000000000000000000000000 PUSH1 0x0 DUP3 ADD MSTORE POP JUMP JUMPDEST PUSH1 0x0 PUSH2 0x2D6 PUSH1 0x6 DUP4 PUSH2 0x28F JUMP JUMPDEST SWAP2 POP PUSH2 0x2E1 DUP3 PUSH2 0x2A0 JUMP JUMPDEST PUSH1 0x20 DUP3 ADD SWAP1 POP SWAP2 SWAP1 POP JUMP JUMPDEST PUSH1 0x0 PUSH1 0x20 DUP3 ADD SWAP1 POP DUP2 DUP2 SUB PUSH1 0x0 DUP4 ADD MSTORE PUSH2 0x305 DUP2 PUSH2 0x2C9 JUMP JUMPDEST SWAP1 POP SWAP2 SWAP1 POP JUMP JUMPDEST PUSH32 0x4E487B7100000000000000000000000000000000000000000000000000000000 PUSH1 0x0 MSTORE PUSH1 0x1 PUSH1 0x4 MSTORE PUSH1 0x24 PUSH1 0x0 REVERT JUMPDEST PUSH32 0x6469762062792030000000000000000000000000000000000000000000000000 PUSH1 0x0 DUP3 ADD MSTORE POP JUMP JUMPDEST PUSH1 0x0 PUSH2 0x371 PUSH1 0x8 DUP4 PUSH2 0x28F JUMP JUMPDEST SWAP2 POP PUSH2 0x37C DUP3 PUSH2 0x33B JUMP JUMPDEST PUSH1 0x20 DUP3 ADD SWAP1 POP SWAP2 SWAP1 POP JUMP JUMPDEST PUSH1 0x0 PUSH1 0x20 DUP3 ADD SWAP1 POP DUP2 DUP2 SUB PUSH1 0x0 DUP4 ADD MSTORE PUSH2 0x3A0 DUP2 PUSH2 0x364 JUMP JUMPDEST SWAP1 POP SWAP2 SWAP1 POP JUMP JUMPDEST PUSH32 0x4E487B7100000000000000000000000000000000000000000000000000000000 PUSH1 0x0 MSTORE PUSH1 0x12 PUSH1 0x4 MSTORE PUSH1 0x24 PUSH1 0x0 REVERT JUMPDEST PUSH1 0x0 PUSH2 0x3E1 DUP3 PUSH2 0x1C2 JUMP JUMPDEST SWAP2 POP PUSH2 0x3EC DUP4 PUSH2 0x1C2 JUMP JUMPDEST SWAP3 POP DUP3 PUSH2 0x3FC JUMPI PUSH2 0x3FB PUSH2 0x3A7 JUMP JUMPDEST JUMPDEST DUP3 DUP3 DIV SWAP1 POP SWAP3 SWAP2 POP POP JUMP INVALID LOG2 PUSH5 0x6970667358 0x22 SLT KECCAK256 0x5D GAS 0xCB ORIGIN 0xD4 0xBB 0xB5 SAR 0x4C LOG1 0xAB COINBASE INVALID MLOAD 0x5C LOG1 0x23 PUSH25 0x9B74CE998BD3C826C7F5E35CCCF064736F6C63430008110033 "},"methodIdentifiers":{"div(uint256,uint256)":"a391c15b","testAssert()":"2b813bc0","testRequire(uint256)":"b8bd717f","testRevert(uint256)":"20987767"}}}}}