{
  "_format": "hh-sol-artifact-1",
  "contractName": "LendingPool",
  "sourceName": "contracts/lending_pool.sol",
  "abi": [
    {
      "inputs": [
        {
          "internalType": "address",
          "name": "_token",
          "type": "address"
        }
      ],
      "stateMutability": "nonpayable",
      "type": "constructor"
    },
    {
      "inputs": [
        {
          "internalType": "uint256",
          "name": "_amount",
          "type": "uint256"
        },
        {
          "internalType": "address",
          "name": "_target",
          "type": "address"
        },
        {
          "internalType": "bytes",
          "name": "_data",
          "type": "bytes"
        }
      ],
      "name": "flashLoan",
      "outputs": [],
      "stateMutability": "nonpayable",
      "type": "function"
    },
    {
      "inputs": [],
      "name": "token",
      "outputs": [
        {
          "internalType": "contract IERC20",
          "name": "",
          "type": "address"
        }
      ],
      "stateMutability": "view",
      "type": "function"
    }
  ],
  "bytecode": "0x608060405234801561001057600080fd5b506040516109a83803806109a8833981810160405281019061003291906100db565b806000806101000a81548173ffffffffffffffffffffffffffffffffffffffff021916908373ffffffffffffffffffffffffffffffffffffffff16021790555050610108565b600080fd5b600073ffffffffffffffffffffffffffffffffffffffff82169050919050565b60006100a88261007d565b9050919050565b6100b88161009d565b81146100c357600080fd5b50565b6000815190506100d5816100af565b92915050565b6000602082840312156100f1576100f0610078565b5b60006100ff848285016100c6565b91505092915050565b610891806101176000396000f3fe608060405234801561001057600080fd5b50600436106100365760003560e01c80632bd94e9c1461003b578063fc0c546a14610057575b600080fd5b610055600480360381019061005091906104b7565b610075565b005b61005f610390565b60405161006c919061058a565b60405180910390f35b60008060009054906101000a900473ffffffffffffffffffffffffffffffffffffffff1673ffffffffffffffffffffffffffffffffffffffff166370a08231306040518263ffffffff1660e01b81526004016100d191906105b4565b602060405180830381865afa1580156100ee573d6000803e3d6000fd5b505050506040513d601f19601f8201168201806040525081019061011291906105e4565b905084811015610157576040517f08c379a000000000000000000000000000000000000000000000000000000000815260040161014e9061066e565b60405180910390fd5b60008054906101000a900473ffffffffffffffffffffffffffffffffffffffff1673ffffffffffffffffffffffffffffffffffffffff1663a9059cbb33876040518363ffffffff1660e01b81526004016101b292919061069d565b6020604051808303816000875af11580156101d1573d6000803e3d6000fd5b505050506040513d601f19601f820116820180604052508101906101f591906106fe565b5060008473ffffffffffffffffffffffffffffffffffffffff16848460405161021f92919061076a565b6000604051808303816000865af19150503d806000811461025c576040519150601f19603f3d011682016040523d82523d6000602084013e610261565b606091505b50509050806102a5576040517f08c379a000000000000000000000000000000000000000000000000000000000815260040161029c906107cf565b60405180910390fd5b60008060009054906101000a900473ffffffffffffffffffffffffffffffffffffffff1673ffffffffffffffffffffffffffffffffffffffff166370a08231306040518263ffffffff1660e01b815260040161030191906105b4565b602060405180830381865afa15801561031e573d6000803e3d6000fd5b505050506040513d601f19601f8201168201806040525081019061034291906105e4565b905082811015610387576040517f08c379a000000000000000000000000000000000000000000000000000000000815260040161037e9061083b565b60405180910390fd5b50505050505050565b60008054906101000a900473ffffffffffffffffffffffffffffffffffffffff1681565b600080fd5b600080fd5b6000819050919050565b6103d1816103be565b81146103dc57600080fd5b50565b6000813590506103ee816103c8565b92915050565b600073ffffffffffffffffffffffffffffffffffffffff82169050919050565b600061041f826103f4565b9050919050565b61042f81610414565b811461043a57600080fd5b50565b60008135905061044c81610426565b92915050565b600080fd5b600080fd5b600080fd5b60008083601f84011261047757610476610452565b5b8235905067ffffffffffffffff81111561049457610493610457565b5b6020830191508360018202830111156104b0576104af61045c565b5b9250929050565b600080600080606085870312156104d1576104d06103b4565b5b60006104df878288016103df565b94505060206104f08782880161043d565b935050604085013567ffffffffffffffff811115610511576105106103b9565b5b61051d87828801610461565b925092505092959194509250565b6000819050919050565b600061055061054b610546846103f4565b61052b565b6103f4565b9050919050565b600061056282610535565b9050919050565b600061057482610557565b9050919050565b61058481610569565b82525050565b600060208201905061059f600083018461057b565b92915050565b6105ae81610414565b82525050565b60006020820190506105c960008301846105a5565b92915050565b6000815190506105de816103c8565b92915050565b6000602082840312156105fa576105f96103b4565b5b6000610608848285016105cf565b91505092915050565b600082825260208201905092915050565b7f626f72726f7720616d6f756e74203e2062616c616e6365000000000000000000600082015250565b6000610658601783610611565b915061066382610622565b602082019050919050565b600060208201905081810360008301526106878161064b565b9050919050565b610697816103be565b82525050565b60006040820190506106b260008301856105a5565b6106bf602083018461068e565b9392505050565b60008115159050919050565b6106db816106c6565b81146106e657600080fd5b50565b6000815190506106f8816106d2565b92915050565b600060208284031215610714576107136103b4565b5b6000610722848285016106e9565b91505092915050565b600081905092915050565b82818337600083830152505050565b6000610751838561072b565b935061075e838584610736565b82840190509392505050565b6000610777828486610745565b91508190509392505050565b7f6c6f616e206661696c6564000000000000000000000000000000000000000000600082015250565b60006107b9600b83610611565b91506107c482610783565b602082019050919050565b600060208201905081810360008301526107e8816107ac565b9050919050565b7f62616c616e6365206166746572203c206265666f726500000000000000000000600082015250565b6000610825601683610611565b9150610830826107ef565b602082019050919050565b6000602082019050818103600083015261085481610818565b905091905056fea264697066735822122032079ef1ecb1968f0e0754d49a56ad479328382224f47df93ae01efa6bd7d0d864736f6c63430008110033",
  "linkReferences": {},
  "deployedLinkReferences": {}
}