{
  "_format": "hh-sol-artifact-1",
  "contractName": "SendEther",
  "sourceName": "contracts/sending_ether.sol",
  "abi": [
    {
      "inputs": [
        {
          "internalType": "address payable",
          "name": "_to",
          "type": "address"
        },
        {
          "internalType": "uint256",
          "name": "_amount",
          "type": "uint256"
        }
      ],
      "name": "sendEth",
      "outputs": [],
      "stateMutability": "nonpayable",
      "type": "function"
    },
    {
      "inputs": [
        {
          "internalType": "address payable",
          "name": "_to",
          "type": "address"
        }
      ],
      "name": "sendViaCall",
      "outputs": [],
      "stateMutability": "payable",
      "type": "function"
    },
    {
      "inputs": [
        {
          "internalType": "address payable",
          "name": "_to",
          "type": "address"
        }
      ],
      "name": "sendViaSend",
      "outputs": [],
      "stateMutability": "payable",
      "type": "function"
    },
    {
      "inputs": [
        {
          "internalType": "address payable",
          "name": "_to",
          "type": "address"
        }
      ],
      "name": "sendViaTransfer",
      "outputs": [],
      "stateMutability": "payable",
      "type": "function"
    },
    {
      "stateMutability": "payable",
      "type": "receive"
    }
  ],
  "bytecode": "0x608060405234801561001057600080fd5b50610565806100206000396000f3fe6080604052600436106100435760003560e01c806349dcbc5e1461004f578063636e082b1461007857806374be480614610094578063830c29ae146100b05761004a565b3661004a57005b600080fd5b34801561005b57600080fd5b5061007660048036038101906100719190610393565b6100cc565b005b610092600480360381019061008d91906103d3565b610180565b005b6100ae60048036038101906100a991906103d3565b6101ca565b005b6100ca60048036038101906100c591906103d3565b610247565b005b6000808373ffffffffffffffffffffffffffffffffffffffff16836040516100f390610431565b60006040518083038185875af1925050503d8060008114610130576040519150601f19603f3d011682016040523d82523d6000602084013e610135565b606091505b50915091508161017a576040517f08c379a0000000000000000000000000000000000000000000000000000000008152600401610171906104a3565b60405180910390fd5b50505050565b8073ffffffffffffffffffffffffffffffffffffffff166108fc349081150290604051600060405180830381858888f193505050501580156101c6573d6000803e3d6000fd5b5050565b60008173ffffffffffffffffffffffffffffffffffffffff166108fc349081150290604051600060405180830381858888f19350505050905080610243576040517f08c379a000000000000000000000000000000000000000000000000000000000815260040161023a9061050f565b60405180910390fd5b5050565b6000808273ffffffffffffffffffffffffffffffffffffffff163460405161026e90610431565b60006040518083038185875af1925050503d80600081146102ab576040519150601f19603f3d011682016040523d82523d6000602084013e6102b0565b606091505b5091509150816102f5576040517f08c379a00000000000000000000000000000000000000000000000000000000081526004016102ec9061050f565b60405180910390fd5b505050565b600080fd5b600073ffffffffffffffffffffffffffffffffffffffff82169050919050565b600061032a826102ff565b9050919050565b61033a8161031f565b811461034557600080fd5b50565b60008135905061035781610331565b92915050565b6000819050919050565b6103708161035d565b811461037b57600080fd5b50565b60008135905061038d81610367565b92915050565b600080604083850312156103aa576103a96102fa565b5b60006103b885828601610348565b92505060206103c98582860161037e565b9150509250929050565b6000602082840312156103e9576103e86102fa565b5b60006103f784828501610348565b91505092915050565b600081905092915050565b50565b600061041b600083610400565b91506104268261040b565b600082019050919050565b600061043c8261040e565b9150819050919050565b600082825260208201905092915050565b7f4661696c656420746f2073656e64206574686572000000000000000000000000600082015250565b600061048d601483610446565b915061049882610457565b602082019050919050565b600060208201905081810360008301526104bc81610480565b9050919050565b7f4661696c656420746f2073656e64204574686572000000000000000000000000600082015250565b60006104f9601483610446565b9150610504826104c3565b602082019050919050565b60006020820190508181036000830152610528816104ec565b905091905056fea2646970667358221220842eed292ea5d521864ad2b655e9552059ac84d289ed75c4f18bafddf98f895c64736f6c63430008110033",
  "linkReferences": {},
  "deployedLinkReferences": {}
}