{
  "_format": "hh-sol-artifact-1",
  "contractName": "Vault",
  "sourceName": "contracts/vault.sol",
  "abi": [
    {
      "inputs": [
        {
          "internalType": "address",
          "name": "_token",
          "type": "address"
        }
      ],
      "stateMutability": "nonpayable",
      "type": "constructor"
    },
    {
      "inputs": [
        {
          "internalType": "address",
          "name": "",
          "type": "address"
        }
      ],
      "name": "balanceOf",
      "outputs": [
        {
          "internalType": "uint256",
          "name": "",
          "type": "uint256"
        }
      ],
      "stateMutability": "view",
      "type": "function"
    },
    {
      "inputs": [
        {
          "internalType": "uint256",
          "name": "_amount",
          "type": "uint256"
        }
      ],
      "name": "deposit",
      "outputs": [],
      "stateMutability": "nonpayable",
      "type": "function"
    },
    {
      "inputs": [],
      "name": "token",
      "outputs": [
        {
          "internalType": "contract IERC20",
          "name": "",
          "type": "address"
        }
      ],
      "stateMutability": "view",
      "type": "function"
    },
    {
      "inputs": [],
      "name": "totalSupply",
      "outputs": [
        {
          "internalType": "uint256",
          "name": "",
          "type": "uint256"
        }
      ],
      "stateMutability": "view",
      "type": "function"
    },
    {
      "inputs": [
        {
          "internalType": "uint256",
          "name": "_shares",
          "type": "uint256"
        }
      ],
      "name": "withdraw",
      "outputs": [],
      "stateMutability": "nonpayable",
      "type": "function"
    }
  ],
  "bytecode": "0x60a060405234801561001057600080fd5b50604051610b68380380610b68833981810160405281019061003291906100cf565b8073ffffffffffffffffffffffffffffffffffffffff1660808173ffffffffffffffffffffffffffffffffffffffff1681525050506100fc565b600080fd5b600073ffffffffffffffffffffffffffffffffffffffff82169050919050565b600061009c82610071565b9050919050565b6100ac81610091565b81146100b757600080fd5b50565b6000815190506100c9816100a3565b92915050565b6000602082840312156100e5576100e461006c565b5b60006100f3848285016100ba565b91505092915050565b608051610a356101336000396000818161010d015281816101c7015281816102950152818161035401526103f90152610a356000f3fe608060405234801561001057600080fd5b50600436106100575760003560e01c806318160ddd1461005c5780632e1a7d4d1461007a57806370a0823114610096578063b6b55f25146100c6578063fc0c546a146100e2575b600080fd5b610064610100565b604051610071919061059a565b60405180910390f35b610094600480360381019061008f91906105e6565b610106565b005b6100b060048036038101906100ab9190610671565b610268565b6040516100bd919061059a565b60405180910390f35b6100e060048036038101906100db91906105e6565b610280565b005b6100ea6103f7565b6040516100f791906106fd565b60405180910390f35b60005481565b60008054827f000000000000000000000000000000000000000000000000000000000000000073ffffffffffffffffffffffffffffffffffffffff166370a08231306040518263ffffffff1660e01b81526004016101649190610727565b602060405180830381865afa158015610181573d6000803e3d6000fd5b505050506040513d601f19601f820116820180604052508101906101a59190610757565b6101af91906107b3565b6101b99190610824565b90506101c5338361041b565b7f000000000000000000000000000000000000000000000000000000000000000073ffffffffffffffffffffffffffffffffffffffff1663a9059cbb33836040518363ffffffff1660e01b8152600401610220929190610855565b6020604051808303816000875af115801561023f573d6000803e3d6000fd5b505050506040513d601f19601f8201168201806040525081019061026391906108b6565b505050565b60016020528060005260406000206000915090505481565b6000806000540361029357819050610348565b7f000000000000000000000000000000000000000000000000000000000000000073ffffffffffffffffffffffffffffffffffffffff166370a08231306040518263ffffffff1660e01b81526004016102ec9190610727565b602060405180830381865afa158015610309573d6000803e3d6000fd5b505050506040513d601f19601f8201168201806040525081019061032d9190610757565b6000548361033b91906107b3565b6103459190610824565b90505b610352338261050f565b7f000000000000000000000000000000000000000000000000000000000000000073ffffffffffffffffffffffffffffffffffffffff166323b872dd3330856040518463ffffffff1660e01b81526004016103af939291906108e3565b6020604051808303816000875af11580156103ce573d6000803e3d6000fd5b505050506040513d601f19601f820116820180604052508101906103f291906108b6565b505050565b7f000000000000000000000000000000000000000000000000000000000000000081565b80600160008473ffffffffffffffffffffffffffffffffffffffff1673ffffffffffffffffffffffffffffffffffffffff16815260200190815260200160002054101561049d576040517f08c379a000000000000000000000000000000000000000000000000000000000815260040161049490610977565b60405180910390fd5b80600160008473ffffffffffffffffffffffffffffffffffffffff1673ffffffffffffffffffffffffffffffffffffffff16815260200190815260200160002060008282546104ec9190610997565b92505081905550806000808282546105049190610997565b925050819055505050565b80600160008473ffffffffffffffffffffffffffffffffffffffff1673ffffffffffffffffffffffffffffffffffffffff168152602001908152602001600020600082825461055e91906109cb565b925050819055508060008082825461057691906109cb565b925050819055505050565b6000819050919050565b61059481610581565b82525050565b60006020820190506105af600083018461058b565b92915050565b600080fd5b6105c381610581565b81146105ce57600080fd5b50565b6000813590506105e0816105ba565b92915050565b6000602082840312156105fc576105fb6105b5565b5b600061060a848285016105d1565b91505092915050565b600073ffffffffffffffffffffffffffffffffffffffff82169050919050565b600061063e82610613565b9050919050565b61064e81610633565b811461065957600080fd5b50565b60008135905061066b81610645565b92915050565b600060208284031215610687576106866105b5565b5b60006106958482850161065c565b91505092915050565b6000819050919050565b60006106c36106be6106b984610613565b61069e565b610613565b9050919050565b60006106d5826106a8565b9050919050565b60006106e7826106ca565b9050919050565b6106f7816106dc565b82525050565b600060208201905061071260008301846106ee565b92915050565b61072181610633565b82525050565b600060208201905061073c6000830184610718565b92915050565b600081519050610751816105ba565b92915050565b60006020828403121561076d5761076c6105b5565b5b600061077b84828501610742565b91505092915050565b7f4e487b7100000000000000000000000000000000000000000000000000000000600052601160045260246000fd5b60006107be82610581565b91506107c983610581565b92508282026107d781610581565b915082820484148315176107ee576107ed610784565b5b5092915050565b7f4e487b7100000000000000000000000000000000000000000000000000000000600052601260045260246000fd5b600061082f82610581565b915061083a83610581565b92508261084a576108496107f5565b5b828204905092915050565b600060408201905061086a6000830185610718565b610877602083018461058b565b9392505050565b60008115159050919050565b6108938161087e565b811461089e57600080fd5b50565b6000815190506108b08161088a565b92915050565b6000602082840312156108cc576108cb6105b5565b5b60006108da848285016108a1565b91505092915050565b60006060820190506108f86000830186610718565b6109056020830185610718565b610912604083018461058b565b949350505050565b600082825260208201905092915050565b7f4e6f7420656e6f7567682066756e647300000000000000000000000000000000600082015250565b600061096160108361091a565b915061096c8261092b565b602082019050919050565b6000602082019050818103600083015261099081610954565b9050919050565b60006109a282610581565b91506109ad83610581565b92508282039050818111156109c5576109c4610784565b5b92915050565b60006109d682610581565b91506109e183610581565b92508282019050808211156109f9576109f8610784565b5b9291505056fea26469706673582212201009860dec41d5e098c488968d939c75aedc79559b81dfd308b87633ac6b335764736f6c63430008110033",
  "linkReferences": {},
  "deployedLinkReferences": {}
}