{
  "_format": "hh-sol-artifact-1",
  "contractName": "SevenEth",
  "sourceName": "contracts/seven_eth.sol",
  "abi": [
    {
      "inputs": [],
      "name": "play",
      "outputs": [],
      "stateMutability": "payable",
      "type": "function"
    }
  ],
  "bytecode": "0x608060405234801561001057600080fd5b50610248806100206000396000f3fe60806040526004361061001e5760003560e01c806393e84cd914610023575b600080fd5b61002b61002d565b005b670de0b6b3a76400003414610077576040517f08c379a000000000000000000000000000000000000000000000000000000000815260040161006e90610186565b60405180910390fd5b6000479050676124fee993bc00008111156100c7576040517f08c379a00000000000000000000000000000000000000000000000000000000081526004016100be906101f2565b60405180910390fd5b676124fee993bc00008103610126573373ffffffffffffffffffffffffffffffffffffffff166108fc676124fee993bc00009081150290604051600060405180830381858888f19350505050158015610124573d6000803e3d6000fd5b505b50565b600082825260208201905092915050565b7f6e6f742031206574686572000000000000000000000000000000000000000000600082015250565b6000610170600b83610129565b915061017b8261013a565b602082019050919050565b6000602082019050818103600083015261019f81610163565b9050919050565b7f67616d65206f7665720000000000000000000000000000000000000000000000600082015250565b60006101dc600983610129565b91506101e7826101a6565b602082019050919050565b6000602082019050818103600083015261020b816101cf565b905091905056fea2646970667358221220d117984772fbd9d815b13b2dbfc0d5c95224d253f8d0de723e57948249ab8b7f64736f6c63430008110033",
  "linkReferences": {},
  "deployedLinkReferences": {}
}