{"contracts/coin_flip.sol":{"CoinFlip":{"abi":[{"inputs":[],"stateMutability":"nonpayable","type":"constructor"},{"inputs":[{"internalType":"uint256","name":"","type":"uint256"}],"name":"amounts","outputs":[{"internalType":"uint256","name":"","type":"uint256"}],"stateMutability":"view","type":"function"},{"inputs":[],"name":"denominator","outputs":[{"internalType":"uint256","name":"","type":"uint256"}],"stateMutability":"view","type":"function"},{"inputs":[{"internalType":"uint256","name":"requestId","type":"uint256"},{"internalType":"uint256","name":"random_number","type":"uint256"}],"name":"flip_result","outputs":[],"stateMutability":"nonpayable","type":"function"},{"inputs":[{"internalType":"uint256","name":"","type":"uint256"}],"name":"games","outputs":[{"internalType":"address","name":"player","type":"address"},{"internalType":"uint256","name":"bet","type":"uint256"},{"internalType":"uint256","name":"amount","type":"uint256"},{"internalType":"bool","name":"ended","type":"bool"}],"stateMutability":"view","type":"function"},{"inputs":[],"name":"owner","outputs":[{"internalType":"address","name":"","type":"address"}],"stateMutability":"view","type":"function"},{"inputs":[{"internalType":"uint256","name":"_bet","type":"uint256"}],"name":"play","outputs":[],"stateMutability":"payable","type":"function"},{"inputs":[],"name":"playing","outputs":[{"internalType":"bool","name":"","type":"bool"}],"stateMutability":"view","type":"function"},{"inputs":[],"name":"randomness_contract","outputs":[{"internalType":"contract RandomNumberConsumer","name":"","type":"address"}],"stateMutability":"view","type":"function"},{"inputs":[],"name":"winning_fee","outputs":[{"internalType":"uint256","name":"","type":"uint256"}],"stateMutability":"view","type":"function"}],"evm":{"bytecode":{"linkReferences":{},"object":"6080604052604051806060016040528067016345785d8a000067ffffffffffffffff1681526020016706f05b59d3b2000067ffffffffffffffff168152602001670de0b6b3a764000067ffffffffffffffff1681525060019060036100659291906100c5565b506101f46002556103e860035534801561007e57600080fd5b5033600560016101000a81548173ffffffffffffffffffffffffffffffffffffffff021916908373ffffffffffffffffffffffffffffffffffffffff16021790555061013b565b82805482825590600052602060002090810192821561010d579160200282015b8281111561010c578251829067ffffffffffffffff169055916020019190600101906100e5565b5b50905061011a919061011e565b5090565b5b8082111561013757600081600090555060010161011f565b5090565b6110858061014a6000396000f3fe6080604052600436106100865760003560e01c80636898f82b116100595780636898f82b1461015c5780636a7223fc146101785780638da5cb5b146101a357806396ce0795146101ce578063d57dd710146101f957610086565b8063117a5b901461008b57806336b3c80f146100cb57806345f0a44f146100f6578063585d458614610133575b600080fd5b34801561009757600080fd5b506100b260048036038101906100ad9190610940565b610224565b6040516100c294939291906109d8565b60405180910390f35b3480156100d757600080fd5b506100e0610281565b6040516100ed9190610a1d565b60405180910390f35b34801561010257600080fd5b5061011d60048036038101906101189190610940565b610287565b60405161012a9190610a1d565b60405180910390f35b34801561013f57600080fd5b5061015a60048036038101906101559190610a38565b6102ab565b005b61017660048036038101906101719190610940565b610594565b005b34801561018457600080fd5b5061018d6108a2565b60405161019a9190610ad7565b60405180910390f35b3480156101af57600080fd5b506101b86108c6565b6040516101c59190610af2565b60405180910390f35b3480156101da57600080fd5b506101e36108ec565b6040516101f09190610a1d565b60405180910390f35b34801561020557600080fd5b5061020e6108f2565b60405161021b9190610b0d565b60405180910390f35b60046020528060005260406000206000915090508060000160009054906101000a900473ffffffffffffffffffffffffffffffffffffffff16908060010154908060020154908060030160009054906101000a900460ff16905084565b60025481565b6001818154811061029757600080fd5b906000526020600020016000915090505481565b60008054906101000a900473ffffffffffffffffffffffffffffffffffffffff1673ffffffffffffffffffffffffffffffffffffffff163373ffffffffffffffffffffffffffffffffffffffff1614610339576040517f08c379a000000000000000000000000000000000000000000000000000000000815260040161033090610bab565b60405180910390fd5b600015156004600084815260200190815260200160002060030160009054906101000a900460ff161515146103a3576040517f08c379a000000000000000000000000000000000000000000000000000000000815260040161039a90610c17565b60405180910390fd5b600073ffffffffffffffffffffffffffffffffffffffff166004600084815260200190815260200160002060000160009054906101000a900473ffffffffffffffffffffffffffffffffffffffff1673ffffffffffffffffffffffffffffffffffffffff1603610448576040517f08c379a000000000000000000000000000000000000000000000000000000000815260040161043f90610c83565b60405180910390fd5b60046000838152602001908152602001600020600201544710156104a1576040517f08c379a000000000000000000000000000000000000000000000000000000000815260040161049890610cef565b60405180910390fd5b60006002826104b09190610d3e565b90506004600084815260200190815260200160002060010154810361058f5760006003546002546104e19190610d9e565b60026104ed9190610dcf565b600460008681526020019081526020016000206002015461050e9190610e03565b90506004600085815260200190815260200160002060000160009054906101000a900473ffffffffffffffffffffffffffffffffffffffff1673ffffffffffffffffffffffffffffffffffffffff166108fc829081150290604051600060405180830381858888f1935050505015801561058c573d6000803e3d6000fd5b50505b505050565b600560009054906101000a900460ff16156105e4576040517f08c379a00000000000000000000000000000000000000000000000000000000081526004016105db90610e91565b60405180910390fd5b6001600560006101000a81548160ff0219169083151502179055506000600181111561061357610612610eb1565b5b811480610631575060018081111561062e5761062d610eb1565b5b81145b610670576040517f08c379a000000000000000000000000000000000000000000000000000000000815260040161066790610f52565b60405180910390fd5b600160008154811061068557610684610f72565b5b90600052602060002001543414806106ba5750600180815481106106ac576106ab610f72565b5b906000526020600020015434145b806106e3575060016002815481106106d5576106d4610f72565b5b906000526020600020015434145b610722576040517f08c379a000000000000000000000000000000000000000000000000000000000815260040161071990610fed565b60405180910390fd5b60008060009054906101000a900473ffffffffffffffffffffffffffffffffffffffff1673ffffffffffffffffffffffffffffffffffffffff1663aacc5a176040518163ffffffff1660e01b81526004016020604051808303816000875af1158015610792573d6000803e3d6000fd5b505050506040513d601f19601f820116820180604052508101906107b69190611022565b905060405180608001604052803373ffffffffffffffffffffffffffffffffffffffff168152602001838152602001348152602001600015158152506004600083815260200190815260200160002060008201518160000160006101000a81548173ffffffffffffffffffffffffffffffffffffffff021916908373ffffffffffffffffffffffffffffffffffffffff160217905550602082015181600101556040820151816002015560608201518160030160006101000a81548160ff021916908315150217905550905050506000600560006101000a81548160ff02191690831515021790555050565b60008054906101000a900473ffffffffffffffffffffffffffffffffffffffff1681565b600560019054906101000a900473ffffffffffffffffffffffffffffffffffffffff1681565b60035481565b600560009054906101000a900460ff1681565b600080fd5b6000819050919050565b61091d8161090a565b811461092857600080fd5b50565b60008135905061093a81610914565b92915050565b60006020828403121561095657610955610905565b5b60006109648482850161092b565b91505092915050565b600073ffffffffffffffffffffffffffffffffffffffff82169050919050565b60006109988261096d565b9050919050565b6109a88161098d565b82525050565b6109b78161090a565b82525050565b60008115159050919050565b6109d2816109bd565b82525050565b60006080820190506109ed600083018761099f565b6109fa60208301866109ae565b610a0760408301856109ae565b610a1460608301846109c9565b95945050505050565b6000602082019050610a3260008301846109ae565b92915050565b60008060408385031215610a4f57610a4e610905565b5b6000610a5d8582860161092b565b9250506020610a6e8582860161092b565b9150509250929050565b6000819050919050565b6000610a9d610a98610a938461096d565b610a78565b61096d565b9050919050565b6000610aaf82610a82565b9050919050565b6000610ac182610aa4565b9050919050565b610ad181610ab6565b82525050565b6000602082019050610aec6000830184610ac8565b92915050565b6000602082019050610b07600083018461099f565b92915050565b6000602082019050610b2260008301846109c9565b92915050565b600082825260208201905092915050565b7f4f6e6c79207468652052616e646f6d4e756d626572436f6e73756d657220636f60008201527f6e74726163742063616e2063616c6c20746869732066756e6374696f6e000000602082015250565b6000610b95603d83610b28565b9150610ba082610b39565b604082019050919050565b60006020820190508181036000830152610bc481610b88565b9050919050565b7f47616d6520616c726561647920656e6465640000000000000000000000000000600082015250565b6000610c01601283610b28565b9150610c0c82610bcb565b602082019050919050565b60006020820190508181036000830152610c3081610bf4565b9050919050565b7f4e6f2067616d6520666f756e6420776974682074686973206964000000000000600082015250565b6000610c6d601a83610b28565b9150610c7882610c37565b602082019050919050565b60006020820190508181036000830152610c9c81610c60565b9050919050565b7f436f6e74726163742062616c616e636520746f6f206c6f770000000000000000600082015250565b6000610cd9601883610b28565b9150610ce482610ca3565b602082019050919050565b60006020820190508181036000830152610d0881610ccc565b9050919050565b7f4e487b7100000000000000000000000000000000000000000000000000000000600052601260045260246000fd5b6000610d498261090a565b9150610d548361090a565b925082610d6457610d63610d0f565b5b828206905092915050565b7f4e487b7100000000000000000000000000000000000000000000000000000000600052601160045260246000fd5b6000610da98261090a565b9150610db48361090a565b925082610dc457610dc3610d0f565b5b828204905092915050565b6000610dda8261090a565b9150610de58361090a565b9250828203905081811115610dfd57610dfc610d6f565b5b92915050565b6000610e0e8261090a565b9150610e198361090a565b9250828202610e278161090a565b91508282048414831517610e3e57610e3d610d6f565b5b5092915050565b7f416c726561647920706c6179696e672e00000000000000000000000000000000600082015250565b6000610e7b601083610b28565b9150610e8682610e45565b602082019050919050565b60006020820190508181036000830152610eaa81610e6e565b9050919050565b7f4e487b7100000000000000000000000000000000000000000000000000000000600052602160045260246000fd5b7f596f75206d75737420677565737320656974686572206865616473206f72207460008201527f61696c7300000000000000000000000000000000000000000000000000000000602082015250565b6000610f3c602483610b28565b9150610f4782610ee0565b604082019050919050565b60006020820190508181036000830152610f6b81610f2f565b9050919050565b7f4e487b7100000000000000000000000000000000000000000000000000000000600052603260045260246000fd5b7f416d6f756e742073656e74206e6f7420636f7272656374000000000000000000600082015250565b6000610fd7601783610b28565b9150610fe282610fa1565b602082019050919050565b6000602082019050818103600083015261100681610fca565b9050919050565b60008151905061101c81610914565b92915050565b60006020828403121561103857611037610905565b5b60006110468482850161100d565b9150509291505056fea2646970667358221220ddb27b5067382da621c08381b992f798cc7a41e30ffe58ce2769ed9dba95cef964736f6c63430008110033","opcodes":"PUSH1 0x80 PUSH1 0x40 MSTORE PUSH1 0x40 MLOAD DUP1 PUSH1 0x60 ADD PUSH1 0x40 MSTORE DUP1 PUSH8 0x16345785D8A0000 PUSH8 0xFFFFFFFFFFFFFFFF AND DUP2 MSTORE PUSH1 0x20 ADD PUSH8 0x6F05B59D3B20000 PUSH8 0xFFFFFFFFFFFFFFFF AND DUP2 MSTORE PUSH1 0x20 ADD PUSH8 0xDE0B6B3A7640000 PUSH8 0xFFFFFFFFFFFFFFFF AND DUP2 MSTORE POP PUSH1 0x1 SWAP1 PUSH1 0x3 PUSH2 0x65 SWAP3 SWAP2 SWAP1 PUSH2 0xC5 JUMP JUMPDEST POP PUSH2 0x1F4 PUSH1 0x2 SSTORE PUSH2 0x3E8 PUSH1 0x3 SSTORE CALLVALUE DUP1 ISZERO PUSH2 0x7E JUMPI PUSH1 0x0 DUP1 REVERT JUMPDEST POP CALLER PUSH1 0x5 PUSH1 0x1 PUSH2 0x100 EXP DUP2 SLOAD DUP2 PUSH20 0xFFFFFFFFFFFFFFFFFFFFFFFFFFFFFFFFFFFFFFFF MUL NOT AND SWAP1 DUP4 PUSH20 0xFFFFFFFFFFFFFFFFFFFFFFFFFFFFFFFFFFFFFFFF AND MUL OR SWAP1 SSTORE POP PUSH2 0x13B JUMP JUMPDEST DUP3 DUP1 SLOAD DUP3 DUP3 SSTORE SWAP1 PUSH1 0x0 MSTORE PUSH1 0x20 PUSH1 0x0 KECCAK256 SWAP1 DUP2 ADD SWAP3 DUP3 ISZERO PUSH2 0x10D JUMPI SWAP2 PUSH1 0x20 MUL DUP3 ADD JUMPDEST DUP3 DUP2 GT ISZERO PUSH2 0x10C JUMPI DUP3 MLOAD DUP3 SWAP1 PUSH8 0xFFFFFFFFFFFFFFFF AND SWAP1 SSTORE SWAP2 PUSH1 0x20 ADD SWAP2 SWAP1 PUSH1 0x1 ADD SWAP1 PUSH2 0xE5 JUMP JUMPDEST JUMPDEST POP SWAP1 POP PUSH2 0x11A SWAP2 SWAP1 PUSH2 0x11E JUMP JUMPDEST POP SWAP1 JUMP JUMPDEST JUMPDEST DUP1 DUP3 GT ISZERO PUSH2 0x137 JUMPI PUSH1 0x0 DUP2 PUSH1 0x0 SWAP1 SSTORE POP PUSH1 0x1 ADD PUSH2 0x11F JUMP JUMPDEST POP SWAP1 JUMP JUMPDEST PUSH2 0x1085 DUP1 PUSH2 0x14A PUSH1 0x0 CODECOPY PUSH1 0x0 RETURN INVALID PUSH1 0x80 PUSH1 0x40 MSTORE PUSH1 0x4 CALLDATASIZE LT PUSH2 0x86 JUMPI PUSH1 0x0 CALLDATALOAD PUSH1 0xE0 SHR DUP1 PUSH4 0x6898F82B GT PUSH2 0x59 JUMPI DUP1 PUSH4 0x6898F82B EQ PUSH2 0x15C JUMPI DUP1 PUSH4 0x6A7223FC EQ PUSH2 0x178 JUMPI DUP1 PUSH4 0x8DA5CB5B EQ PUSH2 0x1A3 JUMPI DUP1 PUSH4 0x96CE0795 EQ PUSH2 0x1CE JUMPI DUP1 PUSH4 0xD57DD710 EQ PUSH2 0x1F9 JUMPI PUSH2 0x86 JUMP JUMPDEST DUP1 PUSH4 0x117A5B90 EQ PUSH2 0x8B JUMPI DUP1 PUSH4 0x36B3C80F EQ PUSH2 0xCB JUMPI DUP1 PUSH4 0x45F0A44F EQ PUSH2 0xF6 JUMPI DUP1 PUSH4 0x585D4586 EQ PUSH2 0x133 JUMPI JUMPDEST PUSH1 0x0 DUP1 REVERT JUMPDEST CALLVALUE DUP1 ISZERO PUSH2 0x97 JUMPI PUSH1 0x0 DUP1 REVERT JUMPDEST POP PUSH2 0xB2 PUSH1 0x4 DUP1 CALLDATASIZE SUB DUP2 ADD SWAP1 PUSH2 0xAD SWAP2 SWAP1 PUSH2 0x940 JUMP JUMPDEST PUSH2 0x224 JUMP JUMPDEST PUSH1 0x40 MLOAD PUSH2 0xC2 SWAP5 SWAP4 SWAP3 SWAP2 SWAP1 PUSH2 0x9D8 JUMP JUMPDEST PUSH1 0x40 MLOAD DUP1 SWAP2 SUB SWAP1 RETURN JUMPDEST CALLVALUE DUP1 ISZERO PUSH2 0xD7 JUMPI PUSH1 0x0 DUP1 REVERT JUMPDEST POP PUSH2 0xE0 PUSH2 0x281 JUMP JUMPDEST PUSH1 0x40 MLOAD PUSH2 0xED SWAP2 SWAP1 PUSH2 0xA1D JUMP JUMPDEST PUSH1 0x40 MLOAD DUP1 SWAP2 SUB SWAP1 RETURN JUMPDEST CALLVALUE DUP1 ISZERO PUSH2 0x102 JUMPI PUSH1 0x0 DUP1 REVERT JUMPDEST POP PUSH2 0x11D PUSH1 0x4 DUP1 CALLDATASIZE SUB DUP2 ADD SWAP1 PUSH2 0x118 SWAP2 SWAP1 PUSH2 0x940 JUMP JUMPDEST PUSH2 0x287 JUMP JUMPDEST PUSH1 0x40 MLOAD PUSH2 0x12A SWAP2 SWAP1 PUSH2 0xA1D JUMP JUMPDEST PUSH1 0x40 MLOAD DUP1 SWAP2 SUB SWAP1 RETURN JUMPDEST CALLVALUE DUP1 ISZERO PUSH2 0x13F JUMPI PUSH1 0x0 DUP1 REVERT JUMPDEST POP PUSH2 0x15A PUSH1 0x4 DUP1 CALLDATASIZE SUB DUP2 ADD SWAP1 PUSH2 0x155 SWAP2 SWAP1 PUSH2 0xA38 JUMP JUMPDEST PUSH2 0x2AB JUMP JUMPDEST STOP JUMPDEST PUSH2 0x176 PUSH1 0x4 DUP1 CALLDATASIZE SUB DUP2 ADD SWAP1 PUSH2 0x171 SWAP2 SWAP1 PUSH2 0x940 JUMP JUMPDEST PUSH2 0x594 JUMP JUMPDEST STOP JUMPDEST CALLVALUE DUP1 ISZERO PUSH2 0x184 JUMPI PUSH1 0x0 DUP1 REVERT JUMPDEST POP PUSH2 0x18D PUSH2 0x8A2 JUMP JUMPDEST PUSH1 0x40 MLOAD PUSH2 0x19A SWAP2 SWAP1 PUSH2 0xAD7 JUMP JUMPDEST PUSH1 0x40 MLOAD DUP1 SWAP2 SUB SWAP1 RETURN JUMPDEST CALLVALUE DUP1 ISZERO PUSH2 0x1AF JUMPI PUSH1 0x0 DUP1 REVERT JUMPDEST POP PUSH2 0x1B8 PUSH2 0x8C6 JUMP JUMPDEST PUSH1 0x40 MLOAD PUSH2 0x1C5 SWAP2 SWAP1 PUSH2 0xAF2 JUMP JUMPDEST PUSH1 0x40 MLOAD DUP1 SWAP2 SUB SWAP1 RETURN JUMPDEST CALLVALUE DUP1 ISZERO PUSH2 0x1DA JUMPI PUSH1 0x0 DUP1 REVERT JUMPDEST POP PUSH2 0x1E3 PUSH2 0x8EC JUMP JUMPDEST PUSH1 0x40 MLOAD PUSH2 0x1F0 SWAP2 SWAP1 PUSH2 0xA1D JUMP JUMPDEST PUSH1 0x40 MLOAD DUP1 SWAP2 SUB SWAP1 RETURN JUMPDEST CALLVALUE DUP1 ISZERO PUSH2 0x205 JUMPI PUSH1 0x0 DUP1 REVERT JUMPDEST POP PUSH2 0x20E PUSH2 0x8F2 JUMP JUMPDEST PUSH1 0x40 MLOAD PUSH2 0x21B SWAP2 SWAP1 PUSH2 0xB0D JUMP JUMPDEST PUSH1 0x40 MLOAD DUP1 SWAP2 SUB SWAP1 RETURN JUMPDEST PUSH1 0x4 PUSH1 0x20 MSTORE DUP1 PUSH1 0x0 MSTORE PUSH1 0x40 PUSH1 0x0 KECCAK256 PUSH1 0x0 SWAP2 POP SWAP1 POP DUP1 PUSH1 0x0 ADD PUSH1 0x0 SWAP1 SLOAD SWAP1 PUSH2 0x100 EXP SWAP1 DIV PUSH20 0xFFFFFFFFFFFFFFFFFFFFFFFFFFFFFFFFFFFFFFFF AND SWAP1 DUP1 PUSH1 0x1 ADD SLOAD SWAP1 DUP1 PUSH1 0x2 ADD SLOAD SWAP1 DUP1 PUSH1 0x3 ADD PUSH1 0x0 SWAP1 SLOAD SWAP1 PUSH2 0x100 EXP SWAP1 DIV PUSH1 0xFF AND SWAP1 POP DUP5 JUMP JUMPDEST PUSH1 0x2 SLOAD DUP2 JUMP JUMPDEST PUSH1 0x1 DUP2 DUP2 SLOAD DUP2 LT PUSH2 0x297 JUMPI PUSH1 0x0 DUP1 REVERT JUMPDEST SWAP1 PUSH1 0x0 MSTORE PUSH1 0x20 PUSH1 0x0 KECCAK256 ADD PUSH1 0x0 SWAP2 POP SWAP1 POP SLOAD DUP2 JUMP JUMPDEST PUSH1 0x0 DUP1 SLOAD SWAP1 PUSH2 0x100 EXP SWAP1 DIV PUSH20 0xFFFFFFFFFFFFFFFFFFFFFFFFFFFFFFFFFFFFFFFF AND PUSH20 0xFFFFFFFFFFFFFFFFFFFFFFFFFFFFFFFFFFFFFFFF AND CALLER PUSH20 0xFFFFFFFFFFFFFFFFFFFFFFFFFFFFFFFFFFFFFFFF AND EQ PUSH2 0x339 JUMPI PUSH1 0x40 MLOAD PUSH32 0x8C379A000000000000000000000000000000000000000000000000000000000 DUP2 MSTORE PUSH1 0x4 ADD PUSH2 0x330 SWAP1 PUSH2 0xBAB JUMP JUMPDEST PUSH1 0x40 MLOAD DUP1 SWAP2 SUB SWAP1 REVERT JUMPDEST PUSH1 0x0 ISZERO ISZERO PUSH1 0x4 PUSH1 0x0 DUP5 DUP2 MSTORE PUSH1 0x20 ADD SWAP1 DUP2 MSTORE PUSH1 0x20 ADD PUSH1 0x0 KECCAK256 PUSH1 0x3 ADD PUSH1 0x0 SWAP1 SLOAD SWAP1 PUSH2 0x100 EXP SWAP1 DIV PUSH1 0xFF AND ISZERO ISZERO EQ PUSH2 0x3A3 JUMPI PUSH1 0x40 MLOAD PUSH32 0x8C379A000000000000000000000000000000000000000000000000000000000 DUP2 MSTORE PUSH1 0x4 ADD PUSH2 0x39A SWAP1 PUSH2 0xC17 JUMP JUMPDEST PUSH1 0x40 MLOAD DUP1 SWAP2 SUB SWAP1 REVERT JUMPDEST PUSH1 0x0 PUSH20 0xFFFFFFFFFFFFFFFFFFFFFFFFFFFFFFFFFFFFFFFF AND PUSH1 0x4 PUSH1 0x0 DUP5 DUP2 MSTORE PUSH1 0x20 ADD SWAP1 DUP2 MSTORE PUSH1 0x20 ADD PUSH1 0x0 KECCAK256 PUSH1 0x0 ADD PUSH1 0x0 SWAP1 SLOAD SWAP1 PUSH2 0x100 EXP SWAP1 DIV PUSH20 0xFFFFFFFFFFFFFFFFFFFFFFFFFFFFFFFFFFFFFFFF AND PUSH20 0xFFFFFFFFFFFFFFFFFFFFFFFFFFFFFFFFFFFFFFFF AND SUB PUSH2 0x448 JUMPI PUSH1 0x40 MLOAD PUSH32 0x8C379A000000000000000000000000000000000000000000000000000000000 DUP2 MSTORE PUSH1 0x4 ADD PUSH2 0x43F SWAP1 PUSH2 0xC83 JUMP JUMPDEST PUSH1 0x40 MLOAD DUP1 SWAP2 SUB SWAP1 REVERT JUMPDEST PUSH1 0x4 PUSH1 0x0 DUP4 DUP2 MSTORE PUSH1 0x20 ADD SWAP1 DUP2 MSTORE PUSH1 0x20 ADD PUSH1 0x0 KECCAK256 PUSH1 0x2 ADD SLOAD SELFBALANCE LT ISZERO PUSH2 0x4A1 JUMPI PUSH1 0x40 MLOAD PUSH32 0x8C379A000000000000000000000000000000000000000000000000000000000 DUP2 MSTORE PUSH1 0x4 ADD PUSH2 0x498 SWAP1 PUSH2 0xCEF JUMP JUMPDEST PUSH1 0x40 MLOAD DUP1 SWAP2 SUB SWAP1 REVERT JUMPDEST PUSH1 0x0 PUSH1 0x2 DUP3 PUSH2 0x4B0 SWAP2 SWAP1 PUSH2 0xD3E JUMP JUMPDEST SWAP1 POP PUSH1 0x4 PUSH1 0x0 DUP5 DUP2 MSTORE PUSH1 0x20 ADD SWAP1 DUP2 MSTORE PUSH1 0x20 ADD PUSH1 0x0 KECCAK256 PUSH1 0x1 ADD SLOAD DUP2 SUB PUSH2 0x58F JUMPI PUSH1 0x0 PUSH1 0x3 SLOAD PUSH1 0x2 SLOAD PUSH2 0x4E1 SWAP2 SWAP1 PUSH2 0xD9E JUMP JUMPDEST PUSH1 0x2 PUSH2 0x4ED SWAP2 SWAP1 PUSH2 0xDCF JUMP JUMPDEST PUSH1 0x4 PUSH1 0x0 DUP7 DUP2 MSTORE PUSH1 0x20 ADD SWAP1 DUP2 MSTORE PUSH1 0x20 ADD PUSH1 0x0 KECCAK256 PUSH1 0x2 ADD SLOAD PUSH2 0x50E SWAP2 SWAP1 PUSH2 0xE03 JUMP JUMPDEST SWAP1 POP PUSH1 0x4 PUSH1 0x0 DUP6 DUP2 MSTORE PUSH1 0x20 ADD SWAP1 DUP2 MSTORE PUSH1 0x20 ADD PUSH1 0x0 KECCAK256 PUSH1 0x0 ADD PUSH1 0x0 SWAP1 SLOAD SWAP1 PUSH2 0x100 EXP SWAP1 DIV PUSH20 0xFFFFFFFFFFFFFFFFFFFFFFFFFFFFFFFFFFFFFFFF AND PUSH20 0xFFFFFFFFFFFFFFFFFFFFFFFFFFFFFFFFFFFFFFFF AND PUSH2 0x8FC DUP3 SWAP1 DUP2 ISZERO MUL SWAP1 PUSH1 0x40 MLOAD PUSH1 0x0 PUSH1 0x40 MLOAD DUP1 DUP4 SUB DUP2 DUP6 DUP9 DUP9 CALL SWAP4 POP POP POP POP ISZERO DUP1 ISZERO PUSH2 0x58C JUMPI RETURNDATASIZE PUSH1 0x0 DUP1 RETURNDATACOPY RETURNDATASIZE PUSH1 0x0 REVERT JUMPDEST POP POP JUMPDEST POP POP POP JUMP JUMPDEST PUSH1 0x5 PUSH1 0x0 SWAP1 SLOAD SWAP1 PUSH2 0x100 EXP SWAP1 DIV PUSH1 0xFF AND ISZERO PUSH2 0x5E4 JUMPI PUSH1 0x40 MLOAD PUSH32 0x8C379A000000000000000000000000000000000000000000000000000000000 DUP2 MSTORE PUSH1 0x4 ADD PUSH2 0x5DB SWAP1 PUSH2 0xE91 JUMP JUMPDEST PUSH1 0x40 MLOAD DUP1 SWAP2 SUB SWAP1 REVERT JUMPDEST PUSH1 0x1 PUSH1 0x5 PUSH1 0x0 PUSH2 0x100 EXP DUP2 SLOAD DUP2 PUSH1 0xFF MUL NOT AND SWAP1 DUP4 ISZERO ISZERO MUL OR SWAP1 SSTORE POP PUSH1 0x0 PUSH1 0x1 DUP2 GT ISZERO PUSH2 0x613 JUMPI PUSH2 0x612 PUSH2 0xEB1 JUMP JUMPDEST JUMPDEST DUP2 EQ DUP1 PUSH2 0x631 JUMPI POP PUSH1 0x1 DUP1 DUP2 GT ISZERO PUSH2 0x62E JUMPI PUSH2 0x62D PUSH2 0xEB1 JUMP JUMPDEST JUMPDEST DUP2 EQ JUMPDEST PUSH2 0x670 JUMPI PUSH1 0x40 MLOAD PUSH32 0x8C379A000000000000000000000000000000000000000000000000000000000 DUP2 MSTORE PUSH1 0x4 ADD PUSH2 0x667 SWAP1 PUSH2 0xF52 JUMP JUMPDEST PUSH1 0x40 MLOAD DUP1 SWAP2 SUB SWAP1 REVERT JUMPDEST PUSH1 0x1 PUSH1 0x0 DUP2 SLOAD DUP2 LT PUSH2 0x685 JUMPI PUSH2 0x684 PUSH2 0xF72 JUMP JUMPDEST JUMPDEST SWAP1 PUSH1 0x0 MSTORE PUSH1 0x20 PUSH1 0x0 KECCAK256 ADD SLOAD CALLVALUE EQ DUP1 PUSH2 0x6BA JUMPI POP PUSH1 0x1 DUP1 DUP2 SLOAD DUP2 LT PUSH2 0x6AC JUMPI PUSH2 0x6AB PUSH2 0xF72 JUMP JUMPDEST JUMPDEST SWAP1 PUSH1 0x0 MSTORE PUSH1 0x20 PUSH1 0x0 KECCAK256 ADD SLOAD CALLVALUE EQ JUMPDEST DUP1 PUSH2 0x6E3 JUMPI POP PUSH1 0x1 PUSH1 0x2 DUP2 SLOAD DUP2 LT PUSH2 0x6D5 JUMPI PUSH2 0x6D4 PUSH2 0xF72 JUMP JUMPDEST JUMPDEST SWAP1 PUSH1 0x0 MSTORE PUSH1 0x20 PUSH1 0x0 KECCAK256 ADD SLOAD CALLVALUE EQ JUMPDEST PUSH2 0x722 JUMPI PUSH1 0x40 MLOAD PUSH32 0x8C379A000000000000000000000000000000000000000000000000000000000 DUP2 MSTORE PUSH1 0x4 ADD PUSH2 0x719 SWAP1 PUSH2 0xFED JUMP JUMPDEST PUSH1 0x40 MLOAD DUP1 SWAP2 SUB SWAP1 REVERT JUMPDEST PUSH1 0x0 DUP1 PUSH1 0x0 SWAP1 SLOAD SWAP1 PUSH2 0x100 EXP SWAP1 DIV PUSH20 0xFFFFFFFFFFFFFFFFFFFFFFFFFFFFFFFFFFFFFFFF AND PUSH20 0xFFFFFFFFFFFFFFFFFFFFFFFFFFFFFFFFFFFFFFFF AND PUSH4 0xAACC5A17 PUSH1 0x40 MLOAD DUP2 PUSH4 0xFFFFFFFF AND PUSH1 0xE0 SHL DUP2 MSTORE PUSH1 0x4 ADD PUSH1 0x20 PUSH1 0x40 MLOAD DUP1 DUP4 SUB DUP2 PUSH1 0x0 DUP8 GAS CALL ISZERO DUP1 ISZERO PUSH2 0x792 JUMPI RETURNDATASIZE PUSH1 0x0 DUP1 RETURNDATACOPY RETURNDATASIZE PUSH1 0x0 REVERT JUMPDEST POP POP POP POP PUSH1 0x40 MLOAD RETURNDATASIZE PUSH1 0x1F NOT PUSH1 0x1F DUP3 ADD AND DUP3 ADD DUP1 PUSH1 0x40 MSTORE POP DUP2 ADD SWAP1 PUSH2 0x7B6 SWAP2 SWAP1 PUSH2 0x1022 JUMP JUMPDEST SWAP1 POP PUSH1 0x40 MLOAD DUP1 PUSH1 0x80 ADD PUSH1 0x40 MSTORE DUP1 CALLER PUSH20 0xFFFFFFFFFFFFFFFFFFFFFFFFFFFFFFFFFFFFFFFF AND DUP2 MSTORE PUSH1 0x20 ADD DUP4 DUP2 MSTORE PUSH1 0x20 ADD CALLVALUE DUP2 MSTORE PUSH1 0x20 ADD PUSH1 0x0 ISZERO ISZERO DUP2 MSTORE POP PUSH1 0x4 PUSH1 0x0 DUP4 DUP2 MSTORE PUSH1 0x20 ADD SWAP1 DUP2 MSTORE PUSH1 0x20 ADD PUSH1 0x0 KECCAK256 PUSH1 0x0 DUP3 ADD MLOAD DUP2 PUSH1 0x0 ADD PUSH1 0x0 PUSH2 0x100 EXP DUP2 SLOAD DUP2 PUSH20 0xFFFFFFFFFFFFFFFFFFFFFFFFFFFFFFFFFFFFFFFF MUL NOT AND SWAP1 DUP4 PUSH20 0xFFFFFFFFFFFFFFFFFFFFFFFFFFFFFFFFFFFFFFFF AND MUL OR SWAP1 SSTORE POP PUSH1 0x20 DUP3 ADD MLOAD DUP2 PUSH1 0x1 ADD SSTORE PUSH1 0x40 DUP3 ADD MLOAD DUP2 PUSH1 0x2 ADD SSTORE PUSH1 0x60 DUP3 ADD MLOAD DUP2 PUSH1 0x3 ADD PUSH1 0x0 PUSH2 0x100 EXP DUP2 SLOAD DUP2 PUSH1 0xFF MUL NOT AND SWAP1 DUP4 ISZERO ISZERO MUL OR SWAP1 SSTORE POP SWAP1 POP POP POP PUSH1 0x0 PUSH1 0x5 PUSH1 0x0 PUSH2 0x100 EXP DUP2 SLOAD DUP2 PUSH1 0xFF MUL NOT AND SWAP1 DUP4 ISZERO ISZERO MUL OR SWAP1 SSTORE POP POP JUMP JUMPDEST PUSH1 0x0 DUP1 SLOAD SWAP1 PUSH2 0x100 EXP SWAP1 DIV PUSH20 0xFFFFFFFFFFFFFFFFFFFFFFFFFFFFFFFFFFFFFFFF AND DUP2 JUMP JUMPDEST PUSH1 0x5 PUSH1 0x1 SWAP1 SLOAD SWAP1 PUSH2 0x100 EXP SWAP1 DIV PUSH20 0xFFFFFFFFFFFFFFFFFFFFFFFFFFFFFFFFFFFFFFFF AND DUP2 JUMP JUMPDEST PUSH1 0x3 SLOAD DUP2 JUMP JUMPDEST PUSH1 0x5 PUSH1 0x0 SWAP1 SLOAD SWAP1 PUSH2 0x100 EXP SWAP1 DIV PUSH1 0xFF AND DUP2 JUMP JUMPDEST PUSH1 0x0 DUP1 REVERT JUMPDEST PUSH1 0x0 DUP2 SWAP1 POP SWAP2 SWAP1 POP JUMP JUMPDEST PUSH2 0x91D DUP2 PUSH2 0x90A JUMP JUMPDEST DUP2 EQ PUSH2 0x928 JUMPI PUSH1 0x0 DUP1 REVERT JUMPDEST POP JUMP JUMPDEST PUSH1 0x0 DUP2 CALLDATALOAD SWAP1 POP PUSH2 0x93A DUP2 PUSH2 0x914 JUMP JUMPDEST SWAP3 SWAP2 POP POP JUMP JUMPDEST PUSH1 0x0 PUSH1 0x20 DUP3 DUP5 SUB SLT ISZERO PUSH2 0x956 JUMPI PUSH2 0x955 PUSH2 0x905 JUMP JUMPDEST JUMPDEST PUSH1 0x0 PUSH2 0x964 DUP5 DUP3 DUP6 ADD PUSH2 0x92B JUMP JUMPDEST SWAP2 POP POP SWAP3 SWAP2 POP POP JUMP JUMPDEST PUSH1 0x0 PUSH20 0xFFFFFFFFFFFFFFFFFFFFFFFFFFFFFFFFFFFFFFFF DUP3 AND SWAP1 POP SWAP2 SWAP1 POP JUMP JUMPDEST PUSH1 0x0 PUSH2 0x998 DUP3 PUSH2 0x96D JUMP JUMPDEST SWAP1 POP SWAP2 SWAP1 POP JUMP JUMPDEST PUSH2 0x9A8 DUP2 PUSH2 0x98D JUMP JUMPDEST DUP3 MSTORE POP POP JUMP JUMPDEST PUSH2 0x9B7 DUP2 PUSH2 0x90A JUMP JUMPDEST DUP3 MSTORE POP POP JUMP JUMPDEST PUSH1 0x0 DUP2 ISZERO ISZERO SWAP1 POP SWAP2 SWAP1 POP JUMP JUMPDEST PUSH2 0x9D2 DUP2 PUSH2 0x9BD JUMP JUMPDEST DUP3 MSTORE POP POP JUMP JUMPDEST PUSH1 0x0 PUSH1 0x80 DUP3 ADD SWAP1 POP PUSH2 0x9ED PUSH1 0x0 DUP4 ADD DUP8 PUSH2 0x99F JUMP JUMPDEST PUSH2 0x9FA PUSH1 0x20 DUP4 ADD DUP7 PUSH2 0x9AE JUMP JUMPDEST PUSH2 0xA07 PUSH1 0x40 DUP4 ADD DUP6 PUSH2 0x9AE JUMP JUMPDEST PUSH2 0xA14 PUSH1 0x60 DUP4 ADD DUP5 PUSH2 0x9C9 JUMP JUMPDEST SWAP6 SWAP5 POP POP POP POP POP JUMP JUMPDEST PUSH1 0x0 PUSH1 0x20 DUP3 ADD SWAP1 POP PUSH2 0xA32 PUSH1 0x0 DUP4 ADD DUP5 PUSH2 0x9AE JUMP JUMPDEST SWAP3 SWAP2 POP POP JUMP JUMPDEST PUSH1 0x0 DUP1 PUSH1 0x40 DUP4 DUP6 SUB SLT ISZERO PUSH2 0xA4F JUMPI PUSH2 0xA4E PUSH2 0x905 JUMP JUMPDEST JUMPDEST PUSH1 0x0 PUSH2 0xA5D DUP6 DUP3 DUP7 ADD PUSH2 0x92B JUMP JUMPDEST SWAP3 POP POP PUSH1 0x20 PUSH2 0xA6E DUP6 DUP3 DUP7 ADD PUSH2 0x92B JUMP JUMPDEST SWAP2 POP POP SWAP3 POP SWAP3 SWAP1 POP JUMP JUMPDEST PUSH1 0x0 DUP2 SWAP1 POP SWAP2 SWAP1 POP JUMP JUMPDEST PUSH1 0x0 PUSH2 0xA9D PUSH2 0xA98 PUSH2 0xA93 DUP5 PUSH2 0x96D JUMP JUMPDEST PUSH2 0xA78 JUMP JUMPDEST PUSH2 0x96D JUMP JUMPDEST SWAP1 POP SWAP2 SWAP1 POP JUMP JUMPDEST PUSH1 0x0 PUSH2 0xAAF DUP3 PUSH2 0xA82 JUMP JUMPDEST SWAP1 POP SWAP2 SWAP1 POP JUMP JUMPDEST PUSH1 0x0 PUSH2 0xAC1 DUP3 PUSH2 0xAA4 JUMP JUMPDEST SWAP1 POP SWAP2 SWAP1 POP JUMP JUMPDEST PUSH2 0xAD1 DUP2 PUSH2 0xAB6 JUMP JUMPDEST DUP3 MSTORE POP POP JUMP JUMPDEST PUSH1 0x0 PUSH1 0x20 DUP3 ADD SWAP1 POP PUSH2 0xAEC PUSH1 0x0 DUP4 ADD DUP5 PUSH2 0xAC8 JUMP JUMPDEST SWAP3 SWAP2 POP POP JUMP JUMPDEST PUSH1 0x0 PUSH1 0x20 DUP3 ADD SWAP1 POP PUSH2 0xB07 PUSH1 0x0 DUP4 ADD DUP5 PUSH2 0x99F JUMP JUMPDEST SWAP3 SWAP2 POP POP JUMP JUMPDEST PUSH1 0x0 PUSH1 0x20 DUP3 ADD SWAP1 POP PUSH2 0xB22 PUSH1 0x0 DUP4 ADD DUP5 PUSH2 0x9C9 JUMP JUMPDEST SWAP3 SWAP2 POP POP JUMP JUMPDEST PUSH1 0x0 DUP3 DUP3 MSTORE PUSH1 0x20 DUP3 ADD SWAP1 POP SWAP3 SWAP2 POP POP JUMP JUMPDEST PUSH32 0x4F6E6C79207468652052616E646F6D4E756D626572436F6E73756D657220636F PUSH1 0x0 DUP3 ADD MSTORE PUSH32 0x6E74726163742063616E2063616C6C20746869732066756E6374696F6E000000 PUSH1 0x20 DUP3 ADD MSTORE POP JUMP JUMPDEST PUSH1 0x0 PUSH2 0xB95 PUSH1 0x3D DUP4 PUSH2 0xB28 JUMP JUMPDEST SWAP2 POP PUSH2 0xBA0 DUP3 PUSH2 0xB39 JUMP JUMPDEST PUSH1 0x40 DUP3 ADD SWAP1 POP SWAP2 SWAP1 POP JUMP JUMPDEST PUSH1 0x0 PUSH1 0x20 DUP3 ADD SWAP1 POP DUP2 DUP2 SUB PUSH1 0x0 DUP4 ADD MSTORE PUSH2 0xBC4 DUP2 PUSH2 0xB88 JUMP JUMPDEST SWAP1 POP SWAP2 SWAP1 POP JUMP JUMPDEST PUSH32 0x47616D6520616C726561647920656E6465640000000000000000000000000000 PUSH1 0x0 DUP3 ADD MSTORE POP JUMP JUMPDEST PUSH1 0x0 PUSH2 0xC01 PUSH1 0x12 DUP4 PUSH2 0xB28 JUMP JUMPDEST SWAP2 POP PUSH2 0xC0C DUP3 PUSH2 0xBCB JUMP JUMPDEST PUSH1 0x20 DUP3 ADD SWAP1 POP SWAP2 SWAP1 POP JUMP JUMPDEST PUSH1 0x0 PUSH1 0x20 DUP3 ADD SWAP1 POP DUP2 DUP2 SUB PUSH1 0x0 DUP4 ADD MSTORE PUSH2 0xC30 DUP2 PUSH2 0xBF4 JUMP JUMPDEST SWAP1 POP SWAP2 SWAP1 POP JUMP JUMPDEST PUSH32 0x4E6F2067616D6520666F756E6420776974682074686973206964000000000000 PUSH1 0x0 DUP3 ADD MSTORE POP JUMP JUMPDEST PUSH1 0x0 PUSH2 0xC6D PUSH1 0x1A DUP4 PUSH2 0xB28 JUMP JUMPDEST SWAP2 POP PUSH2 0xC78 DUP3 PUSH2 0xC37 JUMP JUMPDEST PUSH1 0x20 DUP3 ADD SWAP1 POP SWAP2 SWAP1 POP JUMP JUMPDEST PUSH1 0x0 PUSH1 0x20 DUP3 ADD SWAP1 POP DUP2 DUP2 SUB PUSH1 0x0 DUP4 ADD MSTORE PUSH2 0xC9C DUP2 PUSH2 0xC60 JUMP JUMPDEST SWAP1 POP SWAP2 SWAP1 POP JUMP JUMPDEST PUSH32 0x436F6E74726163742062616C616E636520746F6F206C6F770000000000000000 PUSH1 0x0 DUP3 ADD MSTORE POP JUMP JUMPDEST PUSH1 0x0 PUSH2 0xCD9 PUSH1 0x18 DUP4 PUSH2 0xB28 JUMP JUMPDEST SWAP2 POP PUSH2 0xCE4 DUP3 PUSH2 0xCA3 JUMP JUMPDEST PUSH1 0x20 DUP3 ADD SWAP1 POP SWAP2 SWAP1 POP JUMP JUMPDEST PUSH1 0x0 PUSH1 0x20 DUP3 ADD SWAP1 POP DUP2 DUP2 SUB PUSH1 0x0 DUP4 ADD MSTORE PUSH2 0xD08 DUP2 PUSH2 0xCCC JUMP JUMPDEST SWAP1 POP SWAP2 SWAP1 POP JUMP JUMPDEST PUSH32 0x4E487B7100000000000000000000000000000000000000000000000000000000 PUSH1 0x0 MSTORE PUSH1 0x12 PUSH1 0x4 MSTORE PUSH1 0x24 PUSH1 0x0 REVERT JUMPDEST PUSH1 0x0 PUSH2 0xD49 DUP3 PUSH2 0x90A JUMP JUMPDEST SWAP2 POP PUSH2 0xD54 DUP4 PUSH2 0x90A JUMP JUMPDEST SWAP3 POP DUP3 PUSH2 0xD64 JUMPI PUSH2 0xD63 PUSH2 0xD0F JUMP JUMPDEST JUMPDEST DUP3 DUP3 MOD SWAP1 POP SWAP3 SWAP2 POP POP JUMP JUMPDEST PUSH32 0x4E487B7100000000000000000000000000000000000000000000000000000000 PUSH1 0x0 MSTORE PUSH1 0x11 PUSH1 0x4 MSTORE PUSH1 0x24 PUSH1 0x0 REVERT JUMPDEST PUSH1 0x0 PUSH2 0xDA9 DUP3 PUSH2 0x90A JUMP JUMPDEST SWAP2 POP PUSH2 0xDB4 DUP4 PUSH2 0x90A JUMP JUMPDEST SWAP3 POP DUP3 PUSH2 0xDC4 JUMPI PUSH2 0xDC3 PUSH2 0xD0F JUMP JUMPDEST JUMPDEST DUP3 DUP3 DIV SWAP1 POP SWAP3 SWAP2 POP POP JUMP JUMPDEST PUSH1 0x0 PUSH2 0xDDA DUP3 PUSH2 0x90A JUMP JUMPDEST SWAP2 POP PUSH2 0xDE5 DUP4 PUSH2 0x90A JUMP JUMPDEST SWAP3 POP DUP3 DUP3 SUB SWAP1 POP DUP2 DUP2 GT ISZERO PUSH2 0xDFD JUMPI PUSH2 0xDFC PUSH2 0xD6F JUMP JUMPDEST JUMPDEST SWAP3 SWAP2 POP POP JUMP JUMPDEST PUSH1 0x0 PUSH2 0xE0E DUP3 PUSH2 0x90A JUMP JUMPDEST SWAP2 POP PUSH2 0xE19 DUP4 PUSH2 0x90A JUMP JUMPDEST SWAP3 POP DUP3 DUP3 MUL PUSH2 0xE27 DUP2 PUSH2 0x90A JUMP JUMPDEST SWAP2 POP DUP3 DUP3 DIV DUP5 EQ DUP4 ISZERO OR PUSH2 0xE3E JUMPI PUSH2 0xE3D PUSH2 0xD6F JUMP JUMPDEST JUMPDEST POP SWAP3 SWAP2 POP POP JUMP JUMPDEST PUSH32 0x416C726561647920706C6179696E672E00000000000000000000000000000000 PUSH1 0x0 DUP3 ADD MSTORE POP JUMP JUMPDEST PUSH1 0x0 PUSH2 0xE7B PUSH1 0x10 DUP4 PUSH2 0xB28 JUMP JUMPDEST SWAP2 POP PUSH2 0xE86 DUP3 PUSH2 0xE45 JUMP JUMPDEST PUSH1 0x20 DUP3 ADD SWAP1 POP SWAP2 SWAP1 POP JUMP JUMPDEST PUSH1 0x0 PUSH1 0x20 DUP3 ADD SWAP1 POP DUP2 DUP2 SUB PUSH1 0x0 DUP4 ADD MSTORE PUSH2 0xEAA DUP2 PUSH2 0xE6E JUMP JUMPDEST SWAP1 POP SWAP2 SWAP1 POP JUMP JUMPDEST PUSH32 0x4E487B7100000000000000000000000000000000000000000000000000000000 PUSH1 0x0 MSTORE PUSH1 0x21 PUSH1 0x4 MSTORE PUSH1 0x24 PUSH1 0x0 REVERT JUMPDEST PUSH32 0x596F75206D75737420677565737320656974686572206865616473206F722074 PUSH1 0x0 DUP3 ADD MSTORE PUSH32 0x61696C7300000000000000000000000000000000000000000000000000000000 PUSH1 0x20 DUP3 ADD MSTORE POP JUMP JUMPDEST PUSH1 0x0 PUSH2 0xF3C PUSH1 0x24 DUP4 PUSH2 0xB28 JUMP JUMPDEST SWAP2 POP PUSH2 0xF47 DUP3 PUSH2 0xEE0 JUMP JUMPDEST PUSH1 0x40 DUP3 ADD SWAP1 POP SWAP2 SWAP1 POP JUMP JUMPDEST PUSH1 0x0 PUSH1 0x20 DUP3 ADD SWAP1 POP DUP2 DUP2 SUB PUSH1 0x0 DUP4 ADD MSTORE PUSH2 0xF6B DUP2 PUSH2 0xF2F JUMP JUMPDEST SWAP1 POP SWAP2 SWAP1 POP JUMP JUMPDEST PUSH32 0x4E487B7100000000000000000000000000000000000000000000000000000000 PUSH1 0x0 MSTORE PUSH1 0x32 PUSH1 0x4 MSTORE PUSH1 0x24 PUSH1 0x0 REVERT JUMPDEST PUSH32 0x416D6F756E742073656E74206E6F7420636F7272656374000000000000000000 PUSH1 0x0 DUP3 ADD MSTORE POP JUMP JUMPDEST PUSH1 0x0 PUSH2 0xFD7 PUSH1 0x17 DUP4 PUSH2 0xB28 JUMP JUMPDEST SWAP2 POP PUSH2 0xFE2 DUP3 PUSH2 0xFA1 JUMP JUMPDEST PUSH1 0x20 DUP3 ADD SWAP1 POP SWAP2 SWAP1 POP JUMP JUMPDEST PUSH1 0x0 PUSH1 0x20 DUP3 ADD SWAP1 POP DUP2 DUP2 SUB PUSH1 0x0 DUP4 ADD MSTORE PUSH2 0x1006 DUP2 PUSH2 0xFCA JUMP JUMPDEST SWAP1 POP SWAP2 SWAP1 POP JUMP JUMPDEST PUSH1 0x0 DUP2 MLOAD SWAP1 POP PUSH2 0x101C DUP2 PUSH2 0x914 JUMP JUMPDEST SWAP3 SWAP2 POP POP JUMP JUMPDEST PUSH1 0x0 PUSH1 0x20 DUP3 DUP5 SUB SLT ISZERO PUSH2 0x1038 JUMPI PUSH2 0x1037 PUSH2 0x905 JUMP JUMPDEST JUMPDEST PUSH1 0x0 PUSH2 0x1046 DUP5 DUP3 DUP6 ADD PUSH2 0x100D JUMP JUMPDEST SWAP2 POP POP SWAP3 SWAP2 POP POP JUMP INVALID LOG2 PUSH5 0x6970667358 0x22 SLT KECCAK256 0xDD 0xB2 PUSH28 0x5067382DA621C08381B992F798CC7A41E30FFE58CE2769ED9DBA95CE 0xF9 PUSH5 0x736F6C6343 STOP ADDMOD GT STOP CALLER "},"methodIdentifiers":{"amounts(uint256)":"45f0a44f","denominator()":"96ce0795","flip_result(uint256,uint256)":"585d4586","games(uint256)":"117a5b90","owner()":"8da5cb5b","play(uint256)":"6898f82b","playing()":"d57dd710","randomness_contract()":"6a7223fc","winning_fee()":"36b3c80f"}}}}}