{"contracts/price_consumer.sol":{"PriceConsumerV3":{"abi":[{"inputs":[],"stateMutability":"nonpayable","type":"constructor"},{"inputs":[],"name":"getDecimals","outputs":[{"internalType":"uint8","name":"","type":"uint8"}],"stateMutability":"view","type":"function"},{"inputs":[],"name":"getLatestPrice","outputs":[{"internalType":"int256","name":"","type":"int256"}],"stateMutability":"view","type":"function"},{"inputs":[],"name":"priceFeed","outputs":[{"internalType":"contract AggregatorV3Interface","name":"","type":"address"}],"stateMutability":"view","type":"function"},{"inputs":[{"internalType":"address","name":"_priceFeed","type":"address"}],"name":"setPriceFeed","outputs":[],"stateMutability":"nonpayable","type":"function"}],"evm":{"bytecode":{"linkReferences":{},"object":"608060405234801561001057600080fd5b5073e04676b9a9a2973bcb0d1478b5e1e9098bbb7f3d6000806101000a81548173ffffffffffffffffffffffffffffffffffffffff021916908373ffffffffffffffffffffffffffffffffffffffff160217905550610587806100746000396000f3fe608060405234801561001057600080fd5b506004361061004c5760003560e01c8063724e78da14610051578063741bef1a1461006d5780638e15f4731461008b578063f0141d84146100a9575b600080fd5b61006b600480360381019061006691906102c7565b6100c7565b005b61007561010a565b6040516100829190610353565b60405180910390f35b61009361012e565b6040516100a09190610387565b60405180910390f35b6100b16101cd565b6040516100be91906103be565b60405180910390f35b806000806101000a81548173ffffffffffffffffffffffffffffffffffffffff021916908373ffffffffffffffffffffffffffffffffffffffff16021790555050565b60008054906101000a900473ffffffffffffffffffffffffffffffffffffffff1681565b60008060008054906101000a900473ffffffffffffffffffffffffffffffffffffffff1673ffffffffffffffffffffffffffffffffffffffff1663feaf968c6040518163ffffffff1660e01b815260040160a060405180830381865afa15801561019c573d6000803e3d6000fd5b505050506040513d601f19601f820116820180604052508101906101c0919061047d565b5050509150508091505090565b60008060009054906101000a900473ffffffffffffffffffffffffffffffffffffffff1673ffffffffffffffffffffffffffffffffffffffff1663313ce5676040518163ffffffff1660e01b8152600401602060405180830381865afa15801561023b573d6000803e3d6000fd5b505050506040513d601f19601f8201168201806040525081019061025f9190610524565b905090565b600080fd5b600073ffffffffffffffffffffffffffffffffffffffff82169050919050565b600061029482610269565b9050919050565b6102a481610289565b81146102af57600080fd5b50565b6000813590506102c18161029b565b92915050565b6000602082840312156102dd576102dc610264565b5b60006102eb848285016102b2565b91505092915050565b6000819050919050565b600061031961031461030f84610269565b6102f4565b610269565b9050919050565b600061032b826102fe565b9050919050565b600061033d82610320565b9050919050565b61034d81610332565b82525050565b60006020820190506103686000830184610344565b92915050565b6000819050919050565b6103818161036e565b82525050565b600060208201905061039c6000830184610378565b92915050565b600060ff82169050919050565b6103b8816103a2565b82525050565b60006020820190506103d360008301846103af565b92915050565b600069ffffffffffffffffffff82169050919050565b6103f8816103d9565b811461040357600080fd5b50565b600081519050610415816103ef565b92915050565b6104248161036e565b811461042f57600080fd5b50565b6000815190506104418161041b565b92915050565b6000819050919050565b61045a81610447565b811461046557600080fd5b50565b60008151905061047781610451565b92915050565b600080600080600060a0868803121561049957610498610264565b5b60006104a788828901610406565b95505060206104b888828901610432565b94505060406104c988828901610468565b93505060606104da88828901610468565b92505060806104eb88828901610406565b9150509295509295909350565b610501816103a2565b811461050c57600080fd5b50565b60008151905061051e816104f8565b92915050565b60006020828403121561053a57610539610264565b5b60006105488482850161050f565b9150509291505056fea264697066735822122023516d024f46f7211ca76fd93e677f68f89839470d22f28526a25dcba6709dde64736f6c63430008110033","opcodes":"PUSH1 0x80 PUSH1 0x40 MSTORE CALLVALUE DUP1 ISZERO PUSH2 0x10 JUMPI PUSH1 0x0 DUP1 REVERT JUMPDEST POP PUSH20 0xE04676B9A9A2973BCB0D1478B5E1E9098BBB7F3D PUSH1 0x0 DUP1 PUSH2 0x100 EXP DUP2 SLOAD DUP2 PUSH20 0xFFFFFFFFFFFFFFFFFFFFFFFFFFFFFFFFFFFFFFFF MUL NOT AND SWAP1 DUP4 PUSH20 0xFFFFFFFFFFFFFFFFFFFFFFFFFFFFFFFFFFFFFFFF AND MUL OR SWAP1 SSTORE POP PUSH2 0x587 DUP1 PUSH2 0x74 PUSH1 0x0 CODECOPY PUSH1 0x0 RETURN INVALID PUSH1 0x80 PUSH1 0x40 MSTORE CALLVALUE DUP1 ISZERO PUSH2 0x10 JUMPI PUSH1 0x0 DUP1 REVERT JUMPDEST POP PUSH1 0x4 CALLDATASIZE LT PUSH2 0x4C JUMPI PUSH1 0x0 CALLDATALOAD PUSH1 0xE0 SHR DUP1 PUSH4 0x724E78DA EQ PUSH2 0x51 JUMPI DUP1 PUSH4 0x741BEF1A EQ PUSH2 0x6D JUMPI DUP1 PUSH4 0x8E15F473 EQ PUSH2 0x8B JUMPI DUP1 PUSH4 0xF0141D84 EQ PUSH2 0xA9 JUMPI JUMPDEST PUSH1 0x0 DUP1 REVERT JUMPDEST PUSH2 0x6B PUSH1 0x4 DUP1 CALLDATASIZE SUB DUP2 ADD SWAP1 PUSH2 0x66 SWAP2 SWAP1 PUSH2 0x2C7 JUMP JUMPDEST PUSH2 0xC7 JUMP JUMPDEST STOP JUMPDEST PUSH2 0x75 PUSH2 0x10A JUMP JUMPDEST PUSH1 0x40 MLOAD PUSH2 0x82 SWAP2 SWAP1 PUSH2 0x353 JUMP JUMPDEST PUSH1 0x40 MLOAD DUP1 SWAP2 SUB SWAP1 RETURN JUMPDEST PUSH2 0x93 PUSH2 0x12E JUMP JUMPDEST PUSH1 0x40 MLOAD PUSH2 0xA0 SWAP2 SWAP1 PUSH2 0x387 JUMP JUMPDEST PUSH1 0x40 MLOAD DUP1 SWAP2 SUB SWAP1 RETURN JUMPDEST PUSH2 0xB1 PUSH2 0x1CD JUMP JUMPDEST PUSH1 0x40 MLOAD PUSH2 0xBE SWAP2 SWAP1 PUSH2 0x3BE JUMP JUMPDEST PUSH1 0x40 MLOAD DUP1 SWAP2 SUB SWAP1 RETURN JUMPDEST DUP1 PUSH1 0x0 DUP1 PUSH2 0x100 EXP DUP2 SLOAD DUP2 PUSH20 0xFFFFFFFFFFFFFFFFFFFFFFFFFFFFFFFFFFFFFFFF MUL NOT AND SWAP1 DUP4 PUSH20 0xFFFFFFFFFFFFFFFFFFFFFFFFFFFFFFFFFFFFFFFF AND MUL OR SWAP1 SSTORE POP POP JUMP JUMPDEST PUSH1 0x0 DUP1 SLOAD SWAP1 PUSH2 0x100 EXP SWAP1 DIV PUSH20 0xFFFFFFFFFFFFFFFFFFFFFFFFFFFFFFFFFFFFFFFF AND DUP2 JUMP JUMPDEST PUSH1 0x0 DUP1 PUSH1 0x0 DUP1 SLOAD SWAP1 PUSH2 0x100 EXP SWAP1 DIV PUSH20 0xFFFFFFFFFFFFFFFFFFFFFFFFFFFFFFFFFFFFFFFF AND PUSH20 0xFFFFFFFFFFFFFFFFFFFFFFFFFFFFFFFFFFFFFFFF AND PUSH4 0xFEAF968C PUSH1 0x40 MLOAD DUP2 PUSH4 0xFFFFFFFF AND PUSH1 0xE0 SHL DUP2 MSTORE PUSH1 0x4 ADD PUSH1 0xA0 PUSH1 0x40 MLOAD DUP1 DUP4 SUB DUP2 DUP7 GAS STATICCALL ISZERO DUP1 ISZERO PUSH2 0x19C JUMPI RETURNDATASIZE PUSH1 0x0 DUP1 RETURNDATACOPY RETURNDATASIZE PUSH1 0x0 REVERT JUMPDEST POP POP POP POP PUSH1 0x40 MLOAD RETURNDATASIZE PUSH1 0x1F NOT PUSH1 0x1F DUP3 ADD AND DUP3 ADD DUP1 PUSH1 0x40 MSTORE POP DUP2 ADD SWAP1 PUSH2 0x1C0 SWAP2 SWAP1 PUSH2 0x47D JUMP JUMPDEST POP POP POP SWAP2 POP POP DUP1 SWAP2 POP POP SWAP1 JUMP JUMPDEST PUSH1 0x0 DUP1 PUSH1 0x0 SWAP1 SLOAD SWAP1 PUSH2 0x100 EXP SWAP1 DIV PUSH20 0xFFFFFFFFFFFFFFFFFFFFFFFFFFFFFFFFFFFFFFFF AND PUSH20 0xFFFFFFFFFFFFFFFFFFFFFFFFFFFFFFFFFFFFFFFF AND PUSH4 0x313CE567 PUSH1 0x40 MLOAD DUP2 PUSH4 0xFFFFFFFF AND PUSH1 0xE0 SHL DUP2 MSTORE PUSH1 0x4 ADD PUSH1 0x20 PUSH1 0x40 MLOAD DUP1 DUP4 SUB DUP2 DUP7 GAS STATICCALL ISZERO DUP1 ISZERO PUSH2 0x23B JUMPI RETURNDATASIZE PUSH1 0x0 DUP1 RETURNDATACOPY RETURNDATASIZE PUSH1 0x0 REVERT JUMPDEST POP POP POP POP PUSH1 0x40 MLOAD RETURNDATASIZE PUSH1 0x1F NOT PUSH1 0x1F DUP3 ADD AND DUP3 ADD DUP1 PUSH1 0x40 MSTORE POP DUP2 ADD SWAP1 PUSH2 0x25F SWAP2 SWAP1 PUSH2 0x524 JUMP JUMPDEST SWAP1 POP SWAP1 JUMP JUMPDEST PUSH1 0x0 DUP1 REVERT JUMPDEST PUSH1 0x0 PUSH20 0xFFFFFFFFFFFFFFFFFFFFFFFFFFFFFFFFFFFFFFFF DUP3 AND SWAP1 POP SWAP2 SWAP1 POP JUMP JUMPDEST PUSH1 0x0 PUSH2 0x294 DUP3 PUSH2 0x269 JUMP JUMPDEST SWAP1 POP SWAP2 SWAP1 POP JUMP JUMPDEST PUSH2 0x2A4 DUP2 PUSH2 0x289 JUMP JUMPDEST DUP2 EQ PUSH2 0x2AF JUMPI PUSH1 0x0 DUP1 REVERT JUMPDEST POP JUMP JUMPDEST PUSH1 0x0 DUP2 CALLDATALOAD SWAP1 POP PUSH2 0x2C1 DUP2 PUSH2 0x29B JUMP JUMPDEST SWAP3 SWAP2 POP POP JUMP JUMPDEST PUSH1 0x0 PUSH1 0x20 DUP3 DUP5 SUB SLT ISZERO PUSH2 0x2DD JUMPI PUSH2 0x2DC PUSH2 0x264 JUMP JUMPDEST JUMPDEST PUSH1 0x0 PUSH2 0x2EB DUP5 DUP3 DUP6 ADD PUSH2 0x2B2 JUMP JUMPDEST SWAP2 POP POP SWAP3 SWAP2 POP POP JUMP JUMPDEST PUSH1 0x0 DUP2 SWAP1 POP SWAP2 SWAP1 POP JUMP JUMPDEST PUSH1 0x0 PUSH2 0x319 PUSH2 0x314 PUSH2 0x30F DUP5 PUSH2 0x269 JUMP JUMPDEST PUSH2 0x2F4 JUMP JUMPDEST PUSH2 0x269 JUMP JUMPDEST SWAP1 POP SWAP2 SWAP1 POP JUMP JUMPDEST PUSH1 0x0 PUSH2 0x32B DUP3 PUSH2 0x2FE JUMP JUMPDEST SWAP1 POP SWAP2 SWAP1 POP JUMP JUMPDEST PUSH1 0x0 PUSH2 0x33D DUP3 PUSH2 0x320 JUMP JUMPDEST SWAP1 POP SWAP2 SWAP1 POP JUMP JUMPDEST PUSH2 0x34D DUP2 PUSH2 0x332 JUMP JUMPDEST DUP3 MSTORE POP POP JUMP JUMPDEST PUSH1 0x0 PUSH1 0x20 DUP3 ADD SWAP1 POP PUSH2 0x368 PUSH1 0x0 DUP4 ADD DUP5 PUSH2 0x344 JUMP JUMPDEST SWAP3 SWAP2 POP POP JUMP JUMPDEST PUSH1 0x0 DUP2 SWAP1 POP SWAP2 SWAP1 POP JUMP JUMPDEST PUSH2 0x381 DUP2 PUSH2 0x36E JUMP JUMPDEST DUP3 MSTORE POP POP JUMP JUMPDEST PUSH1 0x0 PUSH1 0x20 DUP3 ADD SWAP1 POP PUSH2 0x39C PUSH1 0x0 DUP4 ADD DUP5 PUSH2 0x378 JUMP JUMPDEST SWAP3 SWAP2 POP POP JUMP JUMPDEST PUSH1 0x0 PUSH1 0xFF DUP3 AND SWAP1 POP SWAP2 SWAP1 POP JUMP JUMPDEST PUSH2 0x3B8 DUP2 PUSH2 0x3A2 JUMP JUMPDEST DUP3 MSTORE POP POP JUMP JUMPDEST PUSH1 0x0 PUSH1 0x20 DUP3 ADD SWAP1 POP PUSH2 0x3D3 PUSH1 0x0 DUP4 ADD DUP5 PUSH2 0x3AF JUMP JUMPDEST SWAP3 SWAP2 POP POP JUMP JUMPDEST PUSH1 0x0 PUSH10 0xFFFFFFFFFFFFFFFFFFFF DUP3 AND SWAP1 POP SWAP2 SWAP1 POP JUMP JUMPDEST PUSH2 0x3F8 DUP2 PUSH2 0x3D9 JUMP JUMPDEST DUP2 EQ PUSH2 0x403 JUMPI PUSH1 0x0 DUP1 REVERT JUMPDEST POP JUMP JUMPDEST PUSH1 0x0 DUP2 MLOAD SWAP1 POP PUSH2 0x415 DUP2 PUSH2 0x3EF JUMP JUMPDEST SWAP3 SWAP2 POP POP JUMP JUMPDEST PUSH2 0x424 DUP2 PUSH2 0x36E JUMP JUMPDEST DUP2 EQ PUSH2 0x42F JUMPI PUSH1 0x0 DUP1 REVERT JUMPDEST POP JUMP JUMPDEST PUSH1 0x0 DUP2 MLOAD SWAP1 POP PUSH2 0x441 DUP2 PUSH2 0x41B JUMP JUMPDEST SWAP3 SWAP2 POP POP JUMP JUMPDEST PUSH1 0x0 DUP2 SWAP1 POP SWAP2 SWAP1 POP JUMP JUMPDEST PUSH2 0x45A DUP2 PUSH2 0x447 JUMP JUMPDEST DUP2 EQ PUSH2 0x465 JUMPI PUSH1 0x0 DUP1 REVERT JUMPDEST POP JUMP JUMPDEST PUSH1 0x0 DUP2 MLOAD SWAP1 POP PUSH2 0x477 DUP2 PUSH2 0x451 JUMP JUMPDEST SWAP3 SWAP2 POP POP JUMP JUMPDEST PUSH1 0x0 DUP1 PUSH1 0x0 DUP1 PUSH1 0x0 PUSH1 0xA0 DUP7 DUP9 SUB SLT ISZERO PUSH2 0x499 JUMPI PUSH2 0x498 PUSH2 0x264 JUMP JUMPDEST JUMPDEST PUSH1 0x0 PUSH2 0x4A7 DUP9 DUP3 DUP10 ADD PUSH2 0x406 JUMP JUMPDEST SWAP6 POP POP PUSH1 0x20 PUSH2 0x4B8 DUP9 DUP3 DUP10 ADD PUSH2 0x432 JUMP JUMPDEST SWAP5 POP POP PUSH1 0x40 PUSH2 0x4C9 DUP9 DUP3 DUP10 ADD PUSH2 0x468 JUMP JUMPDEST SWAP4 POP POP PUSH1 0x60 PUSH2 0x4DA DUP9 DUP3 DUP10 ADD PUSH2 0x468 JUMP JUMPDEST SWAP3 POP POP PUSH1 0x80 PUSH2 0x4EB DUP9 DUP3 DUP10 ADD PUSH2 0x406 JUMP JUMPDEST SWAP2 POP POP SWAP3 SWAP6 POP SWAP3 SWAP6 SWAP1 SWAP4 POP JUMP JUMPDEST PUSH2 0x501 DUP2 PUSH2 0x3A2 JUMP JUMPDEST DUP2 EQ PUSH2 0x50C JUMPI PUSH1 0x0 DUP1 REVERT JUMPDEST POP JUMP JUMPDEST PUSH1 0x0 DUP2 MLOAD SWAP1 POP PUSH2 0x51E DUP2 PUSH2 0x4F8 JUMP JUMPDEST SWAP3 SWAP2 POP POP JUMP JUMPDEST PUSH1 0x0 PUSH1 0x20 DUP3 DUP5 SUB SLT ISZERO PUSH2 0x53A JUMPI PUSH2 0x539 PUSH2 0x264 JUMP JUMPDEST JUMPDEST PUSH1 0x0 PUSH2 0x548 DUP5 DUP3 DUP6 ADD PUSH2 0x50F JUMP JUMPDEST SWAP2 POP POP SWAP3 SWAP2 POP POP JUMP INVALID LOG2 PUSH5 0x6970667358 0x22 SLT KECCAK256 0x23 MLOAD PUSH14 0x24F46F7211CA76FD93E677F68F8 SWAP9 CODECOPY SELFBALANCE 0xD 0x22 CALLCODE DUP6 0x26 LOG2 0x5D 0xCB 0xA6 PUSH17 0x9DDE64736F6C6343000811003300000000 "},"methodIdentifiers":{"getDecimals()":"f0141d84","getLatestPrice()":"8e15f473","priceFeed()":"741bef1a","setPriceFeed(address)":"724e78da"}}}}}