{
  "_format": "hh-sol-artifact-1",
  "contractName": "TestTimeLock",
  "sourceName": "contracts/test_time_lock.sol",
  "abi": [
    {
      "inputs": [
        {
          "internalType": "address",
          "name": "_timeLock",
          "type": "address"
        }
      ],
      "stateMutability": "nonpayable",
      "type": "constructor"
    },
    {
      "stateMutability": "nonpayable",
      "type": "fallback"
    },
    {
      "inputs": [],
      "name": "canExecute",
      "outputs": [
        {
          "internalType": "bool",
          "name": "",
          "type": "bool"
        }
      ],
      "stateMutability": "view",
      "type": "function"
    },
    {
      "inputs": [],
      "name": "executed",
      "outputs": [
        {
          "internalType": "bool",
          "name": "",
          "type": "bool"
        }
      ],
      "stateMutability": "view",
      "type": "function"
    },
    {
      "inputs": [],
      "name": "func",
      "outputs": [],
      "stateMutability": "payable",
      "type": "function"
    },
    {
      "inputs": [
        {
          "internalType": "bool",
          "name": "_canExecute",
          "type": "bool"
        }
      ],
      "name": "setCanExecute",
      "outputs": [],
      "stateMutability": "nonpayable",
      "type": "function"
    },
    {
      "inputs": [],
      "name": "timeLock",
      "outputs": [
        {
          "internalType": "address",
          "name": "",
          "type": "address"
        }
      ],
      "stateMutability": "view",
      "type": "function"
    }
  ],
  "bytecode": "0x608060405234801561001057600080fd5b50604051610598380380610598833981810160405281019061003291906100db565b806000806101000a81548173ffffffffffffffffffffffffffffffffffffffff021916908373ffffffffffffffffffffffffffffffffffffffff16021790555050610108565b600080fd5b600073ffffffffffffffffffffffffffffffffffffffff82169050919050565b60006100a88261007d565b9050919050565b6100b88161009d565b81146100c357600080fd5b50565b6000815190506100d5816100af565b92915050565b6000602082840312156100f1576100f0610078565b5b60006100ff848285016100c6565b91505092915050565b610481806101176000396000f3fe60806040526004361061004e5760003560e01c806331a38c891461005d57806378b9033714610088578063bd4315f9146100b3578063bfa814b5146100dc578063d085835a146100e65761004f565b5b34801561005b57600080fd5b005b34801561006957600080fd5b50610072610111565b60405161007f919061028d565b60405180910390f35b34801561009457600080fd5b5061009d610124565b6040516100aa919061028d565b60405180910390f35b3480156100bf57600080fd5b506100da60048036038101906100d591906102d9565b610137565b005b6100e4610154565b005b3480156100f257600080fd5b506100fb61024e565b6040516101089190610347565b60405180910390f35b600060159054906101000a900460ff1681565b600060149054906101000a900460ff1681565b80600060146101000a81548160ff02191690831515021790555050565b60008054906101000a900473ffffffffffffffffffffffffffffffffffffffff1673ffffffffffffffffffffffffffffffffffffffff163373ffffffffffffffffffffffffffffffffffffffff16146101e2576040517f08c379a00000000000000000000000000000000000000000000000000000000081526004016101d9906103bf565b60405180910390fd5b600060149054906101000a900460ff16610231576040517f08c379a00000000000000000000000000000000000000000000000000000000081526004016102289061042b565b60405180910390fd5b6001600060156101000a81548160ff021916908315150217905550565b60008054906101000a900473ffffffffffffffffffffffffffffffffffffffff1681565b60008115159050919050565b61028781610272565b82525050565b60006020820190506102a2600083018461027e565b92915050565b600080fd5b6102b681610272565b81146102c157600080fd5b50565b6000813590506102d3816102ad565b92915050565b6000602082840312156102ef576102ee6102a8565b5b60006102fd848285016102c4565b91505092915050565b600073ffffffffffffffffffffffffffffffffffffffff82169050919050565b600061033182610306565b9050919050565b61034181610326565b82525050565b600060208201905061035c6000830184610338565b92915050565b600082825260208201905092915050565b7f6e6f742074696d65206c6f636b00000000000000000000000000000000000000600082015250565b60006103a9600d83610362565b91506103b482610373565b602082019050919050565b600060208201905081810360008301526103d88161039c565b9050919050565b7f63616e6e6f74206578656375746520746869732066756e6374696f6e00000000600082015250565b6000610415601c83610362565b9150610420826103df565b602082019050919050565b6000602082019050818103600083015261044481610408565b905091905056fea26469706673582212202d82a9194c2f61c9c65f4827313d82f9a2d5a29ff21d54c522c15508c67f01da64736f6c63430008110033",
  "linkReferences": {},
  "deployedLinkReferences": {}
}