{
  "_format": "hh-sol-artifact-1",
  "contractName": "DelegateCall",
  "sourceName": "contracts/delegate_call.sol",
  "abi": [
    {
      "inputs": [],
      "name": "num",
      "outputs": [
        {
          "internalType": "uint256",
          "name": "",
          "type": "uint256"
        }
      ],
      "stateMutability": "view",
      "type": "function"
    },
    {
      "inputs": [],
      "name": "sender",
      "outputs": [
        {
          "internalType": "address",
          "name": "",
          "type": "address"
        }
      ],
      "stateMutability": "view",
      "type": "function"
    },
    {
      "inputs": [
        {
          "internalType": "address",
          "name": "_test",
          "type": "address"
        },
        {
          "internalType": "uint256",
          "name": "_num",
          "type": "uint256"
        }
      ],
      "name": "setNum",
      "outputs": [],
      "stateMutability": "nonpayable",
      "type": "function"
    },
    {
      "inputs": [
        {
          "internalType": "address",
          "name": "_test",
          "type": "address"
        },
        {
          "internalType": "uint256",
          "name": "_num",
          "type": "uint256"
        }
      ],
      "name": "setVars",
      "outputs": [],
      "stateMutability": "payable",
      "type": "function"
    },
    {
      "inputs": [],
      "name": "value",
      "outputs": [
        {
          "internalType": "uint256",
          "name": "",
          "type": "uint256"
        }
      ],
      "stateMutability": "view",
      "type": "function"
    }
  ],
  "bytecode": "0x608060405234801561001057600080fd5b50610629806100206000396000f3fe60806040526004361061004a5760003560e01c80633fa4f2451461004f5780634e70b1dc1461007a57806367e404ce146100a5578063d1e0f308146100d0578063d84076e6146100ec575b600080fd5b34801561005b57600080fd5b50610064610115565b60405161007191906103da565b60405180910390f35b34801561008657600080fd5b5061008f61011b565b60405161009c91906103da565b60405180910390f35b3480156100b157600080fd5b506100ba610121565b6040516100c79190610436565b60405180910390f35b6100ea60048036038101906100e591906104ae565b610147565b005b3480156100f857600080fd5b50610113600480360381019061010e91906104ae565b610284565b005b60025481565b60005481565b600160009054906101000a900473ffffffffffffffffffffffffffffffffffffffff1681565b60008273ffffffffffffffffffffffffffffffffffffffff168260405160240161017191906103da565b6040516020818303038152906040527f6466414b000000000000000000000000000000000000000000000000000000007bffffffffffffffffffffffffffffffffffffffffffffffffffffffff19166020820180517bffffffffffffffffffffffffffffffffffffffffffffffffffffffff83818316178352505050506040516101fb919061055f565b600060405180830381855af49150503d8060008114610236576040519150601f19603f3d011682016040523d82523d6000602084013e61023b565b606091505b505090508061027f576040517f08c379a0000000000000000000000000000000000000000000000000000000008152600401610276906105d3565b60405180910390fd5b505050565b60008273ffffffffffffffffffffffffffffffffffffffff16826040516024016102ae91906103da565b6040516020818303038152906040527fcd16ecbf000000000000000000000000000000000000000000000000000000007bffffffffffffffffffffffffffffffffffffffffffffffffffffffff19166020820180517bffffffffffffffffffffffffffffffffffffffffffffffffffffffff8381831617835250505050604051610338919061055f565b600060405180830381855af49150503d8060008114610373576040519150601f19603f3d011682016040523d82523d6000602084013e610378565b606091505b50509050806103bc576040517f08c379a00000000000000000000000000000000000000000000000000000000081526004016103b3906105d3565b60405180910390fd5b505050565b6000819050919050565b6103d4816103c1565b82525050565b60006020820190506103ef60008301846103cb565b92915050565b600073ffffffffffffffffffffffffffffffffffffffff82169050919050565b6000610420826103f5565b9050919050565b61043081610415565b82525050565b600060208201905061044b6000830184610427565b92915050565b600080fd5b61045f81610415565b811461046a57600080fd5b50565b60008135905061047c81610456565b92915050565b61048b816103c1565b811461049657600080fd5b50565b6000813590506104a881610482565b92915050565b600080604083850312156104c5576104c4610451565b5b60006104d38582860161046d565b92505060206104e485828601610499565b9150509250929050565b600081519050919050565b600081905092915050565b60005b83811015610522578082015181840152602081019050610507565b60008484015250505050565b6000610539826104ee565b61054381856104f9565b9350610553818560208601610504565b80840191505092915050565b600061056b828461052e565b915081905092915050565b600082825260208201905092915050565b7f7478206661696c65640000000000000000000000000000000000000000000000600082015250565b60006105bd600983610576565b91506105c882610587565b602082019050919050565b600060208201905081810360008301526105ec816105b0565b905091905056fea264697066735822122061632a6672cb9adefb867f455d4560dd9d6f8ef57ecb85d7a457ba5286c4bbbe64736f6c63430008110033",
  "linkReferences": {},
  "deployedLinkReferences": {}
}