{
  "_format": "hh-sol-artifact-1",
  "contractName": "StakingRewards",
  "sourceName": "contracts/staking_rewards.sol",
  "abi": [
    {
      "inputs": [
        {
          "internalType": "address",
          "name": "_stakingNFT",
          "type": "address"
        }
      ],
      "stateMutability": "nonpayable",
      "type": "constructor"
    },
    {
      "anonymous": false,
      "inputs": [
        {
          "indexed": true,
          "internalType": "address",
          "name": "sender",
          "type": "address"
        },
        {
          "indexed": false,
          "internalType": "uint256",
          "name": "amount",
          "type": "uint256"
        }
      ],
      "name": "FTMReceived",
      "type": "event"
    },
    {
      "anonymous": false,
      "inputs": [
        {
          "indexed": true,
          "internalType": "address",
          "name": "sender",
          "type": "address"
        },
        {
          "indexed": false,
          "internalType": "uint256",
          "name": "amount",
          "type": "uint256"
        }
      ],
      "name": "NFTStaked",
      "type": "event"
    },
    {
      "anonymous": false,
      "inputs": [
        {
          "indexed": true,
          "internalType": "address",
          "name": "sender",
          "type": "address"
        },
        {
          "indexed": false,
          "internalType": "uint256",
          "name": "amount",
          "type": "uint256"
        }
      ],
      "name": "NFTUnstaked",
      "type": "event"
    },
    {
      "anonymous": false,
      "inputs": [
        {
          "indexed": true,
          "internalType": "address",
          "name": "sender",
          "type": "address"
        },
        {
          "indexed": false,
          "internalType": "uint256",
          "name": "amount",
          "type": "uint256"
        }
      ],
      "name": "RewardsClaimed",
      "type": "event"
    },
    {
      "stateMutability": "payable",
      "type": "fallback"
    },
    {
      "inputs": [],
      "name": "SCALE",
      "outputs": [
        {
          "internalType": "uint256",
          "name": "",
          "type": "uint256"
        }
      ],
      "stateMutability": "view",
      "type": "function"
    },
    {
      "inputs": [
        {
          "internalType": "address",
          "name": "account",
          "type": "address"
        }
      ],
      "name": "_getDurationForUser",
      "outputs": [
        {
          "internalType": "uint256",
          "name": "",
          "type": "uint256"
        }
      ],
      "stateMutability": "view",
      "type": "function"
    },
    {
      "inputs": [
        {
          "internalType": "address",
          "name": "account",
          "type": "address"
        }
      ],
      "name": "_getRewardsShare",
      "outputs": [
        {
          "internalType": "uint256",
          "name": "",
          "type": "uint256"
        }
      ],
      "stateMutability": "view",
      "type": "function"
    },
    {
      "inputs": [],
      "name": "_getTotalDuration",
      "outputs": [
        {
          "internalType": "uint256",
          "name": "",
          "type": "uint256"
        }
      ],
      "stateMutability": "view",
      "type": "function"
    },
    {
      "inputs": [],
      "name": "claimRewards",
      "outputs": [],
      "stateMutability": "nonpayable",
      "type": "function"
    },
    {
      "inputs": [],
      "name": "emergencyWithdraw",
      "outputs": [],
      "stateMutability": "nonpayable",
      "type": "function"
    },
    {
      "inputs": [
        {
          "internalType": "address",
          "name": "_user",
          "type": "address"
        }
      ],
      "name": "getRedeemedAt",
      "outputs": [
        {
          "internalType": "uint256[]",
          "name": "",
          "type": "uint256[]"
        }
      ],
      "stateMutability": "view",
      "type": "function"
    },
    {
      "inputs": [
        {
          "internalType": "address",
          "name": "account",
          "type": "address"
        }
      ],
      "name": "getRewards",
      "outputs": [
        {
          "internalType": "uint256",
          "name": "",
          "type": "uint256"
        }
      ],
      "stateMutability": "view",
      "type": "function"
    },
    {
      "inputs": [
        {
          "internalType": "address",
          "name": "_user",
          "type": "address"
        }
      ],
      "name": "getStakedAt",
      "outputs": [
        {
          "internalType": "uint256[]",
          "name": "",
          "type": "uint256[]"
        }
      ],
      "stateMutability": "view",
      "type": "function"
    },
    {
      "inputs": [
        {
          "internalType": "address",
          "name": "",
          "type": "address"
        },
        {
          "internalType": "address",
          "name": "",
          "type": "address"
        },
        {
          "internalType": "uint256[]",
          "name": "",
          "type": "uint256[]"
        },
        {
          "internalType": "uint256[]",
          "name": "",
          "type": "uint256[]"
        },
        {
          "internalType": "bytes",
          "name": "",
          "type": "bytes"
        }
      ],
      "name": "onERC1155BatchReceived",
      "outputs": [
        {
          "internalType": "bytes4",
          "name": "",
          "type": "bytes4"
        }
      ],
      "stateMutability": "nonpayable",
      "type": "function"
    },
    {
      "inputs": [
        {
          "internalType": "address",
          "name": "",
          "type": "address"
        },
        {
          "internalType": "address",
          "name": "",
          "type": "address"
        },
        {
          "internalType": "uint256",
          "name": "",
          "type": "uint256"
        },
        {
          "internalType": "uint256",
          "name": "",
          "type": "uint256"
        },
        {
          "internalType": "bytes",
          "name": "",
          "type": "bytes"
        }
      ],
      "name": "onERC1155Received",
      "outputs": [
        {
          "internalType": "bytes4",
          "name": "",
          "type": "bytes4"
        }
      ],
      "stateMutability": "nonpayable",
      "type": "function"
    },
    {
      "inputs": [],
      "name": "owner",
      "outputs": [
        {
          "internalType": "address",
          "name": "",
          "type": "address"
        }
      ],
      "stateMutability": "view",
      "type": "function"
    },
    {
      "inputs": [
        {
          "internalType": "address",
          "name": "_user",
          "type": "address"
        }
      ],
      "name": "remove",
      "outputs": [],
      "stateMutability": "nonpayable",
      "type": "function"
    },
    {
      "inputs": [
        {
          "internalType": "uint256",
          "name": "_amount",
          "type": "uint256"
        }
      ],
      "name": "stake",
      "outputs": [],
      "stateMutability": "nonpayable",
      "type": "function"
    },
    {
      "inputs": [],
      "name": "stakingToken",
      "outputs": [
        {
          "internalType": "contract IERC1155",
          "name": "",
          "type": "address"
        }
      ],
      "stateMutability": "view",
      "type": "function"
    },
    {
      "inputs": [
        {
          "internalType": "bytes4",
          "name": "interfaceId",
          "type": "bytes4"
        }
      ],
      "name": "supportsInterface",
      "outputs": [
        {
          "internalType": "bool",
          "name": "",
          "type": "bool"
        }
      ],
      "stateMutability": "view",
      "type": "function"
    },
    {
      "inputs": [],
      "name": "totalStaked",
      "outputs": [
        {
          "internalType": "uint256",
          "name": "",
          "type": "uint256"
        }
      ],
      "stateMutability": "view",
      "type": "function"
    },
    {
      "inputs": [
        {
          "internalType": "uint256",
          "name": "_amount",
          "type": "uint256"
        }
      ],
      "name": "unstake",
      "outputs": [],
      "stateMutability": "nonpayable",
      "type": "function"
    },
    {
      "inputs": [
        {
          "internalType": "address",
          "name": "",
          "type": "address"
        }
      ],
      "name": "userRewardPaid",
      "outputs": [
        {
          "internalType": "uint256",
          "name": "",
          "type": "uint256"
        }
      ],
      "stateMutability": "view",
      "type": "function"
    },
    {
      "inputs": [
        {
          "internalType": "address",
          "name": "",
          "type": "address"
        }
      ],
      "name": "userdata",
      "outputs": [
        {
          "internalType": "uint256",
          "name": "balanceOf",
          "type": "uint256"
        }
      ],
      "stateMutability": "view",
      "type": "function"
    },
    {
      "inputs": [
        {
          "internalType": "uint256",
          "name": "",
          "type": "uint256"
        }
      ],
      "name": "users",
      "outputs": [
        {
          "internalType": "address",
          "name": "",
          "type": "address"
        }
      ],
      "stateMutability": "view",
      "type": "function"
    },
    {
      "stateMutability": "payable",
      "type": "receive"
    }
  ],
  "bytecode": "0x60a0604052620f42406004553480156200001857600080fd5b50604051620027193803806200271983398181016040528101906200003e919062000124565b33600560006101000a81548173ffffffffffffffffffffffffffffffffffffffff021916908373ffffffffffffffffffffffffffffffffffffffff1602179055508073ffffffffffffffffffffffffffffffffffffffff1660808173ffffffffffffffffffffffffffffffffffffffff16815250505062000156565b600080fd5b600073ffffffffffffffffffffffffffffffffffffffff82169050919050565b6000620000ec82620000bf565b9050919050565b620000fe81620000df565b81146200010a57600080fd5b50565b6000815190506200011e81620000f3565b92915050565b6000602082840312156200013d576200013c620000ba565b5b60006200014d848285016200010d565b91505092915050565b6080516125996200018060003960008181610cb9015281816110c6015261123b01526125996000f3fe60806040526004361061012e5760003560e01c806379ee54f7116100ab578063bc197c811161006f578063bc197c81146104bc578063c5691cbd146104f9578063d94dbc6a14610536578063db2e21bc14610573578063eced55261461058a578063f23a6e61146105b557610183565b806379ee54f7146103c3578063817b1cd2146104005780638da5cb5b1461042b578063a694fc3a14610456578063ba14f26a1461047f57610183565b8063372500ab116100f2578063372500ab146102dc578063605fbc24146102f357806372f702f31461031e57806373c4c19614610349578063752d2c471461038657610183565b806301ffc9a7146101d35780630d1546ac1461021057806329092d0e1461024d5780632e17de7814610276578063365b98b21461029f57610183565b36610183573373ffffffffffffffffffffffffffffffffffffffff167f627a1f2a33e46fb65cae23da2cb008aaa316ab9137e564b1b802a06811b99101346040516101799190611931565b60405180910390a2005b3373ffffffffffffffffffffffffffffffffffffffff167f627a1f2a33e46fb65cae23da2cb008aaa316ab9137e564b1b802a06811b99101346040516101c99190611931565b60405180910390a2005b3480156101df57600080fd5b506101fa60048036038101906101f591906119b8565b6105f2565b6040516102079190611a00565b60405180910390f35b34801561021c57600080fd5b5061023760048036038101906102329190611a79565b61066c565b6040516102449190611931565b60405180910390f35b34801561025957600080fd5b50610274600480360381019061026f9190611a79565b610896565b005b34801561028257600080fd5b5061029d60048036038101906102989190611ad2565b610a26565b005b3480156102ab57600080fd5b506102c660048036038101906102c19190611ad2565b610d9a565b6040516102d39190611b0e565b60405180910390f35b3480156102e857600080fd5b506102f1610dd9565b005b3480156102ff57600080fd5b5061030861103e565b6040516103159190611931565b60405180910390f35b34801561032a57600080fd5b506103336110c4565b6040516103409190611b88565b60405180910390f35b34801561035557600080fd5b50610370600480360381019061036b9190611a79565b6110e8565b60405161037d9190611931565b60405180910390f35b34801561039257600080fd5b506103ad60048036038101906103a89190611a79565b611106565b6040516103ba9190611c61565b60405180910390f35b3480156103cf57600080fd5b506103ea60048036038101906103e59190611a79565b6111a0565b6040516103f79190611931565b60405180910390f35b34801561040c57600080fd5b506104156111ca565b6040516104229190611931565b60405180910390f35b34801561043757600080fd5b506104406111d0565b60405161044d9190611b0e565b60405180910390f35b34801561046257600080fd5b5061047d60048036038101906104789190611ad2565b6111f6565b005b34801561048b57600080fd5b506104a660048036038101906104a19190611a79565b611518565b6040516104b39190611931565b60405180910390f35b3480156104c857600080fd5b506104e360048036038101906104de9190611e91565b611530565b6040516104f09190611f6f565b60405180910390f35b34801561050557600080fd5b50610520600480360381019061051b9190611a79565b611545565b60405161052d9190611c61565b60405180910390f35b34801561054257600080fd5b5061055d60048036038101906105589190611a79565b6115df565b60405161056a9190611931565b60405180910390f35b34801561057f57600080fd5b5061058861168e565b005b34801561059657600080fd5b5061059f611789565b6040516105ac9190611931565b60405180910390f35b3480156105c157600080fd5b506105dc60048036038101906105d79190611f8a565b61178f565b6040516105e99190611f6f565b60405180910390f35b60007f4e2312e0000000000000000000000000000000000000000000000000000000007bffffffffffffffffffffffffffffffffffffffffffffffffffffffff1916827bffffffffffffffffffffffffffffffffffffffffffffffffffffffff191614806106655750610664826117a4565b5b9050919050565b600080600360008473ffffffffffffffffffffffffffffffffffffffff1673ffffffffffffffffffffffffffffffffffffffff1681526020019081526020016000206000015490506000805b8281101561088b576000600360008773ffffffffffffffffffffffffffffffffffffffff1673ffffffffffffffffffffffffffffffffffffffff168152602001908152602001600020600201828154811061071657610715612021565b5b9060005260206000200154036107a257600360008673ffffffffffffffffffffffffffffffffffffffff1673ffffffffffffffffffffffffffffffffffffffff168152602001908152602001600020600101818154811061077a57610779612021565b5b906000526020600020015442610790919061207f565b8261079b91906120b3565b9150610878565b600360008673ffffffffffffffffffffffffffffffffffffffff1673ffffffffffffffffffffffffffffffffffffffff16815260200190815260200160002060010181815481106107f6576107f5612021565b5b9060005260206000200154600360008773ffffffffffffffffffffffffffffffffffffffff1673ffffffffffffffffffffffffffffffffffffffff168152602001908152602001600020600201828154811061085557610854612021565b5b906000526020600020015461086a919061207f565b8261087591906120b3565b91505b8080610883906120e7565b9150506106b8565b508092505050919050565b6000600280549050116108de576040517f08c379a00000000000000000000000000000000000000000000000000000000081526004016108d59061218c565b60405180910390fd5b60006108e98261180e565b9050600081121561092f576040517f08c379a0000000000000000000000000000000000000000000000000000000008152600401610926906121f8565b60405180910390fd5b60026001600280549050610943919061207f565b8154811061095457610953612021565b5b9060005260206000200160009054906101000a900473ffffffffffffffffffffffffffffffffffffffff166002828154811061099357610992612021565b5b9060005260206000200160006101000a81548173ffffffffffffffffffffffffffffffffffffffff021916908373ffffffffffffffffffffffffffffffffffffffff16021790555060028054806109ed576109ec612218565b5b6001900381819060005260206000200160006101000a81549073ffffffffffffffffffffffffffffffffffffffff021916905590555050565b60008111610a69576040517f08c379a0000000000000000000000000000000000000000000000000000000008152600401610a6090612293565b60405180910390fd5b80600360003373ffffffffffffffffffffffffffffffffffffffff1673ffffffffffffffffffffffffffffffffffffffff168152602001908152602001600020600001541015610aee576040517f08c379a0000000000000000000000000000000000000000000000000000000008152600401610ae5906122ff565b60405180910390fd5b600081600360003373ffffffffffffffffffffffffffffffffffffffff1673ffffffffffffffffffffffffffffffffffffffff16815260200190815260200160002060000154610b3e919061207f565b03610bc357610b4b610dd9565b600360003373ffffffffffffffffffffffffffffffffffffffff1673ffffffffffffffffffffffffffffffffffffffff168152602001908152602001600020600080820160009055600182016000610ba391906118da565b600282016000610bb391906118da565b5050610bbe33610896565b610c9e565b60005b818111610c435742600360003373ffffffffffffffffffffffffffffffffffffffff1673ffffffffffffffffffffffffffffffffffffffff1681526020019081526020016000206002018281548110610c2257610c21612021565b5b90600052602060002001819055508080610c3b906120e7565b915050610bc6565b5080600360003373ffffffffffffffffffffffffffffffffffffffff1673ffffffffffffffffffffffffffffffffffffffff1681526020019081526020016000206000016000828254610c96919061207f565b925050819055505b8060016000828254610cb0919061207f565b925050819055507f000000000000000000000000000000000000000000000000000000000000000073ffffffffffffffffffffffffffffffffffffffff1663f242432a30336000856040518563ffffffff1660e01b8152600401610d179493929190612391565b600060405180830381600087803b158015610d3157600080fd5b505af1158015610d45573d6000803e3d6000fd5b505050503373ffffffffffffffffffffffffffffffffffffffff167f963148346e3c93bb3eb4b4c296e2e13321ff22bf1118c91686cb1bfe4adcd91882604051610d8f9190611931565b60405180910390a250565b60028181548110610daa57600080fd5b906000526020600020016000915054906101000a900473ffffffffffffffffffffffffffffffffffffffff1681565b6000610de4336111a0565b905060008111610e29576040517f08c379a0000000000000000000000000000000000000000000000000000000008152600401610e2090612435565b60405180910390fd5b806000803373ffffffffffffffffffffffffffffffffffffffff1673ffffffffffffffffffffffffffffffffffffffff1681526020019081526020016000206000828254610e7791906120b3565b9250508190555060005b600360003373ffffffffffffffffffffffffffffffffffffffff1673ffffffffffffffffffffffffffffffffffffffff16815260200190815260200160002060000154811015610fa55742600360003373ffffffffffffffffffffffffffffffffffffffff1673ffffffffffffffffffffffffffffffffffffffff1681526020019081526020016000206001018281548110610f2057610f1f612021565b5b90600052602060002001819055506000600360003373ffffffffffffffffffffffffffffffffffffffff1673ffffffffffffffffffffffffffffffffffffffff1681526020019081526020016000206002018281548110610f8457610f83612021565b5b90600052602060002001819055508080610f9d906120e7565b915050610e81565b503373ffffffffffffffffffffffffffffffffffffffff166108fc829081150290604051600060405180830381858888f19350505050158015610fec573d6000803e3d6000fd5b503373ffffffffffffffffffffffffffffffffffffffff167ffc30cddea38e2bf4d6ea7d3f9ed3b6ad7f176419f4963bd81318067a4aee73fe826040516110339190611931565b60405180910390a250565b6000806000905060005b6002805490508110156110bc5761109c6002828154811061106c5761106b612021565b5b9060005260206000200160009054906101000a900473ffffffffffffffffffffffffffffffffffffffff1661066c565b826110a791906120b3565b915080806110b4906120e7565b915050611048565b508091505090565b7f000000000000000000000000000000000000000000000000000000000000000081565b60036020528060005260406000206000915090508060000154905081565b6060600360008373ffffffffffffffffffffffffffffffffffffffff1673ffffffffffffffffffffffffffffffffffffffff16815260200190815260200160002060020180548060200260200160405190810160405280929190818152602001828054801561119457602002820191906000526020600020905b815481526020019060010190808311611180575b50505050509050919050565b6000600454476111af846115df565b6111b99190612455565b6111c391906124c6565b9050919050565b60015481565b600560009054906101000a900473ffffffffffffffffffffffffffffffffffffffff1681565b60008111611239576040517f08c379a000000000000000000000000000000000000000000000000000000000815260040161123090612293565b60405180910390fd5b7f000000000000000000000000000000000000000000000000000000000000000073ffffffffffffffffffffffffffffffffffffffff1663f242432a33306000856040518563ffffffff1660e01b81526004016112999493929190612391565b600060405180830381600087803b1580156112b357600080fd5b505af11580156112c7573d6000803e3d6000fd5b5050505080600160008282546112dd91906120b3565b9250508190555080600360003373ffffffffffffffffffffffffffffffffffffffff1673ffffffffffffffffffffffffffffffffffffffff168152602001908152602001600020600001600082825461133691906120b3565b9250508190555060006113483361180e565b90507fffffffffffffffffffffffffffffffffffffffffffffffffffffffffffffffff81036113d5576002339080600181540180825580915050600190039060005260206000200160009091909190916101000a81548173ffffffffffffffffffffffffffffffffffffffff021916908373ffffffffffffffffffffffffffffffffffffffff1602179055505b60005b8281116114c557600360003373ffffffffffffffffffffffffffffffffffffffff1673ffffffffffffffffffffffffffffffffffffffff168152602001908152602001600020600101429080600181540180825580915050600190039060005260206000200160009091909190915055600360003373ffffffffffffffffffffffffffffffffffffffff1673ffffffffffffffffffffffffffffffffffffffff1681526020019081526020016000206002016000908060018154018082558091505060019003906000526020600020016000909190919091505580806114bd906120e7565b9150506113d8565b503373ffffffffffffffffffffffffffffffffffffffff167f0cda5cf38f6592672c7b4a22ff3d50874d1913629bd5ffedc27b7b40503d60fd8360405161150c9190611931565b60405180910390a25050565b60006020528060005260406000206000915090505481565b600063bc197c8160e01b905095945050505050565b6060600360008373ffffffffffffffffffffffffffffffffffffffff1673ffffffffffffffffffffffffffffffffffffffff1681526020019081526020016000206001018054806020026020016040519081016040528092919081815260200182805480156115d357602002820191906000526020600020905b8154815260200190600101908083116115bf575b50505050509050919050565b6000806115ea61103e565b6004546115f68561066c565b6116009190612455565b61160a91906124c6565b90506000600154600454600360008773ffffffffffffffffffffffffffffffffffffffff1673ffffffffffffffffffffffffffffffffffffffff168152602001908152602001600020600001546116619190612455565b61166b91906124c6565b90506002818361167b91906120b3565b61168591906124c6565b92505050919050565b600560009054906101000a900473ffffffffffffffffffffffffffffffffffffffff1673ffffffffffffffffffffffffffffffffffffffff163373ffffffffffffffffffffffffffffffffffffffff161461171e576040517f08c379a000000000000000000000000000000000000000000000000000000000815260040161171590612543565b60405180910390fd5b600560009054906101000a900473ffffffffffffffffffffffffffffffffffffffff1673ffffffffffffffffffffffffffffffffffffffff166108fc479081150290604051600060405180830381858888f19350505050158015611786573d6000803e3d6000fd5b50565b60045481565b600063f23a6e6160e01b905095945050505050565b60007f01ffc9a7000000000000000000000000000000000000000000000000000000007bffffffffffffffffffffffffffffffffffffffffffffffffffffffff1916827bffffffffffffffffffffffffffffffffffffffffffffffffffffffff1916149050919050565b600080600090505b6002805490508110156118b0578273ffffffffffffffffffffffffffffffffffffffff166002828154811061184e5761184d612021565b5b9060005260206000200160009054906101000a900473ffffffffffffffffffffffffffffffffffffffff1673ffffffffffffffffffffffffffffffffffffffff160361189d57809150506118d5565b80806118a8906120e7565b915050611816565b507fffffffffffffffffffffffffffffffffffffffffffffffffffffffffffffffff90505b919050565b50805460008255906000526020600020908101906118f891906118fb565b50565b5b808211156119145760008160009055506001016118fc565b5090565b6000819050919050565b61192b81611918565b82525050565b60006020820190506119466000830184611922565b92915050565b6000604051905090565b600080fd5b600080fd5b60007fffffffff0000000000000000000000000000000000000000000000000000000082169050919050565b61199581611960565b81146119a057600080fd5b50565b6000813590506119b28161198c565b92915050565b6000602082840312156119ce576119cd611956565b5b60006119dc848285016119a3565b91505092915050565b60008115159050919050565b6119fa816119e5565b82525050565b6000602082019050611a1560008301846119f1565b92915050565b600073ffffffffffffffffffffffffffffffffffffffff82169050919050565b6000611a4682611a1b565b9050919050565b611a5681611a3b565b8114611a6157600080fd5b50565b600081359050611a7381611a4d565b92915050565b600060208284031215611a8f57611a8e611956565b5b6000611a9d84828501611a64565b91505092915050565b611aaf81611918565b8114611aba57600080fd5b50565b600081359050611acc81611aa6565b92915050565b600060208284031215611ae857611ae7611956565b5b6000611af684828501611abd565b91505092915050565b611b0881611a3b565b82525050565b6000602082019050611b236000830184611aff565b92915050565b6000819050919050565b6000611b4e611b49611b4484611a1b565b611b29565b611a1b565b9050919050565b6000611b6082611b33565b9050919050565b6000611b7282611b55565b9050919050565b611b8281611b67565b82525050565b6000602082019050611b9d6000830184611b79565b92915050565b600081519050919050565b600082825260208201905092915050565b6000819050602082019050919050565b611bd881611918565b82525050565b6000611bea8383611bcf565b60208301905092915050565b6000602082019050919050565b6000611c0e82611ba3565b611c188185611bae565b9350611c2383611bbf565b8060005b83811015611c54578151611c3b8882611bde565b9750611c4683611bf6565b925050600181019050611c27565b5085935050505092915050565b60006020820190508181036000830152611c7b8184611c03565b905092915050565b600080fd5b6000601f19601f8301169050919050565b7f4e487b7100000000000000000000000000000000000000000000000000000000600052604160045260246000fd5b611cd182611c88565b810181811067ffffffffffffffff82111715611cf057611cef611c99565b5b80604052505050565b6000611d0361194c565b9050611d0f8282611cc8565b919050565b600067ffffffffffffffff821115611d2f57611d2e611c99565b5b602082029050602081019050919050565b600080fd5b6000611d58611d5384611d14565b611cf9565b90508083825260208201905060208402830185811115611d7b57611d7a611d40565b5b835b81811015611da45780611d908882611abd565b845260208401935050602081019050611d7d565b5050509392505050565b600082601f830112611dc357611dc2611c83565b5b8135611dd3848260208601611d45565b91505092915050565b600080fd5b600067ffffffffffffffff821115611dfc57611dfb611c99565b5b611e0582611c88565b9050602081019050919050565b82818337600083830152505050565b6000611e34611e2f84611de1565b611cf9565b905082815260208101848484011115611e5057611e4f611ddc565b5b611e5b848285611e12565b509392505050565b600082601f830112611e7857611e77611c83565b5b8135611e88848260208601611e21565b91505092915050565b600080600080600060a08688031215611ead57611eac611956565b5b6000611ebb88828901611a64565b9550506020611ecc88828901611a64565b945050604086013567ffffffffffffffff811115611eed57611eec61195b565b5b611ef988828901611dae565b935050606086013567ffffffffffffffff811115611f1a57611f1961195b565b5b611f2688828901611dae565b925050608086013567ffffffffffffffff811115611f4757611f4661195b565b5b611f5388828901611e63565b9150509295509295909350565b611f6981611960565b82525050565b6000602082019050611f846000830184611f60565b92915050565b600080600080600060a08688031215611fa657611fa5611956565b5b6000611fb488828901611a64565b9550506020611fc588828901611a64565b9450506040611fd688828901611abd565b9350506060611fe788828901611abd565b925050608086013567ffffffffffffffff8111156120085761200761195b565b5b61201488828901611e63565b9150509295509295909350565b7f4e487b7100000000000000000000000000000000000000000000000000000000600052603260045260246000fd5b7f4e487b7100000000000000000000000000000000000000000000000000000000600052601160045260246000fd5b600061208a82611918565b915061209583611918565b92508282039050818111156120ad576120ac612050565b5b92915050565b60006120be82611918565b91506120c983611918565b92508282019050808211156120e1576120e0612050565b5b92915050565b60006120f282611918565b91507fffffffffffffffffffffffffffffffffffffffffffffffffffffffffffffffff820361212457612123612050565b5b600182019050919050565b600082825260208201905092915050565b7f43616e27742072656d6f76652066726f6d20656d707479206172726179000000600082015250565b6000612176601d8361212f565b915061218182612140565b602082019050919050565b600060208201905081810360008301526121a581612169565b9050919050565b7f55736572206e6f7420666f756e64000000000000000000000000000000000000600082015250565b60006121e2600e8361212f565b91506121ed826121ac565b602082019050919050565b60006020820190508181036000830152612211816121d5565b9050919050565b7f4e487b7100000000000000000000000000000000000000000000000000000000600052603160045260246000fd5b7f616d6f756e74203d203000000000000000000000000000000000000000000000600082015250565b600061227d600a8361212f565b915061228882612247565b602082019050919050565b600060208201905081810360008301526122ac81612270565b9050919050565b7f6e6f7420656e6f7567682062616c616e63650000000000000000000000000000600082015250565b60006122e960128361212f565b91506122f4826122b3565b602082019050919050565b60006020820190508181036000830152612318816122dc565b9050919050565b6000819050919050565b600061234461233f61233a8461231f565b611b29565b611918565b9050919050565b61235481612329565b82525050565b600082825260208201905092915050565b50565b600061237b60008361235a565b91506123868261236b565b600082019050919050565b600060a0820190506123a66000830187611aff565b6123b36020830186611aff565b6123c0604083018561234b565b6123cd6060830184611922565b81810360808301526123de8161236e565b905095945050505050565b7f6e6f207265776172647300000000000000000000000000000000000000000000600082015250565b600061241f600a8361212f565b915061242a826123e9565b602082019050919050565b6000602082019050818103600083015261244e81612412565b9050919050565b600061246082611918565b915061246b83611918565b925082820261247981611918565b915082820484148315176124905761248f612050565b5b5092915050565b7f4e487b7100000000000000000000000000000000000000000000000000000000600052601260045260246000fd5b60006124d182611918565b91506124dc83611918565b9250826124ec576124eb612497565b5b828204905092915050565b7f6e6f7420617574686f72697a6564000000000000000000000000000000000000600082015250565b600061252d600e8361212f565b9150612538826124f7565b602082019050919050565b6000602082019050818103600083015261255c81612520565b905091905056fea2646970667358221220f401ad0dc9c1c47d381cc7e1f5e81654d053af5a6bef8ae808691473057aed3064736f6c63430008110033",
  "linkReferences": {},
  "deployedLinkReferences": {}
}