{
  "_format": "hh-sol-artifact-1",
  "contractName": "StakingRewards",
  "sourceName": "contracts/staking_rewards.sol",
  "abi": [
    {
      "inputs": [
        {
          "internalType": "address",
          "name": "_stakingNFT",
          "type": "address"
        }
      ],
      "stateMutability": "nonpayable",
      "type": "constructor"
    },
    {
      "anonymous": false,
      "inputs": [
        {
          "indexed": true,
          "internalType": "address",
          "name": "sender",
          "type": "address"
        },
        {
          "indexed": false,
          "internalType": "uint256",
          "name": "amount",
          "type": "uint256"
        }
      ],
      "name": "FTMReceived",
      "type": "event"
    },
    {
      "anonymous": false,
      "inputs": [
        {
          "indexed": true,
          "internalType": "address",
          "name": "sender",
          "type": "address"
        },
        {
          "indexed": false,
          "internalType": "uint256",
          "name": "amount",
          "type": "uint256"
        }
      ],
      "name": "NFTStaked",
      "type": "event"
    },
    {
      "anonymous": false,
      "inputs": [
        {
          "indexed": true,
          "internalType": "address",
          "name": "sender",
          "type": "address"
        },
        {
          "indexed": false,
          "internalType": "uint256",
          "name": "amount",
          "type": "uint256"
        }
      ],
      "name": "NFTUnstaked",
      "type": "event"
    },
    {
      "anonymous": false,
      "inputs": [
        {
          "indexed": true,
          "internalType": "address",
          "name": "sender",
          "type": "address"
        },
        {
          "indexed": false,
          "internalType": "uint256",
          "name": "amount",
          "type": "uint256"
        }
      ],
      "name": "RewardsClaimed",
      "type": "event"
    },
    {
      "stateMutability": "payable",
      "type": "fallback"
    },
    {
      "inputs": [],
      "name": "SCALE",
      "outputs": [
        {
          "internalType": "uint256",
          "name": "",
          "type": "uint256"
        }
      ],
      "stateMutability": "view",
      "type": "function"
    },
    {
      "inputs": [
        {
          "internalType": "address",
          "name": "account",
          "type": "address"
        }
      ],
      "name": "_getDurationForUser",
      "outputs": [
        {
          "internalType": "uint256",
          "name": "",
          "type": "uint256"
        }
      ],
      "stateMutability": "view",
      "type": "function"
    },
    {
      "inputs": [
        {
          "internalType": "address",
          "name": "account",
          "type": "address"
        }
      ],
      "name": "_getRewardsShare",
      "outputs": [
        {
          "internalType": "uint256",
          "name": "",
          "type": "uint256"
        }
      ],
      "stateMutability": "view",
      "type": "function"
    },
    {
      "inputs": [],
      "name": "_getTotalDuration",
      "outputs": [
        {
          "internalType": "uint256",
          "name": "",
          "type": "uint256"
        }
      ],
      "stateMutability": "view",
      "type": "function"
    },
    {
      "inputs": [],
      "name": "claimRewards",
      "outputs": [],
      "stateMutability": "nonpayable",
      "type": "function"
    },
    {
      "inputs": [],
      "name": "emergencyWithdraw",
      "outputs": [],
      "stateMutability": "nonpayable",
      "type": "function"
    },
    {
      "inputs": [
        {
          "internalType": "address",
          "name": "_user",
          "type": "address"
        }
      ],
      "name": "getBalanceOf",
      "outputs": [
        {
          "internalType": "uint256",
          "name": "",
          "type": "uint256"
        }
      ],
      "stateMutability": "view",
      "type": "function"
    },
    {
      "inputs": [
        {
          "internalType": "address",
          "name": "_user",
          "type": "address"
        }
      ],
      "name": "getRedeemedAt",
      "outputs": [
        {
          "internalType": "uint256[]",
          "name": "",
          "type": "uint256[]"
        }
      ],
      "stateMutability": "view",
      "type": "function"
    },
    {
      "inputs": [
        {
          "internalType": "address",
          "name": "account",
          "type": "address"
        }
      ],
      "name": "getRewards",
      "outputs": [
        {
          "internalType": "uint256",
          "name": "",
          "type": "uint256"
        }
      ],
      "stateMutability": "view",
      "type": "function"
    },
    {
      "inputs": [
        {
          "internalType": "address",
          "name": "_user",
          "type": "address"
        }
      ],
      "name": "getStakedAt",
      "outputs": [
        {
          "internalType": "uint256[]",
          "name": "",
          "type": "uint256[]"
        }
      ],
      "stateMutability": "view",
      "type": "function"
    },
    {
      "inputs": [
        {
          "internalType": "address",
          "name": "",
          "type": "address"
        },
        {
          "internalType": "address",
          "name": "",
          "type": "address"
        },
        {
          "internalType": "uint256[]",
          "name": "",
          "type": "uint256[]"
        },
        {
          "internalType": "uint256[]",
          "name": "",
          "type": "uint256[]"
        },
        {
          "internalType": "bytes",
          "name": "",
          "type": "bytes"
        }
      ],
      "name": "onERC1155BatchReceived",
      "outputs": [
        {
          "internalType": "bytes4",
          "name": "",
          "type": "bytes4"
        }
      ],
      "stateMutability": "nonpayable",
      "type": "function"
    },
    {
      "inputs": [
        {
          "internalType": "address",
          "name": "",
          "type": "address"
        },
        {
          "internalType": "address",
          "name": "",
          "type": "address"
        },
        {
          "internalType": "uint256",
          "name": "",
          "type": "uint256"
        },
        {
          "internalType": "uint256",
          "name": "",
          "type": "uint256"
        },
        {
          "internalType": "bytes",
          "name": "",
          "type": "bytes"
        }
      ],
      "name": "onERC1155Received",
      "outputs": [
        {
          "internalType": "bytes4",
          "name": "",
          "type": "bytes4"
        }
      ],
      "stateMutability": "nonpayable",
      "type": "function"
    },
    {
      "inputs": [],
      "name": "owner",
      "outputs": [
        {
          "internalType": "address",
          "name": "",
          "type": "address"
        }
      ],
      "stateMutability": "view",
      "type": "function"
    },
    {
      "inputs": [
        {
          "internalType": "address",
          "name": "_user",
          "type": "address"
        }
      ],
      "name": "remove",
      "outputs": [],
      "stateMutability": "nonpayable",
      "type": "function"
    },
    {
      "inputs": [
        {
          "internalType": "uint256",
          "name": "_amount",
          "type": "uint256"
        }
      ],
      "name": "stake",
      "outputs": [],
      "stateMutability": "nonpayable",
      "type": "function"
    },
    {
      "inputs": [],
      "name": "stakingToken",
      "outputs": [
        {
          "internalType": "contract IERC1155",
          "name": "",
          "type": "address"
        }
      ],
      "stateMutability": "view",
      "type": "function"
    },
    {
      "inputs": [
        {
          "internalType": "bytes4",
          "name": "interfaceId",
          "type": "bytes4"
        }
      ],
      "name": "supportsInterface",
      "outputs": [
        {
          "internalType": "bool",
          "name": "",
          "type": "bool"
        }
      ],
      "stateMutability": "view",
      "type": "function"
    },
    {
      "inputs": [],
      "name": "totalStaked",
      "outputs": [
        {
          "internalType": "uint256",
          "name": "",
          "type": "uint256"
        }
      ],
      "stateMutability": "view",
      "type": "function"
    },
    {
      "inputs": [
        {
          "internalType": "uint256",
          "name": "_amount",
          "type": "uint256"
        }
      ],
      "name": "unstake",
      "outputs": [],
      "stateMutability": "nonpayable",
      "type": "function"
    },
    {
      "inputs": [
        {
          "internalType": "address",
          "name": "",
          "type": "address"
        }
      ],
      "name": "userRewardPaid",
      "outputs": [
        {
          "internalType": "uint256",
          "name": "",
          "type": "uint256"
        }
      ],
      "stateMutability": "view",
      "type": "function"
    },
    {
      "inputs": [
        {
          "internalType": "address",
          "name": "",
          "type": "address"
        }
      ],
      "name": "userdata",
      "outputs": [
        {
          "internalType": "uint256",
          "name": "balanceOf",
          "type": "uint256"
        }
      ],
      "stateMutability": "view",
      "type": "function"
    },
    {
      "inputs": [
        {
          "internalType": "uint256",
          "name": "",
          "type": "uint256"
        }
      ],
      "name": "users",
      "outputs": [
        {
          "internalType": "address",
          "name": "",
          "type": "address"
        }
      ],
      "stateMutability": "view",
      "type": "function"
    },
    {
      "stateMutability": "payable",
      "type": "receive"
    }
  ],
  "bytecode": "0x60a0604052620f42406004553480156200001857600080fd5b50604051620027343803806200273483398181016040528101906200003e919062000124565b33600560006101000a81548173ffffffffffffffffffffffffffffffffffffffff021916908373ffffffffffffffffffffffffffffffffffffffff1602179055508073ffffffffffffffffffffffffffffffffffffffff1660808173ffffffffffffffffffffffffffffffffffffffff16815250505062000156565b600080fd5b600073ffffffffffffffffffffffffffffffffffffffff82169050919050565b6000620000ec82620000bf565b9050919050565b620000fe81620000df565b81146200010a57600080fd5b50565b6000815190506200011e81620000f3565b92915050565b6000602082840312156200013d576200013c620000ba565b5b60006200014d848285016200010d565b91505092915050565b6080516125b46200018060003960008181610d010152818161110e01526112cf01526125b46000f3fe6080604052600436106101395760003560e01c8063817b1cd2116100ab578063bc197c811161006f578063bc197c8114610504578063c5691cbd14610541578063d94dbc6a1461057e578063db2e21bc146105bb578063eced5526146105d2578063f23a6e61146105fd5761018e565b8063817b1cd21461040b5780638da5cb5b146104365780639b96eece14610461578063a694fc3a1461049e578063ba14f26a146104c75761018e565b8063372500ab116100fd578063372500ab146102e7578063605fbc24146102fe57806372f702f31461032957806373c4c19614610354578063752d2c471461039157806379ee54f7146103ce5761018e565b806301ffc9a7146101de5780630d1546ac1461021b57806329092d0e146102585780632e17de7814610281578063365b98b2146102aa5761018e565b3661018e573373ffffffffffffffffffffffffffffffffffffffff167f627a1f2a33e46fb65cae23da2cb008aaa316ab9137e564b1b802a06811b9910134604051610184919061194c565b60405180910390a2005b3373ffffffffffffffffffffffffffffffffffffffff167f627a1f2a33e46fb65cae23da2cb008aaa316ab9137e564b1b802a06811b99101346040516101d4919061194c565b60405180910390a2005b3480156101ea57600080fd5b50610205600480360381019061020091906119d3565b61063a565b6040516102129190611a1b565b60405180910390f35b34801561022757600080fd5b50610242600480360381019061023d9190611a94565b6106b4565b60405161024f919061194c565b60405180910390f35b34801561026457600080fd5b5061027f600480360381019061027a9190611a94565b6108de565b005b34801561028d57600080fd5b506102a860048036038101906102a39190611aed565b610a6e565b005b3480156102b657600080fd5b506102d160048036038101906102cc9190611aed565b610de2565b6040516102de9190611b29565b60405180910390f35b3480156102f357600080fd5b506102fc610e21565b005b34801561030a57600080fd5b50610313611086565b604051610320919061194c565b60405180910390f35b34801561033557600080fd5b5061033e61110c565b60405161034b9190611ba3565b60405180910390f35b34801561036057600080fd5b5061037b60048036038101906103769190611a94565b611130565b604051610388919061194c565b60405180910390f35b34801561039d57600080fd5b506103b860048036038101906103b39190611a94565b61114e565b6040516103c59190611c7c565b60405180910390f35b3480156103da57600080fd5b506103f560048036038101906103f09190611a94565b6111e8565b604051610402919061194c565b60405180910390f35b34801561041757600080fd5b50610420611212565b60405161042d919061194c565b60405180910390f35b34801561044257600080fd5b5061044b611218565b6040516104589190611b29565b60405180910390f35b34801561046d57600080fd5b5061048860048036038101906104839190611a94565b61123e565b604051610495919061194c565b60405180910390f35b3480156104aa57600080fd5b506104c560048036038101906104c09190611aed565b61128a565b005b3480156104d357600080fd5b506104ee60048036038101906104e99190611a94565b6115ac565b6040516104fb919061194c565b60405180910390f35b34801561051057600080fd5b5061052b60048036038101906105269190611eac565b6115c4565b6040516105389190611f8a565b60405180910390f35b34801561054d57600080fd5b5061056860048036038101906105639190611a94565b6115d9565b6040516105759190611c7c565b60405180910390f35b34801561058a57600080fd5b506105a560048036038101906105a09190611a94565b611673565b6040516105b2919061194c565b60405180910390f35b3480156105c757600080fd5b506105d06116a9565b005b3480156105de57600080fd5b506105e76117a4565b6040516105f4919061194c565b60405180910390f35b34801561060957600080fd5b50610624600480360381019061061f9190611fa5565b6117aa565b6040516106319190611f8a565b60405180910390f35b60007f4e2312e0000000000000000000000000000000000000000000000000000000007bffffffffffffffffffffffffffffffffffffffffffffffffffffffff1916827bffffffffffffffffffffffffffffffffffffffffffffffffffffffff191614806106ad57506106ac826117bf565b5b9050919050565b600080600360008473ffffffffffffffffffffffffffffffffffffffff1673ffffffffffffffffffffffffffffffffffffffff1681526020019081526020016000206000015490506000805b828110156108d3576000600360008773ffffffffffffffffffffffffffffffffffffffff1673ffffffffffffffffffffffffffffffffffffffff168152602001908152602001600020600201828154811061075e5761075d61203c565b5b9060005260206000200154036107ea57600360008673ffffffffffffffffffffffffffffffffffffffff1673ffffffffffffffffffffffffffffffffffffffff16815260200190815260200160002060010181815481106107c2576107c161203c565b5b9060005260206000200154426107d8919061209a565b826107e391906120ce565b91506108c0565b600360008673ffffffffffffffffffffffffffffffffffffffff1673ffffffffffffffffffffffffffffffffffffffff168152602001908152602001600020600101818154811061083e5761083d61203c565b5b9060005260206000200154600360008773ffffffffffffffffffffffffffffffffffffffff1673ffffffffffffffffffffffffffffffffffffffff168152602001908152602001600020600201828154811061089d5761089c61203c565b5b90600052602060002001546108b2919061209a565b826108bd91906120ce565b91505b80806108cb90612102565b915050610700565b508092505050919050565b600060028054905011610926576040517f08c379a000000000000000000000000000000000000000000000000000000000815260040161091d906121a7565b60405180910390fd5b600061093182611829565b90506000811215610977576040517f08c379a000000000000000000000000000000000000000000000000000000000815260040161096e90612213565b60405180910390fd5b6002600160028054905061098b919061209a565b8154811061099c5761099b61203c565b5b9060005260206000200160009054906101000a900473ffffffffffffffffffffffffffffffffffffffff16600282815481106109db576109da61203c565b5b9060005260206000200160006101000a81548173ffffffffffffffffffffffffffffffffffffffff021916908373ffffffffffffffffffffffffffffffffffffffff1602179055506002805480610a3557610a34612233565b5b6001900381819060005260206000200160006101000a81549073ffffffffffffffffffffffffffffffffffffffff021916905590555050565b60008111610ab1576040517f08c379a0000000000000000000000000000000000000000000000000000000008152600401610aa8906122ae565b60405180910390fd5b80600360003373ffffffffffffffffffffffffffffffffffffffff1673ffffffffffffffffffffffffffffffffffffffff168152602001908152602001600020600001541015610b36576040517f08c379a0000000000000000000000000000000000000000000000000000000008152600401610b2d9061231a565b60405180910390fd5b600081600360003373ffffffffffffffffffffffffffffffffffffffff1673ffffffffffffffffffffffffffffffffffffffff16815260200190815260200160002060000154610b86919061209a565b03610c0b57610b93610e21565b600360003373ffffffffffffffffffffffffffffffffffffffff1673ffffffffffffffffffffffffffffffffffffffff168152602001908152602001600020600080820160009055600182016000610beb91906118f5565b600282016000610bfb91906118f5565b5050610c06336108de565b610ce6565b60005b818111610c8b5742600360003373ffffffffffffffffffffffffffffffffffffffff1673ffffffffffffffffffffffffffffffffffffffff1681526020019081526020016000206002018281548110610c6a57610c6961203c565b5b90600052602060002001819055508080610c8390612102565b915050610c0e565b5080600360003373ffffffffffffffffffffffffffffffffffffffff1673ffffffffffffffffffffffffffffffffffffffff1681526020019081526020016000206000016000828254610cde919061209a565b925050819055505b8060016000828254610cf8919061209a565b925050819055507f000000000000000000000000000000000000000000000000000000000000000073ffffffffffffffffffffffffffffffffffffffff1663f242432a30336000856040518563ffffffff1660e01b8152600401610d5f94939291906123ac565b600060405180830381600087803b158015610d7957600080fd5b505af1158015610d8d573d6000803e3d6000fd5b505050503373ffffffffffffffffffffffffffffffffffffffff167f963148346e3c93bb3eb4b4c296e2e13321ff22bf1118c91686cb1bfe4adcd91882604051610dd7919061194c565b60405180910390a250565b60028181548110610df257600080fd5b906000526020600020016000915054906101000a900473ffffffffffffffffffffffffffffffffffffffff1681565b6000610e2c336111e8565b905060008111610e71576040517f08c379a0000000000000000000000000000000000000000000000000000000008152600401610e6890612450565b60405180910390fd5b806000803373ffffffffffffffffffffffffffffffffffffffff1673ffffffffffffffffffffffffffffffffffffffff1681526020019081526020016000206000828254610ebf91906120ce565b9250508190555060005b600360003373ffffffffffffffffffffffffffffffffffffffff1673ffffffffffffffffffffffffffffffffffffffff16815260200190815260200160002060000154811015610fed5742600360003373ffffffffffffffffffffffffffffffffffffffff1673ffffffffffffffffffffffffffffffffffffffff1681526020019081526020016000206001018281548110610f6857610f6761203c565b5b90600052602060002001819055506000600360003373ffffffffffffffffffffffffffffffffffffffff1673ffffffffffffffffffffffffffffffffffffffff1681526020019081526020016000206002018281548110610fcc57610fcb61203c565b5b90600052602060002001819055508080610fe590612102565b915050610ec9565b503373ffffffffffffffffffffffffffffffffffffffff166108fc829081150290604051600060405180830381858888f19350505050158015611034573d6000803e3d6000fd5b503373ffffffffffffffffffffffffffffffffffffffff167ffc30cddea38e2bf4d6ea7d3f9ed3b6ad7f176419f4963bd81318067a4aee73fe8260405161107b919061194c565b60405180910390a250565b6000806000905060005b600280549050811015611104576110e4600282815481106110b4576110b361203c565b5b9060005260206000200160009054906101000a900473ffffffffffffffffffffffffffffffffffffffff166106b4565b826110ef91906120ce565b915080806110fc90612102565b915050611090565b508091505090565b7f000000000000000000000000000000000000000000000000000000000000000081565b60036020528060005260406000206000915090508060000154905081565b6060600360008373ffffffffffffffffffffffffffffffffffffffff1673ffffffffffffffffffffffffffffffffffffffff1681526020019081526020016000206002018054806020026020016040519081016040528092919081815260200182805480156111dc57602002820191906000526020600020905b8154815260200190600101908083116111c8575b50505050509050919050565b6000600454476111f784611673565b6112019190612470565b61120b91906124e1565b9050919050565b60015481565b600560009054906101000a900473ffffffffffffffffffffffffffffffffffffffff1681565b6000600360008373ffffffffffffffffffffffffffffffffffffffff1673ffffffffffffffffffffffffffffffffffffffff168152602001908152602001600020600001549050919050565b600081116112cd576040517f08c379a00000000000000000000000000000000000000000000000000000000081526004016112c4906122ae565b60405180910390fd5b7f000000000000000000000000000000000000000000000000000000000000000073ffffffffffffffffffffffffffffffffffffffff1663f242432a33306000856040518563ffffffff1660e01b815260040161132d94939291906123ac565b600060405180830381600087803b15801561134757600080fd5b505af115801561135b573d6000803e3d6000fd5b50505050806001600082825461137191906120ce565b9250508190555080600360003373ffffffffffffffffffffffffffffffffffffffff1673ffffffffffffffffffffffffffffffffffffffff16815260200190815260200160002060000160008282546113ca91906120ce565b9250508190555060006113dc33611829565b90507fffffffffffffffffffffffffffffffffffffffffffffffffffffffffffffffff8103611469576002339080600181540180825580915050600190039060005260206000200160009091909190916101000a81548173ffffffffffffffffffffffffffffffffffffffff021916908373ffffffffffffffffffffffffffffffffffffffff1602179055505b60005b82811161155957600360003373ffffffffffffffffffffffffffffffffffffffff1673ffffffffffffffffffffffffffffffffffffffff168152602001908152602001600020600101429080600181540180825580915050600190039060005260206000200160009091909190915055600360003373ffffffffffffffffffffffffffffffffffffffff1673ffffffffffffffffffffffffffffffffffffffff16815260200190815260200160002060020160009080600181540180825580915050600190039060005260206000200160009091909190915055808061155190612102565b91505061146c565b503373ffffffffffffffffffffffffffffffffffffffff167f0cda5cf38f6592672c7b4a22ff3d50874d1913629bd5ffedc27b7b40503d60fd836040516115a0919061194c565b60405180910390a25050565b60006020528060005260406000206000915090505481565b600063bc197c8160e01b905095945050505050565b6060600360008373ffffffffffffffffffffffffffffffffffffffff1673ffffffffffffffffffffffffffffffffffffffff16815260200190815260200160002060010180548060200260200160405190810160405280929190818152602001828054801561166757602002820191906000526020600020905b815481526020019060010190808311611653575b50505050509050919050565b60008061167e611086565b60045461168a856106b4565b6116949190612470565b61169e91906124e1565b905080915050919050565b600560009054906101000a900473ffffffffffffffffffffffffffffffffffffffff1673ffffffffffffffffffffffffffffffffffffffff163373ffffffffffffffffffffffffffffffffffffffff1614611739576040517f08c379a00000000000000000000000000000000000000000000000000000000081526004016117309061255e565b60405180910390fd5b600560009054906101000a900473ffffffffffffffffffffffffffffffffffffffff1673ffffffffffffffffffffffffffffffffffffffff166108fc479081150290604051600060405180830381858888f193505050501580156117a1573d6000803e3d6000fd5b50565b60045481565b600063f23a6e6160e01b905095945050505050565b60007f01ffc9a7000000000000000000000000000000000000000000000000000000007bffffffffffffffffffffffffffffffffffffffffffffffffffffffff1916827bffffffffffffffffffffffffffffffffffffffffffffffffffffffff1916149050919050565b600080600090505b6002805490508110156118cb578273ffffffffffffffffffffffffffffffffffffffff16600282815481106118695761186861203c565b5b9060005260206000200160009054906101000a900473ffffffffffffffffffffffffffffffffffffffff1673ffffffffffffffffffffffffffffffffffffffff16036118b857809150506118f0565b80806118c390612102565b915050611831565b507fffffffffffffffffffffffffffffffffffffffffffffffffffffffffffffffff90505b919050565b50805460008255906000526020600020908101906119139190611916565b50565b5b8082111561192f576000816000905550600101611917565b5090565b6000819050919050565b61194681611933565b82525050565b6000602082019050611961600083018461193d565b92915050565b6000604051905090565b600080fd5b600080fd5b60007fffffffff0000000000000000000000000000000000000000000000000000000082169050919050565b6119b08161197b565b81146119bb57600080fd5b50565b6000813590506119cd816119a7565b92915050565b6000602082840312156119e9576119e8611971565b5b60006119f7848285016119be565b91505092915050565b60008115159050919050565b611a1581611a00565b82525050565b6000602082019050611a306000830184611a0c565b92915050565b600073ffffffffffffffffffffffffffffffffffffffff82169050919050565b6000611a6182611a36565b9050919050565b611a7181611a56565b8114611a7c57600080fd5b50565b600081359050611a8e81611a68565b92915050565b600060208284031215611aaa57611aa9611971565b5b6000611ab884828501611a7f565b91505092915050565b611aca81611933565b8114611ad557600080fd5b50565b600081359050611ae781611ac1565b92915050565b600060208284031215611b0357611b02611971565b5b6000611b1184828501611ad8565b91505092915050565b611b2381611a56565b82525050565b6000602082019050611b3e6000830184611b1a565b92915050565b6000819050919050565b6000611b69611b64611b5f84611a36565b611b44565b611a36565b9050919050565b6000611b7b82611b4e565b9050919050565b6000611b8d82611b70565b9050919050565b611b9d81611b82565b82525050565b6000602082019050611bb86000830184611b94565b92915050565b600081519050919050565b600082825260208201905092915050565b6000819050602082019050919050565b611bf381611933565b82525050565b6000611c058383611bea565b60208301905092915050565b6000602082019050919050565b6000611c2982611bbe565b611c338185611bc9565b9350611c3e83611bda565b8060005b83811015611c6f578151611c568882611bf9565b9750611c6183611c11565b925050600181019050611c42565b5085935050505092915050565b60006020820190508181036000830152611c968184611c1e565b905092915050565b600080fd5b6000601f19601f8301169050919050565b7f4e487b7100000000000000000000000000000000000000000000000000000000600052604160045260246000fd5b611cec82611ca3565b810181811067ffffffffffffffff82111715611d0b57611d0a611cb4565b5b80604052505050565b6000611d1e611967565b9050611d2a8282611ce3565b919050565b600067ffffffffffffffff821115611d4a57611d49611cb4565b5b602082029050602081019050919050565b600080fd5b6000611d73611d6e84611d2f565b611d14565b90508083825260208201905060208402830185811115611d9657611d95611d5b565b5b835b81811015611dbf5780611dab8882611ad8565b845260208401935050602081019050611d98565b5050509392505050565b600082601f830112611dde57611ddd611c9e565b5b8135611dee848260208601611d60565b91505092915050565b600080fd5b600067ffffffffffffffff821115611e1757611e16611cb4565b5b611e2082611ca3565b9050602081019050919050565b82818337600083830152505050565b6000611e4f611e4a84611dfc565b611d14565b905082815260208101848484011115611e6b57611e6a611df7565b5b611e76848285611e2d565b509392505050565b600082601f830112611e9357611e92611c9e565b5b8135611ea3848260208601611e3c565b91505092915050565b600080600080600060a08688031215611ec857611ec7611971565b5b6000611ed688828901611a7f565b9550506020611ee788828901611a7f565b945050604086013567ffffffffffffffff811115611f0857611f07611976565b5b611f1488828901611dc9565b935050606086013567ffffffffffffffff811115611f3557611f34611976565b5b611f4188828901611dc9565b925050608086013567ffffffffffffffff811115611f6257611f61611976565b5b611f6e88828901611e7e565b9150509295509295909350565b611f848161197b565b82525050565b6000602082019050611f9f6000830184611f7b565b92915050565b600080600080600060a08688031215611fc157611fc0611971565b5b6000611fcf88828901611a7f565b9550506020611fe088828901611a7f565b9450506040611ff188828901611ad8565b935050606061200288828901611ad8565b925050608086013567ffffffffffffffff81111561202357612022611976565b5b61202f88828901611e7e565b9150509295509295909350565b7f4e487b7100000000000000000000000000000000000000000000000000000000600052603260045260246000fd5b7f4e487b7100000000000000000000000000000000000000000000000000000000600052601160045260246000fd5b60006120a582611933565b91506120b083611933565b92508282039050818111156120c8576120c761206b565b5b92915050565b60006120d982611933565b91506120e483611933565b92508282019050808211156120fc576120fb61206b565b5b92915050565b600061210d82611933565b91507fffffffffffffffffffffffffffffffffffffffffffffffffffffffffffffffff820361213f5761213e61206b565b5b600182019050919050565b600082825260208201905092915050565b7f43616e27742072656d6f76652066726f6d20656d707479206172726179000000600082015250565b6000612191601d8361214a565b915061219c8261215b565b602082019050919050565b600060208201905081810360008301526121c081612184565b9050919050565b7f55736572206e6f7420666f756e64000000000000000000000000000000000000600082015250565b60006121fd600e8361214a565b9150612208826121c7565b602082019050919050565b6000602082019050818103600083015261222c816121f0565b9050919050565b7f4e487b7100000000000000000000000000000000000000000000000000000000600052603160045260246000fd5b7f616d6f756e74203d203000000000000000000000000000000000000000000000600082015250565b6000612298600a8361214a565b91506122a382612262565b602082019050919050565b600060208201905081810360008301526122c78161228b565b9050919050565b7f6e6f7420656e6f7567682062616c616e63650000000000000000000000000000600082015250565b600061230460128361214a565b915061230f826122ce565b602082019050919050565b60006020820190508181036000830152612333816122f7565b9050919050565b6000819050919050565b600061235f61235a6123558461233a565b611b44565b611933565b9050919050565b61236f81612344565b82525050565b600082825260208201905092915050565b50565b6000612396600083612375565b91506123a182612386565b600082019050919050565b600060a0820190506123c16000830187611b1a565b6123ce6020830186611b1a565b6123db6040830185612366565b6123e8606083018461193d565b81810360808301526123f981612389565b905095945050505050565b7f6e6f207265776172647300000000000000000000000000000000000000000000600082015250565b600061243a600a8361214a565b915061244582612404565b602082019050919050565b600060208201905081810360008301526124698161242d565b9050919050565b600061247b82611933565b915061248683611933565b925082820261249481611933565b915082820484148315176124ab576124aa61206b565b5b5092915050565b7f4e487b7100000000000000000000000000000000000000000000000000000000600052601260045260246000fd5b60006124ec82611933565b91506124f783611933565b925082612507576125066124b2565b5b828204905092915050565b7f6e6f7420617574686f72697a6564000000000000000000000000000000000000600082015250565b6000612548600e8361214a565b915061255382612512565b602082019050919050565b600060208201905081810360008301526125778161253b565b905091905056fea2646970667358221220071669160d680e888c775de9d61292ee707367f6f0d96db2f03b00980b206e3864736f6c63430008110033",
  "linkReferences": {},
  "deployedLinkReferences": {}
}