{
  "_format": "hh-sol-artifact-1",
  "contractName": "StakingRewards",
  "sourceName": "contracts/staking_rewards.sol",
  "abi": [
    {
      "inputs": [
        {
          "internalType": "address",
          "name": "_stakingNFT",
          "type": "address"
        }
      ],
      "stateMutability": "nonpayable",
      "type": "constructor"
    },
    {
      "inputs": [],
      "name": "DENOMINATOR",
      "outputs": [
        {
          "internalType": "uint256",
          "name": "",
          "type": "uint256"
        }
      ],
      "stateMutability": "view",
      "type": "function"
    },
    {
      "inputs": [],
      "name": "NUMERATOR",
      "outputs": [
        {
          "internalType": "uint256",
          "name": "",
          "type": "uint256"
        }
      ],
      "stateMutability": "view",
      "type": "function"
    },
    {
      "inputs": [
        {
          "internalType": "address",
          "name": "account",
          "type": "address"
        }
      ],
      "name": "getRewards",
      "outputs": [
        {
          "internalType": "uint256",
          "name": "",
          "type": "uint256"
        }
      ],
      "stateMutability": "view",
      "type": "function"
    },
    {
      "inputs": [
        {
          "internalType": "address",
          "name": "",
          "type": "address"
        },
        {
          "internalType": "address",
          "name": "",
          "type": "address"
        },
        {
          "internalType": "uint256[]",
          "name": "",
          "type": "uint256[]"
        },
        {
          "internalType": "uint256[]",
          "name": "",
          "type": "uint256[]"
        },
        {
          "internalType": "bytes",
          "name": "",
          "type": "bytes"
        }
      ],
      "name": "onERC1155BatchReceived",
      "outputs": [
        {
          "internalType": "bytes4",
          "name": "",
          "type": "bytes4"
        }
      ],
      "stateMutability": "nonpayable",
      "type": "function"
    },
    {
      "inputs": [
        {
          "internalType": "address",
          "name": "",
          "type": "address"
        },
        {
          "internalType": "address",
          "name": "",
          "type": "address"
        },
        {
          "internalType": "uint256",
          "name": "",
          "type": "uint256"
        },
        {
          "internalType": "uint256",
          "name": "",
          "type": "uint256"
        },
        {
          "internalType": "bytes",
          "name": "",
          "type": "bytes"
        }
      ],
      "name": "onERC1155Received",
      "outputs": [
        {
          "internalType": "bytes4",
          "name": "",
          "type": "bytes4"
        }
      ],
      "stateMutability": "nonpayable",
      "type": "function"
    },
    {
      "inputs": [],
      "name": "owner",
      "outputs": [
        {
          "internalType": "address",
          "name": "",
          "type": "address"
        }
      ],
      "stateMutability": "view",
      "type": "function"
    },
    {
      "inputs": [],
      "name": "rewardPerTokenStored",
      "outputs": [
        {
          "internalType": "uint256",
          "name": "",
          "type": "uint256"
        }
      ],
      "stateMutability": "view",
      "type": "function"
    },
    {
      "inputs": [],
      "name": "rewardRate",
      "outputs": [
        {
          "internalType": "uint256",
          "name": "",
          "type": "uint256"
        }
      ],
      "stateMutability": "view",
      "type": "function"
    },
    {
      "inputs": [
        {
          "internalType": "address",
          "name": "",
          "type": "address"
        }
      ],
      "name": "rewards",
      "outputs": [
        {
          "internalType": "uint256",
          "name": "",
          "type": "uint256"
        }
      ],
      "stateMutability": "view",
      "type": "function"
    },
    {
      "inputs": [
        {
          "internalType": "uint256",
          "name": "_amount",
          "type": "uint256"
        }
      ],
      "name": "stake",
      "outputs": [],
      "stateMutability": "nonpayable",
      "type": "function"
    },
    {
      "inputs": [],
      "name": "stakingToken",
      "outputs": [
        {
          "internalType": "contract IERC1155",
          "name": "",
          "type": "address"
        }
      ],
      "stateMutability": "view",
      "type": "function"
    },
    {
      "inputs": [
        {
          "internalType": "bytes4",
          "name": "interfaceId",
          "type": "bytes4"
        }
      ],
      "name": "supportsInterface",
      "outputs": [
        {
          "internalType": "bool",
          "name": "",
          "type": "bool"
        }
      ],
      "stateMutability": "view",
      "type": "function"
    },
    {
      "inputs": [],
      "name": "totalSupply",
      "outputs": [
        {
          "internalType": "uint256",
          "name": "",
          "type": "uint256"
        }
      ],
      "stateMutability": "view",
      "type": "function"
    },
    {
      "inputs": [],
      "name": "updatedAt",
      "outputs": [
        {
          "internalType": "uint256",
          "name": "",
          "type": "uint256"
        }
      ],
      "stateMutability": "view",
      "type": "function"
    },
    {
      "inputs": [
        {
          "internalType": "address",
          "name": "",
          "type": "address"
        }
      ],
      "name": "userRewardPerTokenPaid",
      "outputs": [
        {
          "internalType": "uint256",
          "name": "",
          "type": "uint256"
        }
      ],
      "stateMutability": "view",
      "type": "function"
    },
    {
      "inputs": [
        {
          "internalType": "address",
          "name": "",
          "type": "address"
        }
      ],
      "name": "userdata",
      "outputs": [
        {
          "internalType": "uint256",
          "name": "balanceOf",
          "type": "uint256"
        },
        {
          "internalType": "uint256",
          "name": "rewards",
          "type": "uint256"
        }
      ],
      "stateMutability": "view",
      "type": "function"
    },
    {
      "inputs": [
        {
          "internalType": "uint256",
          "name": "",
          "type": "uint256"
        }
      ],
      "name": "users",
      "outputs": [
        {
          "internalType": "address",
          "name": "",
          "type": "address"
        }
      ],
      "stateMutability": "view",
      "type": "function"
    },
    {
      "inputs": [
        {
          "internalType": "uint256",
          "name": "_amount",
          "type": "uint256"
        }
      ],
      "name": "withdraw",
      "outputs": [],
      "stateMutability": "nonpayable",
      "type": "function"
    }
  ],
  "bytecode": "0x60a0604052612710600955620f4240600a553480156200001e57600080fd5b50604051620018a3380380620018a3833981810160405281019062000044919062000129565b336000806101000a81548173ffffffffffffffffffffffffffffffffffffffff021916908373ffffffffffffffffffffffffffffffffffffffff1602179055508073ffffffffffffffffffffffffffffffffffffffff1660808173ffffffffffffffffffffffffffffffffffffffff1681525050506200015b565b600080fd5b600073ffffffffffffffffffffffffffffffffffffffff82169050919050565b6000620000f182620000c4565b9050919050565b6200010381620000e4565b81146200010f57600080fd5b50565b6000815190506200012381620000f8565b92915050565b600060208284031215620001425762000141620000bf565b5b6000620001528482850162000112565b91505092915050565b60805161171e620001856000396000818161061f015281816106f301526107eb015261171e6000f3fe608060405234801561001057600080fd5b50600436106101165760003560e01c80637b0a47ee116100a2578063a694fc3a11610071578063a694fc3a1461030c578063bc197c8114610328578063d8830c7d14610358578063df136d6514610376578063f23a6e611461039457610116565b80637b0a47ee146102825780638b876347146102a05780638da5cb5b146102d0578063918f8674146102ee57610116565b8063365b98b2116100e9578063365b98b2146101b557806372f702f3146101e557806373c4c196146102035780637519ab501461023457806379ee54f71461025257610116565b806301ffc9a71461011b5780630700037d1461014b57806318160ddd1461017b5780632e1a7d4d14610199575b600080fd5b61013560048036038101906101309190610d33565b6103c4565b6040516101429190610d7b565b60405180910390f35b61016560048036038101906101609190610df4565b61043e565b6040516101729190610e3a565b60405180910390f35b610183610456565b6040516101909190610e3a565b60405180910390f35b6101b360048036038101906101ae9190610e81565b61045c565b005b6101cf60048036038101906101ca9190610e81565b6106b2565b6040516101dc9190610ebd565b60405180910390f35b6101ed6106f1565b6040516101fa9190610f37565b60405180910390f35b61021d60048036038101906102189190610df4565b610715565b60405161022b929190610f52565b60405180910390f35b61023c610739565b6040516102499190610e3a565b60405180910390f35b61026c60048036038101906102679190610df4565b61073f565b6040516102799190610e3a565b60405180910390f35b61028a61075e565b6040516102979190610e3a565b60405180910390f35b6102ba60048036038101906102b59190610df4565b610764565b6040516102c79190610e3a565b60405180910390f35b6102d861077c565b6040516102e59190610ebd565b60405180910390f35b6102f66107a0565b6040516103039190610e3a565b60405180910390f35b61032660048036038101906103219190610e81565b6107a6565b005b610342600480360381019061033d9190611189565b610977565b60405161034f9190611267565b60405180910390f35b61036061098c565b60405161036d9190610e3a565b60405180910390f35b61037e610992565b60405161038b9190610e3a565b60405180910390f35b6103ae60048036038101906103a99190611282565b610998565b6040516103bb9190611267565b60405180910390f35b60007f4e2312e0000000000000000000000000000000000000000000000000000000007bffffffffffffffffffffffffffffffffffffffffffffffffffffffff1916827bffffffffffffffffffffffffffffffffffffffffffffffffffffffff191614806104375750610436826109ad565b5b9050919050565b60056020528060005260406000206000915090505481565b60065481565b6000811161049f576040517f08c379a000000000000000000000000000000000000000000000000000000000815260040161049690611376565b60405180910390fd5b80600860003373ffffffffffffffffffffffffffffffffffffffff1673ffffffffffffffffffffffffffffffffffffffff168152602001908152602001600020600001541015610524576040517f08c379a000000000000000000000000000000000000000000000000000000000815260040161051b906113e2565b60405180910390fd5b80600660008282546105369190611431565b9250508190555080600860003373ffffffffffffffffffffffffffffffffffffffff1673ffffffffffffffffffffffffffffffffffffffff168152602001908152602001600020600001600082825461058f9190611431565b9250508190555060005b81811161061c57600860003373ffffffffffffffffffffffffffffffffffffffff1673ffffffffffffffffffffffffffffffffffffffff168152602001908152602001600020600201429080600181540180825580915050600190039060005260206000200160009091909190915055808061061490611465565b915050610599565b507f000000000000000000000000000000000000000000000000000000000000000073ffffffffffffffffffffffffffffffffffffffff1663f242432a30336000856040518563ffffffff1660e01b815260040161067d949392919061151f565b600060405180830381600087803b15801561069757600080fd5b505af11580156106ab573d6000803e3d6000fd5b5050505050565b600781815481106106c257600080fd5b906000526020600020016000915054906101000a900473ffffffffffffffffffffffffffffffffffffffff1681565b7f000000000000000000000000000000000000000000000000000000000000000081565b60086020528060005260406000206000915090508060000154908060030154905082565b60015481565b600060065461074d83610a17565b6107579190611577565b9050919050565b60025481565b60046020528060005260406000206000915090505481565b60008054906101000a900473ffffffffffffffffffffffffffffffffffffffff1681565b600a5481565b600081116107e9576040517f08c379a00000000000000000000000000000000000000000000000000000000081526004016107e090611376565b60405180910390fd5b7f000000000000000000000000000000000000000000000000000000000000000073ffffffffffffffffffffffffffffffffffffffff1663f242432a33306000856040518563ffffffff1660e01b8152600401610849949392919061151f565b600060405180830381600087803b15801561086357600080fd5b505af1158015610877573d6000803e3d6000fd5b50505050806006600082825461088d91906115b9565b9250508190555080600860003373ffffffffffffffffffffffffffffffffffffffff1673ffffffffffffffffffffffffffffffffffffffff16815260200190815260200160002060000160008282546108e691906115b9565b9250508190555060005b81811161097357600860003373ffffffffffffffffffffffffffffffffffffffff1673ffffffffffffffffffffffffffffffffffffffff168152602001908152602001600020600101429080600181540180825580915050600190039060005260206000200160009091909190915055808061096b90611465565b9150506108f0565b5050565b600063bc197c8160e01b905095945050505050565b60095481565b60035481565b600063f23a6e6160e01b905095945050505050565b60007f01ffc9a7000000000000000000000000000000000000000000000000000000007bffffffffffffffffffffffffffffffffffffffffffffffffffffffff1916827bffffffffffffffffffffffffffffffffffffffffffffffffffffffff1916149050919050565b600080610a22610aac565b610a2b84610b32565b610a35919061161c565b90506000600654600860008673ffffffffffffffffffffffffffffffffffffffff1673ffffffffffffffffffffffffffffffffffffffff16815260200190815260200160002060000154610a89919061161c565b905060028183610a9991906115b9565b610aa3919061161c565b92505050919050565b6000806000905060005b600780549050811015610b2a57610b0a60078281548110610ada57610ad961164d565b5b9060005260206000200160009054906101000a900473ffffffffffffffffffffffffffffffffffffffff16610b32565b82610b1591906115b9565b91508080610b2290611465565b915050610ab6565b508091505090565b600080600860008473ffffffffffffffffffffffffffffffffffffffff1673ffffffffffffffffffffffffffffffffffffffff16815260200190815260200160002060000154905060008111610bbd576040517f08c379a0000000000000000000000000000000000000000000000000000000008152600401610bb4906116c8565b60405180910390fd5b6000805b82811015610cbc57600860008673ffffffffffffffffffffffffffffffffffffffff1673ffffffffffffffffffffffffffffffffffffffff1681526020019081526020016000206002018181548110610c1d57610c1c61164d565b5b9060005260206000200154600860008773ffffffffffffffffffffffffffffffffffffffff1673ffffffffffffffffffffffffffffffffffffffff1681526020019081526020016000206001018281548110610c7c57610c7b61164d565b5b906000526020600020015442610c929190611431565b610c9c91906115b9565b82610ca791906115b9565b91508080610cb490611465565b915050610bc1565b508092505050919050565b6000604051905090565b600080fd5b600080fd5b60007fffffffff0000000000000000000000000000000000000000000000000000000082169050919050565b610d1081610cdb565b8114610d1b57600080fd5b50565b600081359050610d2d81610d07565b92915050565b600060208284031215610d4957610d48610cd1565b5b6000610d5784828501610d1e565b91505092915050565b60008115159050919050565b610d7581610d60565b82525050565b6000602082019050610d906000830184610d6c565b92915050565b600073ffffffffffffffffffffffffffffffffffffffff82169050919050565b6000610dc182610d96565b9050919050565b610dd181610db6565b8114610ddc57600080fd5b50565b600081359050610dee81610dc8565b92915050565b600060208284031215610e0a57610e09610cd1565b5b6000610e1884828501610ddf565b91505092915050565b6000819050919050565b610e3481610e21565b82525050565b6000602082019050610e4f6000830184610e2b565b92915050565b610e5e81610e21565b8114610e6957600080fd5b50565b600081359050610e7b81610e55565b92915050565b600060208284031215610e9757610e96610cd1565b5b6000610ea584828501610e6c565b91505092915050565b610eb781610db6565b82525050565b6000602082019050610ed26000830184610eae565b92915050565b6000819050919050565b6000610efd610ef8610ef384610d96565b610ed8565b610d96565b9050919050565b6000610f0f82610ee2565b9050919050565b6000610f2182610f04565b9050919050565b610f3181610f16565b82525050565b6000602082019050610f4c6000830184610f28565b92915050565b6000604082019050610f676000830185610e2b565b610f746020830184610e2b565b9392505050565b600080fd5b6000601f19601f8301169050919050565b7f4e487b7100000000000000000000000000000000000000000000000000000000600052604160045260246000fd5b610fc982610f80565b810181811067ffffffffffffffff82111715610fe857610fe7610f91565b5b80604052505050565b6000610ffb610cc7565b90506110078282610fc0565b919050565b600067ffffffffffffffff82111561102757611026610f91565b5b602082029050602081019050919050565b600080fd5b600061105061104b8461100c565b610ff1565b9050808382526020820190506020840283018581111561107357611072611038565b5b835b8181101561109c57806110888882610e6c565b845260208401935050602081019050611075565b5050509392505050565b600082601f8301126110bb576110ba610f7b565b5b81356110cb84826020860161103d565b91505092915050565b600080fd5b600067ffffffffffffffff8211156110f4576110f3610f91565b5b6110fd82610f80565b9050602081019050919050565b82818337600083830152505050565b600061112c611127846110d9565b610ff1565b905082815260208101848484011115611148576111476110d4565b5b61115384828561110a565b509392505050565b600082601f8301126111705761116f610f7b565b5b8135611180848260208601611119565b91505092915050565b600080600080600060a086880312156111a5576111a4610cd1565b5b60006111b388828901610ddf565b95505060206111c488828901610ddf565b945050604086013567ffffffffffffffff8111156111e5576111e4610cd6565b5b6111f1888289016110a6565b935050606086013567ffffffffffffffff81111561121257611211610cd6565b5b61121e888289016110a6565b925050608086013567ffffffffffffffff81111561123f5761123e610cd6565b5b61124b8882890161115b565b9150509295509295909350565b61126181610cdb565b82525050565b600060208201905061127c6000830184611258565b92915050565b600080600080600060a0868803121561129e5761129d610cd1565b5b60006112ac88828901610ddf565b95505060206112bd88828901610ddf565b94505060406112ce88828901610e6c565b93505060606112df88828901610e6c565b925050608086013567ffffffffffffffff811115611300576112ff610cd6565b5b61130c8882890161115b565b9150509295509295909350565b600082825260208201905092915050565b7f616d6f756e74203d203000000000000000000000000000000000000000000000600082015250565b6000611360600a83611319565b915061136b8261132a565b602082019050919050565b6000602082019050818103600083015261138f81611353565b9050919050565b7f6e6f7420656e6f7567682062616c616e63650000000000000000000000000000600082015250565b60006113cc601283611319565b91506113d782611396565b602082019050919050565b600060208201905081810360008301526113fb816113bf565b9050919050565b7f4e487b7100000000000000000000000000000000000000000000000000000000600052601160045260246000fd5b600061143c82610e21565b915061144783610e21565b925082820390508181111561145f5761145e611402565b5b92915050565b600061147082610e21565b91507fffffffffffffffffffffffffffffffffffffffffffffffffffffffffffffffff82036114a2576114a1611402565b5b600182019050919050565b6000819050919050565b60006114d26114cd6114c8846114ad565b610ed8565b610e21565b9050919050565b6114e2816114b7565b82525050565b600082825260208201905092915050565b50565b60006115096000836114e8565b9150611514826114f9565b600082019050919050565b600060a0820190506115346000830187610eae565b6115416020830186610eae565b61154e60408301856114d9565b61155b6060830184610e2b565b818103608083015261156c816114fc565b905095945050505050565b600061158282610e21565b915061158d83610e21565b925082820261159b81610e21565b915082820484148315176115b2576115b1611402565b5b5092915050565b60006115c482610e21565b91506115cf83610e21565b92508282019050808211156115e7576115e6611402565b5b92915050565b7f4e487b7100000000000000000000000000000000000000000000000000000000600052601260045260246000fd5b600061162782610e21565b915061163283610e21565b925082611642576116416115ed565b5b828204905092915050565b7f4e487b7100000000000000000000000000000000000000000000000000000000600052603260045260246000fd5b7f6e6f2062616c616e636500000000000000000000000000000000000000000000600082015250565b60006116b2600a83611319565b91506116bd8261167c565b602082019050919050565b600060208201905081810360008301526116e1816116a5565b905091905056fea264697066735822122097139ba0da928fc830e00e98b12df7464e70f889b6a998a34f2ddf2fdbc290e464736f6c63430008110033",
  "linkReferences": {},
  "deployedLinkReferences": {}
}