{
  "_format": "hh-sol-artifact-1",
  "contractName": "StakingRewards",
  "sourceName": "contracts/staking_rewards.sol",
  "abi": [
    {
      "inputs": [
        {
          "internalType": "address",
          "name": "_stakingNFT",
          "type": "address"
        }
      ],
      "stateMutability": "nonpayable",
      "type": "constructor"
    },
    {
      "inputs": [],
      "name": "DENOMINATOR",
      "outputs": [
        {
          "internalType": "uint256",
          "name": "",
          "type": "uint256"
        }
      ],
      "stateMutability": "view",
      "type": "function"
    },
    {
      "inputs": [],
      "name": "NUMERATOR",
      "outputs": [
        {
          "internalType": "uint256",
          "name": "",
          "type": "uint256"
        }
      ],
      "stateMutability": "view",
      "type": "function"
    },
    {
      "inputs": [
        {
          "internalType": "address",
          "name": "account",
          "type": "address"
        }
      ],
      "name": "_getDurationForUser",
      "outputs": [
        {
          "internalType": "uint256",
          "name": "",
          "type": "uint256"
        }
      ],
      "stateMutability": "view",
      "type": "function"
    },
    {
      "inputs": [
        {
          "internalType": "address",
          "name": "account",
          "type": "address"
        }
      ],
      "name": "_getRewardsShare",
      "outputs": [
        {
          "internalType": "uint256",
          "name": "",
          "type": "uint256"
        }
      ],
      "stateMutability": "view",
      "type": "function"
    },
    {
      "inputs": [],
      "name": "_getTotalDuration",
      "outputs": [
        {
          "internalType": "uint256",
          "name": "",
          "type": "uint256"
        }
      ],
      "stateMutability": "view",
      "type": "function"
    },
    {
      "inputs": [
        {
          "internalType": "address",
          "name": "account",
          "type": "address"
        }
      ],
      "name": "getRewards",
      "outputs": [
        {
          "internalType": "uint256",
          "name": "",
          "type": "uint256"
        }
      ],
      "stateMutability": "view",
      "type": "function"
    },
    {
      "inputs": [
        {
          "internalType": "address",
          "name": "",
          "type": "address"
        },
        {
          "internalType": "address",
          "name": "",
          "type": "address"
        },
        {
          "internalType": "uint256[]",
          "name": "",
          "type": "uint256[]"
        },
        {
          "internalType": "uint256[]",
          "name": "",
          "type": "uint256[]"
        },
        {
          "internalType": "bytes",
          "name": "",
          "type": "bytes"
        }
      ],
      "name": "onERC1155BatchReceived",
      "outputs": [
        {
          "internalType": "bytes4",
          "name": "",
          "type": "bytes4"
        }
      ],
      "stateMutability": "nonpayable",
      "type": "function"
    },
    {
      "inputs": [
        {
          "internalType": "address",
          "name": "",
          "type": "address"
        },
        {
          "internalType": "address",
          "name": "",
          "type": "address"
        },
        {
          "internalType": "uint256",
          "name": "",
          "type": "uint256"
        },
        {
          "internalType": "uint256",
          "name": "",
          "type": "uint256"
        },
        {
          "internalType": "bytes",
          "name": "",
          "type": "bytes"
        }
      ],
      "name": "onERC1155Received",
      "outputs": [
        {
          "internalType": "bytes4",
          "name": "",
          "type": "bytes4"
        }
      ],
      "stateMutability": "nonpayable",
      "type": "function"
    },
    {
      "inputs": [],
      "name": "owner",
      "outputs": [
        {
          "internalType": "address",
          "name": "",
          "type": "address"
        }
      ],
      "stateMutability": "view",
      "type": "function"
    },
    {
      "inputs": [],
      "name": "rewardPerTokenStored",
      "outputs": [
        {
          "internalType": "uint256",
          "name": "",
          "type": "uint256"
        }
      ],
      "stateMutability": "view",
      "type": "function"
    },
    {
      "inputs": [],
      "name": "rewardRate",
      "outputs": [
        {
          "internalType": "uint256",
          "name": "",
          "type": "uint256"
        }
      ],
      "stateMutability": "view",
      "type": "function"
    },
    {
      "inputs": [
        {
          "internalType": "address",
          "name": "",
          "type": "address"
        }
      ],
      "name": "rewards",
      "outputs": [
        {
          "internalType": "uint256",
          "name": "",
          "type": "uint256"
        }
      ],
      "stateMutability": "view",
      "type": "function"
    },
    {
      "inputs": [
        {
          "internalType": "uint256",
          "name": "_amount",
          "type": "uint256"
        }
      ],
      "name": "stake",
      "outputs": [],
      "stateMutability": "nonpayable",
      "type": "function"
    },
    {
      "inputs": [
        {
          "internalType": "address",
          "name": "",
          "type": "address"
        }
      ],
      "name": "staking",
      "outputs": [
        {
          "internalType": "bool",
          "name": "",
          "type": "bool"
        }
      ],
      "stateMutability": "view",
      "type": "function"
    },
    {
      "inputs": [],
      "name": "stakingToken",
      "outputs": [
        {
          "internalType": "contract IERC1155",
          "name": "",
          "type": "address"
        }
      ],
      "stateMutability": "view",
      "type": "function"
    },
    {
      "inputs": [
        {
          "internalType": "bytes4",
          "name": "interfaceId",
          "type": "bytes4"
        }
      ],
      "name": "supportsInterface",
      "outputs": [
        {
          "internalType": "bool",
          "name": "",
          "type": "bool"
        }
      ],
      "stateMutability": "view",
      "type": "function"
    },
    {
      "inputs": [],
      "name": "totalSupply",
      "outputs": [
        {
          "internalType": "uint256",
          "name": "",
          "type": "uint256"
        }
      ],
      "stateMutability": "view",
      "type": "function"
    },
    {
      "inputs": [],
      "name": "updatedAt",
      "outputs": [
        {
          "internalType": "uint256",
          "name": "",
          "type": "uint256"
        }
      ],
      "stateMutability": "view",
      "type": "function"
    },
    {
      "inputs": [
        {
          "internalType": "address",
          "name": "",
          "type": "address"
        }
      ],
      "name": "userRewardPerTokenPaid",
      "outputs": [
        {
          "internalType": "uint256",
          "name": "",
          "type": "uint256"
        }
      ],
      "stateMutability": "view",
      "type": "function"
    },
    {
      "inputs": [
        {
          "internalType": "address",
          "name": "",
          "type": "address"
        }
      ],
      "name": "userdata",
      "outputs": [
        {
          "internalType": "uint256",
          "name": "balanceOf",
          "type": "uint256"
        },
        {
          "internalType": "uint256",
          "name": "rewards",
          "type": "uint256"
        }
      ],
      "stateMutability": "view",
      "type": "function"
    },
    {
      "inputs": [
        {
          "internalType": "uint256",
          "name": "",
          "type": "uint256"
        }
      ],
      "name": "users",
      "outputs": [
        {
          "internalType": "address",
          "name": "",
          "type": "address"
        }
      ],
      "stateMutability": "view",
      "type": "function"
    },
    {
      "inputs": [
        {
          "internalType": "uint256",
          "name": "_amount",
          "type": "uint256"
        }
      ],
      "name": "withdraw",
      "outputs": [],
      "stateMutability": "nonpayable",
      "type": "function"
    }
  ],
  "bytecode": "0x60a0604052612710600a55620f4240600b553480156200001e57600080fd5b5060405162001b8838038062001b88833981810160405281019062000044919062000129565b336000806101000a81548173ffffffffffffffffffffffffffffffffffffffff021916908373ffffffffffffffffffffffffffffffffffffffff1602179055508073ffffffffffffffffffffffffffffffffffffffff1660808173ffffffffffffffffffffffffffffffffffffffff1681525050506200015b565b600080fd5b600073ffffffffffffffffffffffffffffffffffffffff82169050919050565b6000620000f182620000c4565b9050919050565b6200010381620000e4565b81146200010f57600080fd5b50565b6000815190506200012381620000f8565b92915050565b600060208284031215620001425762000141620000bf565b5b6000620001528482850162000112565b91505092915050565b608051611a0362000185600039600081816109c001528181610b1a0152610c120152611a036000f3fe608060405234801561001057600080fd5b50600436106101425760003560e01c80637b0a47ee116100b8578063bc197c811161007c578063bc197c81146103a2578063d764b78f146103d2578063d8830c7d14610402578063d94dbc6a14610420578063df136d6514610450578063f23a6e611461046e57610142565b80637b0a47ee146102fc5780638b8763471461031a5780638da5cb5b1461034a578063918f867414610368578063a694fc3a1461038657610142565b8063365b98b21161010a578063365b98b214610211578063605fbc241461024157806372f702f31461025f57806373c4c1961461027d5780637519ab50146102ae57806379ee54f7146102cc57610142565b806301ffc9a7146101475780630700037d146101775780630d1546ac146101a757806318160ddd146101d75780632e1a7d4d146101f5575b600080fd5b610161600480360381019061015c9190611084565b61049e565b60405161016e91906110cc565b60405180910390f35b610191600480360381019061018c9190611145565b610518565b60405161019e919061118b565b60405180910390f35b6101c160048036038101906101bc9190611145565b610530565b6040516101ce919061118b565b60405180910390f35b6101df61075a565b6040516101ec919061118b565b60405180910390f35b61020f600480360381019061020a91906111d2565b610760565b005b61022b600480360381019061022691906111d2565b610a53565b604051610238919061120e565b60405180910390f35b610249610a92565b604051610256919061118b565b60405180910390f35b610267610b18565b6040516102749190611288565b60405180910390f35b61029760048036038101906102929190611145565b610b3c565b6040516102a59291906112a3565b60405180910390f35b6102b6610b60565b6040516102c3919061118b565b60405180910390f35b6102e660048036038101906102e19190611145565b610b66565b6040516102f3919061118b565b60405180910390f35b610304610b85565b604051610311919061118b565b60405180910390f35b610334600480360381019061032f9190611145565b610b8b565b604051610341919061118b565b60405180910390f35b610352610ba3565b60405161035f919061120e565b60405180910390f35b610370610bc7565b60405161037d919061118b565b60405180910390f35b6103a0600480360381019061039b91906111d2565b610bcd565b005b6103bc60048036038101906103b791906114da565b610ec3565b6040516103c991906115b8565b60405180910390f35b6103ec60048036038101906103e79190611145565b610ed8565b6040516103f991906110cc565b60405180910390f35b61040a610ef8565b604051610417919061118b565b60405180910390f35b61043a60048036038101906104359190611145565b610efe565b604051610447919061118b565b60405180910390f35b610458610f93565b604051610465919061118b565b60405180910390f35b610488600480360381019061048391906115d3565b610f99565b60405161049591906115b8565b60405180910390f35b60007f4e2312e0000000000000000000000000000000000000000000000000000000007bffffffffffffffffffffffffffffffffffffffffffffffffffffffff1916827bffffffffffffffffffffffffffffffffffffffffffffffffffffffff19161480610511575061051082610fae565b5b9050919050565b60056020528060005260406000206000915090505481565b600080600960008473ffffffffffffffffffffffffffffffffffffffff1673ffffffffffffffffffffffffffffffffffffffff1681526020019081526020016000206000015490506000805b8281101561074f576000600960008773ffffffffffffffffffffffffffffffffffffffff1673ffffffffffffffffffffffffffffffffffffffff16815260200190815260200160002060020182815481106105da576105d961166a565b5b90600052602060002001540361066657600960008673ffffffffffffffffffffffffffffffffffffffff1673ffffffffffffffffffffffffffffffffffffffff168152602001908152602001600020600101818154811061063e5761063d61166a565b5b90600052602060002001544261065491906116c8565b8261065f91906116fc565b915061073c565b600960008673ffffffffffffffffffffffffffffffffffffffff1673ffffffffffffffffffffffffffffffffffffffff16815260200190815260200160002060010181815481106106ba576106b961166a565b5b9060005260206000200154600960008773ffffffffffffffffffffffffffffffffffffffff1673ffffffffffffffffffffffffffffffffffffffff16815260200190815260200160002060020182815481106107195761071861166a565b5b906000526020600020015461072e91906116c8565b8261073991906116fc565b91505b808061074790611730565b91505061057c565b508092505050919050565b60065481565b600081116107a3576040517f08c379a000000000000000000000000000000000000000000000000000000000815260040161079a906117d5565b60405180910390fd5b80600960003373ffffffffffffffffffffffffffffffffffffffff1673ffffffffffffffffffffffffffffffffffffffff168152602001908152602001600020600001541015610828576040517f08c379a000000000000000000000000000000000000000000000000000000000815260040161081f90611841565b60405180910390fd5b806006600082825461083a91906116c8565b9250508190555080600960003373ffffffffffffffffffffffffffffffffffffffff1673ffffffffffffffffffffffffffffffffffffffff168152602001908152602001600020600001600082825461089391906116c8565b925050819055506000600960003373ffffffffffffffffffffffffffffffffffffffff1673ffffffffffffffffffffffffffffffffffffffff168152602001908152602001600020600001540361093d576000600860003373ffffffffffffffffffffffffffffffffffffffff1673ffffffffffffffffffffffffffffffffffffffff16815260200190815260200160002060006101000a81548160ff0219169083151502179055505b60005b8181116109bd5742600960003373ffffffffffffffffffffffffffffffffffffffff1673ffffffffffffffffffffffffffffffffffffffff168152602001908152602001600020600201828154811061099c5761099b61166a565b5b906000526020600020018190555080806109b590611730565b915050610940565b507f000000000000000000000000000000000000000000000000000000000000000073ffffffffffffffffffffffffffffffffffffffff1663f242432a30336000856040518563ffffffff1660e01b8152600401610a1e94939291906118d3565b600060405180830381600087803b158015610a3857600080fd5b505af1158015610a4c573d6000803e3d6000fd5b5050505050565b60078181548110610a6357600080fd5b906000526020600020016000915054906101000a900473ffffffffffffffffffffffffffffffffffffffff1681565b6000806000905060005b600780549050811015610b1057610af060078281548110610ac057610abf61166a565b5b9060005260206000200160009054906101000a900473ffffffffffffffffffffffffffffffffffffffff16610530565b82610afb91906116fc565b91508080610b0890611730565b915050610a9c565b508091505090565b7f000000000000000000000000000000000000000000000000000000000000000081565b60096020528060005260406000206000915090508060000154908060030154905082565b60015481565b6000600654610b7483610efe565b610b7e919061192b565b9050919050565b60025481565b60046020528060005260406000206000915090505481565b60008054906101000a900473ffffffffffffffffffffffffffffffffffffffff1681565b600b5481565b60008111610c10576040517f08c379a0000000000000000000000000000000000000000000000000000000008152600401610c07906117d5565b60405180910390fd5b7f000000000000000000000000000000000000000000000000000000000000000073ffffffffffffffffffffffffffffffffffffffff1663f242432a33306000856040518563ffffffff1660e01b8152600401610c7094939291906118d3565b600060405180830381600087803b158015610c8a57600080fd5b505af1158015610c9e573d6000803e3d6000fd5b505050508060066000828254610cb491906116fc565b9250508190555080600960003373ffffffffffffffffffffffffffffffffffffffff1673ffffffffffffffffffffffffffffffffffffffff1681526020019081526020016000206000016000828254610d0d91906116fc565b925050819055506007339080600181540180825580915050600190039060005260206000200160009091909190916101000a81548173ffffffffffffffffffffffffffffffffffffffff021916908373ffffffffffffffffffffffffffffffffffffffff1602179055506001600860003373ffffffffffffffffffffffffffffffffffffffff1673ffffffffffffffffffffffffffffffffffffffff16815260200190815260200160002060006101000a81548160ff02191690831515021790555060005b818111610ebf57600960003373ffffffffffffffffffffffffffffffffffffffff1673ffffffffffffffffffffffffffffffffffffffff168152602001908152602001600020600101429080600181540180825580915050600190039060005260206000200160009091909190915055600960003373ffffffffffffffffffffffffffffffffffffffff1673ffffffffffffffffffffffffffffffffffffffff168152602001908152602001600020600201600090806001815401808255809150506001900390600052602060002001600090919091909150558080610eb790611730565b915050610dd2565b5050565b600063bc197c8160e01b905095945050505050565b60086020528060005260406000206000915054906101000a900460ff1681565b600a5481565b600080610f09610a92565b610f1284610530565b610f1c919061199c565b90506000600654600960008673ffffffffffffffffffffffffffffffffffffffff1673ffffffffffffffffffffffffffffffffffffffff16815260200190815260200160002060000154610f70919061199c565b905060028183610f8091906116fc565b610f8a919061199c565b92505050919050565b60035481565b600063f23a6e6160e01b905095945050505050565b60007f01ffc9a7000000000000000000000000000000000000000000000000000000007bffffffffffffffffffffffffffffffffffffffffffffffffffffffff1916827bffffffffffffffffffffffffffffffffffffffffffffffffffffffff1916149050919050565b6000604051905090565b600080fd5b600080fd5b60007fffffffff0000000000000000000000000000000000000000000000000000000082169050919050565b6110618161102c565b811461106c57600080fd5b50565b60008135905061107e81611058565b92915050565b60006020828403121561109a57611099611022565b5b60006110a88482850161106f565b91505092915050565b60008115159050919050565b6110c6816110b1565b82525050565b60006020820190506110e160008301846110bd565b92915050565b600073ffffffffffffffffffffffffffffffffffffffff82169050919050565b6000611112826110e7565b9050919050565b61112281611107565b811461112d57600080fd5b50565b60008135905061113f81611119565b92915050565b60006020828403121561115b5761115a611022565b5b600061116984828501611130565b91505092915050565b6000819050919050565b61118581611172565b82525050565b60006020820190506111a0600083018461117c565b92915050565b6111af81611172565b81146111ba57600080fd5b50565b6000813590506111cc816111a6565b92915050565b6000602082840312156111e8576111e7611022565b5b60006111f6848285016111bd565b91505092915050565b61120881611107565b82525050565b600060208201905061122360008301846111ff565b92915050565b6000819050919050565b600061124e611249611244846110e7565b611229565b6110e7565b9050919050565b600061126082611233565b9050919050565b600061127282611255565b9050919050565b61128281611267565b82525050565b600060208201905061129d6000830184611279565b92915050565b60006040820190506112b8600083018561117c565b6112c5602083018461117c565b9392505050565b600080fd5b6000601f19601f8301169050919050565b7f4e487b7100000000000000000000000000000000000000000000000000000000600052604160045260246000fd5b61131a826112d1565b810181811067ffffffffffffffff82111715611339576113386112e2565b5b80604052505050565b600061134c611018565b90506113588282611311565b919050565b600067ffffffffffffffff821115611378576113776112e2565b5b602082029050602081019050919050565b600080fd5b60006113a161139c8461135d565b611342565b905080838252602082019050602084028301858111156113c4576113c3611389565b5b835b818110156113ed57806113d988826111bd565b8452602084019350506020810190506113c6565b5050509392505050565b600082601f83011261140c5761140b6112cc565b5b813561141c84826020860161138e565b91505092915050565b600080fd5b600067ffffffffffffffff821115611445576114446112e2565b5b61144e826112d1565b9050602081019050919050565b82818337600083830152505050565b600061147d6114788461142a565b611342565b90508281526020810184848401111561149957611498611425565b5b6114a484828561145b565b509392505050565b600082601f8301126114c1576114c06112cc565b5b81356114d184826020860161146a565b91505092915050565b600080600080600060a086880312156114f6576114f5611022565b5b600061150488828901611130565b955050602061151588828901611130565b945050604086013567ffffffffffffffff81111561153657611535611027565b5b611542888289016113f7565b935050606086013567ffffffffffffffff81111561156357611562611027565b5b61156f888289016113f7565b925050608086013567ffffffffffffffff8111156115905761158f611027565b5b61159c888289016114ac565b9150509295509295909350565b6115b28161102c565b82525050565b60006020820190506115cd60008301846115a9565b92915050565b600080600080600060a086880312156115ef576115ee611022565b5b60006115fd88828901611130565b955050602061160e88828901611130565b945050604061161f888289016111bd565b9350506060611630888289016111bd565b925050608086013567ffffffffffffffff81111561165157611650611027565b5b61165d888289016114ac565b9150509295509295909350565b7f4e487b7100000000000000000000000000000000000000000000000000000000600052603260045260246000fd5b7f4e487b7100000000000000000000000000000000000000000000000000000000600052601160045260246000fd5b60006116d382611172565b91506116de83611172565b92508282039050818111156116f6576116f5611699565b5b92915050565b600061170782611172565b915061171283611172565b925082820190508082111561172a57611729611699565b5b92915050565b600061173b82611172565b91507fffffffffffffffffffffffffffffffffffffffffffffffffffffffffffffffff820361176d5761176c611699565b5b600182019050919050565b600082825260208201905092915050565b7f616d6f756e74203d203000000000000000000000000000000000000000000000600082015250565b60006117bf600a83611778565b91506117ca82611789565b602082019050919050565b600060208201905081810360008301526117ee816117b2565b9050919050565b7f6e6f7420656e6f7567682062616c616e63650000000000000000000000000000600082015250565b600061182b601283611778565b9150611836826117f5565b602082019050919050565b6000602082019050818103600083015261185a8161181e565b9050919050565b6000819050919050565b600061188661188161187c84611861565b611229565b611172565b9050919050565b6118968161186b565b82525050565b600082825260208201905092915050565b50565b60006118bd60008361189c565b91506118c8826118ad565b600082019050919050565b600060a0820190506118e860008301876111ff565b6118f560208301866111ff565b611902604083018561188d565b61190f606083018461117c565b8181036080830152611920816118b0565b905095945050505050565b600061193682611172565b915061194183611172565b925082820261194f81611172565b9150828204841483151761196657611965611699565b5b5092915050565b7f4e487b7100000000000000000000000000000000000000000000000000000000600052601260045260246000fd5b60006119a782611172565b91506119b283611172565b9250826119c2576119c161196d565b5b82820490509291505056fea264697066735822122000a54bb03340a28d79d475eae2554cd1bb432c25f68d511016adb07dff14c40b64736f6c63430008110033",
  "linkReferences": {},
  "deployedLinkReferences": {}
}