{
  "_format": "hh-sol-artifact-1",
  "contractName": "StakingRewards",
  "sourceName": "contracts/staking_rewards.sol",
  "abi": [
    {
      "inputs": [
        {
          "internalType": "address",
          "name": "_stakingNFT",
          "type": "address"
        }
      ],
      "stateMutability": "nonpayable",
      "type": "constructor"
    },
    {
      "stateMutability": "payable",
      "type": "fallback"
    },
    {
      "inputs": [],
      "name": "SCALE",
      "outputs": [
        {
          "internalType": "uint256",
          "name": "",
          "type": "uint256"
        }
      ],
      "stateMutability": "view",
      "type": "function"
    },
    {
      "inputs": [
        {
          "internalType": "address",
          "name": "account",
          "type": "address"
        }
      ],
      "name": "_getDurationForUser",
      "outputs": [
        {
          "internalType": "uint256",
          "name": "",
          "type": "uint256"
        }
      ],
      "stateMutability": "view",
      "type": "function"
    },
    {
      "inputs": [
        {
          "internalType": "address",
          "name": "account",
          "type": "address"
        }
      ],
      "name": "_getRewardsShare",
      "outputs": [
        {
          "internalType": "uint256",
          "name": "",
          "type": "uint256"
        }
      ],
      "stateMutability": "view",
      "type": "function"
    },
    {
      "inputs": [],
      "name": "_getTotalDuration",
      "outputs": [
        {
          "internalType": "uint256",
          "name": "",
          "type": "uint256"
        }
      ],
      "stateMutability": "view",
      "type": "function"
    },
    {
      "inputs": [],
      "name": "claimRewards",
      "outputs": [],
      "stateMutability": "nonpayable",
      "type": "function"
    },
    {
      "inputs": [],
      "name": "emergencyWithdraw",
      "outputs": [],
      "stateMutability": "nonpayable",
      "type": "function"
    },
    {
      "inputs": [
        {
          "internalType": "address",
          "name": "account",
          "type": "address"
        }
      ],
      "name": "getRewards",
      "outputs": [
        {
          "internalType": "uint256",
          "name": "",
          "type": "uint256"
        }
      ],
      "stateMutability": "view",
      "type": "function"
    },
    {
      "inputs": [
        {
          "internalType": "address",
          "name": "",
          "type": "address"
        },
        {
          "internalType": "address",
          "name": "",
          "type": "address"
        },
        {
          "internalType": "uint256[]",
          "name": "",
          "type": "uint256[]"
        },
        {
          "internalType": "uint256[]",
          "name": "",
          "type": "uint256[]"
        },
        {
          "internalType": "bytes",
          "name": "",
          "type": "bytes"
        }
      ],
      "name": "onERC1155BatchReceived",
      "outputs": [
        {
          "internalType": "bytes4",
          "name": "",
          "type": "bytes4"
        }
      ],
      "stateMutability": "nonpayable",
      "type": "function"
    },
    {
      "inputs": [
        {
          "internalType": "address",
          "name": "",
          "type": "address"
        },
        {
          "internalType": "address",
          "name": "",
          "type": "address"
        },
        {
          "internalType": "uint256",
          "name": "",
          "type": "uint256"
        },
        {
          "internalType": "uint256",
          "name": "",
          "type": "uint256"
        },
        {
          "internalType": "bytes",
          "name": "",
          "type": "bytes"
        }
      ],
      "name": "onERC1155Received",
      "outputs": [
        {
          "internalType": "bytes4",
          "name": "",
          "type": "bytes4"
        }
      ],
      "stateMutability": "nonpayable",
      "type": "function"
    },
    {
      "inputs": [],
      "name": "owner",
      "outputs": [
        {
          "internalType": "address",
          "name": "",
          "type": "address"
        }
      ],
      "stateMutability": "view",
      "type": "function"
    },
    {
      "inputs": [
        {
          "internalType": "address",
          "name": "_user",
          "type": "address"
        }
      ],
      "name": "remove",
      "outputs": [],
      "stateMutability": "nonpayable",
      "type": "function"
    },
    {
      "inputs": [
        {
          "internalType": "uint256",
          "name": "_amount",
          "type": "uint256"
        }
      ],
      "name": "stake",
      "outputs": [],
      "stateMutability": "nonpayable",
      "type": "function"
    },
    {
      "inputs": [
        {
          "internalType": "address",
          "name": "",
          "type": "address"
        }
      ],
      "name": "staking",
      "outputs": [
        {
          "internalType": "bool",
          "name": "",
          "type": "bool"
        }
      ],
      "stateMutability": "view",
      "type": "function"
    },
    {
      "inputs": [],
      "name": "stakingToken",
      "outputs": [
        {
          "internalType": "contract IERC1155",
          "name": "",
          "type": "address"
        }
      ],
      "stateMutability": "view",
      "type": "function"
    },
    {
      "inputs": [
        {
          "internalType": "bytes4",
          "name": "interfaceId",
          "type": "bytes4"
        }
      ],
      "name": "supportsInterface",
      "outputs": [
        {
          "internalType": "bool",
          "name": "",
          "type": "bool"
        }
      ],
      "stateMutability": "view",
      "type": "function"
    },
    {
      "inputs": [],
      "name": "totalStaked",
      "outputs": [
        {
          "internalType": "uint256",
          "name": "",
          "type": "uint256"
        }
      ],
      "stateMutability": "view",
      "type": "function"
    },
    {
      "inputs": [
        {
          "internalType": "uint256",
          "name": "_amount",
          "type": "uint256"
        }
      ],
      "name": "unstake",
      "outputs": [],
      "stateMutability": "nonpayable",
      "type": "function"
    },
    {
      "inputs": [
        {
          "internalType": "address",
          "name": "",
          "type": "address"
        }
      ],
      "name": "userRewardPaid",
      "outputs": [
        {
          "internalType": "uint256",
          "name": "",
          "type": "uint256"
        }
      ],
      "stateMutability": "view",
      "type": "function"
    },
    {
      "inputs": [
        {
          "internalType": "address",
          "name": "",
          "type": "address"
        }
      ],
      "name": "userdata",
      "outputs": [
        {
          "internalType": "uint256",
          "name": "balanceOf",
          "type": "uint256"
        }
      ],
      "stateMutability": "view",
      "type": "function"
    },
    {
      "inputs": [
        {
          "internalType": "uint256",
          "name": "",
          "type": "uint256"
        }
      ],
      "name": "users",
      "outputs": [
        {
          "internalType": "address",
          "name": "",
          "type": "address"
        }
      ],
      "stateMutability": "view",
      "type": "function"
    },
    {
      "stateMutability": "payable",
      "type": "receive"
    }
  ],
  "bytecode": "0x60a0604052620f42406006553480156200001857600080fd5b506040516200242e3803806200242e83398181016040528101906200003e919062000123565b336000806101000a81548173ffffffffffffffffffffffffffffffffffffffff021916908373ffffffffffffffffffffffffffffffffffffffff1602179055508073ffffffffffffffffffffffffffffffffffffffff1660808173ffffffffffffffffffffffffffffffffffffffff16815250505062000155565b600080fd5b600073ffffffffffffffffffffffffffffffffffffffff82169050919050565b6000620000eb82620000be565b9050919050565b620000fd81620000de565b81146200010957600080fd5b50565b6000815190506200011d81620000f2565b92915050565b6000602082840312156200013c576200013b620000b9565b5b60006200014c848285016200010c565b91505092915050565b6080516122af6200017f60003960008181610ba201528181610fcc01526110a501526122af6000f3fe6080604052600436106101235760003560e01c8063817b1cd2116100a0578063d764b78f11610064578063d764b78f14610415578063d94dbc6a14610452578063db2e21bc1461048f578063eced5526146104a6578063f23a6e61146104d15761012a565b8063817b1cd21461031c5780638da5cb5b14610347578063a694fc3a14610372578063ba14f26a1461039b578063bc197c81146103d85761012a565b8063372500ab116100e7578063372500ab14610235578063605fbc241461024c57806372f702f31461027757806373c4c196146102a257806379ee54f7146102df5761012a565b806301ffc9a71461012c5780630d1546ac1461016957806329092d0e146101a65780632e17de78146101cf578063365b98b2146101f85761012a565b3661012a57005b005b34801561013857600080fd5b50610153600480360381019061014e919061177a565b61050e565b60405161016091906117c2565b60405180910390f35b34801561017557600080fd5b50610190600480360381019061018b919061183b565b610588565b60405161019d9190611881565b60405180910390f35b3480156101b257600080fd5b506101cd60048036038101906101c8919061183b565b6107b2565b005b3480156101db57600080fd5b506101f660048036038101906101f191906118c8565b610942565b005b34801561020457600080fd5b5061021f600480360381019061021a91906118c8565b610c35565b60405161022c9190611904565b60405180910390f35b34801561024157600080fd5b5061024a610c74565b005b34801561025857600080fd5b50610261610f44565b60405161026e9190611881565b60405180910390f35b34801561028357600080fd5b5061028c610fca565b604051610299919061197e565b60405180910390f35b3480156102ae57600080fd5b506102c960048036038101906102c4919061183b565b610fee565b6040516102d69190611881565b60405180910390f35b3480156102eb57600080fd5b506103066004803603810190610301919061183b565b61100c565b6040516103139190611881565b60405180910390f35b34801561032857600080fd5b50610331611036565b60405161033e9190611881565b60405180910390f35b34801561035357600080fd5b5061035c61103c565b6040516103699190611904565b60405180910390f35b34801561037e57600080fd5b50610399600480360381019061039491906118c8565b611060565b005b3480156103a757600080fd5b506103c260048036038101906103bd919061183b565b61138c565b6040516103cf9190611881565b60405180910390f35b3480156103e457600080fd5b506103ff60048036038101906103fa9190611ba7565b6113a4565b60405161040c9190611c85565b60405180910390f35b34801561042157600080fd5b5061043c6004803603810190610437919061183b565b6113b9565b60405161044991906117c2565b60405180910390f35b34801561045e57600080fd5b506104796004803603810190610474919061183b565b6113d9565b6040516104869190611881565b60405180910390f35b34801561049b57600080fd5b506104a4611488565b005b3480156104b257600080fd5b506104bb61157f565b6040516104c89190611881565b60405180910390f35b3480156104dd57600080fd5b506104f860048036038101906104f39190611ca0565b611585565b6040516105059190611c85565b60405180910390f35b60007f4e2312e0000000000000000000000000000000000000000000000000000000007bffffffffffffffffffffffffffffffffffffffffffffffffffffffff1916827bffffffffffffffffffffffffffffffffffffffffffffffffffffffff1916148061058157506105808261159a565b5b9050919050565b600080600560008473ffffffffffffffffffffffffffffffffffffffff1673ffffffffffffffffffffffffffffffffffffffff1681526020019081526020016000206000015490506000805b828110156107a7576000600560008773ffffffffffffffffffffffffffffffffffffffff1673ffffffffffffffffffffffffffffffffffffffff168152602001908152602001600020600201828154811061063257610631611d37565b5b9060005260206000200154036106be57600560008673ffffffffffffffffffffffffffffffffffffffff1673ffffffffffffffffffffffffffffffffffffffff168152602001908152602001600020600101818154811061069657610695611d37565b5b9060005260206000200154426106ac9190611d95565b826106b79190611dc9565b9150610794565b600560008673ffffffffffffffffffffffffffffffffffffffff1673ffffffffffffffffffffffffffffffffffffffff168152602001908152602001600020600101818154811061071257610711611d37565b5b9060005260206000200154600560008773ffffffffffffffffffffffffffffffffffffffff1673ffffffffffffffffffffffffffffffffffffffff168152602001908152602001600020600201828154811061077157610770611d37565b5b90600052602060002001546107869190611d95565b826107919190611dc9565b91505b808061079f90611dfd565b9150506105d4565b508092505050919050565b6000600380549050116107fa576040517f08c379a00000000000000000000000000000000000000000000000000000000081526004016107f190611ea2565b60405180910390fd5b600061080582611604565b9050600081121561084b576040517f08c379a000000000000000000000000000000000000000000000000000000000815260040161084290611f0e565b60405180910390fd5b6003600160038054905061085f9190611d95565b815481106108705761086f611d37565b5b9060005260206000200160009054906101000a900473ffffffffffffffffffffffffffffffffffffffff16600382815481106108af576108ae611d37565b5b9060005260206000200160006101000a81548173ffffffffffffffffffffffffffffffffffffffff021916908373ffffffffffffffffffffffffffffffffffffffff160217905550600380548061090957610908611f2e565b5b6001900381819060005260206000200160006101000a81549073ffffffffffffffffffffffffffffffffffffffff021916905590555050565b60008111610985576040517f08c379a000000000000000000000000000000000000000000000000000000000815260040161097c90611fa9565b60405180910390fd5b80600560003373ffffffffffffffffffffffffffffffffffffffff1673ffffffffffffffffffffffffffffffffffffffff168152602001908152602001600020600001541015610a0a576040517f08c379a0000000000000000000000000000000000000000000000000000000008152600401610a0190612015565b60405180910390fd5b8060026000828254610a1c9190611d95565b9250508190555080600560003373ffffffffffffffffffffffffffffffffffffffff1673ffffffffffffffffffffffffffffffffffffffff1681526020019081526020016000206000016000828254610a759190611d95565b925050819055506000600560003373ffffffffffffffffffffffffffffffffffffffff1673ffffffffffffffffffffffffffffffffffffffff1681526020019081526020016000206000015403610b1f576000600460003373ffffffffffffffffffffffffffffffffffffffff1673ffffffffffffffffffffffffffffffffffffffff16815260200190815260200160002060006101000a81548160ff0219169083151502179055505b60005b818111610b9f5742600560003373ffffffffffffffffffffffffffffffffffffffff1673ffffffffffffffffffffffffffffffffffffffff1681526020019081526020016000206002018281548110610b7e57610b7d611d37565b5b90600052602060002001819055508080610b9790611dfd565b915050610b22565b507f000000000000000000000000000000000000000000000000000000000000000073ffffffffffffffffffffffffffffffffffffffff1663f242432a30336000856040518563ffffffff1660e01b8152600401610c0094939291906120a7565b600060405180830381600087803b158015610c1a57600080fd5b505af1158015610c2e573d6000803e3d6000fd5b5050505050565b60038181548110610c4557600080fd5b906000526020600020016000915054906101000a900473ffffffffffffffffffffffffffffffffffffffff1681565b6000610c7f3361100c565b905060008111610cc4576040517f08c379a0000000000000000000000000000000000000000000000000000000008152600401610cbb9061214b565b60405180910390fd5b80600160003373ffffffffffffffffffffffffffffffffffffffff1673ffffffffffffffffffffffffffffffffffffffff16815260200190815260200160002081905550600460003373ffffffffffffffffffffffffffffffffffffffff1673ffffffffffffffffffffffffffffffffffffffff16815260200190815260200160002060009054906101000a900460ff16610dd157600560003373ffffffffffffffffffffffffffffffffffffffff1673ffffffffffffffffffffffffffffffffffffffff168152602001908152602001600020600080820160009055600182016000610db191906116d0565b600282016000610dc191906116d0565b5050610dcc336107b2565b610efa565b60005b600560003373ffffffffffffffffffffffffffffffffffffffff1673ffffffffffffffffffffffffffffffffffffffff16815260200190815260200160002060000154811015610ef85742600560003373ffffffffffffffffffffffffffffffffffffffff1673ffffffffffffffffffffffffffffffffffffffff1681526020019081526020016000206001018281548110610e7357610e72611d37565b5b90600052602060002001819055506000600560003373ffffffffffffffffffffffffffffffffffffffff1673ffffffffffffffffffffffffffffffffffffffff1681526020019081526020016000206002018281548110610ed757610ed6611d37565b5b90600052602060002001819055508080610ef090611dfd565b915050610dd4565b505b3373ffffffffffffffffffffffffffffffffffffffff166108fc829081150290604051600060405180830381858888f19350505050158015610f40573d6000803e3d6000fd5b5050565b6000806000905060005b600380549050811015610fc257610fa260038281548110610f7257610f71611d37565b5b9060005260206000200160009054906101000a900473ffffffffffffffffffffffffffffffffffffffff16610588565b82610fad9190611dc9565b91508080610fba90611dfd565b915050610f4e565b508091505090565b7f000000000000000000000000000000000000000000000000000000000000000081565b60056020528060005260406000206000915090508060000154905081565b60006006544761101b846113d9565b611025919061216b565b61102f91906121dc565b9050919050565b60025481565b60008054906101000a900473ffffffffffffffffffffffffffffffffffffffff1681565b600081116110a3576040517f08c379a000000000000000000000000000000000000000000000000000000000815260040161109a90611fa9565b60405180910390fd5b7f000000000000000000000000000000000000000000000000000000000000000073ffffffffffffffffffffffffffffffffffffffff1663f242432a33306000856040518563ffffffff1660e01b815260040161110394939291906120a7565b600060405180830381600087803b15801561111d57600080fd5b505af1158015611131573d6000803e3d6000fd5b5050505080600260008282546111479190611dc9565b9250508190555080600560003373ffffffffffffffffffffffffffffffffffffffff1673ffffffffffffffffffffffffffffffffffffffff16815260200190815260200160002060000160008282546111a09190611dc9565b9250508190555060006111b233611604565b90507fffffffffffffffffffffffffffffffffffffffffffffffffffffffffffffffff8103611297576003339080600181540180825580915050600190039060005260206000200160009091909190916101000a81548173ffffffffffffffffffffffffffffffffffffffff021916908373ffffffffffffffffffffffffffffffffffffffff1602179055506001600460003373ffffffffffffffffffffffffffffffffffffffff1673ffffffffffffffffffffffffffffffffffffffff16815260200190815260200160002060006101000a81548160ff0219169083151502179055505b60005b82811161138757600560003373ffffffffffffffffffffffffffffffffffffffff1673ffffffffffffffffffffffffffffffffffffffff168152602001908152602001600020600101429080600181540180825580915050600190039060005260206000200160009091909190915055600560003373ffffffffffffffffffffffffffffffffffffffff1673ffffffffffffffffffffffffffffffffffffffff16815260200190815260200160002060020160009080600181540180825580915050600190039060005260206000200160009091909190915055808061137f90611dfd565b91505061129a565b505050565b60016020528060005260406000206000915090505481565b600063bc197c8160e01b905095945050505050565b60046020528060005260406000206000915054906101000a900460ff1681565b6000806113e4610f44565b6006546113f085610588565b6113fa919061216b565b61140491906121dc565b90506000600254600654600560008773ffffffffffffffffffffffffffffffffffffffff1673ffffffffffffffffffffffffffffffffffffffff1681526020019081526020016000206000015461145b919061216b565b61146591906121dc565b9050600281836114759190611dc9565b61147f91906121dc565b92505050919050565b60008054906101000a900473ffffffffffffffffffffffffffffffffffffffff1673ffffffffffffffffffffffffffffffffffffffff163373ffffffffffffffffffffffffffffffffffffffff1614611516576040517f08c379a000000000000000000000000000000000000000000000000000000000815260040161150d90612259565b60405180910390fd5b60008054906101000a900473ffffffffffffffffffffffffffffffffffffffff1673ffffffffffffffffffffffffffffffffffffffff166108fc479081150290604051600060405180830381858888f1935050505015801561157c573d6000803e3d6000fd5b50565b60065481565b600063f23a6e6160e01b905095945050505050565b60007f01ffc9a7000000000000000000000000000000000000000000000000000000007bffffffffffffffffffffffffffffffffffffffffffffffffffffffff1916827bffffffffffffffffffffffffffffffffffffffffffffffffffffffff1916149050919050565b600080600090505b6003805490508110156116a6578273ffffffffffffffffffffffffffffffffffffffff166003828154811061164457611643611d37565b5b9060005260206000200160009054906101000a900473ffffffffffffffffffffffffffffffffffffffff1673ffffffffffffffffffffffffffffffffffffffff160361169357809150506116cb565b808061169e90611dfd565b91505061160c565b507fffffffffffffffffffffffffffffffffffffffffffffffffffffffffffffffff90505b919050565b50805460008255906000526020600020908101906116ee91906116f1565b50565b5b8082111561170a5760008160009055506001016116f2565b5090565b6000604051905090565b600080fd5b600080fd5b60007fffffffff0000000000000000000000000000000000000000000000000000000082169050919050565b61175781611722565b811461176257600080fd5b50565b6000813590506117748161174e565b92915050565b6000602082840312156117905761178f611718565b5b600061179e84828501611765565b91505092915050565b60008115159050919050565b6117bc816117a7565b82525050565b60006020820190506117d760008301846117b3565b92915050565b600073ffffffffffffffffffffffffffffffffffffffff82169050919050565b6000611808826117dd565b9050919050565b611818816117fd565b811461182357600080fd5b50565b6000813590506118358161180f565b92915050565b60006020828403121561185157611850611718565b5b600061185f84828501611826565b91505092915050565b6000819050919050565b61187b81611868565b82525050565b60006020820190506118966000830184611872565b92915050565b6118a581611868565b81146118b057600080fd5b50565b6000813590506118c28161189c565b92915050565b6000602082840312156118de576118dd611718565b5b60006118ec848285016118b3565b91505092915050565b6118fe816117fd565b82525050565b600060208201905061191960008301846118f5565b92915050565b6000819050919050565b600061194461193f61193a846117dd565b61191f565b6117dd565b9050919050565b600061195682611929565b9050919050565b60006119688261194b565b9050919050565b6119788161195d565b82525050565b6000602082019050611993600083018461196f565b92915050565b600080fd5b6000601f19601f8301169050919050565b7f4e487b7100000000000000000000000000000000000000000000000000000000600052604160045260246000fd5b6119e78261199e565b810181811067ffffffffffffffff82111715611a0657611a056119af565b5b80604052505050565b6000611a1961170e565b9050611a2582826119de565b919050565b600067ffffffffffffffff821115611a4557611a446119af565b5b602082029050602081019050919050565b600080fd5b6000611a6e611a6984611a2a565b611a0f565b90508083825260208201905060208402830185811115611a9157611a90611a56565b5b835b81811015611aba5780611aa688826118b3565b845260208401935050602081019050611a93565b5050509392505050565b600082601f830112611ad957611ad8611999565b5b8135611ae9848260208601611a5b565b91505092915050565b600080fd5b600067ffffffffffffffff821115611b1257611b116119af565b5b611b1b8261199e565b9050602081019050919050565b82818337600083830152505050565b6000611b4a611b4584611af7565b611a0f565b905082815260208101848484011115611b6657611b65611af2565b5b611b71848285611b28565b509392505050565b600082601f830112611b8e57611b8d611999565b5b8135611b9e848260208601611b37565b91505092915050565b600080600080600060a08688031215611bc357611bc2611718565b5b6000611bd188828901611826565b9550506020611be288828901611826565b945050604086013567ffffffffffffffff811115611c0357611c0261171d565b5b611c0f88828901611ac4565b935050606086013567ffffffffffffffff811115611c3057611c2f61171d565b5b611c3c88828901611ac4565b925050608086013567ffffffffffffffff811115611c5d57611c5c61171d565b5b611c6988828901611b79565b9150509295509295909350565b611c7f81611722565b82525050565b6000602082019050611c9a6000830184611c76565b92915050565b600080600080600060a08688031215611cbc57611cbb611718565b5b6000611cca88828901611826565b9550506020611cdb88828901611826565b9450506040611cec888289016118b3565b9350506060611cfd888289016118b3565b925050608086013567ffffffffffffffff811115611d1e57611d1d61171d565b5b611d2a88828901611b79565b9150509295509295909350565b7f4e487b7100000000000000000000000000000000000000000000000000000000600052603260045260246000fd5b7f4e487b7100000000000000000000000000000000000000000000000000000000600052601160045260246000fd5b6000611da082611868565b9150611dab83611868565b9250828203905081811115611dc357611dc2611d66565b5b92915050565b6000611dd482611868565b9150611ddf83611868565b9250828201905080821115611df757611df6611d66565b5b92915050565b6000611e0882611868565b91507fffffffffffffffffffffffffffffffffffffffffffffffffffffffffffffffff8203611e3a57611e39611d66565b5b600182019050919050565b600082825260208201905092915050565b7f43616e27742072656d6f76652066726f6d20656d707479206172726179000000600082015250565b6000611e8c601d83611e45565b9150611e9782611e56565b602082019050919050565b60006020820190508181036000830152611ebb81611e7f565b9050919050565b7f55736572206e6f7420666f756e64000000000000000000000000000000000000600082015250565b6000611ef8600e83611e45565b9150611f0382611ec2565b602082019050919050565b60006020820190508181036000830152611f2781611eeb565b9050919050565b7f4e487b7100000000000000000000000000000000000000000000000000000000600052603160045260246000fd5b7f616d6f756e74203d203000000000000000000000000000000000000000000000600082015250565b6000611f93600a83611e45565b9150611f9e82611f5d565b602082019050919050565b60006020820190508181036000830152611fc281611f86565b9050919050565b7f6e6f7420656e6f7567682062616c616e63650000000000000000000000000000600082015250565b6000611fff601283611e45565b915061200a82611fc9565b602082019050919050565b6000602082019050818103600083015261202e81611ff2565b9050919050565b6000819050919050565b600061205a61205561205084612035565b61191f565b611868565b9050919050565b61206a8161203f565b82525050565b600082825260208201905092915050565b50565b6000612091600083612070565b915061209c82612081565b600082019050919050565b600060a0820190506120bc60008301876118f5565b6120c960208301866118f5565b6120d66040830185612061565b6120e36060830184611872565b81810360808301526120f481612084565b905095945050505050565b7f6e6f207265776172647300000000000000000000000000000000000000000000600082015250565b6000612135600a83611e45565b9150612140826120ff565b602082019050919050565b6000602082019050818103600083015261216481612128565b9050919050565b600061217682611868565b915061218183611868565b925082820261218f81611868565b915082820484148315176121a6576121a5611d66565b5b5092915050565b7f4e487b7100000000000000000000000000000000000000000000000000000000600052601260045260246000fd5b60006121e782611868565b91506121f283611868565b925082612202576122016121ad565b5b828204905092915050565b7f6e6f7420617574686f72697a6564000000000000000000000000000000000000600082015250565b6000612243600e83611e45565b915061224e8261220d565b602082019050919050565b6000602082019050818103600083015261227281612236565b905091905056fea2646970667358221220b89042ad2c10bc6359739c410efad6053b6b9def41157b89a40ee46ed1fc667264736f6c63430008110033",
  "linkReferences": {},
  "deployedLinkReferences": {}
}