{
  "_format": "hh-sol-artifact-1",
  "contractName": "StakingRewards",
  "sourceName": "contracts/staking_rewards.sol",
  "abi": [
    {
      "inputs": [
        {
          "internalType": "address",
          "name": "_stakingNFT",
          "type": "address"
        }
      ],
      "stateMutability": "nonpayable",
      "type": "constructor"
    },
    {
      "inputs": [
        {
          "internalType": "address",
          "name": "account",
          "type": "address"
        }
      ],
      "name": "_getDurationForUser",
      "outputs": [
        {
          "internalType": "uint256",
          "name": "",
          "type": "uint256"
        }
      ],
      "stateMutability": "view",
      "type": "function"
    },
    {
      "inputs": [
        {
          "internalType": "address",
          "name": "account",
          "type": "address"
        }
      ],
      "name": "_getRewardsShare",
      "outputs": [
        {
          "internalType": "uint256",
          "name": "",
          "type": "uint256"
        }
      ],
      "stateMutability": "view",
      "type": "function"
    },
    {
      "inputs": [],
      "name": "_getTotalDuration",
      "outputs": [
        {
          "internalType": "uint256",
          "name": "",
          "type": "uint256"
        }
      ],
      "stateMutability": "view",
      "type": "function"
    },
    {
      "inputs": [],
      "name": "claimRewards",
      "outputs": [],
      "stateMutability": "nonpayable",
      "type": "function"
    },
    {
      "inputs": [],
      "name": "emergencyWithdraw",
      "outputs": [],
      "stateMutability": "nonpayable",
      "type": "function"
    },
    {
      "inputs": [
        {
          "internalType": "address",
          "name": "account",
          "type": "address"
        }
      ],
      "name": "getRewards",
      "outputs": [
        {
          "internalType": "uint256",
          "name": "",
          "type": "uint256"
        }
      ],
      "stateMutability": "view",
      "type": "function"
    },
    {
      "inputs": [
        {
          "internalType": "address",
          "name": "",
          "type": "address"
        },
        {
          "internalType": "address",
          "name": "",
          "type": "address"
        },
        {
          "internalType": "uint256[]",
          "name": "",
          "type": "uint256[]"
        },
        {
          "internalType": "uint256[]",
          "name": "",
          "type": "uint256[]"
        },
        {
          "internalType": "bytes",
          "name": "",
          "type": "bytes"
        }
      ],
      "name": "onERC1155BatchReceived",
      "outputs": [
        {
          "internalType": "bytes4",
          "name": "",
          "type": "bytes4"
        }
      ],
      "stateMutability": "nonpayable",
      "type": "function"
    },
    {
      "inputs": [
        {
          "internalType": "address",
          "name": "",
          "type": "address"
        },
        {
          "internalType": "address",
          "name": "",
          "type": "address"
        },
        {
          "internalType": "uint256",
          "name": "",
          "type": "uint256"
        },
        {
          "internalType": "uint256",
          "name": "",
          "type": "uint256"
        },
        {
          "internalType": "bytes",
          "name": "",
          "type": "bytes"
        }
      ],
      "name": "onERC1155Received",
      "outputs": [
        {
          "internalType": "bytes4",
          "name": "",
          "type": "bytes4"
        }
      ],
      "stateMutability": "nonpayable",
      "type": "function"
    },
    {
      "inputs": [],
      "name": "owner",
      "outputs": [
        {
          "internalType": "address",
          "name": "",
          "type": "address"
        }
      ],
      "stateMutability": "view",
      "type": "function"
    },
    {
      "inputs": [
        {
          "internalType": "address",
          "name": "_user",
          "type": "address"
        }
      ],
      "name": "remove",
      "outputs": [],
      "stateMutability": "nonpayable",
      "type": "function"
    },
    {
      "inputs": [
        {
          "internalType": "uint256",
          "name": "_amount",
          "type": "uint256"
        }
      ],
      "name": "stake",
      "outputs": [],
      "stateMutability": "nonpayable",
      "type": "function"
    },
    {
      "inputs": [
        {
          "internalType": "address",
          "name": "",
          "type": "address"
        }
      ],
      "name": "staking",
      "outputs": [
        {
          "internalType": "bool",
          "name": "",
          "type": "bool"
        }
      ],
      "stateMutability": "view",
      "type": "function"
    },
    {
      "inputs": [],
      "name": "stakingToken",
      "outputs": [
        {
          "internalType": "contract IERC1155",
          "name": "",
          "type": "address"
        }
      ],
      "stateMutability": "view",
      "type": "function"
    },
    {
      "inputs": [
        {
          "internalType": "bytes4",
          "name": "interfaceId",
          "type": "bytes4"
        }
      ],
      "name": "supportsInterface",
      "outputs": [
        {
          "internalType": "bool",
          "name": "",
          "type": "bool"
        }
      ],
      "stateMutability": "view",
      "type": "function"
    },
    {
      "inputs": [],
      "name": "totalStaked",
      "outputs": [
        {
          "internalType": "uint256",
          "name": "",
          "type": "uint256"
        }
      ],
      "stateMutability": "view",
      "type": "function"
    },
    {
      "inputs": [
        {
          "internalType": "address",
          "name": "",
          "type": "address"
        }
      ],
      "name": "userRewardPaid",
      "outputs": [
        {
          "internalType": "uint256",
          "name": "",
          "type": "uint256"
        }
      ],
      "stateMutability": "view",
      "type": "function"
    },
    {
      "inputs": [
        {
          "internalType": "address",
          "name": "",
          "type": "address"
        }
      ],
      "name": "userdata",
      "outputs": [
        {
          "internalType": "uint256",
          "name": "balanceOf",
          "type": "uint256"
        }
      ],
      "stateMutability": "view",
      "type": "function"
    },
    {
      "inputs": [
        {
          "internalType": "uint256",
          "name": "",
          "type": "uint256"
        }
      ],
      "name": "users",
      "outputs": [
        {
          "internalType": "address",
          "name": "",
          "type": "address"
        }
      ],
      "stateMutability": "view",
      "type": "function"
    },
    {
      "inputs": [
        {
          "internalType": "uint256",
          "name": "_amount",
          "type": "uint256"
        }
      ],
      "name": "withdraw",
      "outputs": [],
      "stateMutability": "nonpayable",
      "type": "function"
    }
  ],
  "bytecode": "0x60a06040523480156200001157600080fd5b50604051620022d2380380620022d283398181016040528101906200003791906200011c565b336000806101000a81548173ffffffffffffffffffffffffffffffffffffffff021916908373ffffffffffffffffffffffffffffffffffffffff1602179055508073ffffffffffffffffffffffffffffffffffffffff1660808173ffffffffffffffffffffffffffffffffffffffff1681525050506200014e565b600080fd5b600073ffffffffffffffffffffffffffffffffffffffff82169050919050565b6000620000e482620000b7565b9050919050565b620000f681620000d7565b81146200010257600080fd5b50565b6000815190506200011681620000eb565b92915050565b600060208284031215620001355762000134620000b2565b5b6000620001458482850162000105565b91505092915050565b60805161215a6200017860003960008181610a8301528181610ea40152610f70015261215a6000f3fe608060405234801561001057600080fd5b50600436106101215760003560e01c806379ee54f7116100ad578063bc197c8111610071578063bc197c811461031c578063d764b78f1461034c578063d94dbc6a1461037c578063db2e21bc146103ac578063f23a6e61146103b657610121565b806379ee54f714610264578063817b1cd2146102945780638da5cb5b146102b2578063a694fc3a146102d0578063ba14f26a146102ec57610121565b8063365b98b2116100f4578063365b98b2146101be578063372500ab146101ee578063605fbc24146101f857806372f702f31461021657806373c4c1961461023457610121565b806301ffc9a7146101265780630d1546ac1461015657806329092d0e146101865780632e1a7d4d146101a2575b600080fd5b610140600480360381019061013b9190611625565b6103e6565b60405161014d919061166d565b60405180910390f35b610170600480360381019061016b91906116e6565b610460565b60405161017d919061172c565b60405180910390f35b6101a0600480360381019061019b91906116e6565b61068a565b005b6101bc60048036038101906101b79190611773565b61081a565b005b6101d860048036038101906101d39190611773565b610b16565b6040516101e591906117af565b60405180910390f35b6101f6610b55565b005b610200610e1c565b60405161020d919061172c565b60405180910390f35b61021e610ea2565b60405161022b9190611829565b60405180910390f35b61024e600480360381019061024991906116e6565b610ec6565b60405161025b919061172c565b60405180910390f35b61027e600480360381019061027991906116e6565b610ee4565b60405161028b919061172c565b60405180910390f35b61029c610f01565b6040516102a9919061172c565b60405180910390f35b6102ba610f07565b6040516102c791906117af565b60405180910390f35b6102ea60048036038101906102e59190611773565b610f2b565b005b610306600480360381019061030191906116e6565b611257565b604051610313919061172c565b60405180910390f35b61033660048036038101906103319190611a52565b61126f565b6040516103439190611b30565b60405180910390f35b610366600480360381019061036191906116e6565b611284565b604051610373919061166d565b60405180910390f35b610396600480360381019061039191906116e6565b6112a4565b6040516103a3919061172c565b60405180910390f35b6103b4611339565b005b6103d060048036038101906103cb9190611b4b565b611430565b6040516103dd9190611b30565b60405180910390f35b60007f4e2312e0000000000000000000000000000000000000000000000000000000007bffffffffffffffffffffffffffffffffffffffffffffffffffffffff1916827bffffffffffffffffffffffffffffffffffffffffffffffffffffffff19161480610459575061045882611445565b5b9050919050565b600080600560008473ffffffffffffffffffffffffffffffffffffffff1673ffffffffffffffffffffffffffffffffffffffff1681526020019081526020016000206000015490506000805b8281101561067f576000600560008773ffffffffffffffffffffffffffffffffffffffff1673ffffffffffffffffffffffffffffffffffffffff168152602001908152602001600020600201828154811061050a57610509611be2565b5b90600052602060002001540361059657600560008673ffffffffffffffffffffffffffffffffffffffff1673ffffffffffffffffffffffffffffffffffffffff168152602001908152602001600020600101818154811061056e5761056d611be2565b5b9060005260206000200154426105849190611c40565b8261058f9190611c74565b915061066c565b600560008673ffffffffffffffffffffffffffffffffffffffff1673ffffffffffffffffffffffffffffffffffffffff16815260200190815260200160002060010181815481106105ea576105e9611be2565b5b9060005260206000200154600560008773ffffffffffffffffffffffffffffffffffffffff1673ffffffffffffffffffffffffffffffffffffffff168152602001908152602001600020600201828154811061064957610648611be2565b5b906000526020600020015461065e9190611c40565b826106699190611c74565b91505b808061067790611ca8565b9150506104ac565b508092505050919050565b6000600380549050116106d2576040517f08c379a00000000000000000000000000000000000000000000000000000000081526004016106c990611d4d565b60405180910390fd5b60006106dd826114af565b90506000811215610723576040517f08c379a000000000000000000000000000000000000000000000000000000000815260040161071a90611db9565b60405180910390fd5b600360016003805490506107379190611c40565b8154811061074857610747611be2565b5b9060005260206000200160009054906101000a900473ffffffffffffffffffffffffffffffffffffffff166003828154811061078757610786611be2565b5b9060005260206000200160006101000a81548173ffffffffffffffffffffffffffffffffffffffff021916908373ffffffffffffffffffffffffffffffffffffffff16021790555060038054806107e1576107e0611dd9565b5b6001900381819060005260206000200160006101000a81549073ffffffffffffffffffffffffffffffffffffffff021916905590555050565b6000811161085d576040517f08c379a000000000000000000000000000000000000000000000000000000000815260040161085490611e54565b60405180910390fd5b80600560003373ffffffffffffffffffffffffffffffffffffffff1673ffffffffffffffffffffffffffffffffffffffff1681526020019081526020016000206000015410156108e2576040517f08c379a00000000000000000000000000000000000000000000000000000000081526004016108d990611ec0565b60405180910390fd5b80600260008282546108f49190611c40565b9250508190555080600560003373ffffffffffffffffffffffffffffffffffffffff1673ffffffffffffffffffffffffffffffffffffffff168152602001908152602001600020600001600082825461094d9190611c40565b925050819055506000600560003373ffffffffffffffffffffffffffffffffffffffff1673ffffffffffffffffffffffffffffffffffffffff1681526020019081526020016000206000015403610a00576109a73361068a565b6000600460003373ffffffffffffffffffffffffffffffffffffffff1673ffffffffffffffffffffffffffffffffffffffff16815260200190815260200160002060006101000a81548160ff0219169083151502179055505b60005b818111610a805742600560003373ffffffffffffffffffffffffffffffffffffffff1673ffffffffffffffffffffffffffffffffffffffff1681526020019081526020016000206002018281548110610a5f57610a5e611be2565b5b90600052602060002001819055508080610a7890611ca8565b915050610a03565b507f000000000000000000000000000000000000000000000000000000000000000073ffffffffffffffffffffffffffffffffffffffff1663f242432a30336000856040518563ffffffff1660e01b8152600401610ae19493929190611f52565b600060405180830381600087803b158015610afb57600080fd5b505af1158015610b0f573d6000803e3d6000fd5b5050505050565b60038181548110610b2657600080fd5b906000526020600020016000915054906101000a900473ffffffffffffffffffffffffffffffffffffffff1681565b6000610b6033610ee4565b905060008111610ba5576040517f08c379a0000000000000000000000000000000000000000000000000000000008152600401610b9c90611ff6565b60405180910390fd5b80600160003373ffffffffffffffffffffffffffffffffffffffff1673ffffffffffffffffffffffffffffffffffffffff16815260200190815260200160002081905550600460003373ffffffffffffffffffffffffffffffffffffffff1673ffffffffffffffffffffffffffffffffffffffff16815260200190815260200160002060009054906101000a900460ff16610ca957600560003373ffffffffffffffffffffffffffffffffffffffff1673ffffffffffffffffffffffffffffffffffffffff168152602001908152602001600020600080820160009055600182016000610c92919061157b565b600282016000610ca2919061157b565b5050610dd2565b60005b600560003373ffffffffffffffffffffffffffffffffffffffff1673ffffffffffffffffffffffffffffffffffffffff16815260200190815260200160002060000154811015610dd05742600560003373ffffffffffffffffffffffffffffffffffffffff1673ffffffffffffffffffffffffffffffffffffffff1681526020019081526020016000206001018281548110610d4b57610d4a611be2565b5b90600052602060002001819055506000600560003373ffffffffffffffffffffffffffffffffffffffff1673ffffffffffffffffffffffffffffffffffffffff1681526020019081526020016000206002018281548110610daf57610dae611be2565b5b90600052602060002001819055508080610dc890611ca8565b915050610cac565b505b3373ffffffffffffffffffffffffffffffffffffffff166108fc829081150290604051600060405180830381858888f19350505050158015610e18573d6000803e3d6000fd5b5050565b6000806000905060005b600380549050811015610e9a57610e7a60038281548110610e4a57610e49611be2565b5b9060005260206000200160009054906101000a900473ffffffffffffffffffffffffffffffffffffffff16610460565b82610e859190611c74565b91508080610e9290611ca8565b915050610e26565b508091505090565b7f000000000000000000000000000000000000000000000000000000000000000081565b60056020528060005260406000206000915090508060000154905081565b600047610ef0836112a4565b610efa9190612016565b9050919050565b60025481565b60008054906101000a900473ffffffffffffffffffffffffffffffffffffffff1681565b60008111610f6e576040517f08c379a0000000000000000000000000000000000000000000000000000000008152600401610f6590611e54565b60405180910390fd5b7f000000000000000000000000000000000000000000000000000000000000000073ffffffffffffffffffffffffffffffffffffffff1663f242432a33306000856040518563ffffffff1660e01b8152600401610fce9493929190611f52565b600060405180830381600087803b158015610fe857600080fd5b505af1158015610ffc573d6000803e3d6000fd5b5050505080600260008282546110129190611c74565b9250508190555080600560003373ffffffffffffffffffffffffffffffffffffffff1673ffffffffffffffffffffffffffffffffffffffff168152602001908152602001600020600001600082825461106b9190611c74565b92505081905550600061107d336114af565b90507fffffffffffffffffffffffffffffffffffffffffffffffffffffffffffffffff8103611162576003339080600181540180825580915050600190039060005260206000200160009091909190916101000a81548173ffffffffffffffffffffffffffffffffffffffff021916908373ffffffffffffffffffffffffffffffffffffffff1602179055506001600460003373ffffffffffffffffffffffffffffffffffffffff1673ffffffffffffffffffffffffffffffffffffffff16815260200190815260200160002060006101000a81548160ff0219169083151502179055505b60005b82811161125257600560003373ffffffffffffffffffffffffffffffffffffffff1673ffffffffffffffffffffffffffffffffffffffff168152602001908152602001600020600101429080600181540180825580915050600190039060005260206000200160009091909190915055600560003373ffffffffffffffffffffffffffffffffffffffff1673ffffffffffffffffffffffffffffffffffffffff16815260200190815260200160002060020160009080600181540180825580915050600190039060005260206000200160009091909190915055808061124a90611ca8565b915050611165565b505050565b60016020528060005260406000206000915090505481565b600063bc197c8160e01b905095945050505050565b60046020528060005260406000206000915054906101000a900460ff1681565b6000806112af610e1c565b6112b884610460565b6112c29190612087565b90506000600254600560008673ffffffffffffffffffffffffffffffffffffffff1673ffffffffffffffffffffffffffffffffffffffff168152602001908152602001600020600001546113169190612087565b9050600281836113269190611c74565b6113309190612087565b92505050919050565b60008054906101000a900473ffffffffffffffffffffffffffffffffffffffff1673ffffffffffffffffffffffffffffffffffffffff163373ffffffffffffffffffffffffffffffffffffffff16146113c7576040517f08c379a00000000000000000000000000000000000000000000000000000000081526004016113be90612104565b60405180910390fd5b60008054906101000a900473ffffffffffffffffffffffffffffffffffffffff1673ffffffffffffffffffffffffffffffffffffffff166108fc479081150290604051600060405180830381858888f1935050505015801561142d573d6000803e3d6000fd5b50565b600063f23a6e6160e01b905095945050505050565b60007f01ffc9a7000000000000000000000000000000000000000000000000000000007bffffffffffffffffffffffffffffffffffffffffffffffffffffffff1916827bffffffffffffffffffffffffffffffffffffffffffffffffffffffff1916149050919050565b600080600090505b600380549050811015611551578273ffffffffffffffffffffffffffffffffffffffff16600382815481106114ef576114ee611be2565b5b9060005260206000200160009054906101000a900473ffffffffffffffffffffffffffffffffffffffff1673ffffffffffffffffffffffffffffffffffffffff160361153e5780915050611576565b808061154990611ca8565b9150506114b7565b507fffffffffffffffffffffffffffffffffffffffffffffffffffffffffffffffff90505b919050565b5080546000825590600052602060002090810190611599919061159c565b50565b5b808211156115b557600081600090555060010161159d565b5090565b6000604051905090565b600080fd5b600080fd5b60007fffffffff0000000000000000000000000000000000000000000000000000000082169050919050565b611602816115cd565b811461160d57600080fd5b50565b60008135905061161f816115f9565b92915050565b60006020828403121561163b5761163a6115c3565b5b600061164984828501611610565b91505092915050565b60008115159050919050565b61166781611652565b82525050565b6000602082019050611682600083018461165e565b92915050565b600073ffffffffffffffffffffffffffffffffffffffff82169050919050565b60006116b382611688565b9050919050565b6116c3816116a8565b81146116ce57600080fd5b50565b6000813590506116e0816116ba565b92915050565b6000602082840312156116fc576116fb6115c3565b5b600061170a848285016116d1565b91505092915050565b6000819050919050565b61172681611713565b82525050565b6000602082019050611741600083018461171d565b92915050565b61175081611713565b811461175b57600080fd5b50565b60008135905061176d81611747565b92915050565b600060208284031215611789576117886115c3565b5b60006117978482850161175e565b91505092915050565b6117a9816116a8565b82525050565b60006020820190506117c460008301846117a0565b92915050565b6000819050919050565b60006117ef6117ea6117e584611688565b6117ca565b611688565b9050919050565b6000611801826117d4565b9050919050565b6000611813826117f6565b9050919050565b61182381611808565b82525050565b600060208201905061183e600083018461181a565b92915050565b600080fd5b6000601f19601f8301169050919050565b7f4e487b7100000000000000000000000000000000000000000000000000000000600052604160045260246000fd5b61189282611849565b810181811067ffffffffffffffff821117156118b1576118b061185a565b5b80604052505050565b60006118c46115b9565b90506118d08282611889565b919050565b600067ffffffffffffffff8211156118f0576118ef61185a565b5b602082029050602081019050919050565b600080fd5b6000611919611914846118d5565b6118ba565b9050808382526020820190506020840283018581111561193c5761193b611901565b5b835b818110156119655780611951888261175e565b84526020840193505060208101905061193e565b5050509392505050565b600082601f83011261198457611983611844565b5b8135611994848260208601611906565b91505092915050565b600080fd5b600067ffffffffffffffff8211156119bd576119bc61185a565b5b6119c682611849565b9050602081019050919050565b82818337600083830152505050565b60006119f56119f0846119a2565b6118ba565b905082815260208101848484011115611a1157611a1061199d565b5b611a1c8482856119d3565b509392505050565b600082601f830112611a3957611a38611844565b5b8135611a498482602086016119e2565b91505092915050565b600080600080600060a08688031215611a6e57611a6d6115c3565b5b6000611a7c888289016116d1565b9550506020611a8d888289016116d1565b945050604086013567ffffffffffffffff811115611aae57611aad6115c8565b5b611aba8882890161196f565b935050606086013567ffffffffffffffff811115611adb57611ada6115c8565b5b611ae78882890161196f565b925050608086013567ffffffffffffffff811115611b0857611b076115c8565b5b611b1488828901611a24565b9150509295509295909350565b611b2a816115cd565b82525050565b6000602082019050611b456000830184611b21565b92915050565b600080600080600060a08688031215611b6757611b666115c3565b5b6000611b75888289016116d1565b9550506020611b86888289016116d1565b9450506040611b978882890161175e565b9350506060611ba88882890161175e565b925050608086013567ffffffffffffffff811115611bc957611bc86115c8565b5b611bd588828901611a24565b9150509295509295909350565b7f4e487b7100000000000000000000000000000000000000000000000000000000600052603260045260246000fd5b7f4e487b7100000000000000000000000000000000000000000000000000000000600052601160045260246000fd5b6000611c4b82611713565b9150611c5683611713565b9250828203905081811115611c6e57611c6d611c11565b5b92915050565b6000611c7f82611713565b9150611c8a83611713565b9250828201905080821115611ca257611ca1611c11565b5b92915050565b6000611cb382611713565b91507fffffffffffffffffffffffffffffffffffffffffffffffffffffffffffffffff8203611ce557611ce4611c11565b5b600182019050919050565b600082825260208201905092915050565b7f43616e27742072656d6f76652066726f6d20656d707479206172726179000000600082015250565b6000611d37601d83611cf0565b9150611d4282611d01565b602082019050919050565b60006020820190508181036000830152611d6681611d2a565b9050919050565b7f55736572206e6f7420666f756e64000000000000000000000000000000000000600082015250565b6000611da3600e83611cf0565b9150611dae82611d6d565b602082019050919050565b60006020820190508181036000830152611dd281611d96565b9050919050565b7f4e487b7100000000000000000000000000000000000000000000000000000000600052603160045260246000fd5b7f616d6f756e74203d203000000000000000000000000000000000000000000000600082015250565b6000611e3e600a83611cf0565b9150611e4982611e08565b602082019050919050565b60006020820190508181036000830152611e6d81611e31565b9050919050565b7f6e6f7420656e6f7567682062616c616e63650000000000000000000000000000600082015250565b6000611eaa601283611cf0565b9150611eb582611e74565b602082019050919050565b60006020820190508181036000830152611ed981611e9d565b9050919050565b6000819050919050565b6000611f05611f00611efb84611ee0565b6117ca565b611713565b9050919050565b611f1581611eea565b82525050565b600082825260208201905092915050565b50565b6000611f3c600083611f1b565b9150611f4782611f2c565b600082019050919050565b600060a082019050611f6760008301876117a0565b611f7460208301866117a0565b611f816040830185611f0c565b611f8e606083018461171d565b8181036080830152611f9f81611f2f565b905095945050505050565b7f6e6f207265776172647300000000000000000000000000000000000000000000600082015250565b6000611fe0600a83611cf0565b9150611feb82611faa565b602082019050919050565b6000602082019050818103600083015261200f81611fd3565b9050919050565b600061202182611713565b915061202c83611713565b925082820261203a81611713565b9150828204841483151761205157612050611c11565b5b5092915050565b7f4e487b7100000000000000000000000000000000000000000000000000000000600052601260045260246000fd5b600061209282611713565b915061209d83611713565b9250826120ad576120ac612058565b5b828204905092915050565b7f6e6f7420617574686f72697a6564000000000000000000000000000000000000600082015250565b60006120ee600e83611cf0565b91506120f9826120b8565b602082019050919050565b6000602082019050818103600083015261211d816120e1565b905091905056fea26469706673582212200ad5185c36be55cf47d0ae9ac6243792a5a4154defb919bfcfbd15932e7b3ca164736f6c63430008110033",
  "linkReferences": {},
  "deployedLinkReferences": {}
}