{
  "_format": "hh-sol-artifact-1",
  "contractName": "MultiDelegatecall",
  "sourceName": "contracts/multi_delegate_call.sol",
  "abi": [
    {
      "inputs": [],
      "name": "DelegatecallFailed",
      "type": "error"
    },
    {
      "inputs": [
        {
          "internalType": "bytes[]",
          "name": "data",
          "type": "bytes[]"
        }
      ],
      "name": "multiDelegatecall",
      "outputs": [
        {
          "internalType": "bytes[]",
          "name": "results",
          "type": "bytes[]"
        }
      ],
      "stateMutability": "payable",
      "type": "function"
    }
  ],
  "bytecode": "0x608060405234801561001057600080fd5b506105cf806100206000396000f3fe60806040526004361061001e5760003560e01c806310957d3c14610023575b600080fd5b61003d6004803603810190610038919061022f565b610053565b60405161004a91906103ce565b60405180910390f35b60608282905067ffffffffffffffff811115610072576100716103f0565b5b6040519080825280602002602001820160405280156100a557816020015b60608152602001906001900390816100905790505b50905060005b838390508110156101b9576000803073ffffffffffffffffffffffffffffffffffffffff168686858181106100e3576100e261041f565b5b90506020028101906100f5919061045d565b6040516101039291906104ff565b600060405180830381855af49150503d806000811461013e576040519150601f19603f3d011682016040523d82523d6000602084013e610143565b606091505b5091509150811561017257808484815181106101625761016161041f565b5b60200260200101819052506101a4565b6040517f835e98fe00000000000000000000000000000000000000000000000000000000815260040160405180910390fd5b505080806101b190610551565b9150506100ab565b5092915050565b600080fd5b600080fd5b600080fd5b600080fd5b600080fd5b60008083601f8401126101ef576101ee6101ca565b5b8235905067ffffffffffffffff81111561020c5761020b6101cf565b5b602083019150836020820283011115610228576102276101d4565b5b9250929050565b60008060208385031215610246576102456101c0565b5b600083013567ffffffffffffffff811115610264576102636101c5565b5b610270858286016101d9565b92509250509250929050565b600081519050919050565b600082825260208201905092915050565b6000819050602082019050919050565b600081519050919050565b600082825260208201905092915050565b60005b838110156102e25780820151818401526020810190506102c7565b60008484015250505050565b6000601f19601f8301169050919050565b600061030a826102a8565b61031481856102b3565b93506103248185602086016102c4565b61032d816102ee565b840191505092915050565b600061034483836102ff565b905092915050565b6000602082019050919050565b60006103648261027c565b61036e8185610287565b93508360208202850161038085610298565b8060005b858110156103bc578484038952815161039d8582610338565b94506103a88361034c565b925060208a01995050600181019050610384565b50829750879550505050505092915050565b600060208201905081810360008301526103e88184610359565b905092915050565b7f4e487b7100000000000000000000000000000000000000000000000000000000600052604160045260246000fd5b7f4e487b7100000000000000000000000000000000000000000000000000000000600052603260045260246000fd5b600080fd5b600080fd5b600080fd5b6000808335600160200384360303811261047a5761047961044e565b5b80840192508235915067ffffffffffffffff82111561049c5761049b610453565b5b6020830192506001820236038313156104b8576104b7610458565b5b509250929050565b600081905092915050565b82818337600083830152505050565b60006104e683856104c0565b93506104f38385846104cb565b82840190509392505050565b600061050c8284866104da565b91508190509392505050565b7f4e487b7100000000000000000000000000000000000000000000000000000000600052601160045260246000fd5b6000819050919050565b600061055c82610547565b91507fffffffffffffffffffffffffffffffffffffffffffffffffffffffffffffffff820361058e5761058d610518565b5b60018201905091905056fea264697066735822122009b39a0857fd8249954a0719bf281d26f311511cf35e7b506ee1a3267e8c83bc64736f6c63430008110033",
  "linkReferences": {},
  "deployedLinkReferences": {}
}