{
  "_format": "hh-sol-artifact-1",
  "contractName": "TestMultiDelegatecall",
  "sourceName": "contracts/multi_delegate_call.sol",
  "abi": [
    {
      "inputs": [],
      "name": "DelegatecallFailed",
      "type": "error"
    },
    {
      "anonymous": false,
      "inputs": [
        {
          "indexed": false,
          "internalType": "address",
          "name": "caller",
          "type": "address"
        },
        {
          "indexed": false,
          "internalType": "string",
          "name": "func",
          "type": "string"
        },
        {
          "indexed": false,
          "internalType": "uint256",
          "name": "i",
          "type": "uint256"
        }
      ],
      "name": "Log",
      "type": "event"
    },
    {
      "inputs": [
        {
          "internalType": "uint256",
          "name": "x",
          "type": "uint256"
        },
        {
          "internalType": "uint256",
          "name": "y",
          "type": "uint256"
        }
      ],
      "name": "func1",
      "outputs": [
        {
          "internalType": "uint256",
          "name": "",
          "type": "uint256"
        }
      ],
      "stateMutability": "nonpayable",
      "type": "function"
    },
    {
      "inputs": [],
      "name": "func2",
      "outputs": [
        {
          "internalType": "uint256",
          "name": "",
          "type": "uint256"
        }
      ],
      "stateMutability": "nonpayable",
      "type": "function"
    },
    {
      "inputs": [
        {
          "internalType": "bytes[]",
          "name": "data",
          "type": "bytes[]"
        }
      ],
      "name": "multiDelegatecall",
      "outputs": [
        {
          "internalType": "bytes[]",
          "name": "results",
          "type": "bytes[]"
        }
      ],
      "stateMutability": "payable",
      "type": "function"
    }
  ],
  "bytecode": "0x608060405234801561001057600080fd5b5061095b806100206000396000f3fe6080604052600436106100345760003560e01c806310957d3c146100395780633cb8008514610069578063b1ade4db146100a6575b600080fd5b610053600480360381019061004e919061034a565b6100d1565b60405161006091906104e9565b60405180910390f35b34801561007557600080fd5b50610090600480360381019061008b9190610541565b61023e565b60405161009d9190610590565b60405180910390f35b3480156100b257600080fd5b506100bb610298565b6040516100c89190610590565b60405180910390f35b60608282905067ffffffffffffffff8111156100f0576100ef6105ab565b5b60405190808252806020026020018201604052801561012357816020015b606081526020019060019003908161010e5790505b50905060005b83839050811015610237576000803073ffffffffffffffffffffffffffffffffffffffff16868685818110610161576101606105da565b5b90506020028101906101739190610618565b6040516101819291906106ba565b600060405180830381855af49150503d80600081146101bc576040519150601f19603f3d011682016040523d82523d6000602084013e6101c1565b606091505b509150915081156101f057808484815181106101e0576101df6105da565b5b6020026020010181905250610222565b6040517f835e98fe00000000000000000000000000000000000000000000000000000000815260040160405180910390fd5b5050808061022f90610702565b915050610129565b5092915050565b60007ffd33e90d0eac940755277aa91045b95664988beeeafc4ed7d1281a6d83afbc0033838561026e919061074a565b60405161027c92919061081c565b60405180910390a18183610290919061074a565b905092915050565b60007ffd33e90d0eac940755277aa91045b95664988beeeafc4ed7d1281a6d83afbc003360026040516102cc9291906108e9565b60405180910390a16002905090565b600080fd5b600080fd5b600080fd5b600080fd5b600080fd5b60008083601f84011261030a576103096102e5565b5b8235905067ffffffffffffffff811115610327576103266102ea565b5b602083019150836020820283011115610343576103426102ef565b5b9250929050565b60008060208385031215610361576103606102db565b5b600083013567ffffffffffffffff81111561037f5761037e6102e0565b5b61038b858286016102f4565b92509250509250929050565b600081519050919050565b600082825260208201905092915050565b6000819050602082019050919050565b600081519050919050565b600082825260208201905092915050565b60005b838110156103fd5780820151818401526020810190506103e2565b60008484015250505050565b6000601f19601f8301169050919050565b6000610425826103c3565b61042f81856103ce565b935061043f8185602086016103df565b61044881610409565b840191505092915050565b600061045f838361041a565b905092915050565b6000602082019050919050565b600061047f82610397565b61048981856103a2565b93508360208202850161049b856103b3565b8060005b858110156104d757848403895281516104b88582610453565b94506104c383610467565b925060208a0199505060018101905061049f565b50829750879550505050505092915050565b600060208201905081810360008301526105038184610474565b905092915050565b6000819050919050565b61051e8161050b565b811461052957600080fd5b50565b60008135905061053b81610515565b92915050565b60008060408385031215610558576105576102db565b5b60006105668582860161052c565b92505060206105778582860161052c565b9150509250929050565b61058a8161050b565b82525050565b60006020820190506105a56000830184610581565b92915050565b7f4e487b7100000000000000000000000000000000000000000000000000000000600052604160045260246000fd5b7f4e487b7100000000000000000000000000000000000000000000000000000000600052603260045260246000fd5b600080fd5b600080fd5b600080fd5b6000808335600160200384360303811261063557610634610609565b5b80840192508235915067ffffffffffffffff8211156106575761065661060e565b5b60208301925060018202360383131561067357610672610613565b5b509250929050565b600081905092915050565b82818337600083830152505050565b60006106a1838561067b565b93506106ae838584610686565b82840190509392505050565b60006106c7828486610695565b91508190509392505050565b7f4e487b7100000000000000000000000000000000000000000000000000000000600052601160045260246000fd5b600061070d8261050b565b91507fffffffffffffffffffffffffffffffffffffffffffffffffffffffffffffffff820361073f5761073e6106d3565b5b600182019050919050565b60006107558261050b565b91506107608361050b565b9250828201905080821115610778576107776106d3565b5b92915050565b600073ffffffffffffffffffffffffffffffffffffffff82169050919050565b60006107a98261077e565b9050919050565b6107b98161079e565b82525050565b600082825260208201905092915050565b7f66756e6331000000000000000000000000000000000000000000000000000000600082015250565b60006108066005836107bf565b9150610811826107d0565b602082019050919050565b600060608201905061083160008301856107b0565b8181036020830152610842816107f9565b90506108516040830184610581565b9392505050565b7f66756e6332000000000000000000000000000000000000000000000000000000600082015250565b600061088e6005836107bf565b915061089982610858565b602082019050919050565b6000819050919050565b6000819050919050565b60006108d36108ce6108c9846108a4565b6108ae565b61050b565b9050919050565b6108e3816108b8565b82525050565b60006060820190506108fe60008301856107b0565b818103602083015261090f81610881565b905061091e60408301846108da565b939250505056fea2646970667358221220792395fd5f826d2f593c7625acc3067c77e7d9bef717dea7046ce095a63e46a464736f6c63430008110033",
  "linkReferences": {},
  "deployedLinkReferences": {}
}