{
  "_format": "hh-sol-artifact-1",
  "contractName": "UpgradableWallet",
  "sourceName": "contracts/upgradable_wallet.sol",
  "abi": [
    {
      "inputs": [
        {
          "internalType": "address",
          "name": "_implementation",
          "type": "address"
        }
      ],
      "stateMutability": "nonpayable",
      "type": "constructor"
    },
    {
      "stateMutability": "payable",
      "type": "fallback"
    },
    {
      "inputs": [],
      "name": "implementation",
      "outputs": [
        {
          "internalType": "address",
          "name": "",
          "type": "address"
        }
      ],
      "stateMutability": "view",
      "type": "function"
    },
    {
      "inputs": [],
      "name": "owner",
      "outputs": [
        {
          "internalType": "address",
          "name": "",
          "type": "address"
        }
      ],
      "stateMutability": "view",
      "type": "function"
    },
    {
      "stateMutability": "payable",
      "type": "receive"
    }
  ],
  "bytecode": "0x608060405234801561001057600080fd5b506040516104643803806104648339818101604052810190610032919061011c565b806000806101000a81548173ffffffffffffffffffffffffffffffffffffffff021916908373ffffffffffffffffffffffffffffffffffffffff16021790555033600160006101000a81548173ffffffffffffffffffffffffffffffffffffffff021916908373ffffffffffffffffffffffffffffffffffffffff16021790555050610149565b600080fd5b600073ffffffffffffffffffffffffffffffffffffffff82169050919050565b60006100e9826100be565b9050919050565b6100f9816100de565b811461010457600080fd5b50565b600081519050610116816100f0565b92915050565b600060208284031215610132576101316100b9565b5b600061014084828501610107565b91505092915050565b61030c806101586000396000f3fe60806040526004361061002d5760003560e01c80635c60da1b146101055780638da5cb5b1461013057610034565b3661003457005b60008060009054906101000a900473ffffffffffffffffffffffffffffffffffffffff1673ffffffffffffffffffffffffffffffffffffffff1660003660405161007f9291906101e4565b600060405180830381855af49150503d80600081146100ba576040519150601f19603f3d011682016040523d82523d6000602084013e6100bf565b606091505b5050905080610103576040517f08c379a00000000000000000000000000000000000000000000000000000000081526004016100fa9061025a565b60405180910390fd5b005b34801561011157600080fd5b5061011a61015b565b60405161012791906102bb565b60405180910390f35b34801561013c57600080fd5b5061014561017f565b60405161015291906102bb565b60405180910390f35b60008054906101000a900473ffffffffffffffffffffffffffffffffffffffff1681565b600160009054906101000a900473ffffffffffffffffffffffffffffffffffffffff1681565b600081905092915050565b82818337600083830152505050565b60006101cb83856101a5565b93506101d88385846101b0565b82840190509392505050565b60006101f18284866101bf565b91508190509392505050565b600082825260208201905092915050565b7f6661696c65640000000000000000000000000000000000000000000000000000600082015250565b60006102446006836101fd565b915061024f8261020e565b602082019050919050565b6000602082019050818103600083015261027381610237565b9050919050565b600073ffffffffffffffffffffffffffffffffffffffff82169050919050565b60006102a58261027a565b9050919050565b6102b58161029a565b82525050565b60006020820190506102d060008301846102ac565b9291505056fea26469706673582212201f4b8afc1c4d1073545c4240c97fc25644c40bbf59dbf87493093a8b305e11e464736f6c63430008110033",
  "linkReferences": {},
  "deployedLinkReferences": {}
}