{
  "_format": "hh-sol-artifact-1",
  "contractName": "Obake",
  "sourceName": "contracts/mintSFT.sol",
  "abi": [
    {
      "inputs": [
        {
          "internalType": "string",
          "name": "uri",
          "type": "string"
        }
      ],
      "stateMutability": "nonpayable",
      "type": "constructor"
    },
    {
      "anonymous": false,
      "inputs": [
        {
          "indexed": true,
          "internalType": "address",
          "name": "account",
          "type": "address"
        },
        {
          "indexed": true,
          "internalType": "address",
          "name": "operator",
          "type": "address"
        },
        {
          "indexed": false,
          "internalType": "bool",
          "name": "approved",
          "type": "bool"
        }
      ],
      "name": "ApprovalForAll",
      "type": "event"
    },
    {
      "anonymous": false,
      "inputs": [
        {
          "indexed": true,
          "internalType": "address",
          "name": "previousOwner",
          "type": "address"
        },
        {
          "indexed": true,
          "internalType": "address",
          "name": "newOwner",
          "type": "address"
        }
      ],
      "name": "OwnershipTransferred",
      "type": "event"
    },
    {
      "anonymous": false,
      "inputs": [
        {
          "indexed": true,
          "internalType": "address",
          "name": "operator",
          "type": "address"
        },
        {
          "indexed": true,
          "internalType": "address",
          "name": "from",
          "type": "address"
        },
        {
          "indexed": true,
          "internalType": "address",
          "name": "to",
          "type": "address"
        },
        {
          "indexed": false,
          "internalType": "uint256[]",
          "name": "ids",
          "type": "uint256[]"
        },
        {
          "indexed": false,
          "internalType": "uint256[]",
          "name": "values",
          "type": "uint256[]"
        }
      ],
      "name": "TransferBatch",
      "type": "event"
    },
    {
      "anonymous": false,
      "inputs": [
        {
          "indexed": true,
          "internalType": "address",
          "name": "operator",
          "type": "address"
        },
        {
          "indexed": true,
          "internalType": "address",
          "name": "from",
          "type": "address"
        },
        {
          "indexed": true,
          "internalType": "address",
          "name": "to",
          "type": "address"
        },
        {
          "indexed": false,
          "internalType": "uint256",
          "name": "id",
          "type": "uint256"
        },
        {
          "indexed": false,
          "internalType": "uint256",
          "name": "value",
          "type": "uint256"
        }
      ],
      "name": "TransferSingle",
      "type": "event"
    },
    {
      "anonymous": false,
      "inputs": [
        {
          "indexed": false,
          "internalType": "string",
          "name": "value",
          "type": "string"
        },
        {
          "indexed": true,
          "internalType": "uint256",
          "name": "id",
          "type": "uint256"
        }
      ],
      "name": "URI",
      "type": "event"
    },
    {
      "inputs": [],
      "name": "ID",
      "outputs": [
        {
          "internalType": "uint256",
          "name": "",
          "type": "uint256"
        }
      ],
      "stateMutability": "view",
      "type": "function"
    },
    {
      "inputs": [
        {
          "internalType": "address",
          "name": "account",
          "type": "address"
        },
        {
          "internalType": "uint256",
          "name": "id",
          "type": "uint256"
        }
      ],
      "name": "balanceOf",
      "outputs": [
        {
          "internalType": "uint256",
          "name": "",
          "type": "uint256"
        }
      ],
      "stateMutability": "view",
      "type": "function"
    },
    {
      "inputs": [
        {
          "internalType": "address[]",
          "name": "accounts",
          "type": "address[]"
        },
        {
          "internalType": "uint256[]",
          "name": "ids",
          "type": "uint256[]"
        }
      ],
      "name": "balanceOfBatch",
      "outputs": [
        {
          "internalType": "uint256[]",
          "name": "",
          "type": "uint256[]"
        }
      ],
      "stateMutability": "view",
      "type": "function"
    },
    {
      "inputs": [],
      "name": "cost",
      "outputs": [
        {
          "internalType": "uint256",
          "name": "",
          "type": "uint256"
        }
      ],
      "stateMutability": "view",
      "type": "function"
    },
    {
      "inputs": [
        {
          "internalType": "address",
          "name": "account",
          "type": "address"
        },
        {
          "internalType": "address",
          "name": "operator",
          "type": "address"
        }
      ],
      "name": "isApprovedForAll",
      "outputs": [
        {
          "internalType": "bool",
          "name": "",
          "type": "bool"
        }
      ],
      "stateMutability": "view",
      "type": "function"
    },
    {
      "inputs": [],
      "name": "maxMintAmountPerTx",
      "outputs": [
        {
          "internalType": "uint256",
          "name": "",
          "type": "uint256"
        }
      ],
      "stateMutability": "view",
      "type": "function"
    },
    {
      "inputs": [],
      "name": "maxSupply",
      "outputs": [
        {
          "internalType": "uint256",
          "name": "",
          "type": "uint256"
        }
      ],
      "stateMutability": "view",
      "type": "function"
    },
    {
      "inputs": [
        {
          "internalType": "uint256",
          "name": "_mintAmount",
          "type": "uint256"
        }
      ],
      "name": "mint",
      "outputs": [],
      "stateMutability": "payable",
      "type": "function"
    },
    {
      "inputs": [],
      "name": "name",
      "outputs": [
        {
          "internalType": "string",
          "name": "",
          "type": "string"
        }
      ],
      "stateMutability": "pure",
      "type": "function"
    },
    {
      "inputs": [],
      "name": "owner",
      "outputs": [
        {
          "internalType": "address",
          "name": "",
          "type": "address"
        }
      ],
      "stateMutability": "view",
      "type": "function"
    },
    {
      "inputs": [],
      "name": "paused",
      "outputs": [
        {
          "internalType": "bool",
          "name": "",
          "type": "bool"
        }
      ],
      "stateMutability": "view",
      "type": "function"
    },
    {
      "inputs": [],
      "name": "renounceOwnership",
      "outputs": [],
      "stateMutability": "nonpayable",
      "type": "function"
    },
    {
      "inputs": [
        {
          "internalType": "address",
          "name": "from",
          "type": "address"
        },
        {
          "internalType": "address",
          "name": "to",
          "type": "address"
        },
        {
          "internalType": "uint256[]",
          "name": "ids",
          "type": "uint256[]"
        },
        {
          "internalType": "uint256[]",
          "name": "amounts",
          "type": "uint256[]"
        },
        {
          "internalType": "bytes",
          "name": "data",
          "type": "bytes"
        }
      ],
      "name": "safeBatchTransferFrom",
      "outputs": [],
      "stateMutability": "nonpayable",
      "type": "function"
    },
    {
      "inputs": [
        {
          "internalType": "address",
          "name": "from",
          "type": "address"
        },
        {
          "internalType": "address",
          "name": "to",
          "type": "address"
        },
        {
          "internalType": "uint256",
          "name": "id",
          "type": "uint256"
        },
        {
          "internalType": "uint256",
          "name": "amount",
          "type": "uint256"
        },
        {
          "internalType": "bytes",
          "name": "data",
          "type": "bytes"
        }
      ],
      "name": "safeTransferFrom",
      "outputs": [],
      "stateMutability": "nonpayable",
      "type": "function"
    },
    {
      "inputs": [
        {
          "internalType": "address",
          "name": "operator",
          "type": "address"
        },
        {
          "internalType": "bool",
          "name": "approved",
          "type": "bool"
        }
      ],
      "name": "setApprovalForAll",
      "outputs": [],
      "stateMutability": "nonpayable",
      "type": "function"
    },
    {
      "inputs": [
        {
          "internalType": "uint256",
          "name": "_cost",
          "type": "uint256"
        }
      ],
      "name": "setCost",
      "outputs": [],
      "stateMutability": "nonpayable",
      "type": "function"
    },
    {
      "inputs": [
        {
          "internalType": "uint256",
          "name": "_maxMintAmountPerTx",
          "type": "uint256"
        }
      ],
      "name": "setMaxMintAmountPerTx",
      "outputs": [],
      "stateMutability": "nonpayable",
      "type": "function"
    },
    {
      "inputs": [
        {
          "internalType": "bool",
          "name": "_state",
          "type": "bool"
        }
      ],
      "name": "setPaused",
      "outputs": [],
      "stateMutability": "nonpayable",
      "type": "function"
    },
    {
      "inputs": [],
      "name": "supply",
      "outputs": [
        {
          "internalType": "uint256",
          "name": "_value",
          "type": "uint256"
        }
      ],
      "stateMutability": "view",
      "type": "function"
    },
    {
      "inputs": [
        {
          "internalType": "bytes4",
          "name": "interfaceId",
          "type": "bytes4"
        }
      ],
      "name": "supportsInterface",
      "outputs": [
        {
          "internalType": "bool",
          "name": "",
          "type": "bool"
        }
      ],
      "stateMutability": "view",
      "type": "function"
    },
    {
      "inputs": [],
      "name": "symbol",
      "outputs": [
        {
          "internalType": "string",
          "name": "",
          "type": "string"
        }
      ],
      "stateMutability": "pure",
      "type": "function"
    },
    {
      "inputs": [
        {
          "internalType": "address",
          "name": "newOwner",
          "type": "address"
        }
      ],
      "name": "transferOwnership",
      "outputs": [],
      "stateMutability": "nonpayable",
      "type": "function"
    },
    {
      "inputs": [
        {
          "internalType": "uint256",
          "name": "",
          "type": "uint256"
        }
      ],
      "name": "uri",
      "outputs": [
        {
          "internalType": "string",
          "name": "",
          "type": "string"
        }
      ],
      "stateMutability": "view",
      "type": "function"
    },
    {
      "inputs": [],
      "name": "withdraw",
      "outputs": [],
      "stateMutability": "nonpayable",
      "type": "function"
    }
  ],
  "bytecode": "0x6080604052662386f26fc100006005556109c460065560056007556001600860006101000a81548160ff0219169083151502179055503480156200004257600080fd5b5060405162003b3138038062003b31833981810160405281019062000068919062000318565b806200007a81620000a260201b60201c565b506200009b6200008f620000b760201b60201c565b620000bf60201b60201c565b506200069b565b8060029081620000b39190620005b4565b5050565b600033905090565b6000600360009054906101000a900473ffffffffffffffffffffffffffffffffffffffff16905081600360006101000a81548173ffffffffffffffffffffffffffffffffffffffff021916908373ffffffffffffffffffffffffffffffffffffffff1602179055508173ffffffffffffffffffffffffffffffffffffffff168173ffffffffffffffffffffffffffffffffffffffff167f8be0079c531659141344cd1fd0a4f28419497f9722a3daafe3b4186f6b6457e060405160405180910390a35050565b6000604051905090565b600080fd5b600080fd5b600080fd5b600080fd5b6000601f19601f8301169050919050565b7f4e487b7100000000000000000000000000000000000000000000000000000000600052604160045260246000fd5b620001ee82620001a3565b810181811067ffffffffffffffff8211171562000210576200020f620001b4565b5b80604052505050565b60006200022562000185565b9050620002338282620001e3565b919050565b600067ffffffffffffffff821115620002565762000255620001b4565b5b6200026182620001a3565b9050602081019050919050565b60005b838110156200028e57808201518184015260208101905062000271565b60008484015250505050565b6000620002b1620002ab8462000238565b62000219565b905082815260208101848484011115620002d057620002cf6200019e565b5b620002dd8482856200026e565b509392505050565b600082601f830112620002fd57620002fc62000199565b5b81516200030f8482602086016200029a565b91505092915050565b6000602082840312156200033157620003306200018f565b5b600082015167ffffffffffffffff81111562000352576200035162000194565b5b6200036084828501620002e5565b91505092915050565b600081519050919050565b7f4e487b7100000000000000000000000000000000000000000000000000000000600052602260045260246000fd5b60006002820490506001821680620003bc57607f821691505b602082108103620003d257620003d162000374565b5b50919050565b60008190508160005260206000209050919050565b60006020601f8301049050919050565b600082821b905092915050565b6000600883026200043c7fffffffffffffffffffffffffffffffffffffffffffffffffffffffffffffffff82620003fd565b620004488683620003fd565b95508019841693508086168417925050509392505050565b6000819050919050565b6000819050919050565b6000620004956200048f620004898462000460565b6200046a565b62000460565b9050919050565b6000819050919050565b620004b18362000474565b620004c9620004c0826200049c565b8484546200040a565b825550505050565b600090565b620004e0620004d1565b620004ed818484620004a6565b505050565b5b81811015620005155762000509600082620004d6565b600181019050620004f3565b5050565b601f82111562000564576200052e81620003d8565b6200053984620003ed565b8101602085101562000549578190505b620005616200055885620003ed565b830182620004f2565b50505b505050565b600082821c905092915050565b6000620005896000198460080262000569565b1980831691505092915050565b6000620005a4838362000576565b9150826002028217905092915050565b620005bf8262000369565b67ffffffffffffffff811115620005db57620005da620001b4565b5b620005e78254620003a3565b620005f482828562000519565b600060209050601f8311600181146200062c576000841562000617578287015190505b62000623858262000596565b86555062000693565b601f1984166200063c86620003d8565b60005b8281101562000666578489015182556001820191506020850194506020810190506200063f565b8683101562000686578489015162000682601f89168262000576565b8355505b6001600288020188555050505b505050505050565b61348680620006ab6000396000f3fe60806040526004361061014a5760003560e01c8063715018a6116100b6578063b071401b1161006f578063b071401b1461045e578063b3cea21714610487578063d5abeb01146104b2578063e985e9c5146104dd578063f242432a1461051a578063f2fde38b146105435761014a565b8063715018a6146103815780638da5cb5b1461039857806394354fd0146103c357806395d89b41146103ee578063a0712d6814610419578063a22cb465146104355761014a565b806316c38b3c1161010857806316c38b3c146102875780632eb2c2d6146102b05780633ccfd60b146102d957806344a0d68a146102f05780634e1273f4146103195780635c975abb146103565761014a565b8062fdd58e1461014f57806301ffc9a71461018c578063047fc9aa146101c957806306fdde03146101f45780630e89341c1461021f57806313faede61461025c575b600080fd5b34801561015b57600080fd5b5061017660048036038101906101719190611e70565b61056c565b6040516101839190611ebf565b60405180910390f35b34801561019857600080fd5b506101b360048036038101906101ae9190611f32565b610634565b6040516101c09190611f7a565b60405180910390f35b3480156101d557600080fd5b506101de610716565b6040516101eb9190611ebf565b60405180910390f35b34801561020057600080fd5b50610209610722565b6040516102169190612025565b60405180910390f35b34801561022b57600080fd5b5061024660048036038101906102419190612047565b61075f565b6040516102539190612025565b60405180910390f35b34801561026857600080fd5b506102716107f3565b60405161027e9190611ebf565b60405180910390f35b34801561029357600080fd5b506102ae60048036038101906102a991906120a0565b6107f9565b005b3480156102bc57600080fd5b506102d760048036038101906102d291906122ca565b61081e565b005b3480156102e557600080fd5b506102ee6108bf565b005b3480156102fc57600080fd5b5061031760048036038101906103129190612047565b61097d565b005b34801561032557600080fd5b50610340600480360381019061033b919061245c565b61098f565b60405161034d9190612592565b60405180910390f35b34801561036257600080fd5b5061036b610aa8565b6040516103789190611f7a565b60405180910390f35b34801561038d57600080fd5b50610396610abb565b005b3480156103a457600080fd5b506103ad610acf565b6040516103ba91906125c3565b60405180910390f35b3480156103cf57600080fd5b506103d8610af9565b6040516103e59190611ebf565b60405180910390f35b3480156103fa57600080fd5b50610403610aff565b6040516104109190612025565b60405180910390f35b610433600480360381019061042e9190612047565b610b3c565b005b34801561044157600080fd5b5061045c600480360381019061045791906125de565b610cd0565b005b34801561046a57600080fd5b5061048560048036038101906104809190612047565b610ce6565b005b34801561049357600080fd5b5061049c610cf8565b6040516104a99190611ebf565b60405180910390f35b3480156104be57600080fd5b506104c7610cfd565b6040516104d49190611ebf565b60405180910390f35b3480156104e957600080fd5b5061050460048036038101906104ff919061261e565b610d03565b6040516105119190611f7a565b60405180910390f35b34801561052657600080fd5b50610541600480360381019061053c919061265e565b610d97565b005b34801561054f57600080fd5b5061056a600480360381019061056591906126f5565b610e38565b005b60008073ffffffffffffffffffffffffffffffffffffffff168373ffffffffffffffffffffffffffffffffffffffff16036105dc576040517f08c379a00000000000000000000000000000000000000000000000000000000081526004016105d390612794565b60405180910390fd5b60008083815260200190815260200160002060008473ffffffffffffffffffffffffffffffffffffffff1673ffffffffffffffffffffffffffffffffffffffff16815260200190815260200160002054905092915050565b60007fd9b67a26000000000000000000000000000000000000000000000000000000007bffffffffffffffffffffffffffffffffffffffffffffffffffffffff1916827bffffffffffffffffffffffffffffffffffffffffffffffffffffffff191614806106ff57507f0e89341c000000000000000000000000000000000000000000000000000000007bffffffffffffffffffffffffffffffffffffffffffffffffffffffff1916827bffffffffffffffffffffffffffffffffffffffffffffffffffffffff1916145b8061070f575061070e82610ebb565b5b9050919050565b60048060000154905081565b60606040518060400160405280600581526020017f4f62616b65000000000000000000000000000000000000000000000000000000815250905090565b60606002805461076e906127e3565b80601f016020809104026020016040519081016040528092919081815260200182805461079a906127e3565b80156107e75780601f106107bc576101008083540402835291602001916107e7565b820191906000526020600020905b8154815290600101906020018083116107ca57829003601f168201915b50505050509050919050565b60055481565b610801610f25565b80600860006101000a81548160ff02191690831515021790555050565b610826610fa3565b73ffffffffffffffffffffffffffffffffffffffff168573ffffffffffffffffffffffffffffffffffffffff16148061086c575061086b85610866610fa3565b610d03565b5b6108ab576040517f08c379a00000000000000000000000000000000000000000000000000000000081526004016108a290612886565b60405180910390fd5b6108b88585858585610fab565b5050505050565b6108c7610f25565b60006108d1610acf565b73ffffffffffffffffffffffffffffffffffffffff16476040516108f4906128d7565b60006040518083038185875af1925050503d8060008114610931576040519150601f19603f3d011682016040523d82523d6000602084013e610936565b606091505b505090508061097a576040517f08c379a00000000000000000000000000000000000000000000000000000000081526004016109719061295e565b60405180910390fd5b50565b610985610f25565b8060058190555050565b606081518351146109d5576040517f08c379a00000000000000000000000000000000000000000000000000000000081526004016109cc906129f0565b60405180910390fd5b6000835167ffffffffffffffff8111156109f2576109f16120d2565b5b604051908082528060200260200182016040528015610a205781602001602082028036833780820191505090505b50905060005b8451811015610a9d57610a6d858281518110610a4557610a44612a10565b5b6020026020010151858381518110610a6057610a5f612a10565b5b602002602001015161056c565b828281518110610a8057610a7f612a10565b5b60200260200101818152505080610a9690612a6e565b9050610a26565b508091505092915050565b600860009054906101000a900460ff1681565b610ac3610f25565b610acd60006112cc565b565b6000600360009054906101000a900473ffffffffffffffffffffffffffffffffffffffff16905090565b60075481565b60606040518060400160405280600381526020017f4f424b0000000000000000000000000000000000000000000000000000000000815250905090565b80600081118015610b4f57506007548111155b610b8e576040517f08c379a0000000000000000000000000000000000000000000000000000000008152600401610b8590612b02565b60405180910390fd5b60065481610b9c6004611392565b610ba69190612b22565b1115610be7576040517f08c379a0000000000000000000000000000000000000000000000000000000008152600401610bde90612ba2565b60405180910390fd5b600860009054906101000a900460ff1615610c37576040517f08c379a0000000000000000000000000000000000000000000000000000000008152600401610c2e90612c0e565b60405180910390fd5b81600554610c459190612c2e565b341015610c87576040517f08c379a0000000000000000000000000000000000000000000000000000000008152600401610c7e90612cbc565b60405180910390fd5b60005b82811015610caf57610c9c60046113a0565b8080610ca790612a6e565b915050610c8a565b50610ccc33600184604051806020016040528060008152506113b6565b5050565b610ce2610cdb610fa3565b8383611566565b5050565b610cee610f25565b8060078190555050565b600181565b60065481565b6000600160008473ffffffffffffffffffffffffffffffffffffffff1673ffffffffffffffffffffffffffffffffffffffff16815260200190815260200160002060008373ffffffffffffffffffffffffffffffffffffffff1673ffffffffffffffffffffffffffffffffffffffff16815260200190815260200160002060009054906101000a900460ff16905092915050565b610d9f610fa3565b73ffffffffffffffffffffffffffffffffffffffff168573ffffffffffffffffffffffffffffffffffffffff161480610de55750610de485610ddf610fa3565b610d03565b5b610e24576040517f08c379a0000000000000000000000000000000000000000000000000000000008152600401610e1b90612886565b60405180910390fd5b610e3185858585856116d2565b5050505050565b610e40610f25565b600073ffffffffffffffffffffffffffffffffffffffff168173ffffffffffffffffffffffffffffffffffffffff1603610eaf576040517f08c379a0000000000000000000000000000000000000000000000000000000008152600401610ea690612d4e565b60405180910390fd5b610eb8816112cc565b50565b60007f01ffc9a7000000000000000000000000000000000000000000000000000000007bffffffffffffffffffffffffffffffffffffffffffffffffffffffff1916827bffffffffffffffffffffffffffffffffffffffffffffffffffffffff1916149050919050565b610f2d610fa3565b73ffffffffffffffffffffffffffffffffffffffff16610f4b610acf565b73ffffffffffffffffffffffffffffffffffffffff1614610fa1576040517f08c379a0000000000000000000000000000000000000000000000000000000008152600401610f9890612dba565b60405180910390fd5b565b600033905090565b8151835114610fef576040517f08c379a0000000000000000000000000000000000000000000000000000000008152600401610fe690612e4c565b60405180910390fd5b600073ffffffffffffffffffffffffffffffffffffffff168473ffffffffffffffffffffffffffffffffffffffff160361105e576040517f08c379a000000000000000000000000000000000000000000000000000000000815260040161105590612ede565b60405180910390fd5b6000611068610fa3565b905061107881878787878761196d565b60005b845181101561122957600085828151811061109957611098612a10565b5b6020026020010151905060008583815181106110b8576110b7612a10565b5b60200260200101519050600080600084815260200190815260200160002060008b73ffffffffffffffffffffffffffffffffffffffff1673ffffffffffffffffffffffffffffffffffffffff16815260200190815260200160002054905081811015611159576040517f08c379a000000000000000000000000000000000000000000000000000000000815260040161115090612f70565b60405180910390fd5b81810360008085815260200190815260200160002060008c73ffffffffffffffffffffffffffffffffffffffff1673ffffffffffffffffffffffffffffffffffffffff168152602001908152602001600020819055508160008085815260200190815260200160002060008b73ffffffffffffffffffffffffffffffffffffffff1673ffffffffffffffffffffffffffffffffffffffff168152602001908152602001600020600082825461120e9190612b22565b925050819055505050508061122290612a6e565b905061107b565b508473ffffffffffffffffffffffffffffffffffffffff168673ffffffffffffffffffffffffffffffffffffffff168273ffffffffffffffffffffffffffffffffffffffff167f4a39dc06d4c0dbc64b70af90fd698a233a518aa5d07e595d983b8c0526c8f7fb87876040516112a0929190612f90565b60405180910390a46112b6818787878787611975565b6112c481878787878761197d565b505050505050565b6000600360009054906101000a900473ffffffffffffffffffffffffffffffffffffffff16905081600360006101000a81548173ffffffffffffffffffffffffffffffffffffffff021916908373ffffffffffffffffffffffffffffffffffffffff1602179055508173ffffffffffffffffffffffffffffffffffffffff168173ffffffffffffffffffffffffffffffffffffffff167f8be0079c531659141344cd1fd0a4f28419497f9722a3daafe3b4186f6b6457e060405160405180910390a35050565b600081600001549050919050565b6001816000016000828254019250508190555050565b600073ffffffffffffffffffffffffffffffffffffffff168473ffffffffffffffffffffffffffffffffffffffff1603611425576040517f08c379a000000000000000000000000000000000000000000000000000000000815260040161141c90613039565b60405180910390fd5b600061142f610fa3565b9050600061143c85611b54565b9050600061144985611b54565b905061145a8360008985858961196d565b8460008088815260200190815260200160002060008973ffffffffffffffffffffffffffffffffffffffff1673ffffffffffffffffffffffffffffffffffffffff16815260200190815260200160002060008282546114b99190612b22565b925050819055508673ffffffffffffffffffffffffffffffffffffffff16600073ffffffffffffffffffffffffffffffffffffffff168473ffffffffffffffffffffffffffffffffffffffff167fc3d58168c5ae7397731d063d5bbf3d657854427343f4c083240f7aacaa2d0f628989604051611537929190613059565b60405180910390a461154e83600089858589611975565b61155d83600089898989611bce565b50505050505050565b8173ffffffffffffffffffffffffffffffffffffffff168373ffffffffffffffffffffffffffffffffffffffff16036115d4576040517f08c379a00000000000000000000000000000000000000000000000000000000081526004016115cb906130f4565b60405180910390fd5b80600160008573ffffffffffffffffffffffffffffffffffffffff1673ffffffffffffffffffffffffffffffffffffffff16815260200190815260200160002060008473ffffffffffffffffffffffffffffffffffffffff1673ffffffffffffffffffffffffffffffffffffffff16815260200190815260200160002060006101000a81548160ff0219169083151502179055508173ffffffffffffffffffffffffffffffffffffffff168373ffffffffffffffffffffffffffffffffffffffff167f17307eab39ab6107e8899845ad3d59bd9653f200f220920489ca2b5937696c31836040516116c59190611f7a565b60405180910390a3505050565b600073ffffffffffffffffffffffffffffffffffffffff168473ffffffffffffffffffffffffffffffffffffffff1603611741576040517f08c379a000000000000000000000000000000000000000000000000000000000815260040161173890612ede565b60405180910390fd5b600061174b610fa3565b9050600061175885611b54565b9050600061176585611b54565b905061177583898985858961196d565b600080600088815260200190815260200160002060008a73ffffffffffffffffffffffffffffffffffffffff1673ffffffffffffffffffffffffffffffffffffffff1681526020019081526020016000205490508581101561180c576040517f08c379a000000000000000000000000000000000000000000000000000000000815260040161180390612f70565b60405180910390fd5b85810360008089815260200190815260200160002060008b73ffffffffffffffffffffffffffffffffffffffff1673ffffffffffffffffffffffffffffffffffffffff168152602001908152602001600020819055508560008089815260200190815260200160002060008a73ffffffffffffffffffffffffffffffffffffffff1673ffffffffffffffffffffffffffffffffffffffff16815260200190815260200160002060008282546118c19190612b22565b925050819055508773ffffffffffffffffffffffffffffffffffffffff168973ffffffffffffffffffffffffffffffffffffffff168573ffffffffffffffffffffffffffffffffffffffff167fc3d58168c5ae7397731d063d5bbf3d657854427343f4c083240f7aacaa2d0f628a8a60405161193e929190613059565b60405180910390a4611954848a8a86868a611975565b611962848a8a8a8a8a611bce565b505050505050505050565b505050505050565b505050505050565b61199c8473ffffffffffffffffffffffffffffffffffffffff16611da5565b15611b4c578373ffffffffffffffffffffffffffffffffffffffff1663bc197c8187878686866040518663ffffffff1660e01b81526004016119e2959493929190613169565b6020604051808303816000875af1925050508015611a1e57506040513d601f19601f82011682018060405250810190611a1b91906131e6565b60015b611ac357611a2a613220565b806308c379a003611a865750611a3e613242565b80611a495750611a88565b806040517f08c379a0000000000000000000000000000000000000000000000000000000008152600401611a7d9190612025565b60405180910390fd5b505b6040517f08c379a0000000000000000000000000000000000000000000000000000000008152600401611aba90613344565b60405180910390fd5b63bc197c8160e01b7bffffffffffffffffffffffffffffffffffffffffffffffffffffffff1916817bffffffffffffffffffffffffffffffffffffffffffffffffffffffff191614611b4a576040517f08c379a0000000000000000000000000000000000000000000000000000000008152600401611b41906133d6565b60405180910390fd5b505b505050505050565b60606000600167ffffffffffffffff811115611b7357611b726120d2565b5b604051908082528060200260200182016040528015611ba15781602001602082028036833780820191505090505b5090508281600081518110611bb957611bb8612a10565b5b60200260200101818152505080915050919050565b611bed8473ffffffffffffffffffffffffffffffffffffffff16611da5565b15611d9d578373ffffffffffffffffffffffffffffffffffffffff1663f23a6e6187878686866040518663ffffffff1660e01b8152600401611c339594939291906133f6565b6020604051808303816000875af1925050508015611c6f57506040513d601f19601f82011682018060405250810190611c6c91906131e6565b60015b611d1457611c7b613220565b806308c379a003611cd75750611c8f613242565b80611c9a5750611cd9565b806040517f08c379a0000000000000000000000000000000000000000000000000000000008152600401611cce9190612025565b60405180910390fd5b505b6040517f08c379a0000000000000000000000000000000000000000000000000000000008152600401611d0b90613344565b60405180910390fd5b63f23a6e6160e01b7bffffffffffffffffffffffffffffffffffffffffffffffffffffffff1916817bffffffffffffffffffffffffffffffffffffffffffffffffffffffff191614611d9b576040517f08c379a0000000000000000000000000000000000000000000000000000000008152600401611d92906133d6565b60405180910390fd5b505b505050505050565b6000808273ffffffffffffffffffffffffffffffffffffffff163b119050919050565b6000604051905090565b600080fd5b600080fd5b600073ffffffffffffffffffffffffffffffffffffffff82169050919050565b6000611e0782611ddc565b9050919050565b611e1781611dfc565b8114611e2257600080fd5b50565b600081359050611e3481611e0e565b92915050565b6000819050919050565b611e4d81611e3a565b8114611e5857600080fd5b50565b600081359050611e6a81611e44565b92915050565b60008060408385031215611e8757611e86611dd2565b5b6000611e9585828601611e25565b9250506020611ea685828601611e5b565b9150509250929050565b611eb981611e3a565b82525050565b6000602082019050611ed46000830184611eb0565b92915050565b60007fffffffff0000000000000000000000000000000000000000000000000000000082169050919050565b611f0f81611eda565b8114611f1a57600080fd5b50565b600081359050611f2c81611f06565b92915050565b600060208284031215611f4857611f47611dd2565b5b6000611f5684828501611f1d565b91505092915050565b60008115159050919050565b611f7481611f5f565b82525050565b6000602082019050611f8f6000830184611f6b565b92915050565b600081519050919050565b600082825260208201905092915050565b60005b83811015611fcf578082015181840152602081019050611fb4565b60008484015250505050565b6000601f19601f8301169050919050565b6000611ff782611f95565b6120018185611fa0565b9350612011818560208601611fb1565b61201a81611fdb565b840191505092915050565b6000602082019050818103600083015261203f8184611fec565b905092915050565b60006020828403121561205d5761205c611dd2565b5b600061206b84828501611e5b565b91505092915050565b61207d81611f5f565b811461208857600080fd5b50565b60008135905061209a81612074565b92915050565b6000602082840312156120b6576120b5611dd2565b5b60006120c48482850161208b565b91505092915050565b600080fd5b7f4e487b7100000000000000000000000000000000000000000000000000000000600052604160045260246000fd5b61210a82611fdb565b810181811067ffffffffffffffff82111715612129576121286120d2565b5b80604052505050565b600061213c611dc8565b90506121488282612101565b919050565b600067ffffffffffffffff821115612168576121676120d2565b5b602082029050602081019050919050565b600080fd5b600061219161218c8461214d565b612132565b905080838252602082019050602084028301858111156121b4576121b3612179565b5b835b818110156121dd57806121c98882611e5b565b8452602084019350506020810190506121b6565b5050509392505050565b600082601f8301126121fc576121fb6120cd565b5b813561220c84826020860161217e565b91505092915050565b600080fd5b600067ffffffffffffffff821115612235576122346120d2565b5b61223e82611fdb565b9050602081019050919050565b82818337600083830152505050565b600061226d6122688461221a565b612132565b90508281526020810184848401111561228957612288612215565b5b61229484828561224b565b509392505050565b600082601f8301126122b1576122b06120cd565b5b81356122c184826020860161225a565b91505092915050565b600080600080600060a086880312156122e6576122e5611dd2565b5b60006122f488828901611e25565b955050602061230588828901611e25565b945050604086013567ffffffffffffffff81111561232657612325611dd7565b5b612332888289016121e7565b935050606086013567ffffffffffffffff81111561235357612352611dd7565b5b61235f888289016121e7565b925050608086013567ffffffffffffffff8111156123805761237f611dd7565b5b61238c8882890161229c565b9150509295509295909350565b600067ffffffffffffffff8211156123b4576123b36120d2565b5b602082029050602081019050919050565b60006123d86123d384612399565b612132565b905080838252602082019050602084028301858111156123fb576123fa612179565b5b835b8181101561242457806124108882611e25565b8452602084019350506020810190506123fd565b5050509392505050565b600082601f830112612443576124426120cd565b5b81356124538482602086016123c5565b91505092915050565b6000806040838503121561247357612472611dd2565b5b600083013567ffffffffffffffff81111561249157612490611dd7565b5b61249d8582860161242e565b925050602083013567ffffffffffffffff8111156124be576124bd611dd7565b5b6124ca858286016121e7565b9150509250929050565b600081519050919050565b600082825260208201905092915050565b6000819050602082019050919050565b61250981611e3a565b82525050565b600061251b8383612500565b60208301905092915050565b6000602082019050919050565b600061253f826124d4565b61254981856124df565b9350612554836124f0565b8060005b8381101561258557815161256c888261250f565b975061257783612527565b925050600181019050612558565b5085935050505092915050565b600060208201905081810360008301526125ac8184612534565b905092915050565b6125bd81611dfc565b82525050565b60006020820190506125d860008301846125b4565b92915050565b600080604083850312156125f5576125f4611dd2565b5b600061260385828601611e25565b92505060206126148582860161208b565b9150509250929050565b6000806040838503121561263557612634611dd2565b5b600061264385828601611e25565b925050602061265485828601611e25565b9150509250929050565b600080600080600060a0868803121561267a57612679611dd2565b5b600061268888828901611e25565b955050602061269988828901611e25565b94505060406126aa88828901611e5b565b93505060606126bb88828901611e5b565b925050608086013567ffffffffffffffff8111156126dc576126db611dd7565b5b6126e88882890161229c565b9150509295509295909350565b60006020828403121561270b5761270a611dd2565b5b600061271984828501611e25565b91505092915050565b7f455243313135353a2061646472657373207a65726f206973206e6f742061207660008201527f616c6964206f776e657200000000000000000000000000000000000000000000602082015250565b600061277e602a83611fa0565b915061278982612722565b604082019050919050565b600060208201905081810360008301526127ad81612771565b9050919050565b7f4e487b7100000000000000000000000000000000000000000000000000000000600052602260045260246000fd5b600060028204905060018216806127fb57607f821691505b60208210810361280e5761280d6127b4565b5b50919050565b7f455243313135353a2063616c6c6572206973206e6f7420746f6b656e206f776e60008201527f6572206f7220617070726f766564000000000000000000000000000000000000602082015250565b6000612870602e83611fa0565b915061287b82612814565b604082019050919050565b6000602082019050818103600083015261289f81612863565b9050919050565b600081905092915050565b50565b60006128c16000836128a6565b91506128cc826128b1565b600082019050919050565b60006128e2826128b4565b9150819050919050565b7f4661696c656420746f207472616e736665722066756e647320746f206f776e6560008201527f7200000000000000000000000000000000000000000000000000000000000000602082015250565b6000612948602183611fa0565b9150612953826128ec565b604082019050919050565b600060208201905081810360008301526129778161293b565b9050919050565b7f455243313135353a206163636f756e747320616e6420696473206c656e67746860008201527f206d69736d617463680000000000000000000000000000000000000000000000602082015250565b60006129da602983611fa0565b91506129e58261297e565b604082019050919050565b60006020820190508181036000830152612a09816129cd565b9050919050565b7f4e487b7100000000000000000000000000000000000000000000000000000000600052603260045260246000fd5b7f4e487b7100000000000000000000000000000000000000000000000000000000600052601160045260246000fd5b6000612a7982611e3a565b91507fffffffffffffffffffffffffffffffffffffffffffffffffffffffffffffffff8203612aab57612aaa612a3f565b5b600182019050919050565b7f496e76616c6964206d696e7420616d6f756e7421000000000000000000000000600082015250565b6000612aec601483611fa0565b9150612af782612ab6565b602082019050919050565b60006020820190508181036000830152612b1b81612adf565b9050919050565b6000612b2d82611e3a565b9150612b3883611e3a565b9250828201905080821115612b5057612b4f612a3f565b5b92915050565b7f4d617820737570706c7920657863656564656421000000000000000000000000600082015250565b6000612b8c601483611fa0565b9150612b9782612b56565b602082019050919050565b60006020820190508181036000830152612bbb81612b7f565b9050919050565b7f54686520636f6e74726163742069732070617573656421000000000000000000600082015250565b6000612bf8601783611fa0565b9150612c0382612bc2565b602082019050919050565b60006020820190508181036000830152612c2781612beb565b9050919050565b6000612c3982611e3a565b9150612c4483611e3a565b9250828202612c5281611e3a565b91508282048414831517612c6957612c68612a3f565b5b5092915050565b7f496e73756666696369656e742066756e64732100000000000000000000000000600082015250565b6000612ca6601383611fa0565b9150612cb182612c70565b602082019050919050565b60006020820190508181036000830152612cd581612c99565b9050919050565b7f4f776e61626c653a206e6577206f776e657220697320746865207a65726f206160008201527f6464726573730000000000000000000000000000000000000000000000000000602082015250565b6000612d38602683611fa0565b9150612d4382612cdc565b604082019050919050565b60006020820190508181036000830152612d6781612d2b565b9050919050565b7f4f776e61626c653a2063616c6c6572206973206e6f7420746865206f776e6572600082015250565b6000612da4602083611fa0565b9150612daf82612d6e565b602082019050919050565b60006020820190508181036000830152612dd381612d97565b9050919050565b7f455243313135353a2069647320616e6420616d6f756e7473206c656e6774682060008201527f6d69736d61746368000000000000000000000000000000000000000000000000602082015250565b6000612e36602883611fa0565b9150612e4182612dda565b604082019050919050565b60006020820190508181036000830152612e6581612e29565b9050919050565b7f455243313135353a207472616e7366657220746f20746865207a65726f20616460008201527f6472657373000000000000000000000000000000000000000000000000000000602082015250565b6000612ec8602583611fa0565b9150612ed382612e6c565b604082019050919050565b60006020820190508181036000830152612ef781612ebb565b9050919050565b7f455243313135353a20696e73756666696369656e742062616c616e636520666f60008201527f72207472616e7366657200000000000000000000000000000000000000000000602082015250565b6000612f5a602a83611fa0565b9150612f6582612efe565b604082019050919050565b60006020820190508181036000830152612f8981612f4d565b9050919050565b60006040820190508181036000830152612faa8185612534565b90508181036020830152612fbe8184612534565b90509392505050565b7f455243313135353a206d696e7420746f20746865207a65726f2061646472657360008201527f7300000000000000000000000000000000000000000000000000000000000000602082015250565b6000613023602183611fa0565b915061302e82612fc7565b604082019050919050565b6000602082019050818103600083015261305281613016565b9050919050565b600060408201905061306e6000830185611eb0565b61307b6020830184611eb0565b9392505050565b7f455243313135353a2073657474696e6720617070726f76616c2073746174757360008201527f20666f722073656c660000000000000000000000000000000000000000000000602082015250565b60006130de602983611fa0565b91506130e982613082565b604082019050919050565b6000602082019050818103600083015261310d816130d1565b9050919050565b600081519050919050565b600082825260208201905092915050565b600061313b82613114565b613145818561311f565b9350613155818560208601611fb1565b61315e81611fdb565b840191505092915050565b600060a08201905061317e60008301886125b4565b61318b60208301876125b4565b818103604083015261319d8186612534565b905081810360608301526131b18185612534565b905081810360808301526131c58184613130565b90509695505050505050565b6000815190506131e081611f06565b92915050565b6000602082840312156131fc576131fb611dd2565b5b600061320a848285016131d1565b91505092915050565b60008160e01c9050919050565b600060033d111561323f5760046000803e61323c600051613213565b90505b90565b600060443d106132cf57613254611dc8565b60043d036004823e80513d602482011167ffffffffffffffff8211171561327c5750506132cf565b808201805167ffffffffffffffff81111561329a57505050506132cf565b80602083010160043d0385018111156132b75750505050506132cf565b6132c682602001850186612101565b82955050505050505b90565b7f455243313135353a207472616e7366657220746f206e6f6e2d4552433131353560008201527f526563656976657220696d706c656d656e746572000000000000000000000000602082015250565b600061332e603483611fa0565b9150613339826132d2565b604082019050919050565b6000602082019050818103600083015261335d81613321565b9050919050565b7f455243313135353a204552433131353552656365697665722072656a6563746560008201527f6420746f6b656e73000000000000000000000000000000000000000000000000602082015250565b60006133c0602883611fa0565b91506133cb82613364565b604082019050919050565b600060208201905081810360008301526133ef816133b3565b9050919050565b600060a08201905061340b60008301886125b4565b61341860208301876125b4565b6134256040830186611eb0565b6134326060830185611eb0565b81810360808301526134448184613130565b9050969550505050505056fea2646970667358221220279a2635e86b22e3702170b3be991d7d7f55882235ff08362c92c338df1257c264736f6c63430008110033",
  "linkReferences": {},
  "deployedLinkReferences": {}
}