{
  "_format": "hh-sol-artifact-1",
  "contractName": "SFT",
  "sourceName": "contracts/mintSFT.sol",
  "abi": [
    {
      "inputs": [
        {
          "internalType": "string",
          "name": "uri",
          "type": "string"
        }
      ],
      "stateMutability": "nonpayable",
      "type": "constructor"
    },
    {
      "anonymous": false,
      "inputs": [
        {
          "indexed": true,
          "internalType": "address",
          "name": "account",
          "type": "address"
        },
        {
          "indexed": true,
          "internalType": "address",
          "name": "operator",
          "type": "address"
        },
        {
          "indexed": false,
          "internalType": "bool",
          "name": "approved",
          "type": "bool"
        }
      ],
      "name": "ApprovalForAll",
      "type": "event"
    },
    {
      "anonymous": false,
      "inputs": [
        {
          "indexed": true,
          "internalType": "address",
          "name": "previousOwner",
          "type": "address"
        },
        {
          "indexed": true,
          "internalType": "address",
          "name": "newOwner",
          "type": "address"
        }
      ],
      "name": "OwnershipTransferred",
      "type": "event"
    },
    {
      "anonymous": false,
      "inputs": [
        {
          "indexed": true,
          "internalType": "address",
          "name": "operator",
          "type": "address"
        },
        {
          "indexed": true,
          "internalType": "address",
          "name": "from",
          "type": "address"
        },
        {
          "indexed": true,
          "internalType": "address",
          "name": "to",
          "type": "address"
        },
        {
          "indexed": false,
          "internalType": "uint256[]",
          "name": "ids",
          "type": "uint256[]"
        },
        {
          "indexed": false,
          "internalType": "uint256[]",
          "name": "values",
          "type": "uint256[]"
        }
      ],
      "name": "TransferBatch",
      "type": "event"
    },
    {
      "anonymous": false,
      "inputs": [
        {
          "indexed": true,
          "internalType": "address",
          "name": "operator",
          "type": "address"
        },
        {
          "indexed": true,
          "internalType": "address",
          "name": "from",
          "type": "address"
        },
        {
          "indexed": true,
          "internalType": "address",
          "name": "to",
          "type": "address"
        },
        {
          "indexed": false,
          "internalType": "uint256",
          "name": "id",
          "type": "uint256"
        },
        {
          "indexed": false,
          "internalType": "uint256",
          "name": "value",
          "type": "uint256"
        }
      ],
      "name": "TransferSingle",
      "type": "event"
    },
    {
      "anonymous": false,
      "inputs": [
        {
          "indexed": false,
          "internalType": "string",
          "name": "value",
          "type": "string"
        },
        {
          "indexed": true,
          "internalType": "uint256",
          "name": "id",
          "type": "uint256"
        }
      ],
      "name": "URI",
      "type": "event"
    },
    {
      "inputs": [],
      "name": "ID",
      "outputs": [
        {
          "internalType": "uint256",
          "name": "",
          "type": "uint256"
        }
      ],
      "stateMutability": "view",
      "type": "function"
    },
    {
      "inputs": [
        {
          "internalType": "address",
          "name": "account",
          "type": "address"
        },
        {
          "internalType": "uint256",
          "name": "id",
          "type": "uint256"
        }
      ],
      "name": "balanceOf",
      "outputs": [
        {
          "internalType": "uint256",
          "name": "",
          "type": "uint256"
        }
      ],
      "stateMutability": "view",
      "type": "function"
    },
    {
      "inputs": [
        {
          "internalType": "address[]",
          "name": "accounts",
          "type": "address[]"
        },
        {
          "internalType": "uint256[]",
          "name": "ids",
          "type": "uint256[]"
        }
      ],
      "name": "balanceOfBatch",
      "outputs": [
        {
          "internalType": "uint256[]",
          "name": "",
          "type": "uint256[]"
        }
      ],
      "stateMutability": "view",
      "type": "function"
    },
    {
      "inputs": [],
      "name": "cost",
      "outputs": [
        {
          "internalType": "uint256",
          "name": "",
          "type": "uint256"
        }
      ],
      "stateMutability": "view",
      "type": "function"
    },
    {
      "inputs": [
        {
          "internalType": "address",
          "name": "account",
          "type": "address"
        },
        {
          "internalType": "address",
          "name": "operator",
          "type": "address"
        }
      ],
      "name": "isApprovedForAll",
      "outputs": [
        {
          "internalType": "bool",
          "name": "",
          "type": "bool"
        }
      ],
      "stateMutability": "view",
      "type": "function"
    },
    {
      "inputs": [],
      "name": "maxMintAmountPerTx",
      "outputs": [
        {
          "internalType": "uint256",
          "name": "",
          "type": "uint256"
        }
      ],
      "stateMutability": "view",
      "type": "function"
    },
    {
      "inputs": [],
      "name": "maxSupply",
      "outputs": [
        {
          "internalType": "uint256",
          "name": "",
          "type": "uint256"
        }
      ],
      "stateMutability": "view",
      "type": "function"
    },
    {
      "inputs": [
        {
          "internalType": "uint256",
          "name": "_mintAmount",
          "type": "uint256"
        }
      ],
      "name": "mint",
      "outputs": [],
      "stateMutability": "payable",
      "type": "function"
    },
    {
      "inputs": [
        {
          "internalType": "uint256",
          "name": "_mintAmount",
          "type": "uint256"
        },
        {
          "internalType": "address",
          "name": "_receiver",
          "type": "address"
        }
      ],
      "name": "mintForAddress",
      "outputs": [],
      "stateMutability": "nonpayable",
      "type": "function"
    },
    {
      "inputs": [],
      "name": "name",
      "outputs": [
        {
          "internalType": "string",
          "name": "",
          "type": "string"
        }
      ],
      "stateMutability": "pure",
      "type": "function"
    },
    {
      "inputs": [],
      "name": "owner",
      "outputs": [
        {
          "internalType": "address",
          "name": "",
          "type": "address"
        }
      ],
      "stateMutability": "view",
      "type": "function"
    },
    {
      "inputs": [],
      "name": "paused",
      "outputs": [
        {
          "internalType": "bool",
          "name": "",
          "type": "bool"
        }
      ],
      "stateMutability": "view",
      "type": "function"
    },
    {
      "inputs": [],
      "name": "renounceOwnership",
      "outputs": [],
      "stateMutability": "nonpayable",
      "type": "function"
    },
    {
      "inputs": [
        {
          "internalType": "address",
          "name": "from",
          "type": "address"
        },
        {
          "internalType": "address",
          "name": "to",
          "type": "address"
        },
        {
          "internalType": "uint256[]",
          "name": "ids",
          "type": "uint256[]"
        },
        {
          "internalType": "uint256[]",
          "name": "amounts",
          "type": "uint256[]"
        },
        {
          "internalType": "bytes",
          "name": "data",
          "type": "bytes"
        }
      ],
      "name": "safeBatchTransferFrom",
      "outputs": [],
      "stateMutability": "nonpayable",
      "type": "function"
    },
    {
      "inputs": [
        {
          "internalType": "address",
          "name": "from",
          "type": "address"
        },
        {
          "internalType": "address",
          "name": "to",
          "type": "address"
        },
        {
          "internalType": "uint256",
          "name": "id",
          "type": "uint256"
        },
        {
          "internalType": "uint256",
          "name": "amount",
          "type": "uint256"
        },
        {
          "internalType": "bytes",
          "name": "data",
          "type": "bytes"
        }
      ],
      "name": "safeTransferFrom",
      "outputs": [],
      "stateMutability": "nonpayable",
      "type": "function"
    },
    {
      "inputs": [
        {
          "internalType": "address",
          "name": "operator",
          "type": "address"
        },
        {
          "internalType": "bool",
          "name": "approved",
          "type": "bool"
        }
      ],
      "name": "setApprovalForAll",
      "outputs": [],
      "stateMutability": "nonpayable",
      "type": "function"
    },
    {
      "inputs": [
        {
          "internalType": "uint256",
          "name": "_cost",
          "type": "uint256"
        }
      ],
      "name": "setCost",
      "outputs": [],
      "stateMutability": "nonpayable",
      "type": "function"
    },
    {
      "inputs": [
        {
          "internalType": "uint256",
          "name": "_maxMintAmountPerTx",
          "type": "uint256"
        }
      ],
      "name": "setMaxMintAmountPerTx",
      "outputs": [],
      "stateMutability": "nonpayable",
      "type": "function"
    },
    {
      "inputs": [
        {
          "internalType": "bool",
          "name": "_state",
          "type": "bool"
        }
      ],
      "name": "setPaused",
      "outputs": [],
      "stateMutability": "nonpayable",
      "type": "function"
    },
    {
      "inputs": [
        {
          "internalType": "bytes4",
          "name": "interfaceId",
          "type": "bytes4"
        }
      ],
      "name": "supportsInterface",
      "outputs": [
        {
          "internalType": "bool",
          "name": "",
          "type": "bool"
        }
      ],
      "stateMutability": "view",
      "type": "function"
    },
    {
      "inputs": [],
      "name": "symbol",
      "outputs": [
        {
          "internalType": "string",
          "name": "",
          "type": "string"
        }
      ],
      "stateMutability": "pure",
      "type": "function"
    },
    {
      "inputs": [],
      "name": "totalSupply",
      "outputs": [
        {
          "internalType": "uint256",
          "name": "",
          "type": "uint256"
        }
      ],
      "stateMutability": "view",
      "type": "function"
    },
    {
      "inputs": [
        {
          "internalType": "address",
          "name": "newOwner",
          "type": "address"
        }
      ],
      "name": "transferOwnership",
      "outputs": [],
      "stateMutability": "nonpayable",
      "type": "function"
    },
    {
      "inputs": [
        {
          "internalType": "uint256",
          "name": "",
          "type": "uint256"
        }
      ],
      "name": "uri",
      "outputs": [
        {
          "internalType": "string",
          "name": "",
          "type": "string"
        }
      ],
      "stateMutability": "view",
      "type": "function"
    },
    {
      "inputs": [],
      "name": "withdraw",
      "outputs": [],
      "stateMutability": "nonpayable",
      "type": "function"
    }
  ],
  "bytecode": "0x6080604052662386f26fc100006005556109c460065560056007556001600860006101000a81548160ff0219169083151502179055503480156200004257600080fd5b5060405162003b8738038062003b87833981810160405281019062000068919062000318565b806200007a81620000a260201b60201c565b506200009b6200008f620000b760201b60201c565b620000bf60201b60201c565b506200069b565b8060029081620000b39190620005b4565b5050565b600033905090565b6000600360009054906101000a900473ffffffffffffffffffffffffffffffffffffffff16905081600360006101000a81548173ffffffffffffffffffffffffffffffffffffffff021916908373ffffffffffffffffffffffffffffffffffffffff1602179055508173ffffffffffffffffffffffffffffffffffffffff168173ffffffffffffffffffffffffffffffffffffffff167f8be0079c531659141344cd1fd0a4f28419497f9722a3daafe3b4186f6b6457e060405160405180910390a35050565b6000604051905090565b600080fd5b600080fd5b600080fd5b600080fd5b6000601f19601f8301169050919050565b7f4e487b7100000000000000000000000000000000000000000000000000000000600052604160045260246000fd5b620001ee82620001a3565b810181811067ffffffffffffffff8211171562000210576200020f620001b4565b5b80604052505050565b60006200022562000185565b9050620002338282620001e3565b919050565b600067ffffffffffffffff821115620002565762000255620001b4565b5b6200026182620001a3565b9050602081019050919050565b60005b838110156200028e57808201518184015260208101905062000271565b60008484015250505050565b6000620002b1620002ab8462000238565b62000219565b905082815260208101848484011115620002d057620002cf6200019e565b5b620002dd8482856200026e565b509392505050565b600082601f830112620002fd57620002fc62000199565b5b81516200030f8482602086016200029a565b91505092915050565b6000602082840312156200033157620003306200018f565b5b600082015167ffffffffffffffff81111562000352576200035162000194565b5b6200036084828501620002e5565b91505092915050565b600081519050919050565b7f4e487b7100000000000000000000000000000000000000000000000000000000600052602260045260246000fd5b60006002820490506001821680620003bc57607f821691505b602082108103620003d257620003d162000374565b5b50919050565b60008190508160005260206000209050919050565b60006020601f8301049050919050565b600082821b905092915050565b6000600883026200043c7fffffffffffffffffffffffffffffffffffffffffffffffffffffffffffffffff82620003fd565b620004488683620003fd565b95508019841693508086168417925050509392505050565b6000819050919050565b6000819050919050565b6000620004956200048f620004898462000460565b6200046a565b62000460565b9050919050565b6000819050919050565b620004b18362000474565b620004c9620004c0826200049c565b8484546200040a565b825550505050565b600090565b620004e0620004d1565b620004ed818484620004a6565b505050565b5b81811015620005155762000509600082620004d6565b600181019050620004f3565b5050565b601f82111562000564576200052e81620003d8565b6200053984620003ed565b8101602085101562000549578190505b620005616200055885620003ed565b830182620004f2565b50505b505050565b600082821c905092915050565b6000620005896000198460080262000569565b1980831691505092915050565b6000620005a4838362000576565b9150826002028217905092915050565b620005bf8262000369565b67ffffffffffffffff811115620005db57620005da620001b4565b5b620005e78254620003a3565b620005f482828562000519565b600060209050601f8311600181146200062c576000841562000617578287015190505b62000623858262000596565b86555062000693565b601f1984166200063c86620003d8565b60005b8281101562000666578489015182556001820191506020850194506020810190506200063f565b8683101562000686578489015162000682601f89168262000576565b8355505b6001600288020188555050505b505050505050565b6134dc80620006ab6000396000f3fe6080604052600436106101655760003560e01c8063715018a6116100d1578063b071401b1161008a578063e985e9c511610064578063e985e9c5146104f8578063efbd73f414610535578063f242432a1461055e578063f2fde38b1461058757610165565b8063b071401b14610479578063b3cea217146104a2578063d5abeb01146104cd57610165565b8063715018a61461039c5780638da5cb5b146103b357806394354fd0146103de57806395d89b4114610409578063a0712d6814610434578063a22cb4651461045057610165565b806318160ddd1161012357806318160ddd146102a05780632eb2c2d6146102cb5780633ccfd60b146102f457806344a0d68a1461030b5780634e1273f4146103345780635c975abb1461037157610165565b8062fdd58e1461016a57806301ffc9a7146101a757806306fdde03146101e45780630e89341c1461020f57806313faede61461024c57806316c38b3c14610277575b600080fd5b34801561017657600080fd5b50610191600480360381019061018c9190611f18565b6105b0565b60405161019e9190611f67565b60405180910390f35b3480156101b357600080fd5b506101ce60048036038101906101c99190611fda565b610678565b6040516101db9190612022565b60405180910390f35b3480156101f057600080fd5b506101f961075a565b60405161020691906120cd565b60405180910390f35b34801561021b57600080fd5b50610236600480360381019061023191906120ef565b610797565b60405161024391906120cd565b60405180910390f35b34801561025857600080fd5b5061026161082b565b60405161026e9190611f67565b60405180910390f35b34801561028357600080fd5b5061029e60048036038101906102999190612148565b610831565b005b3480156102ac57600080fd5b506102b5610856565b6040516102c29190611f67565b60405180910390f35b3480156102d757600080fd5b506102f260048036038101906102ed9190612372565b610867565b005b34801561030057600080fd5b50610309610908565b005b34801561031757600080fd5b50610332600480360381019061032d91906120ef565b610990565b005b34801561034057600080fd5b5061035b60048036038101906103569190612504565b6109a2565b604051610368919061263a565b60405180910390f35b34801561037d57600080fd5b50610386610abb565b6040516103939190612022565b60405180910390f35b3480156103a857600080fd5b506103b1610ace565b005b3480156103bf57600080fd5b506103c8610ae2565b6040516103d5919061266b565b60405180910390f35b3480156103ea57600080fd5b506103f3610b0c565b6040516104009190611f67565b60405180910390f35b34801561041557600080fd5b5061041e610b12565b60405161042b91906120cd565b60405180910390f35b61044e600480360381019061044991906120ef565b610b4f565b005b34801561045c57600080fd5b5061047760048036038101906104729190612686565b610cba565b005b34801561048557600080fd5b506104a0600480360381019061049b91906120ef565b610cd0565b005b3480156104ae57600080fd5b506104b7610ce2565b6040516104c49190611f67565b60405180910390f35b3480156104d957600080fd5b506104e2610ce7565b6040516104ef9190611f67565b60405180910390f35b34801561050457600080fd5b5061051f600480360381019061051a91906126c6565b610ced565b60405161052c9190612022565b60405180910390f35b34801561054157600080fd5b5061055c60048036038101906105579190612706565b610d81565b005b34801561056a57600080fd5b5061058560048036038101906105809190612746565b610e55565b005b34801561059357600080fd5b506105ae60048036038101906105a991906127dd565b610ef6565b005b60008073ffffffffffffffffffffffffffffffffffffffff168373ffffffffffffffffffffffffffffffffffffffff1603610620576040517f08c379a00000000000000000000000000000000000000000000000000000000081526004016106179061287c565b60405180910390fd5b60008083815260200190815260200160002060008473ffffffffffffffffffffffffffffffffffffffff1673ffffffffffffffffffffffffffffffffffffffff16815260200190815260200160002054905092915050565b60007fd9b67a26000000000000000000000000000000000000000000000000000000007bffffffffffffffffffffffffffffffffffffffffffffffffffffffff1916827bffffffffffffffffffffffffffffffffffffffffffffffffffffffff1916148061074357507f0e89341c000000000000000000000000000000000000000000000000000000007bffffffffffffffffffffffffffffffffffffffffffffffffffffffff1916827bffffffffffffffffffffffffffffffffffffffffffffffffffffffff1916145b80610753575061075282610f79565b5b9050919050565b60606040518060400160405280600581526020017f4f62616b65000000000000000000000000000000000000000000000000000000815250905090565b6060600280546107a6906128cb565b80601f01602080910402602001604051908101604052809291908181526020018280546107d2906128cb565b801561081f5780601f106107f45761010080835404028352916020019161081f565b820191906000526020600020905b81548152906001019060200180831161080257829003601f168201915b50505050509050919050565b60055481565b610839610fe3565b80600860006101000a81548160ff02191690831515021790555050565b60006108626004611061565b905090565b61086f61106f565b73ffffffffffffffffffffffffffffffffffffffff168573ffffffffffffffffffffffffffffffffffffffff1614806108b557506108b4856108af61106f565b610ced565b5b6108f4576040517f08c379a00000000000000000000000000000000000000000000000000000000081526004016108eb9061296e565b60405180910390fd5b6109018585858585611077565b5050505050565b610910610fe3565b600061091a610ae2565b73ffffffffffffffffffffffffffffffffffffffff164760405161093d906129bf565b60006040518083038185875af1925050503d806000811461097a576040519150601f19603f3d011682016040523d82523d6000602084013e61097f565b606091505b505090508061098d57600080fd5b50565b610998610fe3565b8060058190555050565b606081518351146109e8576040517f08c379a00000000000000000000000000000000000000000000000000000000081526004016109df90612a46565b60405180910390fd5b6000835167ffffffffffffffff811115610a0557610a0461217a565b5b604051908082528060200260200182016040528015610a335781602001602082028036833780820191505090505b50905060005b8451811015610ab057610a80858281518110610a5857610a57612a66565b5b6020026020010151858381518110610a7357610a72612a66565b5b60200260200101516105b0565b828281518110610a9357610a92612a66565b5b60200260200101818152505080610aa990612ac4565b9050610a39565b508091505092915050565b600860009054906101000a900460ff1681565b610ad6610fe3565b610ae06000611398565b565b6000600360009054906101000a900473ffffffffffffffffffffffffffffffffffffffff16905090565b60075481565b60606040518060400160405280600381526020017f4f424b0000000000000000000000000000000000000000000000000000000000815250905090565b80600081118015610b6257506007548111155b610ba1576040517f08c379a0000000000000000000000000000000000000000000000000000000008152600401610b9890612b58565b60405180910390fd5b60065481610baf6004611061565b610bb99190612b78565b1115610bfa576040517f08c379a0000000000000000000000000000000000000000000000000000000008152600401610bf190612bf8565b60405180910390fd5b600860009054906101000a900460ff1615610c4a576040517f08c379a0000000000000000000000000000000000000000000000000000000008152600401610c4190612c64565b60405180910390fd5b81600554610c589190612c84565b341015610c9a576040517f08c379a0000000000000000000000000000000000000000000000000000000008152600401610c9190612d12565b60405180910390fd5b610cb6336000846040518060200160405280600081525061145e565b5050565b610ccc610cc561106f565b838361160e565b5050565b610cd8610fe3565b8060078190555050565b600081565b60065481565b6000600160008473ffffffffffffffffffffffffffffffffffffffff1673ffffffffffffffffffffffffffffffffffffffff16815260200190815260200160002060008373ffffffffffffffffffffffffffffffffffffffff1673ffffffffffffffffffffffffffffffffffffffff16815260200190815260200160002060009054906101000a900460ff16905092915050565b81600081118015610d9457506007548111155b610dd3576040517f08c379a0000000000000000000000000000000000000000000000000000000008152600401610dca90612b58565b60405180910390fd5b60065481610de16004611061565b610deb9190612b78565b1115610e2c576040517f08c379a0000000000000000000000000000000000000000000000000000000008152600401610e2390612bf8565b60405180910390fd5b610e34610fe3565b610e50826000856040518060200160405280600081525061145e565b505050565b610e5d61106f565b73ffffffffffffffffffffffffffffffffffffffff168573ffffffffffffffffffffffffffffffffffffffff161480610ea35750610ea285610e9d61106f565b610ced565b5b610ee2576040517f08c379a0000000000000000000000000000000000000000000000000000000008152600401610ed99061296e565b60405180910390fd5b610eef858585858561177a565b5050505050565b610efe610fe3565b600073ffffffffffffffffffffffffffffffffffffffff168173ffffffffffffffffffffffffffffffffffffffff1603610f6d576040517f08c379a0000000000000000000000000000000000000000000000000000000008152600401610f6490612da4565b60405180910390fd5b610f7681611398565b50565b60007f01ffc9a7000000000000000000000000000000000000000000000000000000007bffffffffffffffffffffffffffffffffffffffffffffffffffffffff1916827bffffffffffffffffffffffffffffffffffffffffffffffffffffffff1916149050919050565b610feb61106f565b73ffffffffffffffffffffffffffffffffffffffff16611009610ae2565b73ffffffffffffffffffffffffffffffffffffffff161461105f576040517f08c379a000000000000000000000000000000000000000000000000000000000815260040161105690612e10565b60405180910390fd5b565b600081600001549050919050565b600033905090565b81518351146110bb576040517f08c379a00000000000000000000000000000000000000000000000000000000081526004016110b290612ea2565b60405180910390fd5b600073ffffffffffffffffffffffffffffffffffffffff168473ffffffffffffffffffffffffffffffffffffffff160361112a576040517f08c379a000000000000000000000000000000000000000000000000000000000815260040161112190612f34565b60405180910390fd5b600061113461106f565b9050611144818787878787611a15565b60005b84518110156112f557600085828151811061116557611164612a66565b5b60200260200101519050600085838151811061118457611183612a66565b5b60200260200101519050600080600084815260200190815260200160002060008b73ffffffffffffffffffffffffffffffffffffffff1673ffffffffffffffffffffffffffffffffffffffff16815260200190815260200160002054905081811015611225576040517f08c379a000000000000000000000000000000000000000000000000000000000815260040161121c90612fc6565b60405180910390fd5b81810360008085815260200190815260200160002060008c73ffffffffffffffffffffffffffffffffffffffff1673ffffffffffffffffffffffffffffffffffffffff168152602001908152602001600020819055508160008085815260200190815260200160002060008b73ffffffffffffffffffffffffffffffffffffffff1673ffffffffffffffffffffffffffffffffffffffff16815260200190815260200160002060008282546112da9190612b78565b92505081905550505050806112ee90612ac4565b9050611147565b508473ffffffffffffffffffffffffffffffffffffffff168673ffffffffffffffffffffffffffffffffffffffff168273ffffffffffffffffffffffffffffffffffffffff167f4a39dc06d4c0dbc64b70af90fd698a233a518aa5d07e595d983b8c0526c8f7fb878760405161136c929190612fe6565b60405180910390a4611382818787878787611a1d565b611390818787878787611a25565b505050505050565b6000600360009054906101000a900473ffffffffffffffffffffffffffffffffffffffff16905081600360006101000a81548173ffffffffffffffffffffffffffffffffffffffff021916908373ffffffffffffffffffffffffffffffffffffffff1602179055508173ffffffffffffffffffffffffffffffffffffffff168173ffffffffffffffffffffffffffffffffffffffff167f8be0079c531659141344cd1fd0a4f28419497f9722a3daafe3b4186f6b6457e060405160405180910390a35050565b600073ffffffffffffffffffffffffffffffffffffffff168473ffffffffffffffffffffffffffffffffffffffff16036114cd576040517f08c379a00000000000000000000000000000000000000000000000000000000081526004016114c49061308f565b60405180910390fd5b60006114d761106f565b905060006114e485611bfc565b905060006114f185611bfc565b905061150283600089858589611a15565b8460008088815260200190815260200160002060008973ffffffffffffffffffffffffffffffffffffffff1673ffffffffffffffffffffffffffffffffffffffff16815260200190815260200160002060008282546115619190612b78565b925050819055508673ffffffffffffffffffffffffffffffffffffffff16600073ffffffffffffffffffffffffffffffffffffffff168473ffffffffffffffffffffffffffffffffffffffff167fc3d58168c5ae7397731d063d5bbf3d657854427343f4c083240f7aacaa2d0f6289896040516115df9291906130af565b60405180910390a46115f683600089858589611a1d565b61160583600089898989611c76565b50505050505050565b8173ffffffffffffffffffffffffffffffffffffffff168373ffffffffffffffffffffffffffffffffffffffff160361167c576040517f08c379a00000000000000000000000000000000000000000000000000000000081526004016116739061314a565b60405180910390fd5b80600160008573ffffffffffffffffffffffffffffffffffffffff1673ffffffffffffffffffffffffffffffffffffffff16815260200190815260200160002060008473ffffffffffffffffffffffffffffffffffffffff1673ffffffffffffffffffffffffffffffffffffffff16815260200190815260200160002060006101000a81548160ff0219169083151502179055508173ffffffffffffffffffffffffffffffffffffffff168373ffffffffffffffffffffffffffffffffffffffff167f17307eab39ab6107e8899845ad3d59bd9653f200f220920489ca2b5937696c318360405161176d9190612022565b60405180910390a3505050565b600073ffffffffffffffffffffffffffffffffffffffff168473ffffffffffffffffffffffffffffffffffffffff16036117e9576040517f08c379a00000000000000000000000000000000000000000000000000000000081526004016117e090612f34565b60405180910390fd5b60006117f361106f565b9050600061180085611bfc565b9050600061180d85611bfc565b905061181d838989858589611a15565b600080600088815260200190815260200160002060008a73ffffffffffffffffffffffffffffffffffffffff1673ffffffffffffffffffffffffffffffffffffffff168152602001908152602001600020549050858110156118b4576040517f08c379a00000000000000000000000000000000000000000000000000000000081526004016118ab90612fc6565b60405180910390fd5b85810360008089815260200190815260200160002060008b73ffffffffffffffffffffffffffffffffffffffff1673ffffffffffffffffffffffffffffffffffffffff168152602001908152602001600020819055508560008089815260200190815260200160002060008a73ffffffffffffffffffffffffffffffffffffffff1673ffffffffffffffffffffffffffffffffffffffff16815260200190815260200160002060008282546119699190612b78565b925050819055508773ffffffffffffffffffffffffffffffffffffffff168973ffffffffffffffffffffffffffffffffffffffff168573ffffffffffffffffffffffffffffffffffffffff167fc3d58168c5ae7397731d063d5bbf3d657854427343f4c083240f7aacaa2d0f628a8a6040516119e69291906130af565b60405180910390a46119fc848a8a86868a611a1d565b611a0a848a8a8a8a8a611c76565b505050505050505050565b505050505050565b505050505050565b611a448473ffffffffffffffffffffffffffffffffffffffff16611e4d565b15611bf4578373ffffffffffffffffffffffffffffffffffffffff1663bc197c8187878686866040518663ffffffff1660e01b8152600401611a8a9594939291906131bf565b6020604051808303816000875af1925050508015611ac657506040513d601f19601f82011682018060405250810190611ac3919061323c565b60015b611b6b57611ad2613276565b806308c379a003611b2e5750611ae6613298565b80611af15750611b30565b806040517f08c379a0000000000000000000000000000000000000000000000000000000008152600401611b2591906120cd565b60405180910390fd5b505b6040517f08c379a0000000000000000000000000000000000000000000000000000000008152600401611b629061339a565b60405180910390fd5b63bc197c8160e01b7bffffffffffffffffffffffffffffffffffffffffffffffffffffffff1916817bffffffffffffffffffffffffffffffffffffffffffffffffffffffff191614611bf2576040517f08c379a0000000000000000000000000000000000000000000000000000000008152600401611be99061342c565b60405180910390fd5b505b505050505050565b60606000600167ffffffffffffffff811115611c1b57611c1a61217a565b5b604051908082528060200260200182016040528015611c495781602001602082028036833780820191505090505b5090508281600081518110611c6157611c60612a66565b5b60200260200101818152505080915050919050565b611c958473ffffffffffffffffffffffffffffffffffffffff16611e4d565b15611e45578373ffffffffffffffffffffffffffffffffffffffff1663f23a6e6187878686866040518663ffffffff1660e01b8152600401611cdb95949392919061344c565b6020604051808303816000875af1925050508015611d1757506040513d601f19601f82011682018060405250810190611d14919061323c565b60015b611dbc57611d23613276565b806308c379a003611d7f5750611d37613298565b80611d425750611d81565b806040517f08c379a0000000000000000000000000000000000000000000000000000000008152600401611d7691906120cd565b60405180910390fd5b505b6040517f08c379a0000000000000000000000000000000000000000000000000000000008152600401611db39061339a565b60405180910390fd5b63f23a6e6160e01b7bffffffffffffffffffffffffffffffffffffffffffffffffffffffff1916817bffffffffffffffffffffffffffffffffffffffffffffffffffffffff191614611e43576040517f08c379a0000000000000000000000000000000000000000000000000000000008152600401611e3a9061342c565b60405180910390fd5b505b505050505050565b6000808273ffffffffffffffffffffffffffffffffffffffff163b119050919050565b6000604051905090565b600080fd5b600080fd5b600073ffffffffffffffffffffffffffffffffffffffff82169050919050565b6000611eaf82611e84565b9050919050565b611ebf81611ea4565b8114611eca57600080fd5b50565b600081359050611edc81611eb6565b92915050565b6000819050919050565b611ef581611ee2565b8114611f0057600080fd5b50565b600081359050611f1281611eec565b92915050565b60008060408385031215611f2f57611f2e611e7a565b5b6000611f3d85828601611ecd565b9250506020611f4e85828601611f03565b9150509250929050565b611f6181611ee2565b82525050565b6000602082019050611f7c6000830184611f58565b92915050565b60007fffffffff0000000000000000000000000000000000000000000000000000000082169050919050565b611fb781611f82565b8114611fc257600080fd5b50565b600081359050611fd481611fae565b92915050565b600060208284031215611ff057611fef611e7a565b5b6000611ffe84828501611fc5565b91505092915050565b60008115159050919050565b61201c81612007565b82525050565b60006020820190506120376000830184612013565b92915050565b600081519050919050565b600082825260208201905092915050565b60005b8381101561207757808201518184015260208101905061205c565b60008484015250505050565b6000601f19601f8301169050919050565b600061209f8261203d565b6120a98185612048565b93506120b9818560208601612059565b6120c281612083565b840191505092915050565b600060208201905081810360008301526120e78184612094565b905092915050565b60006020828403121561210557612104611e7a565b5b600061211384828501611f03565b91505092915050565b61212581612007565b811461213057600080fd5b50565b6000813590506121428161211c565b92915050565b60006020828403121561215e5761215d611e7a565b5b600061216c84828501612133565b91505092915050565b600080fd5b7f4e487b7100000000000000000000000000000000000000000000000000000000600052604160045260246000fd5b6121b282612083565b810181811067ffffffffffffffff821117156121d1576121d061217a565b5b80604052505050565b60006121e4611e70565b90506121f082826121a9565b919050565b600067ffffffffffffffff8211156122105761220f61217a565b5b602082029050602081019050919050565b600080fd5b6000612239612234846121f5565b6121da565b9050808382526020820190506020840283018581111561225c5761225b612221565b5b835b8181101561228557806122718882611f03565b84526020840193505060208101905061225e565b5050509392505050565b600082601f8301126122a4576122a3612175565b5b81356122b4848260208601612226565b91505092915050565b600080fd5b600067ffffffffffffffff8211156122dd576122dc61217a565b5b6122e682612083565b9050602081019050919050565b82818337600083830152505050565b6000612315612310846122c2565b6121da565b905082815260208101848484011115612331576123306122bd565b5b61233c8482856122f3565b509392505050565b600082601f83011261235957612358612175565b5b8135612369848260208601612302565b91505092915050565b600080600080600060a0868803121561238e5761238d611e7a565b5b600061239c88828901611ecd565b95505060206123ad88828901611ecd565b945050604086013567ffffffffffffffff8111156123ce576123cd611e7f565b5b6123da8882890161228f565b935050606086013567ffffffffffffffff8111156123fb576123fa611e7f565b5b6124078882890161228f565b925050608086013567ffffffffffffffff81111561242857612427611e7f565b5b61243488828901612344565b9150509295509295909350565b600067ffffffffffffffff82111561245c5761245b61217a565b5b602082029050602081019050919050565b600061248061247b84612441565b6121da565b905080838252602082019050602084028301858111156124a3576124a2612221565b5b835b818110156124cc57806124b88882611ecd565b8452602084019350506020810190506124a5565b5050509392505050565b600082601f8301126124eb576124ea612175565b5b81356124fb84826020860161246d565b91505092915050565b6000806040838503121561251b5761251a611e7a565b5b600083013567ffffffffffffffff81111561253957612538611e7f565b5b612545858286016124d6565b925050602083013567ffffffffffffffff81111561256657612565611e7f565b5b6125728582860161228f565b9150509250929050565b600081519050919050565b600082825260208201905092915050565b6000819050602082019050919050565b6125b181611ee2565b82525050565b60006125c383836125a8565b60208301905092915050565b6000602082019050919050565b60006125e78261257c565b6125f18185612587565b93506125fc83612598565b8060005b8381101561262d57815161261488826125b7565b975061261f836125cf565b925050600181019050612600565b5085935050505092915050565b6000602082019050818103600083015261265481846125dc565b905092915050565b61266581611ea4565b82525050565b6000602082019050612680600083018461265c565b92915050565b6000806040838503121561269d5761269c611e7a565b5b60006126ab85828601611ecd565b92505060206126bc85828601612133565b9150509250929050565b600080604083850312156126dd576126dc611e7a565b5b60006126eb85828601611ecd565b92505060206126fc85828601611ecd565b9150509250929050565b6000806040838503121561271d5761271c611e7a565b5b600061272b85828601611f03565b925050602061273c85828601611ecd565b9150509250929050565b600080600080600060a0868803121561276257612761611e7a565b5b600061277088828901611ecd565b955050602061278188828901611ecd565b945050604061279288828901611f03565b93505060606127a388828901611f03565b925050608086013567ffffffffffffffff8111156127c4576127c3611e7f565b5b6127d088828901612344565b9150509295509295909350565b6000602082840312156127f3576127f2611e7a565b5b600061280184828501611ecd565b91505092915050565b7f455243313135353a2061646472657373207a65726f206973206e6f742061207660008201527f616c6964206f776e657200000000000000000000000000000000000000000000602082015250565b6000612866602a83612048565b91506128718261280a565b604082019050919050565b6000602082019050818103600083015261289581612859565b9050919050565b7f4e487b7100000000000000000000000000000000000000000000000000000000600052602260045260246000fd5b600060028204905060018216806128e357607f821691505b6020821081036128f6576128f561289c565b5b50919050565b7f455243313135353a2063616c6c6572206973206e6f7420746f6b656e206f776e60008201527f6572206f7220617070726f766564000000000000000000000000000000000000602082015250565b6000612958602e83612048565b9150612963826128fc565b604082019050919050565b600060208201905081810360008301526129878161294b565b9050919050565b600081905092915050565b50565b60006129a960008361298e565b91506129b482612999565b600082019050919050565b60006129ca8261299c565b9150819050919050565b7f455243313135353a206163636f756e747320616e6420696473206c656e67746860008201527f206d69736d617463680000000000000000000000000000000000000000000000602082015250565b6000612a30602983612048565b9150612a3b826129d4565b604082019050919050565b60006020820190508181036000830152612a5f81612a23565b9050919050565b7f4e487b7100000000000000000000000000000000000000000000000000000000600052603260045260246000fd5b7f4e487b7100000000000000000000000000000000000000000000000000000000600052601160045260246000fd5b6000612acf82611ee2565b91507fffffffffffffffffffffffffffffffffffffffffffffffffffffffffffffffff8203612b0157612b00612a95565b5b600182019050919050565b7f496e76616c6964206d696e7420616d6f756e7421000000000000000000000000600082015250565b6000612b42601483612048565b9150612b4d82612b0c565b602082019050919050565b60006020820190508181036000830152612b7181612b35565b9050919050565b6000612b8382611ee2565b9150612b8e83611ee2565b9250828201905080821115612ba657612ba5612a95565b5b92915050565b7f4d617820737570706c7920657863656564656421000000000000000000000000600082015250565b6000612be2601483612048565b9150612bed82612bac565b602082019050919050565b60006020820190508181036000830152612c1181612bd5565b9050919050565b7f54686520636f6e74726163742069732070617573656421000000000000000000600082015250565b6000612c4e601783612048565b9150612c5982612c18565b602082019050919050565b60006020820190508181036000830152612c7d81612c41565b9050919050565b6000612c8f82611ee2565b9150612c9a83611ee2565b9250828202612ca881611ee2565b91508282048414831517612cbf57612cbe612a95565b5b5092915050565b7f496e73756666696369656e742066756e64732100000000000000000000000000600082015250565b6000612cfc601383612048565b9150612d0782612cc6565b602082019050919050565b60006020820190508181036000830152612d2b81612cef565b9050919050565b7f4f776e61626c653a206e6577206f776e657220697320746865207a65726f206160008201527f6464726573730000000000000000000000000000000000000000000000000000602082015250565b6000612d8e602683612048565b9150612d9982612d32565b604082019050919050565b60006020820190508181036000830152612dbd81612d81565b9050919050565b7f4f776e61626c653a2063616c6c6572206973206e6f7420746865206f776e6572600082015250565b6000612dfa602083612048565b9150612e0582612dc4565b602082019050919050565b60006020820190508181036000830152612e2981612ded565b9050919050565b7f455243313135353a2069647320616e6420616d6f756e7473206c656e6774682060008201527f6d69736d61746368000000000000000000000000000000000000000000000000602082015250565b6000612e8c602883612048565b9150612e9782612e30565b604082019050919050565b60006020820190508181036000830152612ebb81612e7f565b9050919050565b7f455243313135353a207472616e7366657220746f20746865207a65726f20616460008201527f6472657373000000000000000000000000000000000000000000000000000000602082015250565b6000612f1e602583612048565b9150612f2982612ec2565b604082019050919050565b60006020820190508181036000830152612f4d81612f11565b9050919050565b7f455243313135353a20696e73756666696369656e742062616c616e636520666f60008201527f72207472616e7366657200000000000000000000000000000000000000000000602082015250565b6000612fb0602a83612048565b9150612fbb82612f54565b604082019050919050565b60006020820190508181036000830152612fdf81612fa3565b9050919050565b6000604082019050818103600083015261300081856125dc565b9050818103602083015261301481846125dc565b90509392505050565b7f455243313135353a206d696e7420746f20746865207a65726f2061646472657360008201527f7300000000000000000000000000000000000000000000000000000000000000602082015250565b6000613079602183612048565b91506130848261301d565b604082019050919050565b600060208201905081810360008301526130a88161306c565b9050919050565b60006040820190506130c46000830185611f58565b6130d16020830184611f58565b9392505050565b7f455243313135353a2073657474696e6720617070726f76616c2073746174757360008201527f20666f722073656c660000000000000000000000000000000000000000000000602082015250565b6000613134602983612048565b915061313f826130d8565b604082019050919050565b6000602082019050818103600083015261316381613127565b9050919050565b600081519050919050565b600082825260208201905092915050565b60006131918261316a565b61319b8185613175565b93506131ab818560208601612059565b6131b481612083565b840191505092915050565b600060a0820190506131d4600083018861265c565b6131e1602083018761265c565b81810360408301526131f381866125dc565b9050818103606083015261320781856125dc565b9050818103608083015261321b8184613186565b90509695505050505050565b60008151905061323681611fae565b92915050565b60006020828403121561325257613251611e7a565b5b600061326084828501613227565b91505092915050565b60008160e01c9050919050565b600060033d11156132955760046000803e613292600051613269565b90505b90565b600060443d10613325576132aa611e70565b60043d036004823e80513d602482011167ffffffffffffffff821117156132d2575050613325565b808201805167ffffffffffffffff8111156132f05750505050613325565b80602083010160043d03850181111561330d575050505050613325565b61331c826020018501866121a9565b82955050505050505b90565b7f455243313135353a207472616e7366657220746f206e6f6e2d4552433131353560008201527f526563656976657220696d706c656d656e746572000000000000000000000000602082015250565b6000613384603483612048565b915061338f82613328565b604082019050919050565b600060208201905081810360008301526133b381613377565b9050919050565b7f455243313135353a204552433131353552656365697665722072656a6563746560008201527f6420746f6b656e73000000000000000000000000000000000000000000000000602082015250565b6000613416602883612048565b9150613421826133ba565b604082019050919050565b6000602082019050818103600083015261344581613409565b9050919050565b600060a082019050613461600083018861265c565b61346e602083018761265c565b61347b6040830186611f58565b6134886060830185611f58565b818103608083015261349a8184613186565b9050969550505050505056fea26469706673582212201ef7df194ef5d2eedfd893deb980927fadc82dd87ee949c25b3495bc12d076f064736f6c63430008110033",
  "linkReferences": {},
  "deployedLinkReferences": {}
}