{
  "_format": "hh-sol-artifact-1",
  "contractName": "Attack",
  "sourceName": "contracts/attack.sol",
  "abi": [
    {
      "inputs": [
        {
          "internalType": "contract GuessTheRandomNumber",
          "name": "guessTheRandomNumber",
          "type": "address"
        }
      ],
      "name": "attack",
      "outputs": [],
      "stateMutability": "nonpayable",
      "type": "function"
    },
    {
      "stateMutability": "payable",
      "type": "receive"
    }
  ],
  "bytecode": "0x608060405234801561001057600080fd5b506102ea806100206000396000f3fe6080604052600436106100225760003560e01c8063d018db3e1461002e57610029565b3661002957005b600080fd5b34801561003a57600080fd5b5061005560048036038101906100509190610178565b610057565b005b600060014361006691906101de565b404260405160200161007992919061025e565b6040516020818303038152906040528051906020012060001c90508173ffffffffffffffffffffffffffffffffffffffff16639189fec1826040518263ffffffff1660e01b81526004016100cd9190610299565b600060405180830381600087803b1580156100e757600080fd5b505af11580156100fb573d6000803e3d6000fd5b505050505050565b600080fd5b600073ffffffffffffffffffffffffffffffffffffffff82169050919050565b600061013382610108565b9050919050565b600061014582610128565b9050919050565b6101558161013a565b811461016057600080fd5b50565b6000813590506101728161014c565b92915050565b60006020828403121561018e5761018d610103565b5b600061019c84828501610163565b91505092915050565b6000819050919050565b7f4e487b7100000000000000000000000000000000000000000000000000000000600052601160045260246000fd5b60006101e9826101a5565b91506101f4836101a5565b925082820390508181111561020c5761020b6101af565b5b92915050565b6000819050919050565b6000819050919050565b61023761023282610212565b61021c565b82525050565b6000819050919050565b610258610253826101a5565b61023d565b82525050565b600061026a8285610226565b60208201915061027a8284610247565b6020820191508190509392505050565b610293816101a5565b82525050565b60006020820190506102ae600083018461028a565b9291505056fea2646970667358221220082cff4fc40177d009991ce5e110257f2bdcefa62f3aea81e42a245d23df365064736f6c63430008110033",
  "linkReferences": {},
  "deployedLinkReferences": {}
}