{
  "_format": "hh-sol-artifact-1",
  "contractName": "ViewAndPureFunctions",
  "sourceName": "contracts/view_pure_functions.sol",
  "abi": [
    {
      "inputs": [
        {
          "internalType": "uint256",
          "name": "x",
          "type": "uint256"
        },
        {
          "internalType": "uint256",
          "name": "y",
          "type": "uint256"
        }
      ],
      "name": "add",
      "outputs": [
        {
          "internalType": "uint256",
          "name": "",
          "type": "uint256"
        }
      ],
      "stateMutability": "pure",
      "type": "function"
    },
    {
      "inputs": [
        {
          "internalType": "uint256",
          "name": "x",
          "type": "uint256"
        }
      ],
      "name": "addToNum",
      "outputs": [
        {
          "internalType": "uint256",
          "name": "",
          "type": "uint256"
        }
      ],
      "stateMutability": "view",
      "type": "function"
    },
    {
      "inputs": [],
      "name": "num",
      "outputs": [
        {
          "internalType": "uint256",
          "name": "",
          "type": "uint256"
        }
      ],
      "stateMutability": "view",
      "type": "function"
    },
    {
      "inputs": [],
      "name": "pureFunc",
      "outputs": [
        {
          "internalType": "uint256",
          "name": "",
          "type": "uint256"
        }
      ],
      "stateMutability": "pure",
      "type": "function"
    },
    {
      "inputs": [],
      "name": "viewFunc",
      "outputs": [
        {
          "internalType": "uint256",
          "name": "",
          "type": "uint256"
        }
      ],
      "stateMutability": "view",
      "type": "function"
    }
  ],
  "bytecode": "0x608060405234801561001057600080fd5b506102c6806100206000396000f3fe608060405234801561001057600080fd5b50600436106100575760003560e01c8063231e18a91461005c5780634e70b1dc1461007a578063771602f7146100985780637f2857b6146100c8578063ff7f3fd5146100e6575b600080fd5b610064610116565b6040516100719190610174565b60405180910390f35b61008261011f565b60405161008f9190610174565b60405180910390f35b6100b260048036038101906100ad91906101c0565b610125565b6040516100bf9190610174565b60405180910390f35b6100d061013b565b6040516100dd9190610174565b60405180910390f35b61010060048036038101906100fb9190610200565b610144565b60405161010d9190610174565b60405180910390f35b60006001905090565b60005481565b60008183610133919061025c565b905092915050565b60008054905090565b600081600054610154919061025c565b9050919050565b6000819050919050565b61016e8161015b565b82525050565b60006020820190506101896000830184610165565b92915050565b600080fd5b61019d8161015b565b81146101a857600080fd5b50565b6000813590506101ba81610194565b92915050565b600080604083850312156101d7576101d661018f565b5b60006101e5858286016101ab565b92505060206101f6858286016101ab565b9150509250929050565b6000602082840312156102165761021561018f565b5b6000610224848285016101ab565b91505092915050565b7f4e487b7100000000000000000000000000000000000000000000000000000000600052601160045260246000fd5b60006102678261015b565b91506102728361015b565b925082820190508082111561028a5761028961022d565b5b9291505056fea264697066735822122055a4e220ecfd095bf10216957e234626d29fe2a9597e6f82b9162f04b67c5e7564736f6c63430008110033",
  "linkReferences": {},
  "deployedLinkReferences": {}
}