{
  "_format": "hh-sol-artifact-1",
  "contractName": "ArrayBasic",
  "sourceName": "contracts/array.sol",
  "abi": [
    {
      "inputs": [
        {
          "internalType": "uint256",
          "name": "",
          "type": "uint256"
        }
      ],
      "name": "arr",
      "outputs": [
        {
          "internalType": "uint256",
          "name": "",
          "type": "uint256"
        }
      ],
      "stateMutability": "view",
      "type": "function"
    },
    {
      "inputs": [
        {
          "internalType": "uint256",
          "name": "",
          "type": "uint256"
        }
      ],
      "name": "arr2",
      "outputs": [
        {
          "internalType": "uint256",
          "name": "",
          "type": "uint256"
        }
      ],
      "stateMutability": "view",
      "type": "function"
    },
    {
      "inputs": [
        {
          "internalType": "uint256",
          "name": "",
          "type": "uint256"
        }
      ],
      "name": "arrFixedSize",
      "outputs": [
        {
          "internalType": "uint256",
          "name": "",
          "type": "uint256"
        }
      ],
      "stateMutability": "view",
      "type": "function"
    },
    {
      "inputs": [],
      "name": "examples",
      "outputs": [],
      "stateMutability": "nonpayable",
      "type": "function"
    },
    {
      "inputs": [
        {
          "internalType": "uint256",
          "name": "i",
          "type": "uint256"
        }
      ],
      "name": "get",
      "outputs": [
        {
          "internalType": "uint256",
          "name": "",
          "type": "uint256"
        }
      ],
      "stateMutability": "view",
      "type": "function"
    },
    {
      "inputs": [],
      "name": "getLength",
      "outputs": [
        {
          "internalType": "uint256",
          "name": "",
          "type": "uint256"
        }
      ],
      "stateMutability": "view",
      "type": "function"
    },
    {
      "inputs": [
        {
          "internalType": "uint256",
          "name": "x",
          "type": "uint256"
        }
      ],
      "name": "push",
      "outputs": [],
      "stateMutability": "nonpayable",
      "type": "function"
    },
    {
      "inputs": [
        {
          "internalType": "uint256",
          "name": "i",
          "type": "uint256"
        }
      ],
      "name": "remove",
      "outputs": [],
      "stateMutability": "nonpayable",
      "type": "function"
    }
  ],
  "bytecode": "0x60806040526040518060600160405280600160ff168152602001600260ff168152602001600360ff16815250600190600361003b92919061004e565b5034801561004857600080fd5b506100bd565b82805482825590600052602060002090810192821561008f579160200282015b8281111561008e578251829060ff1690559160200191906001019061006e565b5b50905061009c91906100a0565b5090565b5b808211156100b95760008160009055506001016100a1565b5090565b610576806100cc6000396000f3fe608060405234801561001057600080fd5b50600436106100885760003560e01c8063959ac4841161005b578063959ac48414610113578063ad1a7ec81461012f578063be1c766b1461015f578063edf0099b1461017d57610088565b8063335d00c21461008d5780634cc822151461009757806371e5ee5f146100b35780639507d39a146100e3575b600080fd5b6100956101ad565b005b6100b160048036038101906100ac919061045c565b61033a565b005b6100cd60048036038101906100c8919061045c565b61035f565b6040516100da9190610498565b60405180910390f35b6100fd60048036038101906100f8919061045c565b610383565b60405161010a9190610498565b60405180910390f35b61012d6004803603810190610128919061045c565b6103aa565b005b6101496004803603810190610144919061045c565b6103d6565b6040516101569190610498565b60405180910390f35b6101676103f1565b6040516101749190610498565b60405180910390f35b6101976004803603810190610192919061045c565b6103fd565b6040516101a49190610498565b60405180910390f35b6000600190806001815401808255809150506001900390600052602060002001600090919091909150556000806000815481106101ed576101ec6104b3565b5b90600052602060002001549050607b600080815481106102105761020f6104b3565b5b906000526020600020018190555060008081548110610232576102316104b3565b5b906000526020600020016000905560006001908060018154018082558091505060019003906000526020600020016000909190919091505560006002908060018154018082558091505060019003906000526020600020016000909190919091505560008054806102a6576102a56104e2565b5b600190038181906000526020600020016000905590556000808054905090506000600367ffffffffffffffff8111156102e2576102e1610511565b5b6040519080825280602002602001820160405280156103105781602001602082028036833780820191505090505b509050600181600081518110610329576103286104b3565b5b602002602001018181525050505050565b6000818154811061034e5761034d6104b3565b5b906000526020600020016000905550565b6000818154811061036f57600080fd5b906000526020600020016000915090505481565b6000808281548110610398576103976104b3565b5b90600052602060002001549050919050565b600081908060018154018082558091505060019003906000526020600020016000909190919091505550565b600281600381106103e657600080fd5b016000915090505481565b60008080549050905090565b6001818154811061040d57600080fd5b906000526020600020016000915090505481565b600080fd5b6000819050919050565b61043981610426565b811461044457600080fd5b50565b60008135905061045681610430565b92915050565b60006020828403121561047257610471610421565b5b600061048084828501610447565b91505092915050565b61049281610426565b82525050565b60006020820190506104ad6000830184610489565b92915050565b7f4e487b7100000000000000000000000000000000000000000000000000000000600052603260045260246000fd5b7f4e487b7100000000000000000000000000000000000000000000000000000000600052603160045260246000fd5b7f4e487b7100000000000000000000000000000000000000000000000000000000600052604160045260246000fdfea2646970667358221220ed51b3d6064637fbabcfaea8a9b6f1ce9bf8aa375d28189ee5eac5d21256be0564736f6c63430008110033",
  "linkReferences": {},
  "deployedLinkReferences": {}
}